{
	"DZStudentAnswer.sol": {
		"StudentAnswer": {
			"abi": [
				{
					"anonymous": false,
					"inputs": [
						{
							"indexed": true,
							"internalType": "uint256",
							"name": "student_id",
							"type": "uint256"
						},
						{
							"indexed": true,
							"internalType": "uint256",
							"name": "exam_id",
							"type": "uint256"
						},
						{
							"indexed": false,
							"internalType": "string",
							"name": "content",
							"type": "string"
						}
					],
					"name": "AnswerSubmitted",
					"type": "event"
				},
				{
					"anonymous": false,
					"inputs": [
						{
							"indexed": true,
							"internalType": "bytes32",
							"name": "role",
							"type": "bytes32"
						},
						{
							"indexed": true,
							"internalType": "address",
							"name": "account",
							"type": "address"
						},
						{
							"indexed": true,
							"internalType": "address",
							"name": "sender",
							"type": "address"
						}
					],
					"name": "RoleGranted",
					"type": "event"
				},
				{
					"anonymous": false,
					"inputs": [
						{
							"indexed": true,
							"internalType": "bytes32",
							"name": "role",
							"type": "bytes32"
						},
						{
							"indexed": true,
							"internalType": "address",
							"name": "account",
							"type": "address"
						},
						{
							"indexed": true,
							"internalType": "address",
							"name": "sender",
							"type": "address"
						}
					],
					"name": "RoleRevoked",
					"type": "event"
				},
				{
					"anonymous": false,
					"inputs": [
						{
							"indexed": true,
							"internalType": "uint256",
							"name": "student_id",
							"type": "uint256"
						},
						{
							"indexed": true,
							"internalType": "uint256",
							"name": "exam_id",
							"type": "uint256"
						},
						{
							"indexed": false,
							"internalType": "uint256",
							"name": "newScore",
							"type": "uint256"
						}
					],
					"name": "ScoreUpdated",
					"type": "event"
				},
				{
					"anonymous": false,
					"inputs": [
						{
							"indexed": true,
							"internalType": "uint256",
							"name": "student_id",
							"type": "uint256"
						},
						{
							"indexed": true,
							"internalType": "address",
							"name": "studentAddress",
							"type": "address"
						},
						{
							"indexed": false,
							"internalType": "address",
							"name": "setBy",
							"type": "address"
						}
					],
					"name": "StudentAddressSet",
					"type": "event"
				},
				{
					"anonymous": false,
					"inputs": [
						{
							"indexed": true,
							"internalType": "uint256",
							"name": "student_id",
							"type": "uint256"
						},
						{
							"indexed": true,
							"internalType": "address",
							"name": "oldAddress",
							"type": "address"
						},
						{
							"indexed": true,
							"internalType": "address",
							"name": "newAddress",
							"type": "address"
						},
						{
							"indexed": false,
							"internalType": "address",
							"name": "updatedBy",
							"type": "address"
						}
					],
					"name": "StudentAddressUpdated",
					"type": "event"
				},
				{
					"inputs": [],
					"name": "ADMIN_ROLE",
					"outputs": [
						{
							"internalType": "bytes32",
							"name": "",
							"type": "bytes32"
						}
					],
					"stateMutability": "view",
					"type": "function"
				},
				{
					"inputs": [],
					"name": "DEFAULT_ADMIN_ROLE",
					"outputs": [
						{
							"internalType": "bytes32",
							"name": "",
							"type": "bytes32"
						}
					],
					"stateMutability": "view",
					"type": "function"
				},
				{
					"inputs": [],
					"name": "EMPLOYER_ROLE",
					"outputs": [
						{
							"internalType": "bytes32",
							"name": "",
							"type": "bytes32"
						}
					],
					"stateMutability": "view",
					"type": "function"
				},
				{
					"inputs": [],
					"name": "LECTURER_ROLE",
					"outputs": [
						{
							"internalType": "bytes32",
							"name": "",
							"type": "bytes32"
						}
					],
					"stateMutability": "view",
					"type": "function"
				},
				{
					"inputs": [],
					"name": "STUDENT_ROLE",
					"outputs": [
						{
							"internalType": "bytes32",
							"name": "",
							"type": "bytes32"
						}
					],
					"stateMutability": "view",
					"type": "function"
				},
				{
					"inputs": [
						{
							"internalType": "address",
							"name": "",
							"type": "address"
						}
					],
					"name": "addressToStudentId",
					"outputs": [
						{
							"internalType": "uint256",
							"name": "",
							"type": "uint256"
						}
					],
					"stateMutability": "view",
					"type": "function"
				},
				{
					"inputs": [
						{
							"internalType": "uint256",
							"name": "student_id",
							"type": "uint256"
						},
						{
							"internalType": "uint256",
							"name": "exam_id",
							"type": "uint256"
						}
					],
					"name": "getAnswer",
					"outputs": [
						{
							"components": [
								{
									"internalType": "uint256",
									"name": "student_id",
									"type": "uint256"
								},
								{
									"internalType": "uint256",
									"name": "exam_id",
									"type": "uint256"
								},
								{
									"internalType": "string",
									"name": "content",
									"type": "string"
								},
								{
									"internalType": "uint256",
									"name": "score",
									"type": "uint256"
								},
								{
									"internalType": "bool",
									"name": "submitted",
									"type": "bool"
								}
							],
							"internalType": "struct StudentAnswer.Answer",
							"name": "",
							"type": "tuple"
						}
					],
					"stateMutability": "view",
					"type": "function"
				},
				{
					"inputs": [
						{
							"internalType": "uint256",
							"name": "student_id",
							"type": "uint256"
						},
						{
							"internalType": "uint256",
							"name": "exam_id",
							"type": "uint256"
						}
					],
					"name": "getScore",
					"outputs": [
						{
							"internalType": "uint256",
							"name": "",
							"type": "uint256"
						}
					],
					"stateMutability": "view",
					"type": "function"
				},
				{
					"inputs": [
						{
							"internalType": "uint256",
							"name": "_student_id",
							"type": "uint256"
						}
					],
					"name": "getStudentAddress",
					"outputs": [
						{
							"internalType": "address",
							"name": "",
							"type": "address"
						}
					],
					"stateMutability": "view",
					"type": "function"
				},
				{
					"inputs": [
						{
							"internalType": "address",
							"name": "_address",
							"type": "address"
						}
					],
					"name": "getStudentIdByAddress",
					"outputs": [
						{
							"internalType": "uint256",
							"name": "",
							"type": "uint256"
						}
					],
					"stateMutability": "view",
					"type": "function"
				},
				{
					"inputs": [
						{
							"internalType": "address",
							"name": "account",
							"type": "address"
						}
					],
					"name": "grantEmployerRole",
					"outputs": [],
					"stateMutability": "nonpayable",
					"type": "function"
				},
				{
					"inputs": [
						{
							"internalType": "address",
							"name": "account",
							"type": "address"
						}
					],
					"name": "grantLecturerRole",
					"outputs": [],
					"stateMutability": "nonpayable",
					"type": "function"
				},
				{
					"inputs": [
						{
							"internalType": "bytes32",
							"name": "role",
							"type": "bytes32"
						},
						{
							"internalType": "address",
							"name": "account",
							"type": "address"
						}
					],
					"name": "grantRole",
					"outputs": [],
					"stateMutability": "nonpayable",
					"type": "function"
				},
				{
					"inputs": [
						{
							"internalType": "address",
							"name": "account",
							"type": "address"
						}
					],
					"name": "grantStudentRole",
					"outputs": [],
					"stateMutability": "nonpayable",
					"type": "function"
				},
				{
					"inputs": [
						{
							"internalType": "bytes32",
							"name": "role",
							"type": "bytes32"
						},
						{
							"internalType": "address",
							"name": "account",
							"type": "address"
						}
					],
					"name": "hasRole",
					"outputs": [
						{
							"internalType": "bool",
							"name": "",
							"type": "bool"
						}
					],
					"stateMutability": "view",
					"type": "function"
				},
				{
					"inputs": [
						{
							"internalType": "uint256",
							"name": "student_id",
							"type": "uint256"
						},
						{
							"internalType": "uint256",
							"name": "exam_id",
							"type": "uint256"
						}
					],
					"name": "hasSubmitted",
					"outputs": [
						{
							"internalType": "bool",
							"name": "",
							"type": "bool"
						}
					],
					"stateMutability": "view",
					"type": "function"
				},
				{
					"inputs": [
						{
							"internalType": "address",
							"name": "account",
							"type": "address"
						}
					],
					"name": "revokeEmployerRole",
					"outputs": [],
					"stateMutability": "nonpayable",
					"type": "function"
				},
				{
					"inputs": [
						{
							"internalType": "address",
							"name": "account",
							"type": "address"
						}
					],
					"name": "revokeLecturerRole",
					"outputs": [],
					"stateMutability": "nonpayable",
					"type": "function"
				},
				{
					"inputs": [
						{
							"internalType": "bytes32",
							"name": "role",
							"type": "bytes32"
						},
						{
							"internalType": "address",
							"name": "account",
							"type": "address"
						}
					],
					"name": "revokeRole",
					"outputs": [],
					"stateMutability": "nonpayable",
					"type": "function"
				},
				{
					"inputs": [
						{
							"internalType": "address",
							"name": "account",
							"type": "address"
						}
					],
					"name": "revokeStudentRole",
					"outputs": [],
					"stateMutability": "nonpayable",
					"type": "function"
				},
				{
					"inputs": [
						{
							"internalType": "uint256",
							"name": "_student_id",
							"type": "uint256"
						},
						{
							"internalType": "address",
							"name": "_studentAddress",
							"type": "address"
						}
					],
					"name": "setStudentAddress",
					"outputs": [],
					"stateMutability": "nonpayable",
					"type": "function"
				},
				{
					"inputs": [
						{
							"internalType": "uint256",
							"name": "",
							"type": "uint256"
						}
					],
					"name": "studentAddresses",
					"outputs": [
						{
							"internalType": "address",
							"name": "",
							"type": "address"
						}
					],
					"stateMutability": "view",
					"type": "function"
				},
				{
					"inputs": [
						{
							"internalType": "uint256",
							"name": "student_id",
							"type": "uint256"
						},
						{
							"internalType": "uint256",
							"name": "exam_id",
							"type": "uint256"
						},
						{
							"internalType": "string",
							"name": "content",
							"type": "string"
						}
					],
					"name": "submitAnswer",
					"outputs": [],
					"stateMutability": "nonpayable",
					"type": "function"
				},
				{
					"inputs": [
						{
							"internalType": "uint256",
							"name": "student_id",
							"type": "uint256"
						},
						{
							"internalType": "uint256",
							"name": "exam_id",
							"type": "uint256"
						},
						{
							"internalType": "uint256",
							"name": "newScore",
							"type": "uint256"
						}
					],
					"name": "updateScore",
					"outputs": [],
					"stateMutability": "nonpayable",
					"type": "function"
				},
				{
					"inputs": [
						{
							"internalType": "uint256",
							"name": "_student_id",
							"type": "uint256"
						},
						{
							"internalType": "address",
							"name": "_newAddress",
							"type": "address"
						}
					],
					"name": "updateStudentAddress",
					"outputs": [],
					"stateMutability": "nonpayable",
					"type": "function"
				}
			],
			"devdoc": {
				"kind": "dev",
				"methods": {},
				"version": 1
			},
			"evm": {
				"assembly": "    /* \"DZStudentAnswer.sol\":96:2234  contract StudentAnswer is DZAccessControl {... */\n  mstore(0x40, 0x80)\n  callvalue\n  dup1\n  iszero\n  tag_1\n  jumpi\n  0x00\n  dup1\n  revert\ntag_1:\n  pop\n  dataSize(sub_0)\n  dup1\n  dataOffset(sub_0)\n  0x00\n  codecopy\n  0x00\n  return\nstop\n\nsub_0: assembly {\n        /* \"DZStudentAnswer.sol\":96:2234  contract StudentAnswer is DZAccessControl {... */\n      mstore(0x40, 0x80)\n      callvalue\n      dup1\n      iszero\n      tag_1\n      jumpi\n      0x00\n      dup1\n      revert\n    tag_1:\n      pop\n      jumpi(tag_2, lt(calldatasize, 0x04))\n      shr(0xe0, calldataload(0x00))\n      dup1\n      0x80ab3dda\n      gt\n      tag_28\n      jumpi\n      dup1\n      0xb5ab682d\n      gt\n      tag_29\n      jumpi\n      dup1\n      0xd547741f\n      gt\n      tag_30\n      jumpi\n      dup1\n      0xd547741f\n      eq\n      tag_24\n      jumpi\n      dup1\n      0xe67651ac\n      eq\n      tag_25\n      jumpi\n      dup1\n      0xf7be43fb\n      eq\n      tag_26\n      jumpi\n      dup1\n      0xfc9b39e6\n      eq\n      tag_27\n      jumpi\n      0x00\n      dup1\n      revert\n    tag_30:\n      dup1\n      0xb5ab682d\n      eq\n      tag_21\n      jumpi\n      dup1\n      0xc94d10ad\n      eq\n      tag_22\n      jumpi\n      dup1\n      0xd27fc520\n      eq\n      tag_23\n      jumpi\n      0x00\n      dup1\n      revert\n    tag_29:\n      dup1\n      0x80ab3dda\n      eq\n      tag_15\n      jumpi\n      dup1\n      0x86c34415\n      eq\n      tag_16\n      jumpi\n      dup1\n      0x91d14854\n      eq\n      tag_17\n      jumpi\n      dup1\n      0xa217fddf\n      eq\n      tag_18\n      jumpi\n      dup1\n      0xa22c1bc9\n      eq\n      tag_19\n      jumpi\n      dup1\n      0xadc6ba73\n      eq\n      tag_20\n      jumpi\n      0x00\n      dup1\n      revert\n    tag_28:\n      dup1\n      0x2f2ff15d\n      gt\n      tag_31\n      jumpi\n      dup1\n      0x2f2ff15d\n      eq\n      tag_9\n      jumpi\n      dup1\n      0x32b3c846\n      eq\n      tag_10\n      jumpi\n      dup1\n      0x3f0a92fb\n      eq\n      tag_11\n      jumpi\n      dup1\n      0x66b2d280\n      eq\n      tag_12\n      jumpi\n      dup1\n      0x6a0d2892\n      eq\n      tag_13\n      jumpi\n      dup1\n      0x75b238fc\n      eq\n      tag_14\n      jumpi\n      0x00\n      dup1\n      revert\n    tag_31:\n      dup1\n      0x0713eb02\n      eq\n      tag_3\n      jumpi\n      dup1\n      0x16853feb\n      eq\n      tag_4\n      jumpi\n      dup1\n      0x1bc7980c\n      eq\n      tag_5\n      jumpi\n      dup1\n      0x2426bb38\n      eq\n      tag_6\n      jumpi\n      dup1\n      0x2543b3a7\n      eq\n      tag_7\n      jumpi\n      dup1\n      0x2ea0d829\n      eq\n      tag_8\n      jumpi\n    tag_2:\n      0x00\n      dup1\n      revert\n        /* \"DZAccessControl.sol\":346:412  bytes32 public constant LECTURER_ROLE = keccak256(\"LECTURER_ROLE\") */\n    tag_3:\n      tag_32\n      0x00\n      dup1\n      mload\n      0x20\n      data_6f93d34eb48bd68dc326c68374e43551b4b92ae8e465c919170be69b5a84151b\n      dup4\n      codecopy\n      dup2\n      mload\n      swap2\n      mstore\n      dup2\n      jump\n    tag_32:\n      mload(0x40)\n        /* \"#utility.yul\":160:185   */\n      swap1\n      dup2\n      mstore\n        /* \"#utility.yul\":148:150   */\n      0x20\n        /* \"#utility.yul\":133:151   */\n      add\n        /* \"DZAccessControl.sol\":346:412  bytes32 public constant LECTURER_ROLE = keccak256(\"LECTURER_ROLE\") */\n    tag_34:\n      mload(0x40)\n      dup1\n      swap2\n      sub\n      swap1\n      return\n        /* \"DZAccessControl.sol\":2814:2939  function grantEmployerRole(address account) public onlyRole(ADMIN_ROLE) {... */\n    tag_4:\n      tag_36\n      tag_37\n      calldatasize\n      0x04\n      tag_38\n      jump\t// in\n    tag_37:\n      tag_39\n      jump\t// in\n    tag_36:\n      stop\n        /* \"DZStudentAnswer.sol\":777:1261  function submitAnswer(uint256 student_id, uint256 exam_id, string calldata content) external onlyRole(STUDENT_ROLE) {... */\n    tag_5:\n      tag_36\n      tag_41\n      calldatasize\n      0x04\n      tag_42\n      jump\t// in\n    tag_41:\n      tag_43\n      jump\t// in\n        /* \"DZAccessControl.sol\":490:556  bytes32 public constant EMPLOYER_ROLE = keccak256(\"EMPLOYER_ROLE\") */\n    tag_6:\n      tag_32\n        /* \"DZAccessControl.sol\":530:556  keccak256(\"EMPLOYER_ROLE\") */\n      0xfc7c36207174f786648d2e624616a4b40e15fd7f0268b4e36af5057f0c43c835\n        /* \"DZAccessControl.sol\":490:556  bytes32 public constant EMPLOYER_ROLE = keccak256(\"EMPLOYER_ROLE\") */\n      dup2\n      jump\n        /* \"DZStudentAnswer.sol\":2078:2231  function hasSubmitted(uint256 student_id, uint256 exam_id) external view returns (bool) {... */\n    tag_7:\n      tag_47\n      tag_48\n      calldatasize\n      0x04\n      tag_49\n      jump\t// in\n    tag_48:\n        /* \"DZStudentAnswer.sol\":2160:2164  bool */\n      0x00\n        /* \"DZStudentAnswer.sol\":2184:2204  _answers[student_id] */\n      swap2\n      dup3\n      mstore\n        /* \"DZStudentAnswer.sol\":2184:2192  _answers */\n      0x04\n        /* \"DZStudentAnswer.sol\":2184:2204  _answers[student_id] */\n      0x20\n      dup2\n      dup2\n      mstore\n      0x40\n      dup1\n      dup6\n      keccak256\n        /* \"DZStudentAnswer.sol\":2184:2213  _answers[student_id][exam_id] */\n      swap4\n      dup6\n      mstore\n      swap3\n      swap1\n      mstore\n      swap2\n      keccak256\n        /* \"DZStudentAnswer.sol\":2184:2223  _answers[student_id][exam_id].submitted */\n      add\n      sload\n      0xff\n      and\n      swap1\n        /* \"DZStudentAnswer.sol\":2078:2231  function hasSubmitted(uint256 student_id, uint256 exam_id) external view returns (bool) {... */\n      jump\n    tag_47:\n      mload(0x40)\n        /* \"#utility.yul\":2003:2017   */\n      swap1\n      iszero\n        /* \"#utility.yul\":1996:2018   */\n      iszero\n        /* \"#utility.yul\":1978:2019   */\n      dup2\n      mstore\n        /* \"#utility.yul\":1966:1968   */\n      0x20\n        /* \"#utility.yul\":1951:1969   */\n      add\n        /* \"DZStudentAnswer.sol\":2078:2231  function hasSubmitted(uint256 student_id, uint256 exam_id) external view returns (bool) {... */\n      tag_34\n        /* \"#utility.yul\":1838:2025   */\n      jump\n        /* \"DZAccessControl.sol\":3215:3342  function revokeEmployerRole(address account) public onlyRole(ADMIN_ROLE) {... */\n    tag_8:\n      tag_36\n      tag_54\n      calldatasize\n      0x04\n      tag_38\n      jump\t// in\n    tag_54:\n      tag_55\n      jump\t// in\n        /* \"DZAccessControl.sol\":2272:2402  function grantRole(bytes32 role, address account) public onlyRole(DEFAULT_ADMIN_ROLE) {... */\n    tag_9:\n      tag_36\n      tag_57\n      calldatasize\n      0x04\n      tag_58\n      jump\t// in\n    tag_57:\n      tag_59\n      jump\t// in\n        /* \"DZAccessControl.sol\":3082:3207  function revokeStudentRole(address account) public onlyRole(ADMIN_ROLE) {... */\n    tag_10:\n      tag_36\n      tag_61\n      calldatasize\n      0x04\n      tag_38\n      jump\t// in\n    tag_61:\n      tag_62\n      jump\t// in\n        /* \"DZStudentAnswer.sol\":1315:1632  function updateScore(uint256 student_id, uint256 exam_id, uint256 newScore) external onlyRole(LECTURER_ROLE) {... */\n    tag_11:\n      tag_36\n      tag_64\n      calldatasize\n      0x04\n      tag_65\n      jump\t// in\n    tag_64:\n      tag_66\n      jump\t// in\n        /* \"DZAccessControl.sol\":2550:2675  function grantLecturerRole(address account) public onlyRole(ADMIN_ROLE) {... */\n    tag_12:\n      tag_36\n      tag_68\n      calldatasize\n      0x04\n      tag_38\n      jump\t// in\n    tag_68:\n      tag_69\n      jump\t// in\n        /* \"DZAccessControl.sol\":3988:4718  function updateStudentAddress(uint256 _student_id, address _newAddress) public onlyRole(ADMIN_ROLE) {... */\n    tag_13:\n      tag_36\n      tag_71\n      calldatasize\n      0x04\n      tag_58\n      jump\t// in\n    tag_71:\n      tag_73\n      jump\t// in\n        /* \"DZAccessControl.sol\":279:339  bytes32 public constant ADMIN_ROLE = keccak256(\"ADMIN_ROLE\") */\n    tag_14:\n      tag_32\n      0x00\n      dup1\n      mload\n      0x20\n      data_cb864c43dd5d441bb6271f424f11befa622c032dfd374d226e26fbbdb782b8f8\n      dup4\n      codecopy\n      dup2\n      mload\n      swap2\n      mstore\n      dup2\n      jump\n        /* \"DZAccessControl.sol\":4867:5000  function getStudentIdByAddress(address _address) public view returns (uint256) {... */\n    tag_15:\n      tag_32\n      tag_78\n      calldatasize\n      0x04\n      tag_38\n      jump\t// in\n    tag_78:\n      sub(shl(0xa0, 0x01), 0x01)\n        /* \"DZAccessControl.sol\":4964:4992  addressToStudentId[_address] */\n      and\n        /* \"DZAccessControl.sol\":4937:4944  uint256 */\n      0x00\n        /* \"DZAccessControl.sol\":4964:4992  addressToStudentId[_address] */\n      swap1\n      dup2\n      mstore\n        /* \"DZAccessControl.sol\":4964:4982  addressToStudentId */\n      0x03\n        /* \"DZAccessControl.sol\":4964:4992  addressToStudentId[_address] */\n      0x20\n      mstore\n      0x40\n      swap1\n      keccak256\n      sload\n      swap1\n        /* \"DZAccessControl.sol\":4867:5000  function getStudentIdByAddress(address _address) public view returns (uint256) {... */\n      jump\n        /* \"DZAccessControl.sol\":623:676  mapping(address => uint256) public addressToStudentId */\n    tag_16:\n      tag_32\n      tag_83\n      calldatasize\n      0x04\n      tag_38\n      jump\t// in\n    tag_83:\n      mstore(0x20, 0x03)\n      0x00\n      swap1\n      dup2\n      mstore\n      0x40\n      swap1\n      keccak256\n      sload\n      dup2\n      jump\n        /* \"DZAccessControl.sol\":1564:1686  function hasRole(bytes32 role, address account) public view returns (bool) {... */\n    tag_17:\n      tag_47\n      tag_87\n      calldatasize\n      0x04\n      tag_58\n      jump\t// in\n    tag_87:\n      tag_88\n      jump\t// in\n        /* \"DZAccessControl.sol\":223:272  bytes32 public constant DEFAULT_ADMIN_ROLE = 0x00 */\n    tag_18:\n      tag_32\n        /* \"DZAccessControl.sol\":268:272  0x00 */\n      0x00\n        /* \"DZAccessControl.sol\":223:272  bytes32 public constant DEFAULT_ADMIN_ROLE = 0x00 */\n      dup2\n      jump\n        /* \"DZStudentAnswer.sol\":1679:1828  function getAnswer(uint256 student_id, uint256 exam_id) external view returns (Answer memory) {... */\n    tag_19:\n      tag_93\n      tag_94\n      calldatasize\n      0x04\n      tag_49\n      jump\t// in\n    tag_94:\n      tag_95\n      jump\t// in\n    tag_93:\n      mload(0x40)\n      tag_34\n      swap2\n      swap1\n      tag_97\n      jump\t// in\n        /* \"DZStudentAnswer.sol\":1873:2021  function getScore(uint256 student_id, uint256 exam_id) external view returns (uint256) {... */\n    tag_20:\n      tag_32\n      tag_99\n      calldatasize\n      0x04\n      tag_49\n      jump\t// in\n    tag_99:\n        /* \"DZStudentAnswer.sol\":1951:1958  uint256 */\n      0x00\n        /* \"DZStudentAnswer.sol\":1978:1998  _answers[student_id] */\n      swap2\n      dup3\n      mstore\n        /* \"DZStudentAnswer.sol\":1978:1986  _answers */\n      0x04\n        /* \"DZStudentAnswer.sol\":1978:1998  _answers[student_id] */\n      0x20\n      swap1\n      dup2\n      mstore\n      0x40\n      dup1\n      dup5\n      keccak256\n        /* \"DZStudentAnswer.sol\":1978:2007  _answers[student_id][exam_id] */\n      swap3\n      dup5\n      mstore\n      swap2\n      swap1\n      mstore\n      swap1\n      keccak256\n        /* \"DZStudentAnswer.sol\":1978:2013  _answers[student_id][exam_id].score */\n      0x03\n      add\n      sload\n      swap1\n        /* \"DZStudentAnswer.sol\":1873:2021  function getScore(uint256 student_id, uint256 exam_id) external view returns (uint256) {... */\n      jump\n        /* \"DZAccessControl.sol\":565:616  mapping(uint256 => address) public studentAddresses */\n    tag_21:\n      tag_102\n      tag_103\n      calldatasize\n      0x04\n      tag_104\n      jump\t// in\n    tag_103:\n      mstore(0x20, 0x02)\n      0x00\n      swap1\n      dup2\n      mstore\n      0x40\n      swap1\n      keccak256\n      sload\n      sub(shl(0xa0, 0x01), 0x01)\n      and\n      dup2\n      jump\n    tag_102:\n      mload(0x40)\n      sub(shl(0xa0, 0x01), 0x01)\n        /* \"#utility.yul\":4593:4625   */\n      swap1\n      swap2\n      and\n        /* \"#utility.yul\":4575:4626   */\n      dup2\n      mstore\n        /* \"#utility.yul\":4563:4565   */\n      0x20\n        /* \"#utility.yul\":4548:4566   */\n      add\n        /* \"DZAccessControl.sol\":565:616  mapping(uint256 => address) public studentAddresses */\n      tag_34\n        /* \"#utility.yul\":4429:4632   */\n      jump\n        /* \"DZAccessControl.sol\":2683:2806  function grantStudentRole(address account) public onlyRole(ADMIN_ROLE) {... */\n    tag_22:\n      tag_36\n      tag_109\n      calldatasize\n      0x04\n      tag_38\n      jump\t// in\n    tag_109:\n      tag_110\n      jump\t// in\n        /* \"DZAccessControl.sol\":3350:3980  function setStudentAddress(uint256 _student_id, address _studentAddress) public onlyRole(ADMIN_ROLE) {... */\n    tag_23:\n      tag_36\n      tag_112\n      calldatasize\n      0x04\n      tag_58\n      jump\t// in\n    tag_112:\n      tag_113\n      jump\t// in\n        /* \"DZAccessControl.sol\":2410:2542  function revokeRole(bytes32 role, address account) public onlyRole(DEFAULT_ADMIN_ROLE) {... */\n    tag_24:\n      tag_36\n      tag_115\n      calldatasize\n      0x04\n      tag_58\n      jump\t// in\n    tag_115:\n      tag_116\n      jump\t// in\n        /* \"DZAccessControl.sol\":4726:4859  function getStudentAddress(uint256 _student_id) public view returns (address) {... */\n    tag_25:\n      tag_102\n      tag_118\n      calldatasize\n      0x04\n      tag_104\n      jump\t// in\n    tag_118:\n        /* \"DZAccessControl.sol\":4795:4802  address */\n      0x00\n        /* \"DZAccessControl.sol\":4822:4851  studentAddresses[_student_id] */\n      swap1\n      dup2\n      mstore\n        /* \"DZAccessControl.sol\":4822:4838  studentAddresses */\n      0x02\n        /* \"DZAccessControl.sol\":4822:4851  studentAddresses[_student_id] */\n      0x20\n      mstore\n      0x40\n      swap1\n      keccak256\n      sload\n      sub(shl(0xa0, 0x01), 0x01)\n      and\n      swap1\n        /* \"DZAccessControl.sol\":4726:4859  function getStudentAddress(uint256 _student_id) public view returns (address) {... */\n      jump\n        /* \"DZAccessControl.sol\":419:483  bytes32 public constant STUDENT_ROLE = keccak256(\"STUDENT_ROLE\") */\n    tag_26:\n      tag_32\n      0x00\n      dup1\n      mload\n      0x20\n      data_21cb3fef777527601eb23e0445345c54d2aab647c528ca38c9095962d5bfc074\n      dup4\n      codecopy\n      dup2\n      mload\n      swap2\n      mstore\n      dup2\n      jump\n        /* \"DZAccessControl.sol\":2947:3074  function revokeLecturerRole(address account) public onlyRole(ADMIN_ROLE) {... */\n    tag_27:\n      tag_36\n      tag_125\n      calldatasize\n      0x04\n      tag_38\n      jump\t// in\n    tag_125:\n      tag_126\n      jump\t// in\n        /* \"DZAccessControl.sol\":2814:2939  function grantEmployerRole(address account) public onlyRole(ADMIN_ROLE) {... */\n    tag_39:\n      0x00\n      dup1\n      mload\n      0x20\n      data_cb864c43dd5d441bb6271f424f11befa622c032dfd374d226e26fbbdb782b8f8\n      dup4\n      codecopy\n      dup2\n      mload\n      swap2\n      mstore\n        /* \"DZAccessControl.sol\":1170:1195  hasRole(role, msg.sender) */\n      tag_128\n        /* \"DZAccessControl.sol\":1178:1182  role */\n      dup2\n        /* \"DZAccessControl.sol\":1184:1194  msg.sender */\n      caller\n        /* \"DZAccessControl.sol\":1170:1177  hasRole */\n      tag_88\n        /* \"DZAccessControl.sol\":1170:1195  hasRole(role, msg.sender) */\n      jump\t// in\n    tag_128:\n        /* \"DZAccessControl.sol\":1162:1213  require(hasRole(role, msg.sender), \"Access denied\") */\n      tag_129\n      jumpi\n      mload(0x40)\n      shl(0xe5, 0x461bcd)\n      dup2\n      mstore\n      0x04\n      add\n      tag_130\n      swap1\n      tag_131\n      jump\t// in\n    tag_130:\n      mload(0x40)\n      dup1\n      swap2\n      sub\n      swap1\n      revert\n    tag_129:\n        /* \"DZAccessControl.sol\":2897:2931  _grantRole(EMPLOYER_ROLE, account) */\n      tag_133\n        /* \"DZAccessControl.sol\":530:556  keccak256(\"EMPLOYER_ROLE\") */\n      0xfc7c36207174f786648d2e624616a4b40e15fd7f0268b4e36af5057f0c43c835\n        /* \"DZAccessControl.sol\":2923:2930  account */\n      dup4\n        /* \"DZAccessControl.sol\":2897:2907  _grantRole */\n      tag_134\n        /* \"DZAccessControl.sol\":2897:2931  _grantRole(EMPLOYER_ROLE, account) */\n      jump\t// in\n    tag_133:\n        /* \"DZAccessControl.sol\":2814:2939  function grantEmployerRole(address account) public onlyRole(ADMIN_ROLE) {... */\n      pop\n      pop\n      jump\t// out\n        /* \"DZStudentAnswer.sol\":777:1261  function submitAnswer(uint256 student_id, uint256 exam_id, string calldata content) external onlyRole(STUDENT_ROLE) {... */\n    tag_43:\n      0x00\n      dup1\n      mload\n      0x20\n      data_21cb3fef777527601eb23e0445345c54d2aab647c528ca38c9095962d5bfc074\n      dup4\n      codecopy\n      dup2\n      mload\n      swap2\n      mstore\n        /* \"DZAccessControl.sol\":1170:1195  hasRole(role, msg.sender) */\n      tag_136\n        /* \"DZAccessControl.sol\":1178:1182  role */\n      dup2\n        /* \"DZAccessControl.sol\":1184:1194  msg.sender */\n      caller\n        /* \"DZAccessControl.sol\":1170:1177  hasRole */\n      tag_88\n        /* \"DZAccessControl.sol\":1170:1195  hasRole(role, msg.sender) */\n      jump\t// in\n    tag_136:\n        /* \"DZAccessControl.sol\":1162:1213  require(hasRole(role, msg.sender), \"Access denied\") */\n      tag_137\n      jumpi\n      mload(0x40)\n      shl(0xe5, 0x461bcd)\n      dup2\n      mstore\n      0x04\n      add\n      tag_130\n      swap1\n      tag_131\n      jump\t// in\n    tag_137:\n        /* \"DZStudentAnswer.sol\":913:933  _answers[student_id] */\n      0x00\n      dup6\n      dup2\n      mstore\n        /* \"DZStudentAnswer.sol\":913:921  _answers */\n      0x04\n        /* \"DZStudentAnswer.sol\":913:933  _answers[student_id] */\n      0x20\n      dup2\n      dup2\n      mstore\n      0x40\n      dup1\n      dup5\n      keccak256\n        /* \"DZStudentAnswer.sol\":913:942  _answers[student_id][exam_id] */\n      dup9\n      dup6\n      mstore\n      swap1\n      swap2\n      mstore\n      swap1\n      swap2\n      keccak256\n        /* \"DZStudentAnswer.sol\":913:952  _answers[student_id][exam_id].submitted */\n      add\n      sload\n      0xff\n      and\n        /* \"DZStudentAnswer.sol\":912:952  !_answers[student_id][exam_id].submitted */\n      iszero\n        /* \"DZStudentAnswer.sol\":904:974  require(!_answers[student_id][exam_id].submitted, \"Already submitted\") */\n      tag_140\n      jumpi\n      mload(0x40)\n      shl(0xe5, 0x461bcd)\n      dup2\n      mstore\n        /* \"#utility.yul\":5181:5183   */\n      0x20\n        /* \"DZStudentAnswer.sol\":904:974  require(!_answers[student_id][exam_id].submitted, \"Already submitted\") */\n      0x04\n      dup3\n      add\n        /* \"#utility.yul\":5163:5184   */\n      mstore\n        /* \"#utility.yul\":5220:5222   */\n      0x11\n        /* \"#utility.yul\":5200:5218   */\n      0x24\n      dup3\n      add\n        /* \"#utility.yul\":5193:5223   */\n      mstore\n      shl(0x7a, 0x105b1c9958591e481cdd589b5a5d1d1959)\n        /* \"#utility.yul\":5239:5257   */\n      0x44\n      dup3\n      add\n        /* \"#utility.yul\":5232:5279   */\n      mstore\n        /* \"#utility.yul\":5296:5314   */\n      0x64\n      add\n        /* \"DZStudentAnswer.sol\":904:974  require(!_answers[student_id][exam_id].submitted, \"Already submitted\") */\n      tag_130\n        /* \"#utility.yul\":4979:5320   */\n      jump\n        /* \"DZStudentAnswer.sol\":904:974  require(!_answers[student_id][exam_id].submitted, \"Already submitted\") */\n    tag_140:\n        /* \"DZStudentAnswer.sol\":1019:1190  Answer({... */\n      mload(0x40)\n      dup1\n      0xa0\n      add\n      0x40\n      mstore\n      dup1\n        /* \"DZStudentAnswer.sol\":1053:1063  student_id */\n      dup7\n        /* \"DZStudentAnswer.sol\":1019:1190  Answer({... */\n      dup2\n      mstore\n      0x20\n      add\n        /* \"DZStudentAnswer.sol\":1087:1094  exam_id */\n      dup6\n        /* \"DZStudentAnswer.sol\":1019:1190  Answer({... */\n      dup2\n      mstore\n      0x20\n      add\n        /* \"DZStudentAnswer.sol\":1118:1125  content */\n      dup5\n      dup5\n        /* \"DZStudentAnswer.sol\":1019:1190  Answer({... */\n      dup1\n      dup1\n      0x1f\n      add\n      0x20\n      dup1\n      swap2\n      div\n      mul\n      0x20\n      add\n      mload(0x40)\n      swap1\n      dup2\n      add\n      0x40\n      mstore\n      dup1\n      swap4\n      swap3\n      swap2\n      swap1\n      dup2\n      dup2\n      mstore\n      0x20\n      add\n      dup4\n      dup4\n      dup1\n      dup3\n      dup5\n      calldatacopy\n      0x00\n      swap3\n      add\n      dup3\n      swap1\n      mstore\n      pop\n      swap4\n      dup6\n      mstore\n      pop\n      pop\n      pop\n      0x20\n      dup1\n      dup4\n      add\n      dup3\n      swap1\n      mstore\n        /* \"DZStudentAnswer.sol\":1174:1178  true */\n      0x01\n        /* \"DZStudentAnswer.sol\":1019:1190  Answer({... */\n      0x40\n      swap4\n      dup5\n      add\n      dup2\n      swap1\n      mstore\n        /* \"DZStudentAnswer.sol\":987:1007  _answers[student_id] */\n      dup10\n      dup4\n      mstore\n        /* \"DZStudentAnswer.sol\":987:995  _answers */\n      0x04\n        /* \"DZStudentAnswer.sol\":987:1007  _answers[student_id] */\n      dup3\n      mstore\n      dup4\n      dup4\n      keccak256\n        /* \"DZStudentAnswer.sol\":987:1016  _answers[student_id][exam_id] */\n      dup10\n      dup5\n      mstore\n      dup3\n      mstore\n      swap2\n      dup4\n      swap1\n      keccak256\n        /* \"DZStudentAnswer.sol\":987:1190  _answers[student_id][exam_id] = Answer({... */\n      dup5\n      mload\n      dup2\n      sstore\n      swap1\n      dup5\n      add\n      mload\n      swap2\n      dup2\n      add\n      swap2\n      swap1\n      swap2\n      sstore\n      swap1\n      dup3\n      add\n      mload\n      0x02\n      dup3\n      add\n      swap1\n      tag_143\n      swap1\n      dup3\n      tag_144\n      jump\t// in\n    tag_143:\n      pop\n      0x60\n      dup3\n      add\n      mload\n      0x03\n      dup3\n      add\n      sstore\n      0x80\n      swap1\n      swap2\n      add\n      mload\n      0x04\n      swap1\n      swap2\n      add\n      dup1\n      sload\n      not(0xff)\n      and\n      swap2\n      iszero\n      iszero\n      swap2\n      swap1\n      swap2\n      or\n      swap1\n      sstore\n        /* \"DZStudentAnswer.sol\":1208:1253  AnswerSubmitted(student_id, exam_id, content) */\n      mload(0x40)\n        /* \"DZStudentAnswer.sol\":1236:1243  exam_id */\n      dup5\n      swap1\n        /* \"DZStudentAnswer.sol\":1224:1234  student_id */\n      dup7\n      swap1\n        /* \"DZStudentAnswer.sol\":1208:1253  AnswerSubmitted(student_id, exam_id, content) */\n      0x7e1dcecea5687fbfa4bee3618e0cb22dfecdd1ce50800c45b577420be05c6442\n      swap1\n      tag_145\n      swap1\n        /* \"DZStudentAnswer.sol\":1245:1252  content */\n      dup8\n      swap1\n      dup8\n      swap1\n        /* \"DZStudentAnswer.sol\":1208:1253  AnswerSubmitted(student_id, exam_id, content) */\n      tag_146\n      jump\t// in\n    tag_145:\n      mload(0x40)\n      dup1\n      swap2\n      sub\n      swap1\n      log3\n        /* \"DZStudentAnswer.sol\":777:1261  function submitAnswer(uint256 student_id, uint256 exam_id, string calldata content) external onlyRole(STUDENT_ROLE) {... */\n      pop\n      pop\n      pop\n      pop\n      pop\n      jump\t// out\n        /* \"DZAccessControl.sol\":3215:3342  function revokeEmployerRole(address account) public onlyRole(ADMIN_ROLE) {... */\n    tag_55:\n      0x00\n      dup1\n      mload\n      0x20\n      data_cb864c43dd5d441bb6271f424f11befa622c032dfd374d226e26fbbdb782b8f8\n      dup4\n      codecopy\n      dup2\n      mload\n      swap2\n      mstore\n        /* \"DZAccessControl.sol\":1170:1195  hasRole(role, msg.sender) */\n      tag_149\n        /* \"DZAccessControl.sol\":1178:1182  role */\n      dup2\n        /* \"DZAccessControl.sol\":1184:1194  msg.sender */\n      caller\n        /* \"DZAccessControl.sol\":1170:1177  hasRole */\n      tag_88\n        /* \"DZAccessControl.sol\":1170:1195  hasRole(role, msg.sender) */\n      jump\t// in\n    tag_149:\n        /* \"DZAccessControl.sol\":1162:1213  require(hasRole(role, msg.sender), \"Access denied\") */\n      tag_150\n      jumpi\n      mload(0x40)\n      shl(0xe5, 0x461bcd)\n      dup2\n      mstore\n      0x04\n      add\n      tag_130\n      swap1\n      tag_131\n      jump\t// in\n    tag_150:\n        /* \"DZAccessControl.sol\":3299:3334  _revokeRole(EMPLOYER_ROLE, account) */\n      tag_133\n        /* \"DZAccessControl.sol\":530:556  keccak256(\"EMPLOYER_ROLE\") */\n      0xfc7c36207174f786648d2e624616a4b40e15fd7f0268b4e36af5057f0c43c835\n        /* \"DZAccessControl.sol\":3326:3333  account */\n      dup4\n        /* \"DZAccessControl.sol\":3299:3310  _revokeRole */\n      tag_154\n        /* \"DZAccessControl.sol\":3299:3334  _revokeRole(EMPLOYER_ROLE, account) */\n      jump\t// in\n        /* \"DZAccessControl.sol\":2272:2402  function grantRole(bytes32 role, address account) public onlyRole(DEFAULT_ADMIN_ROLE) {... */\n    tag_59:\n        /* \"DZAccessControl.sol\":268:272  0x00 */\n      0x00\n        /* \"DZAccessControl.sol\":1170:1195  hasRole(role, msg.sender) */\n      tag_156\n        /* \"DZAccessControl.sol\":268:272  0x00 */\n      dup2\n        /* \"DZAccessControl.sol\":1184:1194  msg.sender */\n      caller\n        /* \"DZAccessControl.sol\":1170:1177  hasRole */\n      tag_88\n        /* \"DZAccessControl.sol\":1170:1195  hasRole(role, msg.sender) */\n      jump\t// in\n    tag_156:\n        /* \"DZAccessControl.sol\":1162:1213  require(hasRole(role, msg.sender), \"Access denied\") */\n      tag_157\n      jumpi\n      mload(0x40)\n      shl(0xe5, 0x461bcd)\n      dup2\n      mstore\n      0x04\n      add\n      tag_130\n      swap1\n      tag_131\n      jump\t// in\n    tag_157:\n        /* \"DZAccessControl.sol\":2369:2394  _grantRole(role, account) */\n      tag_160\n        /* \"DZAccessControl.sol\":2380:2384  role */\n      dup4\n        /* \"DZAccessControl.sol\":2386:2393  account */\n      dup4\n        /* \"DZAccessControl.sol\":2369:2379  _grantRole */\n      tag_134\n        /* \"DZAccessControl.sol\":2369:2394  _grantRole(role, account) */\n      jump\t// in\n    tag_160:\n        /* \"DZAccessControl.sol\":2272:2402  function grantRole(bytes32 role, address account) public onlyRole(DEFAULT_ADMIN_ROLE) {... */\n      pop\n      pop\n      pop\n      jump\t// out\n        /* \"DZAccessControl.sol\":3082:3207  function revokeStudentRole(address account) public onlyRole(ADMIN_ROLE) {... */\n    tag_62:\n      0x00\n      dup1\n      mload\n      0x20\n      data_cb864c43dd5d441bb6271f424f11befa622c032dfd374d226e26fbbdb782b8f8\n      dup4\n      codecopy\n      dup2\n      mload\n      swap2\n      mstore\n        /* \"DZAccessControl.sol\":1170:1195  hasRole(role, msg.sender) */\n      tag_162\n        /* \"DZAccessControl.sol\":1178:1182  role */\n      dup2\n        /* \"DZAccessControl.sol\":1184:1194  msg.sender */\n      caller\n        /* \"DZAccessControl.sol\":1170:1177  hasRole */\n      tag_88\n        /* \"DZAccessControl.sol\":1170:1195  hasRole(role, msg.sender) */\n      jump\t// in\n    tag_162:\n        /* \"DZAccessControl.sol\":1162:1213  require(hasRole(role, msg.sender), \"Access denied\") */\n      tag_163\n      jumpi\n      mload(0x40)\n      shl(0xe5, 0x461bcd)\n      dup2\n      mstore\n      0x04\n      add\n      tag_130\n      swap1\n      tag_131\n      jump\t// in\n    tag_163:\n        /* \"DZAccessControl.sol\":3165:3199  _revokeRole(STUDENT_ROLE, account) */\n      tag_133\n      0x00\n      dup1\n      mload\n      0x20\n      data_21cb3fef777527601eb23e0445345c54d2aab647c528ca38c9095962d5bfc074\n      dup4\n      codecopy\n      dup2\n      mload\n      swap2\n      mstore\n        /* \"DZAccessControl.sol\":3191:3198  account */\n      dup4\n        /* \"DZAccessControl.sol\":3165:3176  _revokeRole */\n      tag_154\n        /* \"DZAccessControl.sol\":3165:3199  _revokeRole(STUDENT_ROLE, account) */\n      jump\t// in\n        /* \"DZStudentAnswer.sol\":1315:1632  function updateScore(uint256 student_id, uint256 exam_id, uint256 newScore) external onlyRole(LECTURER_ROLE) {... */\n    tag_66:\n      0x00\n      dup1\n      mload\n      0x20\n      data_6f93d34eb48bd68dc326c68374e43551b4b92ae8e465c919170be69b5a84151b\n      dup4\n      codecopy\n      dup2\n      mload\n      swap2\n      mstore\n        /* \"DZAccessControl.sol\":1170:1195  hasRole(role, msg.sender) */\n      tag_168\n        /* \"DZAccessControl.sol\":1178:1182  role */\n      dup2\n        /* \"DZAccessControl.sol\":1184:1194  msg.sender */\n      caller\n        /* \"DZAccessControl.sol\":1170:1177  hasRole */\n      tag_88\n        /* \"DZAccessControl.sol\":1170:1195  hasRole(role, msg.sender) */\n      jump\t// in\n    tag_168:\n        /* \"DZAccessControl.sol\":1162:1213  require(hasRole(role, msg.sender), \"Access denied\") */\n      tag_169\n      jumpi\n      mload(0x40)\n      shl(0xe5, 0x461bcd)\n      dup2\n      mstore\n      0x04\n      add\n      tag_130\n      swap1\n      tag_131\n      jump\t// in\n    tag_169:\n        /* \"DZStudentAnswer.sol\":1443:1463  _answers[student_id] */\n      0x00\n      dup5\n      dup2\n      mstore\n        /* \"DZStudentAnswer.sol\":1443:1451  _answers */\n      0x04\n        /* \"DZStudentAnswer.sol\":1443:1463  _answers[student_id] */\n      0x20\n      dup2\n      dup2\n      mstore\n      0x40\n      dup1\n      dup5\n      keccak256\n        /* \"DZStudentAnswer.sol\":1443:1472  _answers[student_id][exam_id] */\n      dup8\n      dup6\n      mstore\n      swap1\n      swap2\n      mstore\n      swap1\n      swap2\n      keccak256\n        /* \"DZStudentAnswer.sol\":1443:1482  _answers[student_id][exam_id].submitted */\n      add\n      sload\n      0xff\n      and\n        /* \"DZStudentAnswer.sol\":1435:1504  require(_answers[student_id][exam_id].submitted, \"Not submitted yet\") */\n      tag_172\n      jumpi\n      mload(0x40)\n      shl(0xe5, 0x461bcd)\n      dup2\n      mstore\n        /* \"#utility.yul\":8563:8565   */\n      0x20\n        /* \"DZStudentAnswer.sol\":1435:1504  require(_answers[student_id][exam_id].submitted, \"Not submitted yet\") */\n      0x04\n      dup3\n      add\n        /* \"#utility.yul\":8545:8566   */\n      mstore\n        /* \"#utility.yul\":8602:8604   */\n      0x11\n        /* \"#utility.yul\":8582:8600   */\n      0x24\n      dup3\n      add\n        /* \"#utility.yul\":8575:8605   */\n      mstore\n      shl(0x7a, 0x139bdd081cdd589b5a5d1d1959081e595d)\n        /* \"#utility.yul\":8621:8639   */\n      0x44\n      dup3\n      add\n        /* \"#utility.yul\":8614:8661   */\n      mstore\n        /* \"#utility.yul\":8678:8696   */\n      0x64\n      add\n        /* \"DZStudentAnswer.sol\":1435:1504  require(_answers[student_id][exam_id].submitted, \"Not submitted yet\") */\n      tag_130\n        /* \"#utility.yul\":8361:8702   */\n      jump\n        /* \"DZStudentAnswer.sol\":1435:1504  require(_answers[student_id][exam_id].submitted, \"Not submitted yet\") */\n    tag_172:\n        /* \"DZStudentAnswer.sol\":1517:1537  _answers[student_id] */\n      0x00\n      dup5\n      dup2\n      mstore\n        /* \"DZStudentAnswer.sol\":1517:1525  _answers */\n      0x04\n        /* \"DZStudentAnswer.sol\":1517:1537  _answers[student_id] */\n      0x20\n      swap1\n      dup2\n      mstore\n      0x40\n      dup1\n      dup4\n      keccak256\n        /* \"DZStudentAnswer.sol\":1517:1546  _answers[student_id][exam_id] */\n      dup7\n      dup5\n      mstore\n      dup3\n      mstore\n      swap2\n      dup3\n      swap1\n      keccak256\n        /* \"DZStudentAnswer.sol\":1517:1552  _answers[student_id][exam_id].score */\n      0x03\n      add\n        /* \"DZStudentAnswer.sol\":1517:1563  _answers[student_id][exam_id].score = newScore */\n      dup5\n      swap1\n      sstore\n        /* \"DZStudentAnswer.sol\":1581:1624  ScoreUpdated(student_id, exam_id, newScore) */\n      swap1\n      mload\n        /* \"#utility.yul\":160:185   */\n      dup4\n      dup2\n      mstore\n        /* \"DZStudentAnswer.sol\":1517:1546  _answers[student_id][exam_id] */\n      dup5\n      swap2\n        /* \"DZStudentAnswer.sol\":1517:1537  _answers[student_id] */\n      dup7\n      swap2\n        /* \"DZStudentAnswer.sol\":1581:1624  ScoreUpdated(student_id, exam_id, newScore) */\n      0xb2383e82269e758b9ec0fc961ac69cecc166570a12068c11b3f9cf29c8de9e88\n      swap2\n        /* \"#utility.yul\":133:151   */\n      add\n        /* \"DZStudentAnswer.sol\":1581:1624  ScoreUpdated(student_id, exam_id, newScore) */\n      mload(0x40)\n      dup1\n      swap2\n      sub\n      swap1\n      log3\n        /* \"DZStudentAnswer.sol\":1315:1632  function updateScore(uint256 student_id, uint256 exam_id, uint256 newScore) external onlyRole(LECTURER_ROLE) {... */\n      pop\n      pop\n      pop\n      pop\n      jump\t// out\n        /* \"DZAccessControl.sol\":2550:2675  function grantLecturerRole(address account) public onlyRole(ADMIN_ROLE) {... */\n    tag_69:\n      0x00\n      dup1\n      mload\n      0x20\n      data_cb864c43dd5d441bb6271f424f11befa622c032dfd374d226e26fbbdb782b8f8\n      dup4\n      codecopy\n      dup2\n      mload\n      swap2\n      mstore\n        /* \"DZAccessControl.sol\":1170:1195  hasRole(role, msg.sender) */\n      tag_177\n        /* \"DZAccessControl.sol\":1178:1182  role */\n      dup2\n        /* \"DZAccessControl.sol\":1184:1194  msg.sender */\n      caller\n        /* \"DZAccessControl.sol\":1170:1177  hasRole */\n      tag_88\n        /* \"DZAccessControl.sol\":1170:1195  hasRole(role, msg.sender) */\n      jump\t// in\n    tag_177:\n        /* \"DZAccessControl.sol\":1162:1213  require(hasRole(role, msg.sender), \"Access denied\") */\n      tag_178\n      jumpi\n      mload(0x40)\n      shl(0xe5, 0x461bcd)\n      dup2\n      mstore\n      0x04\n      add\n      tag_130\n      swap1\n      tag_131\n      jump\t// in\n    tag_178:\n        /* \"DZAccessControl.sol\":2633:2667  _grantRole(LECTURER_ROLE, account) */\n      tag_133\n      0x00\n      dup1\n      mload\n      0x20\n      data_6f93d34eb48bd68dc326c68374e43551b4b92ae8e465c919170be69b5a84151b\n      dup4\n      codecopy\n      dup2\n      mload\n      swap2\n      mstore\n        /* \"DZAccessControl.sol\":2659:2666  account */\n      dup4\n        /* \"DZAccessControl.sol\":2633:2643  _grantRole */\n      tag_134\n        /* \"DZAccessControl.sol\":2633:2667  _grantRole(LECTURER_ROLE, account) */\n      jump\t// in\n        /* \"DZAccessControl.sol\":3988:4718  function updateStudentAddress(uint256 _student_id, address _newAddress) public onlyRole(ADMIN_ROLE) {... */\n    tag_73:\n      0x00\n      dup1\n      mload\n      0x20\n      data_cb864c43dd5d441bb6271f424f11befa622c032dfd374d226e26fbbdb782b8f8\n      dup4\n      codecopy\n      dup2\n      mload\n      swap2\n      mstore\n        /* \"DZAccessControl.sol\":1170:1195  hasRole(role, msg.sender) */\n      tag_183\n        /* \"DZAccessControl.sol\":1178:1182  role */\n      dup2\n        /* \"DZAccessControl.sol\":1184:1194  msg.sender */\n      caller\n        /* \"DZAccessControl.sol\":1170:1177  hasRole */\n      tag_88\n        /* \"DZAccessControl.sol\":1170:1195  hasRole(role, msg.sender) */\n      jump\t// in\n    tag_183:\n        /* \"DZAccessControl.sol\":1162:1213  require(hasRole(role, msg.sender), \"Access denied\") */\n      tag_184\n      jumpi\n      mload(0x40)\n      shl(0xe5, 0x461bcd)\n      dup2\n      mstore\n      0x04\n      add\n      tag_130\n      swap1\n      tag_131\n      jump\t// in\n    tag_184:\n        /* \"DZAccessControl.sol\":4121:4122  0 */\n      0x00\n        /* \"DZAccessControl.sol\":4107:4118  _student_id */\n      dup4\n        /* \"DZAccessControl.sol\":4107:4122  _student_id > 0 */\n      gt\n        /* \"DZAccessControl.sol\":4099:4145  require(_student_id > 0, \"Invalid student ID\") */\n      tag_187\n      jumpi\n      mload(0x40)\n      shl(0xe5, 0x461bcd)\n      dup2\n      mstore\n        /* \"#utility.yul\":8909:8911   */\n      0x20\n        /* \"DZAccessControl.sol\":4099:4145  require(_student_id > 0, \"Invalid student ID\") */\n      0x04\n      dup3\n      add\n        /* \"#utility.yul\":8891:8912   */\n      mstore\n        /* \"#utility.yul\":8948:8950   */\n      0x12\n        /* \"#utility.yul\":8928:8946   */\n      0x24\n      dup3\n      add\n        /* \"#utility.yul\":8921:8951   */\n      mstore\n      shl(0x72, 0x125b9d985b1a59081cdd1d59195b9d081251)\n        /* \"#utility.yul\":8967:8985   */\n      0x44\n      dup3\n      add\n        /* \"#utility.yul\":8960:9008   */\n      mstore\n        /* \"#utility.yul\":9025:9043   */\n      0x64\n      add\n        /* \"DZAccessControl.sol\":4099:4145  require(_student_id > 0, \"Invalid student ID\") */\n      tag_130\n        /* \"#utility.yul\":8707:9049   */\n      jump\n        /* \"DZAccessControl.sol\":4099:4145  require(_student_id > 0, \"Invalid student ID\") */\n    tag_187:\n      sub(shl(0xa0, 0x01), 0x01)\n        /* \"DZAccessControl.sol\":4164:4189  _newAddress != address(0) */\n      dup3\n      and\n        /* \"DZAccessControl.sol\":4156:4209  require(_newAddress != address(0), \"Invalid address\") */\n      tag_190\n      jumpi\n      mload(0x40)\n      shl(0xe5, 0x461bcd)\n      dup2\n      mstore\n        /* \"#utility.yul\":9256:9258   */\n      0x20\n        /* \"DZAccessControl.sol\":4156:4209  require(_newAddress != address(0), \"Invalid address\") */\n      0x04\n      dup3\n      add\n        /* \"#utility.yul\":9238:9259   */\n      mstore\n        /* \"#utility.yul\":9295:9297   */\n      0x0f\n        /* \"#utility.yul\":9275:9293   */\n      0x24\n      dup3\n      add\n        /* \"#utility.yul\":9268:9298   */\n      mstore\n      shl(0x88, 0x496e76616c69642061646472657373)\n        /* \"#utility.yul\":9314:9332   */\n      0x44\n      dup3\n      add\n        /* \"#utility.yul\":9307:9352   */\n      mstore\n        /* \"#utility.yul\":9369:9387   */\n      0x64\n      add\n        /* \"DZAccessControl.sol\":4156:4209  require(_newAddress != address(0), \"Invalid address\") */\n      tag_130\n        /* \"#utility.yul\":9054:9393   */\n      jump\n        /* \"DZAccessControl.sol\":4156:4209  require(_newAddress != address(0), \"Invalid address\") */\n    tag_190:\n        /* \"DZAccessControl.sol\":4269:4270  0 */\n      0x00\n        /* \"DZAccessControl.sol\":4228:4257  studentAddresses[_student_id] */\n      dup4\n      dup2\n      mstore\n        /* \"DZAccessControl.sol\":4228:4244  studentAddresses */\n      0x02\n        /* \"DZAccessControl.sol\":4228:4257  studentAddresses[_student_id] */\n      0x20\n      mstore\n      0x40\n      swap1\n      keccak256\n      sload\n      sub(shl(0xa0, 0x01), 0x01)\n      and\n        /* \"DZAccessControl.sol\":4220:4299  require(studentAddresses[_student_id] != address(0), \"Student address not set\") */\n      tag_193\n      jumpi\n      mload(0x40)\n      shl(0xe5, 0x461bcd)\n      dup2\n      mstore\n        /* \"#utility.yul\":9600:9602   */\n      0x20\n        /* \"DZAccessControl.sol\":4220:4299  require(studentAddresses[_student_id] != address(0), \"Student address not set\") */\n      0x04\n      dup3\n      add\n        /* \"#utility.yul\":9582:9603   */\n      mstore\n        /* \"#utility.yul\":9639:9641   */\n      0x17\n        /* \"#utility.yul\":9619:9637   */\n      0x24\n      dup3\n      add\n        /* \"#utility.yul\":9612:9642   */\n      mstore\n        /* \"#utility.yul\":9678:9703   */\n      0x53747564656e742061646472657373206e6f7420736574000000000000000000\n        /* \"#utility.yul\":9658:9676   */\n      0x44\n      dup3\n      add\n        /* \"#utility.yul\":9651:9704   */\n      mstore\n        /* \"#utility.yul\":9721:9739   */\n      0x64\n      add\n        /* \"DZAccessControl.sol\":4220:4299  require(studentAddresses[_student_id] != address(0), \"Student address not set\") */\n      tag_130\n        /* \"#utility.yul\":9398:9745   */\n      jump\n        /* \"DZAccessControl.sol\":4220:4299  require(studentAddresses[_student_id] != address(0), \"Student address not set\") */\n    tag_193:\n      sub(shl(0xa0, 0x01), 0x01)\n        /* \"DZAccessControl.sol\":4318:4349  addressToStudentId[_newAddress] */\n      dup3\n      and\n      0x00\n      swap1\n      dup2\n      mstore\n        /* \"DZAccessControl.sol\":4318:4336  addressToStudentId */\n      0x03\n        /* \"DZAccessControl.sol\":4318:4349  addressToStudentId[_newAddress] */\n      0x20\n      mstore\n      0x40\n      swap1\n      keccak256\n      sload\n        /* \"DZAccessControl.sol\":4318:4354  addressToStudentId[_newAddress] == 0 */\n      iszero\n        /* \"DZAccessControl.sol\":4310:4400  require(addressToStudentId[_newAddress] == 0, \"Address already linked to another student\") */\n      tag_196\n      jumpi\n      mload(0x40)\n      shl(0xe5, 0x461bcd)\n      dup2\n      mstore\n      0x04\n      add\n      tag_130\n      swap1\n      tag_198\n      jump\t// in\n    tag_196:\n        /* \"DZAccessControl.sol\":4413:4431  address oldAddress */\n      0x00\n        /* \"DZAccessControl.sol\":4434:4463  studentAddresses[_student_id] */\n      dup4\n      dup2\n      mstore\n        /* \"DZAccessControl.sol\":4434:4450  studentAddresses */\n      0x02\n        /* \"DZAccessControl.sol\":4434:4463  studentAddresses[_student_id] */\n      0x20\n      swap1\n      dup2\n      mstore\n      0x40\n      dup1\n      dup4\n      keccak256\n      dup1\n      sload\n      sub(shl(0xa0, 0x01), 0x01)\n      swap1\n      dup2\n      and\n        /* \"DZAccessControl.sol\":4481:4511  addressToStudentId[oldAddress] */\n      dup1\n      dup7\n      mstore\n        /* \"DZAccessControl.sol\":4481:4499  addressToStudentId */\n      0x03\n        /* \"DZAccessControl.sol\":4481:4511  addressToStudentId[oldAddress] */\n      dup6\n      mstore\n      dup4\n      dup7\n      keccak256\n        /* \"DZAccessControl.sol\":4474:4511  delete addressToStudentId[oldAddress] */\n      dup7\n      swap1\n      sstore\n        /* \"DZAccessControl.sol\":4522:4565  studentAddresses[_student_id] = _newAddress */\n      dup3\n      sload\n      not(sub(shl(0xa0, 0x01), 0x01))\n      and\n      swap2\n      dup9\n      and\n      swap2\n      dup3\n      or\n      swap1\n      swap3\n      sstore\n        /* \"DZAccessControl.sol\":4576:4607  addressToStudentId[_newAddress] */\n      dup1\n      dup6\n      mstore\n      swap4\n      dup3\n      swap1\n      keccak256\n        /* \"DZAccessControl.sol\":4576:4621  addressToStudentId[_newAddress] = _student_id */\n      dup8\n      swap1\n      sstore\n        /* \"DZAccessControl.sol\":4639:4710  StudentAddressUpdated(_student_id, oldAddress, _newAddress, msg.sender) */\n      swap1\n      mload\n        /* \"DZAccessControl.sol\":4699:4709  msg.sender */\n      caller\n        /* \"#utility.yul\":4575:4626   */\n      dup2\n      mstore\n        /* \"DZAccessControl.sol\":4434:4463  studentAddresses[_student_id] */\n      swap1\n      swap3\n        /* \"DZAccessControl.sol\":4522:4565  studentAddresses[_student_id] = _newAddress */\n      swap2\n        /* \"DZAccessControl.sol\":4434:4463  studentAddresses[_student_id] */\n      dup4\n      swap2\n      dup8\n      swap2\n        /* \"DZAccessControl.sol\":4639:4710  StudentAddressUpdated(_student_id, oldAddress, _newAddress, msg.sender) */\n      0x59e33f3654f744a7a32cda9a919fa879941875bb700d1c776ade2f64e23b4649\n      swap2\n        /* \"#utility.yul\":4548:4566   */\n      add\n        /* \"DZAccessControl.sol\":4639:4710  StudentAddressUpdated(_student_id, oldAddress, _newAddress, msg.sender) */\n      mload(0x40)\n      dup1\n      swap2\n      sub\n      swap1\n      log4\n        /* \"DZAccessControl.sol\":4088:4718  {... */\n      pop\n        /* \"DZAccessControl.sol\":3988:4718  function updateStudentAddress(uint256 _student_id, address _newAddress) public onlyRole(ADMIN_ROLE) {... */\n      pop\n      pop\n      pop\n      jump\t// out\n        /* \"DZAccessControl.sol\":1564:1686  function hasRole(bytes32 role, address account) public view returns (bool) {... */\n    tag_88:\n        /* \"DZAccessControl.sol\":1633:1637  bool */\n      0x00\n        /* \"DZAccessControl.sol\":1657:1669  _roles[role] */\n      swap2\n      dup3\n      mstore\n      0x20\n      dup3\n      dup2\n      mstore\n      0x40\n      dup1\n      dup5\n      keccak256\n      sub(shl(0xa0, 0x01), 0x01)\n        /* \"DZAccessControl.sol\":1657:1678  _roles[role][account] */\n      swap4\n      swap1\n      swap4\n      and\n      dup5\n      mstore\n      swap2\n      swap1\n      mstore\n      swap1\n      keccak256\n      sload\n      0xff\n      and\n      swap1\n        /* \"DZAccessControl.sol\":1564:1686  function hasRole(bytes32 role, address account) public view returns (bool) {... */\n      jump\t// out\n        /* \"DZStudentAnswer.sol\":1679:1828  function getAnswer(uint256 student_id, uint256 exam_id) external view returns (Answer memory) {... */\n    tag_95:\n        /* \"DZStudentAnswer.sol\":1758:1771  Answer memory */\n      tag_202\n      mload(0x40)\n      dup1\n      0xa0\n      add\n      0x40\n      mstore\n      dup1\n      0x00\n      dup2\n      mstore\n      0x20\n      add\n      0x00\n      dup2\n      mstore\n      0x20\n      add\n      0x60\n      dup2\n      mstore\n      0x20\n      add\n      0x00\n      dup2\n      mstore\n      0x20\n      add\n      iszero(iszero(0x00))\n      dup2\n      mstore\n      pop\n      swap1\n      jump\n    tag_202:\n        /* \"DZStudentAnswer.sol\":1791:1799  _answers */\n      0x04\n        /* \"DZStudentAnswer.sol\":1791:1811  _answers[student_id] */\n      0x00\n        /* \"DZStudentAnswer.sol\":1800:1810  student_id */\n      dup5\n        /* \"DZStudentAnswer.sol\":1791:1811  _answers[student_id] */\n      dup2\n      mstore\n      0x20\n      add\n      swap1\n      dup2\n      mstore\n      0x20\n      add\n      0x00\n      keccak256\n        /* \"DZStudentAnswer.sol\":1791:1820  _answers[student_id][exam_id] */\n      0x00\n        /* \"DZStudentAnswer.sol\":1812:1819  exam_id */\n      dup4\n        /* \"DZStudentAnswer.sol\":1791:1820  _answers[student_id][exam_id] */\n      dup2\n      mstore\n      0x20\n      add\n      swap1\n      dup2\n      mstore\n      0x20\n      add\n      0x00\n      keccak256\n        /* \"DZStudentAnswer.sol\":1784:1820  return _answers[student_id][exam_id] */\n      mload(0x40)\n      dup1\n      0xa0\n      add\n      0x40\n      mstore\n      swap1\n      dup2\n      0x00\n      dup3\n      add\n      sload\n      dup2\n      mstore\n      0x20\n      add\n      0x01\n      dup3\n      add\n      sload\n      dup2\n      mstore\n      0x20\n      add\n      0x02\n      dup3\n      add\n      dup1\n      sload\n      tag_205\n      swap1\n      tag_206\n      jump\t// in\n    tag_205:\n      dup1\n      0x1f\n      add\n      0x20\n      dup1\n      swap2\n      div\n      mul\n      0x20\n      add\n      mload(0x40)\n      swap1\n      dup2\n      add\n      0x40\n      mstore\n      dup1\n      swap3\n      swap2\n      swap1\n      dup2\n      dup2\n      mstore\n      0x20\n      add\n      dup3\n      dup1\n      sload\n      tag_207\n      swap1\n      tag_206\n      jump\t// in\n    tag_207:\n      dup1\n      iszero\n      tag_208\n      jumpi\n      dup1\n      0x1f\n      lt\n      tag_209\n      jumpi\n      0x0100\n      dup1\n      dup4\n      sload\n      div\n      mul\n      dup4\n      mstore\n      swap2\n      0x20\n      add\n      swap2\n      jump(tag_208)\n    tag_209:\n      dup3\n      add\n      swap2\n      swap1\n      0x00\n      mstore\n      keccak256(0x00, 0x20)\n      swap1\n    tag_210:\n      dup2\n      sload\n      dup2\n      mstore\n      swap1\n      0x01\n      add\n      swap1\n      0x20\n      add\n      dup1\n      dup4\n      gt\n      tag_210\n      jumpi\n      dup3\n      swap1\n      sub\n      0x1f\n      and\n      dup3\n      add\n      swap2\n    tag_208:\n      pop\n      pop\n      pop\n      swap2\n      dup4\n      mstore\n      pop\n      pop\n      0x03\n      dup3\n      add\n      sload\n      0x20\n      dup3\n      add\n      mstore\n      0x04\n      swap1\n      swap2\n      add\n      sload\n      0xff\n      and\n      iszero\n      iszero\n      0x40\n      swap1\n      swap2\n      add\n      mstore\n      swap4\n        /* \"DZStudentAnswer.sol\":1679:1828  function getAnswer(uint256 student_id, uint256 exam_id) external view returns (Answer memory) {... */\n      swap3\n      pop\n      pop\n      pop\n      jump\t// out\n        /* \"DZAccessControl.sol\":2683:2806  function grantStudentRole(address account) public onlyRole(ADMIN_ROLE) {... */\n    tag_110:\n      0x00\n      dup1\n      mload\n      0x20\n      data_cb864c43dd5d441bb6271f424f11befa622c032dfd374d226e26fbbdb782b8f8\n      dup4\n      codecopy\n      dup2\n      mload\n      swap2\n      mstore\n        /* \"DZAccessControl.sol\":1170:1195  hasRole(role, msg.sender) */\n      tag_213\n        /* \"DZAccessControl.sol\":1178:1182  role */\n      dup2\n        /* \"DZAccessControl.sol\":1184:1194  msg.sender */\n      caller\n        /* \"DZAccessControl.sol\":1170:1177  hasRole */\n      tag_88\n        /* \"DZAccessControl.sol\":1170:1195  hasRole(role, msg.sender) */\n      jump\t// in\n    tag_213:\n        /* \"DZAccessControl.sol\":1162:1213  require(hasRole(role, msg.sender), \"Access denied\") */\n      tag_214\n      jumpi\n      mload(0x40)\n      shl(0xe5, 0x461bcd)\n      dup2\n      mstore\n      0x04\n      add\n      tag_130\n      swap1\n      tag_131\n      jump\t// in\n    tag_214:\n        /* \"DZAccessControl.sol\":2765:2798  _grantRole(STUDENT_ROLE, account) */\n      tag_133\n      0x00\n      dup1\n      mload\n      0x20\n      data_21cb3fef777527601eb23e0445345c54d2aab647c528ca38c9095962d5bfc074\n      dup4\n      codecopy\n      dup2\n      mload\n      swap2\n      mstore\n        /* \"DZAccessControl.sol\":2790:2797  account */\n      dup4\n        /* \"DZAccessControl.sol\":2765:2775  _grantRole */\n      tag_134\n        /* \"DZAccessControl.sol\":2765:2798  _grantRole(STUDENT_ROLE, account) */\n      jump\t// in\n        /* \"DZAccessControl.sol\":3350:3980  function setStudentAddress(uint256 _student_id, address _studentAddress) public onlyRole(ADMIN_ROLE) {... */\n    tag_113:\n      0x00\n      dup1\n      mload\n      0x20\n      data_cb864c43dd5d441bb6271f424f11befa622c032dfd374d226e26fbbdb782b8f8\n      dup4\n      codecopy\n      dup2\n      mload\n      swap2\n      mstore\n        /* \"DZAccessControl.sol\":1170:1195  hasRole(role, msg.sender) */\n      tag_219\n        /* \"DZAccessControl.sol\":1178:1182  role */\n      dup2\n        /* \"DZAccessControl.sol\":1184:1194  msg.sender */\n      caller\n        /* \"DZAccessControl.sol\":1170:1177  hasRole */\n      tag_88\n        /* \"DZAccessControl.sol\":1170:1195  hasRole(role, msg.sender) */\n      jump\t// in\n    tag_219:\n        /* \"DZAccessControl.sol\":1162:1213  require(hasRole(role, msg.sender), \"Access denied\") */\n      tag_220\n      jumpi\n      mload(0x40)\n      shl(0xe5, 0x461bcd)\n      dup2\n      mstore\n      0x04\n      add\n      tag_130\n      swap1\n      tag_131\n      jump\t// in\n    tag_220:\n        /* \"DZAccessControl.sol\":3484:3485  0 */\n      0x00\n        /* \"DZAccessControl.sol\":3470:3481  _student_id */\n      dup4\n        /* \"DZAccessControl.sol\":3470:3485  _student_id > 0 */\n      gt\n        /* \"DZAccessControl.sol\":3462:3508  require(_student_id > 0, \"Invalid student ID\") */\n      tag_223\n      jumpi\n      mload(0x40)\n      shl(0xe5, 0x461bcd)\n      dup2\n      mstore\n        /* \"#utility.yul\":8909:8911   */\n      0x20\n        /* \"DZAccessControl.sol\":3462:3508  require(_student_id > 0, \"Invalid student ID\") */\n      0x04\n      dup3\n      add\n        /* \"#utility.yul\":8891:8912   */\n      mstore\n        /* \"#utility.yul\":8948:8950   */\n      0x12\n        /* \"#utility.yul\":8928:8946   */\n      0x24\n      dup3\n      add\n        /* \"#utility.yul\":8921:8951   */\n      mstore\n      shl(0x72, 0x125b9d985b1a59081cdd1d59195b9d081251)\n        /* \"#utility.yul\":8967:8985   */\n      0x44\n      dup3\n      add\n        /* \"#utility.yul\":8960:9008   */\n      mstore\n        /* \"#utility.yul\":9025:9043   */\n      0x64\n      add\n        /* \"DZAccessControl.sol\":3462:3508  require(_student_id > 0, \"Invalid student ID\") */\n      tag_130\n        /* \"#utility.yul\":8707:9049   */\n      jump\n        /* \"DZAccessControl.sol\":3462:3508  require(_student_id > 0, \"Invalid student ID\") */\n    tag_223:\n      sub(shl(0xa0, 0x01), 0x01)\n        /* \"DZAccessControl.sol\":3527:3556  _studentAddress != address(0) */\n      dup3\n      and\n        /* \"DZAccessControl.sol\":3519:3576  require(_studentAddress != address(0), \"Invalid address\") */\n      tag_225\n      jumpi\n      mload(0x40)\n      shl(0xe5, 0x461bcd)\n      dup2\n      mstore\n        /* \"#utility.yul\":9256:9258   */\n      0x20\n        /* \"DZAccessControl.sol\":3519:3576  require(_studentAddress != address(0), \"Invalid address\") */\n      0x04\n      dup3\n      add\n        /* \"#utility.yul\":9238:9259   */\n      mstore\n        /* \"#utility.yul\":9295:9297   */\n      0x0f\n        /* \"#utility.yul\":9275:9293   */\n      0x24\n      dup3\n      add\n        /* \"#utility.yul\":9268:9298   */\n      mstore\n      shl(0x88, 0x496e76616c69642061646472657373)\n        /* \"#utility.yul\":9314:9332   */\n      0x44\n      dup3\n      add\n        /* \"#utility.yul\":9307:9352   */\n      mstore\n        /* \"#utility.yul\":9369:9387   */\n      0x64\n      add\n        /* \"DZAccessControl.sol\":3519:3576  require(_studentAddress != address(0), \"Invalid address\") */\n      tag_130\n        /* \"#utility.yul\":9054:9393   */\n      jump\n        /* \"DZAccessControl.sol\":3519:3576  require(_studentAddress != address(0), \"Invalid address\") */\n    tag_225:\n        /* \"DZAccessControl.sol\":3636:3637  0 */\n      0x00\n        /* \"DZAccessControl.sol\":3595:3624  studentAddresses[_student_id] */\n      dup4\n      dup2\n      mstore\n        /* \"DZAccessControl.sol\":3595:3611  studentAddresses */\n      0x02\n        /* \"DZAccessControl.sol\":3595:3624  studentAddresses[_student_id] */\n      0x20\n      mstore\n      0x40\n      swap1\n      keccak256\n      sload\n      sub(shl(0xa0, 0x01), 0x01)\n      and\n        /* \"DZAccessControl.sol\":3595:3638  studentAddresses[_student_id] == address(0) */\n      iszero\n        /* \"DZAccessControl.sol\":3587:3670  require(studentAddresses[_student_id] == address(0), \"Student address already set\") */\n      tag_227\n      jumpi\n      mload(0x40)\n      shl(0xe5, 0x461bcd)\n      dup2\n      mstore\n        /* \"#utility.yul\":10362:10364   */\n      0x20\n        /* \"DZAccessControl.sol\":3587:3670  require(studentAddresses[_student_id] == address(0), \"Student address already set\") */\n      0x04\n      dup3\n      add\n        /* \"#utility.yul\":10344:10365   */\n      mstore\n        /* \"#utility.yul\":10401:10403   */\n      0x1b\n        /* \"#utility.yul\":10381:10399   */\n      0x24\n      dup3\n      add\n        /* \"#utility.yul\":10374:10404   */\n      mstore\n        /* \"#utility.yul\":10440:10469   */\n      0x53747564656e74206164647265737320616c7265616479207365740000000000\n        /* \"#utility.yul\":10420:10438   */\n      0x44\n      dup3\n      add\n        /* \"#utility.yul\":10413:10470   */\n      mstore\n        /* \"#utility.yul\":10487:10505   */\n      0x64\n      add\n        /* \"DZAccessControl.sol\":3587:3670  require(studentAddresses[_student_id] == address(0), \"Student address already set\") */\n      tag_130\n        /* \"#utility.yul\":10160:10511   */\n      jump\n        /* \"DZAccessControl.sol\":3587:3670  require(studentAddresses[_student_id] == address(0), \"Student address already set\") */\n    tag_227:\n      sub(shl(0xa0, 0x01), 0x01)\n        /* \"DZAccessControl.sol\":3689:3724  addressToStudentId[_studentAddress] */\n      dup3\n      and\n      0x00\n      swap1\n      dup2\n      mstore\n        /* \"DZAccessControl.sol\":3689:3707  addressToStudentId */\n      0x03\n        /* \"DZAccessControl.sol\":3689:3724  addressToStudentId[_studentAddress] */\n      0x20\n      mstore\n      0x40\n      swap1\n      keccak256\n      sload\n        /* \"DZAccessControl.sol\":3689:3729  addressToStudentId[_studentAddress] == 0 */\n      iszero\n        /* \"DZAccessControl.sol\":3681:3775  require(addressToStudentId[_studentAddress] == 0, \"Address already linked to another student\") */\n      tag_230\n      jumpi\n      mload(0x40)\n      shl(0xe5, 0x461bcd)\n      dup2\n      mstore\n      0x04\n      add\n      tag_130\n      swap1\n      tag_198\n      jump\t// in\n    tag_230:\n        /* \"DZAccessControl.sol\":3788:3817  studentAddresses[_student_id] */\n      0x00\n      dup4\n      dup2\n      mstore\n        /* \"DZAccessControl.sol\":3788:3804  studentAddresses */\n      0x02\n        /* \"DZAccessControl.sol\":3788:3817  studentAddresses[_student_id] */\n      0x20\n      swap1\n      dup2\n      mstore\n      0x40\n      dup1\n      dup4\n      keccak256\n        /* \"DZAccessControl.sol\":3788:3835  studentAddresses[_student_id] = _studentAddress */\n      dup1\n      sload\n      not(sub(shl(0xa0, 0x01), 0x01))\n      and\n      sub(shl(0xa0, 0x01), 0x01)\n      dup8\n      and\n      swap1\n      dup2\n      or\n      swap1\n      swap2\n      sstore\n        /* \"DZAccessControl.sol\":3846:3881  addressToStudentId[_studentAddress] */\n      dup1\n      dup5\n      mstore\n        /* \"DZAccessControl.sol\":3846:3864  addressToStudentId */\n      0x03\n        /* \"DZAccessControl.sol\":3846:3881  addressToStudentId[_studentAddress] */\n      dup4\n      mstore\n      swap3\n      dup2\n      swap1\n      keccak256\n        /* \"DZAccessControl.sol\":3846:3895  addressToStudentId[_studentAddress] = _student_id */\n      dup7\n      swap1\n      sstore\n        /* \"DZAccessControl.sol\":3913:3972  StudentAddressSet(_student_id, _studentAddress, msg.sender) */\n      mload\n        /* \"DZAccessControl.sol\":3961:3971  msg.sender */\n      caller\n        /* \"#utility.yul\":4575:4626   */\n      dup2\n      mstore\n        /* \"DZAccessControl.sol\":3788:3817  studentAddresses[_student_id] */\n      dup6\n      swap2\n        /* \"DZAccessControl.sol\":3913:3972  StudentAddressSet(_student_id, _studentAddress, msg.sender) */\n      0xd9cc4835d96fc4b2afb6db1577a9677a621088cdee0c53da65076951d88be32f\n      swap2\n        /* \"#utility.yul\":4548:4566   */\n      add\n        /* \"DZAccessControl.sol\":3913:3972  StudentAddressSet(_student_id, _studentAddress, msg.sender) */\n      mload(0x40)\n      dup1\n      swap2\n      sub\n      swap1\n      log3\n        /* \"DZAccessControl.sol\":3350:3980  function setStudentAddress(uint256 _student_id, address _studentAddress) public onlyRole(ADMIN_ROLE) {... */\n      pop\n      pop\n      pop\n      jump\t// out\n        /* \"DZAccessControl.sol\":2410:2542  function revokeRole(bytes32 role, address account) public onlyRole(DEFAULT_ADMIN_ROLE) {... */\n    tag_116:\n        /* \"DZAccessControl.sol\":268:272  0x00 */\n      0x00\n        /* \"DZAccessControl.sol\":1170:1195  hasRole(role, msg.sender) */\n      tag_234\n        /* \"DZAccessControl.sol\":268:272  0x00 */\n      dup2\n        /* \"DZAccessControl.sol\":1184:1194  msg.sender */\n      caller\n        /* \"DZAccessControl.sol\":1170:1177  hasRole */\n      tag_88\n        /* \"DZAccessControl.sol\":1170:1195  hasRole(role, msg.sender) */\n      jump\t// in\n    tag_234:\n        /* \"DZAccessControl.sol\":1162:1213  require(hasRole(role, msg.sender), \"Access denied\") */\n      tag_235\n      jumpi\n      mload(0x40)\n      shl(0xe5, 0x461bcd)\n      dup2\n      mstore\n      0x04\n      add\n      tag_130\n      swap1\n      tag_131\n      jump\t// in\n    tag_235:\n        /* \"DZAccessControl.sol\":2508:2534  _revokeRole(role, account) */\n      tag_160\n        /* \"DZAccessControl.sol\":2520:2524  role */\n      dup4\n        /* \"DZAccessControl.sol\":2526:2533  account */\n      dup4\n        /* \"DZAccessControl.sol\":2508:2519  _revokeRole */\n      tag_154\n        /* \"DZAccessControl.sol\":2508:2534  _revokeRole(role, account) */\n      jump\t// in\n        /* \"DZAccessControl.sol\":2947:3074  function revokeLecturerRole(address account) public onlyRole(ADMIN_ROLE) {... */\n    tag_126:\n      0x00\n      dup1\n      mload\n      0x20\n      data_cb864c43dd5d441bb6271f424f11befa622c032dfd374d226e26fbbdb782b8f8\n      dup4\n      codecopy\n      dup2\n      mload\n      swap2\n      mstore\n        /* \"DZAccessControl.sol\":1170:1195  hasRole(role, msg.sender) */\n      tag_241\n        /* \"DZAccessControl.sol\":1178:1182  role */\n      dup2\n        /* \"DZAccessControl.sol\":1184:1194  msg.sender */\n      caller\n        /* \"DZAccessControl.sol\":1170:1177  hasRole */\n      tag_88\n        /* \"DZAccessControl.sol\":1170:1195  hasRole(role, msg.sender) */\n      jump\t// in\n    tag_241:\n        /* \"DZAccessControl.sol\":1162:1213  require(hasRole(role, msg.sender), \"Access denied\") */\n      tag_242\n      jumpi\n      mload(0x40)\n      shl(0xe5, 0x461bcd)\n      dup2\n      mstore\n      0x04\n      add\n      tag_130\n      swap1\n      tag_131\n      jump\t// in\n    tag_242:\n        /* \"DZAccessControl.sol\":3031:3066  _revokeRole(LECTURER_ROLE, account) */\n      tag_133\n      0x00\n      dup1\n      mload\n      0x20\n      data_6f93d34eb48bd68dc326c68374e43551b4b92ae8e465c919170be69b5a84151b\n      dup4\n      codecopy\n      dup2\n      mload\n      swap2\n      mstore\n        /* \"DZAccessControl.sol\":3058:3065  account */\n      dup4\n        /* \"DZAccessControl.sol\":3031:3042  _revokeRole */\n      tag_154\n        /* \"DZAccessControl.sol\":3031:3066  _revokeRole(LECTURER_ROLE, account) */\n      jump\t// in\n        /* \"DZAccessControl.sol\":1694:1914  function _grantRole(bytes32 role, address account) internal {... */\n    tag_134:\n        /* \"DZAccessControl.sol\":1770:1792  hasRole(role, account) */\n      tag_247\n        /* \"DZAccessControl.sol\":1778:1782  role */\n      dup3\n        /* \"DZAccessControl.sol\":1784:1791  account */\n      dup3\n        /* \"DZAccessControl.sol\":1770:1777  hasRole */\n      tag_88\n        /* \"DZAccessControl.sol\":1770:1792  hasRole(role, account) */\n      jump\t// in\n    tag_247:\n        /* \"DZAccessControl.sol\":1765:1907  if (!hasRole(role, account)) {... */\n      tag_133\n      jumpi\n        /* \"DZAccessControl.sol\":1809:1815  _roles */\n      0x00\n        /* \"DZAccessControl.sol\":1809:1821  _roles[role] */\n      dup3\n      dup2\n      mstore\n      0x20\n      dup2\n      dup2\n      mstore\n      0x40\n      dup1\n      dup4\n      keccak256\n      sub(shl(0xa0, 0x01), 0x01)\n        /* \"DZAccessControl.sol\":1809:1830  _roles[role][account] */\n      dup6\n      and\n      dup1\n      dup6\n      mstore\n      swap3\n      mstore\n      dup1\n      dup4\n      keccak256\n        /* \"DZAccessControl.sol\":1809:1837  _roles[role][account] = true */\n      dup1\n      sload\n      not(0xff)\n      and\n        /* \"DZAccessControl.sol\":1833:1837  true */\n      0x01\n        /* \"DZAccessControl.sol\":1809:1837  _roles[role][account] = true */\n      or\n      swap1\n      sstore\n        /* \"DZAccessControl.sol\":1857:1895  RoleGranted(role, account, msg.sender) */\n      mload\n        /* \"DZAccessControl.sol\":1884:1894  msg.sender */\n      caller\n      swap3\n        /* \"DZAccessControl.sol\":1816:1820  role */\n      dup6\n      swap2\n        /* \"DZAccessControl.sol\":1857:1895  RoleGranted(role, account, msg.sender) */\n      0x2f8788117e7eff1d82e926ec794901d17c78024a50270940304540a733656f0d\n      swap2\n        /* \"DZAccessControl.sol\":1809:1815  _roles */\n      swap1\n        /* \"DZAccessControl.sol\":1857:1895  RoleGranted(role, account, msg.sender) */\n      log4\n        /* \"DZAccessControl.sol\":1694:1914  function _grantRole(bytes32 role, address account) internal {... */\n      pop\n      pop\n      jump\t// out\n        /* \"DZAccessControl.sol\":1922:2143  function _revokeRole(bytes32 role, address account) internal {... */\n    tag_154:\n        /* \"DZAccessControl.sol\":1998:2020  hasRole(role, account) */\n      tag_250\n        /* \"DZAccessControl.sol\":2006:2010  role */\n      dup3\n        /* \"DZAccessControl.sol\":2012:2019  account */\n      dup3\n        /* \"DZAccessControl.sol\":1998:2005  hasRole */\n      tag_88\n        /* \"DZAccessControl.sol\":1998:2020  hasRole(role, account) */\n      jump\t// in\n    tag_250:\n        /* \"DZAccessControl.sol\":1994:2136  if (hasRole(role, account)) {... */\n      iszero\n      tag_133\n      jumpi\n        /* \"DZAccessControl.sol\":2061:2066  false */\n      0x00\n        /* \"DZAccessControl.sol\":2037:2049  _roles[role] */\n      dup3\n      dup2\n      mstore\n      0x20\n      dup2\n      dup2\n      mstore\n      0x40\n      dup1\n      dup4\n      keccak256\n      sub(shl(0xa0, 0x01), 0x01)\n        /* \"DZAccessControl.sol\":2037:2058  _roles[role][account] */\n      dup6\n      and\n      dup1\n      dup6\n      mstore\n      swap3\n      mstore\n      dup1\n      dup4\n      keccak256\n        /* \"DZAccessControl.sol\":2037:2066  _roles[role][account] = false */\n      dup1\n      sload\n      not(0xff)\n      and\n      swap1\n      sstore\n        /* \"DZAccessControl.sol\":2086:2124  RoleRevoked(role, account, msg.sender) */\n      mload\n        /* \"DZAccessControl.sol\":2113:2123  msg.sender */\n      caller\n      swap3\n        /* \"DZAccessControl.sol\":2044:2048  role */\n      dup6\n      swap2\n        /* \"DZAccessControl.sol\":2086:2124  RoleRevoked(role, account, msg.sender) */\n      0xf6391f5c32d9c69d2a47ea670b442974b53935d1edc7fd64eb21e047a839171b\n      swap2\n        /* \"DZAccessControl.sol\":2061:2066  false */\n      swap1\n        /* \"DZAccessControl.sol\":2086:2124  RoleRevoked(role, account, msg.sender) */\n      log4\n        /* \"DZAccessControl.sol\":1922:2143  function _revokeRole(bytes32 role, address account) internal {... */\n      pop\n      pop\n      jump\t// out\n        /* \"#utility.yul\":196:369   */\n    tag_252:\n        /* \"#utility.yul\":264:284   */\n      dup1\n      calldataload\n      sub(shl(0xa0, 0x01), 0x01)\n        /* \"#utility.yul\":313:344   */\n      dup2\n      and\n        /* \"#utility.yul\":303:345   */\n      dup2\n      eq\n        /* \"#utility.yul\":293:363   */\n      tag_261\n      jumpi\n        /* \"#utility.yul\":359:360   */\n      0x00\n        /* \"#utility.yul\":356:357   */\n      dup1\n        /* \"#utility.yul\":349:361   */\n      revert\n        /* \"#utility.yul\":293:363   */\n    tag_261:\n        /* \"#utility.yul\":196:369   */\n      swap2\n      swap1\n      pop\n      jump\t// out\n        /* \"#utility.yul\":374:560   */\n    tag_38:\n        /* \"#utility.yul\":433:439   */\n      0x00\n        /* \"#utility.yul\":486:488   */\n      0x20\n        /* \"#utility.yul\":474:483   */\n      dup3\n        /* \"#utility.yul\":465:472   */\n      dup5\n        /* \"#utility.yul\":461:484   */\n      sub\n        /* \"#utility.yul\":457:489   */\n      slt\n        /* \"#utility.yul\":454:506   */\n      iszero\n      tag_263\n      jumpi\n        /* \"#utility.yul\":502:503   */\n      0x00\n        /* \"#utility.yul\":499:500   */\n      dup1\n        /* \"#utility.yul\":492:504   */\n      revert\n        /* \"#utility.yul\":454:506   */\n    tag_263:\n        /* \"#utility.yul\":525:554   */\n      tag_264\n        /* \"#utility.yul\":544:553   */\n      dup3\n        /* \"#utility.yul\":525:554   */\n      tag_252\n      jump\t// in\n    tag_264:\n        /* \"#utility.yul\":515:554   */\n      swap4\n        /* \"#utility.yul\":374:560   */\n      swap3\n      pop\n      pop\n      pop\n      jump\t// out\n        /* \"#utility.yul\":565:1386   */\n    tag_42:\n        /* \"#utility.yul\":654:660   */\n      0x00\n        /* \"#utility.yul\":662:668   */\n      dup1\n        /* \"#utility.yul\":670:676   */\n      0x00\n        /* \"#utility.yul\":678:684   */\n      dup1\n        /* \"#utility.yul\":731:733   */\n      0x60\n        /* \"#utility.yul\":719:728   */\n      dup6\n        /* \"#utility.yul\":710:717   */\n      dup8\n        /* \"#utility.yul\":706:729   */\n      sub\n        /* \"#utility.yul\":702:734   */\n      slt\n        /* \"#utility.yul\":699:751   */\n      iszero\n      tag_266\n      jumpi\n        /* \"#utility.yul\":747:748   */\n      0x00\n        /* \"#utility.yul\":744:745   */\n      dup1\n        /* \"#utility.yul\":737:749   */\n      revert\n        /* \"#utility.yul\":699:751   */\n    tag_266:\n        /* \"#utility.yul\":792:815   */\n      dup5\n      calldataload\n      swap4\n      pop\n        /* \"#utility.yul\":912:914   */\n      0x20\n        /* \"#utility.yul\":897:915   */\n      dup6\n      add\n        /* \"#utility.yul\":884:916   */\n      calldataload\n      swap3\n      pop\n        /* \"#utility.yul\":993:995   */\n      0x40\n        /* \"#utility.yul\":978:996   */\n      dup6\n      add\n        /* \"#utility.yul\":965:997   */\n      calldataload\n        /* \"#utility.yul\":1020:1038   */\n      0xffffffffffffffff\n        /* \"#utility.yul\":1009:1039   */\n      dup2\n      gt\n        /* \"#utility.yul\":1006:1056   */\n      iszero\n      tag_267\n      jumpi\n        /* \"#utility.yul\":1052:1053   */\n      0x00\n        /* \"#utility.yul\":1049:1050   */\n      dup1\n        /* \"#utility.yul\":1042:1054   */\n      revert\n        /* \"#utility.yul\":1006:1056   */\n    tag_267:\n        /* \"#utility.yul\":1075:1097   */\n      dup6\n      add\n        /* \"#utility.yul\":1128:1132   */\n      0x1f\n        /* \"#utility.yul\":1120:1133   */\n      dup2\n      add\n        /* \"#utility.yul\":1116:1143   */\n      dup8\n      sgt\n        /* \"#utility.yul\":1106:1161   */\n      tag_268\n      jumpi\n        /* \"#utility.yul\":1157:1158   */\n      0x00\n        /* \"#utility.yul\":1154:1155   */\n      dup1\n        /* \"#utility.yul\":1147:1159   */\n      revert\n        /* \"#utility.yul\":1106:1161   */\n    tag_268:\n        /* \"#utility.yul\":1197:1199   */\n      dup1\n        /* \"#utility.yul\":1184:1200   */\n      calldataload\n        /* \"#utility.yul\":1223:1241   */\n      0xffffffffffffffff\n        /* \"#utility.yul\":1215:1221   */\n      dup2\n        /* \"#utility.yul\":1212:1242   */\n      gt\n        /* \"#utility.yul\":1209:1259   */\n      iszero\n      tag_269\n      jumpi\n        /* \"#utility.yul\":1255:1256   */\n      0x00\n        /* \"#utility.yul\":1252:1253   */\n      dup1\n        /* \"#utility.yul\":1245:1257   */\n      revert\n        /* \"#utility.yul\":1209:1259   */\n    tag_269:\n        /* \"#utility.yul\":1300:1307   */\n      dup8\n        /* \"#utility.yul\":1295:1297   */\n      0x20\n        /* \"#utility.yul\":1286:1292   */\n      dup3\n        /* \"#utility.yul\":1282:1284   */\n      dup5\n        /* \"#utility.yul\":1278:1293   */\n      add\n        /* \"#utility.yul\":1274:1298   */\n      add\n        /* \"#utility.yul\":1271:1308   */\n      gt\n        /* \"#utility.yul\":1268:1325   */\n      iszero\n      tag_270\n      jumpi\n        /* \"#utility.yul\":1321:1322   */\n      0x00\n        /* \"#utility.yul\":1318:1319   */\n      dup1\n        /* \"#utility.yul\":1311:1323   */\n      revert\n        /* \"#utility.yul\":1268:1325   */\n    tag_270:\n        /* \"#utility.yul\":565:1386   */\n      swap5\n      swap8\n      swap4\n      swap7\n      pop\n        /* \"#utility.yul\":1352:1354   */\n      0x20\n        /* \"#utility.yul\":1344:1355   */\n      add\n      swap5\n      pop\n      pop\n      pop\n        /* \"#utility.yul\":565:1386   */\n      jump\t// out\n        /* \"#utility.yul\":1391:1737   */\n    tag_49:\n        /* \"#utility.yul\":1459:1465   */\n      0x00\n        /* \"#utility.yul\":1467:1473   */\n      dup1\n        /* \"#utility.yul\":1520:1522   */\n      0x40\n        /* \"#utility.yul\":1508:1517   */\n      dup4\n        /* \"#utility.yul\":1499:1506   */\n      dup6\n        /* \"#utility.yul\":1495:1518   */\n      sub\n        /* \"#utility.yul\":1491:1523   */\n      slt\n        /* \"#utility.yul\":1488:1540   */\n      iszero\n      tag_272\n      jumpi\n        /* \"#utility.yul\":1536:1537   */\n      0x00\n        /* \"#utility.yul\":1533:1534   */\n      dup1\n        /* \"#utility.yul\":1526:1538   */\n      revert\n        /* \"#utility.yul\":1488:1540   */\n    tag_272:\n      pop\n      pop\n        /* \"#utility.yul\":1581:1604   */\n      dup1\n      calldataload\n      swap3\n        /* \"#utility.yul\":1701:1703   */\n      0x20\n        /* \"#utility.yul\":1686:1704   */\n      swap1\n      swap2\n      add\n        /* \"#utility.yul\":1673:1705   */\n      calldataload\n      swap2\n      pop\n        /* \"#utility.yul\":1391:1737   */\n      jump\t// out\n        /* \"#utility.yul\":2030:2284   */\n    tag_58:\n        /* \"#utility.yul\":2098:2104   */\n      0x00\n        /* \"#utility.yul\":2106:2112   */\n      dup1\n        /* \"#utility.yul\":2159:2161   */\n      0x40\n        /* \"#utility.yul\":2147:2156   */\n      dup4\n        /* \"#utility.yul\":2138:2145   */\n      dup6\n        /* \"#utility.yul\":2134:2157   */\n      sub\n        /* \"#utility.yul\":2130:2162   */\n      slt\n        /* \"#utility.yul\":2127:2179   */\n      iszero\n      tag_276\n      jumpi\n        /* \"#utility.yul\":2175:2176   */\n      0x00\n        /* \"#utility.yul\":2172:2173   */\n      dup1\n        /* \"#utility.yul\":2165:2177   */\n      revert\n        /* \"#utility.yul\":2127:2179   */\n    tag_276:\n        /* \"#utility.yul\":2211:2220   */\n      dup3\n        /* \"#utility.yul\":2198:2221   */\n      calldataload\n        /* \"#utility.yul\":2188:2221   */\n      swap2\n      pop\n        /* \"#utility.yul\":2240:2278   */\n      tag_277\n        /* \"#utility.yul\":2274:2276   */\n      0x20\n        /* \"#utility.yul\":2263:2272   */\n      dup5\n        /* \"#utility.yul\":2259:2277   */\n      add\n        /* \"#utility.yul\":2240:2278   */\n      tag_252\n      jump\t// in\n    tag_277:\n        /* \"#utility.yul\":2230:2278   */\n      swap1\n      pop\n        /* \"#utility.yul\":2030:2284   */\n      swap3\n      pop\n      swap3\n      swap1\n      pop\n      jump\t// out\n        /* \"#utility.yul\":2289:2755   */\n    tag_65:\n        /* \"#utility.yul\":2366:2372   */\n      0x00\n        /* \"#utility.yul\":2374:2380   */\n      dup1\n        /* \"#utility.yul\":2382:2388   */\n      0x00\n        /* \"#utility.yul\":2435:2437   */\n      0x60\n        /* \"#utility.yul\":2423:2432   */\n      dup5\n        /* \"#utility.yul\":2414:2421   */\n      dup7\n        /* \"#utility.yul\":2410:2433   */\n      sub\n        /* \"#utility.yul\":2406:2438   */\n      slt\n        /* \"#utility.yul\":2403:2455   */\n      iszero\n      tag_279\n      jumpi\n        /* \"#utility.yul\":2451:2452   */\n      0x00\n        /* \"#utility.yul\":2448:2449   */\n      dup1\n        /* \"#utility.yul\":2441:2453   */\n      revert\n        /* \"#utility.yul\":2403:2455   */\n    tag_279:\n      pop\n      pop\n        /* \"#utility.yul\":2496:2519   */\n      dup2\n      calldataload\n      swap4\n        /* \"#utility.yul\":2616:2618   */\n      0x20\n        /* \"#utility.yul\":2601:2619   */\n      dup4\n      add\n        /* \"#utility.yul\":2588:2620   */\n      calldataload\n      swap4\n      pop\n        /* \"#utility.yul\":2719:2721   */\n      0x40\n        /* \"#utility.yul\":2704:2722   */\n      swap1\n      swap3\n      add\n        /* \"#utility.yul\":2691:2723   */\n      calldataload\n      swap2\n        /* \"#utility.yul\":2289:2755   */\n      swap1\n      pop\n      jump\t// out\n        /* \"#utility.yul\":3247:4193   */\n    tag_97:\n        /* \"#utility.yul\":3422:3424   */\n      0x20\n        /* \"#utility.yul\":3411:3420   */\n      dup2\n        /* \"#utility.yul\":3404:3425   */\n      mstore\n        /* \"#utility.yul\":3467:3473   */\n      dup2\n        /* \"#utility.yul\":3461:3474   */\n      mload\n        /* \"#utility.yul\":3456:3458   */\n      0x20\n        /* \"#utility.yul\":3445:3454   */\n      dup3\n        /* \"#utility.yul\":3441:3459   */\n      add\n        /* \"#utility.yul\":3434:3475   */\n      mstore\n        /* \"#utility.yul\":3529:3531   */\n      0x20\n        /* \"#utility.yul\":3521:3527   */\n      dup3\n        /* \"#utility.yul\":3517:3532   */\n      add\n        /* \"#utility.yul\":3511:3533   */\n      mload\n        /* \"#utility.yul\":3506:3508   */\n      0x40\n        /* \"#utility.yul\":3495:3504   */\n      dup3\n        /* \"#utility.yul\":3491:3509   */\n      add\n        /* \"#utility.yul\":3484:3534   */\n      mstore\n        /* \"#utility.yul\":3385:3389   */\n      0x00\n        /* \"#utility.yul\":3581:3583   */\n      0x40\n        /* \"#utility.yul\":3573:3579   */\n      dup4\n        /* \"#utility.yul\":3569:3584   */\n      add\n        /* \"#utility.yul\":3563:3585   */\n      mload\n        /* \"#utility.yul\":3621:3625   */\n      0xa0\n        /* \"#utility.yul\":3616:3618   */\n      0x60\n        /* \"#utility.yul\":3605:3614   */\n      dup5\n        /* \"#utility.yul\":3601:3619   */\n      add\n        /* \"#utility.yul\":3594:3626   */\n      mstore\n        /* \"#utility.yul\":3655:3667   */\n      dup1\n        /* \"#utility.yul\":3649:3668   */\n      mload\n        /* \"#utility.yul\":3705:3711   */\n      dup1\n        /* \"#utility.yul\":3699:3702   */\n      0xc0\n        /* \"#utility.yul\":3688:3697   */\n      dup6\n        /* \"#utility.yul\":3684:3703   */\n      add\n        /* \"#utility.yul\":3677:3712   */\n      mstore\n        /* \"#utility.yul\":3730:3731   */\n      0x00\n        /* \"#utility.yul\":3740:3887   */\n    tag_285:\n        /* \"#utility.yul\":3754:3760   */\n      dup2\n        /* \"#utility.yul\":3751:3752   */\n      dup2\n        /* \"#utility.yul\":3748:3761   */\n      lt\n        /* \"#utility.yul\":3740:3887   */\n      iszero\n      tag_287\n      jumpi\n        /* \"#utility.yul\":3872:3874   */\n      0x20\n        /* \"#utility.yul\":3850:3870   */\n      dup2\n      dup5\n      add\n        /* \"#utility.yul\":3846:3875   */\n      dup2\n      add\n        /* \"#utility.yul\":3840:3876   */\n      mload\n        /* \"#utility.yul\":3834:3837   */\n      0xe0\n        /* \"#utility.yul\":3815:3832   */\n      dup8\n      dup5\n      add\n        /* \"#utility.yul\":3811:3838   */\n      add\n        /* \"#utility.yul\":3804:3877   */\n      mstore\n        /* \"#utility.yul\":3769:3779   */\n      add\n        /* \"#utility.yul\":3740:3887   */\n      jump(tag_285)\n    tag_287:\n        /* \"#utility.yul\":3744:3747   */\n      pop\n        /* \"#utility.yul\":3937:3938   */\n      0x00\n        /* \"#utility.yul\":3931:3934   */\n      0xe0\n        /* \"#utility.yul\":3922:3928   */\n      dup3\n        /* \"#utility.yul\":3911:3920   */\n      dup7\n        /* \"#utility.yul\":3907:3929   */\n      add\n        /* \"#utility.yul\":3903:3935   */\n      add\n        /* \"#utility.yul\":3896:3939   */\n      mstore\n        /* \"#utility.yul\":3994:3996   */\n      0x60\n        /* \"#utility.yul\":3986:3992   */\n      dup6\n        /* \"#utility.yul\":3982:3997   */\n      add\n        /* \"#utility.yul\":3976:3998   */\n      mload\n        /* \"#utility.yul\":3970:3973   */\n      0x80\n        /* \"#utility.yul\":3959:3968   */\n      dup6\n        /* \"#utility.yul\":3955:3974   */\n      add\n        /* \"#utility.yul\":3948:3999   */\n      mstore\n        /* \"#utility.yul\":4048:4051   */\n      0x80\n        /* \"#utility.yul\":4040:4046   */\n      dup6\n        /* \"#utility.yul\":4036:4052   */\n      add\n        /* \"#utility.yul\":4030:4053   */\n      mload\n        /* \"#utility.yul\":4008:4053   */\n      swap2\n      pop\n        /* \"#utility.yul\":4062:4115   */\n      tag_288\n        /* \"#utility.yul\":4109:4113   */\n      0xa0\n        /* \"#utility.yul\":4098:4107   */\n      dup6\n        /* \"#utility.yul\":4094:4114   */\n      add\n        /* \"#utility.yul\":4078:4092   */\n      dup4\n        /* \"#utility.yul\":1812:1825   */\n      iszero\n        /* \"#utility.yul\":1805:1826   */\n      iszero\n        /* \"#utility.yul\":1793:1827   */\n      swap1\n      mstore\n        /* \"#utility.yul\":1742:1833   */\n      jump\n        /* \"#utility.yul\":4062:4115   */\n    tag_288:\n        /* \"#utility.yul\":4176:4178   */\n      0x1f\n        /* \"#utility.yul\":4155:4170   */\n      add\n      not(0x1f)\n        /* \"#utility.yul\":4151:4180   */\n      and\n        /* \"#utility.yul\":4136:4181   */\n      swap3\n      swap1\n      swap3\n      add\n        /* \"#utility.yul\":4183:4186   */\n      0xe0\n        /* \"#utility.yul\":4132:4187   */\n      add\n      swap4\n        /* \"#utility.yul\":3247:4193   */\n      swap3\n      pop\n      pop\n      pop\n      jump\t// out\n        /* \"#utility.yul\":4198:4424   */\n    tag_104:\n        /* \"#utility.yul\":4257:4263   */\n      0x00\n        /* \"#utility.yul\":4310:4312   */\n      0x20\n        /* \"#utility.yul\":4298:4307   */\n      dup3\n        /* \"#utility.yul\":4289:4296   */\n      dup5\n        /* \"#utility.yul\":4285:4308   */\n      sub\n        /* \"#utility.yul\":4281:4313   */\n      slt\n        /* \"#utility.yul\":4278:4330   */\n      iszero\n      tag_290\n      jumpi\n        /* \"#utility.yul\":4326:4327   */\n      0x00\n        /* \"#utility.yul\":4323:4324   */\n      dup1\n        /* \"#utility.yul\":4316:4328   */\n      revert\n        /* \"#utility.yul\":4278:4330   */\n    tag_290:\n      pop\n        /* \"#utility.yul\":4371:4394   */\n      calldataload\n      swap2\n        /* \"#utility.yul\":4198:4424   */\n      swap1\n      pop\n      jump\t// out\n        /* \"#utility.yul\":4637:4974   */\n    tag_131:\n        /* \"#utility.yul\":4839:4841   */\n      0x20\n        /* \"#utility.yul\":4821:4842   */\n      dup1\n      dup3\n      mstore\n        /* \"#utility.yul\":4878:4880   */\n      0x0d\n        /* \"#utility.yul\":4858:4876   */\n      swap1\n      dup3\n      add\n        /* \"#utility.yul\":4851:4881   */\n      mstore\n      shl(0x9a, 0x1058d8d95cdcc819195b9a5959)\n        /* \"#utility.yul\":4912:4914   */\n      0x40\n        /* \"#utility.yul\":4897:4915   */\n      dup3\n      add\n        /* \"#utility.yul\":4890:4933   */\n      mstore\n        /* \"#utility.yul\":4965:4967   */\n      0x60\n        /* \"#utility.yul\":4950:4968   */\n      add\n      swap1\n        /* \"#utility.yul\":4637:4974   */\n      jump\t// out\n        /* \"#utility.yul\":5325:5452   */\n    tag_254:\n        /* \"#utility.yul\":5386:5396   */\n      0x4e487b71\n        /* \"#utility.yul\":5381:5384   */\n      0xe0\n        /* \"#utility.yul\":5377:5397   */\n      shl\n        /* \"#utility.yul\":5374:5375   */\n      0x00\n        /* \"#utility.yul\":5367:5398   */\n      mstore\n        /* \"#utility.yul\":5417:5421   */\n      0x41\n        /* \"#utility.yul\":5414:5415   */\n      0x04\n        /* \"#utility.yul\":5407:5422   */\n      mstore\n        /* \"#utility.yul\":5441:5445   */\n      0x24\n        /* \"#utility.yul\":5438:5439   */\n      0x00\n        /* \"#utility.yul\":5431:5446   */\n      revert\n        /* \"#utility.yul\":5457:5837   */\n    tag_206:\n        /* \"#utility.yul\":5536:5537   */\n      0x01\n        /* \"#utility.yul\":5532:5544   */\n      dup2\n      dup2\n      shr\n      swap1\n        /* \"#utility.yul\":5579:5591   */\n      dup3\n      and\n      dup1\n        /* \"#utility.yul\":5600:5661   */\n      tag_296\n      jumpi\n        /* \"#utility.yul\":5654:5658   */\n      0x7f\n        /* \"#utility.yul\":5646:5652   */\n      dup3\n        /* \"#utility.yul\":5642:5659   */\n      and\n        /* \"#utility.yul\":5632:5659   */\n      swap2\n      pop\n        /* \"#utility.yul\":5600:5661   */\n    tag_296:\n        /* \"#utility.yul\":5707:5709   */\n      0x20\n        /* \"#utility.yul\":5699:5705   */\n      dup3\n        /* \"#utility.yul\":5696:5710   */\n      lt\n        /* \"#utility.yul\":5676:5694   */\n      dup2\n        /* \"#utility.yul\":5673:5711   */\n      sub\n        /* \"#utility.yul\":5670:5831   */\n      tag_297\n      jumpi\n        /* \"#utility.yul\":5753:5763   */\n      0x4e487b71\n        /* \"#utility.yul\":5748:5751   */\n      0xe0\n        /* \"#utility.yul\":5744:5764   */\n      shl\n        /* \"#utility.yul\":5741:5742   */\n      0x00\n        /* \"#utility.yul\":5734:5765   */\n      mstore\n        /* \"#utility.yul\":5788:5792   */\n      0x22\n        /* \"#utility.yul\":5785:5786   */\n      0x04\n        /* \"#utility.yul\":5778:5793   */\n      mstore\n        /* \"#utility.yul\":5816:5820   */\n      0x24\n        /* \"#utility.yul\":5813:5814   */\n      0x00\n        /* \"#utility.yul\":5806:5821   */\n      revert\n        /* \"#utility.yul\":5670:5831   */\n    tag_297:\n      pop\n        /* \"#utility.yul\":5457:5837   */\n      swap2\n      swap1\n      pop\n      jump\t// out\n        /* \"#utility.yul\":5968:6486   */\n    tag_256:\n        /* \"#utility.yul\":6070:6072   */\n      0x1f\n        /* \"#utility.yul\":6065:6068   */\n      dup3\n        /* \"#utility.yul\":6062:6073   */\n      gt\n        /* \"#utility.yul\":6059:6480   */\n      iszero\n      tag_160\n      jumpi\n        /* \"#utility.yul\":6106:6111   */\n      dup1\n        /* \"#utility.yul\":6103:6104   */\n      0x00\n        /* \"#utility.yul\":6096:6112   */\n      mstore\n        /* \"#utility.yul\":6150:6154   */\n      0x20\n        /* \"#utility.yul\":6147:6148   */\n      0x00\n        /* \"#utility.yul\":6137:6155   */\n      keccak256\n        /* \"#utility.yul\":6220:6222   */\n      0x1f\n        /* \"#utility.yul\":6208:6218   */\n      dup5\n        /* \"#utility.yul\":6204:6223   */\n      add\n        /* \"#utility.yul\":6201:6202   */\n      0x05\n        /* \"#utility.yul\":6197:6224   */\n      shr\n        /* \"#utility.yul\":6191:6195   */\n      dup2\n        /* \"#utility.yul\":6187:6225   */\n      add\n        /* \"#utility.yul\":6256:6260   */\n      0x20\n        /* \"#utility.yul\":6244:6254   */\n      dup6\n        /* \"#utility.yul\":6241:6261   */\n      lt\n        /* \"#utility.yul\":6238:6285   */\n      iszero\n      tag_301\n      jumpi\n      pop\n        /* \"#utility.yul\":6279:6283   */\n      dup1\n        /* \"#utility.yul\":6238:6285   */\n    tag_301:\n        /* \"#utility.yul\":6334:6336   */\n      0x1f\n        /* \"#utility.yul\":6329:6332   */\n      dup5\n        /* \"#utility.yul\":6325:6337   */\n      add\n        /* \"#utility.yul\":6322:6323   */\n      0x05\n        /* \"#utility.yul\":6318:6338   */\n      shr\n        /* \"#utility.yul\":6312:6316   */\n      dup3\n        /* \"#utility.yul\":6308:6339   */\n      add\n        /* \"#utility.yul\":6298:6339   */\n      swap2\n      pop\n        /* \"#utility.yul\":6389:6470   */\n    tag_302:\n        /* \"#utility.yul\":6407:6409   */\n      dup2\n        /* \"#utility.yul\":6400:6405   */\n      dup2\n        /* \"#utility.yul\":6397:6410   */\n      lt\n        /* \"#utility.yul\":6389:6470   */\n      iszero\n      tag_304\n      jumpi\n        /* \"#utility.yul\":6466:6467   */\n      0x00\n        /* \"#utility.yul\":6452:6468   */\n      dup2\n      sstore\n        /* \"#utility.yul\":6433:6434   */\n      0x01\n        /* \"#utility.yul\":6422:6435   */\n      add\n        /* \"#utility.yul\":6389:6470   */\n      jump(tag_302)\n    tag_304:\n        /* \"#utility.yul\":6393:6396   */\n      pop\n      pop\n        /* \"#utility.yul\":5968:6486   */\n      pop\n      pop\n      pop\n      jump\t// out\n        /* \"#utility.yul\":6662:7961   */\n    tag_144:\n        /* \"#utility.yul\":6788:6791   */\n      dup2\n        /* \"#utility.yul\":6782:6792   */\n      mload\n        /* \"#utility.yul\":6815:6833   */\n      0xffffffffffffffff\n        /* \"#utility.yul\":6807:6813   */\n      dup2\n        /* \"#utility.yul\":6804:6834   */\n      gt\n        /* \"#utility.yul\":6801:6857   */\n      iszero\n      tag_308\n      jumpi\n        /* \"#utility.yul\":6837:6855   */\n      tag_308\n      tag_254\n      jump\t// in\n    tag_308:\n        /* \"#utility.yul\":6866:6963   */\n      tag_309\n        /* \"#utility.yul\":6956:6962   */\n      dup2\n        /* \"#utility.yul\":6916:6954   */\n      tag_310\n        /* \"#utility.yul\":6948:6952   */\n      dup5\n        /* \"#utility.yul\":6942:6953   */\n      sload\n        /* \"#utility.yul\":6916:6954   */\n      tag_206\n      jump\t// in\n    tag_310:\n        /* \"#utility.yul\":6910:6914   */\n      dup5\n        /* \"#utility.yul\":6866:6963   */\n      tag_256\n      jump\t// in\n    tag_309:\n        /* \"#utility.yul\":7012:7016   */\n      0x20\n        /* \"#utility.yul\":7043:7045   */\n      0x1f\n        /* \"#utility.yul\":7032:7046   */\n      dup3\n      gt\n        /* \"#utility.yul\":7060:7061   */\n      0x01\n        /* \"#utility.yul\":7055:7704   */\n      dup2\n      eq\n      tag_312\n      jumpi\n        /* \"#utility.yul\":7748:7749   */\n      0x00\n        /* \"#utility.yul\":7765:7771   */\n      dup4\n        /* \"#utility.yul\":7762:7851   */\n      iszero\n      tag_313\n      jumpi\n      pop\n        /* \"#utility.yul\":7817:7836   */\n      dup5\n      dup3\n      add\n        /* \"#utility.yul\":7811:7837   */\n      mload\n        /* \"#utility.yul\":7762:7851   */\n    tag_313:\n      not(0x00)\n        /* \"#utility.yul\":6619:6620   */\n      0x03\n        /* \"#utility.yul\":6615:6626   */\n      dup6\n      swap1\n      shl\n        /* \"#utility.yul\":6611:6635   */\n      shr\n        /* \"#utility.yul\":6607:6636   */\n      not\n        /* \"#utility.yul\":6597:6637   */\n      and\n        /* \"#utility.yul\":6643:6644   */\n      0x01\n        /* \"#utility.yul\":6639:6650   */\n      dup5\n      swap1\n      shl\n        /* \"#utility.yul\":6594:6651   */\n      or\n        /* \"#utility.yul\":7864:7945   */\n      dup5\n      sstore\n        /* \"#utility.yul\":7025:7955   */\n      jump(tag_304)\n        /* \"#utility.yul\":7055:7704   */\n    tag_312:\n        /* \"#utility.yul\":5915:5916   */\n      0x00\n        /* \"#utility.yul\":5908:5922   */\n      dup5\n      dup2\n      mstore\n        /* \"#utility.yul\":5952:5956   */\n      0x20\n        /* \"#utility.yul\":5939:5957   */\n      dup2\n      keccak256\n      not(0x1f)\n        /* \"#utility.yul\":7091:7111   */\n      dup6\n      and\n      swap2\n        /* \"#utility.yul\":7209:7431   */\n    tag_316:\n        /* \"#utility.yul\":7223:7230   */\n      dup3\n        /* \"#utility.yul\":7220:7221   */\n      dup2\n        /* \"#utility.yul\":7217:7231   */\n      lt\n        /* \"#utility.yul\":7209:7431   */\n      iszero\n      tag_318\n      jumpi\n        /* \"#utility.yul\":7305:7324   */\n      dup8\n      dup6\n      add\n        /* \"#utility.yul\":7299:7325   */\n      mload\n        /* \"#utility.yul\":7284:7326   */\n      dup3\n      sstore\n        /* \"#utility.yul\":7412:7416   */\n      0x20\n        /* \"#utility.yul\":7397:7417   */\n      swap5\n      dup6\n      add\n      swap5\n        /* \"#utility.yul\":7365:7366   */\n      0x01\n        /* \"#utility.yul\":7353:7367   */\n      swap1\n      swap3\n      add\n      swap2\n        /* \"#utility.yul\":7239:7251   */\n      add\n        /* \"#utility.yul\":7209:7431   */\n      jump(tag_316)\n    tag_318:\n        /* \"#utility.yul\":7213:7216   */\n      pop\n        /* \"#utility.yul\":7459:7465   */\n      dup5\n        /* \"#utility.yul\":7450:7457   */\n      dup3\n        /* \"#utility.yul\":7447:7466   */\n      lt\n        /* \"#utility.yul\":7444:7645   */\n      iszero\n      tag_319\n      jumpi\n        /* \"#utility.yul\":7520:7539   */\n      dup7\n      dup5\n      add\n        /* \"#utility.yul\":7514:7540   */\n      mload\n      not(0x00)\n        /* \"#utility.yul\":7603:7604   */\n      0x03\n        /* \"#utility.yul\":7599:7613   */\n      dup8\n      swap1\n      shl\n        /* \"#utility.yul\":7615:7618   */\n      0xf8\n        /* \"#utility.yul\":7595:7619   */\n      and\n        /* \"#utility.yul\":7591:7628   */\n      shr\n        /* \"#utility.yul\":7587:7629   */\n      not\n        /* \"#utility.yul\":7572:7630   */\n      and\n        /* \"#utility.yul\":7557:7631   */\n      dup2\n      sstore\n        /* \"#utility.yul\":7444:7645   */\n    tag_319:\n      pop\n      pop\n      pop\n      pop\n        /* \"#utility.yul\":7691:7692   */\n      0x01\n        /* \"#utility.yul\":7675:7689   */\n      swap1\n      dup2\n      shl\n        /* \"#utility.yul\":7671:7693   */\n      add\n        /* \"#utility.yul\":7658:7694   */\n      swap1\n      sstore\n      pop\n        /* \"#utility.yul\":6662:7961   */\n      jump\t// out\n        /* \"#utility.yul\":7966:8356   */\n    tag_146:\n        /* \"#utility.yul\":8125:8127   */\n      0x20\n        /* \"#utility.yul\":8114:8123   */\n      dup2\n        /* \"#utility.yul\":8107:8128   */\n      mstore\n        /* \"#utility.yul\":8164:8170   */\n      dup2\n        /* \"#utility.yul\":8159:8161   */\n      0x20\n        /* \"#utility.yul\":8148:8157   */\n      dup3\n        /* \"#utility.yul\":8144:8162   */\n      add\n        /* \"#utility.yul\":8137:8171   */\n      mstore\n        /* \"#utility.yul\":8221:8227   */\n      dup2\n        /* \"#utility.yul\":8213:8219   */\n      dup4\n        /* \"#utility.yul\":8208:8210   */\n      0x40\n        /* \"#utility.yul\":8197:8206   */\n      dup4\n        /* \"#utility.yul\":8193:8211   */\n      add\n        /* \"#utility.yul\":8180:8228   */\n      calldatacopy\n        /* \"#utility.yul\":8277:8278   */\n      0x00\n        /* \"#utility.yul\":8248:8270   */\n      dup2\n      dup4\n      add\n        /* \"#utility.yul\":8272:8274   */\n      0x40\n        /* \"#utility.yul\":8244:8275   */\n      swap1\n      dup2\n      add\n        /* \"#utility.yul\":8237:8279   */\n      swap2\n      swap1\n      swap2\n      mstore\n        /* \"#utility.yul\":8340:8342   */\n      0x1f\n        /* \"#utility.yul\":8319:8334   */\n      swap1\n      swap3\n      add\n      not(0x1f)\n        /* \"#utility.yul\":8315:8344   */\n      and\n        /* \"#utility.yul\":8300:8345   */\n      add\n        /* \"#utility.yul\":8296:8350   */\n      add\n      swap2\n        /* \"#utility.yul\":7966:8356   */\n      swap1\n      pop\n      jump\t// out\n        /* \"#utility.yul\":9750:10155   */\n    tag_198:\n        /* \"#utility.yul\":9952:9954   */\n      0x20\n        /* \"#utility.yul\":9934:9955   */\n      dup1\n      dup3\n      mstore\n        /* \"#utility.yul\":9991:9993   */\n      0x29\n        /* \"#utility.yul\":9971:9989   */\n      swap1\n      dup3\n      add\n        /* \"#utility.yul\":9964:9994   */\n      mstore\n        /* \"#utility.yul\":10030:10064   */\n      0x4164647265737320616c7265616479206c696e6b656420746f20616e6f746865\n        /* \"#utility.yul\":10025:10027   */\n      0x40\n        /* \"#utility.yul\":10010:10028   */\n      dup3\n      add\n        /* \"#utility.yul\":10003:10065   */\n      mstore\n      shl(0xba, 0x1c881cdd1d59195b9d)\n        /* \"#utility.yul\":10096:10098   */\n      0x60\n        /* \"#utility.yul\":10081:10099   */\n      dup3\n      add\n        /* \"#utility.yul\":10074:10113   */\n      mstore\n        /* \"#utility.yul\":10145:10148   */\n      0x80\n        /* \"#utility.yul\":10130:10149   */\n      add\n      swap1\n        /* \"#utility.yul\":9750:10155   */\n      jump\t// out\n    stop\n    data_21cb3fef777527601eb23e0445345c54d2aab647c528ca38c9095962d5bfc074 36a5c4aaacb6b388bbd448bf11096b7dafc5652bcc9046084fd0e95b1fb0b2cc\n    data_6f93d34eb48bd68dc326c68374e43551b4b92ae8e465c919170be69b5a84151b d80fe6bc0e33ab4417bd425f297e026e0456472df56b1eaaee7acd2cbc2c696f\n    data_cb864c43dd5d441bb6271f424f11befa622c032dfd374d226e26fbbdb782b8f8 a49807205ce4d355092ef5a8a18f56e8913cf4a201fbe287825b095693c21775\n\n    auxdata: 0xa26469706673582212202459f0a88afe736be65706568825eb48580edef72b92bc7064c7f458ba404e5364736f6c634300081e0033\n}\n",
				"bytecode": {
					"linkReferences": {},
					"object": "6080604052348015600f57600080fd5b5061135c8061001f6000396000f3fe608060405234801561001057600080fd5b50600436106101735760003560e01c806380ab3dda116100de578063b5ab682d11610097578063d547741f11610071578063d547741f146103ce578063e67651ac146103e1578063f7be43fb1461040a578063fc9b39e61461041f57600080fd5b8063b5ab682d14610367578063c94d10ad146103a8578063d27fc520146103bb57600080fd5b806380ab3dda146102b557806386c34415146102de57806391d14854146102fe578063a217fddf14610311578063a22c1bc914610319578063adc6ba731461033957600080fd5b80632f2ff15d116101305780632f2ff15d1461024157806332b3c846146102545780633f0a92fb1461026757806366b2d2801461027a5780636a0d28921461028d57806375b238fc146102a057600080fd5b80630713eb021461017857806316853feb146101a05780631bc7980c146101b55780632426bb38146101c85780632543b3a7146101ef5780632ea0d8291461022e575b600080fd5b61018d6000805160206112e783398151915281565b6040519081526020015b60405180910390f35b6101b36101ae366004610f09565b610432565b005b6101b36101c3366004610f2b565b61049e565b61018d7ffc7c36207174f786648d2e624616a4b40e15fd7f0268b4e36af5057f0c43c83581565b61021e6101fd366004610fae565b60009182526004602081815260408085209385529290529120015460ff1690565b6040519015158152602001610197565b6101b361023c366004610f09565b610633565b6101b361024f366004610fd0565b610692565b6101b3610262366004610f09565b6106c9565b6101b3610275366004610ffc565b610716565b6101b3610288366004610f09565b610804565b6101b361029b366004610fd0565b610851565b61018d60008051602061130783398151915281565b61018d6102c3366004610f09565b6001600160a01b031660009081526003602052604090205490565b61018d6102ec366004610f09565b60036020526000908152604090205481565b61021e61030c366004610fd0565b610a34565b61018d600081565b61032c610327366004610fae565b610a5d565b6040516101979190611028565b61018d610347366004610fae565b600091825260046020908152604080842092845291905290206003015490565b6103906103753660046110b1565b6002602052600090815260409020546001600160a01b031681565b6040516001600160a01b039091168152602001610197565b6101b36103b6366004610f09565b610b87565b6101b36103c9366004610fd0565b610bd4565b6101b36103dc366004610fd0565b610da2565b6103906103ef3660046110b1565b6000908152600260205260409020546001600160a01b031690565b61018d6000805160206112c783398151915281565b6101b361042d366004610f09565b610dd4565b60008051602061130783398151915261044b8133610a34565b6104705760405162461bcd60e51b8152600401610467906110ca565b60405180910390fd5b61049a7ffc7c36207174f786648d2e624616a4b40e15fd7f0268b4e36af5057f0c43c83583610e21565b5050565b6000805160206112c78339815191526104b78133610a34565b6104d35760405162461bcd60e51b8152600401610467906110ca565b6000858152600460208181526040808420888552909152909120015460ff16156105335760405162461bcd60e51b8152602060048201526011602482015270105b1c9958591e481cdd589b5a5d1d1959607a1b6044820152606401610467565b6040518060a0016040528086815260200185815260200184848080601f0160208091040260200160405190810160405280939291908181526020018383808284376000920182905250938552505050602080830182905260016040938401819052898352600482528383208984528252918390208451815590840151918101919091559082015160028201906105c9908261118f565b50606082015160038201556080909101516004909101805460ff1916911515919091179055604051849086907f7e1dcecea5687fbfa4bee3618e0cb22dfecdd1ce50800c45b577420be05c644290610624908790879061124e565b60405180910390a35050505050565b60008051602061130783398151915261064c8133610a34565b6106685760405162461bcd60e51b8152600401610467906110ca565b61049a7ffc7c36207174f786648d2e624616a4b40e15fd7f0268b4e36af5057f0c43c83583610e88565b600061069e8133610a34565b6106ba5760405162461bcd60e51b8152600401610467906110ca565b6106c48383610e21565b505050565b6000805160206113078339815191526106e28133610a34565b6106fe5760405162461bcd60e51b8152600401610467906110ca565b61049a6000805160206112c783398151915283610e88565b6000805160206112e783398151915261072f8133610a34565b61074b5760405162461bcd60e51b8152600401610467906110ca565b6000848152600460208181526040808420878552909152909120015460ff166107aa5760405162461bcd60e51b8152602060048201526011602482015270139bdd081cdd589b5a5d1d1959081e595d607a1b6044820152606401610467565b60008481526004602090815260408083208684528252918290206003018490559051838152849186917fb2383e82269e758b9ec0fc961ac69cecc166570a12068c11b3f9cf29c8de9e88910160405180910390a350505050565b60008051602061130783398151915261081d8133610a34565b6108395760405162461bcd60e51b8152600401610467906110ca565b61049a6000805160206112e783398151915283610e21565b60008051602061130783398151915261086a8133610a34565b6108865760405162461bcd60e51b8152600401610467906110ca565b600083116108cb5760405162461bcd60e51b8152602060048201526012602482015271125b9d985b1a59081cdd1d59195b9d08125160721b6044820152606401610467565b6001600160a01b0382166109135760405162461bcd60e51b815260206004820152600f60248201526e496e76616c6964206164647265737360881b6044820152606401610467565b6000838152600260205260409020546001600160a01b03166109775760405162461bcd60e51b815260206004820152601760248201527f53747564656e742061646472657373206e6f74207365740000000000000000006044820152606401610467565b6001600160a01b038216600090815260036020526040902054156109ad5760405162461bcd60e51b81526004016104679061127d565b600083815260026020908152604080832080546001600160a01b039081168086526003855283862086905582546001600160a01b031916918816918217909255808552938290208790559051338152909291839187917f59e33f3654f744a7a32cda9a919fa879941875bb700d1c776ade2f64e23b4649910160405180910390a450505050565b6000918252602082815260408084206001600160a01b0393909316845291905290205460ff1690565b610a916040518060a00160405280600081526020016000815260200160608152602001600081526020016000151581525090565b6004600084815260200190815260200160002060008381526020019081526020016000206040518060a00160405290816000820154815260200160018201548152602001600282018054610ae490611107565b80601f0160208091040260200160405190810160405280929190818152602001828054610b1090611107565b8015610b5d5780601f10610b3257610100808354040283529160200191610b5d565b820191906000526020600020905b815481529060010190602001808311610b4057829003601f168201915b50505091835250506003820154602082015260049091015460ff1615156040909101529392505050565b600080516020611307833981519152610ba08133610a34565b610bbc5760405162461bcd60e51b8152600401610467906110ca565b61049a6000805160206112c783398151915283610e21565b600080516020611307833981519152610bed8133610a34565b610c095760405162461bcd60e51b8152600401610467906110ca565b60008311610c4e5760405162461bcd60e51b8152602060048201526012602482015271125b9d985b1a59081cdd1d59195b9d08125160721b6044820152606401610467565b6001600160a01b038216610c965760405162461bcd60e51b815260206004820152600f60248201526e496e76616c6964206164647265737360881b6044820152606401610467565b6000838152600260205260409020546001600160a01b031615610cfb5760405162461bcd60e51b815260206004820152601b60248201527f53747564656e74206164647265737320616c72656164792073657400000000006044820152606401610467565b6001600160a01b03821660009081526003602052604090205415610d315760405162461bcd60e51b81526004016104679061127d565b600083815260026020908152604080832080546001600160a01b0319166001600160a01b03871690811790915580845260038352928190208690555133815285917fd9cc4835d96fc4b2afb6db1577a9677a621088cdee0c53da65076951d88be32f910160405180910390a3505050565b6000610dae8133610a34565b610dca5760405162461bcd60e51b8152600401610467906110ca565b6106c48383610e88565b600080516020611307833981519152610ded8133610a34565b610e095760405162461bcd60e51b8152600401610467906110ca565b61049a6000805160206112e783398151915283610e88565b610e2b8282610a34565b61049a576000828152602081815260408083206001600160a01b0385168085529252808320805460ff1916600117905551339285917f2f8788117e7eff1d82e926ec794901d17c78024a50270940304540a733656f0d9190a45050565b610e928282610a34565b1561049a576000828152602081815260408083206001600160a01b0385168085529252808320805460ff1916905551339285917ff6391f5c32d9c69d2a47ea670b442974b53935d1edc7fd64eb21e047a839171b9190a45050565b80356001600160a01b0381168114610f0457600080fd5b919050565b600060208284031215610f1b57600080fd5b610f2482610eed565b9392505050565b60008060008060608587031215610f4157600080fd5b8435935060208501359250604085013567ffffffffffffffff811115610f6657600080fd5b8501601f81018713610f7757600080fd5b803567ffffffffffffffff811115610f8e57600080fd5b876020828401011115610fa057600080fd5b949793965060200194505050565b60008060408385031215610fc157600080fd5b50508035926020909101359150565b60008060408385031215610fe357600080fd5b82359150610ff360208401610eed565b90509250929050565b60008060006060848603121561101157600080fd5b505081359360208301359350604090920135919050565b6020815281516020820152602082015160408201526000604083015160a0606084015280518060c085015260005b8181101561107357602081840181015160e0878401015201611056565b50600060e08286010152606085015160808501526080850151915061109c60a085018315159052565b601f01601f19169290920160e0019392505050565b6000602082840312156110c357600080fd5b5035919050565b6020808252600d908201526c1058d8d95cdcc819195b9a5959609a1b604082015260600190565b634e487b7160e01b600052604160045260246000fd5b600181811c9082168061111b57607f821691505b60208210810361113b57634e487b7160e01b600052602260045260246000fd5b50919050565b601f8211156106c457806000526020600020601f840160051c810160208510156111685750805b601f840160051c820191505b818110156111885760008155600101611174565b5050505050565b815167ffffffffffffffff8111156111a9576111a96110f1565b6111bd816111b78454611107565b84611141565b6020601f8211600181146111f157600083156111d95750848201515b600019600385901b1c1916600184901b178455611188565b600084815260208120601f198516915b828110156112215787850151825560209485019460019092019101611201565b508482101561123f5786840151600019600387901b60f8161c191681555b50505050600190811b01905550565b60208152816020820152818360408301376000818301604090810191909152601f909201601f19160101919050565b60208082526029908201527f4164647265737320616c7265616479206c696e6b656420746f20616e6f7468656040820152681c881cdd1d59195b9d60ba1b60608201526080019056fe36a5c4aaacb6b388bbd448bf11096b7dafc5652bcc9046084fd0e95b1fb0b2ccd80fe6bc0e33ab4417bd425f297e026e0456472df56b1eaaee7acd2cbc2c696fa49807205ce4d355092ef5a8a18f56e8913cf4a201fbe287825b095693c21775a26469706673582212202459f0a88afe736be65706568825eb48580edef72b92bc7064c7f458ba404e5364736f6c634300081e0033",
					"opcodes": "PUSH1 0x80 PUSH1 0x40 MSTORE CALLVALUE DUP1 ISZERO PUSH1 0xF JUMPI PUSH1 0x0 DUP1 REVERT JUMPDEST POP PUSH2 0x135C DUP1 PUSH2 0x1F PUSH1 0x0 CODECOPY PUSH1 0x0 RETURN INVALID PUSH1 0x80 PUSH1 0x40 MSTORE CALLVALUE DUP1 ISZERO PUSH2 0x10 JUMPI PUSH1 0x0 DUP1 REVERT JUMPDEST POP PUSH1 0x4 CALLDATASIZE LT PUSH2 0x173 JUMPI PUSH1 0x0 CALLDATALOAD PUSH1 0xE0 SHR DUP1 PUSH4 0x80AB3DDA GT PUSH2 0xDE JUMPI DUP1 PUSH4 0xB5AB682D GT PUSH2 0x97 JUMPI DUP1 PUSH4 0xD547741F GT PUSH2 0x71 JUMPI DUP1 PUSH4 0xD547741F EQ PUSH2 0x3CE JUMPI DUP1 PUSH4 0xE67651AC EQ PUSH2 0x3E1 JUMPI DUP1 PUSH4 0xF7BE43FB EQ PUSH2 0x40A JUMPI DUP1 PUSH4 0xFC9B39E6 EQ PUSH2 0x41F JUMPI PUSH1 0x0 DUP1 REVERT JUMPDEST DUP1 PUSH4 0xB5AB682D EQ PUSH2 0x367 JUMPI DUP1 PUSH4 0xC94D10AD EQ PUSH2 0x3A8 JUMPI DUP1 PUSH4 0xD27FC520 EQ PUSH2 0x3BB JUMPI PUSH1 0x0 DUP1 REVERT JUMPDEST DUP1 PUSH4 0x80AB3DDA EQ PUSH2 0x2B5 JUMPI DUP1 PUSH4 0x86C34415 EQ PUSH2 0x2DE JUMPI DUP1 PUSH4 0x91D14854 EQ PUSH2 0x2FE JUMPI DUP1 PUSH4 0xA217FDDF EQ PUSH2 0x311 JUMPI DUP1 PUSH4 0xA22C1BC9 EQ PUSH2 0x319 JUMPI DUP1 PUSH4 0xADC6BA73 EQ PUSH2 0x339 JUMPI PUSH1 0x0 DUP1 REVERT JUMPDEST DUP1 PUSH4 0x2F2FF15D GT PUSH2 0x130 JUMPI DUP1 PUSH4 0x2F2FF15D EQ PUSH2 0x241 JUMPI DUP1 PUSH4 0x32B3C846 EQ PUSH2 0x254 JUMPI DUP1 PUSH4 0x3F0A92FB EQ PUSH2 0x267 JUMPI DUP1 PUSH4 0x66B2D280 EQ PUSH2 0x27A JUMPI DUP1 PUSH4 0x6A0D2892 EQ PUSH2 0x28D JUMPI DUP1 PUSH4 0x75B238FC EQ PUSH2 0x2A0 JUMPI PUSH1 0x0 DUP1 REVERT JUMPDEST DUP1 PUSH4 0x713EB02 EQ PUSH2 0x178 JUMPI DUP1 PUSH4 0x16853FEB EQ PUSH2 0x1A0 JUMPI DUP1 PUSH4 0x1BC7980C EQ PUSH2 0x1B5 JUMPI DUP1 PUSH4 0x2426BB38 EQ PUSH2 0x1C8 JUMPI DUP1 PUSH4 0x2543B3A7 EQ PUSH2 0x1EF JUMPI DUP1 PUSH4 0x2EA0D829 EQ PUSH2 0x22E JUMPI JUMPDEST PUSH1 0x0 DUP1 REVERT JUMPDEST PUSH2 0x18D PUSH1 0x0 DUP1 MLOAD PUSH1 0x20 PUSH2 0x12E7 DUP4 CODECOPY DUP2 MLOAD SWAP2 MSTORE DUP2 JUMP JUMPDEST PUSH1 0x40 MLOAD SWAP1 DUP2 MSTORE PUSH1 0x20 ADD JUMPDEST PUSH1 0x40 MLOAD DUP1 SWAP2 SUB SWAP1 RETURN JUMPDEST PUSH2 0x1B3 PUSH2 0x1AE CALLDATASIZE PUSH1 0x4 PUSH2 0xF09 JUMP JUMPDEST PUSH2 0x432 JUMP JUMPDEST STOP JUMPDEST PUSH2 0x1B3 PUSH2 0x1C3 CALLDATASIZE PUSH1 0x4 PUSH2 0xF2B JUMP JUMPDEST PUSH2 0x49E JUMP JUMPDEST PUSH2 0x18D PUSH32 0xFC7C36207174F786648D2E624616A4B40E15FD7F0268B4E36AF5057F0C43C835 DUP2 JUMP JUMPDEST PUSH2 0x21E PUSH2 0x1FD CALLDATASIZE PUSH1 0x4 PUSH2 0xFAE JUMP JUMPDEST PUSH1 0x0 SWAP2 DUP3 MSTORE PUSH1 0x4 PUSH1 0x20 DUP2 DUP2 MSTORE PUSH1 0x40 DUP1 DUP6 KECCAK256 SWAP4 DUP6 MSTORE SWAP3 SWAP1 MSTORE SWAP2 KECCAK256 ADD SLOAD PUSH1 0xFF AND SWAP1 JUMP JUMPDEST PUSH1 0x40 MLOAD SWAP1 ISZERO ISZERO DUP2 MSTORE PUSH1 0x20 ADD PUSH2 0x197 JUMP JUMPDEST PUSH2 0x1B3 PUSH2 0x23C CALLDATASIZE PUSH1 0x4 PUSH2 0xF09 JUMP JUMPDEST PUSH2 0x633 JUMP JUMPDEST PUSH2 0x1B3 PUSH2 0x24F CALLDATASIZE PUSH1 0x4 PUSH2 0xFD0 JUMP JUMPDEST PUSH2 0x692 JUMP JUMPDEST PUSH2 0x1B3 PUSH2 0x262 CALLDATASIZE PUSH1 0x4 PUSH2 0xF09 JUMP JUMPDEST PUSH2 0x6C9 JUMP JUMPDEST PUSH2 0x1B3 PUSH2 0x275 CALLDATASIZE PUSH1 0x4 PUSH2 0xFFC JUMP JUMPDEST PUSH2 0x716 JUMP JUMPDEST PUSH2 0x1B3 PUSH2 0x288 CALLDATASIZE PUSH1 0x4 PUSH2 0xF09 JUMP JUMPDEST PUSH2 0x804 JUMP JUMPDEST PUSH2 0x1B3 PUSH2 0x29B CALLDATASIZE PUSH1 0x4 PUSH2 0xFD0 JUMP JUMPDEST PUSH2 0x851 JUMP JUMPDEST PUSH2 0x18D PUSH1 0x0 DUP1 MLOAD PUSH1 0x20 PUSH2 0x1307 DUP4 CODECOPY DUP2 MLOAD SWAP2 MSTORE DUP2 JUMP JUMPDEST PUSH2 0x18D PUSH2 0x2C3 CALLDATASIZE PUSH1 0x4 PUSH2 0xF09 JUMP JUMPDEST PUSH1 0x1 PUSH1 0x1 PUSH1 0xA0 SHL SUB AND PUSH1 0x0 SWAP1 DUP2 MSTORE PUSH1 0x3 PUSH1 0x20 MSTORE PUSH1 0x40 SWAP1 KECCAK256 SLOAD SWAP1 JUMP JUMPDEST PUSH2 0x18D PUSH2 0x2EC CALLDATASIZE PUSH1 0x4 PUSH2 0xF09 JUMP JUMPDEST PUSH1 0x3 PUSH1 0x20 MSTORE PUSH1 0x0 SWAP1 DUP2 MSTORE PUSH1 0x40 SWAP1 KECCAK256 SLOAD DUP2 JUMP JUMPDEST PUSH2 0x21E PUSH2 0x30C CALLDATASIZE PUSH1 0x4 PUSH2 0xFD0 JUMP JUMPDEST PUSH2 0xA34 JUMP JUMPDEST PUSH2 0x18D PUSH1 0x0 DUP2 JUMP JUMPDEST PUSH2 0x32C PUSH2 0x327 CALLDATASIZE PUSH1 0x4 PUSH2 0xFAE JUMP JUMPDEST PUSH2 0xA5D JUMP JUMPDEST PUSH1 0x40 MLOAD PUSH2 0x197 SWAP2 SWAP1 PUSH2 0x1028 JUMP JUMPDEST PUSH2 0x18D PUSH2 0x347 CALLDATASIZE PUSH1 0x4 PUSH2 0xFAE JUMP JUMPDEST PUSH1 0x0 SWAP2 DUP3 MSTORE PUSH1 0x4 PUSH1 0x20 SWAP1 DUP2 MSTORE PUSH1 0x40 DUP1 DUP5 KECCAK256 SWAP3 DUP5 MSTORE SWAP2 SWAP1 MSTORE SWAP1 KECCAK256 PUSH1 0x3 ADD SLOAD SWAP1 JUMP JUMPDEST PUSH2 0x390 PUSH2 0x375 CALLDATASIZE PUSH1 0x4 PUSH2 0x10B1 JUMP JUMPDEST PUSH1 0x2 PUSH1 0x20 MSTORE PUSH1 0x0 SWAP1 DUP2 MSTORE PUSH1 0x40 SWAP1 KECCAK256 SLOAD PUSH1 0x1 PUSH1 0x1 PUSH1 0xA0 SHL SUB AND DUP2 JUMP JUMPDEST PUSH1 0x40 MLOAD PUSH1 0x1 PUSH1 0x1 PUSH1 0xA0 SHL SUB SWAP1 SWAP2 AND DUP2 MSTORE PUSH1 0x20 ADD PUSH2 0x197 JUMP JUMPDEST PUSH2 0x1B3 PUSH2 0x3B6 CALLDATASIZE PUSH1 0x4 PUSH2 0xF09 JUMP JUMPDEST PUSH2 0xB87 JUMP JUMPDEST PUSH2 0x1B3 PUSH2 0x3C9 CALLDATASIZE PUSH1 0x4 PUSH2 0xFD0 JUMP JUMPDEST PUSH2 0xBD4 JUMP JUMPDEST PUSH2 0x1B3 PUSH2 0x3DC CALLDATASIZE PUSH1 0x4 PUSH2 0xFD0 JUMP JUMPDEST PUSH2 0xDA2 JUMP JUMPDEST PUSH2 0x390 PUSH2 0x3EF CALLDATASIZE PUSH1 0x4 PUSH2 0x10B1 JUMP JUMPDEST PUSH1 0x0 SWAP1 DUP2 MSTORE PUSH1 0x2 PUSH1 0x20 MSTORE PUSH1 0x40 SWAP1 KECCAK256 SLOAD PUSH1 0x1 PUSH1 0x1 PUSH1 0xA0 SHL SUB AND SWAP1 JUMP JUMPDEST PUSH2 0x18D PUSH1 0x0 DUP1 MLOAD PUSH1 0x20 PUSH2 0x12C7 DUP4 CODECOPY DUP2 MLOAD SWAP2 MSTORE DUP2 JUMP JUMPDEST PUSH2 0x1B3 PUSH2 0x42D CALLDATASIZE PUSH1 0x4 PUSH2 0xF09 JUMP JUMPDEST PUSH2 0xDD4 JUMP JUMPDEST PUSH1 0x0 DUP1 MLOAD PUSH1 0x20 PUSH2 0x1307 DUP4 CODECOPY DUP2 MLOAD SWAP2 MSTORE PUSH2 0x44B DUP2 CALLER PUSH2 0xA34 JUMP JUMPDEST PUSH2 0x470 JUMPI PUSH1 0x40 MLOAD PUSH3 0x461BCD PUSH1 0xE5 SHL DUP2 MSTORE PUSH1 0x4 ADD PUSH2 0x467 SWAP1 PUSH2 0x10CA JUMP JUMPDEST PUSH1 0x40 MLOAD DUP1 SWAP2 SUB SWAP1 REVERT JUMPDEST PUSH2 0x49A PUSH32 0xFC7C36207174F786648D2E624616A4B40E15FD7F0268B4E36AF5057F0C43C835 DUP4 PUSH2 0xE21 JUMP JUMPDEST POP POP JUMP JUMPDEST PUSH1 0x0 DUP1 MLOAD PUSH1 0x20 PUSH2 0x12C7 DUP4 CODECOPY DUP2 MLOAD SWAP2 MSTORE PUSH2 0x4B7 DUP2 CALLER PUSH2 0xA34 JUMP JUMPDEST PUSH2 0x4D3 JUMPI PUSH1 0x40 MLOAD PUSH3 0x461BCD PUSH1 0xE5 SHL DUP2 MSTORE PUSH1 0x4 ADD PUSH2 0x467 SWAP1 PUSH2 0x10CA JUMP JUMPDEST PUSH1 0x0 DUP6 DUP2 MSTORE PUSH1 0x4 PUSH1 0x20 DUP2 DUP2 MSTORE PUSH1 0x40 DUP1 DUP5 KECCAK256 DUP9 DUP6 MSTORE SWAP1 SWAP2 MSTORE SWAP1 SWAP2 KECCAK256 ADD SLOAD PUSH1 0xFF AND ISZERO PUSH2 0x533 JUMPI PUSH1 0x40 MLOAD PUSH3 0x461BCD PUSH1 0xE5 SHL DUP2 MSTORE PUSH1 0x20 PUSH1 0x4 DUP3 ADD MSTORE PUSH1 0x11 PUSH1 0x24 DUP3 ADD MSTORE PUSH17 0x105B1C9958591E481CDD589B5A5D1D1959 PUSH1 0x7A SHL PUSH1 0x44 DUP3 ADD MSTORE PUSH1 0x64 ADD PUSH2 0x467 JUMP JUMPDEST PUSH1 0x40 MLOAD DUP1 PUSH1 0xA0 ADD PUSH1 0x40 MSTORE DUP1 DUP7 DUP2 MSTORE PUSH1 0x20 ADD DUP6 DUP2 MSTORE PUSH1 0x20 ADD DUP5 DUP5 DUP1 DUP1 PUSH1 0x1F ADD PUSH1 0x20 DUP1 SWAP2 DIV MUL PUSH1 0x20 ADD PUSH1 0x40 MLOAD SWAP1 DUP2 ADD PUSH1 0x40 MSTORE DUP1 SWAP4 SWAP3 SWAP2 SWAP1 DUP2 DUP2 MSTORE PUSH1 0x20 ADD DUP4 DUP4 DUP1 DUP3 DUP5 CALLDATACOPY PUSH1 0x0 SWAP3 ADD DUP3 SWAP1 MSTORE POP SWAP4 DUP6 MSTORE POP POP POP PUSH1 0x20 DUP1 DUP4 ADD DUP3 SWAP1 MSTORE PUSH1 0x1 PUSH1 0x40 SWAP4 DUP5 ADD DUP2 SWAP1 MSTORE DUP10 DUP4 MSTORE PUSH1 0x4 DUP3 MSTORE DUP4 DUP4 KECCAK256 DUP10 DUP5 MSTORE DUP3 MSTORE SWAP2 DUP4 SWAP1 KECCAK256 DUP5 MLOAD DUP2 SSTORE SWAP1 DUP5 ADD MLOAD SWAP2 DUP2 ADD SWAP2 SWAP1 SWAP2 SSTORE SWAP1 DUP3 ADD MLOAD PUSH1 0x2 DUP3 ADD SWAP1 PUSH2 0x5C9 SWAP1 DUP3 PUSH2 0x118F JUMP JUMPDEST POP PUSH1 0x60 DUP3 ADD MLOAD PUSH1 0x3 DUP3 ADD SSTORE PUSH1 0x80 SWAP1 SWAP2 ADD MLOAD PUSH1 0x4 SWAP1 SWAP2 ADD DUP1 SLOAD PUSH1 0xFF NOT AND SWAP2 ISZERO ISZERO SWAP2 SWAP1 SWAP2 OR SWAP1 SSTORE PUSH1 0x40 MLOAD DUP5 SWAP1 DUP7 SWAP1 PUSH32 0x7E1DCECEA5687FBFA4BEE3618E0CB22DFECDD1CE50800C45B577420BE05C6442 SWAP1 PUSH2 0x624 SWAP1 DUP8 SWAP1 DUP8 SWAP1 PUSH2 0x124E JUMP JUMPDEST PUSH1 0x40 MLOAD DUP1 SWAP2 SUB SWAP1 LOG3 POP POP POP POP POP JUMP JUMPDEST PUSH1 0x0 DUP1 MLOAD PUSH1 0x20 PUSH2 0x1307 DUP4 CODECOPY DUP2 MLOAD SWAP2 MSTORE PUSH2 0x64C DUP2 CALLER PUSH2 0xA34 JUMP JUMPDEST PUSH2 0x668 JUMPI PUSH1 0x40 MLOAD PUSH3 0x461BCD PUSH1 0xE5 SHL DUP2 MSTORE PUSH1 0x4 ADD PUSH2 0x467 SWAP1 PUSH2 0x10CA JUMP JUMPDEST PUSH2 0x49A PUSH32 0xFC7C36207174F786648D2E624616A4B40E15FD7F0268B4E36AF5057F0C43C835 DUP4 PUSH2 0xE88 JUMP JUMPDEST PUSH1 0x0 PUSH2 0x69E DUP2 CALLER PUSH2 0xA34 JUMP JUMPDEST PUSH2 0x6BA JUMPI PUSH1 0x40 MLOAD PUSH3 0x461BCD PUSH1 0xE5 SHL DUP2 MSTORE PUSH1 0x4 ADD PUSH2 0x467 SWAP1 PUSH2 0x10CA JUMP JUMPDEST PUSH2 0x6C4 DUP4 DUP4 PUSH2 0xE21 JUMP JUMPDEST POP POP POP JUMP JUMPDEST PUSH1 0x0 DUP1 MLOAD PUSH1 0x20 PUSH2 0x1307 DUP4 CODECOPY DUP2 MLOAD SWAP2 MSTORE PUSH2 0x6E2 DUP2 CALLER PUSH2 0xA34 JUMP JUMPDEST PUSH2 0x6FE JUMPI PUSH1 0x40 MLOAD PUSH3 0x461BCD PUSH1 0xE5 SHL DUP2 MSTORE PUSH1 0x4 ADD PUSH2 0x467 SWAP1 PUSH2 0x10CA JUMP JUMPDEST PUSH2 0x49A PUSH1 0x0 DUP1 MLOAD PUSH1 0x20 PUSH2 0x12C7 DUP4 CODECOPY DUP2 MLOAD SWAP2 MSTORE DUP4 PUSH2 0xE88 JUMP JUMPDEST PUSH1 0x0 DUP1 MLOAD PUSH1 0x20 PUSH2 0x12E7 DUP4 CODECOPY DUP2 MLOAD SWAP2 MSTORE PUSH2 0x72F DUP2 CALLER PUSH2 0xA34 JUMP JUMPDEST PUSH2 0x74B JUMPI PUSH1 0x40 MLOAD PUSH3 0x461BCD PUSH1 0xE5 SHL DUP2 MSTORE PUSH1 0x4 ADD PUSH2 0x467 SWAP1 PUSH2 0x10CA JUMP JUMPDEST PUSH1 0x0 DUP5 DUP2 MSTORE PUSH1 0x4 PUSH1 0x20 DUP2 DUP2 MSTORE PUSH1 0x40 DUP1 DUP5 KECCAK256 DUP8 DUP6 MSTORE SWAP1 SWAP2 MSTORE SWAP1 SWAP2 KECCAK256 ADD SLOAD PUSH1 0xFF AND PUSH2 0x7AA JUMPI PUSH1 0x40 MLOAD PUSH3 0x461BCD PUSH1 0xE5 SHL DUP2 MSTORE PUSH1 0x20 PUSH1 0x4 DUP3 ADD MSTORE PUSH1 0x11 PUSH1 0x24 DUP3 ADD MSTORE PUSH17 0x139BDD081CDD589B5A5D1D1959081E595D PUSH1 0x7A SHL PUSH1 0x44 DUP3 ADD MSTORE PUSH1 0x64 ADD PUSH2 0x467 JUMP JUMPDEST PUSH1 0x0 DUP5 DUP2 MSTORE PUSH1 0x4 PUSH1 0x20 SWAP1 DUP2 MSTORE PUSH1 0x40 DUP1 DUP4 KECCAK256 DUP7 DUP5 MSTORE DUP3 MSTORE SWAP2 DUP3 SWAP1 KECCAK256 PUSH1 0x3 ADD DUP5 SWAP1 SSTORE SWAP1 MLOAD DUP4 DUP2 MSTORE DUP5 SWAP2 DUP7 SWAP2 PUSH32 0xB2383E82269E758B9EC0FC961AC69CECC166570A12068C11B3F9CF29C8DE9E88 SWAP2 ADD PUSH1 0x40 MLOAD DUP1 SWAP2 SUB SWAP1 LOG3 POP POP POP POP JUMP JUMPDEST PUSH1 0x0 DUP1 MLOAD PUSH1 0x20 PUSH2 0x1307 DUP4 CODECOPY DUP2 MLOAD SWAP2 MSTORE PUSH2 0x81D DUP2 CALLER PUSH2 0xA34 JUMP JUMPDEST PUSH2 0x839 JUMPI PUSH1 0x40 MLOAD PUSH3 0x461BCD PUSH1 0xE5 SHL DUP2 MSTORE PUSH1 0x4 ADD PUSH2 0x467 SWAP1 PUSH2 0x10CA JUMP JUMPDEST PUSH2 0x49A PUSH1 0x0 DUP1 MLOAD PUSH1 0x20 PUSH2 0x12E7 DUP4 CODECOPY DUP2 MLOAD SWAP2 MSTORE DUP4 PUSH2 0xE21 JUMP JUMPDEST PUSH1 0x0 DUP1 MLOAD PUSH1 0x20 PUSH2 0x1307 DUP4 CODECOPY DUP2 MLOAD SWAP2 MSTORE PUSH2 0x86A DUP2 CALLER PUSH2 0xA34 JUMP JUMPDEST PUSH2 0x886 JUMPI PUSH1 0x40 MLOAD PUSH3 0x461BCD PUSH1 0xE5 SHL DUP2 MSTORE PUSH1 0x4 ADD PUSH2 0x467 SWAP1 PUSH2 0x10CA JUMP JUMPDEST PUSH1 0x0 DUP4 GT PUSH2 0x8CB JUMPI PUSH1 0x40 MLOAD PUSH3 0x461BCD PUSH1 0xE5 SHL DUP2 MSTORE PUSH1 0x20 PUSH1 0x4 DUP3 ADD MSTORE PUSH1 0x12 PUSH1 0x24 DUP3 ADD MSTORE PUSH18 0x125B9D985B1A59081CDD1D59195B9D081251 PUSH1 0x72 SHL PUSH1 0x44 DUP3 ADD MSTORE PUSH1 0x64 ADD PUSH2 0x467 JUMP JUMPDEST PUSH1 0x1 PUSH1 0x1 PUSH1 0xA0 SHL SUB DUP3 AND PUSH2 0x913 JUMPI PUSH1 0x40 MLOAD PUSH3 0x461BCD PUSH1 0xE5 SHL DUP2 MSTORE PUSH1 0x20 PUSH1 0x4 DUP3 ADD MSTORE PUSH1 0xF PUSH1 0x24 DUP3 ADD MSTORE PUSH15 0x496E76616C69642061646472657373 PUSH1 0x88 SHL PUSH1 0x44 DUP3 ADD MSTORE PUSH1 0x64 ADD PUSH2 0x467 JUMP JUMPDEST PUSH1 0x0 DUP4 DUP2 MSTORE PUSH1 0x2 PUSH1 0x20 MSTORE PUSH1 0x40 SWAP1 KECCAK256 SLOAD PUSH1 0x1 PUSH1 0x1 PUSH1 0xA0 SHL SUB AND PUSH2 0x977 JUMPI PUSH1 0x40 MLOAD PUSH3 0x461BCD PUSH1 0xE5 SHL DUP2 MSTORE PUSH1 0x20 PUSH1 0x4 DUP3 ADD MSTORE PUSH1 0x17 PUSH1 0x24 DUP3 ADD MSTORE PUSH32 0x53747564656E742061646472657373206E6F7420736574000000000000000000 PUSH1 0x44 DUP3 ADD MSTORE PUSH1 0x64 ADD PUSH2 0x467 JUMP JUMPDEST PUSH1 0x1 PUSH1 0x1 PUSH1 0xA0 SHL SUB DUP3 AND PUSH1 0x0 SWAP1 DUP2 MSTORE PUSH1 0x3 PUSH1 0x20 MSTORE PUSH1 0x40 SWAP1 KECCAK256 SLOAD ISZERO PUSH2 0x9AD JUMPI PUSH1 0x40 MLOAD PUSH3 0x461BCD PUSH1 0xE5 SHL DUP2 MSTORE PUSH1 0x4 ADD PUSH2 0x467 SWAP1 PUSH2 0x127D JUMP JUMPDEST PUSH1 0x0 DUP4 DUP2 MSTORE PUSH1 0x2 PUSH1 0x20 SWAP1 DUP2 MSTORE PUSH1 0x40 DUP1 DUP4 KECCAK256 DUP1 SLOAD PUSH1 0x1 PUSH1 0x1 PUSH1 0xA0 SHL SUB SWAP1 DUP2 AND DUP1 DUP7 MSTORE PUSH1 0x3 DUP6 MSTORE DUP4 DUP7 KECCAK256 DUP7 SWAP1 SSTORE DUP3 SLOAD PUSH1 0x1 PUSH1 0x1 PUSH1 0xA0 SHL SUB NOT AND SWAP2 DUP9 AND SWAP2 DUP3 OR SWAP1 SWAP3 SSTORE DUP1 DUP6 MSTORE SWAP4 DUP3 SWAP1 KECCAK256 DUP8 SWAP1 SSTORE SWAP1 MLOAD CALLER DUP2 MSTORE SWAP1 SWAP3 SWAP2 DUP4 SWAP2 DUP8 SWAP2 PUSH32 0x59E33F3654F744A7A32CDA9A919FA879941875BB700D1C776ADE2F64E23B4649 SWAP2 ADD PUSH1 0x40 MLOAD DUP1 SWAP2 SUB SWAP1 LOG4 POP POP POP POP JUMP JUMPDEST PUSH1 0x0 SWAP2 DUP3 MSTORE PUSH1 0x20 DUP3 DUP2 MSTORE PUSH1 0x40 DUP1 DUP5 KECCAK256 PUSH1 0x1 PUSH1 0x1 PUSH1 0xA0 SHL SUB SWAP4 SWAP1 SWAP4 AND DUP5 MSTORE SWAP2 SWAP1 MSTORE SWAP1 KECCAK256 SLOAD PUSH1 0xFF AND SWAP1 JUMP JUMPDEST PUSH2 0xA91 PUSH1 0x40 MLOAD DUP1 PUSH1 0xA0 ADD PUSH1 0x40 MSTORE DUP1 PUSH1 0x0 DUP2 MSTORE PUSH1 0x20 ADD PUSH1 0x0 DUP2 MSTORE PUSH1 0x20 ADD PUSH1 0x60 DUP2 MSTORE PUSH1 0x20 ADD PUSH1 0x0 DUP2 MSTORE PUSH1 0x20 ADD PUSH1 0x0 ISZERO ISZERO DUP2 MSTORE POP SWAP1 JUMP JUMPDEST PUSH1 0x4 PUSH1 0x0 DUP5 DUP2 MSTORE PUSH1 0x20 ADD SWAP1 DUP2 MSTORE PUSH1 0x20 ADD PUSH1 0x0 KECCAK256 PUSH1 0x0 DUP4 DUP2 MSTORE PUSH1 0x20 ADD SWAP1 DUP2 MSTORE PUSH1 0x20 ADD PUSH1 0x0 KECCAK256 PUSH1 0x40 MLOAD DUP1 PUSH1 0xA0 ADD PUSH1 0x40 MSTORE SWAP1 DUP2 PUSH1 0x0 DUP3 ADD SLOAD DUP2 MSTORE PUSH1 0x20 ADD PUSH1 0x1 DUP3 ADD SLOAD DUP2 MSTORE PUSH1 0x20 ADD PUSH1 0x2 DUP3 ADD DUP1 SLOAD PUSH2 0xAE4 SWAP1 PUSH2 0x1107 JUMP JUMPDEST DUP1 PUSH1 0x1F ADD PUSH1 0x20 DUP1 SWAP2 DIV MUL PUSH1 0x20 ADD PUSH1 0x40 MLOAD SWAP1 DUP2 ADD PUSH1 0x40 MSTORE DUP1 SWAP3 SWAP2 SWAP1 DUP2 DUP2 MSTORE PUSH1 0x20 ADD DUP3 DUP1 SLOAD PUSH2 0xB10 SWAP1 PUSH2 0x1107 JUMP JUMPDEST DUP1 ISZERO PUSH2 0xB5D JUMPI DUP1 PUSH1 0x1F LT PUSH2 0xB32 JUMPI PUSH2 0x100 DUP1 DUP4 SLOAD DIV MUL DUP4 MSTORE SWAP2 PUSH1 0x20 ADD SWAP2 PUSH2 0xB5D JUMP JUMPDEST DUP3 ADD SWAP2 SWAP1 PUSH1 0x0 MSTORE PUSH1 0x20 PUSH1 0x0 KECCAK256 SWAP1 JUMPDEST DUP2 SLOAD DUP2 MSTORE SWAP1 PUSH1 0x1 ADD SWAP1 PUSH1 0x20 ADD DUP1 DUP4 GT PUSH2 0xB40 JUMPI DUP3 SWAP1 SUB PUSH1 0x1F AND DUP3 ADD SWAP2 JUMPDEST POP POP POP SWAP2 DUP4 MSTORE POP POP PUSH1 0x3 DUP3 ADD SLOAD PUSH1 0x20 DUP3 ADD MSTORE PUSH1 0x4 SWAP1 SWAP2 ADD SLOAD PUSH1 0xFF AND ISZERO ISZERO PUSH1 0x40 SWAP1 SWAP2 ADD MSTORE SWAP4 SWAP3 POP POP POP JUMP JUMPDEST PUSH1 0x0 DUP1 MLOAD PUSH1 0x20 PUSH2 0x1307 DUP4 CODECOPY DUP2 MLOAD SWAP2 MSTORE PUSH2 0xBA0 DUP2 CALLER PUSH2 0xA34 JUMP JUMPDEST PUSH2 0xBBC JUMPI PUSH1 0x40 MLOAD PUSH3 0x461BCD PUSH1 0xE5 SHL DUP2 MSTORE PUSH1 0x4 ADD PUSH2 0x467 SWAP1 PUSH2 0x10CA JUMP JUMPDEST PUSH2 0x49A PUSH1 0x0 DUP1 MLOAD PUSH1 0x20 PUSH2 0x12C7 DUP4 CODECOPY DUP2 MLOAD SWAP2 MSTORE DUP4 PUSH2 0xE21 JUMP JUMPDEST PUSH1 0x0 DUP1 MLOAD PUSH1 0x20 PUSH2 0x1307 DUP4 CODECOPY DUP2 MLOAD SWAP2 MSTORE PUSH2 0xBED DUP2 CALLER PUSH2 0xA34 JUMP JUMPDEST PUSH2 0xC09 JUMPI PUSH1 0x40 MLOAD PUSH3 0x461BCD PUSH1 0xE5 SHL DUP2 MSTORE PUSH1 0x4 ADD PUSH2 0x467 SWAP1 PUSH2 0x10CA JUMP JUMPDEST PUSH1 0x0 DUP4 GT PUSH2 0xC4E JUMPI PUSH1 0x40 MLOAD PUSH3 0x461BCD PUSH1 0xE5 SHL DUP2 MSTORE PUSH1 0x20 PUSH1 0x4 DUP3 ADD MSTORE PUSH1 0x12 PUSH1 0x24 DUP3 ADD MSTORE PUSH18 0x125B9D985B1A59081CDD1D59195B9D081251 PUSH1 0x72 SHL PUSH1 0x44 DUP3 ADD MSTORE PUSH1 0x64 ADD PUSH2 0x467 JUMP JUMPDEST PUSH1 0x1 PUSH1 0x1 PUSH1 0xA0 SHL SUB DUP3 AND PUSH2 0xC96 JUMPI PUSH1 0x40 MLOAD PUSH3 0x461BCD PUSH1 0xE5 SHL DUP2 MSTORE PUSH1 0x20 PUSH1 0x4 DUP3 ADD MSTORE PUSH1 0xF PUSH1 0x24 DUP3 ADD MSTORE PUSH15 0x496E76616C69642061646472657373 PUSH1 0x88 SHL PUSH1 0x44 DUP3 ADD MSTORE PUSH1 0x64 ADD PUSH2 0x467 JUMP JUMPDEST PUSH1 0x0 DUP4 DUP2 MSTORE PUSH1 0x2 PUSH1 0x20 MSTORE PUSH1 0x40 SWAP1 KECCAK256 SLOAD PUSH1 0x1 PUSH1 0x1 PUSH1 0xA0 SHL SUB AND ISZERO PUSH2 0xCFB JUMPI PUSH1 0x40 MLOAD PUSH3 0x461BCD PUSH1 0xE5 SHL DUP2 MSTORE PUSH1 0x20 PUSH1 0x4 DUP3 ADD MSTORE PUSH1 0x1B PUSH1 0x24 DUP3 ADD MSTORE PUSH32 0x53747564656E74206164647265737320616C7265616479207365740000000000 PUSH1 0x44 DUP3 ADD MSTORE PUSH1 0x64 ADD PUSH2 0x467 JUMP JUMPDEST PUSH1 0x1 PUSH1 0x1 PUSH1 0xA0 SHL SUB DUP3 AND PUSH1 0x0 SWAP1 DUP2 MSTORE PUSH1 0x3 PUSH1 0x20 MSTORE PUSH1 0x40 SWAP1 KECCAK256 SLOAD ISZERO PUSH2 0xD31 JUMPI PUSH1 0x40 MLOAD PUSH3 0x461BCD PUSH1 0xE5 SHL DUP2 MSTORE PUSH1 0x4 ADD PUSH2 0x467 SWAP1 PUSH2 0x127D JUMP JUMPDEST PUSH1 0x0 DUP4 DUP2 MSTORE PUSH1 0x2 PUSH1 0x20 SWAP1 DUP2 MSTORE PUSH1 0x40 DUP1 DUP4 KECCAK256 DUP1 SLOAD PUSH1 0x1 PUSH1 0x1 PUSH1 0xA0 SHL SUB NOT AND PUSH1 0x1 PUSH1 0x1 PUSH1 0xA0 SHL SUB DUP8 AND SWAP1 DUP2 OR SWAP1 SWAP2 SSTORE DUP1 DUP5 MSTORE PUSH1 0x3 DUP4 MSTORE SWAP3 DUP2 SWAP1 KECCAK256 DUP7 SWAP1 SSTORE MLOAD CALLER DUP2 MSTORE DUP6 SWAP2 PUSH32 0xD9CC4835D96FC4B2AFB6DB1577A9677A621088CDEE0C53DA65076951D88BE32F SWAP2 ADD PUSH1 0x40 MLOAD DUP1 SWAP2 SUB SWAP1 LOG3 POP POP POP JUMP JUMPDEST PUSH1 0x0 PUSH2 0xDAE DUP2 CALLER PUSH2 0xA34 JUMP JUMPDEST PUSH2 0xDCA JUMPI PUSH1 0x40 MLOAD PUSH3 0x461BCD PUSH1 0xE5 SHL DUP2 MSTORE PUSH1 0x4 ADD PUSH2 0x467 SWAP1 PUSH2 0x10CA JUMP JUMPDEST PUSH2 0x6C4 DUP4 DUP4 PUSH2 0xE88 JUMP JUMPDEST PUSH1 0x0 DUP1 MLOAD PUSH1 0x20 PUSH2 0x1307 DUP4 CODECOPY DUP2 MLOAD SWAP2 MSTORE PUSH2 0xDED DUP2 CALLER PUSH2 0xA34 JUMP JUMPDEST PUSH2 0xE09 JUMPI PUSH1 0x40 MLOAD PUSH3 0x461BCD PUSH1 0xE5 SHL DUP2 MSTORE PUSH1 0x4 ADD PUSH2 0x467 SWAP1 PUSH2 0x10CA JUMP JUMPDEST PUSH2 0x49A PUSH1 0x0 DUP1 MLOAD PUSH1 0x20 PUSH2 0x12E7 DUP4 CODECOPY DUP2 MLOAD SWAP2 MSTORE DUP4 PUSH2 0xE88 JUMP JUMPDEST PUSH2 0xE2B DUP3 DUP3 PUSH2 0xA34 JUMP JUMPDEST PUSH2 0x49A JUMPI PUSH1 0x0 DUP3 DUP2 MSTORE PUSH1 0x20 DUP2 DUP2 MSTORE PUSH1 0x40 DUP1 DUP4 KECCAK256 PUSH1 0x1 PUSH1 0x1 PUSH1 0xA0 SHL SUB DUP6 AND DUP1 DUP6 MSTORE SWAP3 MSTORE DUP1 DUP4 KECCAK256 DUP1 SLOAD PUSH1 0xFF NOT AND PUSH1 0x1 OR SWAP1 SSTORE MLOAD CALLER SWAP3 DUP6 SWAP2 PUSH32 0x2F8788117E7EFF1D82E926EC794901D17C78024A50270940304540A733656F0D SWAP2 SWAP1 LOG4 POP POP JUMP JUMPDEST PUSH2 0xE92 DUP3 DUP3 PUSH2 0xA34 JUMP JUMPDEST ISZERO PUSH2 0x49A JUMPI PUSH1 0x0 DUP3 DUP2 MSTORE PUSH1 0x20 DUP2 DUP2 MSTORE PUSH1 0x40 DUP1 DUP4 KECCAK256 PUSH1 0x1 PUSH1 0x1 PUSH1 0xA0 SHL SUB DUP6 AND DUP1 DUP6 MSTORE SWAP3 MSTORE DUP1 DUP4 KECCAK256 DUP1 SLOAD PUSH1 0xFF NOT AND SWAP1 SSTORE MLOAD CALLER SWAP3 DUP6 SWAP2 PUSH32 0xF6391F5C32D9C69D2A47EA670B442974B53935D1EDC7FD64EB21E047A839171B SWAP2 SWAP1 LOG4 POP POP JUMP JUMPDEST DUP1 CALLDATALOAD PUSH1 0x1 PUSH1 0x1 PUSH1 0xA0 SHL SUB DUP2 AND DUP2 EQ PUSH2 0xF04 JUMPI PUSH1 0x0 DUP1 REVERT JUMPDEST SWAP2 SWAP1 POP JUMP JUMPDEST PUSH1 0x0 PUSH1 0x20 DUP3 DUP5 SUB SLT ISZERO PUSH2 0xF1B JUMPI PUSH1 0x0 DUP1 REVERT JUMPDEST PUSH2 0xF24 DUP3 PUSH2 0xEED JUMP JUMPDEST SWAP4 SWAP3 POP POP POP JUMP JUMPDEST PUSH1 0x0 DUP1 PUSH1 0x0 DUP1 PUSH1 0x60 DUP6 DUP8 SUB SLT ISZERO PUSH2 0xF41 JUMPI PUSH1 0x0 DUP1 REVERT JUMPDEST DUP5 CALLDATALOAD SWAP4 POP PUSH1 0x20 DUP6 ADD CALLDATALOAD SWAP3 POP PUSH1 0x40 DUP6 ADD CALLDATALOAD PUSH8 0xFFFFFFFFFFFFFFFF DUP2 GT ISZERO PUSH2 0xF66 JUMPI PUSH1 0x0 DUP1 REVERT JUMPDEST DUP6 ADD PUSH1 0x1F DUP2 ADD DUP8 SGT PUSH2 0xF77 JUMPI PUSH1 0x0 DUP1 REVERT JUMPDEST DUP1 CALLDATALOAD PUSH8 0xFFFFFFFFFFFFFFFF DUP2 GT ISZERO PUSH2 0xF8E JUMPI PUSH1 0x0 DUP1 REVERT JUMPDEST DUP8 PUSH1 0x20 DUP3 DUP5 ADD ADD GT ISZERO PUSH2 0xFA0 JUMPI PUSH1 0x0 DUP1 REVERT JUMPDEST SWAP5 SWAP8 SWAP4 SWAP7 POP PUSH1 0x20 ADD SWAP5 POP POP POP JUMP JUMPDEST PUSH1 0x0 DUP1 PUSH1 0x40 DUP4 DUP6 SUB SLT ISZERO PUSH2 0xFC1 JUMPI PUSH1 0x0 DUP1 REVERT JUMPDEST POP POP DUP1 CALLDATALOAD SWAP3 PUSH1 0x20 SWAP1 SWAP2 ADD CALLDATALOAD SWAP2 POP JUMP JUMPDEST PUSH1 0x0 DUP1 PUSH1 0x40 DUP4 DUP6 SUB SLT ISZERO PUSH2 0xFE3 JUMPI PUSH1 0x0 DUP1 REVERT JUMPDEST DUP3 CALLDATALOAD SWAP2 POP PUSH2 0xFF3 PUSH1 0x20 DUP5 ADD PUSH2 0xEED JUMP JUMPDEST SWAP1 POP SWAP3 POP SWAP3 SWAP1 POP JUMP JUMPDEST PUSH1 0x0 DUP1 PUSH1 0x0 PUSH1 0x60 DUP5 DUP7 SUB SLT ISZERO PUSH2 0x1011 JUMPI PUSH1 0x0 DUP1 REVERT JUMPDEST POP POP DUP2 CALLDATALOAD SWAP4 PUSH1 0x20 DUP4 ADD CALLDATALOAD SWAP4 POP PUSH1 0x40 SWAP1 SWAP3 ADD CALLDATALOAD SWAP2 SWAP1 POP JUMP JUMPDEST PUSH1 0x20 DUP2 MSTORE DUP2 MLOAD PUSH1 0x20 DUP3 ADD MSTORE PUSH1 0x20 DUP3 ADD MLOAD PUSH1 0x40 DUP3 ADD MSTORE PUSH1 0x0 PUSH1 0x40 DUP4 ADD MLOAD PUSH1 0xA0 PUSH1 0x60 DUP5 ADD MSTORE DUP1 MLOAD DUP1 PUSH1 0xC0 DUP6 ADD MSTORE PUSH1 0x0 JUMPDEST DUP2 DUP2 LT ISZERO PUSH2 0x1073 JUMPI PUSH1 0x20 DUP2 DUP5 ADD DUP2 ADD MLOAD PUSH1 0xE0 DUP8 DUP5 ADD ADD MSTORE ADD PUSH2 0x1056 JUMP JUMPDEST POP PUSH1 0x0 PUSH1 0xE0 DUP3 DUP7 ADD ADD MSTORE PUSH1 0x60 DUP6 ADD MLOAD PUSH1 0x80 DUP6 ADD MSTORE PUSH1 0x80 DUP6 ADD MLOAD SWAP2 POP PUSH2 0x109C PUSH1 0xA0 DUP6 ADD DUP4 ISZERO ISZERO SWAP1 MSTORE JUMP JUMPDEST PUSH1 0x1F ADD PUSH1 0x1F NOT AND SWAP3 SWAP1 SWAP3 ADD PUSH1 0xE0 ADD SWAP4 SWAP3 POP POP POP JUMP JUMPDEST PUSH1 0x0 PUSH1 0x20 DUP3 DUP5 SUB SLT ISZERO PUSH2 0x10C3 JUMPI PUSH1 0x0 DUP1 REVERT JUMPDEST POP CALLDATALOAD SWAP2 SWAP1 POP JUMP JUMPDEST PUSH1 0x20 DUP1 DUP3 MSTORE PUSH1 0xD SWAP1 DUP3 ADD MSTORE PUSH13 0x1058D8D95CDCC819195B9A5959 PUSH1 0x9A SHL PUSH1 0x40 DUP3 ADD MSTORE PUSH1 0x60 ADD SWAP1 JUMP JUMPDEST PUSH4 0x4E487B71 PUSH1 0xE0 SHL PUSH1 0x0 MSTORE PUSH1 0x41 PUSH1 0x4 MSTORE PUSH1 0x24 PUSH1 0x0 REVERT JUMPDEST PUSH1 0x1 DUP2 DUP2 SHR SWAP1 DUP3 AND DUP1 PUSH2 0x111B JUMPI PUSH1 0x7F DUP3 AND SWAP2 POP JUMPDEST PUSH1 0x20 DUP3 LT DUP2 SUB PUSH2 0x113B JUMPI PUSH4 0x4E487B71 PUSH1 0xE0 SHL PUSH1 0x0 MSTORE PUSH1 0x22 PUSH1 0x4 MSTORE PUSH1 0x24 PUSH1 0x0 REVERT JUMPDEST POP SWAP2 SWAP1 POP JUMP JUMPDEST PUSH1 0x1F DUP3 GT ISZERO PUSH2 0x6C4 JUMPI DUP1 PUSH1 0x0 MSTORE PUSH1 0x20 PUSH1 0x0 KECCAK256 PUSH1 0x1F DUP5 ADD PUSH1 0x5 SHR DUP2 ADD PUSH1 0x20 DUP6 LT ISZERO PUSH2 0x1168 JUMPI POP DUP1 JUMPDEST PUSH1 0x1F DUP5 ADD PUSH1 0x5 SHR DUP3 ADD SWAP2 POP JUMPDEST DUP2 DUP2 LT ISZERO PUSH2 0x1188 JUMPI PUSH1 0x0 DUP2 SSTORE PUSH1 0x1 ADD PUSH2 0x1174 JUMP JUMPDEST POP POP POP POP POP JUMP JUMPDEST DUP2 MLOAD PUSH8 0xFFFFFFFFFFFFFFFF DUP2 GT ISZERO PUSH2 0x11A9 JUMPI PUSH2 0x11A9 PUSH2 0x10F1 JUMP JUMPDEST PUSH2 0x11BD DUP2 PUSH2 0x11B7 DUP5 SLOAD PUSH2 0x1107 JUMP JUMPDEST DUP5 PUSH2 0x1141 JUMP JUMPDEST PUSH1 0x20 PUSH1 0x1F DUP3 GT PUSH1 0x1 DUP2 EQ PUSH2 0x11F1 JUMPI PUSH1 0x0 DUP4 ISZERO PUSH2 0x11D9 JUMPI POP DUP5 DUP3 ADD MLOAD JUMPDEST PUSH1 0x0 NOT PUSH1 0x3 DUP6 SWAP1 SHL SHR NOT AND PUSH1 0x1 DUP5 SWAP1 SHL OR DUP5 SSTORE PUSH2 0x1188 JUMP JUMPDEST PUSH1 0x0 DUP5 DUP2 MSTORE PUSH1 0x20 DUP2 KECCAK256 PUSH1 0x1F NOT DUP6 AND SWAP2 JUMPDEST DUP3 DUP2 LT ISZERO PUSH2 0x1221 JUMPI DUP8 DUP6 ADD MLOAD DUP3 SSTORE PUSH1 0x20 SWAP5 DUP6 ADD SWAP5 PUSH1 0x1 SWAP1 SWAP3 ADD SWAP2 ADD PUSH2 0x1201 JUMP JUMPDEST POP DUP5 DUP3 LT ISZERO PUSH2 0x123F JUMPI DUP7 DUP5 ADD MLOAD PUSH1 0x0 NOT PUSH1 0x3 DUP8 SWAP1 SHL PUSH1 0xF8 AND SHR NOT AND DUP2 SSTORE JUMPDEST POP POP POP POP PUSH1 0x1 SWAP1 DUP2 SHL ADD SWAP1 SSTORE POP JUMP JUMPDEST PUSH1 0x20 DUP2 MSTORE DUP2 PUSH1 0x20 DUP3 ADD MSTORE DUP2 DUP4 PUSH1 0x40 DUP4 ADD CALLDATACOPY PUSH1 0x0 DUP2 DUP4 ADD PUSH1 0x40 SWAP1 DUP2 ADD SWAP2 SWAP1 SWAP2 MSTORE PUSH1 0x1F SWAP1 SWAP3 ADD PUSH1 0x1F NOT AND ADD ADD SWAP2 SWAP1 POP JUMP JUMPDEST PUSH1 0x20 DUP1 DUP3 MSTORE PUSH1 0x29 SWAP1 DUP3 ADD MSTORE PUSH32 0x4164647265737320616C7265616479206C696E6B656420746F20616E6F746865 PUSH1 0x40 DUP3 ADD MSTORE PUSH9 0x1C881CDD1D59195B9D PUSH1 0xBA SHL PUSH1 0x60 DUP3 ADD MSTORE PUSH1 0x80 ADD SWAP1 JUMP INVALID CALLDATASIZE 0xA5 0xC4 0xAA 0xAC 0xB6 0xB3 DUP9 0xBB 0xD4 BASEFEE 0xBF GT MULMOD PUSH12 0x7DAFC5652BCC9046084FD0E9 JUMPDEST 0x1F 0xB0 0xB2 0xCC 0xD8 0xF DUPN 0xBC 0xE CALLER 0xAB DIFFICULTY OR 0xBD TIMESTAMP PUSH0 0x29 PUSH31 0x26E0456472DF56B1EAAEE7ACD2CBC2C696FA49807205CE4D355092EF5A8A1 DUP16 JUMP 0xE8 SWAP2 EXTCODECOPY DELEGATECALL LOG2 ADD EXTSTATICCALL 0xE2 DUP8 DUP3 JUMPDEST MULMOD JUMP SWAP4 0xC2 OR PUSH22 0xA26469706673582212202459F0A88AFE736BE6570656 DUP9 0x25 0xEB BASEFEE PC 0xE 0xDE 0xF7 0x2B SWAP3 0xBC PUSH17 0x64C7F458BA404E5364736F6C634300081E STOP CALLER "
				},
				"gasEstimates": {
					"creation": {
						"codeDepositCost": "991200",
						"executionCost": "1027",
						"totalCost": "992227"
					},
					"external": {
						"ADMIN_ROLE()": "infinite",
						"DEFAULT_ADMIN_ROLE()": "273",
						"EMPLOYER_ROLE()": "274",
						"LECTURER_ROLE()": "infinite",
						"STUDENT_ROLE()": "infinite",
						"addressToStudentId(address)": "2553",
						"getAnswer(uint256,uint256)": "infinite",
						"getScore(uint256,uint256)": "2661",
						"getStudentAddress(uint256)": "2543",
						"getStudentIdByAddress(address)": "2549",
						"grantEmployerRole(address)": "infinite",
						"grantLecturerRole(address)": "infinite",
						"grantRole(bytes32,address)": "infinite",
						"grantStudentRole(address)": "infinite",
						"hasRole(bytes32,address)": "2729",
						"hasSubmitted(uint256,uint256)": "2660",
						"revokeEmployerRole(address)": "infinite",
						"revokeLecturerRole(address)": "infinite",
						"revokeRole(bytes32,address)": "infinite",
						"revokeStudentRole(address)": "infinite",
						"setStudentAddress(uint256,address)": "infinite",
						"studentAddresses(uint256)": "2522",
						"submitAnswer(uint256,uint256,string)": "infinite",
						"updateScore(uint256,uint256,uint256)": "infinite",
						"updateStudentAddress(uint256,address)": "infinite"
					}
				},
				"methodIdentifiers": {
					"ADMIN_ROLE()": "75b238fc",
					"DEFAULT_ADMIN_ROLE()": "a217fddf",
					"EMPLOYER_ROLE()": "2426bb38",
					"LECTURER_ROLE()": "0713eb02",
					"STUDENT_ROLE()": "f7be43fb",
					"addressToStudentId(address)": "86c34415",
					"getAnswer(uint256,uint256)": "a22c1bc9",
					"getScore(uint256,uint256)": "adc6ba73",
					"getStudentAddress(uint256)": "e67651ac",
					"getStudentIdByAddress(address)": "80ab3dda",
					"grantEmployerRole(address)": "16853feb",
					"grantLecturerRole(address)": "66b2d280",
					"grantRole(bytes32,address)": "2f2ff15d",
					"grantStudentRole(address)": "c94d10ad",
					"hasRole(bytes32,address)": "91d14854",
					"hasSubmitted(uint256,uint256)": "2543b3a7",
					"revokeEmployerRole(address)": "2ea0d829",
					"revokeLecturerRole(address)": "fc9b39e6",
					"revokeRole(bytes32,address)": "d547741f",
					"revokeStudentRole(address)": "32b3c846",
					"setStudentAddress(uint256,address)": "d27fc520",
					"studentAddresses(uint256)": "b5ab682d",
					"submitAnswer(uint256,uint256,string)": "1bc7980c",
					"updateScore(uint256,uint256,uint256)": "3f0a92fb",
					"updateStudentAddress(uint256,address)": "6a0d2892"
				}
			},
			"storageLayout": {
				"storage": [
					{
						"astId": 7,
						"contract": "DZStudentAnswer.sol:StudentAnswer",
						"label": "_roles",
						"offset": 0,
						"slot": "0",
						"type": "t_mapping(t_bytes32,t_mapping(t_address,t_bool))"
					},
					{
						"astId": 11,
						"contract": "DZStudentAnswer.sol:StudentAnswer",
						"label": "_roleAdmins",
						"offset": 0,
						"slot": "1",
						"type": "t_mapping(t_bytes32,t_bytes32)"
					},
					{
						"astId": 38,
						"contract": "DZStudentAnswer.sol:StudentAnswer",
						"label": "studentAddresses",
						"offset": 0,
						"slot": "2",
						"type": "t_mapping(t_uint256,t_address)"
					},
					{
						"astId": 42,
						"contract": "DZStudentAnswer.sol:StudentAnswer",
						"label": "addressToStudentId",
						"offset": 0,
						"slot": "3",
						"type": "t_mapping(t_address,t_uint256)"
					},
					{
						"astId": 523,
						"contract": "DZStudentAnswer.sol:StudentAnswer",
						"label": "_answers",
						"offset": 0,
						"slot": "4",
						"type": "t_mapping(t_uint256,t_mapping(t_uint256,t_struct(Answer)516_storage))"
					}
				],
				"types": {
					"t_address": {
						"encoding": "inplace",
						"label": "address",
						"numberOfBytes": "20"
					},
					"t_bool": {
						"encoding": "inplace",
						"label": "bool",
						"numberOfBytes": "1"
					},
					"t_bytes32": {
						"encoding": "inplace",
						"label": "bytes32",
						"numberOfBytes": "32"
					},
					"t_mapping(t_address,t_bool)": {
						"encoding": "mapping",
						"key": "t_address",
						"label": "mapping(address => bool)",
						"numberOfBytes": "32",
						"value": "t_bool"
					},
					"t_mapping(t_address,t_uint256)": {
						"encoding": "mapping",
						"key": "t_address",
						"label": "mapping(address => uint256)",
						"numberOfBytes": "32",
						"value": "t_uint256"
					},
					"t_mapping(t_bytes32,t_bytes32)": {
						"encoding": "mapping",
						"key": "t_bytes32",
						"label": "mapping(bytes32 => bytes32)",
						"numberOfBytes": "32",
						"value": "t_bytes32"
					},
					"t_mapping(t_bytes32,t_mapping(t_address,t_bool))": {
						"encoding": "mapping",
						"key": "t_bytes32",
						"label": "mapping(bytes32 => mapping(address => bool))",
						"numberOfBytes": "32",
						"value": "t_mapping(t_address,t_bool)"
					},
					"t_mapping(t_uint256,t_address)": {
						"encoding": "mapping",
						"key": "t_uint256",
						"label": "mapping(uint256 => address)",
						"numberOfBytes": "32",
						"value": "t_address"
					},
					"t_mapping(t_uint256,t_mapping(t_uint256,t_struct(Answer)516_storage))": {
						"encoding": "mapping",
						"key": "t_uint256",
						"label": "mapping(uint256 => mapping(uint256 => struct StudentAnswer.Answer))",
						"numberOfBytes": "32",
						"value": "t_mapping(t_uint256,t_struct(Answer)516_storage)"
					},
					"t_mapping(t_uint256,t_struct(Answer)516_storage)": {
						"encoding": "mapping",
						"key": "t_uint256",
						"label": "mapping(uint256 => struct StudentAnswer.Answer)",
						"numberOfBytes": "32",
						"value": "t_struct(Answer)516_storage"
					},
					"t_string_storage": {
						"encoding": "bytes",
						"label": "string",
						"numberOfBytes": "32"
					},
					"t_struct(Answer)516_storage": {
						"encoding": "inplace",
						"label": "struct StudentAnswer.Answer",
						"members": [
							{
								"astId": 507,
								"contract": "DZStudentAnswer.sol:StudentAnswer",
								"label": "student_id",
								"offset": 0,
								"slot": "0",
								"type": "t_uint256"
							},
							{
								"astId": 509,
								"contract": "DZStudentAnswer.sol:StudentAnswer",
								"label": "exam_id",
								"offset": 0,
								"slot": "1",
								"type": "t_uint256"
							},
							{
								"astId": 511,
								"contract": "DZStudentAnswer.sol:StudentAnswer",
								"label": "content",
								"offset": 0,
								"slot": "2",
								"type": "t_string_storage"
							},
							{
								"astId": 513,
								"contract": "DZStudentAnswer.sol:StudentAnswer",
								"label": "score",
								"offset": 0,
								"slot": "3",
								"type": "t_uint256"
							},
							{
								"astId": 515,
								"contract": "DZStudentAnswer.sol:StudentAnswer",
								"label": "submitted",
								"offset": 0,
								"slot": "4",
								"type": "t_bool"
							}
						],
						"numberOfBytes": "160"
					},
					"t_uint256": {
						"encoding": "inplace",
						"label": "uint256",
						"numberOfBytes": "32"
					}
				}
			},
			"userdoc": {
				"kind": "user",
				"methods": {
					"getAnswer(uint256,uint256)": {
						"notice": "Truy xuất bài làm"
					},
					"getScore(uint256,uint256)": {
						"notice": "Truy xuất điểm"
					},
					"hasSubmitted(uint256,uint256)": {
						"notice": "Kiểm tra đã nộp hay chưa"
					},
					"submitAnswer(uint256,uint256,string)": {
						"notice": "Sinh viên nộp bài (chỉ 1 lần cho mỗi exam_id)"
					},
					"updateScore(uint256,uint256,uint256)": {
						"notice": "Giảng viên chấm điểm"
					}
				},
				"version": 1
			}
		}
	}
}