{
	"data": {
		"bytecode": {
			"linkReferences": {},
			"object": "60c0604052601860809081527f445a426c6f636b436861696e204365727469666963617465000000000000000060a05260099061003c908261026a565b50604080518082019091526004815263445a424360e01b6020820152600a90610065908261026a565b5034801561007257600080fd5b5061007c33610081565b610328565b61008c600082610149565b6100a46000805160206150a883398151915282610149565b5060016020526000805160206150a88339815191527f595c59303185d6018b57f7a342d2cbf9f9ac9bd599c2e6f1918108e6144ec4388190557f370a7df9accbb111e01ac14b81700c489619f4774b1e81a53cb39f158ec8436a8190557ffc7c36207174f786648d2e624616a4b40e15fd7f0268b4e36af5057f0c43c8356000527f6607ae9cbcc1dbd33a501ec84e0aa7b9ead733f39dab8f64d06b6e48f9e71b3f55565b6000828152602081815260408083206001600160a01b038516845290915290205460ff166101c7576000828152602081815260408083206001600160a01b0385168085529252808320805460ff1916600117905551339285917f2f8788117e7eff1d82e926ec794901d17c78024a50270940304540a733656f0d9190a45b5050565b634e487b7160e01b600052604160045260246000fd5b600181811c908216806101f557607f821691505b60208210810361021557634e487b7160e01b600052602260045260246000fd5b50919050565b601f82111561026557806000526020600020601f840160051c810160208510156102425750805b601f840160051c820191505b81811015610262576000815560010161024e565b50505b505050565b81516001600160401b03811115610283576102836101cb565b6102978161029184546101e1565b8461021b565b6020601f8211600181146102cb57600083156102b35750848201515b600019600385901b1c1916600184901b178455610262565b600084815260208120601f198516915b828110156102fb57878501518255602094850194600190920191016102db565b50848210156103195786840151600019600387901b60f8161c191681555b50505050600190811b01905550565b614d71806103376000396000f3fe608060405234801561001057600080fd5b50600436106103af5760003560e01c806395d89b41116101f4578063c9b1e0271161011a578063edef019d116100ad578063f7be43fb1161007c578063f7be43fb14610a78578063f97563d514610a8d578063fa8d3cca14610aa0578063fc9b39e614610acb57600080fd5b8063edef019d14610a1b578063eeed250314610a2e578063f1b23d7f14610a52578063f1c4731c14610a6557600080fd5b8063d547741f116100e9578063d547741f14610911578063dd25514814610924578063de22c8d414610985578063e67651ac146109f257600080fd5b8063c9b1e027146108c5578063cd79e42f146108d8578063d27fc520146108eb578063d4f45061146108fe57600080fd5b8063adc6ba7311610192578063bd28921711610161578063bd28921714610879578063c54164d41461088c578063c87b56dd1461089f578063c94d10ad146108b257600080fd5b8063adc6ba7314610757578063b5ab682d1461082a578063b8535a1114610853578063b8d784661461086657600080fd5b8063a217fddf116101ce578063a217fddf14610705578063a26ea8901461070d578063a486ab3514610720578063aa1f80a51461074457600080fd5b806395d89b41146106d757806397bb03ba146106df57806399532f60146106f257600080fd5b80633f0a92fb116102d957806370a08231116102775780637f5af810116102465780637f5af8101461065857806380ab3dda1461066b57806386c344151461069457806391d14854146106b457600080fd5b806370a082311461060a57806375b238fc1461061d578063767cdbd8146106325780637c953e6e1461064557600080fd5b80636352211e116102b35780636352211e14610592578063663b3e22146105bd57806366b2d280146105e45780636a0d2892146105f757600080fd5b80633f0a92fb146105475780633f5762471461055a5780634198cb3f1461056d57600080fd5b80631eb2c396116103515780632f2ff15d116103205780632f2ff15d146104e157806332b3c846146104f4578063361ef2bd146105075780633bf82f321461052757600080fd5b80631eb2c396146104795780631fa63aa3146104995780632426bb38146104b95780632ea0d829146104ce57600080fd5b80630713eb021161038d5780630713eb021461041057806316853feb146104335780631692a942146104465780631d3e15ff1461046657600080fd5b8063036713be146103b457806306f5497e146103e657806306fdde03146103fb575b600080fd5b6103c76103c2366004614234565b610ade565b6040516103dd9a999897969594939291906142a6565b60405180910390f35b6103f96103f436600461431b565b610c5e565b005b610403610d40565b6040516103dd9190614334565b610425600080516020614cdc83398151915281565b6040519081526020016103dd565b6103f961044136600461436a565b610dd2565b61045961045436600461431b565b610e23565b6040516103dd9190614385565b6103f9610474366004614234565b610fd0565b61048c61048736600461431b565b6111b4565b6040516103dd9190614400565b6104ac6104a7366004614234565b6113bc565b6040516103dd91906144b2565b610425600080516020614cfc83398151915281565b6103f96104dc36600461436a565b611611565b6103f96104ef366004614567565b61165e565b6103f961050236600461436a565b611695565b61051a61051536600461431b565b6116e2565b6040516103dd9190614593565b61042561053536600461431b565b60009081526012602052604090205490565b6103f96105553660046145d6565b611744565b6103f961056836600461431b565b611904565b61058061057b36600461431b565b611a12565b6040516103dd96959493929190614602565b6105a56105a036600461431b565b611adf565b6040516001600160a01b0390911681526020016103dd565b6105d06105cb36600461431b565b611b38565b6040516103dd98979695949392919061464b565b6103f96105f236600461436a565b611c12565b6103f9610605366004614567565b611c5f565b61042561061836600461436a565b611dfc565b610425600080516020614d1c83398151915281565b6104256106403660046146a3565b611e40565b6103f96106533660046145d6565b611e71565b61051a61066636600461436a565b612071565b61042561067936600461436a565b6001600160a01b031660009081526003602052604090205490565b6104256106a236600461436a565b60036020526000908152604090205481565b6106c76106c2366004614567565b61215d565b60405190151581526020016103dd565b610403612186565b6103f96106ed366004614772565b612195565b610459610700366004614234565b612230565b610425600081565b61051a61071b36600461431b565b612432565b61073361072e3660046147b9565b6124e4565b6040516103dd9594939291906147fe565b610425610752366004614234565b61274d565b6107eb610765366004614234565b600091825260066020818152604080852093855292815292829020825160e08101845281548082526001830154958201869052600283015494820185905260038301546001600160a01b031660608301819052600484015460808401819052600585015460a08501819052949095015460ff16151560c090930183905290969093929190565b604080519788526020880196909652948601939093526001600160a01b039091166060850152608084015260a0830152151560c082015260e0016103dd565b6105a561083836600461431b565b6002602052600090815260409020546001600160a01b031681565b610425610861366004614840565b612769565b6103f961087436600461431b565b612ab3565b610459610887366004614234565b612c4a565b6103f961089a36600461431b565b612ce9565b6104036108ad36600461431b565b612df2565b6103f96108c036600461436a565b612ee7565b6103f96108d3366004614840565b612f34565b6103f96108e6366004614234565b613280565b6103f96108f9366004614567565b613402565b6104ac61090c36600461431b565b613581565b6103f961091f366004614567565b6137cd565b6107eb610932366004614234565b6006602081815260009384526040808520909152918352912080546001820154600283015460038401546004850154600586015495909601549395929491936001600160a01b0390911692919060ff1687565b6109c661099336600461431b565b60146020526000908152604090208054600182015460028301546003909301549192909160ff8082169161010090041685565b60408051958652602086019490945292840191909152151560608301521515608082015260a0016103dd565b6105a5610a0036600461431b565b6000908152600260205260409020546001600160a01b031690565b6109c6610a2936600461431b565b6137ff565b610a41610a3c366004614234565b6138a0565b6040516103dd959493929190614890565b610425610a60366004614234565b613a0a565b6103f9610a733660046148de565b613a26565b610425600080516020614cbc83398151915281565b610580610a9b36600461431b565b613dfc565b610425610aae366004614234565b600d60209081526000928352604080842090915290825290205481565b6103f9610ad936600461436a565b613f3c565b600860205281600052604060002060205280600052604060002060009150915050806000015490806001015490806002015490806003018054610b2090614936565b80601f0160208091040260200160405190810160405280929190818152602001828054610b4c90614936565b8015610b995780601f10610b6e57610100808354040283529160200191610b99565b820191906000526020600020905b815481529060010190602001808311610b7c57829003601f168201915b505050505090806004015490806005015490806006018054610bba90614936565b80601f0160208091040260200160405190810160405280929190818152602001828054610be690614936565b8015610c335780601f10610c0857610100808354040283529160200191610c33565b820191906000526020600020905b815481529060010190602001808311610c1657829003601f168201915b505050506007830154600884015460099094015492936001600160a01b039091169290915060ff168a565b600080516020614d1c833981519152610c77813361215d565b610c9c5760405162461bcd60e51b8152600401610c939061496a565b60405180910390fd5b6000828152600c6020526040902060060154600160a01b900460ff16610cf65760405162461bcd60e51b815260206004820152600f60248201526e105b1c9958591e481c995d9bdad959608a1b6044820152606401610c93565b6000828152600c6020526040808220600601805460ff60a01b1916905551339184917f325c62e70cfaa61cf0709d9607ea9d8451b235297c4b47c65ff6a6449c9faca49190a35050565b606060098054610d4f90614936565b80601f0160208091040260200160405190810160405280929190818152602001828054610d7b90614936565b8015610dc85780601f10610d9d57610100808354040283529160200191610dc8565b820191906000526020600020905b815481529060010190602001808311610dab57829003601f168201915b5050505050905090565b600080516020614d1c833981519152610deb813361215d565b610e075760405162461bcd60e51b8152600401610c939061496a565b610e1f600080516020614cfc83398151915283613f89565b5050565b610e2b614186565b600080516020614cfc833981519152610e44813361215d565b610e605760405162461bcd60e51b8152600401610c939061496a565b6000838152600c6020526040902060060154600160a01b900460ff16610ebe5760405162461bcd60e51b8152602060048201526013602482015272496e76616c696420636572746966696361746560681b6044820152606401610c93565b600c60008481526020019081526020016000206040518061010001604052908160008201548152602001600182015481526020016002820154815260200160038201548152602001600482018054610f1590614936565b80601f0160208091040260200160405190810160405280929190818152602001828054610f4190614936565b8015610f8e5780601f10610f6357610100808354040283529160200191610f8e565b820191906000526020600020905b815481529060010190602001808311610f7157829003601f168201915b5050509183525050600582015460208201526006909101546001600160a01b0381166040830152600160a01b900460ff16151560609091015291505b50919050565b600080516020614d1c833981519152610fe9813361215d565b6110055760405162461bcd60e51b8152600401610c939061496a565b600083116110475760405162461bcd60e51b815260206004820152600f60248201526e125b9d985b1a59081d195cdd081251608a1b6044820152606401610c93565b6000821161108c5760405162461bcd60e51b8152602060048201526012602482015271125b9d985b1a590818dc99585d1bdc88125160721b6044820152606401610c93565b600083815260146020526040902060030154610100900460ff16156110e95760405162461bcd60e51b81526020600482015260136024820152725465737420616c72656164792065786973747360681b6044820152606401610c93565b6040805160a0810182528481526020808201858152428385018181526000606086018181526001608088018181528c84526014885289842098518955955188820155925160028801555160039096018054945115156101000261ff00199715159790971661ffff1990951694909417959095179092558684526015835284842080549283018155845292829020018690559151908152839185917f7362a05daff7a219173125fc58b18f322f2e8b7e19dd728e5d5526716858db6191015b60405180910390a3505050565b60606111ce600080516020614d1c8339815191523361215d565b806111ec57506111ec600080516020614cdc8339815191523361215d565b6112085760405162461bcd60e51b8152600401610c939061496a565b600082815260126020908152604080832080548251818502810185019093528083529193909284015b828210156113b15760008481526020908190206040805160a081018252600586029092018054835260018101546001600160a01b0316938301939093526002830180549293929184019161128490614936565b80601f01602080910402602001604051908101604052809291908181526020018280546112b090614936565b80156112fd5780601f106112d2576101008083540402835291602001916112fd565b820191906000526020600020905b8154815290600101906020018083116112e057829003601f168201915b505050505081526020016003820154815260200160048201805461132090614936565b80601f016020809104026020016040519081016040528092919081815260200182805461134c90614936565b80156113995780601f1061136e57610100808354040283529160200191611399565b820191906000526020600020905b81548152906001019060200180831161137c57829003601f168201915b50505050508152505081526020019060010190611231565b505050509050919050565b6113c46141d6565b6113dc600080516020614cdc8339815191523361215d565b806113fa57506113fa600080516020614d1c8339815191523361215d565b8061143957506000838152600260205260409020546001600160a01b0316331480156114395750611439600080516020614cbc8339815191523361215d565b6114555760405162461bcd60e51b8152600401610c939061496a565b600860008481526020019081526020016000206000838152602001908152602001600020604051806101400160405290816000820154815260200160018201548152602001600282015481526020016003820180546114b390614936565b80601f01602080910402602001604051908101604052809291908181526020018280546114df90614936565b801561152c5780601f106115015761010080835404028352916020019161152c565b820191906000526020600020905b81548152906001019060200180831161150f57829003601f168201915b50505050508152602001600482015481526020016005820154815260200160068201805461155990614936565b80601f016020809104026020016040519081016040528092919081815260200182805461158590614936565b80156115d25780601f106115a7576101008083540402835291602001916115d2565b820191906000526020600020905b8154815290600101906020018083116115b557829003601f168201915b505050918352505060078201546001600160a01b031660208201526008820154604082015260099091015460ff16151560609091015290505b92915050565b600080516020614d1c83398151915261162a813361215d565b6116465760405162461bcd60e51b8152600401610c939061496a565b610e1f600080516020614cfc83398151915283613ff0565b600061166a813361215d565b6116865760405162461bcd60e51b8152600401610c939061496a565b6116908383613f89565b505050565b600080516020614d1c8339815191526116ae813361215d565b6116ca5760405162461bcd60e51b8152600401610c939061496a565b610e1f600080516020614cbc83398151915283613ff0565b60008181526015602090815260409182902080548351818402810184019094528084526060939283018282801561173857602002820191906000526020600020905b815481526020019060010190808311611724575b50505050509050919050565b600080516020614cdc83398151915261175d813361215d565b6117795760405162461bcd60e51b8152600401610c939061496a565b60008381526004602081905260409091200154610100900460ff166117b05760405162461bcd60e51b8152600401610c9390614991565b60648211156117d15760405162461bcd60e51b8152600401610c93906149be565b600084815260066020908152604080832086845290915281205490036118305760405162461bcd60e51b815260206004820152601460248201527314d8dbdc9948191bd95cc81b9bdd08195e1a5cdd60621b6044820152606401610c93565b6000848152600660208181526040808420878552909152909120015460ff16156118915760405162461bcd60e51b815260206004820152601260248201527114d8dbdc99481a5cc8199a5b985b1a5e995960721b6044820152606401610c93565b600084815260066020908152604080832086845282529182902060028101805490869055426005909201919091558251818152918201859052913391869188917fafca19e7338b80a137bdd94e7b2ec35d7d842cc5c4d91a3576d97135e9de063d91015b60405180910390a45050505050565b600080516020614d1c83398151915261191d813361215d565b6119395760405162461bcd60e51b8152600401610c939061496a565b600082815260146020526040902060030154610100900460ff1661196f5760405162461bcd60e51b8152600401610c93906149ec565b60008281526014602052604090206003015460ff16156119c85760405162461bcd60e51b815260206004820152601460248201527315195cdd08185b1c9958591e48189b1bd8dad95960621b6044820152606401610c93565b600082815260146020526040808220600301805460ff1916600117905551339184917fe63354374974d42e2a4930c5c063d6b47516e4000f1e651731247d2e7053920c9190a35050565b600460205260009081526040902080548190611a2d90614936565b80601f0160208091040260200160405190810160405280929190818152602001828054611a5990614936565b8015611aa65780601f10611a7b57610100808354040283529160200191611aa6565b820191906000526020600020905b815481529060010190602001808311611a8957829003601f168201915b50505050600183015460028401546003850154600490950154939491936001600160a01b03909116925060ff8082169161010090041686565b6000818152600e60205260408120546001600160a01b03168061160b5760405162461bcd60e51b81526020600482015260116024820152702737b732bc34b9ba32b73a103a37b5b2b760791b6044820152606401610c93565b600c60205260009081526040902080546001820154600283015460038401546004850180549495939492939192611b6e90614936565b80601f0160208091040260200160405190810160405280929190818152602001828054611b9a90614936565b8015611be75780601f10611bbc57610100808354040283529160200191611be7565b820191906000526020600020905b815481529060010190602001808311611bca57829003601f168201915b5050505060058301546006909301549192916001600160a01b0381169150600160a01b900460ff1688565b600080516020614d1c833981519152611c2b813361215d565b611c475760405162461bcd60e51b8152600401610c939061496a565b610e1f600080516020614cdc83398151915283613f89565b600080516020614d1c833981519152611c78813361215d565b611c945760405162461bcd60e51b8152600401610c939061496a565b60008311611cb45760405162461bcd60e51b8152600401610c9390614a19565b6001600160a01b038216611cda5760405162461bcd60e51b8152600401610c9390614a45565b6000838152600260205260409020546001600160a01b0316611d3e5760405162461bcd60e51b815260206004820152601760248201527f53747564656e742061646472657373206e6f74207365740000000000000000006044820152606401610c93565b6001600160a01b03821660009081526003602052604090205415611d745760405162461bcd60e51b8152600401610c9390614a6e565b600083815260026020908152604080832080546001600160a01b039081168086526003855283862086905582546001600160a01b031916918816918217909255808552938290208790559051338152909291839187917f59e33f3654f744a7a32cda9a919fa879941875bb700d1c776ade2f64e23b464991015b60405180910390a450505050565b60006001600160a01b038216611e245760405162461bcd60e51b8152600401610c9390614a45565b506001600160a01b03166000908152600f602052604090205490565b60056020528160005260406000208181548110611e5c57600080fd5b90600052602060002001600091509150505481565b600080516020614cdc833981519152611e8a813361215d565b611ea65760405162461bcd60e51b8152600401610c939061496a565b60008381526004602081905260409091200154610100900460ff16611edd5760405162461bcd60e51b8152600401610c9390614991565b6064821115611efe5760405162461bcd60e51b8152600401610c93906149be565b60008411611f1e5760405162461bcd60e51b8152600401610c9390614a19565b600084815260066020908152604080832086845290915290205415611f7c5760405162461bcd60e51b815260206004820152601460248201527353636f726520616c72656164792065786973747360601b6044820152606401610c93565b6040805160e08101825285815260208082018681528284018681523360608501818152426080870181815260a08801918252600060c089018181528e82526006808a528b83208f84528a528b83209a518b5597516001808c0191909155965160028b0155935160038a0180546001600160a01b0319166001600160a01b039092169190911790559051600489015590516005880155905195909301805460ff19169515159590951790945560078352848220805491820181558252908290200187905591518481529091859187917efe563478d2112c66117b5a44add5a901b10f4b748d444a9308e738c3d3e2ca9101611dee565b606061208b600080516020614cdc8339815191528361215d565b806120a957506120a9600080516020614d1c8339815191528361215d565b6120f55760405162461bcd60e51b815260206004820152601960248201527f41646472657373206973206e6f742061206c65637475726572000000000000006044820152606401610c93565b6001600160a01b0382166000908152600560209081526040918290208054835181840281018401909452808452909183018282801561173857602002820191906000526020600020908154815260200190600101908083116117245750505050509050919050565b6000918252602082815260408084206001600160a01b0393909316845291905290205460ff1690565b6060600a8054610d4f90614936565b600080516020614cbc8339815191526121ae813361215d565b6121ca5760405162461bcd60e51b8152600401610c939061496a565b336000908152600360205260409020548061221f5760405162461bcd60e51b815260206004820152601560248201527414dd1d59195b9d081251081b9bdd081b1a5b9ad959605a1b6044820152606401610c93565b61222a818585612f34565b50505050565b612238614186565b600080516020614cbc833981519152612251813361215d565b61226d5760405162461bcd60e51b8152600401610c939061496a565b6000848152600260205260409020546001600160a01b031633146122ca5760405162461bcd60e51b81526020600482015260146024820152734e6f7420796f757220636572746966696361746560601b6044820152606401610c93565b6000848152600d60209081526040808320868452909152812054908190036123205760405162461bcd60e51b8152602060048201526009602482015268139bdd08199bdd5b9960ba1b6044820152606401610c93565b600c6000828152602001908152602001600020604051806101000160405290816000820154815260200160018201548152602001600282015481526020016003820154815260200160048201805461237790614936565b80601f01602080910402602001604051908101604052809291908181526020018280546123a390614936565b80156123f05780601f106123c5576101008083540402835291602001916123f0565b820191906000526020600020905b8154815290600101906020018083116123d357829003601f168201915b5050509183525050600582015460208201526006909101546001600160a01b0381166040830152600160a01b900460ff16151560609091015295945050505050565b606061244c600080516020614d1c8339815191523361215d565b8061246a575061246a600080516020614cdc8339815191523361215d565b6124865760405162461bcd60e51b8152600401610c939061496a565b6000828152600760209081526040918290208054835181840281018401909452808452909183018282801561173857602002820191906000526020600020908154815260200190600101908083116117245750505050509050919050565b6060600080600080600080516020614d1c833981519152612505813361215d565b6125215760405162461bcd60e51b8152600401610c939061496a565b600087116125635760405162461bcd60e51b815260206004820152600f60248201526e125b9d985b1a5908195e185b481251608a1b6044820152606401610c93565b60008851116125ab5760405162461bcd60e51b8152602060048201526014602482015273486173682063616e6e6f7420626520656d70747960601b6044820152606401610c93565b60008781526004602081905260409091200154610100900460ff16156126095760405162461bcd60e51b81526020600482015260136024820152724578616d20616c72656164792065786973747360681b6044820152606401610c93565b6040805160c08101825289815260208082018a90523382840152426060830152600060808301819052600160a08401528a8152600490915291909120815181906126539082614b05565b506020828101516001808401919091556040808501516002850180546001600160a01b039092166001600160a01b03199092169190911790556060850151600385015560808501516004909401805460a09096015115156101000261ff00199515159590951661ffff19909616959095179390931790935533600090815260058252918220805480850182559083529120018890556126f29043614bda565b40336001600160a01b0316887f8b168dde777687beda31f8ad281fa67ebd897c29df397f83889b3a08b9b53a7e8b424360405161273193929190614bed565b60405180910390a4509596949550339442945060019350915050565b60076020528160005260406000208181548110611e5c57600080fd5b6000600080516020614cdc833981519152612784813361215d565b6127a05760405162461bcd60e51b8152600401610c939061496a565b60008481526004602081905260409091200154610100900460ff166127d75760405162461bcd60e51b8152600401610c9390614991565b6000858152600660208181526040808420888552909152909120015460ff166128385760405162461bcd60e51b815260206004820152601360248201527214d8dbdc99481b9bdd08199a5b985b1a5e9959606a1b6044820152606401610c93565b6000858152600d602090815260408083208784529091529020541561289f5760405162461bcd60e51b815260206004820152601a60248201527f436572746966696361746520616c7265616479206578697374730000000000006044820152606401610c93565b6000858152600260205260409020546001600160a01b03166129035760405162461bcd60e51b815260206004820152601760248201527f53747564656e742061646472657373206d697373696e670000000000000000006044820152606401610c93565b60008351116129405760405162461bcd60e51b815260206004820152600960248201526855524920656d70747960b81b6044820152606401610c93565b600b805490600061295083614c12565b9091555050600b546000868152600260205260409020546001600160a01b031661297a8183614055565b604080516101008101825283815260208082018a81528284018a815260008c8152600684528581208c8252845285812060029081015460608701908152608087018d81524260a08901523360c0890152600160e089018190528b8552600c90975297909220865181559351948401949094559051928201929092559051600382015591519091906004820190612a109082614b05565b5060a0820151600582015560c08201516006909101805460e0909301511515600160a01b026001600160a81b03199093166001600160a01b03909216919091179190911790556000878152600d6020908152604080832089845282529182902084905590513381528791899185917f8ac7002efa82d166d2ee18d556aa13a196bcc010f8c9622dd8c08d769ba03f04910160405180910390a45095945050505050565b612acb600080516020614cdc8339815191523361215d565b80612ae95750612ae9600080516020614d1c8339815191523361215d565b612b355760405162461bcd60e51b815260206004820181905260248201527f43616c6c6572206d7573742062652061646d696e206f72206c656374757265726044820152606401610c93565b60008181526004602081905260409091200154610100900460ff16612b6c5760405162461bcd60e51b8152600401610c9390614991565b6000818152600460205260409020600201546001600160a01b0316331480612ba75750612ba7600080516020614d1c8339815191523361215d565b612bff5760405162461bcd60e51b815260206004820152602360248201527f4f6e6c79206578616d2063726561746f72206f722061646d696e2063616e206c6044820152626f636b60e81b6064820152608401610c93565b6000818152600460208190526040808320909101805460ff1916600117905551339183917f538044b65b113f681756f903257ff1744163f47a51ea8de3f4d081196d4e2d379190a350565b612c52614186565b600080516020614cfc833981519152612c6b813361215d565b612c875760405162461bcd60e51b8152600401610c939061496a565b6000848152600d60209081526040808320868452909152812054908190036123205760405162461bcd60e51b815260206004820152601560248201527410d95c9d1a599a58d85d19481b9bdd08199bdd5b99605a1b6044820152606401610c93565b600080516020614d1c833981519152612d02813361215d565b612d1e5760405162461bcd60e51b8152600401610c939061496a565b600082815260146020526040902060030154610100900460ff16612d545760405162461bcd60e51b8152600401610c93906149ec565b60008281526014602052604090206003015460ff16612dab5760405162461bcd60e51b815260206004820152601360248201527215195cdd081a5cc81b9bdd08189b1bd8dad959606a1b6044820152606401610c93565b600082815260146020526040808220600301805460ff1916905551339184917fa2196d3f06a62b0c168a42af7e270a2e40b8715051f911625060d32cdd59a2589190a35050565b6000818152600e60205260409020546060906001600160a01b0316612e505760405162461bcd60e51b8152602060048201526014602482015273151bdad95b88191bd95cc81b9bdd08195e1a5cdd60621b6044820152606401610c93565b6000828152600c602052604090206004018054612e6c90614936565b80601f0160208091040260200160405190810160405280929190818152602001828054612e9890614936565b80156117385780601f10612eba57610100808354040283529160200191611738565b820191906000526020600020905b815481529060010190602001808311612ec85750939695505050505050565b600080516020614d1c833981519152612f00813361215d565b612f1c5760405162461bcd60e51b8152600401610c939061496a565b610e1f600080516020614cbc83398151915283613f89565b600080516020614cbc833981519152612f4d813361215d565b612f695760405162461bcd60e51b8152600401610c939061496a565b6000848152600260205260409020546001600160a01b03163314612fcf5760405162461bcd60e51b815260206004820152601d60248201527f43616e206f6e6c79207265717565737420666f7220796f757273656c660000006044820152606401610c93565b60008381526004602081905260409091200154610100900460ff166130065760405162461bcd60e51b8152600401610c9390614991565b600084815260066020908152604080832086845290915281205490036130605760405162461bcd60e51b815260206004820152600f60248201526e14d8dbdc99481b9bdd08199bdd5b99608a1b6044820152606401610c93565b600084815260086020908152604080832086845290915290206009015460ff16156130c05760405162461bcd60e51b815260206004820152601060248201526f105b1c9958591e481c995d9a595dd95960821b6044820152606401610c93565b60008251116131035760405162461bcd60e51b815260206004820152600f60248201526e1499585cdbdb881c995c5d5a5c9959608a1b6044820152606401610c93565b600084815260066020908152604080832086845282528083206002908101548251610140810184528981528085018981524282860190815285518087018752600781526650454e44494e4760c81b81890152606084019081526080840185905260a0840189905260c084018b905260e08401899052610100840189905261012084018990528c8952600888528689208c8a5290975294909620815181559551600187015592519185019190915591519192909160038201906131c59082614b05565b506080820151600482015560a0820151600582015560c082015160068201906131ee9082614b05565b5060e08201516007820180546001600160a01b0319166001600160a01b039092169190911790556101008201516008820155610120909101516009909101805460ff1916911515919091179055604051849086907f39f367466b9c76eb50c2fd96892cafe4148ed40a44dac7d3da0b4141bbc31abd906132719085908890614c2b565b60405180910390a35050505050565b600080516020614cdc833981519152613299813361215d565b6132b55760405162461bcd60e51b8152600401610c939061496a565b60008281526004602081905260409091200154610100900460ff166132ec5760405162461bcd60e51b8152600401610c9390614991565b6000838152600660209081526040808320858452909152812054900361334b5760405162461bcd60e51b815260206004820152601460248201527314d8dbdc9948191bd95cc81b9bdd08195e1a5cdd60621b6044820152606401610c93565b6000838152600660208181526040808420868552909152909120015460ff16156133ab5760405162461bcd60e51b8152602060048201526011602482015270105b1c9958591e48199a5b985b1a5e9959607a1b6044820152606401610c93565b6000838152600660208181526040808420868552909152808320909101805460ff19166001179055513391849186917f36e84e8c8ae4287078a0aa64e46e7661513feb5fff8cb2511388aa21e20965ac91a4505050565b600080516020614d1c83398151915261341b813361215d565b6134375760405162461bcd60e51b8152600401610c939061496a565b600083116134575760405162461bcd60e51b8152600401610c9390614a19565b6001600160a01b03821661347d5760405162461bcd60e51b8152600401610c9390614a45565b6000838152600260205260409020546001600160a01b0316156134e25760405162461bcd60e51b815260206004820152601b60248201527f53747564656e74206164647265737320616c72656164792073657400000000006044820152606401610c93565b6001600160a01b038216600090815260036020526040902054156135185760405162461bcd60e51b8152600401610c9390614a6e565b600083815260026020908152604080832080546001600160a01b0319166001600160a01b03871690811790915580845260038352928190208690555133815285917fd9cc4835d96fc4b2afb6db1577a9677a621088cdee0c53da65076951d88be32f91016111a7565b6135896141d6565b600080516020614cbc8339815191526135a2813361215d565b6135be5760405162461bcd60e51b8152600401610c939061496a565b33600090815260036020526040902054806136125760405162461bcd60e51b815260206004820152601460248201527314dd1d59195b9d081251081b9bdd08199bdd5b9960621b6044820152606401610c93565b6008600082815260200190815260200160002060008581526020019081526020016000206040518061014001604052908160008201548152602001600182015481526020016002820154815260200160038201805461367090614936565b80601f016020809104026020016040519081016040528092919081815260200182805461369c90614936565b80156136e95780601f106136be576101008083540402835291602001916136e9565b820191906000526020600020905b8154815290600101906020018083116136cc57829003601f168201915b50505050508152602001600482015481526020016005820154815260200160068201805461371690614936565b80601f016020809104026020016040519081016040528092919081815260200182805461374290614936565b801561378f5780601f106137645761010080835404028352916020019161378f565b820191906000526020600020905b81548152906001019060200180831161377257829003601f168201915b505050918352505060078201546001600160a01b031660208201526008820154604082015260099091015460ff161515606090910152949350505050565b60006137d9813361215d565b6137f55760405162461bcd60e51b8152600401610c939061496a565b6116908383613ff0565b6000818152601460209081526040808320815160a081018352815481526001820154938101939093526002810154918301919091526003015460ff808216151560608401526101009091041615156080820181905282918291829182916138785760405162461bcd60e51b8152600401610c93906149ec565b8051602082015160408301516060840151608090940151929a91995097509195509350915050565b601260205281600052604060002081815481106138bc57600080fd5b60009182526020909120600590910201805460018201546002830180549295506001600160a01b039091169350906138f390614936565b80601f016020809104026020016040519081016040528092919081815260200182805461391f90614936565b801561396c5780601f106139415761010080835404028352916020019161396c565b820191906000526020600020905b81548152906001019060200180831161394f57829003601f168201915b50505050509080600301549080600401805461398790614936565b80601f01602080910402602001604051908101604052809291908181526020018280546139b390614936565b8015613a005780601f106139d557610100808354040283529160200191613a00565b820191906000526020600020905b8154815290600101906020018083116139e357829003601f168201915b5050505050905085565b60156020528160005260406000208181548110611e5c57600080fd5b600080516020614cdc833981519152613a3f813361215d565b613a5b5760405162461bcd60e51b8152600401610c939061496a565b60008481526004602081905260409091200154610100900460ff16613a925760405162461bcd60e51b8152600401610c9390614991565b60008581526008602090815260408083208784529091528120549003613aee5760405162461bcd60e51b815260206004820152601160248201527014995c5d595cdd081b9bdd08199bdd5b99607a1b6044820152606401610c93565b600085815260086020908152604080832087845290915290206009015460ff1615613b4f5760405162461bcd60e51b8152602060048201526011602482015270105b1c9958591e481c1c9bd8d95cdcd959607a1b6044820152606401610c93565b7fe321069d1ac41cdfb1421ffa231cd2dc5e3a334703a998a5f84566b6fbf3f7bd83604051602001613b819190614c6a565b604051602081830303815290604052805190602001201480613be857507f8675c210f65c4e8dd95d2afd30eb5d846906f1b59f9da9d5ff94ec59c6c70c7c83604051602001613bd09190614c6a565b60405160208183030381529060405280519060200120145b613c255760405162461bcd60e51b815260206004820152600e60248201526d496e76616c69642073746174757360901b6044820152606401610c93565b7fe321069d1ac41cdfb1421ffa231cd2dc5e3a334703a998a5f84566b6fbf3f7bd83604051602001613c579190614c6a565b6040516020818303038152906040528051906020012003613c93576064821115613c935760405162461bcd60e51b8152600401610c93906149be565b60008581526008602090815260408083208784529091529020600301613cb98482614b05565b506000858152600860208181526040808420888552825292839020600581018690556007810180546001600160a01b0319163317905542928101929092556009909101805460ff1916600117905590517fe321069d1ac41cdfb1421ffa231cd2dc5e3a334703a998a5f84566b6fbf3f7bd91613d3791869101614c6a565b6040516020818303038152906040528051906020012003613dbf57600085815260066020908152604080832087845282529182902060028101805490869055426005909201919091558251818152918201859052913391879189917fafca19e7338b80a137bdd94e7b2ec35d7d842cc5c4d91a3576d97135e9de063d910160405180910390a4505b336001600160a01b031684867f3e02e69c3fd077fd8b72c8fa4c53881220607be1385ee3b57a9ed1524402d63c86866040516118f5929190614c86565b6060600080600080600080600460008981526020019081526020016000206040518060c0016040529081600082018054613e3590614936565b80601f0160208091040260200160405190810160405280929190818152602001828054613e6190614936565b8015613eae5780601f10613e8357610100808354040283529160200191613eae565b820191906000526020600020905b815481529060010190602001808311613e9157829003601f168201915b5050509183525050600182015460208083019190915260028301546001600160a01b0316604080840191909152600384015460608085019190915260049094015460ff808216151560808087019190915261010090920416151560a0948501528551928601519186015194860151908601519590930151919d909c50929a5090985091965090945092505050565b600080516020614d1c833981519152613f55813361215d565b613f715760405162461bcd60e51b8152600401610c939061496a565b610e1f600080516020614cdc83398151915283613ff0565b613f93828261215d565b610e1f576000828152602081815260408083206001600160a01b0385168085529252808320805460ff1916600117905551339285917f2f8788117e7eff1d82e926ec794901d17c78024a50270940304540a733656f0d9190a45050565b613ffa828261215d565b15610e1f576000828152602081815260408083206001600160a01b0385168085529252808320805460ff1916905551339285917ff6391f5c32d9c69d2a47ea670b442974b53935d1edc7fd64eb21e047a839171b9190a45050565b6001600160a01b0382166140a25760405162461bcd60e51b81526020600482015260146024820152734d696e7420746f207a65726f206164647265737360601b6044820152606401610c93565b6000818152600e60205260409020546001600160a01b0316156140fe5760405162461bcd60e51b8152602060048201526014602482015273151bdad95b88185b1c9958591e481b5a5b9d195960621b6044820152606401610c93565b6000818152600e6020908152604080832080546001600160a01b0319166001600160a01b0387169081179091558352600f9091528120805460019290614145908490614ca8565b909155505060405181906001600160a01b038416906000907fddf252ad1be2c89b69c2b068fc378daa952ba7f163c4a11628f55a4df523b3ef908290a45050565b60405180610100016040528060008152602001600081526020016000815260200160008152602001606081526020016000815260200160006001600160a01b031681526020016000151581525090565b6040518061014001604052806000815260200160008152602001600081526020016060815260200160008152602001600081526020016060815260200160006001600160a01b03168152602001600081526020016000151581525090565b6000806040838503121561424757600080fd5b50508035926020909101359150565b60005b83811015614271578181015183820152602001614259565b50506000910152565b60008151808452614292816020860160208601614256565b601f01601f19169290920160200192915050565b8a8152896020820152886040820152610140606082015260006142cd61014083018a61427a565b8860808401528760a084015282810360c08401526142eb818861427a565b6001600160a01b039690961660e08401525050610100810192909252151561012090910152979650505050505050565b60006020828403121561432d57600080fd5b5035919050565b602081526000614347602083018461427a565b9392505050565b80356001600160a01b038116811461436557600080fd5b919050565b60006020828403121561437c57600080fd5b6143478261434e565b60208152815160208201526020820151604082015260408201516060820152606082015160808201526000608083015161010060a08401526143cb61012084018261427a565b905060a084015160c084015260018060a01b0360c08501511660e084015260e084015115156101008401528091505092915050565b6000602082016020835280845180835260408501915060408160051b86010192506020860160005b828110156144a657603f1987860301845281518051865260018060a01b036020820151166020870152604081015160a0604088015261446a60a088018261427a565b90506060820151606088015260808201519150868103608088015261448f818361427a565b965050506020938401939190910190600101614428565b50929695505050505050565b602081528151602082015260208201516040820152604082015160608201526000606083015161014060808401526144ee61016084018261427a565b9050608084015160a084015260a084015160c084015260c0840151601f198483030160e085015261451f828261427a565b91505060e084015161453d6101008501826001600160a01b03169052565b5061010084015161012084015261012084015161455f61014085018215159052565b509392505050565b6000806040838503121561457a57600080fd5b8235915061458a6020840161434e565b90509250929050565b602080825282518282018190526000918401906040840190835b818110156145cb5783518352602093840193909201916001016145ad565b509095945050505050565b6000806000606084860312156145eb57600080fd5b505081359360208301359350604090920135919050565b60c08152600061461560c083018961427a565b6020830197909752506001600160a01b03949094166040850152606084019290925215156080830152151560a090910152919050565b8881528760208201528660408201528560608201526101006080820152600061467861010083018761427a565b60a0830195909552506001600160a01b039290921660c0830152151560e09091015295945050505050565b600080604083850312156146b657600080fd5b6146bf8361434e565b946020939093013593505050565b634e487b7160e01b600052604160045260246000fd5b600082601f8301126146f457600080fd5b813567ffffffffffffffff81111561470e5761470e6146cd565b604051601f8201601f19908116603f0116810167ffffffffffffffff8111828210171561473d5761473d6146cd565b60405281815283820160200185101561475557600080fd5b816020850160208301376000918101602001919091529392505050565b6000806040838503121561478557600080fd5b82359150602083013567ffffffffffffffff8111156147a357600080fd5b6147af858286016146e3565b9150509250929050565b600080604083850312156147cc57600080fd5b823567ffffffffffffffff8111156147e357600080fd5b6147ef858286016146e3565b95602094909401359450505050565b60a08152600061481160a083018861427a565b6020830196909652506001600160a01b0393909316604084015260608301919091521515608090910152919050565b60008060006060848603121561485557600080fd5b8335925060208401359150604084013567ffffffffffffffff81111561487a57600080fd5b614886868287016146e3565b9150509250925092565b8581526001600160a01b038516602082015260a0604082018190526000906148ba9083018661427a565b84606084015282810360808401526148d2818561427a565b98975050505050505050565b600080600080608085870312156148f457600080fd5b8435935060208501359250604085013567ffffffffffffffff81111561491957600080fd5b614925878288016146e3565b949793965093946060013593505050565b600181811c9082168061494a57607f821691505b602082108103610fca57634e487b7160e01b600052602260045260246000fd5b6020808252600d908201526c1058d8d95cdcc819195b9a5959609a1b604082015260600190565b602080825260139082015272115e185b48191bd95cc81b9bdd08195e1a5cdd606a1b604082015260600190565b602080825260149082015273053636f7265206d757374206265203c3d203130360641b604082015260600190565b60208082526013908201527215195cdd08191bd95cc81b9bdd08195e1a5cdd606a1b604082015260600190565b602080825260129082015271125b9d985b1a59081cdd1d59195b9d08125160721b604082015260600190565b6020808252600f908201526e496e76616c6964206164647265737360881b604082015260600190565b60208082526029908201527f4164647265737320616c7265616479206c696e6b656420746f20616e6f7468656040820152681c881cdd1d59195b9d60ba1b606082015260800190565b601f82111561169057806000526020600020601f840160051c81016020851015614ade5750805b601f840160051c820191505b81811015614afe5760008155600101614aea565b5050505050565b815167ffffffffffffffff811115614b1f57614b1f6146cd565b614b3381614b2d8454614936565b84614ab7565b6020601f821160018114614b675760008315614b4f5750848201515b600019600385901b1c1916600184901b178455614afe565b600084815260208120601f198516915b82811015614b975787850151825560209485019460019092019101614b77565b5084821015614bb55786840151600019600387901b60f8161c191681555b50505050600190811b01905550565b634e487b7160e01b600052601160045260246000fd5b8181038181111561160b5761160b614bc4565b606081526000614c00606083018661427a565b60208301949094525060400152919050565b600060018201614c2457614c24614bc4565b5060010190565b60608152600760608201526650454e44494e4760c81b608082015282602082015260a060408201526000614c6260a083018461427a565b949350505050565b60008251614c7c818460208701614256565b9190910192915050565b604081526000614c99604083018561427a565b90508260208301529392505050565b8082018082111561160b5761160b614bc456fe36a5c4aaacb6b388bbd448bf11096b7dafc5652bcc9046084fd0e95b1fb0b2ccd80fe6bc0e33ab4417bd425f297e026e0456472df56b1eaaee7acd2cbc2c696ffc7c36207174f786648d2e624616a4b40e15fd7f0268b4e36af5057f0c43c835a49807205ce4d355092ef5a8a18f56e8913cf4a201fbe287825b095693c21775a2646970667358221220ed4a1800f2d4ea58c075a849738527de2e7fb7df032fa9bfc2e9474bcf4d3bfe64736f6c634300081e0033a49807205ce4d355092ef5a8a18f56e8913cf4a201fbe287825b095693c21775",
			"opcodes": "PUSH1 0xC0 PUSH1 0x40 MSTORE PUSH1 0x18 PUSH1 0x80 SWAP1 DUP2 MSTORE PUSH32 0x445A426C6F636B436861696E2043657274696669636174650000000000000000 PUSH1 0xA0 MSTORE PUSH1 0x9 SWAP1 PUSH2 0x3C SWAP1 DUP3 PUSH2 0x26A JUMP JUMPDEST POP PUSH1 0x40 DUP1 MLOAD DUP1 DUP3 ADD SWAP1 SWAP2 MSTORE PUSH1 0x4 DUP2 MSTORE PUSH4 0x445A4243 PUSH1 0xE0 SHL PUSH1 0x20 DUP3 ADD MSTORE PUSH1 0xA SWAP1 PUSH2 0x65 SWAP1 DUP3 PUSH2 0x26A JUMP JUMPDEST POP CALLVALUE DUP1 ISZERO PUSH2 0x72 JUMPI PUSH1 0x0 DUP1 REVERT JUMPDEST POP PUSH2 0x7C CALLER PUSH2 0x81 JUMP JUMPDEST PUSH2 0x328 JUMP JUMPDEST PUSH2 0x8C PUSH1 0x0 DUP3 PUSH2 0x149 JUMP JUMPDEST PUSH2 0xA4 PUSH1 0x0 DUP1 MLOAD PUSH1 0x20 PUSH2 0x50A8 DUP4 CODECOPY DUP2 MLOAD SWAP2 MSTORE DUP3 PUSH2 0x149 JUMP JUMPDEST POP PUSH1 0x1 PUSH1 0x20 MSTORE PUSH1 0x0 DUP1 MLOAD PUSH1 0x20 PUSH2 0x50A8 DUP4 CODECOPY DUP2 MLOAD SWAP2 MSTORE PUSH32 0x595C59303185D6018B57F7A342D2CBF9F9AC9BD599C2E6F1918108E6144EC438 DUP2 SWAP1 SSTORE PUSH32 0x370A7DF9ACCBB111E01AC14B81700C489619F4774B1E81A53CB39F158EC8436A DUP2 SWAP1 SSTORE PUSH32 0xFC7C36207174F786648D2E624616A4B40E15FD7F0268B4E36AF5057F0C43C835 PUSH1 0x0 MSTORE PUSH32 0x6607AE9CBCC1DBD33A501EC84E0AA7B9EAD733F39DAB8F64D06B6E48F9E71B3F SSTORE JUMP JUMPDEST PUSH1 0x0 DUP3 DUP2 MSTORE PUSH1 0x20 DUP2 DUP2 MSTORE PUSH1 0x40 DUP1 DUP4 KECCAK256 PUSH1 0x1 PUSH1 0x1 PUSH1 0xA0 SHL SUB DUP6 AND DUP5 MSTORE SWAP1 SWAP2 MSTORE SWAP1 KECCAK256 SLOAD PUSH1 0xFF AND PUSH2 0x1C7 JUMPI PUSH1 0x0 DUP3 DUP2 MSTORE PUSH1 0x20 DUP2 DUP2 MSTORE PUSH1 0x40 DUP1 DUP4 KECCAK256 PUSH1 0x1 PUSH1 0x1 PUSH1 0xA0 SHL SUB DUP6 AND DUP1 DUP6 MSTORE SWAP3 MSTORE DUP1 DUP4 KECCAK256 DUP1 SLOAD PUSH1 0xFF NOT AND PUSH1 0x1 OR SWAP1 SSTORE MLOAD CALLER SWAP3 DUP6 SWAP2 PUSH32 0x2F8788117E7EFF1D82E926EC794901D17C78024A50270940304540A733656F0D SWAP2 SWAP1 LOG4 JUMPDEST POP POP JUMP JUMPDEST PUSH4 0x4E487B71 PUSH1 0xE0 SHL PUSH1 0x0 MSTORE PUSH1 0x41 PUSH1 0x4 MSTORE PUSH1 0x24 PUSH1 0x0 REVERT JUMPDEST PUSH1 0x1 DUP2 DUP2 SHR SWAP1 DUP3 AND DUP1 PUSH2 0x1F5 JUMPI PUSH1 0x7F DUP3 AND SWAP2 POP JUMPDEST PUSH1 0x20 DUP3 LT DUP2 SUB PUSH2 0x215 JUMPI PUSH4 0x4E487B71 PUSH1 0xE0 SHL PUSH1 0x0 MSTORE PUSH1 0x22 PUSH1 0x4 MSTORE PUSH1 0x24 PUSH1 0x0 REVERT JUMPDEST POP SWAP2 SWAP1 POP JUMP JUMPDEST PUSH1 0x1F DUP3 GT ISZERO PUSH2 0x265 JUMPI DUP1 PUSH1 0x0 MSTORE PUSH1 0x20 PUSH1 0x0 KECCAK256 PUSH1 0x1F DUP5 ADD PUSH1 0x5 SHR DUP2 ADD PUSH1 0x20 DUP6 LT ISZERO PUSH2 0x242 JUMPI POP DUP1 JUMPDEST PUSH1 0x1F DUP5 ADD PUSH1 0x5 SHR DUP3 ADD SWAP2 POP JUMPDEST DUP2 DUP2 LT ISZERO PUSH2 0x262 JUMPI PUSH1 0x0 DUP2 SSTORE PUSH1 0x1 ADD PUSH2 0x24E JUMP JUMPDEST POP POP JUMPDEST POP POP POP JUMP JUMPDEST DUP2 MLOAD PUSH1 0x1 PUSH1 0x1 PUSH1 0x40 SHL SUB DUP2 GT ISZERO PUSH2 0x283 JUMPI PUSH2 0x283 PUSH2 0x1CB JUMP JUMPDEST PUSH2 0x297 DUP2 PUSH2 0x291 DUP5 SLOAD PUSH2 0x1E1 JUMP JUMPDEST DUP5 PUSH2 0x21B JUMP JUMPDEST PUSH1 0x20 PUSH1 0x1F DUP3 GT PUSH1 0x1 DUP2 EQ PUSH2 0x2CB JUMPI PUSH1 0x0 DUP4 ISZERO PUSH2 0x2B3 JUMPI POP DUP5 DUP3 ADD MLOAD JUMPDEST PUSH1 0x0 NOT PUSH1 0x3 DUP6 SWAP1 SHL SHR NOT AND PUSH1 0x1 DUP5 SWAP1 SHL OR DUP5 SSTORE PUSH2 0x262 JUMP JUMPDEST PUSH1 0x0 DUP5 DUP2 MSTORE PUSH1 0x20 DUP2 KECCAK256 PUSH1 0x1F NOT DUP6 AND SWAP2 JUMPDEST DUP3 DUP2 LT ISZERO PUSH2 0x2FB JUMPI DUP8 DUP6 ADD MLOAD DUP3 SSTORE PUSH1 0x20 SWAP5 DUP6 ADD SWAP5 PUSH1 0x1 SWAP1 SWAP3 ADD SWAP2 ADD PUSH2 0x2DB JUMP JUMPDEST POP DUP5 DUP3 LT ISZERO PUSH2 0x319 JUMPI DUP7 DUP5 ADD MLOAD PUSH1 0x0 NOT PUSH1 0x3 DUP8 SWAP1 SHL PUSH1 0xF8 AND SHR NOT AND DUP2 SSTORE JUMPDEST POP POP POP POP PUSH1 0x1 SWAP1 DUP2 SHL ADD SWAP1 SSTORE POP JUMP JUMPDEST PUSH2 0x4D71 DUP1 PUSH2 0x337 PUSH1 0x0 CODECOPY PUSH1 0x0 RETURN INVALID PUSH1 0x80 PUSH1 0x40 MSTORE CALLVALUE DUP1 ISZERO PUSH2 0x10 JUMPI PUSH1 0x0 DUP1 REVERT JUMPDEST POP PUSH1 0x4 CALLDATASIZE LT PUSH2 0x3AF JUMPI PUSH1 0x0 CALLDATALOAD PUSH1 0xE0 SHR DUP1 PUSH4 0x95D89B41 GT PUSH2 0x1F4 JUMPI DUP1 PUSH4 0xC9B1E027 GT PUSH2 0x11A JUMPI DUP1 PUSH4 0xEDEF019D GT PUSH2 0xAD JUMPI DUP1 PUSH4 0xF7BE43FB GT PUSH2 0x7C JUMPI DUP1 PUSH4 0xF7BE43FB EQ PUSH2 0xA78 JUMPI DUP1 PUSH4 0xF97563D5 EQ PUSH2 0xA8D JUMPI DUP1 PUSH4 0xFA8D3CCA EQ PUSH2 0xAA0 JUMPI DUP1 PUSH4 0xFC9B39E6 EQ PUSH2 0xACB JUMPI PUSH1 0x0 DUP1 REVERT JUMPDEST DUP1 PUSH4 0xEDEF019D EQ PUSH2 0xA1B JUMPI DUP1 PUSH4 0xEEED2503 EQ PUSH2 0xA2E JUMPI DUP1 PUSH4 0xF1B23D7F EQ PUSH2 0xA52 JUMPI DUP1 PUSH4 0xF1C4731C EQ PUSH2 0xA65 JUMPI PUSH1 0x0 DUP1 REVERT JUMPDEST DUP1 PUSH4 0xD547741F GT PUSH2 0xE9 JUMPI DUP1 PUSH4 0xD547741F EQ PUSH2 0x911 JUMPI DUP1 PUSH4 0xDD255148 EQ PUSH2 0x924 JUMPI DUP1 PUSH4 0xDE22C8D4 EQ PUSH2 0x985 JUMPI DUP1 PUSH4 0xE67651AC EQ PUSH2 0x9F2 JUMPI PUSH1 0x0 DUP1 REVERT JUMPDEST DUP1 PUSH4 0xC9B1E027 EQ PUSH2 0x8C5 JUMPI DUP1 PUSH4 0xCD79E42F EQ PUSH2 0x8D8 JUMPI DUP1 PUSH4 0xD27FC520 EQ PUSH2 0x8EB JUMPI DUP1 PUSH4 0xD4F45061 EQ PUSH2 0x8FE JUMPI PUSH1 0x0 DUP1 REVERT JUMPDEST DUP1 PUSH4 0xADC6BA73 GT PUSH2 0x192 JUMPI DUP1 PUSH4 0xBD289217 GT PUSH2 0x161 JUMPI DUP1 PUSH4 0xBD289217 EQ PUSH2 0x879 JUMPI DUP1 PUSH4 0xC54164D4 EQ PUSH2 0x88C JUMPI DUP1 PUSH4 0xC87B56DD EQ PUSH2 0x89F JUMPI DUP1 PUSH4 0xC94D10AD EQ PUSH2 0x8B2 JUMPI PUSH1 0x0 DUP1 REVERT JUMPDEST DUP1 PUSH4 0xADC6BA73 EQ PUSH2 0x757 JUMPI DUP1 PUSH4 0xB5AB682D EQ PUSH2 0x82A JUMPI DUP1 PUSH4 0xB8535A11 EQ PUSH2 0x853 JUMPI DUP1 PUSH4 0xB8D78466 EQ PUSH2 0x866 JUMPI PUSH1 0x0 DUP1 REVERT JUMPDEST DUP1 PUSH4 0xA217FDDF GT PUSH2 0x1CE JUMPI DUP1 PUSH4 0xA217FDDF EQ PUSH2 0x705 JUMPI DUP1 PUSH4 0xA26EA890 EQ PUSH2 0x70D JUMPI DUP1 PUSH4 0xA486AB35 EQ PUSH2 0x720 JUMPI DUP1 PUSH4 0xAA1F80A5 EQ PUSH2 0x744 JUMPI PUSH1 0x0 DUP1 REVERT JUMPDEST DUP1 PUSH4 0x95D89B41 EQ PUSH2 0x6D7 JUMPI DUP1 PUSH4 0x97BB03BA EQ PUSH2 0x6DF JUMPI DUP1 PUSH4 0x99532F60 EQ PUSH2 0x6F2 JUMPI PUSH1 0x0 DUP1 REVERT JUMPDEST DUP1 PUSH4 0x3F0A92FB GT PUSH2 0x2D9 JUMPI DUP1 PUSH4 0x70A08231 GT PUSH2 0x277 JUMPI DUP1 PUSH4 0x7F5AF810 GT PUSH2 0x246 JUMPI DUP1 PUSH4 0x7F5AF810 EQ PUSH2 0x658 JUMPI DUP1 PUSH4 0x80AB3DDA EQ PUSH2 0x66B JUMPI DUP1 PUSH4 0x86C34415 EQ PUSH2 0x694 JUMPI DUP1 PUSH4 0x91D14854 EQ PUSH2 0x6B4 JUMPI PUSH1 0x0 DUP1 REVERT JUMPDEST DUP1 PUSH4 0x70A08231 EQ PUSH2 0x60A JUMPI DUP1 PUSH4 0x75B238FC EQ PUSH2 0x61D JUMPI DUP1 PUSH4 0x767CDBD8 EQ PUSH2 0x632 JUMPI DUP1 PUSH4 0x7C953E6E EQ PUSH2 0x645 JUMPI PUSH1 0x0 DUP1 REVERT JUMPDEST DUP1 PUSH4 0x6352211E GT PUSH2 0x2B3 JUMPI DUP1 PUSH4 0x6352211E EQ PUSH2 0x592 JUMPI DUP1 PUSH4 0x663B3E22 EQ PUSH2 0x5BD JUMPI DUP1 PUSH4 0x66B2D280 EQ PUSH2 0x5E4 JUMPI DUP1 PUSH4 0x6A0D2892 EQ PUSH2 0x5F7 JUMPI PUSH1 0x0 DUP1 REVERT JUMPDEST DUP1 PUSH4 0x3F0A92FB EQ PUSH2 0x547 JUMPI DUP1 PUSH4 0x3F576247 EQ PUSH2 0x55A JUMPI DUP1 PUSH4 0x4198CB3F EQ PUSH2 0x56D JUMPI PUSH1 0x0 DUP1 REVERT JUMPDEST DUP1 PUSH4 0x1EB2C396 GT PUSH2 0x351 JUMPI DUP1 PUSH4 0x2F2FF15D GT PUSH2 0x320 JUMPI DUP1 PUSH4 0x2F2FF15D EQ PUSH2 0x4E1 JUMPI DUP1 PUSH4 0x32B3C846 EQ PUSH2 0x4F4 JUMPI DUP1 PUSH4 0x361EF2BD EQ PUSH2 0x507 JUMPI DUP1 PUSH4 0x3BF82F32 EQ PUSH2 0x527 JUMPI PUSH1 0x0 DUP1 REVERT JUMPDEST DUP1 PUSH4 0x1EB2C396 EQ PUSH2 0x479 JUMPI DUP1 PUSH4 0x1FA63AA3 EQ PUSH2 0x499 JUMPI DUP1 PUSH4 0x2426BB38 EQ PUSH2 0x4B9 JUMPI DUP1 PUSH4 0x2EA0D829 EQ PUSH2 0x4CE JUMPI PUSH1 0x0 DUP1 REVERT JUMPDEST DUP1 PUSH4 0x713EB02 GT PUSH2 0x38D JUMPI DUP1 PUSH4 0x713EB02 EQ PUSH2 0x410 JUMPI DUP1 PUSH4 0x16853FEB EQ PUSH2 0x433 JUMPI DUP1 PUSH4 0x1692A942 EQ PUSH2 0x446 JUMPI DUP1 PUSH4 0x1D3E15FF EQ PUSH2 0x466 JUMPI PUSH1 0x0 DUP1 REVERT JUMPDEST DUP1 PUSH4 0x36713BE EQ PUSH2 0x3B4 JUMPI DUP1 PUSH4 0x6F5497E EQ PUSH2 0x3E6 JUMPI DUP1 PUSH4 0x6FDDE03 EQ PUSH2 0x3FB JUMPI JUMPDEST PUSH1 0x0 DUP1 REVERT JUMPDEST PUSH2 0x3C7 PUSH2 0x3C2 CALLDATASIZE PUSH1 0x4 PUSH2 0x4234 JUMP JUMPDEST PUSH2 0xADE JUMP JUMPDEST PUSH1 0x40 MLOAD PUSH2 0x3DD SWAP11 SWAP10 SWAP9 SWAP8 SWAP7 SWAP6 SWAP5 SWAP4 SWAP3 SWAP2 SWAP1 PUSH2 0x42A6 JUMP JUMPDEST PUSH1 0x40 MLOAD DUP1 SWAP2 SUB SWAP1 RETURN JUMPDEST PUSH2 0x3F9 PUSH2 0x3F4 CALLDATASIZE PUSH1 0x4 PUSH2 0x431B JUMP JUMPDEST PUSH2 0xC5E JUMP JUMPDEST STOP JUMPDEST PUSH2 0x403 PUSH2 0xD40 JUMP JUMPDEST PUSH1 0x40 MLOAD PUSH2 0x3DD SWAP2 SWAP1 PUSH2 0x4334 JUMP JUMPDEST PUSH2 0x425 PUSH1 0x0 DUP1 MLOAD PUSH1 0x20 PUSH2 0x4CDC DUP4 CODECOPY DUP2 MLOAD SWAP2 MSTORE DUP2 JUMP JUMPDEST PUSH1 0x40 MLOAD SWAP1 DUP2 MSTORE PUSH1 0x20 ADD PUSH2 0x3DD JUMP JUMPDEST PUSH2 0x3F9 PUSH2 0x441 CALLDATASIZE PUSH1 0x4 PUSH2 0x436A JUMP JUMPDEST PUSH2 0xDD2 JUMP JUMPDEST PUSH2 0x459 PUSH2 0x454 CALLDATASIZE PUSH1 0x4 PUSH2 0x431B JUMP JUMPDEST PUSH2 0xE23 JUMP JUMPDEST PUSH1 0x40 MLOAD PUSH2 0x3DD SWAP2 SWAP1 PUSH2 0x4385 JUMP JUMPDEST PUSH2 0x3F9 PUSH2 0x474 CALLDATASIZE PUSH1 0x4 PUSH2 0x4234 JUMP JUMPDEST PUSH2 0xFD0 JUMP JUMPDEST PUSH2 0x48C PUSH2 0x487 CALLDATASIZE PUSH1 0x4 PUSH2 0x431B JUMP JUMPDEST PUSH2 0x11B4 JUMP JUMPDEST PUSH1 0x40 MLOAD PUSH2 0x3DD SWAP2 SWAP1 PUSH2 0x4400 JUMP JUMPDEST PUSH2 0x4AC PUSH2 0x4A7 CALLDATASIZE PUSH1 0x4 PUSH2 0x4234 JUMP JUMPDEST PUSH2 0x13BC JUMP JUMPDEST PUSH1 0x40 MLOAD PUSH2 0x3DD SWAP2 SWAP1 PUSH2 0x44B2 JUMP JUMPDEST PUSH2 0x425 PUSH1 0x0 DUP1 MLOAD PUSH1 0x20 PUSH2 0x4CFC DUP4 CODECOPY DUP2 MLOAD SWAP2 MSTORE DUP2 JUMP JUMPDEST PUSH2 0x3F9 PUSH2 0x4DC CALLDATASIZE PUSH1 0x4 PUSH2 0x436A JUMP JUMPDEST PUSH2 0x1611 JUMP JUMPDEST PUSH2 0x3F9 PUSH2 0x4EF CALLDATASIZE PUSH1 0x4 PUSH2 0x4567 JUMP JUMPDEST PUSH2 0x165E JUMP JUMPDEST PUSH2 0x3F9 PUSH2 0x502 CALLDATASIZE PUSH1 0x4 PUSH2 0x436A JUMP JUMPDEST PUSH2 0x1695 JUMP JUMPDEST PUSH2 0x51A PUSH2 0x515 CALLDATASIZE PUSH1 0x4 PUSH2 0x431B JUMP JUMPDEST PUSH2 0x16E2 JUMP JUMPDEST PUSH1 0x40 MLOAD PUSH2 0x3DD SWAP2 SWAP1 PUSH2 0x4593 JUMP JUMPDEST PUSH2 0x425 PUSH2 0x535 CALLDATASIZE PUSH1 0x4 PUSH2 0x431B JUMP JUMPDEST PUSH1 0x0 SWAP1 DUP2 MSTORE PUSH1 0x12 PUSH1 0x20 MSTORE PUSH1 0x40 SWAP1 KECCAK256 SLOAD SWAP1 JUMP JUMPDEST PUSH2 0x3F9 PUSH2 0x555 CALLDATASIZE PUSH1 0x4 PUSH2 0x45D6 JUMP JUMPDEST PUSH2 0x1744 JUMP JUMPDEST PUSH2 0x3F9 PUSH2 0x568 CALLDATASIZE PUSH1 0x4 PUSH2 0x431B JUMP JUMPDEST PUSH2 0x1904 JUMP JUMPDEST PUSH2 0x580 PUSH2 0x57B CALLDATASIZE PUSH1 0x4 PUSH2 0x431B JUMP JUMPDEST PUSH2 0x1A12 JUMP JUMPDEST PUSH1 0x40 MLOAD PUSH2 0x3DD SWAP7 SWAP6 SWAP5 SWAP4 SWAP3 SWAP2 SWAP1 PUSH2 0x4602 JUMP JUMPDEST PUSH2 0x5A5 PUSH2 0x5A0 CALLDATASIZE PUSH1 0x4 PUSH2 0x431B JUMP JUMPDEST PUSH2 0x1ADF JUMP JUMPDEST PUSH1 0x40 MLOAD PUSH1 0x1 PUSH1 0x1 PUSH1 0xA0 SHL SUB SWAP1 SWAP2 AND DUP2 MSTORE PUSH1 0x20 ADD PUSH2 0x3DD JUMP JUMPDEST PUSH2 0x5D0 PUSH2 0x5CB CALLDATASIZE PUSH1 0x4 PUSH2 0x431B JUMP JUMPDEST PUSH2 0x1B38 JUMP JUMPDEST PUSH1 0x40 MLOAD PUSH2 0x3DD SWAP9 SWAP8 SWAP7 SWAP6 SWAP5 SWAP4 SWAP3 SWAP2 SWAP1 PUSH2 0x464B JUMP JUMPDEST PUSH2 0x3F9 PUSH2 0x5F2 CALLDATASIZE PUSH1 0x4 PUSH2 0x436A JUMP JUMPDEST PUSH2 0x1C12 JUMP JUMPDEST PUSH2 0x3F9 PUSH2 0x605 CALLDATASIZE PUSH1 0x4 PUSH2 0x4567 JUMP JUMPDEST PUSH2 0x1C5F JUMP JUMPDEST PUSH2 0x425 PUSH2 0x618 CALLDATASIZE PUSH1 0x4 PUSH2 0x436A JUMP JUMPDEST PUSH2 0x1DFC JUMP JUMPDEST PUSH2 0x425 PUSH1 0x0 DUP1 MLOAD PUSH1 0x20 PUSH2 0x4D1C DUP4 CODECOPY DUP2 MLOAD SWAP2 MSTORE DUP2 JUMP JUMPDEST PUSH2 0x425 PUSH2 0x640 CALLDATASIZE PUSH1 0x4 PUSH2 0x46A3 JUMP JUMPDEST PUSH2 0x1E40 JUMP JUMPDEST PUSH2 0x3F9 PUSH2 0x653 CALLDATASIZE PUSH1 0x4 PUSH2 0x45D6 JUMP JUMPDEST PUSH2 0x1E71 JUMP JUMPDEST PUSH2 0x51A PUSH2 0x666 CALLDATASIZE PUSH1 0x4 PUSH2 0x436A JUMP JUMPDEST PUSH2 0x2071 JUMP JUMPDEST PUSH2 0x425 PUSH2 0x679 CALLDATASIZE PUSH1 0x4 PUSH2 0x436A JUMP JUMPDEST PUSH1 0x1 PUSH1 0x1 PUSH1 0xA0 SHL SUB AND PUSH1 0x0 SWAP1 DUP2 MSTORE PUSH1 0x3 PUSH1 0x20 MSTORE PUSH1 0x40 SWAP1 KECCAK256 SLOAD SWAP1 JUMP JUMPDEST PUSH2 0x425 PUSH2 0x6A2 CALLDATASIZE PUSH1 0x4 PUSH2 0x436A JUMP JUMPDEST PUSH1 0x3 PUSH1 0x20 MSTORE PUSH1 0x0 SWAP1 DUP2 MSTORE PUSH1 0x40 SWAP1 KECCAK256 SLOAD DUP2 JUMP JUMPDEST PUSH2 0x6C7 PUSH2 0x6C2 CALLDATASIZE PUSH1 0x4 PUSH2 0x4567 JUMP JUMPDEST PUSH2 0x215D JUMP JUMPDEST PUSH1 0x40 MLOAD SWAP1 ISZERO ISZERO DUP2 MSTORE PUSH1 0x20 ADD PUSH2 0x3DD JUMP JUMPDEST PUSH2 0x403 PUSH2 0x2186 JUMP JUMPDEST PUSH2 0x3F9 PUSH2 0x6ED CALLDATASIZE PUSH1 0x4 PUSH2 0x4772 JUMP JUMPDEST PUSH2 0x2195 JUMP JUMPDEST PUSH2 0x459 PUSH2 0x700 CALLDATASIZE PUSH1 0x4 PUSH2 0x4234 JUMP JUMPDEST PUSH2 0x2230 JUMP JUMPDEST PUSH2 0x425 PUSH1 0x0 DUP2 JUMP JUMPDEST PUSH2 0x51A PUSH2 0x71B CALLDATASIZE PUSH1 0x4 PUSH2 0x431B JUMP JUMPDEST PUSH2 0x2432 JUMP JUMPDEST PUSH2 0x733 PUSH2 0x72E CALLDATASIZE PUSH1 0x4 PUSH2 0x47B9 JUMP JUMPDEST PUSH2 0x24E4 JUMP JUMPDEST PUSH1 0x40 MLOAD PUSH2 0x3DD SWAP6 SWAP5 SWAP4 SWAP3 SWAP2 SWAP1 PUSH2 0x47FE JUMP JUMPDEST PUSH2 0x425 PUSH2 0x752 CALLDATASIZE PUSH1 0x4 PUSH2 0x4234 JUMP JUMPDEST PUSH2 0x274D JUMP JUMPDEST PUSH2 0x7EB PUSH2 0x765 CALLDATASIZE PUSH1 0x4 PUSH2 0x4234 JUMP JUMPDEST PUSH1 0x0 SWAP2 DUP3 MSTORE PUSH1 0x6 PUSH1 0x20 DUP2 DUP2 MSTORE PUSH1 0x40 DUP1 DUP6 KECCAK256 SWAP4 DUP6 MSTORE SWAP3 DUP2 MSTORE SWAP3 DUP3 SWAP1 KECCAK256 DUP3 MLOAD PUSH1 0xE0 DUP2 ADD DUP5 MSTORE DUP2 SLOAD DUP1 DUP3 MSTORE PUSH1 0x1 DUP4 ADD SLOAD SWAP6 DUP3 ADD DUP7 SWAP1 MSTORE PUSH1 0x2 DUP4 ADD SLOAD SWAP5 DUP3 ADD DUP6 SWAP1 MSTORE PUSH1 0x3 DUP4 ADD SLOAD PUSH1 0x1 PUSH1 0x1 PUSH1 0xA0 SHL SUB AND PUSH1 0x60 DUP4 ADD DUP2 SWAP1 MSTORE PUSH1 0x4 DUP5 ADD SLOAD PUSH1 0x80 DUP5 ADD DUP2 SWAP1 MSTORE PUSH1 0x5 DUP6 ADD SLOAD PUSH1 0xA0 DUP6 ADD DUP2 SWAP1 MSTORE SWAP5 SWAP1 SWAP6 ADD SLOAD PUSH1 0xFF AND ISZERO ISZERO PUSH1 0xC0 SWAP1 SWAP4 ADD DUP4 SWAP1 MSTORE SWAP1 SWAP7 SWAP1 SWAP4 SWAP3 SWAP2 SWAP1 JUMP JUMPDEST PUSH1 0x40 DUP1 MLOAD SWAP8 DUP9 MSTORE PUSH1 0x20 DUP9 ADD SWAP7 SWAP1 SWAP7 MSTORE SWAP5 DUP7 ADD SWAP4 SWAP1 SWAP4 MSTORE PUSH1 0x1 PUSH1 0x1 PUSH1 0xA0 SHL SUB SWAP1 SWAP2 AND PUSH1 0x60 DUP6 ADD MSTORE PUSH1 0x80 DUP5 ADD MSTORE PUSH1 0xA0 DUP4 ADD MSTORE ISZERO ISZERO PUSH1 0xC0 DUP3 ADD MSTORE PUSH1 0xE0 ADD PUSH2 0x3DD JUMP JUMPDEST PUSH2 0x5A5 PUSH2 0x838 CALLDATASIZE PUSH1 0x4 PUSH2 0x431B JUMP JUMPDEST PUSH1 0x2 PUSH1 0x20 MSTORE PUSH1 0x0 SWAP1 DUP2 MSTORE PUSH1 0x40 SWAP1 KECCAK256 SLOAD PUSH1 0x1 PUSH1 0x1 PUSH1 0xA0 SHL SUB AND DUP2 JUMP JUMPDEST PUSH2 0x425 PUSH2 0x861 CALLDATASIZE PUSH1 0x4 PUSH2 0x4840 JUMP JUMPDEST PUSH2 0x2769 JUMP JUMPDEST PUSH2 0x3F9 PUSH2 0x874 CALLDATASIZE PUSH1 0x4 PUSH2 0x431B JUMP JUMPDEST PUSH2 0x2AB3 JUMP JUMPDEST PUSH2 0x459 PUSH2 0x887 CALLDATASIZE PUSH1 0x4 PUSH2 0x4234 JUMP JUMPDEST PUSH2 0x2C4A JUMP JUMPDEST PUSH2 0x3F9 PUSH2 0x89A CALLDATASIZE PUSH1 0x4 PUSH2 0x431B JUMP JUMPDEST PUSH2 0x2CE9 JUMP JUMPDEST PUSH2 0x403 PUSH2 0x8AD CALLDATASIZE PUSH1 0x4 PUSH2 0x431B JUMP JUMPDEST PUSH2 0x2DF2 JUMP JUMPDEST PUSH2 0x3F9 PUSH2 0x8C0 CALLDATASIZE PUSH1 0x4 PUSH2 0x436A JUMP JUMPDEST PUSH2 0x2EE7 JUMP JUMPDEST PUSH2 0x3F9 PUSH2 0x8D3 CALLDATASIZE PUSH1 0x4 PUSH2 0x4840 JUMP JUMPDEST PUSH2 0x2F34 JUMP JUMPDEST PUSH2 0x3F9 PUSH2 0x8E6 CALLDATASIZE PUSH1 0x4 PUSH2 0x4234 JUMP JUMPDEST PUSH2 0x3280 JUMP JUMPDEST PUSH2 0x3F9 PUSH2 0x8F9 CALLDATASIZE PUSH1 0x4 PUSH2 0x4567 JUMP JUMPDEST PUSH2 0x3402 JUMP JUMPDEST PUSH2 0x4AC PUSH2 0x90C CALLDATASIZE PUSH1 0x4 PUSH2 0x431B JUMP JUMPDEST PUSH2 0x3581 JUMP JUMPDEST PUSH2 0x3F9 PUSH2 0x91F CALLDATASIZE PUSH1 0x4 PUSH2 0x4567 JUMP JUMPDEST PUSH2 0x37CD JUMP JUMPDEST PUSH2 0x7EB PUSH2 0x932 CALLDATASIZE PUSH1 0x4 PUSH2 0x4234 JUMP JUMPDEST PUSH1 0x6 PUSH1 0x20 DUP2 DUP2 MSTORE PUSH1 0x0 SWAP4 DUP5 MSTORE PUSH1 0x40 DUP1 DUP6 KECCAK256 SWAP1 SWAP2 MSTORE SWAP2 DUP4 MSTORE SWAP2 KECCAK256 DUP1 SLOAD PUSH1 0x1 DUP3 ADD SLOAD PUSH1 0x2 DUP4 ADD SLOAD PUSH1 0x3 DUP5 ADD SLOAD PUSH1 0x4 DUP6 ADD SLOAD PUSH1 0x5 DUP7 ADD SLOAD SWAP6 SWAP1 SWAP7 ADD SLOAD SWAP4 SWAP6 SWAP3 SWAP5 SWAP2 SWAP4 PUSH1 0x1 PUSH1 0x1 PUSH1 0xA0 SHL SUB SWAP1 SWAP2 AND SWAP3 SWAP2 SWAP1 PUSH1 0xFF AND DUP8 JUMP JUMPDEST PUSH2 0x9C6 PUSH2 0x993 CALLDATASIZE PUSH1 0x4 PUSH2 0x431B JUMP JUMPDEST PUSH1 0x14 PUSH1 0x20 MSTORE PUSH1 0x0 SWAP1 DUP2 MSTORE PUSH1 0x40 SWAP1 KECCAK256 DUP1 SLOAD PUSH1 0x1 DUP3 ADD SLOAD PUSH1 0x2 DUP4 ADD SLOAD PUSH1 0x3 SWAP1 SWAP4 ADD SLOAD SWAP2 SWAP3 SWAP1 SWAP2 PUSH1 0xFF DUP1 DUP3 AND SWAP2 PUSH2 0x100 SWAP1 DIV AND DUP6 JUMP JUMPDEST PUSH1 0x40 DUP1 MLOAD SWAP6 DUP7 MSTORE PUSH1 0x20 DUP7 ADD SWAP5 SWAP1 SWAP5 MSTORE SWAP3 DUP5 ADD SWAP2 SWAP1 SWAP2 MSTORE ISZERO ISZERO PUSH1 0x60 DUP4 ADD MSTORE ISZERO ISZERO PUSH1 0x80 DUP3 ADD MSTORE PUSH1 0xA0 ADD PUSH2 0x3DD JUMP JUMPDEST PUSH2 0x5A5 PUSH2 0xA00 CALLDATASIZE PUSH1 0x4 PUSH2 0x431B JUMP JUMPDEST PUSH1 0x0 SWAP1 DUP2 MSTORE PUSH1 0x2 PUSH1 0x20 MSTORE PUSH1 0x40 SWAP1 KECCAK256 SLOAD PUSH1 0x1 PUSH1 0x1 PUSH1 0xA0 SHL SUB AND SWAP1 JUMP JUMPDEST PUSH2 0x9C6 PUSH2 0xA29 CALLDATASIZE PUSH1 0x4 PUSH2 0x431B JUMP JUMPDEST PUSH2 0x37FF JUMP JUMPDEST PUSH2 0xA41 PUSH2 0xA3C CALLDATASIZE PUSH1 0x4 PUSH2 0x4234 JUMP JUMPDEST PUSH2 0x38A0 JUMP JUMPDEST PUSH1 0x40 MLOAD PUSH2 0x3DD SWAP6 SWAP5 SWAP4 SWAP3 SWAP2 SWAP1 PUSH2 0x4890 JUMP JUMPDEST PUSH2 0x425 PUSH2 0xA60 CALLDATASIZE PUSH1 0x4 PUSH2 0x4234 JUMP JUMPDEST PUSH2 0x3A0A JUMP JUMPDEST PUSH2 0x3F9 PUSH2 0xA73 CALLDATASIZE PUSH1 0x4 PUSH2 0x48DE JUMP JUMPDEST PUSH2 0x3A26 JUMP JUMPDEST PUSH2 0x425 PUSH1 0x0 DUP1 MLOAD PUSH1 0x20 PUSH2 0x4CBC DUP4 CODECOPY DUP2 MLOAD SWAP2 MSTORE DUP2 JUMP JUMPDEST PUSH2 0x580 PUSH2 0xA9B CALLDATASIZE PUSH1 0x4 PUSH2 0x431B JUMP JUMPDEST PUSH2 0x3DFC JUMP JUMPDEST PUSH2 0x425 PUSH2 0xAAE CALLDATASIZE PUSH1 0x4 PUSH2 0x4234 JUMP JUMPDEST PUSH1 0xD PUSH1 0x20 SWAP1 DUP2 MSTORE PUSH1 0x0 SWAP3 DUP4 MSTORE PUSH1 0x40 DUP1 DUP5 KECCAK256 SWAP1 SWAP2 MSTORE SWAP1 DUP3 MSTORE SWAP1 KECCAK256 SLOAD DUP2 JUMP JUMPDEST PUSH2 0x3F9 PUSH2 0xAD9 CALLDATASIZE PUSH1 0x4 PUSH2 0x436A JUMP JUMPDEST PUSH2 0x3F3C JUMP JUMPDEST PUSH1 0x8 PUSH1 0x20 MSTORE DUP2 PUSH1 0x0 MSTORE PUSH1 0x40 PUSH1 0x0 KECCAK256 PUSH1 0x20 MSTORE DUP1 PUSH1 0x0 MSTORE PUSH1 0x40 PUSH1 0x0 KECCAK256 PUSH1 0x0 SWAP2 POP SWAP2 POP POP DUP1 PUSH1 0x0 ADD SLOAD SWAP1 DUP1 PUSH1 0x1 ADD SLOAD SWAP1 DUP1 PUSH1 0x2 ADD SLOAD SWAP1 DUP1 PUSH1 0x3 ADD DUP1 SLOAD PUSH2 0xB20 SWAP1 PUSH2 0x4936 JUMP JUMPDEST DUP1 PUSH1 0x1F ADD PUSH1 0x20 DUP1 SWAP2 DIV MUL PUSH1 0x20 ADD PUSH1 0x40 MLOAD SWAP1 DUP2 ADD PUSH1 0x40 MSTORE DUP1 SWAP3 SWAP2 SWAP1 DUP2 DUP2 MSTORE PUSH1 0x20 ADD DUP3 DUP1 SLOAD PUSH2 0xB4C SWAP1 PUSH2 0x4936 JUMP JUMPDEST DUP1 ISZERO PUSH2 0xB99 JUMPI DUP1 PUSH1 0x1F LT PUSH2 0xB6E JUMPI PUSH2 0x100 DUP1 DUP4 SLOAD DIV MUL DUP4 MSTORE SWAP2 PUSH1 0x20 ADD SWAP2 PUSH2 0xB99 JUMP JUMPDEST DUP3 ADD SWAP2 SWAP1 PUSH1 0x0 MSTORE PUSH1 0x20 PUSH1 0x0 KECCAK256 SWAP1 JUMPDEST DUP2 SLOAD DUP2 MSTORE SWAP1 PUSH1 0x1 ADD SWAP1 PUSH1 0x20 ADD DUP1 DUP4 GT PUSH2 0xB7C JUMPI DUP3 SWAP1 SUB PUSH1 0x1F AND DUP3 ADD SWAP2 JUMPDEST POP POP POP POP POP SWAP1 DUP1 PUSH1 0x4 ADD SLOAD SWAP1 DUP1 PUSH1 0x5 ADD SLOAD SWAP1 DUP1 PUSH1 0x6 ADD DUP1 SLOAD PUSH2 0xBBA SWAP1 PUSH2 0x4936 JUMP JUMPDEST DUP1 PUSH1 0x1F ADD PUSH1 0x20 DUP1 SWAP2 DIV MUL PUSH1 0x20 ADD PUSH1 0x40 MLOAD SWAP1 DUP2 ADD PUSH1 0x40 MSTORE DUP1 SWAP3 SWAP2 SWAP1 DUP2 DUP2 MSTORE PUSH1 0x20 ADD DUP3 DUP1 SLOAD PUSH2 0xBE6 SWAP1 PUSH2 0x4936 JUMP JUMPDEST DUP1 ISZERO PUSH2 0xC33 JUMPI DUP1 PUSH1 0x1F LT PUSH2 0xC08 JUMPI PUSH2 0x100 DUP1 DUP4 SLOAD DIV MUL DUP4 MSTORE SWAP2 PUSH1 0x20 ADD SWAP2 PUSH2 0xC33 JUMP JUMPDEST DUP3 ADD SWAP2 SWAP1 PUSH1 0x0 MSTORE PUSH1 0x20 PUSH1 0x0 KECCAK256 SWAP1 JUMPDEST DUP2 SLOAD DUP2 MSTORE SWAP1 PUSH1 0x1 ADD SWAP1 PUSH1 0x20 ADD DUP1 DUP4 GT PUSH2 0xC16 JUMPI DUP3 SWAP1 SUB PUSH1 0x1F AND DUP3 ADD SWAP2 JUMPDEST POP POP POP POP PUSH1 0x7 DUP4 ADD SLOAD PUSH1 0x8 DUP5 ADD SLOAD PUSH1 0x9 SWAP1 SWAP5 ADD SLOAD SWAP3 SWAP4 PUSH1 0x1 PUSH1 0x1 PUSH1 0xA0 SHL SUB SWAP1 SWAP2 AND SWAP3 SWAP1 SWAP2 POP PUSH1 0xFF AND DUP11 JUMP JUMPDEST PUSH1 0x0 DUP1 MLOAD PUSH1 0x20 PUSH2 0x4D1C DUP4 CODECOPY DUP2 MLOAD SWAP2 MSTORE PUSH2 0xC77 DUP2 CALLER PUSH2 0x215D JUMP JUMPDEST PUSH2 0xC9C JUMPI PUSH1 0x40 MLOAD PUSH3 0x461BCD PUSH1 0xE5 SHL DUP2 MSTORE PUSH1 0x4 ADD PUSH2 0xC93 SWAP1 PUSH2 0x496A JUMP JUMPDEST PUSH1 0x40 MLOAD DUP1 SWAP2 SUB SWAP1 REVERT JUMPDEST PUSH1 0x0 DUP3 DUP2 MSTORE PUSH1 0xC PUSH1 0x20 MSTORE PUSH1 0x40 SWAP1 KECCAK256 PUSH1 0x6 ADD SLOAD PUSH1 0x1 PUSH1 0xA0 SHL SWAP1 DIV PUSH1 0xFF AND PUSH2 0xCF6 JUMPI PUSH1 0x40 MLOAD PUSH3 0x461BCD PUSH1 0xE5 SHL DUP2 MSTORE PUSH1 0x20 PUSH1 0x4 DUP3 ADD MSTORE PUSH1 0xF PUSH1 0x24 DUP3 ADD MSTORE PUSH15 0x105B1C9958591E481C995D9BDAD959 PUSH1 0x8A SHL PUSH1 0x44 DUP3 ADD MSTORE PUSH1 0x64 ADD PUSH2 0xC93 JUMP JUMPDEST PUSH1 0x0 DUP3 DUP2 MSTORE PUSH1 0xC PUSH1 0x20 MSTORE PUSH1 0x40 DUP1 DUP3 KECCAK256 PUSH1 0x6 ADD DUP1 SLOAD PUSH1 0xFF PUSH1 0xA0 SHL NOT AND SWAP1 SSTORE MLOAD CALLER SWAP2 DUP5 SWAP2 PUSH32 0x325C62E70CFAA61CF0709D9607EA9D8451B235297C4B47C65FF6A6449C9FACA4 SWAP2 SWAP1 LOG3 POP POP JUMP JUMPDEST PUSH1 0x60 PUSH1 0x9 DUP1 SLOAD PUSH2 0xD4F SWAP1 PUSH2 0x4936 JUMP JUMPDEST DUP1 PUSH1 0x1F ADD PUSH1 0x20 DUP1 SWAP2 DIV MUL PUSH1 0x20 ADD PUSH1 0x40 MLOAD SWAP1 DUP2 ADD PUSH1 0x40 MSTORE DUP1 SWAP3 SWAP2 SWAP1 DUP2 DUP2 MSTORE PUSH1 0x20 ADD DUP3 DUP1 SLOAD PUSH2 0xD7B SWAP1 PUSH2 0x4936 JUMP JUMPDEST DUP1 ISZERO PUSH2 0xDC8 JUMPI DUP1 PUSH1 0x1F LT PUSH2 0xD9D JUMPI PUSH2 0x100 DUP1 DUP4 SLOAD DIV MUL DUP4 MSTORE SWAP2 PUSH1 0x20 ADD SWAP2 PUSH2 0xDC8 JUMP JUMPDEST DUP3 ADD SWAP2 SWAP1 PUSH1 0x0 MSTORE PUSH1 0x20 PUSH1 0x0 KECCAK256 SWAP1 JUMPDEST DUP2 SLOAD DUP2 MSTORE SWAP1 PUSH1 0x1 ADD SWAP1 PUSH1 0x20 ADD DUP1 DUP4 GT PUSH2 0xDAB JUMPI DUP3 SWAP1 SUB PUSH1 0x1F AND DUP3 ADD SWAP2 JUMPDEST POP POP POP POP POP SWAP1 POP SWAP1 JUMP JUMPDEST PUSH1 0x0 DUP1 MLOAD PUSH1 0x20 PUSH2 0x4D1C DUP4 CODECOPY DUP2 MLOAD SWAP2 MSTORE PUSH2 0xDEB DUP2 CALLER PUSH2 0x215D JUMP JUMPDEST PUSH2 0xE07 JUMPI PUSH1 0x40 MLOAD PUSH3 0x461BCD PUSH1 0xE5 SHL DUP2 MSTORE PUSH1 0x4 ADD PUSH2 0xC93 SWAP1 PUSH2 0x496A JUMP JUMPDEST PUSH2 0xE1F PUSH1 0x0 DUP1 MLOAD PUSH1 0x20 PUSH2 0x4CFC DUP4 CODECOPY DUP2 MLOAD SWAP2 MSTORE DUP4 PUSH2 0x3F89 JUMP JUMPDEST POP POP JUMP JUMPDEST PUSH2 0xE2B PUSH2 0x4186 JUMP JUMPDEST PUSH1 0x0 DUP1 MLOAD PUSH1 0x20 PUSH2 0x4CFC DUP4 CODECOPY DUP2 MLOAD SWAP2 MSTORE PUSH2 0xE44 DUP2 CALLER PUSH2 0x215D JUMP JUMPDEST PUSH2 0xE60 JUMPI PUSH1 0x40 MLOAD PUSH3 0x461BCD PUSH1 0xE5 SHL DUP2 MSTORE PUSH1 0x4 ADD PUSH2 0xC93 SWAP1 PUSH2 0x496A JUMP JUMPDEST PUSH1 0x0 DUP4 DUP2 MSTORE PUSH1 0xC PUSH1 0x20 MSTORE PUSH1 0x40 SWAP1 KECCAK256 PUSH1 0x6 ADD SLOAD PUSH1 0x1 PUSH1 0xA0 SHL SWAP1 DIV PUSH1 0xFF AND PUSH2 0xEBE JUMPI PUSH1 0x40 MLOAD PUSH3 0x461BCD PUSH1 0xE5 SHL DUP2 MSTORE PUSH1 0x20 PUSH1 0x4 DUP3 ADD MSTORE PUSH1 0x13 PUSH1 0x24 DUP3 ADD MSTORE PUSH19 0x496E76616C6964206365727469666963617465 PUSH1 0x68 SHL PUSH1 0x44 DUP3 ADD MSTORE PUSH1 0x64 ADD PUSH2 0xC93 JUMP JUMPDEST PUSH1 0xC PUSH1 0x0 DUP5 DUP2 MSTORE PUSH1 0x20 ADD SWAP1 DUP2 MSTORE PUSH1 0x20 ADD PUSH1 0x0 KECCAK256 PUSH1 0x40 MLOAD DUP1 PUSH2 0x100 ADD PUSH1 0x40 MSTORE SWAP1 DUP2 PUSH1 0x0 DUP3 ADD SLOAD DUP2 MSTORE PUSH1 0x20 ADD PUSH1 0x1 DUP3 ADD SLOAD DUP2 MSTORE PUSH1 0x20 ADD PUSH1 0x2 DUP3 ADD SLOAD DUP2 MSTORE PUSH1 0x20 ADD PUSH1 0x3 DUP3 ADD SLOAD DUP2 MSTORE PUSH1 0x20 ADD PUSH1 0x4 DUP3 ADD DUP1 SLOAD PUSH2 0xF15 SWAP1 PUSH2 0x4936 JUMP JUMPDEST DUP1 PUSH1 0x1F ADD PUSH1 0x20 DUP1 SWAP2 DIV MUL PUSH1 0x20 ADD PUSH1 0x40 MLOAD SWAP1 DUP2 ADD PUSH1 0x40 MSTORE DUP1 SWAP3 SWAP2 SWAP1 DUP2 DUP2 MSTORE PUSH1 0x20 ADD DUP3 DUP1 SLOAD PUSH2 0xF41 SWAP1 PUSH2 0x4936 JUMP JUMPDEST DUP1 ISZERO PUSH2 0xF8E JUMPI DUP1 PUSH1 0x1F LT PUSH2 0xF63 JUMPI PUSH2 0x100 DUP1 DUP4 SLOAD DIV MUL DUP4 MSTORE SWAP2 PUSH1 0x20 ADD SWAP2 PUSH2 0xF8E JUMP JUMPDEST DUP3 ADD SWAP2 SWAP1 PUSH1 0x0 MSTORE PUSH1 0x20 PUSH1 0x0 KECCAK256 SWAP1 JUMPDEST DUP2 SLOAD DUP2 MSTORE SWAP1 PUSH1 0x1 ADD SWAP1 PUSH1 0x20 ADD DUP1 DUP4 GT PUSH2 0xF71 JUMPI DUP3 SWAP1 SUB PUSH1 0x1F AND DUP3 ADD SWAP2 JUMPDEST POP POP POP SWAP2 DUP4 MSTORE POP POP PUSH1 0x5 DUP3 ADD SLOAD PUSH1 0x20 DUP3 ADD MSTORE PUSH1 0x6 SWAP1 SWAP2 ADD SLOAD PUSH1 0x1 PUSH1 0x1 PUSH1 0xA0 SHL SUB DUP2 AND PUSH1 0x40 DUP4 ADD MSTORE PUSH1 0x1 PUSH1 0xA0 SHL SWAP1 DIV PUSH1 0xFF AND ISZERO ISZERO PUSH1 0x60 SWAP1 SWAP2 ADD MSTORE SWAP2 POP JUMPDEST POP SWAP2 SWAP1 POP JUMP JUMPDEST PUSH1 0x0 DUP1 MLOAD PUSH1 0x20 PUSH2 0x4D1C DUP4 CODECOPY DUP2 MLOAD SWAP2 MSTORE PUSH2 0xFE9 DUP2 CALLER PUSH2 0x215D JUMP JUMPDEST PUSH2 0x1005 JUMPI PUSH1 0x40 MLOAD PUSH3 0x461BCD PUSH1 0xE5 SHL DUP2 MSTORE PUSH1 0x4 ADD PUSH2 0xC93 SWAP1 PUSH2 0x496A JUMP JUMPDEST PUSH1 0x0 DUP4 GT PUSH2 0x1047 JUMPI PUSH1 0x40 MLOAD PUSH3 0x461BCD PUSH1 0xE5 SHL DUP2 MSTORE PUSH1 0x20 PUSH1 0x4 DUP3 ADD MSTORE PUSH1 0xF PUSH1 0x24 DUP3 ADD MSTORE PUSH15 0x125B9D985B1A59081D195CDD081251 PUSH1 0x8A SHL PUSH1 0x44 DUP3 ADD MSTORE PUSH1 0x64 ADD PUSH2 0xC93 JUMP JUMPDEST PUSH1 0x0 DUP3 GT PUSH2 0x108C JUMPI PUSH1 0x40 MLOAD PUSH3 0x461BCD PUSH1 0xE5 SHL DUP2 MSTORE PUSH1 0x20 PUSH1 0x4 DUP3 ADD MSTORE PUSH1 0x12 PUSH1 0x24 DUP3 ADD MSTORE PUSH18 0x125B9D985B1A590818DC99585D1BDC881251 PUSH1 0x72 SHL PUSH1 0x44 DUP3 ADD MSTORE PUSH1 0x64 ADD PUSH2 0xC93 JUMP JUMPDEST PUSH1 0x0 DUP4 DUP2 MSTORE PUSH1 0x14 PUSH1 0x20 MSTORE PUSH1 0x40 SWAP1 KECCAK256 PUSH1 0x3 ADD SLOAD PUSH2 0x100 SWAP1 DIV PUSH1 0xFF AND ISZERO PUSH2 0x10E9 JUMPI PUSH1 0x40 MLOAD PUSH3 0x461BCD PUSH1 0xE5 SHL DUP2 MSTORE PUSH1 0x20 PUSH1 0x4 DUP3 ADD MSTORE PUSH1 0x13 PUSH1 0x24 DUP3 ADD MSTORE PUSH19 0x5465737420616C726561647920657869737473 PUSH1 0x68 SHL PUSH1 0x44 DUP3 ADD MSTORE PUSH1 0x64 ADD PUSH2 0xC93 JUMP JUMPDEST PUSH1 0x40 DUP1 MLOAD PUSH1 0xA0 DUP2 ADD DUP3 MSTORE DUP5 DUP2 MSTORE PUSH1 0x20 DUP1 DUP3 ADD DUP6 DUP2 MSTORE TIMESTAMP DUP4 DUP6 ADD DUP2 DUP2 MSTORE PUSH1 0x0 PUSH1 0x60 DUP7 ADD DUP2 DUP2 MSTORE PUSH1 0x1 PUSH1 0x80 DUP9 ADD DUP2 DUP2 MSTORE DUP13 DUP5 MSTORE PUSH1 0x14 DUP9 MSTORE DUP10 DUP5 KECCAK256 SWAP9 MLOAD DUP10 SSTORE SWAP6 MLOAD DUP9 DUP3 ADD SSTORE SWAP3 MLOAD PUSH1 0x2 DUP9 ADD SSTORE MLOAD PUSH1 0x3 SWAP1 SWAP7 ADD DUP1 SLOAD SWAP5 MLOAD ISZERO ISZERO PUSH2 0x100 MUL PUSH2 0xFF00 NOT SWAP8 ISZERO ISZERO SWAP8 SWAP1 SWAP8 AND PUSH2 0xFFFF NOT SWAP1 SWAP6 AND SWAP5 SWAP1 SWAP5 OR SWAP6 SWAP1 SWAP6 OR SWAP1 SWAP3 SSTORE DUP7 DUP5 MSTORE PUSH1 0x15 DUP4 MSTORE DUP5 DUP5 KECCAK256 DUP1 SLOAD SWAP3 DUP4 ADD DUP2 SSTORE DUP5 MSTORE SWAP3 DUP3 SWAP1 KECCAK256 ADD DUP7 SWAP1 SSTORE SWAP2 MLOAD SWAP1 DUP2 MSTORE DUP4 SWAP2 DUP6 SWAP2 PUSH32 0x7362A05DAFF7A219173125FC58B18F322F2E8B7E19DD728E5D5526716858DB61 SWAP2 ADD JUMPDEST PUSH1 0x40 MLOAD DUP1 SWAP2 SUB SWAP1 LOG3 POP POP POP JUMP JUMPDEST PUSH1 0x60 PUSH2 0x11CE PUSH1 0x0 DUP1 MLOAD PUSH1 0x20 PUSH2 0x4D1C DUP4 CODECOPY DUP2 MLOAD SWAP2 MSTORE CALLER PUSH2 0x215D JUMP JUMPDEST DUP1 PUSH2 0x11EC JUMPI POP PUSH2 0x11EC PUSH1 0x0 DUP1 MLOAD PUSH1 0x20 PUSH2 0x4CDC DUP4 CODECOPY DUP2 MLOAD SWAP2 MSTORE CALLER PUSH2 0x215D JUMP JUMPDEST PUSH2 0x1208 JUMPI PUSH1 0x40 MLOAD PUSH3 0x461BCD PUSH1 0xE5 SHL DUP2 MSTORE PUSH1 0x4 ADD PUSH2 0xC93 SWAP1 PUSH2 0x496A JUMP JUMPDEST PUSH1 0x0 DUP3 DUP2 MSTORE PUSH1 0x12 PUSH1 0x20 SWAP1 DUP2 MSTORE PUSH1 0x40 DUP1 DUP4 KECCAK256 DUP1 SLOAD DUP3 MLOAD DUP2 DUP6 MUL DUP2 ADD DUP6 ADD SWAP1 SWAP4 MSTORE DUP1 DUP4 MSTORE SWAP2 SWAP4 SWAP1 SWAP3 DUP5 ADD JUMPDEST DUP3 DUP3 LT ISZERO PUSH2 0x13B1 JUMPI PUSH1 0x0 DUP5 DUP2 MSTORE PUSH1 0x20 SWAP1 DUP2 SWAP1 KECCAK256 PUSH1 0x40 DUP1 MLOAD PUSH1 0xA0 DUP2 ADD DUP3 MSTORE PUSH1 0x5 DUP7 MUL SWAP1 SWAP3 ADD DUP1 SLOAD DUP4 MSTORE PUSH1 0x1 DUP2 ADD SLOAD PUSH1 0x1 PUSH1 0x1 PUSH1 0xA0 SHL SUB AND SWAP4 DUP4 ADD SWAP4 SWAP1 SWAP4 MSTORE PUSH1 0x2 DUP4 ADD DUP1 SLOAD SWAP3 SWAP4 SWAP3 SWAP2 DUP5 ADD SWAP2 PUSH2 0x1284 SWAP1 PUSH2 0x4936 JUMP JUMPDEST DUP1 PUSH1 0x1F ADD PUSH1 0x20 DUP1 SWAP2 DIV MUL PUSH1 0x20 ADD PUSH1 0x40 MLOAD SWAP1 DUP2 ADD PUSH1 0x40 MSTORE DUP1 SWAP3 SWAP2 SWAP1 DUP2 DUP2 MSTORE PUSH1 0x20 ADD DUP3 DUP1 SLOAD PUSH2 0x12B0 SWAP1 PUSH2 0x4936 JUMP JUMPDEST DUP1 ISZERO PUSH2 0x12FD JUMPI DUP1 PUSH1 0x1F LT PUSH2 0x12D2 JUMPI PUSH2 0x100 DUP1 DUP4 SLOAD DIV MUL DUP4 MSTORE SWAP2 PUSH1 0x20 ADD SWAP2 PUSH2 0x12FD JUMP JUMPDEST DUP3 ADD SWAP2 SWAP1 PUSH1 0x0 MSTORE PUSH1 0x20 PUSH1 0x0 KECCAK256 SWAP1 JUMPDEST DUP2 SLOAD DUP2 MSTORE SWAP1 PUSH1 0x1 ADD SWAP1 PUSH1 0x20 ADD DUP1 DUP4 GT PUSH2 0x12E0 JUMPI DUP3 SWAP1 SUB PUSH1 0x1F AND DUP3 ADD SWAP2 JUMPDEST POP POP POP POP POP DUP2 MSTORE PUSH1 0x20 ADD PUSH1 0x3 DUP3 ADD SLOAD DUP2 MSTORE PUSH1 0x20 ADD PUSH1 0x4 DUP3 ADD DUP1 SLOAD PUSH2 0x1320 SWAP1 PUSH2 0x4936 JUMP JUMPDEST DUP1 PUSH1 0x1F ADD PUSH1 0x20 DUP1 SWAP2 DIV MUL PUSH1 0x20 ADD PUSH1 0x40 MLOAD SWAP1 DUP2 ADD PUSH1 0x40 MSTORE DUP1 SWAP3 SWAP2 SWAP1 DUP2 DUP2 MSTORE PUSH1 0x20 ADD DUP3 DUP1 SLOAD PUSH2 0x134C SWAP1 PUSH2 0x4936 JUMP JUMPDEST DUP1 ISZERO PUSH2 0x1399 JUMPI DUP1 PUSH1 0x1F LT PUSH2 0x136E JUMPI PUSH2 0x100 DUP1 DUP4 SLOAD DIV MUL DUP4 MSTORE SWAP2 PUSH1 0x20 ADD SWAP2 PUSH2 0x1399 JUMP JUMPDEST DUP3 ADD SWAP2 SWAP1 PUSH1 0x0 MSTORE PUSH1 0x20 PUSH1 0x0 KECCAK256 SWAP1 JUMPDEST DUP2 SLOAD DUP2 MSTORE SWAP1 PUSH1 0x1 ADD SWAP1 PUSH1 0x20 ADD DUP1 DUP4 GT PUSH2 0x137C JUMPI DUP3 SWAP1 SUB PUSH1 0x1F AND DUP3 ADD SWAP2 JUMPDEST POP POP POP POP POP DUP2 MSTORE POP POP DUP2 MSTORE PUSH1 0x20 ADD SWAP1 PUSH1 0x1 ADD SWAP1 PUSH2 0x1231 JUMP JUMPDEST POP POP POP POP SWAP1 POP SWAP2 SWAP1 POP JUMP JUMPDEST PUSH2 0x13C4 PUSH2 0x41D6 JUMP JUMPDEST PUSH2 0x13DC PUSH1 0x0 DUP1 MLOAD PUSH1 0x20 PUSH2 0x4CDC DUP4 CODECOPY DUP2 MLOAD SWAP2 MSTORE CALLER PUSH2 0x215D JUMP JUMPDEST DUP1 PUSH2 0x13FA JUMPI POP PUSH2 0x13FA PUSH1 0x0 DUP1 MLOAD PUSH1 0x20 PUSH2 0x4D1C DUP4 CODECOPY DUP2 MLOAD SWAP2 MSTORE CALLER PUSH2 0x215D JUMP JUMPDEST DUP1 PUSH2 0x1439 JUMPI POP PUSH1 0x0 DUP4 DUP2 MSTORE PUSH1 0x2 PUSH1 0x20 MSTORE PUSH1 0x40 SWAP1 KECCAK256 SLOAD PUSH1 0x1 PUSH1 0x1 PUSH1 0xA0 SHL SUB AND CALLER EQ DUP1 ISZERO PUSH2 0x1439 JUMPI POP PUSH2 0x1439 PUSH1 0x0 DUP1 MLOAD PUSH1 0x20 PUSH2 0x4CBC DUP4 CODECOPY DUP2 MLOAD SWAP2 MSTORE CALLER PUSH2 0x215D JUMP JUMPDEST PUSH2 0x1455 JUMPI PUSH1 0x40 MLOAD PUSH3 0x461BCD PUSH1 0xE5 SHL DUP2 MSTORE PUSH1 0x4 ADD PUSH2 0xC93 SWAP1 PUSH2 0x496A JUMP JUMPDEST PUSH1 0x8 PUSH1 0x0 DUP5 DUP2 MSTORE PUSH1 0x20 ADD SWAP1 DUP2 MSTORE PUSH1 0x20 ADD PUSH1 0x0 KECCAK256 PUSH1 0x0 DUP4 DUP2 MSTORE PUSH1 0x20 ADD SWAP1 DUP2 MSTORE PUSH1 0x20 ADD PUSH1 0x0 KECCAK256 PUSH1 0x40 MLOAD DUP1 PUSH2 0x140 ADD PUSH1 0x40 MSTORE SWAP1 DUP2 PUSH1 0x0 DUP3 ADD SLOAD DUP2 MSTORE PUSH1 0x20 ADD PUSH1 0x1 DUP3 ADD SLOAD DUP2 MSTORE PUSH1 0x20 ADD PUSH1 0x2 DUP3 ADD SLOAD DUP2 MSTORE PUSH1 0x20 ADD PUSH1 0x3 DUP3 ADD DUP1 SLOAD PUSH2 0x14B3 SWAP1 PUSH2 0x4936 JUMP JUMPDEST DUP1 PUSH1 0x1F ADD PUSH1 0x20 DUP1 SWAP2 DIV MUL PUSH1 0x20 ADD PUSH1 0x40 MLOAD SWAP1 DUP2 ADD PUSH1 0x40 MSTORE DUP1 SWAP3 SWAP2 SWAP1 DUP2 DUP2 MSTORE PUSH1 0x20 ADD DUP3 DUP1 SLOAD PUSH2 0x14DF SWAP1 PUSH2 0x4936 JUMP JUMPDEST DUP1 ISZERO PUSH2 0x152C JUMPI DUP1 PUSH1 0x1F LT PUSH2 0x1501 JUMPI PUSH2 0x100 DUP1 DUP4 SLOAD DIV MUL DUP4 MSTORE SWAP2 PUSH1 0x20 ADD SWAP2 PUSH2 0x152C JUMP JUMPDEST DUP3 ADD SWAP2 SWAP1 PUSH1 0x0 MSTORE PUSH1 0x20 PUSH1 0x0 KECCAK256 SWAP1 JUMPDEST DUP2 SLOAD DUP2 MSTORE SWAP1 PUSH1 0x1 ADD SWAP1 PUSH1 0x20 ADD DUP1 DUP4 GT PUSH2 0x150F JUMPI DUP3 SWAP1 SUB PUSH1 0x1F AND DUP3 ADD SWAP2 JUMPDEST POP POP POP POP POP DUP2 MSTORE PUSH1 0x20 ADD PUSH1 0x4 DUP3 ADD SLOAD DUP2 MSTORE PUSH1 0x20 ADD PUSH1 0x5 DUP3 ADD SLOAD DUP2 MSTORE PUSH1 0x20 ADD PUSH1 0x6 DUP3 ADD DUP1 SLOAD PUSH2 0x1559 SWAP1 PUSH2 0x4936 JUMP JUMPDEST DUP1 PUSH1 0x1F ADD PUSH1 0x20 DUP1 SWAP2 DIV MUL PUSH1 0x20 ADD PUSH1 0x40 MLOAD SWAP1 DUP2 ADD PUSH1 0x40 MSTORE DUP1 SWAP3 SWAP2 SWAP1 DUP2 DUP2 MSTORE PUSH1 0x20 ADD DUP3 DUP1 SLOAD PUSH2 0x1585 SWAP1 PUSH2 0x4936 JUMP JUMPDEST DUP1 ISZERO PUSH2 0x15D2 JUMPI DUP1 PUSH1 0x1F LT PUSH2 0x15A7 JUMPI PUSH2 0x100 DUP1 DUP4 SLOAD DIV MUL DUP4 MSTORE SWAP2 PUSH1 0x20 ADD SWAP2 PUSH2 0x15D2 JUMP JUMPDEST DUP3 ADD SWAP2 SWAP1 PUSH1 0x0 MSTORE PUSH1 0x20 PUSH1 0x0 KECCAK256 SWAP1 JUMPDEST DUP2 SLOAD DUP2 MSTORE SWAP1 PUSH1 0x1 ADD SWAP1 PUSH1 0x20 ADD DUP1 DUP4 GT PUSH2 0x15B5 JUMPI DUP3 SWAP1 SUB PUSH1 0x1F AND DUP3 ADD SWAP2 JUMPDEST POP POP POP SWAP2 DUP4 MSTORE POP POP PUSH1 0x7 DUP3 ADD SLOAD PUSH1 0x1 PUSH1 0x1 PUSH1 0xA0 SHL SUB AND PUSH1 0x20 DUP3 ADD MSTORE PUSH1 0x8 DUP3 ADD SLOAD PUSH1 0x40 DUP3 ADD MSTORE PUSH1 0x9 SWAP1 SWAP2 ADD SLOAD PUSH1 0xFF AND ISZERO ISZERO PUSH1 0x60 SWAP1 SWAP2 ADD MSTORE SWAP1 POP JUMPDEST SWAP3 SWAP2 POP POP JUMP JUMPDEST PUSH1 0x0 DUP1 MLOAD PUSH1 0x20 PUSH2 0x4D1C DUP4 CODECOPY DUP2 MLOAD SWAP2 MSTORE PUSH2 0x162A DUP2 CALLER PUSH2 0x215D JUMP JUMPDEST PUSH2 0x1646 JUMPI PUSH1 0x40 MLOAD PUSH3 0x461BCD PUSH1 0xE5 SHL DUP2 MSTORE PUSH1 0x4 ADD PUSH2 0xC93 SWAP1 PUSH2 0x496A JUMP JUMPDEST PUSH2 0xE1F PUSH1 0x0 DUP1 MLOAD PUSH1 0x20 PUSH2 0x4CFC DUP4 CODECOPY DUP2 MLOAD SWAP2 MSTORE DUP4 PUSH2 0x3FF0 JUMP JUMPDEST PUSH1 0x0 PUSH2 0x166A DUP2 CALLER PUSH2 0x215D JUMP JUMPDEST PUSH2 0x1686 JUMPI PUSH1 0x40 MLOAD PUSH3 0x461BCD PUSH1 0xE5 SHL DUP2 MSTORE PUSH1 0x4 ADD PUSH2 0xC93 SWAP1 PUSH2 0x496A JUMP JUMPDEST PUSH2 0x1690 DUP4 DUP4 PUSH2 0x3F89 JUMP JUMPDEST POP POP POP JUMP JUMPDEST PUSH1 0x0 DUP1 MLOAD PUSH1 0x20 PUSH2 0x4D1C DUP4 CODECOPY DUP2 MLOAD SWAP2 MSTORE PUSH2 0x16AE DUP2 CALLER PUSH2 0x215D JUMP JUMPDEST PUSH2 0x16CA JUMPI PUSH1 0x40 MLOAD PUSH3 0x461BCD PUSH1 0xE5 SHL DUP2 MSTORE PUSH1 0x4 ADD PUSH2 0xC93 SWAP1 PUSH2 0x496A JUMP JUMPDEST PUSH2 0xE1F PUSH1 0x0 DUP1 MLOAD PUSH1 0x20 PUSH2 0x4CBC DUP4 CODECOPY DUP2 MLOAD SWAP2 MSTORE DUP4 PUSH2 0x3FF0 JUMP JUMPDEST PUSH1 0x0 DUP2 DUP2 MSTORE PUSH1 0x15 PUSH1 0x20 SWAP1 DUP2 MSTORE PUSH1 0x40 SWAP2 DUP3 SWAP1 KECCAK256 DUP1 SLOAD DUP4 MLOAD DUP2 DUP5 MUL DUP2 ADD DUP5 ADD SWAP1 SWAP5 MSTORE DUP1 DUP5 MSTORE PUSH1 0x60 SWAP4 SWAP3 DUP4 ADD DUP3 DUP3 DUP1 ISZERO PUSH2 0x1738 JUMPI PUSH1 0x20 MUL DUP3 ADD SWAP2 SWAP1 PUSH1 0x0 MSTORE PUSH1 0x20 PUSH1 0x0 KECCAK256 SWAP1 JUMPDEST DUP2 SLOAD DUP2 MSTORE PUSH1 0x20 ADD SWAP1 PUSH1 0x1 ADD SWAP1 DUP1 DUP4 GT PUSH2 0x1724 JUMPI JUMPDEST POP POP POP POP POP SWAP1 POP SWAP2 SWAP1 POP JUMP JUMPDEST PUSH1 0x0 DUP1 MLOAD PUSH1 0x20 PUSH2 0x4CDC DUP4 CODECOPY DUP2 MLOAD SWAP2 MSTORE PUSH2 0x175D DUP2 CALLER PUSH2 0x215D JUMP JUMPDEST PUSH2 0x1779 JUMPI PUSH1 0x40 MLOAD PUSH3 0x461BCD PUSH1 0xE5 SHL DUP2 MSTORE PUSH1 0x4 ADD PUSH2 0xC93 SWAP1 PUSH2 0x496A JUMP JUMPDEST PUSH1 0x0 DUP4 DUP2 MSTORE PUSH1 0x4 PUSH1 0x20 DUP2 SWAP1 MSTORE PUSH1 0x40 SWAP1 SWAP2 KECCAK256 ADD SLOAD PUSH2 0x100 SWAP1 DIV PUSH1 0xFF AND PUSH2 0x17B0 JUMPI PUSH1 0x40 MLOAD PUSH3 0x461BCD PUSH1 0xE5 SHL DUP2 MSTORE PUSH1 0x4 ADD PUSH2 0xC93 SWAP1 PUSH2 0x4991 JUMP JUMPDEST PUSH1 0x64 DUP3 GT ISZERO PUSH2 0x17D1 JUMPI PUSH1 0x40 MLOAD PUSH3 0x461BCD PUSH1 0xE5 SHL DUP2 MSTORE PUSH1 0x4 ADD PUSH2 0xC93 SWAP1 PUSH2 0x49BE JUMP JUMPDEST PUSH1 0x0 DUP5 DUP2 MSTORE PUSH1 0x6 PUSH1 0x20 SWAP1 DUP2 MSTORE PUSH1 0x40 DUP1 DUP4 KECCAK256 DUP7 DUP5 MSTORE SWAP1 SWAP2 MSTORE DUP2 KECCAK256 SLOAD SWAP1 SUB PUSH2 0x1830 JUMPI PUSH1 0x40 MLOAD PUSH3 0x461BCD PUSH1 0xE5 SHL DUP2 MSTORE PUSH1 0x20 PUSH1 0x4 DUP3 ADD MSTORE PUSH1 0x14 PUSH1 0x24 DUP3 ADD MSTORE PUSH20 0x14D8DBDC9948191BD95CC81B9BDD08195E1A5CDD PUSH1 0x62 SHL PUSH1 0x44 DUP3 ADD MSTORE PUSH1 0x64 ADD PUSH2 0xC93 JUMP JUMPDEST PUSH1 0x0 DUP5 DUP2 MSTORE PUSH1 0x6 PUSH1 0x20 DUP2 DUP2 MSTORE PUSH1 0x40 DUP1 DUP5 KECCAK256 DUP8 DUP6 MSTORE SWAP1 SWAP2 MSTORE SWAP1 SWAP2 KECCAK256 ADD SLOAD PUSH1 0xFF AND ISZERO PUSH2 0x1891 JUMPI PUSH1 0x40 MLOAD PUSH3 0x461BCD PUSH1 0xE5 SHL DUP2 MSTORE PUSH1 0x20 PUSH1 0x4 DUP3 ADD MSTORE PUSH1 0x12 PUSH1 0x24 DUP3 ADD MSTORE PUSH18 0x14D8DBDC99481A5CC8199A5B985B1A5E9959 PUSH1 0x72 SHL PUSH1 0x44 DUP3 ADD MSTORE PUSH1 0x64 ADD PUSH2 0xC93 JUMP JUMPDEST PUSH1 0x0 DUP5 DUP2 MSTORE PUSH1 0x6 PUSH1 0x20 SWAP1 DUP2 MSTORE PUSH1 0x40 DUP1 DUP4 KECCAK256 DUP7 DUP5 MSTORE DUP3 MSTORE SWAP2 DUP3 SWAP1 KECCAK256 PUSH1 0x2 DUP2 ADD DUP1 SLOAD SWAP1 DUP7 SWAP1 SSTORE TIMESTAMP PUSH1 0x5 SWAP1 SWAP3 ADD SWAP2 SWAP1 SWAP2 SSTORE DUP3 MLOAD DUP2 DUP2 MSTORE SWAP2 DUP3 ADD DUP6 SWAP1 MSTORE SWAP2 CALLER SWAP2 DUP7 SWAP2 DUP9 SWAP2 PUSH32 0xAFCA19E7338B80A137BDD94E7B2EC35D7D842CC5C4D91A3576D97135E9DE063D SWAP2 ADD JUMPDEST PUSH1 0x40 MLOAD DUP1 SWAP2 SUB SWAP1 LOG4 POP POP POP POP POP JUMP JUMPDEST PUSH1 0x0 DUP1 MLOAD PUSH1 0x20 PUSH2 0x4D1C DUP4 CODECOPY DUP2 MLOAD SWAP2 MSTORE PUSH2 0x191D DUP2 CALLER PUSH2 0x215D JUMP JUMPDEST PUSH2 0x1939 JUMPI PUSH1 0x40 MLOAD PUSH3 0x461BCD PUSH1 0xE5 SHL DUP2 MSTORE PUSH1 0x4 ADD PUSH2 0xC93 SWAP1 PUSH2 0x496A JUMP JUMPDEST PUSH1 0x0 DUP3 DUP2 MSTORE PUSH1 0x14 PUSH1 0x20 MSTORE PUSH1 0x40 SWAP1 KECCAK256 PUSH1 0x3 ADD SLOAD PUSH2 0x100 SWAP1 DIV PUSH1 0xFF AND PUSH2 0x196F JUMPI PUSH1 0x40 MLOAD PUSH3 0x461BCD PUSH1 0xE5 SHL DUP2 MSTORE PUSH1 0x4 ADD PUSH2 0xC93 SWAP1 PUSH2 0x49EC JUMP JUMPDEST PUSH1 0x0 DUP3 DUP2 MSTORE PUSH1 0x14 PUSH1 0x20 MSTORE PUSH1 0x40 SWAP1 KECCAK256 PUSH1 0x3 ADD SLOAD PUSH1 0xFF AND ISZERO PUSH2 0x19C8 JUMPI PUSH1 0x40 MLOAD PUSH3 0x461BCD PUSH1 0xE5 SHL DUP2 MSTORE PUSH1 0x20 PUSH1 0x4 DUP3 ADD MSTORE PUSH1 0x14 PUSH1 0x24 DUP3 ADD MSTORE PUSH20 0x15195CDD08185B1C9958591E48189B1BD8DAD959 PUSH1 0x62 SHL PUSH1 0x44 DUP3 ADD MSTORE PUSH1 0x64 ADD PUSH2 0xC93 JUMP JUMPDEST PUSH1 0x0 DUP3 DUP2 MSTORE PUSH1 0x14 PUSH1 0x20 MSTORE PUSH1 0x40 DUP1 DUP3 KECCAK256 PUSH1 0x3 ADD DUP1 SLOAD PUSH1 0xFF NOT AND PUSH1 0x1 OR SWAP1 SSTORE MLOAD CALLER SWAP2 DUP5 SWAP2 PUSH32 0xE63354374974D42E2A4930C5C063D6B47516E4000F1E651731247D2E7053920C SWAP2 SWAP1 LOG3 POP POP JUMP JUMPDEST PUSH1 0x4 PUSH1 0x20 MSTORE PUSH1 0x0 SWAP1 DUP2 MSTORE PUSH1 0x40 SWAP1 KECCAK256 DUP1 SLOAD DUP2 SWAP1 PUSH2 0x1A2D SWAP1 PUSH2 0x4936 JUMP JUMPDEST DUP1 PUSH1 0x1F ADD PUSH1 0x20 DUP1 SWAP2 DIV MUL PUSH1 0x20 ADD PUSH1 0x40 MLOAD SWAP1 DUP2 ADD PUSH1 0x40 MSTORE DUP1 SWAP3 SWAP2 SWAP1 DUP2 DUP2 MSTORE PUSH1 0x20 ADD DUP3 DUP1 SLOAD PUSH2 0x1A59 SWAP1 PUSH2 0x4936 JUMP JUMPDEST DUP1 ISZERO PUSH2 0x1AA6 JUMPI DUP1 PUSH1 0x1F LT PUSH2 0x1A7B JUMPI PUSH2 0x100 DUP1 DUP4 SLOAD DIV MUL DUP4 MSTORE SWAP2 PUSH1 0x20 ADD SWAP2 PUSH2 0x1AA6 JUMP JUMPDEST DUP3 ADD SWAP2 SWAP1 PUSH1 0x0 MSTORE PUSH1 0x20 PUSH1 0x0 KECCAK256 SWAP1 JUMPDEST DUP2 SLOAD DUP2 MSTORE SWAP1 PUSH1 0x1 ADD SWAP1 PUSH1 0x20 ADD DUP1 DUP4 GT PUSH2 0x1A89 JUMPI DUP3 SWAP1 SUB PUSH1 0x1F AND DUP3 ADD SWAP2 JUMPDEST POP POP POP POP PUSH1 0x1 DUP4 ADD SLOAD PUSH1 0x2 DUP5 ADD SLOAD PUSH1 0x3 DUP6 ADD SLOAD PUSH1 0x4 SWAP1 SWAP6 ADD SLOAD SWAP4 SWAP5 SWAP2 SWAP4 PUSH1 0x1 PUSH1 0x1 PUSH1 0xA0 SHL SUB SWAP1 SWAP2 AND SWAP3 POP PUSH1 0xFF DUP1 DUP3 AND SWAP2 PUSH2 0x100 SWAP1 DIV AND DUP7 JUMP JUMPDEST PUSH1 0x0 DUP2 DUP2 MSTORE PUSH1 0xE PUSH1 0x20 MSTORE PUSH1 0x40 DUP2 KECCAK256 SLOAD PUSH1 0x1 PUSH1 0x1 PUSH1 0xA0 SHL SUB AND DUP1 PUSH2 0x160B JUMPI PUSH1 0x40 MLOAD PUSH3 0x461BCD PUSH1 0xE5 SHL DUP2 MSTORE PUSH1 0x20 PUSH1 0x4 DUP3 ADD MSTORE PUSH1 0x11 PUSH1 0x24 DUP3 ADD MSTORE PUSH17 0x2737B732BC34B9BA32B73A103A37B5B2B7 PUSH1 0x79 SHL PUSH1 0x44 DUP3 ADD MSTORE PUSH1 0x64 ADD PUSH2 0xC93 JUMP JUMPDEST PUSH1 0xC PUSH1 0x20 MSTORE PUSH1 0x0 SWAP1 DUP2 MSTORE PUSH1 0x40 SWAP1 KECCAK256 DUP1 SLOAD PUSH1 0x1 DUP3 ADD SLOAD PUSH1 0x2 DUP4 ADD SLOAD PUSH1 0x3 DUP5 ADD SLOAD PUSH1 0x4 DUP6 ADD DUP1 SLOAD SWAP5 SWAP6 SWAP4 SWAP5 SWAP3 SWAP4 SWAP2 SWAP3 PUSH2 0x1B6E SWAP1 PUSH2 0x4936 JUMP JUMPDEST DUP1 PUSH1 0x1F ADD PUSH1 0x20 DUP1 SWAP2 DIV MUL PUSH1 0x20 ADD PUSH1 0x40 MLOAD SWAP1 DUP2 ADD PUSH1 0x40 MSTORE DUP1 SWAP3 SWAP2 SWAP1 DUP2 DUP2 MSTORE PUSH1 0x20 ADD DUP3 DUP1 SLOAD PUSH2 0x1B9A SWAP1 PUSH2 0x4936 JUMP JUMPDEST DUP1 ISZERO PUSH2 0x1BE7 JUMPI DUP1 PUSH1 0x1F LT PUSH2 0x1BBC JUMPI PUSH2 0x100 DUP1 DUP4 SLOAD DIV MUL DUP4 MSTORE SWAP2 PUSH1 0x20 ADD SWAP2 PUSH2 0x1BE7 JUMP JUMPDEST DUP3 ADD SWAP2 SWAP1 PUSH1 0x0 MSTORE PUSH1 0x20 PUSH1 0x0 KECCAK256 SWAP1 JUMPDEST DUP2 SLOAD DUP2 MSTORE SWAP1 PUSH1 0x1 ADD SWAP1 PUSH1 0x20 ADD DUP1 DUP4 GT PUSH2 0x1BCA JUMPI DUP3 SWAP1 SUB PUSH1 0x1F AND DUP3 ADD SWAP2 JUMPDEST POP POP POP POP PUSH1 0x5 DUP4 ADD SLOAD PUSH1 0x6 SWAP1 SWAP4 ADD SLOAD SWAP2 SWAP3 SWAP2 PUSH1 0x1 PUSH1 0x1 PUSH1 0xA0 SHL SUB DUP2 AND SWAP2 POP PUSH1 0x1 PUSH1 0xA0 SHL SWAP1 DIV PUSH1 0xFF AND DUP9 JUMP JUMPDEST PUSH1 0x0 DUP1 MLOAD PUSH1 0x20 PUSH2 0x4D1C DUP4 CODECOPY DUP2 MLOAD SWAP2 MSTORE PUSH2 0x1C2B DUP2 CALLER PUSH2 0x215D JUMP JUMPDEST PUSH2 0x1C47 JUMPI PUSH1 0x40 MLOAD PUSH3 0x461BCD PUSH1 0xE5 SHL DUP2 MSTORE PUSH1 0x4 ADD PUSH2 0xC93 SWAP1 PUSH2 0x496A JUMP JUMPDEST PUSH2 0xE1F PUSH1 0x0 DUP1 MLOAD PUSH1 0x20 PUSH2 0x4CDC DUP4 CODECOPY DUP2 MLOAD SWAP2 MSTORE DUP4 PUSH2 0x3F89 JUMP JUMPDEST PUSH1 0x0 DUP1 MLOAD PUSH1 0x20 PUSH2 0x4D1C DUP4 CODECOPY DUP2 MLOAD SWAP2 MSTORE PUSH2 0x1C78 DUP2 CALLER PUSH2 0x215D JUMP JUMPDEST PUSH2 0x1C94 JUMPI PUSH1 0x40 MLOAD PUSH3 0x461BCD PUSH1 0xE5 SHL DUP2 MSTORE PUSH1 0x4 ADD PUSH2 0xC93 SWAP1 PUSH2 0x496A JUMP JUMPDEST PUSH1 0x0 DUP4 GT PUSH2 0x1CB4 JUMPI PUSH1 0x40 MLOAD PUSH3 0x461BCD PUSH1 0xE5 SHL DUP2 MSTORE PUSH1 0x4 ADD PUSH2 0xC93 SWAP1 PUSH2 0x4A19 JUMP JUMPDEST PUSH1 0x1 PUSH1 0x1 PUSH1 0xA0 SHL SUB DUP3 AND PUSH2 0x1CDA JUMPI PUSH1 0x40 MLOAD PUSH3 0x461BCD PUSH1 0xE5 SHL DUP2 MSTORE PUSH1 0x4 ADD PUSH2 0xC93 SWAP1 PUSH2 0x4A45 JUMP JUMPDEST PUSH1 0x0 DUP4 DUP2 MSTORE PUSH1 0x2 PUSH1 0x20 MSTORE PUSH1 0x40 SWAP1 KECCAK256 SLOAD PUSH1 0x1 PUSH1 0x1 PUSH1 0xA0 SHL SUB AND PUSH2 0x1D3E JUMPI PUSH1 0x40 MLOAD PUSH3 0x461BCD PUSH1 0xE5 SHL DUP2 MSTORE PUSH1 0x20 PUSH1 0x4 DUP3 ADD MSTORE PUSH1 0x17 PUSH1 0x24 DUP3 ADD MSTORE PUSH32 0x53747564656E742061646472657373206E6F7420736574000000000000000000 PUSH1 0x44 DUP3 ADD MSTORE PUSH1 0x64 ADD PUSH2 0xC93 JUMP JUMPDEST PUSH1 0x1 PUSH1 0x1 PUSH1 0xA0 SHL SUB DUP3 AND PUSH1 0x0 SWAP1 DUP2 MSTORE PUSH1 0x3 PUSH1 0x20 MSTORE PUSH1 0x40 SWAP1 KECCAK256 SLOAD ISZERO PUSH2 0x1D74 JUMPI PUSH1 0x40 MLOAD PUSH3 0x461BCD PUSH1 0xE5 SHL DUP2 MSTORE PUSH1 0x4 ADD PUSH2 0xC93 SWAP1 PUSH2 0x4A6E JUMP JUMPDEST PUSH1 0x0 DUP4 DUP2 MSTORE PUSH1 0x2 PUSH1 0x20 SWAP1 DUP2 MSTORE PUSH1 0x40 DUP1 DUP4 KECCAK256 DUP1 SLOAD PUSH1 0x1 PUSH1 0x1 PUSH1 0xA0 SHL SUB SWAP1 DUP2 AND DUP1 DUP7 MSTORE PUSH1 0x3 DUP6 MSTORE DUP4 DUP7 KECCAK256 DUP7 SWAP1 SSTORE DUP3 SLOAD PUSH1 0x1 PUSH1 0x1 PUSH1 0xA0 SHL SUB NOT AND SWAP2 DUP9 AND SWAP2 DUP3 OR SWAP1 SWAP3 SSTORE DUP1 DUP6 MSTORE SWAP4 DUP3 SWAP1 KECCAK256 DUP8 SWAP1 SSTORE SWAP1 MLOAD CALLER DUP2 MSTORE SWAP1 SWAP3 SWAP2 DUP4 SWAP2 DUP8 SWAP2 PUSH32 0x59E33F3654F744A7A32CDA9A919FA879941875BB700D1C776ADE2F64E23B4649 SWAP2 ADD JUMPDEST PUSH1 0x40 MLOAD DUP1 SWAP2 SUB SWAP1 LOG4 POP POP POP POP JUMP JUMPDEST PUSH1 0x0 PUSH1 0x1 PUSH1 0x1 PUSH1 0xA0 SHL SUB DUP3 AND PUSH2 0x1E24 JUMPI PUSH1 0x40 MLOAD PUSH3 0x461BCD PUSH1 0xE5 SHL DUP2 MSTORE PUSH1 0x4 ADD PUSH2 0xC93 SWAP1 PUSH2 0x4A45 JUMP JUMPDEST POP PUSH1 0x1 PUSH1 0x1 PUSH1 0xA0 SHL SUB AND PUSH1 0x0 SWAP1 DUP2 MSTORE PUSH1 0xF PUSH1 0x20 MSTORE PUSH1 0x40 SWAP1 KECCAK256 SLOAD SWAP1 JUMP JUMPDEST PUSH1 0x5 PUSH1 0x20 MSTORE DUP2 PUSH1 0x0 MSTORE PUSH1 0x40 PUSH1 0x0 KECCAK256 DUP2 DUP2 SLOAD DUP2 LT PUSH2 0x1E5C JUMPI PUSH1 0x0 DUP1 REVERT JUMPDEST SWAP1 PUSH1 0x0 MSTORE PUSH1 0x20 PUSH1 0x0 KECCAK256 ADD PUSH1 0x0 SWAP2 POP SWAP2 POP POP SLOAD DUP2 JUMP JUMPDEST PUSH1 0x0 DUP1 MLOAD PUSH1 0x20 PUSH2 0x4CDC DUP4 CODECOPY DUP2 MLOAD SWAP2 MSTORE PUSH2 0x1E8A DUP2 CALLER PUSH2 0x215D JUMP JUMPDEST PUSH2 0x1EA6 JUMPI PUSH1 0x40 MLOAD PUSH3 0x461BCD PUSH1 0xE5 SHL DUP2 MSTORE PUSH1 0x4 ADD PUSH2 0xC93 SWAP1 PUSH2 0x496A JUMP JUMPDEST PUSH1 0x0 DUP4 DUP2 MSTORE PUSH1 0x4 PUSH1 0x20 DUP2 SWAP1 MSTORE PUSH1 0x40 SWAP1 SWAP2 KECCAK256 ADD SLOAD PUSH2 0x100 SWAP1 DIV PUSH1 0xFF AND PUSH2 0x1EDD JUMPI PUSH1 0x40 MLOAD PUSH3 0x461BCD PUSH1 0xE5 SHL DUP2 MSTORE PUSH1 0x4 ADD PUSH2 0xC93 SWAP1 PUSH2 0x4991 JUMP JUMPDEST PUSH1 0x64 DUP3 GT ISZERO PUSH2 0x1EFE JUMPI PUSH1 0x40 MLOAD PUSH3 0x461BCD PUSH1 0xE5 SHL DUP2 MSTORE PUSH1 0x4 ADD PUSH2 0xC93 SWAP1 PUSH2 0x49BE JUMP JUMPDEST PUSH1 0x0 DUP5 GT PUSH2 0x1F1E JUMPI PUSH1 0x40 MLOAD PUSH3 0x461BCD PUSH1 0xE5 SHL DUP2 MSTORE PUSH1 0x4 ADD PUSH2 0xC93 SWAP1 PUSH2 0x4A19 JUMP JUMPDEST PUSH1 0x0 DUP5 DUP2 MSTORE PUSH1 0x6 PUSH1 0x20 SWAP1 DUP2 MSTORE PUSH1 0x40 DUP1 DUP4 KECCAK256 DUP7 DUP5 MSTORE SWAP1 SWAP2 MSTORE SWAP1 KECCAK256 SLOAD ISZERO PUSH2 0x1F7C JUMPI PUSH1 0x40 MLOAD PUSH3 0x461BCD PUSH1 0xE5 SHL DUP2 MSTORE PUSH1 0x20 PUSH1 0x4 DUP3 ADD MSTORE PUSH1 0x14 PUSH1 0x24 DUP3 ADD MSTORE PUSH20 0x53636F726520616C726561647920657869737473 PUSH1 0x60 SHL PUSH1 0x44 DUP3 ADD MSTORE PUSH1 0x64 ADD PUSH2 0xC93 JUMP JUMPDEST PUSH1 0x40 DUP1 MLOAD PUSH1 0xE0 DUP2 ADD DUP3 MSTORE DUP6 DUP2 MSTORE PUSH1 0x20 DUP1 DUP3 ADD DUP7 DUP2 MSTORE DUP3 DUP5 ADD DUP7 DUP2 MSTORE CALLER PUSH1 0x60 DUP6 ADD DUP2 DUP2 MSTORE TIMESTAMP PUSH1 0x80 DUP8 ADD DUP2 DUP2 MSTORE PUSH1 0xA0 DUP9 ADD SWAP2 DUP3 MSTORE PUSH1 0x0 PUSH1 0xC0 DUP10 ADD DUP2 DUP2 MSTORE DUP15 DUP3 MSTORE PUSH1 0x6 DUP1 DUP11 MSTORE DUP12 DUP4 KECCAK256 DUP16 DUP5 MSTORE DUP11 MSTORE DUP12 DUP4 KECCAK256 SWAP11 MLOAD DUP12 SSTORE SWAP8 MLOAD PUSH1 0x1 DUP1 DUP13 ADD SWAP2 SWAP1 SWAP2 SSTORE SWAP7 MLOAD PUSH1 0x2 DUP12 ADD SSTORE SWAP4 MLOAD PUSH1 0x3 DUP11 ADD DUP1 SLOAD PUSH1 0x1 PUSH1 0x1 PUSH1 0xA0 SHL SUB NOT AND PUSH1 0x1 PUSH1 0x1 PUSH1 0xA0 SHL SUB SWAP1 SWAP3 AND SWAP2 SWAP1 SWAP2 OR SWAP1 SSTORE SWAP1 MLOAD PUSH1 0x4 DUP10 ADD SSTORE SWAP1 MLOAD PUSH1 0x5 DUP9 ADD SSTORE SWAP1 MLOAD SWAP6 SWAP1 SWAP4 ADD DUP1 SLOAD PUSH1 0xFF NOT AND SWAP6 ISZERO ISZERO SWAP6 SWAP1 SWAP6 OR SWAP1 SWAP5 SSTORE PUSH1 0x7 DUP4 MSTORE DUP5 DUP3 KECCAK256 DUP1 SLOAD SWAP2 DUP3 ADD DUP2 SSTORE DUP3 MSTORE SWAP1 DUP3 SWAP1 KECCAK256 ADD DUP8 SWAP1 SSTORE SWAP2 MLOAD DUP5 DUP2 MSTORE SWAP1 SWAP2 DUP6 SWAP2 DUP8 SWAP2 PUSH31 0xFE563478D2112C66117B5A44ADD5A901B10F4B748D444A9308E738C3D3E2CA SWAP2 ADD PUSH2 0x1DEE JUMP JUMPDEST PUSH1 0x60 PUSH2 0x208B PUSH1 0x0 DUP1 MLOAD PUSH1 0x20 PUSH2 0x4CDC DUP4 CODECOPY DUP2 MLOAD SWAP2 MSTORE DUP4 PUSH2 0x215D JUMP JUMPDEST DUP1 PUSH2 0x20A9 JUMPI POP PUSH2 0x20A9 PUSH1 0x0 DUP1 MLOAD PUSH1 0x20 PUSH2 0x4D1C DUP4 CODECOPY DUP2 MLOAD SWAP2 MSTORE DUP4 PUSH2 0x215D JUMP JUMPDEST PUSH2 0x20F5 JUMPI PUSH1 0x40 MLOAD PUSH3 0x461BCD PUSH1 0xE5 SHL DUP2 MSTORE PUSH1 0x20 PUSH1 0x4 DUP3 ADD MSTORE PUSH1 0x19 PUSH1 0x24 DUP3 ADD MSTORE PUSH32 0x41646472657373206973206E6F742061206C6563747572657200000000000000 PUSH1 0x44 DUP3 ADD MSTORE PUSH1 0x64 ADD PUSH2 0xC93 JUMP JUMPDEST PUSH1 0x1 PUSH1 0x1 PUSH1 0xA0 SHL SUB DUP3 AND PUSH1 0x0 SWAP1 DUP2 MSTORE PUSH1 0x5 PUSH1 0x20 SWAP1 DUP2 MSTORE PUSH1 0x40 SWAP2 DUP3 SWAP1 KECCAK256 DUP1 SLOAD DUP4 MLOAD DUP2 DUP5 MUL DUP2 ADD DUP5 ADD SWAP1 SWAP5 MSTORE DUP1 DUP5 MSTORE SWAP1 SWAP2 DUP4 ADD DUP3 DUP3 DUP1 ISZERO PUSH2 0x1738 JUMPI PUSH1 0x20 MUL DUP3 ADD SWAP2 SWAP1 PUSH1 0x0 MSTORE PUSH1 0x20 PUSH1 0x0 KECCAK256 SWAP1 DUP2 SLOAD DUP2 MSTORE PUSH1 0x20 ADD SWAP1 PUSH1 0x1 ADD SWAP1 DUP1 DUP4 GT PUSH2 0x1724 JUMPI POP POP POP POP POP SWAP1 POP SWAP2 SWAP1 POP JUMP JUMPDEST PUSH1 0x0 SWAP2 DUP3 MSTORE PUSH1 0x20 DUP3 DUP2 MSTORE PUSH1 0x40 DUP1 DUP5 KECCAK256 PUSH1 0x1 PUSH1 0x1 PUSH1 0xA0 SHL SUB SWAP4 SWAP1 SWAP4 AND DUP5 MSTORE SWAP2 SWAP1 MSTORE SWAP1 KECCAK256 SLOAD PUSH1 0xFF AND SWAP1 JUMP JUMPDEST PUSH1 0x60 PUSH1 0xA DUP1 SLOAD PUSH2 0xD4F SWAP1 PUSH2 0x4936 JUMP JUMPDEST PUSH1 0x0 DUP1 MLOAD PUSH1 0x20 PUSH2 0x4CBC DUP4 CODECOPY DUP2 MLOAD SWAP2 MSTORE PUSH2 0x21AE DUP2 CALLER PUSH2 0x215D JUMP JUMPDEST PUSH2 0x21CA JUMPI PUSH1 0x40 MLOAD PUSH3 0x461BCD PUSH1 0xE5 SHL DUP2 MSTORE PUSH1 0x4 ADD PUSH2 0xC93 SWAP1 PUSH2 0x496A JUMP JUMPDEST CALLER PUSH1 0x0 SWAP1 DUP2 MSTORE PUSH1 0x3 PUSH1 0x20 MSTORE PUSH1 0x40 SWAP1 KECCAK256 SLOAD DUP1 PUSH2 0x221F JUMPI PUSH1 0x40 MLOAD PUSH3 0x461BCD PUSH1 0xE5 SHL DUP2 MSTORE PUSH1 0x20 PUSH1 0x4 DUP3 ADD MSTORE PUSH1 0x15 PUSH1 0x24 DUP3 ADD MSTORE PUSH21 0x14DD1D59195B9D081251081B9BDD081B1A5B9AD959 PUSH1 0x5A SHL PUSH1 0x44 DUP3 ADD MSTORE PUSH1 0x64 ADD PUSH2 0xC93 JUMP JUMPDEST PUSH2 0x222A DUP2 DUP6 DUP6 PUSH2 0x2F34 JUMP JUMPDEST POP POP POP POP JUMP JUMPDEST PUSH2 0x2238 PUSH2 0x4186 JUMP JUMPDEST PUSH1 0x0 DUP1 MLOAD PUSH1 0x20 PUSH2 0x4CBC DUP4 CODECOPY DUP2 MLOAD SWAP2 MSTORE PUSH2 0x2251 DUP2 CALLER PUSH2 0x215D JUMP JUMPDEST PUSH2 0x226D JUMPI PUSH1 0x40 MLOAD PUSH3 0x461BCD PUSH1 0xE5 SHL DUP2 MSTORE PUSH1 0x4 ADD PUSH2 0xC93 SWAP1 PUSH2 0x496A JUMP JUMPDEST PUSH1 0x0 DUP5 DUP2 MSTORE PUSH1 0x2 PUSH1 0x20 MSTORE PUSH1 0x40 SWAP1 KECCAK256 SLOAD PUSH1 0x1 PUSH1 0x1 PUSH1 0xA0 SHL SUB AND CALLER EQ PUSH2 0x22CA JUMPI PUSH1 0x40 MLOAD PUSH3 0x461BCD PUSH1 0xE5 SHL DUP2 MSTORE PUSH1 0x20 PUSH1 0x4 DUP3 ADD MSTORE PUSH1 0x14 PUSH1 0x24 DUP3 ADD MSTORE PUSH20 0x4E6F7420796F7572206365727469666963617465 PUSH1 0x60 SHL PUSH1 0x44 DUP3 ADD MSTORE PUSH1 0x64 ADD PUSH2 0xC93 JUMP JUMPDEST PUSH1 0x0 DUP5 DUP2 MSTORE PUSH1 0xD PUSH1 0x20 SWAP1 DUP2 MSTORE PUSH1 0x40 DUP1 DUP4 KECCAK256 DUP7 DUP5 MSTORE SWAP1 SWAP2 MSTORE DUP2 KECCAK256 SLOAD SWAP1 DUP2 SWAP1 SUB PUSH2 0x2320 JUMPI PUSH1 0x40 MLOAD PUSH3 0x461BCD PUSH1 0xE5 SHL DUP2 MSTORE PUSH1 0x20 PUSH1 0x4 DUP3 ADD MSTORE PUSH1 0x9 PUSH1 0x24 DUP3 ADD MSTORE PUSH9 0x139BDD08199BDD5B99 PUSH1 0xBA SHL PUSH1 0x44 DUP3 ADD MSTORE PUSH1 0x64 ADD PUSH2 0xC93 JUMP JUMPDEST PUSH1 0xC PUSH1 0x0 DUP3 DUP2 MSTORE PUSH1 0x20 ADD SWAP1 DUP2 MSTORE PUSH1 0x20 ADD PUSH1 0x0 KECCAK256 PUSH1 0x40 MLOAD DUP1 PUSH2 0x100 ADD PUSH1 0x40 MSTORE SWAP1 DUP2 PUSH1 0x0 DUP3 ADD SLOAD DUP2 MSTORE PUSH1 0x20 ADD PUSH1 0x1 DUP3 ADD SLOAD DUP2 MSTORE PUSH1 0x20 ADD PUSH1 0x2 DUP3 ADD SLOAD DUP2 MSTORE PUSH1 0x20 ADD PUSH1 0x3 DUP3 ADD SLOAD DUP2 MSTORE PUSH1 0x20 ADD PUSH1 0x4 DUP3 ADD DUP1 SLOAD PUSH2 0x2377 SWAP1 PUSH2 0x4936 JUMP JUMPDEST DUP1 PUSH1 0x1F ADD PUSH1 0x20 DUP1 SWAP2 DIV MUL PUSH1 0x20 ADD PUSH1 0x40 MLOAD SWAP1 DUP2 ADD PUSH1 0x40 MSTORE DUP1 SWAP3 SWAP2 SWAP1 DUP2 DUP2 MSTORE PUSH1 0x20 ADD DUP3 DUP1 SLOAD PUSH2 0x23A3 SWAP1 PUSH2 0x4936 JUMP JUMPDEST DUP1 ISZERO PUSH2 0x23F0 JUMPI DUP1 PUSH1 0x1F LT PUSH2 0x23C5 JUMPI PUSH2 0x100 DUP1 DUP4 SLOAD DIV MUL DUP4 MSTORE SWAP2 PUSH1 0x20 ADD SWAP2 PUSH2 0x23F0 JUMP JUMPDEST DUP3 ADD SWAP2 SWAP1 PUSH1 0x0 MSTORE PUSH1 0x20 PUSH1 0x0 KECCAK256 SWAP1 JUMPDEST DUP2 SLOAD DUP2 MSTORE SWAP1 PUSH1 0x1 ADD SWAP1 PUSH1 0x20 ADD DUP1 DUP4 GT PUSH2 0x23D3 JUMPI DUP3 SWAP1 SUB PUSH1 0x1F AND DUP3 ADD SWAP2 JUMPDEST POP POP POP SWAP2 DUP4 MSTORE POP POP PUSH1 0x5 DUP3 ADD SLOAD PUSH1 0x20 DUP3 ADD MSTORE PUSH1 0x6 SWAP1 SWAP2 ADD SLOAD PUSH1 0x1 PUSH1 0x1 PUSH1 0xA0 SHL SUB DUP2 AND PUSH1 0x40 DUP4 ADD MSTORE PUSH1 0x1 PUSH1 0xA0 SHL SWAP1 DIV PUSH1 0xFF AND ISZERO ISZERO PUSH1 0x60 SWAP1 SWAP2 ADD MSTORE SWAP6 SWAP5 POP POP POP POP POP JUMP JUMPDEST PUSH1 0x60 PUSH2 0x244C PUSH1 0x0 DUP1 MLOAD PUSH1 0x20 PUSH2 0x4D1C DUP4 CODECOPY DUP2 MLOAD SWAP2 MSTORE CALLER PUSH2 0x215D JUMP JUMPDEST DUP1 PUSH2 0x246A JUMPI POP PUSH2 0x246A PUSH1 0x0 DUP1 MLOAD PUSH1 0x20 PUSH2 0x4CDC DUP4 CODECOPY DUP2 MLOAD SWAP2 MSTORE CALLER PUSH2 0x215D JUMP JUMPDEST PUSH2 0x2486 JUMPI PUSH1 0x40 MLOAD PUSH3 0x461BCD PUSH1 0xE5 SHL DUP2 MSTORE PUSH1 0x4 ADD PUSH2 0xC93 SWAP1 PUSH2 0x496A JUMP JUMPDEST PUSH1 0x0 DUP3 DUP2 MSTORE PUSH1 0x7 PUSH1 0x20 SWAP1 DUP2 MSTORE PUSH1 0x40 SWAP2 DUP3 SWAP1 KECCAK256 DUP1 SLOAD DUP4 MLOAD DUP2 DUP5 MUL DUP2 ADD DUP5 ADD SWAP1 SWAP5 MSTORE DUP1 DUP5 MSTORE SWAP1 SWAP2 DUP4 ADD DUP3 DUP3 DUP1 ISZERO PUSH2 0x1738 JUMPI PUSH1 0x20 MUL DUP3 ADD SWAP2 SWAP1 PUSH1 0x0 MSTORE PUSH1 0x20 PUSH1 0x0 KECCAK256 SWAP1 DUP2 SLOAD DUP2 MSTORE PUSH1 0x20 ADD SWAP1 PUSH1 0x1 ADD SWAP1 DUP1 DUP4 GT PUSH2 0x1724 JUMPI POP POP POP POP POP SWAP1 POP SWAP2 SWAP1 POP JUMP JUMPDEST PUSH1 0x60 PUSH1 0x0 DUP1 PUSH1 0x0 DUP1 PUSH1 0x0 DUP1 MLOAD PUSH1 0x20 PUSH2 0x4D1C DUP4 CODECOPY DUP2 MLOAD SWAP2 MSTORE PUSH2 0x2505 DUP2 CALLER PUSH2 0x215D JUMP JUMPDEST PUSH2 0x2521 JUMPI PUSH1 0x40 MLOAD PUSH3 0x461BCD PUSH1 0xE5 SHL DUP2 MSTORE PUSH1 0x4 ADD PUSH2 0xC93 SWAP1 PUSH2 0x496A JUMP JUMPDEST PUSH1 0x0 DUP8 GT PUSH2 0x2563 JUMPI PUSH1 0x40 MLOAD PUSH3 0x461BCD PUSH1 0xE5 SHL DUP2 MSTORE PUSH1 0x20 PUSH1 0x4 DUP3 ADD MSTORE PUSH1 0xF PUSH1 0x24 DUP3 ADD MSTORE PUSH15 0x125B9D985B1A5908195E185B481251 PUSH1 0x8A SHL PUSH1 0x44 DUP3 ADD MSTORE PUSH1 0x64 ADD PUSH2 0xC93 JUMP JUMPDEST PUSH1 0x0 DUP9 MLOAD GT PUSH2 0x25AB JUMPI PUSH1 0x40 MLOAD PUSH3 0x461BCD PUSH1 0xE5 SHL DUP2 MSTORE PUSH1 0x20 PUSH1 0x4 DUP3 ADD MSTORE PUSH1 0x14 PUSH1 0x24 DUP3 ADD MSTORE PUSH20 0x486173682063616E6E6F7420626520656D707479 PUSH1 0x60 SHL PUSH1 0x44 DUP3 ADD MSTORE PUSH1 0x64 ADD PUSH2 0xC93 JUMP JUMPDEST PUSH1 0x0 DUP8 DUP2 MSTORE PUSH1 0x4 PUSH1 0x20 DUP2 SWAP1 MSTORE PUSH1 0x40 SWAP1 SWAP2 KECCAK256 ADD SLOAD PUSH2 0x100 SWAP1 DIV PUSH1 0xFF AND ISZERO PUSH2 0x2609 JUMPI PUSH1 0x40 MLOAD PUSH3 0x461BCD PUSH1 0xE5 SHL DUP2 MSTORE PUSH1 0x20 PUSH1 0x4 DUP3 ADD MSTORE PUSH1 0x13 PUSH1 0x24 DUP3 ADD MSTORE PUSH19 0x4578616D20616C726561647920657869737473 PUSH1 0x68 SHL PUSH1 0x44 DUP3 ADD MSTORE PUSH1 0x64 ADD PUSH2 0xC93 JUMP JUMPDEST PUSH1 0x40 DUP1 MLOAD PUSH1 0xC0 DUP2 ADD DUP3 MSTORE DUP10 DUP2 MSTORE PUSH1 0x20 DUP1 DUP3 ADD DUP11 SWAP1 MSTORE CALLER DUP3 DUP5 ADD MSTORE TIMESTAMP PUSH1 0x60 DUP4 ADD MSTORE PUSH1 0x0 PUSH1 0x80 DUP4 ADD DUP2 SWAP1 MSTORE PUSH1 0x1 PUSH1 0xA0 DUP5 ADD MSTORE DUP11 DUP2 MSTORE PUSH1 0x4 SWAP1 SWAP2 MSTORE SWAP2 SWAP1 SWAP2 KECCAK256 DUP2 MLOAD DUP2 SWAP1 PUSH2 0x2653 SWAP1 DUP3 PUSH2 0x4B05 JUMP JUMPDEST POP PUSH1 0x20 DUP3 DUP2 ADD MLOAD PUSH1 0x1 DUP1 DUP5 ADD SWAP2 SWAP1 SWAP2 SSTORE PUSH1 0x40 DUP1 DUP6 ADD MLOAD PUSH1 0x2 DUP6 ADD DUP1 SLOAD PUSH1 0x1 PUSH1 0x1 PUSH1 0xA0 SHL SUB SWAP1 SWAP3 AND PUSH1 0x1 PUSH1 0x1 PUSH1 0xA0 SHL SUB NOT SWAP1 SWAP3 AND SWAP2 SWAP1 SWAP2 OR SWAP1 SSTORE PUSH1 0x60 DUP6 ADD MLOAD PUSH1 0x3 DUP6 ADD SSTORE PUSH1 0x80 DUP6 ADD MLOAD PUSH1 0x4 SWAP1 SWAP5 ADD DUP1 SLOAD PUSH1 0xA0 SWAP1 SWAP7 ADD MLOAD ISZERO ISZERO PUSH2 0x100 MUL PUSH2 0xFF00 NOT SWAP6 ISZERO ISZERO SWAP6 SWAP1 SWAP6 AND PUSH2 0xFFFF NOT SWAP1 SWAP7 AND SWAP6 SWAP1 SWAP6 OR SWAP4 SWAP1 SWAP4 OR SWAP1 SWAP4 SSTORE CALLER PUSH1 0x0 SWAP1 DUP2 MSTORE PUSH1 0x5 DUP3 MSTORE SWAP2 DUP3 KECCAK256 DUP1 SLOAD DUP1 DUP6 ADD DUP3 SSTORE SWAP1 DUP4 MSTORE SWAP2 KECCAK256 ADD DUP9 SWAP1 SSTORE PUSH2 0x26F2 SWAP1 NUMBER PUSH2 0x4BDA JUMP JUMPDEST BLOCKHASH CALLER PUSH1 0x1 PUSH1 0x1 PUSH1 0xA0 SHL SUB AND DUP9 PUSH32 0x8B168DDE777687BEDA31F8AD281FA67EBD897C29DF397F83889B3A08B9B53A7E DUP12 TIMESTAMP NUMBER PUSH1 0x40 MLOAD PUSH2 0x2731 SWAP4 SWAP3 SWAP2 SWAP1 PUSH2 0x4BED JUMP JUMPDEST PUSH1 0x40 MLOAD DUP1 SWAP2 SUB SWAP1 LOG4 POP SWAP6 SWAP7 SWAP5 SWAP6 POP CALLER SWAP5 TIMESTAMP SWAP5 POP PUSH1 0x1 SWAP4 POP SWAP2 POP POP JUMP JUMPDEST PUSH1 0x7 PUSH1 0x20 MSTORE DUP2 PUSH1 0x0 MSTORE PUSH1 0x40 PUSH1 0x0 KECCAK256 DUP2 DUP2 SLOAD DUP2 LT PUSH2 0x1E5C JUMPI PUSH1 0x0 DUP1 REVERT JUMPDEST PUSH1 0x0 PUSH1 0x0 DUP1 MLOAD PUSH1 0x20 PUSH2 0x4CDC DUP4 CODECOPY DUP2 MLOAD SWAP2 MSTORE PUSH2 0x2784 DUP2 CALLER PUSH2 0x215D JUMP JUMPDEST PUSH2 0x27A0 JUMPI PUSH1 0x40 MLOAD PUSH3 0x461BCD PUSH1 0xE5 SHL DUP2 MSTORE PUSH1 0x4 ADD PUSH2 0xC93 SWAP1 PUSH2 0x496A JUMP JUMPDEST PUSH1 0x0 DUP5 DUP2 MSTORE PUSH1 0x4 PUSH1 0x20 DUP2 SWAP1 MSTORE PUSH1 0x40 SWAP1 SWAP2 KECCAK256 ADD SLOAD PUSH2 0x100 SWAP1 DIV PUSH1 0xFF AND PUSH2 0x27D7 JUMPI PUSH1 0x40 MLOAD PUSH3 0x461BCD PUSH1 0xE5 SHL DUP2 MSTORE PUSH1 0x4 ADD PUSH2 0xC93 SWAP1 PUSH2 0x4991 JUMP JUMPDEST PUSH1 0x0 DUP6 DUP2 MSTORE PUSH1 0x6 PUSH1 0x20 DUP2 DUP2 MSTORE PUSH1 0x40 DUP1 DUP5 KECCAK256 DUP9 DUP6 MSTORE SWAP1 SWAP2 MSTORE SWAP1 SWAP2 KECCAK256 ADD SLOAD PUSH1 0xFF AND PUSH2 0x2838 JUMPI PUSH1 0x40 MLOAD PUSH3 0x461BCD PUSH1 0xE5 SHL DUP2 MSTORE PUSH1 0x20 PUSH1 0x4 DUP3 ADD MSTORE PUSH1 0x13 PUSH1 0x24 DUP3 ADD MSTORE PUSH19 0x14D8DBDC99481B9BDD08199A5B985B1A5E9959 PUSH1 0x6A SHL PUSH1 0x44 DUP3 ADD MSTORE PUSH1 0x64 ADD PUSH2 0xC93 JUMP JUMPDEST PUSH1 0x0 DUP6 DUP2 MSTORE PUSH1 0xD PUSH1 0x20 SWAP1 DUP2 MSTORE PUSH1 0x40 DUP1 DUP4 KECCAK256 DUP8 DUP5 MSTORE SWAP1 SWAP2 MSTORE SWAP1 KECCAK256 SLOAD ISZERO PUSH2 0x289F JUMPI PUSH1 0x40 MLOAD PUSH3 0x461BCD PUSH1 0xE5 SHL DUP2 MSTORE PUSH1 0x20 PUSH1 0x4 DUP3 ADD MSTORE PUSH1 0x1A PUSH1 0x24 DUP3 ADD MSTORE PUSH32 0x436572746966696361746520616C726561647920657869737473000000000000 PUSH1 0x44 DUP3 ADD MSTORE PUSH1 0x64 ADD PUSH2 0xC93 JUMP JUMPDEST PUSH1 0x0 DUP6 DUP2 MSTORE PUSH1 0x2 PUSH1 0x20 MSTORE PUSH1 0x40 SWAP1 KECCAK256 SLOAD PUSH1 0x1 PUSH1 0x1 PUSH1 0xA0 SHL SUB AND PUSH2 0x2903 JUMPI PUSH1 0x40 MLOAD PUSH3 0x461BCD PUSH1 0xE5 SHL DUP2 MSTORE PUSH1 0x20 PUSH1 0x4 DUP3 ADD MSTORE PUSH1 0x17 PUSH1 0x24 DUP3 ADD MSTORE PUSH32 0x53747564656E742061646472657373206D697373696E67000000000000000000 PUSH1 0x44 DUP3 ADD MSTORE PUSH1 0x64 ADD PUSH2 0xC93 JUMP JUMPDEST PUSH1 0x0 DUP4 MLOAD GT PUSH2 0x2940 JUMPI PUSH1 0x40 MLOAD PUSH3 0x461BCD PUSH1 0xE5 SHL DUP2 MSTORE PUSH1 0x20 PUSH1 0x4 DUP3 ADD MSTORE PUSH1 0x9 PUSH1 0x24 DUP3 ADD MSTORE PUSH9 0x55524920656D707479 PUSH1 0xB8 SHL PUSH1 0x44 DUP3 ADD MSTORE PUSH1 0x64 ADD PUSH2 0xC93 JUMP JUMPDEST PUSH1 0xB DUP1 SLOAD SWAP1 PUSH1 0x0 PUSH2 0x2950 DUP4 PUSH2 0x4C12 JUMP JUMPDEST SWAP1 SWAP2 SSTORE POP POP PUSH1 0xB SLOAD PUSH1 0x0 DUP7 DUP2 MSTORE PUSH1 0x2 PUSH1 0x20 MSTORE PUSH1 0x40 SWAP1 KECCAK256 SLOAD PUSH1 0x1 PUSH1 0x1 PUSH1 0xA0 SHL SUB AND PUSH2 0x297A DUP2 DUP4 PUSH2 0x4055 JUMP JUMPDEST PUSH1 0x40 DUP1 MLOAD PUSH2 0x100 DUP2 ADD DUP3 MSTORE DUP4 DUP2 MSTORE PUSH1 0x20 DUP1 DUP3 ADD DUP11 DUP2 MSTORE DUP3 DUP5 ADD DUP11 DUP2 MSTORE PUSH1 0x0 DUP13 DUP2 MSTORE PUSH1 0x6 DUP5 MSTORE DUP6 DUP2 KECCAK256 DUP13 DUP3 MSTORE DUP5 MSTORE DUP6 DUP2 KECCAK256 PUSH1 0x2 SWAP1 DUP2 ADD SLOAD PUSH1 0x60 DUP8 ADD SWAP1 DUP2 MSTORE PUSH1 0x80 DUP8 ADD DUP14 DUP2 MSTORE TIMESTAMP PUSH1 0xA0 DUP10 ADD MSTORE CALLER PUSH1 0xC0 DUP10 ADD MSTORE PUSH1 0x1 PUSH1 0xE0 DUP10 ADD DUP2 SWAP1 MSTORE DUP12 DUP6 MSTORE PUSH1 0xC SWAP1 SWAP8 MSTORE SWAP8 SWAP1 SWAP3 KECCAK256 DUP7 MLOAD DUP2 SSTORE SWAP4 MLOAD SWAP5 DUP5 ADD SWAP5 SWAP1 SWAP5 SSTORE SWAP1 MLOAD SWAP3 DUP3 ADD SWAP3 SWAP1 SWAP3 SSTORE SWAP1 MLOAD PUSH1 0x3 DUP3 ADD SSTORE SWAP2 MLOAD SWAP1 SWAP2 SWAP1 PUSH1 0x4 DUP3 ADD SWAP1 PUSH2 0x2A10 SWAP1 DUP3 PUSH2 0x4B05 JUMP JUMPDEST POP PUSH1 0xA0 DUP3 ADD MLOAD PUSH1 0x5 DUP3 ADD SSTORE PUSH1 0xC0 DUP3 ADD MLOAD PUSH1 0x6 SWAP1 SWAP2 ADD DUP1 SLOAD PUSH1 0xE0 SWAP1 SWAP4 ADD MLOAD ISZERO ISZERO PUSH1 0x1 PUSH1 0xA0 SHL MUL PUSH1 0x1 PUSH1 0x1 PUSH1 0xA8 SHL SUB NOT SWAP1 SWAP4 AND PUSH1 0x1 PUSH1 0x1 PUSH1 0xA0 SHL SUB SWAP1 SWAP3 AND SWAP2 SWAP1 SWAP2 OR SWAP2 SWAP1 SWAP2 OR SWAP1 SSTORE PUSH1 0x0 DUP8 DUP2 MSTORE PUSH1 0xD PUSH1 0x20 SWAP1 DUP2 MSTORE PUSH1 0x40 DUP1 DUP4 KECCAK256 DUP10 DUP5 MSTORE DUP3 MSTORE SWAP2 DUP3 SWAP1 KECCAK256 DUP5 SWAP1 SSTORE SWAP1 MLOAD CALLER DUP2 MSTORE DUP8 SWAP2 DUP10 SWAP2 DUP6 SWAP2 PUSH32 0x8AC7002EFA82D166D2EE18D556AA13A196BCC010F8C9622DD8C08D769BA03F04 SWAP2 ADD PUSH1 0x40 MLOAD DUP1 SWAP2 SUB SWAP1 LOG4 POP SWAP6 SWAP5 POP POP POP POP POP JUMP JUMPDEST PUSH2 0x2ACB PUSH1 0x0 DUP1 MLOAD PUSH1 0x20 PUSH2 0x4CDC DUP4 CODECOPY DUP2 MLOAD SWAP2 MSTORE CALLER PUSH2 0x215D JUMP JUMPDEST DUP1 PUSH2 0x2AE9 JUMPI POP PUSH2 0x2AE9 PUSH1 0x0 DUP1 MLOAD PUSH1 0x20 PUSH2 0x4D1C DUP4 CODECOPY DUP2 MLOAD SWAP2 MSTORE CALLER PUSH2 0x215D JUMP JUMPDEST PUSH2 0x2B35 JUMPI PUSH1 0x40 MLOAD PUSH3 0x461BCD PUSH1 0xE5 SHL DUP2 MSTORE PUSH1 0x20 PUSH1 0x4 DUP3 ADD DUP2 SWAP1 MSTORE PUSH1 0x24 DUP3 ADD MSTORE PUSH32 0x43616C6C6572206D7573742062652061646D696E206F72206C65637475726572 PUSH1 0x44 DUP3 ADD MSTORE PUSH1 0x64 ADD PUSH2 0xC93 JUMP JUMPDEST PUSH1 0x0 DUP2 DUP2 MSTORE PUSH1 0x4 PUSH1 0x20 DUP2 SWAP1 MSTORE PUSH1 0x40 SWAP1 SWAP2 KECCAK256 ADD SLOAD PUSH2 0x100 SWAP1 DIV PUSH1 0xFF AND PUSH2 0x2B6C JUMPI PUSH1 0x40 MLOAD PUSH3 0x461BCD PUSH1 0xE5 SHL DUP2 MSTORE PUSH1 0x4 ADD PUSH2 0xC93 SWAP1 PUSH2 0x4991 JUMP JUMPDEST PUSH1 0x0 DUP2 DUP2 MSTORE PUSH1 0x4 PUSH1 0x20 MSTORE PUSH1 0x40 SWAP1 KECCAK256 PUSH1 0x2 ADD SLOAD PUSH1 0x1 PUSH1 0x1 PUSH1 0xA0 SHL SUB AND CALLER EQ DUP1 PUSH2 0x2BA7 JUMPI POP PUSH2 0x2BA7 PUSH1 0x0 DUP1 MLOAD PUSH1 0x20 PUSH2 0x4D1C DUP4 CODECOPY DUP2 MLOAD SWAP2 MSTORE CALLER PUSH2 0x215D JUMP JUMPDEST PUSH2 0x2BFF JUMPI PUSH1 0x40 MLOAD PUSH3 0x461BCD PUSH1 0xE5 SHL DUP2 MSTORE PUSH1 0x20 PUSH1 0x4 DUP3 ADD MSTORE PUSH1 0x23 PUSH1 0x24 DUP3 ADD MSTORE PUSH32 0x4F6E6C79206578616D2063726561746F72206F722061646D696E2063616E206C PUSH1 0x44 DUP3 ADD MSTORE PUSH3 0x6F636B PUSH1 0xE8 SHL PUSH1 0x64 DUP3 ADD MSTORE PUSH1 0x84 ADD PUSH2 0xC93 JUMP JUMPDEST PUSH1 0x0 DUP2 DUP2 MSTORE PUSH1 0x4 PUSH1 0x20 DUP2 SWAP1 MSTORE PUSH1 0x40 DUP1 DUP4 KECCAK256 SWAP1 SWAP2 ADD DUP1 SLOAD PUSH1 0xFF NOT AND PUSH1 0x1 OR SWAP1 SSTORE MLOAD CALLER SWAP2 DUP4 SWAP2 PUSH32 0x538044B65B113F681756F903257FF1744163F47A51EA8DE3F4D081196D4E2D37 SWAP2 SWAP1 LOG3 POP JUMP JUMPDEST PUSH2 0x2C52 PUSH2 0x4186 JUMP JUMPDEST PUSH1 0x0 DUP1 MLOAD PUSH1 0x20 PUSH2 0x4CFC DUP4 CODECOPY DUP2 MLOAD SWAP2 MSTORE PUSH2 0x2C6B DUP2 CALLER PUSH2 0x215D JUMP JUMPDEST PUSH2 0x2C87 JUMPI PUSH1 0x40 MLOAD PUSH3 0x461BCD PUSH1 0xE5 SHL DUP2 MSTORE PUSH1 0x4 ADD PUSH2 0xC93 SWAP1 PUSH2 0x496A JUMP JUMPDEST PUSH1 0x0 DUP5 DUP2 MSTORE PUSH1 0xD PUSH1 0x20 SWAP1 DUP2 MSTORE PUSH1 0x40 DUP1 DUP4 KECCAK256 DUP7 DUP5 MSTORE SWAP1 SWAP2 MSTORE DUP2 KECCAK256 SLOAD SWAP1 DUP2 SWAP1 SUB PUSH2 0x2320 JUMPI PUSH1 0x40 MLOAD PUSH3 0x461BCD PUSH1 0xE5 SHL DUP2 MSTORE PUSH1 0x20 PUSH1 0x4 DUP3 ADD MSTORE PUSH1 0x15 PUSH1 0x24 DUP3 ADD MSTORE PUSH21 0x10D95C9D1A599A58D85D19481B9BDD08199BDD5B99 PUSH1 0x5A SHL PUSH1 0x44 DUP3 ADD MSTORE PUSH1 0x64 ADD PUSH2 0xC93 JUMP JUMPDEST PUSH1 0x0 DUP1 MLOAD PUSH1 0x20 PUSH2 0x4D1C DUP4 CODECOPY DUP2 MLOAD SWAP2 MSTORE PUSH2 0x2D02 DUP2 CALLER PUSH2 0x215D JUMP JUMPDEST PUSH2 0x2D1E JUMPI PUSH1 0x40 MLOAD PUSH3 0x461BCD PUSH1 0xE5 SHL DUP2 MSTORE PUSH1 0x4 ADD PUSH2 0xC93 SWAP1 PUSH2 0x496A JUMP JUMPDEST PUSH1 0x0 DUP3 DUP2 MSTORE PUSH1 0x14 PUSH1 0x20 MSTORE PUSH1 0x40 SWAP1 KECCAK256 PUSH1 0x3 ADD SLOAD PUSH2 0x100 SWAP1 DIV PUSH1 0xFF AND PUSH2 0x2D54 JUMPI PUSH1 0x40 MLOAD PUSH3 0x461BCD PUSH1 0xE5 SHL DUP2 MSTORE PUSH1 0x4 ADD PUSH2 0xC93 SWAP1 PUSH2 0x49EC JUMP JUMPDEST PUSH1 0x0 DUP3 DUP2 MSTORE PUSH1 0x14 PUSH1 0x20 MSTORE PUSH1 0x40 SWAP1 KECCAK256 PUSH1 0x3 ADD SLOAD PUSH1 0xFF AND PUSH2 0x2DAB JUMPI PUSH1 0x40 MLOAD PUSH3 0x461BCD PUSH1 0xE5 SHL DUP2 MSTORE PUSH1 0x20 PUSH1 0x4 DUP3 ADD MSTORE PUSH1 0x13 PUSH1 0x24 DUP3 ADD MSTORE PUSH19 0x15195CDD081A5CC81B9BDD08189B1BD8DAD959 PUSH1 0x6A SHL PUSH1 0x44 DUP3 ADD MSTORE PUSH1 0x64 ADD PUSH2 0xC93 JUMP JUMPDEST PUSH1 0x0 DUP3 DUP2 MSTORE PUSH1 0x14 PUSH1 0x20 MSTORE PUSH1 0x40 DUP1 DUP3 KECCAK256 PUSH1 0x3 ADD DUP1 SLOAD PUSH1 0xFF NOT AND SWAP1 SSTORE MLOAD CALLER SWAP2 DUP5 SWAP2 PUSH32 0xA2196D3F06A62B0C168A42AF7E270A2E40B8715051F911625060D32CDD59A258 SWAP2 SWAP1 LOG3 POP POP JUMP JUMPDEST PUSH1 0x0 DUP2 DUP2 MSTORE PUSH1 0xE PUSH1 0x20 MSTORE PUSH1 0x40 SWAP1 KECCAK256 SLOAD PUSH1 0x60 SWAP1 PUSH1 0x1 PUSH1 0x1 PUSH1 0xA0 SHL SUB AND PUSH2 0x2E50 JUMPI PUSH1 0x40 MLOAD PUSH3 0x461BCD PUSH1 0xE5 SHL DUP2 MSTORE PUSH1 0x20 PUSH1 0x4 DUP3 ADD MSTORE PUSH1 0x14 PUSH1 0x24 DUP3 ADD MSTORE PUSH20 0x151BDAD95B88191BD95CC81B9BDD08195E1A5CDD PUSH1 0x62 SHL PUSH1 0x44 DUP3 ADD MSTORE PUSH1 0x64 ADD PUSH2 0xC93 JUMP JUMPDEST PUSH1 0x0 DUP3 DUP2 MSTORE PUSH1 0xC PUSH1 0x20 MSTORE PUSH1 0x40 SWAP1 KECCAK256 PUSH1 0x4 ADD DUP1 SLOAD PUSH2 0x2E6C SWAP1 PUSH2 0x4936 JUMP JUMPDEST DUP1 PUSH1 0x1F ADD PUSH1 0x20 DUP1 SWAP2 DIV MUL PUSH1 0x20 ADD PUSH1 0x40 MLOAD SWAP1 DUP2 ADD PUSH1 0x40 MSTORE DUP1 SWAP3 SWAP2 SWAP1 DUP2 DUP2 MSTORE PUSH1 0x20 ADD DUP3 DUP1 SLOAD PUSH2 0x2E98 SWAP1 PUSH2 0x4936 JUMP JUMPDEST DUP1 ISZERO PUSH2 0x1738 JUMPI DUP1 PUSH1 0x1F LT PUSH2 0x2EBA JUMPI PUSH2 0x100 DUP1 DUP4 SLOAD DIV MUL DUP4 MSTORE SWAP2 PUSH1 0x20 ADD SWAP2 PUSH2 0x1738 JUMP JUMPDEST DUP3 ADD SWAP2 SWAP1 PUSH1 0x0 MSTORE PUSH1 0x20 PUSH1 0x0 KECCAK256 SWAP1 JUMPDEST DUP2 SLOAD DUP2 MSTORE SWAP1 PUSH1 0x1 ADD SWAP1 PUSH1 0x20 ADD DUP1 DUP4 GT PUSH2 0x2EC8 JUMPI POP SWAP4 SWAP7 SWAP6 POP POP POP POP POP POP JUMP JUMPDEST PUSH1 0x0 DUP1 MLOAD PUSH1 0x20 PUSH2 0x4D1C DUP4 CODECOPY DUP2 MLOAD SWAP2 MSTORE PUSH2 0x2F00 DUP2 CALLER PUSH2 0x215D JUMP JUMPDEST PUSH2 0x2F1C JUMPI PUSH1 0x40 MLOAD PUSH3 0x461BCD PUSH1 0xE5 SHL DUP2 MSTORE PUSH1 0x4 ADD PUSH2 0xC93 SWAP1 PUSH2 0x496A JUMP JUMPDEST PUSH2 0xE1F PUSH1 0x0 DUP1 MLOAD PUSH1 0x20 PUSH2 0x4CBC DUP4 CODECOPY DUP2 MLOAD SWAP2 MSTORE DUP4 PUSH2 0x3F89 JUMP JUMPDEST PUSH1 0x0 DUP1 MLOAD PUSH1 0x20 PUSH2 0x4CBC DUP4 CODECOPY DUP2 MLOAD SWAP2 MSTORE PUSH2 0x2F4D DUP2 CALLER PUSH2 0x215D JUMP JUMPDEST PUSH2 0x2F69 JUMPI PUSH1 0x40 MLOAD PUSH3 0x461BCD PUSH1 0xE5 SHL DUP2 MSTORE PUSH1 0x4 ADD PUSH2 0xC93 SWAP1 PUSH2 0x496A JUMP JUMPDEST PUSH1 0x0 DUP5 DUP2 MSTORE PUSH1 0x2 PUSH1 0x20 MSTORE PUSH1 0x40 SWAP1 KECCAK256 SLOAD PUSH1 0x1 PUSH1 0x1 PUSH1 0xA0 SHL SUB AND CALLER EQ PUSH2 0x2FCF JUMPI PUSH1 0x40 MLOAD PUSH3 0x461BCD PUSH1 0xE5 SHL DUP2 MSTORE PUSH1 0x20 PUSH1 0x4 DUP3 ADD MSTORE PUSH1 0x1D PUSH1 0x24 DUP3 ADD MSTORE PUSH32 0x43616E206F6E6C79207265717565737420666F7220796F757273656C66000000 PUSH1 0x44 DUP3 ADD MSTORE PUSH1 0x64 ADD PUSH2 0xC93 JUMP JUMPDEST PUSH1 0x0 DUP4 DUP2 MSTORE PUSH1 0x4 PUSH1 0x20 DUP2 SWAP1 MSTORE PUSH1 0x40 SWAP1 SWAP2 KECCAK256 ADD SLOAD PUSH2 0x100 SWAP1 DIV PUSH1 0xFF AND PUSH2 0x3006 JUMPI PUSH1 0x40 MLOAD PUSH3 0x461BCD PUSH1 0xE5 SHL DUP2 MSTORE PUSH1 0x4 ADD PUSH2 0xC93 SWAP1 PUSH2 0x4991 JUMP JUMPDEST PUSH1 0x0 DUP5 DUP2 MSTORE PUSH1 0x6 PUSH1 0x20 SWAP1 DUP2 MSTORE PUSH1 0x40 DUP1 DUP4 KECCAK256 DUP7 DUP5 MSTORE SWAP1 SWAP2 MSTORE DUP2 KECCAK256 SLOAD SWAP1 SUB PUSH2 0x3060 JUMPI PUSH1 0x40 MLOAD PUSH3 0x461BCD PUSH1 0xE5 SHL DUP2 MSTORE PUSH1 0x20 PUSH1 0x4 DUP3 ADD MSTORE PUSH1 0xF PUSH1 0x24 DUP3 ADD MSTORE PUSH15 0x14D8DBDC99481B9BDD08199BDD5B99 PUSH1 0x8A SHL PUSH1 0x44 DUP3 ADD MSTORE PUSH1 0x64 ADD PUSH2 0xC93 JUMP JUMPDEST PUSH1 0x0 DUP5 DUP2 MSTORE PUSH1 0x8 PUSH1 0x20 SWAP1 DUP2 MSTORE PUSH1 0x40 DUP1 DUP4 KECCAK256 DUP7 DUP5 MSTORE SWAP1 SWAP2 MSTORE SWAP1 KECCAK256 PUSH1 0x9 ADD SLOAD PUSH1 0xFF AND ISZERO PUSH2 0x30C0 JUMPI PUSH1 0x40 MLOAD PUSH3 0x461BCD PUSH1 0xE5 SHL DUP2 MSTORE PUSH1 0x20 PUSH1 0x4 DUP3 ADD MSTORE PUSH1 0x10 PUSH1 0x24 DUP3 ADD MSTORE PUSH16 0x105B1C9958591E481C995D9A595DD959 PUSH1 0x82 SHL PUSH1 0x44 DUP3 ADD MSTORE PUSH1 0x64 ADD PUSH2 0xC93 JUMP JUMPDEST PUSH1 0x0 DUP3 MLOAD GT PUSH2 0x3103 JUMPI PUSH1 0x40 MLOAD PUSH3 0x461BCD PUSH1 0xE5 SHL DUP2 MSTORE PUSH1 0x20 PUSH1 0x4 DUP3 ADD MSTORE PUSH1 0xF PUSH1 0x24 DUP3 ADD MSTORE PUSH15 0x1499585CDBDB881C995C5D5A5C9959 PUSH1 0x8A SHL PUSH1 0x44 DUP3 ADD MSTORE PUSH1 0x64 ADD PUSH2 0xC93 JUMP JUMPDEST PUSH1 0x0 DUP5 DUP2 MSTORE PUSH1 0x6 PUSH1 0x20 SWAP1 DUP2 MSTORE PUSH1 0x40 DUP1 DUP4 KECCAK256 DUP7 DUP5 MSTORE DUP3 MSTORE DUP1 DUP4 KECCAK256 PUSH1 0x2 SWAP1 DUP2 ADD SLOAD DUP3 MLOAD PUSH2 0x140 DUP2 ADD DUP5 MSTORE DUP10 DUP2 MSTORE DUP1 DUP6 ADD DUP10 DUP2 MSTORE TIMESTAMP DUP3 DUP7 ADD SWAP1 DUP2 MSTORE DUP6 MLOAD DUP1 DUP8 ADD DUP8 MSTORE PUSH1 0x7 DUP2 MSTORE PUSH7 0x50454E44494E47 PUSH1 0xC8 SHL DUP2 DUP10 ADD MSTORE PUSH1 0x60 DUP5 ADD SWAP1 DUP2 MSTORE PUSH1 0x80 DUP5 ADD DUP6 SWAP1 MSTORE PUSH1 0xA0 DUP5 ADD DUP10 SWAP1 MSTORE PUSH1 0xC0 DUP5 ADD DUP12 SWAP1 MSTORE PUSH1 0xE0 DUP5 ADD DUP10 SWAP1 MSTORE PUSH2 0x100 DUP5 ADD DUP10 SWAP1 MSTORE PUSH2 0x120 DUP5 ADD DUP10 SWAP1 MSTORE DUP13 DUP10 MSTORE PUSH1 0x8 DUP9 MSTORE DUP7 DUP10 KECCAK256 DUP13 DUP11 MSTORE SWAP1 SWAP8 MSTORE SWAP5 SWAP1 SWAP7 KECCAK256 DUP2 MLOAD DUP2 SSTORE SWAP6 MLOAD PUSH1 0x1 DUP8 ADD SSTORE SWAP3 MLOAD SWAP2 DUP6 ADD SWAP2 SWAP1 SWAP2 SSTORE SWAP2 MLOAD SWAP2 SWAP3 SWAP1 SWAP2 PUSH1 0x3 DUP3 ADD SWAP1 PUSH2 0x31C5 SWAP1 DUP3 PUSH2 0x4B05 JUMP JUMPDEST POP PUSH1 0x80 DUP3 ADD MLOAD PUSH1 0x4 DUP3 ADD SSTORE PUSH1 0xA0 DUP3 ADD MLOAD PUSH1 0x5 DUP3 ADD SSTORE PUSH1 0xC0 DUP3 ADD MLOAD PUSH1 0x6 DUP3 ADD SWAP1 PUSH2 0x31EE SWAP1 DUP3 PUSH2 0x4B05 JUMP JUMPDEST POP PUSH1 0xE0 DUP3 ADD MLOAD PUSH1 0x7 DUP3 ADD DUP1 SLOAD PUSH1 0x1 PUSH1 0x1 PUSH1 0xA0 SHL SUB NOT AND PUSH1 0x1 PUSH1 0x1 PUSH1 0xA0 SHL SUB SWAP1 SWAP3 AND SWAP2 SWAP1 SWAP2 OR SWAP1 SSTORE PUSH2 0x100 DUP3 ADD MLOAD PUSH1 0x8 DUP3 ADD SSTORE PUSH2 0x120 SWAP1 SWAP2 ADD MLOAD PUSH1 0x9 SWAP1 SWAP2 ADD DUP1 SLOAD PUSH1 0xFF NOT AND SWAP2 ISZERO ISZERO SWAP2 SWAP1 SWAP2 OR SWAP1 SSTORE PUSH1 0x40 MLOAD DUP5 SWAP1 DUP7 SWAP1 PUSH32 0x39F367466B9C76EB50C2FD96892CAFE4148ED40A44DAC7D3DA0B4141BBC31ABD SWAP1 PUSH2 0x3271 SWAP1 DUP6 SWAP1 DUP9 SWAP1 PUSH2 0x4C2B JUMP JUMPDEST PUSH1 0x40 MLOAD DUP1 SWAP2 SUB SWAP1 LOG3 POP POP POP POP POP JUMP JUMPDEST PUSH1 0x0 DUP1 MLOAD PUSH1 0x20 PUSH2 0x4CDC DUP4 CODECOPY DUP2 MLOAD SWAP2 MSTORE PUSH2 0x3299 DUP2 CALLER PUSH2 0x215D JUMP JUMPDEST PUSH2 0x32B5 JUMPI PUSH1 0x40 MLOAD PUSH3 0x461BCD PUSH1 0xE5 SHL DUP2 MSTORE PUSH1 0x4 ADD PUSH2 0xC93 SWAP1 PUSH2 0x496A JUMP JUMPDEST PUSH1 0x0 DUP3 DUP2 MSTORE PUSH1 0x4 PUSH1 0x20 DUP2 SWAP1 MSTORE PUSH1 0x40 SWAP1 SWAP2 KECCAK256 ADD SLOAD PUSH2 0x100 SWAP1 DIV PUSH1 0xFF AND PUSH2 0x32EC JUMPI PUSH1 0x40 MLOAD PUSH3 0x461BCD PUSH1 0xE5 SHL DUP2 MSTORE PUSH1 0x4 ADD PUSH2 0xC93 SWAP1 PUSH2 0x4991 JUMP JUMPDEST PUSH1 0x0 DUP4 DUP2 MSTORE PUSH1 0x6 PUSH1 0x20 SWAP1 DUP2 MSTORE PUSH1 0x40 DUP1 DUP4 KECCAK256 DUP6 DUP5 MSTORE SWAP1 SWAP2 MSTORE DUP2 KECCAK256 SLOAD SWAP1 SUB PUSH2 0x334B JUMPI PUSH1 0x40 MLOAD PUSH3 0x461BCD PUSH1 0xE5 SHL DUP2 MSTORE PUSH1 0x20 PUSH1 0x4 DUP3 ADD MSTORE PUSH1 0x14 PUSH1 0x24 DUP3 ADD MSTORE PUSH20 0x14D8DBDC9948191BD95CC81B9BDD08195E1A5CDD PUSH1 0x62 SHL PUSH1 0x44 DUP3 ADD MSTORE PUSH1 0x64 ADD PUSH2 0xC93 JUMP JUMPDEST PUSH1 0x0 DUP4 DUP2 MSTORE PUSH1 0x6 PUSH1 0x20 DUP2 DUP2 MSTORE PUSH1 0x40 DUP1 DUP5 KECCAK256 DUP7 DUP6 MSTORE SWAP1 SWAP2 MSTORE SWAP1 SWAP2 KECCAK256 ADD SLOAD PUSH1 0xFF AND ISZERO PUSH2 0x33AB JUMPI PUSH1 0x40 MLOAD PUSH3 0x461BCD PUSH1 0xE5 SHL DUP2 MSTORE PUSH1 0x20 PUSH1 0x4 DUP3 ADD MSTORE PUSH1 0x11 PUSH1 0x24 DUP3 ADD MSTORE PUSH17 0x105B1C9958591E48199A5B985B1A5E9959 PUSH1 0x7A SHL PUSH1 0x44 DUP3 ADD MSTORE PUSH1 0x64 ADD PUSH2 0xC93 JUMP JUMPDEST PUSH1 0x0 DUP4 DUP2 MSTORE PUSH1 0x6 PUSH1 0x20 DUP2 DUP2 MSTORE PUSH1 0x40 DUP1 DUP5 KECCAK256 DUP7 DUP6 MSTORE SWAP1 SWAP2 MSTORE DUP1 DUP4 KECCAK256 SWAP1 SWAP2 ADD DUP1 SLOAD PUSH1 0xFF NOT AND PUSH1 0x1 OR SWAP1 SSTORE MLOAD CALLER SWAP2 DUP5 SWAP2 DUP7 SWAP2 PUSH32 0x36E84E8C8AE4287078A0AA64E46E7661513FEB5FFF8CB2511388AA21E20965AC SWAP2 LOG4 POP POP POP JUMP JUMPDEST PUSH1 0x0 DUP1 MLOAD PUSH1 0x20 PUSH2 0x4D1C DUP4 CODECOPY DUP2 MLOAD SWAP2 MSTORE PUSH2 0x341B DUP2 CALLER PUSH2 0x215D JUMP JUMPDEST PUSH2 0x3437 JUMPI PUSH1 0x40 MLOAD PUSH3 0x461BCD PUSH1 0xE5 SHL DUP2 MSTORE PUSH1 0x4 ADD PUSH2 0xC93 SWAP1 PUSH2 0x496A JUMP JUMPDEST PUSH1 0x0 DUP4 GT PUSH2 0x3457 JUMPI PUSH1 0x40 MLOAD PUSH3 0x461BCD PUSH1 0xE5 SHL DUP2 MSTORE PUSH1 0x4 ADD PUSH2 0xC93 SWAP1 PUSH2 0x4A19 JUMP JUMPDEST PUSH1 0x1 PUSH1 0x1 PUSH1 0xA0 SHL SUB DUP3 AND PUSH2 0x347D JUMPI PUSH1 0x40 MLOAD PUSH3 0x461BCD PUSH1 0xE5 SHL DUP2 MSTORE PUSH1 0x4 ADD PUSH2 0xC93 SWAP1 PUSH2 0x4A45 JUMP JUMPDEST PUSH1 0x0 DUP4 DUP2 MSTORE PUSH1 0x2 PUSH1 0x20 MSTORE PUSH1 0x40 SWAP1 KECCAK256 SLOAD PUSH1 0x1 PUSH1 0x1 PUSH1 0xA0 SHL SUB AND ISZERO PUSH2 0x34E2 JUMPI PUSH1 0x40 MLOAD PUSH3 0x461BCD PUSH1 0xE5 SHL DUP2 MSTORE PUSH1 0x20 PUSH1 0x4 DUP3 ADD MSTORE PUSH1 0x1B PUSH1 0x24 DUP3 ADD MSTORE PUSH32 0x53747564656E74206164647265737320616C7265616479207365740000000000 PUSH1 0x44 DUP3 ADD MSTORE PUSH1 0x64 ADD PUSH2 0xC93 JUMP JUMPDEST PUSH1 0x1 PUSH1 0x1 PUSH1 0xA0 SHL SUB DUP3 AND PUSH1 0x0 SWAP1 DUP2 MSTORE PUSH1 0x3 PUSH1 0x20 MSTORE PUSH1 0x40 SWAP1 KECCAK256 SLOAD ISZERO PUSH2 0x3518 JUMPI PUSH1 0x40 MLOAD PUSH3 0x461BCD PUSH1 0xE5 SHL DUP2 MSTORE PUSH1 0x4 ADD PUSH2 0xC93 SWAP1 PUSH2 0x4A6E JUMP JUMPDEST PUSH1 0x0 DUP4 DUP2 MSTORE PUSH1 0x2 PUSH1 0x20 SWAP1 DUP2 MSTORE PUSH1 0x40 DUP1 DUP4 KECCAK256 DUP1 SLOAD PUSH1 0x1 PUSH1 0x1 PUSH1 0xA0 SHL SUB NOT AND PUSH1 0x1 PUSH1 0x1 PUSH1 0xA0 SHL SUB DUP8 AND SWAP1 DUP2 OR SWAP1 SWAP2 SSTORE DUP1 DUP5 MSTORE PUSH1 0x3 DUP4 MSTORE SWAP3 DUP2 SWAP1 KECCAK256 DUP7 SWAP1 SSTORE MLOAD CALLER DUP2 MSTORE DUP6 SWAP2 PUSH32 0xD9CC4835D96FC4B2AFB6DB1577A9677A621088CDEE0C53DA65076951D88BE32F SWAP2 ADD PUSH2 0x11A7 JUMP JUMPDEST PUSH2 0x3589 PUSH2 0x41D6 JUMP JUMPDEST PUSH1 0x0 DUP1 MLOAD PUSH1 0x20 PUSH2 0x4CBC DUP4 CODECOPY DUP2 MLOAD SWAP2 MSTORE PUSH2 0x35A2 DUP2 CALLER PUSH2 0x215D JUMP JUMPDEST PUSH2 0x35BE JUMPI PUSH1 0x40 MLOAD PUSH3 0x461BCD PUSH1 0xE5 SHL DUP2 MSTORE PUSH1 0x4 ADD PUSH2 0xC93 SWAP1 PUSH2 0x496A JUMP JUMPDEST CALLER PUSH1 0x0 SWAP1 DUP2 MSTORE PUSH1 0x3 PUSH1 0x20 MSTORE PUSH1 0x40 SWAP1 KECCAK256 SLOAD DUP1 PUSH2 0x3612 JUMPI PUSH1 0x40 MLOAD PUSH3 0x461BCD PUSH1 0xE5 SHL DUP2 MSTORE PUSH1 0x20 PUSH1 0x4 DUP3 ADD MSTORE PUSH1 0x14 PUSH1 0x24 DUP3 ADD MSTORE PUSH20 0x14DD1D59195B9D081251081B9BDD08199BDD5B99 PUSH1 0x62 SHL PUSH1 0x44 DUP3 ADD MSTORE PUSH1 0x64 ADD PUSH2 0xC93 JUMP JUMPDEST PUSH1 0x8 PUSH1 0x0 DUP3 DUP2 MSTORE PUSH1 0x20 ADD SWAP1 DUP2 MSTORE PUSH1 0x20 ADD PUSH1 0x0 KECCAK256 PUSH1 0x0 DUP6 DUP2 MSTORE PUSH1 0x20 ADD SWAP1 DUP2 MSTORE PUSH1 0x20 ADD PUSH1 0x0 KECCAK256 PUSH1 0x40 MLOAD DUP1 PUSH2 0x140 ADD PUSH1 0x40 MSTORE SWAP1 DUP2 PUSH1 0x0 DUP3 ADD SLOAD DUP2 MSTORE PUSH1 0x20 ADD PUSH1 0x1 DUP3 ADD SLOAD DUP2 MSTORE PUSH1 0x20 ADD PUSH1 0x2 DUP3 ADD SLOAD DUP2 MSTORE PUSH1 0x20 ADD PUSH1 0x3 DUP3 ADD DUP1 SLOAD PUSH2 0x3670 SWAP1 PUSH2 0x4936 JUMP JUMPDEST DUP1 PUSH1 0x1F ADD PUSH1 0x20 DUP1 SWAP2 DIV MUL PUSH1 0x20 ADD PUSH1 0x40 MLOAD SWAP1 DUP2 ADD PUSH1 0x40 MSTORE DUP1 SWAP3 SWAP2 SWAP1 DUP2 DUP2 MSTORE PUSH1 0x20 ADD DUP3 DUP1 SLOAD PUSH2 0x369C SWAP1 PUSH2 0x4936 JUMP JUMPDEST DUP1 ISZERO PUSH2 0x36E9 JUMPI DUP1 PUSH1 0x1F LT PUSH2 0x36BE JUMPI PUSH2 0x100 DUP1 DUP4 SLOAD DIV MUL DUP4 MSTORE SWAP2 PUSH1 0x20 ADD SWAP2 PUSH2 0x36E9 JUMP JUMPDEST DUP3 ADD SWAP2 SWAP1 PUSH1 0x0 MSTORE PUSH1 0x20 PUSH1 0x0 KECCAK256 SWAP1 JUMPDEST DUP2 SLOAD DUP2 MSTORE SWAP1 PUSH1 0x1 ADD SWAP1 PUSH1 0x20 ADD DUP1 DUP4 GT PUSH2 0x36CC JUMPI DUP3 SWAP1 SUB PUSH1 0x1F AND DUP3 ADD SWAP2 JUMPDEST POP POP POP POP POP DUP2 MSTORE PUSH1 0x20 ADD PUSH1 0x4 DUP3 ADD SLOAD DUP2 MSTORE PUSH1 0x20 ADD PUSH1 0x5 DUP3 ADD SLOAD DUP2 MSTORE PUSH1 0x20 ADD PUSH1 0x6 DUP3 ADD DUP1 SLOAD PUSH2 0x3716 SWAP1 PUSH2 0x4936 JUMP JUMPDEST DUP1 PUSH1 0x1F ADD PUSH1 0x20 DUP1 SWAP2 DIV MUL PUSH1 0x20 ADD PUSH1 0x40 MLOAD SWAP1 DUP2 ADD PUSH1 0x40 MSTORE DUP1 SWAP3 SWAP2 SWAP1 DUP2 DUP2 MSTORE PUSH1 0x20 ADD DUP3 DUP1 SLOAD PUSH2 0x3742 SWAP1 PUSH2 0x4936 JUMP JUMPDEST DUP1 ISZERO PUSH2 0x378F JUMPI DUP1 PUSH1 0x1F LT PUSH2 0x3764 JUMPI PUSH2 0x100 DUP1 DUP4 SLOAD DIV MUL DUP4 MSTORE SWAP2 PUSH1 0x20 ADD SWAP2 PUSH2 0x378F JUMP JUMPDEST DUP3 ADD SWAP2 SWAP1 PUSH1 0x0 MSTORE PUSH1 0x20 PUSH1 0x0 KECCAK256 SWAP1 JUMPDEST DUP2 SLOAD DUP2 MSTORE SWAP1 PUSH1 0x1 ADD SWAP1 PUSH1 0x20 ADD DUP1 DUP4 GT PUSH2 0x3772 JUMPI DUP3 SWAP1 SUB PUSH1 0x1F AND DUP3 ADD SWAP2 JUMPDEST POP POP POP SWAP2 DUP4 MSTORE POP POP PUSH1 0x7 DUP3 ADD SLOAD PUSH1 0x1 PUSH1 0x1 PUSH1 0xA0 SHL SUB AND PUSH1 0x20 DUP3 ADD MSTORE PUSH1 0x8 DUP3 ADD SLOAD PUSH1 0x40 DUP3 ADD MSTORE PUSH1 0x9 SWAP1 SWAP2 ADD SLOAD PUSH1 0xFF AND ISZERO ISZERO PUSH1 0x60 SWAP1 SWAP2 ADD MSTORE SWAP5 SWAP4 POP POP POP POP JUMP JUMPDEST PUSH1 0x0 PUSH2 0x37D9 DUP2 CALLER PUSH2 0x215D JUMP JUMPDEST PUSH2 0x37F5 JUMPI PUSH1 0x40 MLOAD PUSH3 0x461BCD PUSH1 0xE5 SHL DUP2 MSTORE PUSH1 0x4 ADD PUSH2 0xC93 SWAP1 PUSH2 0x496A JUMP JUMPDEST PUSH2 0x1690 DUP4 DUP4 PUSH2 0x3FF0 JUMP JUMPDEST PUSH1 0x0 DUP2 DUP2 MSTORE PUSH1 0x14 PUSH1 0x20 SWAP1 DUP2 MSTORE PUSH1 0x40 DUP1 DUP4 KECCAK256 DUP2 MLOAD PUSH1 0xA0 DUP2 ADD DUP4 MSTORE DUP2 SLOAD DUP2 MSTORE PUSH1 0x1 DUP3 ADD SLOAD SWAP4 DUP2 ADD SWAP4 SWAP1 SWAP4 MSTORE PUSH1 0x2 DUP2 ADD SLOAD SWAP2 DUP4 ADD SWAP2 SWAP1 SWAP2 MSTORE PUSH1 0x3 ADD SLOAD PUSH1 0xFF DUP1 DUP3 AND ISZERO ISZERO PUSH1 0x60 DUP5 ADD MSTORE PUSH2 0x100 SWAP1 SWAP2 DIV AND ISZERO ISZERO PUSH1 0x80 DUP3 ADD DUP2 SWAP1 MSTORE DUP3 SWAP2 DUP3 SWAP2 DUP3 SWAP2 DUP3 SWAP2 PUSH2 0x3878 JUMPI PUSH1 0x40 MLOAD PUSH3 0x461BCD PUSH1 0xE5 SHL DUP2 MSTORE PUSH1 0x4 ADD PUSH2 0xC93 SWAP1 PUSH2 0x49EC JUMP JUMPDEST DUP1 MLOAD PUSH1 0x20 DUP3 ADD MLOAD PUSH1 0x40 DUP4 ADD MLOAD PUSH1 0x60 DUP5 ADD MLOAD PUSH1 0x80 SWAP1 SWAP5 ADD MLOAD SWAP3 SWAP11 SWAP2 SWAP10 POP SWAP8 POP SWAP2 SWAP6 POP SWAP4 POP SWAP2 POP POP JUMP JUMPDEST PUSH1 0x12 PUSH1 0x20 MSTORE DUP2 PUSH1 0x0 MSTORE PUSH1 0x40 PUSH1 0x0 KECCAK256 DUP2 DUP2 SLOAD DUP2 LT PUSH2 0x38BC JUMPI PUSH1 0x0 DUP1 REVERT JUMPDEST PUSH1 0x0 SWAP2 DUP3 MSTORE PUSH1 0x20 SWAP1 SWAP2 KECCAK256 PUSH1 0x5 SWAP1 SWAP2 MUL ADD DUP1 SLOAD PUSH1 0x1 DUP3 ADD SLOAD PUSH1 0x2 DUP4 ADD DUP1 SLOAD SWAP3 SWAP6 POP PUSH1 0x1 PUSH1 0x1 PUSH1 0xA0 SHL SUB SWAP1 SWAP2 AND SWAP4 POP SWAP1 PUSH2 0x38F3 SWAP1 PUSH2 0x4936 JUMP JUMPDEST DUP1 PUSH1 0x1F ADD PUSH1 0x20 DUP1 SWAP2 DIV MUL PUSH1 0x20 ADD PUSH1 0x40 MLOAD SWAP1 DUP2 ADD PUSH1 0x40 MSTORE DUP1 SWAP3 SWAP2 SWAP1 DUP2 DUP2 MSTORE PUSH1 0x20 ADD DUP3 DUP1 SLOAD PUSH2 0x391F SWAP1 PUSH2 0x4936 JUMP JUMPDEST DUP1 ISZERO PUSH2 0x396C JUMPI DUP1 PUSH1 0x1F LT PUSH2 0x3941 JUMPI PUSH2 0x100 DUP1 DUP4 SLOAD DIV MUL DUP4 MSTORE SWAP2 PUSH1 0x20 ADD SWAP2 PUSH2 0x396C JUMP JUMPDEST DUP3 ADD SWAP2 SWAP1 PUSH1 0x0 MSTORE PUSH1 0x20 PUSH1 0x0 KECCAK256 SWAP1 JUMPDEST DUP2 SLOAD DUP2 MSTORE SWAP1 PUSH1 0x1 ADD SWAP1 PUSH1 0x20 ADD DUP1 DUP4 GT PUSH2 0x394F JUMPI DUP3 SWAP1 SUB PUSH1 0x1F AND DUP3 ADD SWAP2 JUMPDEST POP POP POP POP POP SWAP1 DUP1 PUSH1 0x3 ADD SLOAD SWAP1 DUP1 PUSH1 0x4 ADD DUP1 SLOAD PUSH2 0x3987 SWAP1 PUSH2 0x4936 JUMP JUMPDEST DUP1 PUSH1 0x1F ADD PUSH1 0x20 DUP1 SWAP2 DIV MUL PUSH1 0x20 ADD PUSH1 0x40 MLOAD SWAP1 DUP2 ADD PUSH1 0x40 MSTORE DUP1 SWAP3 SWAP2 SWAP1 DUP2 DUP2 MSTORE PUSH1 0x20 ADD DUP3 DUP1 SLOAD PUSH2 0x39B3 SWAP1 PUSH2 0x4936 JUMP JUMPDEST DUP1 ISZERO PUSH2 0x3A00 JUMPI DUP1 PUSH1 0x1F LT PUSH2 0x39D5 JUMPI PUSH2 0x100 DUP1 DUP4 SLOAD DIV MUL DUP4 MSTORE SWAP2 PUSH1 0x20 ADD SWAP2 PUSH2 0x3A00 JUMP JUMPDEST DUP3 ADD SWAP2 SWAP1 PUSH1 0x0 MSTORE PUSH1 0x20 PUSH1 0x0 KECCAK256 SWAP1 JUMPDEST DUP2 SLOAD DUP2 MSTORE SWAP1 PUSH1 0x1 ADD SWAP1 PUSH1 0x20 ADD DUP1 DUP4 GT PUSH2 0x39E3 JUMPI DUP3 SWAP1 SUB PUSH1 0x1F AND DUP3 ADD SWAP2 JUMPDEST POP POP POP POP POP SWAP1 POP DUP6 JUMP JUMPDEST PUSH1 0x15 PUSH1 0x20 MSTORE DUP2 PUSH1 0x0 MSTORE PUSH1 0x40 PUSH1 0x0 KECCAK256 DUP2 DUP2 SLOAD DUP2 LT PUSH2 0x1E5C JUMPI PUSH1 0x0 DUP1 REVERT JUMPDEST PUSH1 0x0 DUP1 MLOAD PUSH1 0x20 PUSH2 0x4CDC DUP4 CODECOPY DUP2 MLOAD SWAP2 MSTORE PUSH2 0x3A3F DUP2 CALLER PUSH2 0x215D JUMP JUMPDEST PUSH2 0x3A5B JUMPI PUSH1 0x40 MLOAD PUSH3 0x461BCD PUSH1 0xE5 SHL DUP2 MSTORE PUSH1 0x4 ADD PUSH2 0xC93 SWAP1 PUSH2 0x496A JUMP JUMPDEST PUSH1 0x0 DUP5 DUP2 MSTORE PUSH1 0x4 PUSH1 0x20 DUP2 SWAP1 MSTORE PUSH1 0x40 SWAP1 SWAP2 KECCAK256 ADD SLOAD PUSH2 0x100 SWAP1 DIV PUSH1 0xFF AND PUSH2 0x3A92 JUMPI PUSH1 0x40 MLOAD PUSH3 0x461BCD PUSH1 0xE5 SHL DUP2 MSTORE PUSH1 0x4 ADD PUSH2 0xC93 SWAP1 PUSH2 0x4991 JUMP JUMPDEST PUSH1 0x0 DUP6 DUP2 MSTORE PUSH1 0x8 PUSH1 0x20 SWAP1 DUP2 MSTORE PUSH1 0x40 DUP1 DUP4 KECCAK256 DUP8 DUP5 MSTORE SWAP1 SWAP2 MSTORE DUP2 KECCAK256 SLOAD SWAP1 SUB PUSH2 0x3AEE JUMPI PUSH1 0x40 MLOAD PUSH3 0x461BCD PUSH1 0xE5 SHL DUP2 MSTORE PUSH1 0x20 PUSH1 0x4 DUP3 ADD MSTORE PUSH1 0x11 PUSH1 0x24 DUP3 ADD MSTORE PUSH17 0x14995C5D595CDD081B9BDD08199BDD5B99 PUSH1 0x7A SHL PUSH1 0x44 DUP3 ADD MSTORE PUSH1 0x64 ADD PUSH2 0xC93 JUMP JUMPDEST PUSH1 0x0 DUP6 DUP2 MSTORE PUSH1 0x8 PUSH1 0x20 SWAP1 DUP2 MSTORE PUSH1 0x40 DUP1 DUP4 KECCAK256 DUP8 DUP5 MSTORE SWAP1 SWAP2 MSTORE SWAP1 KECCAK256 PUSH1 0x9 ADD SLOAD PUSH1 0xFF AND ISZERO PUSH2 0x3B4F JUMPI PUSH1 0x40 MLOAD PUSH3 0x461BCD PUSH1 0xE5 SHL DUP2 MSTORE PUSH1 0x20 PUSH1 0x4 DUP3 ADD MSTORE PUSH1 0x11 PUSH1 0x24 DUP3 ADD MSTORE PUSH17 0x105B1C9958591E481C1C9BD8D95CDCD959 PUSH1 0x7A SHL PUSH1 0x44 DUP3 ADD MSTORE PUSH1 0x64 ADD PUSH2 0xC93 JUMP JUMPDEST PUSH32 0xE321069D1AC41CDFB1421FFA231CD2DC5E3A334703A998A5F84566B6FBF3F7BD DUP4 PUSH1 0x40 MLOAD PUSH1 0x20 ADD PUSH2 0x3B81 SWAP2 SWAP1 PUSH2 0x4C6A JUMP JUMPDEST PUSH1 0x40 MLOAD PUSH1 0x20 DUP2 DUP4 SUB SUB DUP2 MSTORE SWAP1 PUSH1 0x40 MSTORE DUP1 MLOAD SWAP1 PUSH1 0x20 ADD KECCAK256 EQ DUP1 PUSH2 0x3BE8 JUMPI POP PUSH32 0x8675C210F65C4E8DD95D2AFD30EB5D846906F1B59F9DA9D5FF94EC59C6C70C7C DUP4 PUSH1 0x40 MLOAD PUSH1 0x20 ADD PUSH2 0x3BD0 SWAP2 SWAP1 PUSH2 0x4C6A JUMP JUMPDEST PUSH1 0x40 MLOAD PUSH1 0x20 DUP2 DUP4 SUB SUB DUP2 MSTORE SWAP1 PUSH1 0x40 MSTORE DUP1 MLOAD SWAP1 PUSH1 0x20 ADD KECCAK256 EQ JUMPDEST PUSH2 0x3C25 JUMPI PUSH1 0x40 MLOAD PUSH3 0x461BCD PUSH1 0xE5 SHL DUP2 MSTORE PUSH1 0x20 PUSH1 0x4 DUP3 ADD MSTORE PUSH1 0xE PUSH1 0x24 DUP3 ADD MSTORE PUSH14 0x496E76616C696420737461747573 PUSH1 0x90 SHL PUSH1 0x44 DUP3 ADD MSTORE PUSH1 0x64 ADD PUSH2 0xC93 JUMP JUMPDEST PUSH32 0xE321069D1AC41CDFB1421FFA231CD2DC5E3A334703A998A5F84566B6FBF3F7BD DUP4 PUSH1 0x40 MLOAD PUSH1 0x20 ADD PUSH2 0x3C57 SWAP2 SWAP1 PUSH2 0x4C6A JUMP JUMPDEST PUSH1 0x40 MLOAD PUSH1 0x20 DUP2 DUP4 SUB SUB DUP2 MSTORE SWAP1 PUSH1 0x40 MSTORE DUP1 MLOAD SWAP1 PUSH1 0x20 ADD KECCAK256 SUB PUSH2 0x3C93 JUMPI PUSH1 0x64 DUP3 GT ISZERO PUSH2 0x3C93 JUMPI PUSH1 0x40 MLOAD PUSH3 0x461BCD PUSH1 0xE5 SHL DUP2 MSTORE PUSH1 0x4 ADD PUSH2 0xC93 SWAP1 PUSH2 0x49BE JUMP JUMPDEST PUSH1 0x0 DUP6 DUP2 MSTORE PUSH1 0x8 PUSH1 0x20 SWAP1 DUP2 MSTORE PUSH1 0x40 DUP1 DUP4 KECCAK256 DUP8 DUP5 MSTORE SWAP1 SWAP2 MSTORE SWAP1 KECCAK256 PUSH1 0x3 ADD PUSH2 0x3CB9 DUP5 DUP3 PUSH2 0x4B05 JUMP JUMPDEST POP PUSH1 0x0 DUP6 DUP2 MSTORE PUSH1 0x8 PUSH1 0x20 DUP2 DUP2 MSTORE PUSH1 0x40 DUP1 DUP5 KECCAK256 DUP9 DUP6 MSTORE DUP3 MSTORE SWAP3 DUP4 SWAP1 KECCAK256 PUSH1 0x5 DUP2 ADD DUP7 SWAP1 SSTORE PUSH1 0x7 DUP2 ADD DUP1 SLOAD PUSH1 0x1 PUSH1 0x1 PUSH1 0xA0 SHL SUB NOT AND CALLER OR SWAP1 SSTORE TIMESTAMP SWAP3 DUP2 ADD SWAP3 SWAP1 SWAP3 SSTORE PUSH1 0x9 SWAP1 SWAP2 ADD DUP1 SLOAD PUSH1 0xFF NOT AND PUSH1 0x1 OR SWAP1 SSTORE SWAP1 MLOAD PUSH32 0xE321069D1AC41CDFB1421FFA231CD2DC5E3A334703A998A5F84566B6FBF3F7BD SWAP2 PUSH2 0x3D37 SWAP2 DUP7 SWAP2 ADD PUSH2 0x4C6A JUMP JUMPDEST PUSH1 0x40 MLOAD PUSH1 0x20 DUP2 DUP4 SUB SUB DUP2 MSTORE SWAP1 PUSH1 0x40 MSTORE DUP1 MLOAD SWAP1 PUSH1 0x20 ADD KECCAK256 SUB PUSH2 0x3DBF JUMPI PUSH1 0x0 DUP6 DUP2 MSTORE PUSH1 0x6 PUSH1 0x20 SWAP1 DUP2 MSTORE PUSH1 0x40 DUP1 DUP4 KECCAK256 DUP8 DUP5 MSTORE DUP3 MSTORE SWAP2 DUP3 SWAP1 KECCAK256 PUSH1 0x2 DUP2 ADD DUP1 SLOAD SWAP1 DUP7 SWAP1 SSTORE TIMESTAMP PUSH1 0x5 SWAP1 SWAP3 ADD SWAP2 SWAP1 SWAP2 SSTORE DUP3 MLOAD DUP2 DUP2 MSTORE SWAP2 DUP3 ADD DUP6 SWAP1 MSTORE SWAP2 CALLER SWAP2 DUP8 SWAP2 DUP10 SWAP2 PUSH32 0xAFCA19E7338B80A137BDD94E7B2EC35D7D842CC5C4D91A3576D97135E9DE063D SWAP2 ADD PUSH1 0x40 MLOAD DUP1 SWAP2 SUB SWAP1 LOG4 POP JUMPDEST CALLER PUSH1 0x1 PUSH1 0x1 PUSH1 0xA0 SHL SUB AND DUP5 DUP7 PUSH32 0x3E02E69C3FD077FD8B72C8FA4C53881220607BE1385EE3B57A9ED1524402D63C DUP7 DUP7 PUSH1 0x40 MLOAD PUSH2 0x18F5 SWAP3 SWAP2 SWAP1 PUSH2 0x4C86 JUMP JUMPDEST PUSH1 0x60 PUSH1 0x0 DUP1 PUSH1 0x0 DUP1 PUSH1 0x0 DUP1 PUSH1 0x4 PUSH1 0x0 DUP10 DUP2 MSTORE PUSH1 0x20 ADD SWAP1 DUP2 MSTORE PUSH1 0x20 ADD PUSH1 0x0 KECCAK256 PUSH1 0x40 MLOAD DUP1 PUSH1 0xC0 ADD PUSH1 0x40 MSTORE SWAP1 DUP2 PUSH1 0x0 DUP3 ADD DUP1 SLOAD PUSH2 0x3E35 SWAP1 PUSH2 0x4936 JUMP JUMPDEST DUP1 PUSH1 0x1F ADD PUSH1 0x20 DUP1 SWAP2 DIV MUL PUSH1 0x20 ADD PUSH1 0x40 MLOAD SWAP1 DUP2 ADD PUSH1 0x40 MSTORE DUP1 SWAP3 SWAP2 SWAP1 DUP2 DUP2 MSTORE PUSH1 0x20 ADD DUP3 DUP1 SLOAD PUSH2 0x3E61 SWAP1 PUSH2 0x4936 JUMP JUMPDEST DUP1 ISZERO PUSH2 0x3EAE JUMPI DUP1 PUSH1 0x1F LT PUSH2 0x3E83 JUMPI PUSH2 0x100 DUP1 DUP4 SLOAD DIV MUL DUP4 MSTORE SWAP2 PUSH1 0x20 ADD SWAP2 PUSH2 0x3EAE JUMP JUMPDEST DUP3 ADD SWAP2 SWAP1 PUSH1 0x0 MSTORE PUSH1 0x20 PUSH1 0x0 KECCAK256 SWAP1 JUMPDEST DUP2 SLOAD DUP2 MSTORE SWAP1 PUSH1 0x1 ADD SWAP1 PUSH1 0x20 ADD DUP1 DUP4 GT PUSH2 0x3E91 JUMPI DUP3 SWAP1 SUB PUSH1 0x1F AND DUP3 ADD SWAP2 JUMPDEST POP POP POP SWAP2 DUP4 MSTORE POP POP PUSH1 0x1 DUP3 ADD SLOAD PUSH1 0x20 DUP1 DUP4 ADD SWAP2 SWAP1 SWAP2 MSTORE PUSH1 0x2 DUP4 ADD SLOAD PUSH1 0x1 PUSH1 0x1 PUSH1 0xA0 SHL SUB AND PUSH1 0x40 DUP1 DUP5 ADD SWAP2 SWAP1 SWAP2 MSTORE PUSH1 0x3 DUP5 ADD SLOAD PUSH1 0x60 DUP1 DUP6 ADD SWAP2 SWAP1 SWAP2 MSTORE PUSH1 0x4 SWAP1 SWAP5 ADD SLOAD PUSH1 0xFF DUP1 DUP3 AND ISZERO ISZERO PUSH1 0x80 DUP1 DUP8 ADD SWAP2 SWAP1 SWAP2 MSTORE PUSH2 0x100 SWAP1 SWAP3 DIV AND ISZERO ISZERO PUSH1 0xA0 SWAP5 DUP6 ADD MSTORE DUP6 MLOAD SWAP3 DUP7 ADD MLOAD SWAP2 DUP7 ADD MLOAD SWAP5 DUP7 ADD MLOAD SWAP1 DUP7 ADD MLOAD SWAP6 SWAP1 SWAP4 ADD MLOAD SWAP2 SWAP14 SWAP1 SWAP13 POP SWAP3 SWAP11 POP SWAP1 SWAP9 POP SWAP2 SWAP7 POP SWAP1 SWAP5 POP SWAP3 POP POP POP JUMP JUMPDEST PUSH1 0x0 DUP1 MLOAD PUSH1 0x20 PUSH2 0x4D1C DUP4 CODECOPY DUP2 MLOAD SWAP2 MSTORE PUSH2 0x3F55 DUP2 CALLER PUSH2 0x215D JUMP JUMPDEST PUSH2 0x3F71 JUMPI PUSH1 0x40 MLOAD PUSH3 0x461BCD PUSH1 0xE5 SHL DUP2 MSTORE PUSH1 0x4 ADD PUSH2 0xC93 SWAP1 PUSH2 0x496A JUMP JUMPDEST PUSH2 0xE1F PUSH1 0x0 DUP1 MLOAD PUSH1 0x20 PUSH2 0x4CDC DUP4 CODECOPY DUP2 MLOAD SWAP2 MSTORE DUP4 PUSH2 0x3FF0 JUMP JUMPDEST PUSH2 0x3F93 DUP3 DUP3 PUSH2 0x215D JUMP JUMPDEST PUSH2 0xE1F JUMPI PUSH1 0x0 DUP3 DUP2 MSTORE PUSH1 0x20 DUP2 DUP2 MSTORE PUSH1 0x40 DUP1 DUP4 KECCAK256 PUSH1 0x1 PUSH1 0x1 PUSH1 0xA0 SHL SUB DUP6 AND DUP1 DUP6 MSTORE SWAP3 MSTORE DUP1 DUP4 KECCAK256 DUP1 SLOAD PUSH1 0xFF NOT AND PUSH1 0x1 OR SWAP1 SSTORE MLOAD CALLER SWAP3 DUP6 SWAP2 PUSH32 0x2F8788117E7EFF1D82E926EC794901D17C78024A50270940304540A733656F0D SWAP2 SWAP1 LOG4 POP POP JUMP JUMPDEST PUSH2 0x3FFA DUP3 DUP3 PUSH2 0x215D JUMP JUMPDEST ISZERO PUSH2 0xE1F JUMPI PUSH1 0x0 DUP3 DUP2 MSTORE PUSH1 0x20 DUP2 DUP2 MSTORE PUSH1 0x40 DUP1 DUP4 KECCAK256 PUSH1 0x1 PUSH1 0x1 PUSH1 0xA0 SHL SUB DUP6 AND DUP1 DUP6 MSTORE SWAP3 MSTORE DUP1 DUP4 KECCAK256 DUP1 SLOAD PUSH1 0xFF NOT AND SWAP1 SSTORE MLOAD CALLER SWAP3 DUP6 SWAP2 PUSH32 0xF6391F5C32D9C69D2A47EA670B442974B53935D1EDC7FD64EB21E047A839171B SWAP2 SWAP1 LOG4 POP POP JUMP JUMPDEST PUSH1 0x1 PUSH1 0x1 PUSH1 0xA0 SHL SUB DUP3 AND PUSH2 0x40A2 JUMPI PUSH1 0x40 MLOAD PUSH3 0x461BCD PUSH1 0xE5 SHL DUP2 MSTORE PUSH1 0x20 PUSH1 0x4 DUP3 ADD MSTORE PUSH1 0x14 PUSH1 0x24 DUP3 ADD MSTORE PUSH20 0x4D696E7420746F207A65726F2061646472657373 PUSH1 0x60 SHL PUSH1 0x44 DUP3 ADD MSTORE PUSH1 0x64 ADD PUSH2 0xC93 JUMP JUMPDEST PUSH1 0x0 DUP2 DUP2 MSTORE PUSH1 0xE PUSH1 0x20 MSTORE PUSH1 0x40 SWAP1 KECCAK256 SLOAD PUSH1 0x1 PUSH1 0x1 PUSH1 0xA0 SHL SUB AND ISZERO PUSH2 0x40FE JUMPI PUSH1 0x40 MLOAD PUSH3 0x461BCD PUSH1 0xE5 SHL DUP2 MSTORE PUSH1 0x20 PUSH1 0x4 DUP3 ADD MSTORE PUSH1 0x14 PUSH1 0x24 DUP3 ADD MSTORE PUSH20 0x151BDAD95B88185B1C9958591E481B5A5B9D1959 PUSH1 0x62 SHL PUSH1 0x44 DUP3 ADD MSTORE PUSH1 0x64 ADD PUSH2 0xC93 JUMP JUMPDEST PUSH1 0x0 DUP2 DUP2 MSTORE PUSH1 0xE PUSH1 0x20 SWAP1 DUP2 MSTORE PUSH1 0x40 DUP1 DUP4 KECCAK256 DUP1 SLOAD PUSH1 0x1 PUSH1 0x1 PUSH1 0xA0 SHL SUB NOT AND PUSH1 0x1 PUSH1 0x1 PUSH1 0xA0 SHL SUB DUP8 AND SWAP1 DUP2 OR SWAP1 SWAP2 SSTORE DUP4 MSTORE PUSH1 0xF SWAP1 SWAP2 MSTORE DUP2 KECCAK256 DUP1 SLOAD PUSH1 0x1 SWAP3 SWAP1 PUSH2 0x4145 SWAP1 DUP5 SWAP1 PUSH2 0x4CA8 JUMP JUMPDEST SWAP1 SWAP2 SSTORE POP POP PUSH1 0x40 MLOAD DUP2 SWAP1 PUSH1 0x1 PUSH1 0x1 PUSH1 0xA0 SHL SUB DUP5 AND SWAP1 PUSH1 0x0 SWAP1 PUSH32 0xDDF252AD1BE2C89B69C2B068FC378DAA952BA7F163C4A11628F55A4DF523B3EF SWAP1 DUP3 SWAP1 LOG4 POP POP JUMP JUMPDEST PUSH1 0x40 MLOAD DUP1 PUSH2 0x100 ADD PUSH1 0x40 MSTORE DUP1 PUSH1 0x0 DUP2 MSTORE PUSH1 0x20 ADD PUSH1 0x0 DUP2 MSTORE PUSH1 0x20 ADD PUSH1 0x0 DUP2 MSTORE PUSH1 0x20 ADD PUSH1 0x0 DUP2 MSTORE PUSH1 0x20 ADD PUSH1 0x60 DUP2 MSTORE PUSH1 0x20 ADD PUSH1 0x0 DUP2 MSTORE PUSH1 0x20 ADD PUSH1 0x0 PUSH1 0x1 PUSH1 0x1 PUSH1 0xA0 SHL SUB AND DUP2 MSTORE PUSH1 0x20 ADD PUSH1 0x0 ISZERO ISZERO DUP2 MSTORE POP SWAP1 JUMP JUMPDEST PUSH1 0x40 MLOAD DUP1 PUSH2 0x140 ADD PUSH1 0x40 MSTORE DUP1 PUSH1 0x0 DUP2 MSTORE PUSH1 0x20 ADD PUSH1 0x0 DUP2 MSTORE PUSH1 0x20 ADD PUSH1 0x0 DUP2 MSTORE PUSH1 0x20 ADD PUSH1 0x60 DUP2 MSTORE PUSH1 0x20 ADD PUSH1 0x0 DUP2 MSTORE PUSH1 0x20 ADD PUSH1 0x0 DUP2 MSTORE PUSH1 0x20 ADD PUSH1 0x60 DUP2 MSTORE PUSH1 0x20 ADD PUSH1 0x0 PUSH1 0x1 PUSH1 0x1 PUSH1 0xA0 SHL SUB AND DUP2 MSTORE PUSH1 0x20 ADD PUSH1 0x0 DUP2 MSTORE PUSH1 0x20 ADD PUSH1 0x0 ISZERO ISZERO DUP2 MSTORE POP SWAP1 JUMP JUMPDEST PUSH1 0x0 DUP1 PUSH1 0x40 DUP4 DUP6 SUB SLT ISZERO PUSH2 0x4247 JUMPI PUSH1 0x0 DUP1 REVERT JUMPDEST POP POP DUP1 CALLDATALOAD SWAP3 PUSH1 0x20 SWAP1 SWAP2 ADD CALLDATALOAD SWAP2 POP JUMP JUMPDEST PUSH1 0x0 JUMPDEST DUP4 DUP2 LT ISZERO PUSH2 0x4271 JUMPI DUP2 DUP2 ADD MLOAD DUP4 DUP3 ADD MSTORE PUSH1 0x20 ADD PUSH2 0x4259 JUMP JUMPDEST POP POP PUSH1 0x0 SWAP2 ADD MSTORE JUMP JUMPDEST PUSH1 0x0 DUP2 MLOAD DUP1 DUP5 MSTORE PUSH2 0x4292 DUP2 PUSH1 0x20 DUP7 ADD PUSH1 0x20 DUP7 ADD PUSH2 0x4256 JUMP JUMPDEST PUSH1 0x1F ADD PUSH1 0x1F NOT AND SWAP3 SWAP1 SWAP3 ADD PUSH1 0x20 ADD SWAP3 SWAP2 POP POP JUMP JUMPDEST DUP11 DUP2 MSTORE DUP10 PUSH1 0x20 DUP3 ADD MSTORE DUP9 PUSH1 0x40 DUP3 ADD MSTORE PUSH2 0x140 PUSH1 0x60 DUP3 ADD MSTORE PUSH1 0x0 PUSH2 0x42CD PUSH2 0x140 DUP4 ADD DUP11 PUSH2 0x427A JUMP JUMPDEST DUP9 PUSH1 0x80 DUP5 ADD MSTORE DUP8 PUSH1 0xA0 DUP5 ADD MSTORE DUP3 DUP2 SUB PUSH1 0xC0 DUP5 ADD MSTORE PUSH2 0x42EB DUP2 DUP9 PUSH2 0x427A JUMP JUMPDEST PUSH1 0x1 PUSH1 0x1 PUSH1 0xA0 SHL SUB SWAP7 SWAP1 SWAP7 AND PUSH1 0xE0 DUP5 ADD MSTORE POP POP PUSH2 0x100 DUP2 ADD SWAP3 SWAP1 SWAP3 MSTORE ISZERO ISZERO PUSH2 0x120 SWAP1 SWAP2 ADD MSTORE SWAP8 SWAP7 POP POP POP POP POP POP POP JUMP JUMPDEST PUSH1 0x0 PUSH1 0x20 DUP3 DUP5 SUB SLT ISZERO PUSH2 0x432D JUMPI PUSH1 0x0 DUP1 REVERT JUMPDEST POP CALLDATALOAD SWAP2 SWAP1 POP JUMP JUMPDEST PUSH1 0x20 DUP2 MSTORE PUSH1 0x0 PUSH2 0x4347 PUSH1 0x20 DUP4 ADD DUP5 PUSH2 0x427A JUMP JUMPDEST SWAP4 SWAP3 POP POP POP JUMP JUMPDEST DUP1 CALLDATALOAD PUSH1 0x1 PUSH1 0x1 PUSH1 0xA0 SHL SUB DUP2 AND DUP2 EQ PUSH2 0x4365 JUMPI PUSH1 0x0 DUP1 REVERT JUMPDEST SWAP2 SWAP1 POP JUMP JUMPDEST PUSH1 0x0 PUSH1 0x20 DUP3 DUP5 SUB SLT ISZERO PUSH2 0x437C JUMPI PUSH1 0x0 DUP1 REVERT JUMPDEST PUSH2 0x4347 DUP3 PUSH2 0x434E JUMP JUMPDEST PUSH1 0x20 DUP2 MSTORE DUP2 MLOAD PUSH1 0x20 DUP3 ADD MSTORE PUSH1 0x20 DUP3 ADD MLOAD PUSH1 0x40 DUP3 ADD MSTORE PUSH1 0x40 DUP3 ADD MLOAD PUSH1 0x60 DUP3 ADD MSTORE PUSH1 0x60 DUP3 ADD MLOAD PUSH1 0x80 DUP3 ADD MSTORE PUSH1 0x0 PUSH1 0x80 DUP4 ADD MLOAD PUSH2 0x100 PUSH1 0xA0 DUP5 ADD MSTORE PUSH2 0x43CB PUSH2 0x120 DUP5 ADD DUP3 PUSH2 0x427A JUMP JUMPDEST SWAP1 POP PUSH1 0xA0 DUP5 ADD MLOAD PUSH1 0xC0 DUP5 ADD MSTORE PUSH1 0x1 DUP1 PUSH1 0xA0 SHL SUB PUSH1 0xC0 DUP6 ADD MLOAD AND PUSH1 0xE0 DUP5 ADD MSTORE PUSH1 0xE0 DUP5 ADD MLOAD ISZERO ISZERO PUSH2 0x100 DUP5 ADD MSTORE DUP1 SWAP2 POP POP SWAP3 SWAP2 POP POP JUMP JUMPDEST PUSH1 0x0 PUSH1 0x20 DUP3 ADD PUSH1 0x20 DUP4 MSTORE DUP1 DUP5 MLOAD DUP1 DUP4 MSTORE PUSH1 0x40 DUP6 ADD SWAP2 POP PUSH1 0x40 DUP2 PUSH1 0x5 SHL DUP7 ADD ADD SWAP3 POP PUSH1 0x20 DUP7 ADD PUSH1 0x0 JUMPDEST DUP3 DUP2 LT ISZERO PUSH2 0x44A6 JUMPI PUSH1 0x3F NOT DUP8 DUP7 SUB ADD DUP5 MSTORE DUP2 MLOAD DUP1 MLOAD DUP7 MSTORE PUSH1 0x1 DUP1 PUSH1 0xA0 SHL SUB PUSH1 0x20 DUP3 ADD MLOAD AND PUSH1 0x20 DUP8 ADD MSTORE PUSH1 0x40 DUP2 ADD MLOAD PUSH1 0xA0 PUSH1 0x40 DUP9 ADD MSTORE PUSH2 0x446A PUSH1 0xA0 DUP9 ADD DUP3 PUSH2 0x427A JUMP JUMPDEST SWAP1 POP PUSH1 0x60 DUP3 ADD MLOAD PUSH1 0x60 DUP9 ADD MSTORE PUSH1 0x80 DUP3 ADD MLOAD SWAP2 POP DUP7 DUP2 SUB PUSH1 0x80 DUP9 ADD MSTORE PUSH2 0x448F DUP2 DUP4 PUSH2 0x427A JUMP JUMPDEST SWAP7 POP POP POP PUSH1 0x20 SWAP4 DUP5 ADD SWAP4 SWAP2 SWAP1 SWAP2 ADD SWAP1 PUSH1 0x1 ADD PUSH2 0x4428 JUMP JUMPDEST POP SWAP3 SWAP7 SWAP6 POP POP POP POP POP POP JUMP JUMPDEST PUSH1 0x20 DUP2 MSTORE DUP2 MLOAD PUSH1 0x20 DUP3 ADD MSTORE PUSH1 0x20 DUP3 ADD MLOAD PUSH1 0x40 DUP3 ADD MSTORE PUSH1 0x40 DUP3 ADD MLOAD PUSH1 0x60 DUP3 ADD MSTORE PUSH1 0x0 PUSH1 0x60 DUP4 ADD MLOAD PUSH2 0x140 PUSH1 0x80 DUP5 ADD MSTORE PUSH2 0x44EE PUSH2 0x160 DUP5 ADD DUP3 PUSH2 0x427A JUMP JUMPDEST SWAP1 POP PUSH1 0x80 DUP5 ADD MLOAD PUSH1 0xA0 DUP5 ADD MSTORE PUSH1 0xA0 DUP5 ADD MLOAD PUSH1 0xC0 DUP5 ADD MSTORE PUSH1 0xC0 DUP5 ADD MLOAD PUSH1 0x1F NOT DUP5 DUP4 SUB ADD PUSH1 0xE0 DUP6 ADD MSTORE PUSH2 0x451F DUP3 DUP3 PUSH2 0x427A JUMP JUMPDEST SWAP2 POP POP PUSH1 0xE0 DUP5 ADD MLOAD PUSH2 0x453D PUSH2 0x100 DUP6 ADD DUP3 PUSH1 0x1 PUSH1 0x1 PUSH1 0xA0 SHL SUB AND SWAP1 MSTORE JUMP JUMPDEST POP PUSH2 0x100 DUP5 ADD MLOAD PUSH2 0x120 DUP5 ADD MSTORE PUSH2 0x120 DUP5 ADD MLOAD PUSH2 0x455F PUSH2 0x140 DUP6 ADD DUP3 ISZERO ISZERO SWAP1 MSTORE JUMP JUMPDEST POP SWAP4 SWAP3 POP POP POP JUMP JUMPDEST PUSH1 0x0 DUP1 PUSH1 0x40 DUP4 DUP6 SUB SLT ISZERO PUSH2 0x457A JUMPI PUSH1 0x0 DUP1 REVERT JUMPDEST DUP3 CALLDATALOAD SWAP2 POP PUSH2 0x458A PUSH1 0x20 DUP5 ADD PUSH2 0x434E JUMP JUMPDEST SWAP1 POP SWAP3 POP SWAP3 SWAP1 POP JUMP JUMPDEST PUSH1 0x20 DUP1 DUP3 MSTORE DUP3 MLOAD DUP3 DUP3 ADD DUP2 SWAP1 MSTORE PUSH1 0x0 SWAP2 DUP5 ADD SWAP1 PUSH1 0x40 DUP5 ADD SWAP1 DUP4 JUMPDEST DUP2 DUP2 LT ISZERO PUSH2 0x45CB JUMPI DUP4 MLOAD DUP4 MSTORE PUSH1 0x20 SWAP4 DUP5 ADD SWAP4 SWAP1 SWAP3 ADD SWAP2 PUSH1 0x1 ADD PUSH2 0x45AD JUMP JUMPDEST POP SWAP1 SWAP6 SWAP5 POP POP POP POP POP JUMP JUMPDEST PUSH1 0x0 DUP1 PUSH1 0x0 PUSH1 0x60 DUP5 DUP7 SUB SLT ISZERO PUSH2 0x45EB JUMPI PUSH1 0x0 DUP1 REVERT JUMPDEST POP POP DUP2 CALLDATALOAD SWAP4 PUSH1 0x20 DUP4 ADD CALLDATALOAD SWAP4 POP PUSH1 0x40 SWAP1 SWAP3 ADD CALLDATALOAD SWAP2 SWAP1 POP JUMP JUMPDEST PUSH1 0xC0 DUP2 MSTORE PUSH1 0x0 PUSH2 0x4615 PUSH1 0xC0 DUP4 ADD DUP10 PUSH2 0x427A JUMP JUMPDEST PUSH1 0x20 DUP4 ADD SWAP8 SWAP1 SWAP8 MSTORE POP PUSH1 0x1 PUSH1 0x1 PUSH1 0xA0 SHL SUB SWAP5 SWAP1 SWAP5 AND PUSH1 0x40 DUP6 ADD MSTORE PUSH1 0x60 DUP5 ADD SWAP3 SWAP1 SWAP3 MSTORE ISZERO ISZERO PUSH1 0x80 DUP4 ADD MSTORE ISZERO ISZERO PUSH1 0xA0 SWAP1 SWAP2 ADD MSTORE SWAP2 SWAP1 POP JUMP JUMPDEST DUP9 DUP2 MSTORE DUP8 PUSH1 0x20 DUP3 ADD MSTORE DUP7 PUSH1 0x40 DUP3 ADD MSTORE DUP6 PUSH1 0x60 DUP3 ADD MSTORE PUSH2 0x100 PUSH1 0x80 DUP3 ADD MSTORE PUSH1 0x0 PUSH2 0x4678 PUSH2 0x100 DUP4 ADD DUP8 PUSH2 0x427A JUMP JUMPDEST PUSH1 0xA0 DUP4 ADD SWAP6 SWAP1 SWAP6 MSTORE POP PUSH1 0x1 PUSH1 0x1 PUSH1 0xA0 SHL SUB SWAP3 SWAP1 SWAP3 AND PUSH1 0xC0 DUP4 ADD MSTORE ISZERO ISZERO PUSH1 0xE0 SWAP1 SWAP2 ADD MSTORE SWAP6 SWAP5 POP POP POP POP POP JUMP JUMPDEST PUSH1 0x0 DUP1 PUSH1 0x40 DUP4 DUP6 SUB SLT ISZERO PUSH2 0x46B6 JUMPI PUSH1 0x0 DUP1 REVERT JUMPDEST PUSH2 0x46BF DUP4 PUSH2 0x434E JUMP JUMPDEST SWAP5 PUSH1 0x20 SWAP4 SWAP1 SWAP4 ADD CALLDATALOAD SWAP4 POP POP POP JUMP JUMPDEST PUSH4 0x4E487B71 PUSH1 0xE0 SHL PUSH1 0x0 MSTORE PUSH1 0x41 PUSH1 0x4 MSTORE PUSH1 0x24 PUSH1 0x0 REVERT JUMPDEST PUSH1 0x0 DUP3 PUSH1 0x1F DUP4 ADD SLT PUSH2 0x46F4 JUMPI PUSH1 0x0 DUP1 REVERT JUMPDEST DUP2 CALLDATALOAD PUSH8 0xFFFFFFFFFFFFFFFF DUP2 GT ISZERO PUSH2 0x470E JUMPI PUSH2 0x470E PUSH2 0x46CD JUMP JUMPDEST PUSH1 0x40 MLOAD PUSH1 0x1F DUP3 ADD PUSH1 0x1F NOT SWAP1 DUP2 AND PUSH1 0x3F ADD AND DUP2 ADD PUSH8 0xFFFFFFFFFFFFFFFF DUP2 GT DUP3 DUP3 LT OR ISZERO PUSH2 0x473D JUMPI PUSH2 0x473D PUSH2 0x46CD JUMP JUMPDEST PUSH1 0x40 MSTORE DUP2 DUP2 MSTORE DUP4 DUP3 ADD PUSH1 0x20 ADD DUP6 LT ISZERO PUSH2 0x4755 JUMPI PUSH1 0x0 DUP1 REVERT JUMPDEST DUP2 PUSH1 0x20 DUP6 ADD PUSH1 0x20 DUP4 ADD CALLDATACOPY PUSH1 0x0 SWAP2 DUP2 ADD PUSH1 0x20 ADD SWAP2 SWAP1 SWAP2 MSTORE SWAP4 SWAP3 POP POP POP JUMP JUMPDEST PUSH1 0x0 DUP1 PUSH1 0x40 DUP4 DUP6 SUB SLT ISZERO PUSH2 0x4785 JUMPI PUSH1 0x0 DUP1 REVERT JUMPDEST DUP3 CALLDATALOAD SWAP2 POP PUSH1 0x20 DUP4 ADD CALLDATALOAD PUSH8 0xFFFFFFFFFFFFFFFF DUP2 GT ISZERO PUSH2 0x47A3 JUMPI PUSH1 0x0 DUP1 REVERT JUMPDEST PUSH2 0x47AF DUP6 DUP3 DUP7 ADD PUSH2 0x46E3 JUMP JUMPDEST SWAP2 POP POP SWAP3 POP SWAP3 SWAP1 POP JUMP JUMPDEST PUSH1 0x0 DUP1 PUSH1 0x40 DUP4 DUP6 SUB SLT ISZERO PUSH2 0x47CC JUMPI PUSH1 0x0 DUP1 REVERT JUMPDEST DUP3 CALLDATALOAD PUSH8 0xFFFFFFFFFFFFFFFF DUP2 GT ISZERO PUSH2 0x47E3 JUMPI PUSH1 0x0 DUP1 REVERT JUMPDEST PUSH2 0x47EF DUP6 DUP3 DUP7 ADD PUSH2 0x46E3 JUMP JUMPDEST SWAP6 PUSH1 0x20 SWAP5 SWAP1 SWAP5 ADD CALLDATALOAD SWAP5 POP POP POP POP JUMP JUMPDEST PUSH1 0xA0 DUP2 MSTORE PUSH1 0x0 PUSH2 0x4811 PUSH1 0xA0 DUP4 ADD DUP9 PUSH2 0x427A JUMP JUMPDEST PUSH1 0x20 DUP4 ADD SWAP7 SWAP1 SWAP7 MSTORE POP PUSH1 0x1 PUSH1 0x1 PUSH1 0xA0 SHL SUB SWAP4 SWAP1 SWAP4 AND PUSH1 0x40 DUP5 ADD MSTORE PUSH1 0x60 DUP4 ADD SWAP2 SWAP1 SWAP2 MSTORE ISZERO ISZERO PUSH1 0x80 SWAP1 SWAP2 ADD MSTORE SWAP2 SWAP1 POP JUMP JUMPDEST PUSH1 0x0 DUP1 PUSH1 0x0 PUSH1 0x60 DUP5 DUP7 SUB SLT ISZERO PUSH2 0x4855 JUMPI PUSH1 0x0 DUP1 REVERT JUMPDEST DUP4 CALLDATALOAD SWAP3 POP PUSH1 0x20 DUP5 ADD CALLDATALOAD SWAP2 POP PUSH1 0x40 DUP5 ADD CALLDATALOAD PUSH8 0xFFFFFFFFFFFFFFFF DUP2 GT ISZERO PUSH2 0x487A JUMPI PUSH1 0x0 DUP1 REVERT JUMPDEST PUSH2 0x4886 DUP7 DUP3 DUP8 ADD PUSH2 0x46E3 JUMP JUMPDEST SWAP2 POP POP SWAP3 POP SWAP3 POP SWAP3 JUMP JUMPDEST DUP6 DUP2 MSTORE PUSH1 0x1 PUSH1 0x1 PUSH1 0xA0 SHL SUB DUP6 AND PUSH1 0x20 DUP3 ADD MSTORE PUSH1 0xA0 PUSH1 0x40 DUP3 ADD DUP2 SWAP1 MSTORE PUSH1 0x0 SWAP1 PUSH2 0x48BA SWAP1 DUP4 ADD DUP7 PUSH2 0x427A JUMP JUMPDEST DUP5 PUSH1 0x60 DUP5 ADD MSTORE DUP3 DUP2 SUB PUSH1 0x80 DUP5 ADD MSTORE PUSH2 0x48D2 DUP2 DUP6 PUSH2 0x427A JUMP JUMPDEST SWAP9 SWAP8 POP POP POP POP POP POP POP POP JUMP JUMPDEST PUSH1 0x0 DUP1 PUSH1 0x0 DUP1 PUSH1 0x80 DUP6 DUP8 SUB SLT ISZERO PUSH2 0x48F4 JUMPI PUSH1 0x0 DUP1 REVERT JUMPDEST DUP5 CALLDATALOAD SWAP4 POP PUSH1 0x20 DUP6 ADD CALLDATALOAD SWAP3 POP PUSH1 0x40 DUP6 ADD CALLDATALOAD PUSH8 0xFFFFFFFFFFFFFFFF DUP2 GT ISZERO PUSH2 0x4919 JUMPI PUSH1 0x0 DUP1 REVERT JUMPDEST PUSH2 0x4925 DUP8 DUP3 DUP9 ADD PUSH2 0x46E3 JUMP JUMPDEST SWAP5 SWAP8 SWAP4 SWAP7 POP SWAP4 SWAP5 PUSH1 0x60 ADD CALLDATALOAD SWAP4 POP POP POP JUMP JUMPDEST PUSH1 0x1 DUP2 DUP2 SHR SWAP1 DUP3 AND DUP1 PUSH2 0x494A JUMPI PUSH1 0x7F DUP3 AND SWAP2 POP JUMPDEST PUSH1 0x20 DUP3 LT DUP2 SUB PUSH2 0xFCA JUMPI PUSH4 0x4E487B71 PUSH1 0xE0 SHL PUSH1 0x0 MSTORE PUSH1 0x22 PUSH1 0x4 MSTORE PUSH1 0x24 PUSH1 0x0 REVERT JUMPDEST PUSH1 0x20 DUP1 DUP3 MSTORE PUSH1 0xD SWAP1 DUP3 ADD MSTORE PUSH13 0x1058D8D95CDCC819195B9A5959 PUSH1 0x9A SHL PUSH1 0x40 DUP3 ADD MSTORE PUSH1 0x60 ADD SWAP1 JUMP JUMPDEST PUSH1 0x20 DUP1 DUP3 MSTORE PUSH1 0x13 SWAP1 DUP3 ADD MSTORE PUSH19 0x115E185B48191BD95CC81B9BDD08195E1A5CDD PUSH1 0x6A SHL PUSH1 0x40 DUP3 ADD MSTORE PUSH1 0x60 ADD SWAP1 JUMP JUMPDEST PUSH1 0x20 DUP1 DUP3 MSTORE PUSH1 0x14 SWAP1 DUP3 ADD MSTORE PUSH20 0x53636F7265206D757374206265203C3D2031303 PUSH1 0x64 SHL PUSH1 0x40 DUP3 ADD MSTORE PUSH1 0x60 ADD SWAP1 JUMP JUMPDEST PUSH1 0x20 DUP1 DUP3 MSTORE PUSH1 0x13 SWAP1 DUP3 ADD MSTORE PUSH19 0x15195CDD08191BD95CC81B9BDD08195E1A5CDD PUSH1 0x6A SHL PUSH1 0x40 DUP3 ADD MSTORE PUSH1 0x60 ADD SWAP1 JUMP JUMPDEST PUSH1 0x20 DUP1 DUP3 MSTORE PUSH1 0x12 SWAP1 DUP3 ADD MSTORE PUSH18 0x125B9D985B1A59081CDD1D59195B9D081251 PUSH1 0x72 SHL PUSH1 0x40 DUP3 ADD MSTORE PUSH1 0x60 ADD SWAP1 JUMP JUMPDEST PUSH1 0x20 DUP1 DUP3 MSTORE PUSH1 0xF SWAP1 DUP3 ADD MSTORE PUSH15 0x496E76616C69642061646472657373 PUSH1 0x88 SHL PUSH1 0x40 DUP3 ADD MSTORE PUSH1 0x60 ADD SWAP1 JUMP JUMPDEST PUSH1 0x20 DUP1 DUP3 MSTORE PUSH1 0x29 SWAP1 DUP3 ADD MSTORE PUSH32 0x4164647265737320616C7265616479206C696E6B656420746F20616E6F746865 PUSH1 0x40 DUP3 ADD MSTORE PUSH9 0x1C881CDD1D59195B9D PUSH1 0xBA SHL PUSH1 0x60 DUP3 ADD MSTORE PUSH1 0x80 ADD SWAP1 JUMP JUMPDEST PUSH1 0x1F DUP3 GT ISZERO PUSH2 0x1690 JUMPI DUP1 PUSH1 0x0 MSTORE PUSH1 0x20 PUSH1 0x0 KECCAK256 PUSH1 0x1F DUP5 ADD PUSH1 0x5 SHR DUP2 ADD PUSH1 0x20 DUP6 LT ISZERO PUSH2 0x4ADE JUMPI POP DUP1 JUMPDEST PUSH1 0x1F DUP5 ADD PUSH1 0x5 SHR DUP3 ADD SWAP2 POP JUMPDEST DUP2 DUP2 LT ISZERO PUSH2 0x4AFE JUMPI PUSH1 0x0 DUP2 SSTORE PUSH1 0x1 ADD PUSH2 0x4AEA JUMP JUMPDEST POP POP POP POP POP JUMP JUMPDEST DUP2 MLOAD PUSH8 0xFFFFFFFFFFFFFFFF DUP2 GT ISZERO PUSH2 0x4B1F JUMPI PUSH2 0x4B1F PUSH2 0x46CD JUMP JUMPDEST PUSH2 0x4B33 DUP2 PUSH2 0x4B2D DUP5 SLOAD PUSH2 0x4936 JUMP JUMPDEST DUP5 PUSH2 0x4AB7 JUMP JUMPDEST PUSH1 0x20 PUSH1 0x1F DUP3 GT PUSH1 0x1 DUP2 EQ PUSH2 0x4B67 JUMPI PUSH1 0x0 DUP4 ISZERO PUSH2 0x4B4F JUMPI POP DUP5 DUP3 ADD MLOAD JUMPDEST PUSH1 0x0 NOT PUSH1 0x3 DUP6 SWAP1 SHL SHR NOT AND PUSH1 0x1 DUP5 SWAP1 SHL OR DUP5 SSTORE PUSH2 0x4AFE JUMP JUMPDEST PUSH1 0x0 DUP5 DUP2 MSTORE PUSH1 0x20 DUP2 KECCAK256 PUSH1 0x1F NOT DUP6 AND SWAP2 JUMPDEST DUP3 DUP2 LT ISZERO PUSH2 0x4B97 JUMPI DUP8 DUP6 ADD MLOAD DUP3 SSTORE PUSH1 0x20 SWAP5 DUP6 ADD SWAP5 PUSH1 0x1 SWAP1 SWAP3 ADD SWAP2 ADD PUSH2 0x4B77 JUMP JUMPDEST POP DUP5 DUP3 LT ISZERO PUSH2 0x4BB5 JUMPI DUP7 DUP5 ADD MLOAD PUSH1 0x0 NOT PUSH1 0x3 DUP8 SWAP1 SHL PUSH1 0xF8 AND SHR NOT AND DUP2 SSTORE JUMPDEST POP POP POP POP PUSH1 0x1 SWAP1 DUP2 SHL ADD SWAP1 SSTORE POP JUMP JUMPDEST PUSH4 0x4E487B71 PUSH1 0xE0 SHL PUSH1 0x0 MSTORE PUSH1 0x11 PUSH1 0x4 MSTORE PUSH1 0x24 PUSH1 0x0 REVERT JUMPDEST DUP2 DUP2 SUB DUP2 DUP2 GT ISZERO PUSH2 0x160B JUMPI PUSH2 0x160B PUSH2 0x4BC4 JUMP JUMPDEST PUSH1 0x60 DUP2 MSTORE PUSH1 0x0 PUSH2 0x4C00 PUSH1 0x60 DUP4 ADD DUP7 PUSH2 0x427A JUMP JUMPDEST PUSH1 0x20 DUP4 ADD SWAP5 SWAP1 SWAP5 MSTORE POP PUSH1 0x40 ADD MSTORE SWAP2 SWAP1 POP JUMP JUMPDEST PUSH1 0x0 PUSH1 0x1 DUP3 ADD PUSH2 0x4C24 JUMPI PUSH2 0x4C24 PUSH2 0x4BC4 JUMP JUMPDEST POP PUSH1 0x1 ADD SWAP1 JUMP JUMPDEST PUSH1 0x60 DUP2 MSTORE PUSH1 0x7 PUSH1 0x60 DUP3 ADD MSTORE PUSH7 0x50454E44494E47 PUSH1 0xC8 SHL PUSH1 0x80 DUP3 ADD MSTORE DUP3 PUSH1 0x20 DUP3 ADD MSTORE PUSH1 0xA0 PUSH1 0x40 DUP3 ADD MSTORE PUSH1 0x0 PUSH2 0x4C62 PUSH1 0xA0 DUP4 ADD DUP5 PUSH2 0x427A JUMP JUMPDEST SWAP5 SWAP4 POP POP POP POP JUMP JUMPDEST PUSH1 0x0 DUP3 MLOAD PUSH2 0x4C7C DUP2 DUP5 PUSH1 0x20 DUP8 ADD PUSH2 0x4256 JUMP JUMPDEST SWAP2 SWAP1 SWAP2 ADD SWAP3 SWAP2 POP POP JUMP JUMPDEST PUSH1 0x40 DUP2 MSTORE PUSH1 0x0 PUSH2 0x4C99 PUSH1 0x40 DUP4 ADD DUP6 PUSH2 0x427A JUMP JUMPDEST SWAP1 POP DUP3 PUSH1 0x20 DUP4 ADD MSTORE SWAP4 SWAP3 POP POP POP JUMP JUMPDEST DUP1 DUP3 ADD DUP1 DUP3 GT ISZERO PUSH2 0x160B JUMPI PUSH2 0x160B PUSH2 0x4BC4 JUMP INVALID CALLDATASIZE 0xA5 0xC4 0xAA 0xAC 0xB6 0xB3 DUP9 0xBB 0xD4 BASEFEE 0xBF GT MULMOD PUSH12 0x7DAFC5652BCC9046084FD0E9 JUMPDEST 0x1F 0xB0 0xB2 0xCC 0xD8 0xF DUPN 0xBC 0xE CALLER 0xAB DIFFICULTY OR 0xBD TIMESTAMP PUSH0 0x29 PUSH31 0x26E0456472DF56B1EAAEE7ACD2CBC2C696FFC7C36207174F786648D2E6246 AND LOG4 0xB4 0xE ISZERO REVERT PUSH32 0x268B4E36AF5057F0C43C835A49807205CE4D355092EF5A8A18F56E8913CF4A2 ADD EXTSTATICCALL 0xE2 DUP8 DUP3 JUMPDEST MULMOD JUMP SWAP4 0xC2 OR PUSH22 0xA2646970667358221220ED4A1800F2D4EA58C075A849 PUSH20 0x8527DE2E7FB7DF032FA9BFC2E9474BCF4D3BFE64 PUSH20 0x6F6C634300081E0033A49807205CE4D355092EF5 0xA8 LOG1 DUP16 JUMP 0xE8 SWAP2 EXTCODECOPY DELEGATECALL LOG2 ADD EXTSTATICCALL 0xE2 DUP8 DUP3 JUMPDEST MULMOD JUMP SWAP4 0xC2 OR PUSH22 0x0 "
		},
		"gasEstimates": {
			"creation": {
				"codeDepositCost": "3965000",
				"executionCost": "infinite",
				"totalCost": "infinite"
			},
			"external": {
				"ADMIN_ROLE()": "infinite",
				"DEFAULT_ADMIN_ROLE()": "263",
				"EMPLOYER_ROLE()": "infinite",
				"LECTURER_ROLE()": "infinite",
				"STUDENT_ROLE()": "infinite",
				"addressToStudentId(address)": "2630",
				"balanceOf(address)": "2657",
				"blockTest(uint256)": "infinite",
				"certificates(uint256)": "infinite",
				"createMyReviewRequest(uint256,string)": "infinite",
				"createTest(uint256,uint256)": "infinite",
				"examScores(uint256,uint256)": "4799",
				"exams(uint256)": "infinite",
				"finalizeScore(uint256,uint256)": "infinite",
				"getCertificateByStudent(uint256,uint256)": "infinite",
				"getExam(uint256)": "infinite",
				"getExamScores(uint256)": "infinite",
				"getLecturerExams(address)": "infinite",
				"getMyCertificate(uint256,uint256)": "infinite",
				"getMyReviewRequest(uint256)": "infinite",
				"getReviewRequest(uint256,uint256)": "infinite",
				"getScore(uint256,uint256)": "15618",
				"getStudentAddress(uint256)": "2610",
				"getStudentIdByAddress(address)": "2626",
				"getTest(uint256)": "9232",
				"getTraceCount(uint256)": "2572",
				"getTraces(uint256)": "infinite",
				"getUserTests(uint256)": "infinite",
				"grantEmployerRole(address)": "infinite",
				"grantLecturerRole(address)": "infinite",
				"grantRole(bytes32,address)": "infinite",
				"grantStudentRole(address)": "infinite",
				"hasRole(bytes32,address)": "2795",
				"issueCertificate(uint256,uint256,string)": "infinite",
				"lecturerExams(address,uint256)": "4856",
				"lockExam(uint256)": "infinite",
				"name()": "infinite",
				"ownerOf(uint256)": "2606",
				"processReviewRequest(uint256,uint256,string,uint256)": "infinite",
				"reviewRequests(uint256,uint256)": "infinite",
				"revokeCertificate(uint256)": "infinite",
				"revokeEmployerRole(address)": "infinite",
				"revokeLecturerRole(address)": "infinite",
				"revokeRole(bytes32,address)": "infinite",
				"revokeStudentRole(address)": "infinite",
				"scores(uint256,uint256)": "15480",
				"setStudentAddress(uint256,address)": "infinite",
				"storeExam(string,uint256)": "infinite",
				"storeReviewRequest(uint256,uint256,string)": "infinite",
				"storeScore(uint256,uint256,uint256)": "infinite",
				"studentAddresses(uint256)": "2567",
				"studentCertificates(uint256,uint256)": "2643",
				"symbol()": "infinite",
				"tests(uint256)": "9016",
				"tokenURI(uint256)": "infinite",
				"traces(uint256,uint256)": "infinite",
				"unblockTest(uint256)": "infinite",
				"updateScore(uint256,uint256,uint256)": "infinite",
				"updateStudentAddress(uint256,address)": "infinite",
				"userTests(uint256,uint256)": "4776",
				"verifyCertificate(uint256)": "infinite"
			}
		},
		"methodIdentifiers": {
			"ADMIN_ROLE()": "75b238fc",
			"DEFAULT_ADMIN_ROLE()": "a217fddf",
			"EMPLOYER_ROLE()": "2426bb38",
			"LECTURER_ROLE()": "0713eb02",
			"STUDENT_ROLE()": "f7be43fb",
			"addressToStudentId(address)": "86c34415",
			"balanceOf(address)": "70a08231",
			"blockTest(uint256)": "3f576247",
			"certificates(uint256)": "663b3e22",
			"createMyReviewRequest(uint256,string)": "97bb03ba",
			"createTest(uint256,uint256)": "1d3e15ff",
			"examScores(uint256,uint256)": "aa1f80a5",
			"exams(uint256)": "4198cb3f",
			"finalizeScore(uint256,uint256)": "cd79e42f",
			"getCertificateByStudent(uint256,uint256)": "bd289217",
			"getExam(uint256)": "f97563d5",
			"getExamScores(uint256)": "a26ea890",
			"getLecturerExams(address)": "7f5af810",
			"getMyCertificate(uint256,uint256)": "99532f60",
			"getMyReviewRequest(uint256)": "d4f45061",
			"getReviewRequest(uint256,uint256)": "1fa63aa3",
			"getScore(uint256,uint256)": "adc6ba73",
			"getStudentAddress(uint256)": "e67651ac",
			"getStudentIdByAddress(address)": "80ab3dda",
			"getTest(uint256)": "edef019d",
			"getTraceCount(uint256)": "3bf82f32",
			"getTraces(uint256)": "1eb2c396",
			"getUserTests(uint256)": "361ef2bd",
			"grantEmployerRole(address)": "16853feb",
			"grantLecturerRole(address)": "66b2d280",
			"grantRole(bytes32,address)": "2f2ff15d",
			"grantStudentRole(address)": "c94d10ad",
			"hasRole(bytes32,address)": "91d14854",
			"issueCertificate(uint256,uint256,string)": "b8535a11",
			"lecturerExams(address,uint256)": "767cdbd8",
			"lockExam(uint256)": "b8d78466",
			"name()": "06fdde03",
			"ownerOf(uint256)": "6352211e",
			"processReviewRequest(uint256,uint256,string,uint256)": "f1c4731c",
			"reviewRequests(uint256,uint256)": "036713be",
			"revokeCertificate(uint256)": "06f5497e",
			"revokeEmployerRole(address)": "2ea0d829",
			"revokeLecturerRole(address)": "fc9b39e6",
			"revokeRole(bytes32,address)": "d547741f",
			"revokeStudentRole(address)": "32b3c846",
			"scores(uint256,uint256)": "dd255148",
			"setStudentAddress(uint256,address)": "d27fc520",
			"storeExam(string,uint256)": "a486ab35",
			"storeReviewRequest(uint256,uint256,string)": "c9b1e027",
			"storeScore(uint256,uint256,uint256)": "7c953e6e",
			"studentAddresses(uint256)": "b5ab682d",
			"studentCertificates(uint256,uint256)": "fa8d3cca",
			"symbol()": "95d89b41",
			"tests(uint256)": "de22c8d4",
			"tokenURI(uint256)": "c87b56dd",
			"traces(uint256,uint256)": "eeed2503",
			"unblockTest(uint256)": "c54164d4",
			"updateScore(uint256,uint256,uint256)": "3f0a92fb",
			"updateStudentAddress(uint256,address)": "6a0d2892",
			"userTests(uint256,uint256)": "f1b23d7f",
			"verifyCertificate(uint256)": "1692a942"
		}
	},
	"abi": [
		{
			"inputs": [],
			"stateMutability": "nonpayable",
			"type": "constructor"
		},
		{
			"anonymous": false,
			"inputs": [
				{
					"indexed": true,
					"internalType": "address",
					"name": "owner",
					"type": "address"
				},
				{
					"indexed": true,
					"internalType": "address",
					"name": "approved",
					"type": "address"
				},
				{
					"indexed": true,
					"internalType": "uint256",
					"name": "tokenId",
					"type": "uint256"
				}
			],
			"name": "Approval",
			"type": "event"
		},
		{
			"anonymous": false,
			"inputs": [
				{
					"indexed": true,
					"internalType": "address",
					"name": "owner",
					"type": "address"
				},
				{
					"indexed": true,
					"internalType": "address",
					"name": "operator",
					"type": "address"
				},
				{
					"indexed": false,
					"internalType": "bool",
					"name": "approved",
					"type": "bool"
				}
			],
			"name": "ApprovalForAll",
			"type": "event"
		},
		{
			"anonymous": false,
			"inputs": [
				{
					"indexed": true,
					"internalType": "uint256",
					"name": "tokenId",
					"type": "uint256"
				},
				{
					"indexed": true,
					"internalType": "uint256",
					"name": "student_id",
					"type": "uint256"
				},
				{
					"indexed": true,
					"internalType": "uint256",
					"name": "exam_id",
					"type": "uint256"
				},
				{
					"indexed": false,
					"internalType": "address",
					"name": "issued_by",
					"type": "address"
				}
			],
			"name": "CertificateIssued",
			"type": "event"
		},
		{
			"anonymous": false,
			"inputs": [
				{
					"indexed": true,
					"internalType": "uint256",
					"name": "tokenId",
					"type": "uint256"
				},
				{
					"indexed": true,
					"internalType": "address",
					"name": "revoked_by",
					"type": "address"
				}
			],
			"name": "CertificateRevoked",
			"type": "event"
		},
		{
			"anonymous": false,
			"inputs": [
				{
					"indexed": true,
					"internalType": "uint256",
					"name": "exam_id",
					"type": "uint256"
				},
				{
					"indexed": true,
					"internalType": "address",
					"name": "locked_by",
					"type": "address"
				}
			],
			"name": "ExamLocked",
			"type": "event"
		},
		{
			"anonymous": false,
			"inputs": [
				{
					"indexed": true,
					"internalType": "uint256",
					"name": "exam_id",
					"type": "uint256"
				},
				{
					"indexed": false,
					"internalType": "string",
					"name": "hash",
					"type": "string"
				},
				{
					"indexed": true,
					"internalType": "address",
					"name": "created_by",
					"type": "address"
				},
				{
					"indexed": false,
					"internalType": "uint256",
					"name": "created_at",
					"type": "uint256"
				},
				{
					"indexed": true,
					"internalType": "bytes32",
					"name": "blockHash",
					"type": "bytes32"
				},
				{
					"indexed": false,
					"internalType": "uint256",
					"name": "blockNumber",
					"type": "uint256"
				}
			],
			"name": "ExamStored",
			"type": "event"
		},
		{
			"anonymous": false,
			"inputs": [
				{
					"indexed": true,
					"internalType": "uint256",
					"name": "student_id",
					"type": "uint256"
				},
				{
					"indexed": true,
					"internalType": "uint256",
					"name": "exam_id",
					"type": "uint256"
				},
				{
					"indexed": false,
					"internalType": "string",
					"name": "status",
					"type": "string"
				},
				{
					"indexed": false,
					"internalType": "uint256",
					"name": "new_score",
					"type": "uint256"
				},
				{
					"indexed": true,
					"internalType": "address",
					"name": "reviewer",
					"type": "address"
				}
			],
			"name": "ReviewProcessed",
			"type": "event"
		},
		{
			"anonymous": false,
			"inputs": [
				{
					"indexed": true,
					"internalType": "uint256",
					"name": "student_id",
					"type": "uint256"
				},
				{
					"indexed": true,
					"internalType": "uint256",
					"name": "exam_id",
					"type": "uint256"
				},
				{
					"indexed": false,
					"internalType": "string",
					"name": "status",
					"type": "string"
				},
				{
					"indexed": false,
					"internalType": "uint256",
					"name": "old_score",
					"type": "uint256"
				},
				{
					"indexed": false,
					"internalType": "string",
					"name": "reason",
					"type": "string"
				}
			],
			"name": "ReviewRequested",
			"type": "event"
		},
		{
			"anonymous": false,
			"inputs": [
				{
					"indexed": true,
					"internalType": "bytes32",
					"name": "role",
					"type": "bytes32"
				},
				{
					"indexed": true,
					"internalType": "address",
					"name": "account",
					"type": "address"
				},
				{
					"indexed": true,
					"internalType": "address",
					"name": "sender",
					"type": "address"
				}
			],
			"name": "RoleGranted",
			"type": "event"
		},
		{
			"anonymous": false,
			"inputs": [
				{
					"indexed": true,
					"internalType": "bytes32",
					"name": "role",
					"type": "bytes32"
				},
				{
					"indexed": true,
					"internalType": "address",
					"name": "account",
					"type": "address"
				},
				{
					"indexed": true,
					"internalType": "address",
					"name": "sender",
					"type": "address"
				}
			],
			"name": "RoleRevoked",
			"type": "event"
		},
		{
			"anonymous": false,
			"inputs": [
				{
					"indexed": true,
					"internalType": "uint256",
					"name": "student_id",
					"type": "uint256"
				},
				{
					"indexed": true,
					"internalType": "uint256",
					"name": "exam_id",
					"type": "uint256"
				},
				{
					"indexed": true,
					"internalType": "address",
					"name": "finalized_by",
					"type": "address"
				}
			],
			"name": "ScoreFinalized",
			"type": "event"
		},
		{
			"anonymous": false,
			"inputs": [
				{
					"indexed": true,
					"internalType": "uint256",
					"name": "student_id",
					"type": "uint256"
				},
				{
					"indexed": true,
					"internalType": "uint256",
					"name": "exam_id",
					"type": "uint256"
				},
				{
					"indexed": false,
					"internalType": "uint256",
					"name": "score",
					"type": "uint256"
				},
				{
					"indexed": true,
					"internalType": "address",
					"name": "graded_by",
					"type": "address"
				}
			],
			"name": "ScoreStored",
			"type": "event"
		},
		{
			"anonymous": false,
			"inputs": [
				{
					"indexed": true,
					"internalType": "uint256",
					"name": "student_id",
					"type": "uint256"
				},
				{
					"indexed": true,
					"internalType": "uint256",
					"name": "exam_id",
					"type": "uint256"
				},
				{
					"indexed": false,
					"internalType": "uint256",
					"name": "old_score",
					"type": "uint256"
				},
				{
					"indexed": false,
					"internalType": "uint256",
					"name": "new_score",
					"type": "uint256"
				},
				{
					"indexed": true,
					"internalType": "address",
					"name": "updated_by",
					"type": "address"
				}
			],
			"name": "ScoreUpdated",
			"type": "event"
		},
		{
			"anonymous": false,
			"inputs": [
				{
					"indexed": true,
					"internalType": "uint256",
					"name": "student_id",
					"type": "uint256"
				},
				{
					"indexed": true,
					"internalType": "address",
					"name": "studentAddress",
					"type": "address"
				},
				{
					"indexed": false,
					"internalType": "address",
					"name": "setBy",
					"type": "address"
				}
			],
			"name": "StudentAddressSet",
			"type": "event"
		},
		{
			"anonymous": false,
			"inputs": [
				{
					"indexed": true,
					"internalType": "uint256",
					"name": "student_id",
					"type": "uint256"
				},
				{
					"indexed": true,
					"internalType": "address",
					"name": "oldAddress",
					"type": "address"
				},
				{
					"indexed": true,
					"internalType": "address",
					"name": "newAddress",
					"type": "address"
				},
				{
					"indexed": false,
					"internalType": "address",
					"name": "updatedBy",
					"type": "address"
				}
			],
			"name": "StudentAddressUpdated",
			"type": "event"
		},
		{
			"anonymous": false,
			"inputs": [
				{
					"indexed": true,
					"internalType": "uint256",
					"name": "test_id",
					"type": "uint256"
				},
				{
					"indexed": true,
					"internalType": "address",
					"name": "blocked_by",
					"type": "address"
				}
			],
			"name": "TestBlocked",
			"type": "event"
		},
		{
			"anonymous": false,
			"inputs": [
				{
					"indexed": true,
					"internalType": "uint256",
					"name": "test_id",
					"type": "uint256"
				},
				{
					"indexed": true,
					"internalType": "uint256",
					"name": "id_created_by",
					"type": "uint256"
				},
				{
					"indexed": false,
					"internalType": "uint256",
					"name": "created_at",
					"type": "uint256"
				}
			],
			"name": "TestCreated",
			"type": "event"
		},
		{
			"anonymous": false,
			"inputs": [
				{
					"indexed": true,
					"internalType": "uint256",
					"name": "test_id",
					"type": "uint256"
				},
				{
					"indexed": true,
					"internalType": "address",
					"name": "unblocked_by",
					"type": "address"
				}
			],
			"name": "TestUnblocked",
			"type": "event"
		},
		{
			"anonymous": false,
			"inputs": [
				{
					"indexed": true,
					"internalType": "uint256",
					"name": "entity_id",
					"type": "uint256"
				},
				{
					"indexed": true,
					"internalType": "address",
					"name": "caller",
					"type": "address"
				},
				{
					"indexed": false,
					"internalType": "string",
					"name": "action",
					"type": "string"
				},
				{
					"indexed": false,
					"internalType": "uint256",
					"name": "target_id",
					"type": "uint256"
				},
				{
					"indexed": false,
					"internalType": "string",
					"name": "details",
					"type": "string"
				},
				{
					"indexed": false,
					"internalType": "uint256",
					"name": "timestamp",
					"type": "uint256"
				}
			],
			"name": "TraceRecorded",
			"type": "event"
		},
		{
			"anonymous": false,
			"inputs": [
				{
					"indexed": true,
					"internalType": "address",
					"name": "from",
					"type": "address"
				},
				{
					"indexed": true,
					"internalType": "address",
					"name": "to",
					"type": "address"
				},
				{
					"indexed": true,
					"internalType": "uint256",
					"name": "tokenId",
					"type": "uint256"
				}
			],
			"name": "Transfer",
			"type": "event"
		},
		{
			"inputs": [],
			"name": "ADMIN_ROLE",
			"outputs": [
				{
					"internalType": "bytes32",
					"name": "",
					"type": "bytes32"
				}
			],
			"stateMutability": "view",
			"type": "function"
		},
		{
			"inputs": [],
			"name": "DEFAULT_ADMIN_ROLE",
			"outputs": [
				{
					"internalType": "bytes32",
					"name": "",
					"type": "bytes32"
				}
			],
			"stateMutability": "view",
			"type": "function"
		},
		{
			"inputs": [],
			"name": "EMPLOYER_ROLE",
			"outputs": [
				{
					"internalType": "bytes32",
					"name": "",
					"type": "bytes32"
				}
			],
			"stateMutability": "view",
			"type": "function"
		},
		{
			"inputs": [],
			"name": "LECTURER_ROLE",
			"outputs": [
				{
					"internalType": "bytes32",
					"name": "",
					"type": "bytes32"
				}
			],
			"stateMutability": "view",
			"type": "function"
		},
		{
			"inputs": [],
			"name": "STUDENT_ROLE",
			"outputs": [
				{
					"internalType": "bytes32",
					"name": "",
					"type": "bytes32"
				}
			],
			"stateMutability": "view",
			"type": "function"
		},
		{
			"inputs": [
				{
					"internalType": "address",
					"name": "",
					"type": "address"
				}
			],
			"name": "addressToStudentId",
			"outputs": [
				{
					"internalType": "uint256",
					"name": "",
					"type": "uint256"
				}
			],
			"stateMutability": "view",
			"type": "function"
		},
		{
			"inputs": [
				{
					"internalType": "address",
					"name": "owner",
					"type": "address"
				}
			],
			"name": "balanceOf",
			"outputs": [
				{
					"internalType": "uint256",
					"name": "",
					"type": "uint256"
				}
			],
			"stateMutability": "view",
			"type": "function"
		},
		{
			"inputs": [
				{
					"internalType": "uint256",
					"name": "_test_id",
					"type": "uint256"
				}
			],
			"name": "blockTest",
			"outputs": [],
			"stateMutability": "nonpayable",
			"type": "function"
		},
		{
			"inputs": [
				{
					"internalType": "uint256",
					"name": "",
					"type": "uint256"
				}
			],
			"name": "certificates",
			"outputs": [
				{
					"internalType": "uint256",
					"name": "tokenId",
					"type": "uint256"
				},
				{
					"internalType": "uint256",
					"name": "student_id",
					"type": "uint256"
				},
				{
					"internalType": "uint256",
					"name": "exam_id",
					"type": "uint256"
				},
				{
					"internalType": "uint256",
					"name": "score",
					"type": "uint256"
				},
				{
					"internalType": "string",
					"name": "metadata_uri",
					"type": "string"
				},
				{
					"internalType": "uint256",
					"name": "issued_at",
					"type": "uint256"
				},
				{
					"internalType": "address",
					"name": "issued_by",
					"type": "address"
				},
				{
					"internalType": "bool",
					"name": "is_valid",
					"type": "bool"
				}
			],
			"stateMutability": "view",
			"type": "function"
		},
		{
			"inputs": [
				{
					"internalType": "uint256",
					"name": "_exam_id",
					"type": "uint256"
				},
				{
					"internalType": "string",
					"name": "_reason",
					"type": "string"
				}
			],
			"name": "createMyReviewRequest",
			"outputs": [],
			"stateMutability": "nonpayable",
			"type": "function"
		},
		{
			"inputs": [
				{
					"internalType": "uint256",
					"name": "_test_id",
					"type": "uint256"
				},
				{
					"internalType": "uint256",
					"name": "_id_created_by",
					"type": "uint256"
				}
			],
			"name": "createTest",
			"outputs": [],
			"stateMutability": "nonpayable",
			"type": "function"
		},
		{
			"inputs": [
				{
					"internalType": "uint256",
					"name": "",
					"type": "uint256"
				},
				{
					"internalType": "uint256",
					"name": "",
					"type": "uint256"
				}
			],
			"name": "examScores",
			"outputs": [
				{
					"internalType": "uint256",
					"name": "",
					"type": "uint256"
				}
			],
			"stateMutability": "view",
			"type": "function"
		},
		{
			"inputs": [
				{
					"internalType": "uint256",
					"name": "",
					"type": "uint256"
				}
			],
			"name": "exams",
			"outputs": [
				{
					"internalType": "string",
					"name": "hash",
					"type": "string"
				},
				{
					"internalType": "uint256",
					"name": "exam_id",
					"type": "uint256"
				},
				{
					"internalType": "address",
					"name": "created_by",
					"type": "address"
				},
				{
					"internalType": "uint256",
					"name": "created_at",
					"type": "uint256"
				},
				{
					"internalType": "bool",
					"name": "is_locked",
					"type": "bool"
				},
				{
					"internalType": "bool",
					"name": "is_active",
					"type": "bool"
				}
			],
			"stateMutability": "view",
			"type": "function"
		},
		{
			"inputs": [
				{
					"internalType": "uint256",
					"name": "_student_id",
					"type": "uint256"
				},
				{
					"internalType": "uint256",
					"name": "_exam_id",
					"type": "uint256"
				}
			],
			"name": "finalizeScore",
			"outputs": [],
			"stateMutability": "nonpayable",
			"type": "function"
		},
		{
			"inputs": [
				{
					"internalType": "uint256",
					"name": "_student_id",
					"type": "uint256"
				},
				{
					"internalType": "uint256",
					"name": "_exam_id",
					"type": "uint256"
				}
			],
			"name": "getCertificateByStudent",
			"outputs": [
				{
					"components": [
						{
							"internalType": "uint256",
							"name": "tokenId",
							"type": "uint256"
						},
						{
							"internalType": "uint256",
							"name": "student_id",
							"type": "uint256"
						},
						{
							"internalType": "uint256",
							"name": "exam_id",
							"type": "uint256"
						},
						{
							"internalType": "uint256",
							"name": "score",
							"type": "uint256"
						},
						{
							"internalType": "string",
							"name": "metadata_uri",
							"type": "string"
						},
						{
							"internalType": "uint256",
							"name": "issued_at",
							"type": "uint256"
						},
						{
							"internalType": "address",
							"name": "issued_by",
							"type": "address"
						},
						{
							"internalType": "bool",
							"name": "is_valid",
							"type": "bool"
						}
					],
					"internalType": "struct DZCertificate.Certificate",
					"name": "",
					"type": "tuple"
				}
			],
			"stateMutability": "view",
			"type": "function"
		},
		{
			"inputs": [
				{
					"internalType": "uint256",
					"name": "_exam_id",
					"type": "uint256"
				}
			],
			"name": "getExam",
			"outputs": [
				{
					"internalType": "string",
					"name": "hash",
					"type": "string"
				},
				{
					"internalType": "uint256",
					"name": "exam_id",
					"type": "uint256"
				},
				{
					"internalType": "address",
					"name": "created_by",
					"type": "address"
				},
				{
					"internalType": "uint256",
					"name": "created_at",
					"type": "uint256"
				},
				{
					"internalType": "bool",
					"name": "is_locked",
					"type": "bool"
				},
				{
					"internalType": "bool",
					"name": "is_active",
					"type": "bool"
				}
			],
			"stateMutability": "view",
			"type": "function"
		},
		{
			"inputs": [
				{
					"internalType": "uint256",
					"name": "_exam_id",
					"type": "uint256"
				}
			],
			"name": "getExamScores",
			"outputs": [
				{
					"internalType": "uint256[]",
					"name": "",
					"type": "uint256[]"
				}
			],
			"stateMutability": "view",
			"type": "function"
		},
		{
			"inputs": [
				{
					"internalType": "address",
					"name": "_lecturer",
					"type": "address"
				}
			],
			"name": "getLecturerExams",
			"outputs": [
				{
					"internalType": "uint256[]",
					"name": "",
					"type": "uint256[]"
				}
			],
			"stateMutability": "view",
			"type": "function"
		},
		{
			"inputs": [
				{
					"internalType": "uint256",
					"name": "_student_id",
					"type": "uint256"
				},
				{
					"internalType": "uint256",
					"name": "_exam_id",
					"type": "uint256"
				}
			],
			"name": "getMyCertificate",
			"outputs": [
				{
					"components": [
						{
							"internalType": "uint256",
							"name": "tokenId",
							"type": "uint256"
						},
						{
							"internalType": "uint256",
							"name": "student_id",
							"type": "uint256"
						},
						{
							"internalType": "uint256",
							"name": "exam_id",
							"type": "uint256"
						},
						{
							"internalType": "uint256",
							"name": "score",
							"type": "uint256"
						},
						{
							"internalType": "string",
							"name": "metadata_uri",
							"type": "string"
						},
						{
							"internalType": "uint256",
							"name": "issued_at",
							"type": "uint256"
						},
						{
							"internalType": "address",
							"name": "issued_by",
							"type": "address"
						},
						{
							"internalType": "bool",
							"name": "is_valid",
							"type": "bool"
						}
					],
					"internalType": "struct DZCertificate.Certificate",
					"name": "",
					"type": "tuple"
				}
			],
			"stateMutability": "view",
			"type": "function"
		},
		{
			"inputs": [
				{
					"internalType": "uint256",
					"name": "_exam_id",
					"type": "uint256"
				}
			],
			"name": "getMyReviewRequest",
			"outputs": [
				{
					"components": [
						{
							"internalType": "uint256",
							"name": "student_id",
							"type": "uint256"
						},
						{
							"internalType": "uint256",
							"name": "exam_id",
							"type": "uint256"
						},
						{
							"internalType": "uint256",
							"name": "request_date",
							"type": "uint256"
						},
						{
							"internalType": "string",
							"name": "status",
							"type": "string"
						},
						{
							"internalType": "uint256",
							"name": "old_score",
							"type": "uint256"
						},
						{
							"internalType": "uint256",
							"name": "new_score",
							"type": "uint256"
						},
						{
							"internalType": "string",
							"name": "reason",
							"type": "string"
						},
						{
							"internalType": "address",
							"name": "reviewer",
							"type": "address"
						},
						{
							"internalType": "uint256",
							"name": "reviewed_at",
							"type": "uint256"
						},
						{
							"internalType": "bool",
							"name": "is_processed",
							"type": "bool"
						}
					],
					"internalType": "struct DZReviewManager.ReviewRequest",
					"name": "",
					"type": "tuple"
				}
			],
			"stateMutability": "view",
			"type": "function"
		},
		{
			"inputs": [
				{
					"internalType": "uint256",
					"name": "_student_id",
					"type": "uint256"
				},
				{
					"internalType": "uint256",
					"name": "_exam_id",
					"type": "uint256"
				}
			],
			"name": "getReviewRequest",
			"outputs": [
				{
					"components": [
						{
							"internalType": "uint256",
							"name": "student_id",
							"type": "uint256"
						},
						{
							"internalType": "uint256",
							"name": "exam_id",
							"type": "uint256"
						},
						{
							"internalType": "uint256",
							"name": "request_date",
							"type": "uint256"
						},
						{
							"internalType": "string",
							"name": "status",
							"type": "string"
						},
						{
							"internalType": "uint256",
							"name": "old_score",
							"type": "uint256"
						},
						{
							"internalType": "uint256",
							"name": "new_score",
							"type": "uint256"
						},
						{
							"internalType": "string",
							"name": "reason",
							"type": "string"
						},
						{
							"internalType": "address",
							"name": "reviewer",
							"type": "address"
						},
						{
							"internalType": "uint256",
							"name": "reviewed_at",
							"type": "uint256"
						},
						{
							"internalType": "bool",
							"name": "is_processed",
							"type": "bool"
						}
					],
					"internalType": "struct DZReviewManager.ReviewRequest",
					"name": "",
					"type": "tuple"
				}
			],
			"stateMutability": "view",
			"type": "function"
		},
		{
			"inputs": [
				{
					"internalType": "uint256",
					"name": "_student_id",
					"type": "uint256"
				},
				{
					"internalType": "uint256",
					"name": "_exam_id",
					"type": "uint256"
				}
			],
			"name": "getScore",
			"outputs": [
				{
					"internalType": "uint256",
					"name": "student_id",
					"type": "uint256"
				},
				{
					"internalType": "uint256",
					"name": "exam_id",
					"type": "uint256"
				},
				{
					"internalType": "uint256",
					"name": "score",
					"type": "uint256"
				},
				{
					"internalType": "address",
					"name": "graded_by",
					"type": "address"
				},
				{
					"internalType": "uint256",
					"name": "created_at",
					"type": "uint256"
				},
				{
					"internalType": "uint256",
					"name": "updated_at",
					"type": "uint256"
				},
				{
					"internalType": "bool",
					"name": "is_final",
					"type": "bool"
				}
			],
			"stateMutability": "view",
			"type": "function"
		},
		{
			"inputs": [
				{
					"internalType": "uint256",
					"name": "_student_id",
					"type": "uint256"
				}
			],
			"name": "getStudentAddress",
			"outputs": [
				{
					"internalType": "address",
					"name": "",
					"type": "address"
				}
			],
			"stateMutability": "view",
			"type": "function"
		},
		{
			"inputs": [
				{
					"internalType": "address",
					"name": "_address",
					"type": "address"
				}
			],
			"name": "getStudentIdByAddress",
			"outputs": [
				{
					"internalType": "uint256",
					"name": "",
					"type": "uint256"
				}
			],
			"stateMutability": "view",
			"type": "function"
		},
		{
			"inputs": [
				{
					"internalType": "uint256",
					"name": "_test_id",
					"type": "uint256"
				}
			],
			"name": "getTest",
			"outputs": [
				{
					"internalType": "uint256",
					"name": "test_id",
					"type": "uint256"
				},
				{
					"internalType": "uint256",
					"name": "id_created_by",
					"type": "uint256"
				},
				{
					"internalType": "uint256",
					"name": "created_at",
					"type": "uint256"
				},
				{
					"internalType": "bool",
					"name": "is_blocked",
					"type": "bool"
				},
				{
					"internalType": "bool",
					"name": "is_active",
					"type": "bool"
				}
			],
			"stateMutability": "view",
			"type": "function"
		},
		{
			"inputs": [
				{
					"internalType": "uint256",
					"name": "_entity_id",
					"type": "uint256"
				}
			],
			"name": "getTraceCount",
			"outputs": [
				{
					"internalType": "uint256",
					"name": "",
					"type": "uint256"
				}
			],
			"stateMutability": "view",
			"type": "function"
		},
		{
			"inputs": [
				{
					"internalType": "uint256",
					"name": "_entity_id",
					"type": "uint256"
				}
			],
			"name": "getTraces",
			"outputs": [
				{
					"components": [
						{
							"internalType": "uint256",
							"name": "timestamp",
							"type": "uint256"
						},
						{
							"internalType": "address",
							"name": "caller",
							"type": "address"
						},
						{
							"internalType": "string",
							"name": "action",
							"type": "string"
						},
						{
							"internalType": "uint256",
							"name": "target_id",
							"type": "uint256"
						},
						{
							"internalType": "string",
							"name": "details",
							"type": "string"
						}
					],
					"internalType": "struct DZTraceLogger.TraceRecord[]",
					"name": "",
					"type": "tuple[]"
				}
			],
			"stateMutability": "view",
			"type": "function"
		},
		{
			"inputs": [
				{
					"internalType": "uint256",
					"name": "_user_id",
					"type": "uint256"
				}
			],
			"name": "getUserTests",
			"outputs": [
				{
					"internalType": "uint256[]",
					"name": "",
					"type": "uint256[]"
				}
			],
			"stateMutability": "view",
			"type": "function"
		},
		{
			"inputs": [
				{
					"internalType": "address",
					"name": "account",
					"type": "address"
				}
			],
			"name": "grantEmployerRole",
			"outputs": [],
			"stateMutability": "nonpayable",
			"type": "function"
		},
		{
			"inputs": [
				{
					"internalType": "address",
					"name": "account",
					"type": "address"
				}
			],
			"name": "grantLecturerRole",
			"outputs": [],
			"stateMutability": "nonpayable",
			"type": "function"
		},
		{
			"inputs": [
				{
					"internalType": "bytes32",
					"name": "role",
					"type": "bytes32"
				},
				{
					"internalType": "address",
					"name": "account",
					"type": "address"
				}
			],
			"name": "grantRole",
			"outputs": [],
			"stateMutability": "nonpayable",
			"type": "function"
		},
		{
			"inputs": [
				{
					"internalType": "address",
					"name": "account",
					"type": "address"
				}
			],
			"name": "grantStudentRole",
			"outputs": [],
			"stateMutability": "nonpayable",
			"type": "function"
		},
		{
			"inputs": [
				{
					"internalType": "bytes32",
					"name": "role",
					"type": "bytes32"
				},
				{
					"internalType": "address",
					"name": "account",
					"type": "address"
				}
			],
			"name": "hasRole",
			"outputs": [
				{
					"internalType": "bool",
					"name": "",
					"type": "bool"
				}
			],
			"stateMutability": "view",
			"type": "function"
		},
		{
			"inputs": [
				{
					"internalType": "uint256",
					"name": "_student_id",
					"type": "uint256"
				},
				{
					"internalType": "uint256",
					"name": "_exam_id",
					"type": "uint256"
				},
				{
					"internalType": "string",
					"name": "_metadata_uri",
					"type": "string"
				}
			],
			"name": "issueCertificate",
			"outputs": [
				{
					"internalType": "uint256",
					"name": "",
					"type": "uint256"
				}
			],
			"stateMutability": "nonpayable",
			"type": "function"
		},
		{
			"inputs": [
				{
					"internalType": "address",
					"name": "",
					"type": "address"
				},
				{
					"internalType": "uint256",
					"name": "",
					"type": "uint256"
				}
			],
			"name": "lecturerExams",
			"outputs": [
				{
					"internalType": "uint256",
					"name": "",
					"type": "uint256"
				}
			],
			"stateMutability": "view",
			"type": "function"
		},
		{
			"inputs": [
				{
					"internalType": "uint256",
					"name": "_exam_id",
					"type": "uint256"
				}
			],
			"name": "lockExam",
			"outputs": [],
			"stateMutability": "nonpayable",
			"type": "function"
		},
		{
			"inputs": [],
			"name": "name",
			"outputs": [
				{
					"internalType": "string",
					"name": "",
					"type": "string"
				}
			],
			"stateMutability": "view",
			"type": "function"
		},
		{
			"inputs": [
				{
					"internalType": "uint256",
					"name": "tokenId",
					"type": "uint256"
				}
			],
			"name": "ownerOf",
			"outputs": [
				{
					"internalType": "address",
					"name": "",
					"type": "address"
				}
			],
			"stateMutability": "view",
			"type": "function"
		},
		{
			"inputs": [
				{
					"internalType": "uint256",
					"name": "_student_id",
					"type": "uint256"
				},
				{
					"internalType": "uint256",
					"name": "_exam_id",
					"type": "uint256"
				},
				{
					"internalType": "string",
					"name": "_review_status",
					"type": "string"
				},
				{
					"internalType": "uint256",
					"name": "_new_score",
					"type": "uint256"
				}
			],
			"name": "processReviewRequest",
			"outputs": [],
			"stateMutability": "nonpayable",
			"type": "function"
		},
		{
			"inputs": [
				{
					"internalType": "uint256",
					"name": "",
					"type": "uint256"
				},
				{
					"internalType": "uint256",
					"name": "",
					"type": "uint256"
				}
			],
			"name": "reviewRequests",
			"outputs": [
				{
					"internalType": "uint256",
					"name": "student_id",
					"type": "uint256"
				},
				{
					"internalType": "uint256",
					"name": "exam_id",
					"type": "uint256"
				},
				{
					"internalType": "uint256",
					"name": "request_date",
					"type": "uint256"
				},
				{
					"internalType": "string",
					"name": "status",
					"type": "string"
				},
				{
					"internalType": "uint256",
					"name": "old_score",
					"type": "uint256"
				},
				{
					"internalType": "uint256",
					"name": "new_score",
					"type": "uint256"
				},
				{
					"internalType": "string",
					"name": "reason",
					"type": "string"
				},
				{
					"internalType": "address",
					"name": "reviewer",
					"type": "address"
				},
				{
					"internalType": "uint256",
					"name": "reviewed_at",
					"type": "uint256"
				},
				{
					"internalType": "bool",
					"name": "is_processed",
					"type": "bool"
				}
			],
			"stateMutability": "view",
			"type": "function"
		},
		{
			"inputs": [
				{
					"internalType": "uint256",
					"name": "tokenId",
					"type": "uint256"
				}
			],
			"name": "revokeCertificate",
			"outputs": [],
			"stateMutability": "nonpayable",
			"type": "function"
		},
		{
			"inputs": [
				{
					"internalType": "address",
					"name": "account",
					"type": "address"
				}
			],
			"name": "revokeEmployerRole",
			"outputs": [],
			"stateMutability": "nonpayable",
			"type": "function"
		},
		{
			"inputs": [
				{
					"internalType": "address",
					"name": "account",
					"type": "address"
				}
			],
			"name": "revokeLecturerRole",
			"outputs": [],
			"stateMutability": "nonpayable",
			"type": "function"
		},
		{
			"inputs": [
				{
					"internalType": "bytes32",
					"name": "role",
					"type": "bytes32"
				},
				{
					"internalType": "address",
					"name": "account",
					"type": "address"
				}
			],
			"name": "revokeRole",
			"outputs": [],
			"stateMutability": "nonpayable",
			"type": "function"
		},
		{
			"inputs": [
				{
					"internalType": "address",
					"name": "account",
					"type": "address"
				}
			],
			"name": "revokeStudentRole",
			"outputs": [],
			"stateMutability": "nonpayable",
			"type": "function"
		},
		{
			"inputs": [
				{
					"internalType": "uint256",
					"name": "",
					"type": "uint256"
				},
				{
					"internalType": "uint256",
					"name": "",
					"type": "uint256"
				}
			],
			"name": "scores",
			"outputs": [
				{
					"internalType": "uint256",
					"name": "student_id",
					"type": "uint256"
				},
				{
					"internalType": "uint256",
					"name": "exam_id",
					"type": "uint256"
				},
				{
					"internalType": "uint256",
					"name": "score",
					"type": "uint256"
				},
				{
					"internalType": "address",
					"name": "graded_by",
					"type": "address"
				},
				{
					"internalType": "uint256",
					"name": "created_at",
					"type": "uint256"
				},
				{
					"internalType": "uint256",
					"name": "updated_at",
					"type": "uint256"
				},
				{
					"internalType": "bool",
					"name": "is_final",
					"type": "bool"
				}
			],
			"stateMutability": "view",
			"type": "function"
		},
		{
			"inputs": [
				{
					"internalType": "uint256",
					"name": "_student_id",
					"type": "uint256"
				},
				{
					"internalType": "address",
					"name": "_studentAddress",
					"type": "address"
				}
			],
			"name": "setStudentAddress",
			"outputs": [],
			"stateMutability": "nonpayable",
			"type": "function"
		},
		{
			"inputs": [
				{
					"internalType": "string",
					"name": "_hash",
					"type": "string"
				},
				{
					"internalType": "uint256",
					"name": "_exam_id",
					"type": "uint256"
				}
			],
			"name": "storeExam",
			"outputs": [
				{
					"internalType": "string",
					"name": "hash",
					"type": "string"
				},
				{
					"internalType": "uint256",
					"name": "exam_id",
					"type": "uint256"
				},
				{
					"internalType": "address",
					"name": "created_by",
					"type": "address"
				},
				{
					"internalType": "uint256",
					"name": "created_at",
					"type": "uint256"
				},
				{
					"internalType": "bool",
					"name": "is_active",
					"type": "bool"
				}
			],
			"stateMutability": "nonpayable",
			"type": "function"
		},
		{
			"inputs": [
				{
					"internalType": "uint256",
					"name": "_student_id",
					"type": "uint256"
				},
				{
					"internalType": "uint256",
					"name": "_exam_id",
					"type": "uint256"
				},
				{
					"internalType": "string",
					"name": "_reason",
					"type": "string"
				}
			],
			"name": "storeReviewRequest",
			"outputs": [],
			"stateMutability": "nonpayable",
			"type": "function"
		},
		{
			"inputs": [
				{
					"internalType": "uint256",
					"name": "_student_id",
					"type": "uint256"
				},
				{
					"internalType": "uint256",
					"name": "_exam_id",
					"type": "uint256"
				},
				{
					"internalType": "uint256",
					"name": "_score",
					"type": "uint256"
				}
			],
			"name": "storeScore",
			"outputs": [],
			"stateMutability": "nonpayable",
			"type": "function"
		},
		{
			"inputs": [
				{
					"internalType": "uint256",
					"name": "",
					"type": "uint256"
				}
			],
			"name": "studentAddresses",
			"outputs": [
				{
					"internalType": "address",
					"name": "",
					"type": "address"
				}
			],
			"stateMutability": "view",
			"type": "function"
		},
		{
			"inputs": [
				{
					"internalType": "uint256",
					"name": "",
					"type": "uint256"
				},
				{
					"internalType": "uint256",
					"name": "",
					"type": "uint256"
				}
			],
			"name": "studentCertificates",
			"outputs": [
				{
					"internalType": "uint256",
					"name": "",
					"type": "uint256"
				}
			],
			"stateMutability": "view",
			"type": "function"
		},
		{
			"inputs": [],
			"name": "symbol",
			"outputs": [
				{
					"internalType": "string",
					"name": "",
					"type": "string"
				}
			],
			"stateMutability": "view",
			"type": "function"
		},
		{
			"inputs": [
				{
					"internalType": "uint256",
					"name": "",
					"type": "uint256"
				}
			],
			"name": "tests",
			"outputs": [
				{
					"internalType": "uint256",
					"name": "test_id",
					"type": "uint256"
				},
				{
					"internalType": "uint256",
					"name": "id_created_by",
					"type": "uint256"
				},
				{
					"internalType": "uint256",
					"name": "created_at",
					"type": "uint256"
				},
				{
					"internalType": "bool",
					"name": "is_blocked",
					"type": "bool"
				},
				{
					"internalType": "bool",
					"name": "is_active",
					"type": "bool"
				}
			],
			"stateMutability": "view",
			"type": "function"
		},
		{
			"inputs": [
				{
					"internalType": "uint256",
					"name": "tokenId",
					"type": "uint256"
				}
			],
			"name": "tokenURI",
			"outputs": [
				{
					"internalType": "string",
					"name": "",
					"type": "string"
				}
			],
			"stateMutability": "view",
			"type": "function"
		},
		{
			"inputs": [
				{
					"internalType": "uint256",
					"name": "",
					"type": "uint256"
				},
				{
					"internalType": "uint256",
					"name": "",
					"type": "uint256"
				}
			],
			"name": "traces",
			"outputs": [
				{
					"internalType": "uint256",
					"name": "timestamp",
					"type": "uint256"
				},
				{
					"internalType": "address",
					"name": "caller",
					"type": "address"
				},
				{
					"internalType": "string",
					"name": "action",
					"type": "string"
				},
				{
					"internalType": "uint256",
					"name": "target_id",
					"type": "uint256"
				},
				{
					"internalType": "string",
					"name": "details",
					"type": "string"
				}
			],
			"stateMutability": "view",
			"type": "function"
		},
		{
			"inputs": [
				{
					"internalType": "uint256",
					"name": "_test_id",
					"type": "uint256"
				}
			],
			"name": "unblockTest",
			"outputs": [],
			"stateMutability": "nonpayable",
			"type": "function"
		},
		{
			"inputs": [
				{
					"internalType": "uint256",
					"name": "_student_id",
					"type": "uint256"
				},
				{
					"internalType": "uint256",
					"name": "_exam_id",
					"type": "uint256"
				},
				{
					"internalType": "uint256",
					"name": "_new_score",
					"type": "uint256"
				}
			],
			"name": "updateScore",
			"outputs": [],
			"stateMutability": "nonpayable",
			"type": "function"
		},
		{
			"inputs": [
				{
					"internalType": "uint256",
					"name": "_student_id",
					"type": "uint256"
				},
				{
					"internalType": "address",
					"name": "_newAddress",
					"type": "address"
				}
			],
			"name": "updateStudentAddress",
			"outputs": [],
			"stateMutability": "nonpayable",
			"type": "function"
		},
		{
			"inputs": [
				{
					"internalType": "uint256",
					"name": "",
					"type": "uint256"
				},
				{
					"internalType": "uint256",
					"name": "",
					"type": "uint256"
				}
			],
			"name": "userTests",
			"outputs": [
				{
					"internalType": "uint256",
					"name": "",
					"type": "uint256"
				}
			],
			"stateMutability": "view",
			"type": "function"
		},
		{
			"inputs": [
				{
					"internalType": "uint256",
					"name": "tokenId",
					"type": "uint256"
				}
			],
			"name": "verifyCertificate",
			"outputs": [
				{
					"components": [
						{
							"internalType": "uint256",
							"name": "tokenId",
							"type": "uint256"
						},
						{
							"internalType": "uint256",
							"name": "student_id",
							"type": "uint256"
						},
						{
							"internalType": "uint256",
							"name": "exam_id",
							"type": "uint256"
						},
						{
							"internalType": "uint256",
							"name": "score",
							"type": "uint256"
						},
						{
							"internalType": "string",
							"name": "metadata_uri",
							"type": "string"
						},
						{
							"internalType": "uint256",
							"name": "issued_at",
							"type": "uint256"
						},
						{
							"internalType": "address",
							"name": "issued_by",
							"type": "address"
						},
						{
							"internalType": "bool",
							"name": "is_valid",
							"type": "bool"
						}
					],
					"internalType": "struct DZCertificate.Certificate",
					"name": "",
					"type": "tuple"
				}
			],
			"stateMutability": "view",
			"type": "function"
		}
	]
}