{
	"data": {
		"bytecode": {
			"linkReferences": {},
			"object": "60c0604052601860809081527f445a426c6f636b436861696e204365727469666963617465000000000000000060a052600b9061003c908261026a565b50604080518082019091526004815263445a424360e01b6020820152600c90610065908261026a565b5034801561007257600080fd5b5061007c33610081565b610328565b61008c600082610149565b6100a46000805160206161f083398151915282610149565b5060016020526000805160206161f08339815191527f595c59303185d6018b57f7a342d2cbf9f9ac9bd599c2e6f1918108e6144ec4388190557f370a7df9accbb111e01ac14b81700c489619f4774b1e81a53cb39f158ec8436a8190557ffc7c36207174f786648d2e624616a4b40e15fd7f0268b4e36af5057f0c43c8356000527f6607ae9cbcc1dbd33a501ec84e0aa7b9ead733f39dab8f64d06b6e48f9e71b3f55565b6000828152602081815260408083206001600160a01b038516845290915290205460ff166101c7576000828152602081815260408083206001600160a01b0385168085529252808320805460ff1916600117905551339285917f2f8788117e7eff1d82e926ec794901d17c78024a50270940304540a733656f0d9190a45b5050565b634e487b7160e01b600052604160045260246000fd5b600181811c908216806101f557607f821691505b60208210810361021557634e487b7160e01b600052602260045260246000fd5b50919050565b601f82111561026557806000526020600020601f840160051c810160208510156102425750805b601f840160051c820191505b81811015610262576000815560010161024e565b50505b505050565b81516001600160401b03811115610283576102836101cb565b6102978161029184546101e1565b8461021b565b6020601f8211600181146102cb57600083156102b35750848201515b600019600385901b1c1916600184901b178455610262565b600084815260208120601f198516915b828110156102fb57878501518255602094850194600190920191016102db565b50848210156103195786840151600019600387901b60f8161c191681555b50505050600190811b01905550565b615eb9806103376000396000f3fe608060405234801561001057600080fd5b50600436106103b35760003560e01c806391d14854116101f6578063c9b1e0271161011b578063e8328683116100b3578063e832868314610b1d578063edef019d14610b30578063eeed250314610b43578063eef218bf14610b67578063f1b23d7f14610b7a578063f1c4731c14610b8d578063f7be43fb14610ba0578063f97563d514610bb5578063fa8d3cca14610bc8578063fc9b39e614610bf357600080fd5b8063c9b1e027146109b2578063cd79e42f146109c5578063ce44661b146109d8578063d27fc520146109eb578063d4f45061146109fe578063d547741f14610a11578063dd25514814610a24578063de22c8d414610a87578063e67651ac14610af457600080fd5b8063adc6ba731161018e578063adc6ba7314610823578063b5ab682d146108f7578063b63bfdcf14610920578063b8535a1114610940578063b8d7846614610953578063bd28921714610966578063c54164d414610979578063c87b56dd1461098c578063c94d10ad1461099f57600080fd5b806391d148541461077d57806395d89b411461079057806397bb03ba1461079857806399532f60146107ab578063a217fddf146107be578063a26ea890146107c6578063a486ab35146107d9578063aa1f80a5146107fd578063ac18cc2d1461081057600080fd5b80633f0a92fb116102dc5780636ca9e678116102745780636ca9e6781461069757806370a08231146106c057806375b238fc146106d3578063767cdbd8146106e85780637c69610c146106fb5780637c953e6e1461070e5780637f5af8101461072157806380ab3dda1461073457806386c344151461075d57600080fd5b80633f0a92fb146105845780633f576247146105975780634198cb3f146105aa57806345590d11146105cf5780636352211e146105e2578063663b3e221461060257806366b2d280146106295780636a0d28921461063c5780636c9d19001461064f57600080fd5b80631fa63aa31161034f5780631fa63aa3146104b05780632426bb38146104d057806325992935146104e55780632ea0d829146104f85780632f2ff15d1461050b57806332b3c8461461051e57806334018d7b14610531578063361ef2bd146105445780633bf82f321461056457600080fd5b8063036713be146103b857806306f5497e146103ea57806306fdde03146103ff5780630713eb021461041457806316853feb146104375780631692a9421461044a5780631bc7980c1461046a5780631d3e15ff1461047d5780631eb2c39614610490575b600080fd5b6103cb6103c63660046151a4565b610c06565b6040516103e19a99989796959493929190615223565b60405180910390f35b6103fd6103f8366004615298565b610d86565b005b610407610e47565b6040516103e191906152b1565b610429600080516020615e0483398151915281565b6040519081526020016103e1565b6103fd6104453660046152e7565b610ed9565b61045d610458366004615298565b610f2a565b6040516103e19190615302565b6103fd610478366004615420565b6110b2565b6103fd61048b3660046151a4565b611434565b6104a361049e366004615298565b611618565b6040516103e1919061546f565b6104c36104be3660046151a4565b611820565b6040516103e19190615521565b610429600080516020615e4483398151915281565b6103fd6104f33660046151a4565b611a75565b6103fd6105063660046152e7565b611d28565b6103fd6105193660046155ce565b611d75565b6103fd61052c3660046152e7565b611dac565b61042961053f3660046151a4565b611df9565b610557610552366004615298565b611e2a565b6040516103e191906155fa565b610429610572366004615298565b60009081526014602052604090205490565b6103fd61059236600461563d565b611e8c565b6103fd6105a5366004615298565b612026565b6105bd6105b8366004615298565b612134565b6040516103e196959493929190615669565b6103fd6105dd3660046156b2565b612201565b6105f56105f0366004615298565b6122a4565b6040516103e191906156f8565b610615610610366004615298565b6122da565b6040516103e198979695949392919061570c565b6103fd6106373660046152e7565b6123b4565b6103fd61064a3660046155ce565b612401565b61068761065d3660046151a4565b6000918252600660209081526040808420928452919052902060070154600160a01b900460ff1690565b60405190151581526020016103e1565b6106aa6106a53660046151a4565b61256a565b6040516103e19a99989796959493929190615764565b6104296106ce3660046152e7565b612661565b610429600080516020615e6483398151915281565b6104296106f63660046157ce565b6126a6565b6103fd61070936600461563d565b6126c2565b6103fd61071c36600461563d565b612863565b61055761072f3660046152e7565b612a3a565b6104296107423660046152e7565b6001600160a01b031660009081526003602052604090205490565b61042961076b3660046152e7565b60036020526000908152604090205481565b61068761078b3660046155ce565b612b22565b610407612b4b565b6103fd6107a63660046156b2565b612b5a565b61045d6107b93660046151a4565b612bef565b610429600081565b6105576107d4366004615298565b612db0565b6107ec6107e73660046157f8565b612e62565b6040516103e195949392919061583c565b61042961080b3660046151a4565b6130cb565b6103fd61081e36600461563d565b6130e7565b6108b86108313660046151a4565b600091825260086020908152604080842092845291815291819020815160e08101835281548082526001830154948201859052600283015493820184905260038301546001600160a01b031660608301819052600484015460808401819052600585015460a0850181905260069095015460ff16151560c090940184905291969093919290565b604080519788526020880196909652948601939093526001600160a01b039091166060850152608084015260a0830152151560c082015260e0016103e1565b6105f5610905366004615298565b6002602052600090815260409020546001600160a01b031681565b61093361092e366004615298565b6132d1565b6040516103e1919061587e565b61042961094e366004615420565b6134c2565b6103fd610961366004615298565b613777565b61045d6109743660046151a4565b61390e565b6103fd610987366004615298565b61394b565b61040761099a366004615298565b613a54565b6103fd6109ad3660046152e7565b613b13565b6103fd6109c0366004615420565b613b60565b6103fd6109d33660046151a4565b613eac565b6109336109e63660046151a4565b614008565b6103fd6109f93660046155ce565b614227565b6104c3610a0c366004615298565b61437e565b6103fd610a1f3660046155ce565b6145a3565b6108b8610a323660046151a4565b600860209081526000928352604080842090915290825290208054600182015460028301546003840154600485015460058601546006909601549495939492936001600160a01b039092169290919060ff1687565b610ac8610a95366004615298565b60166020526000908152604090208054600182015460028301546003909301549192909160ff8082169161010090041685565b60408051958652602086019490945292840191909152151560608301521515608082015260a0016103e1565b6105f5610b02366004615298565b6000908152600260205260409020546001600160a01b031690565b610429610b2b3660046151a4565b6145d5565b610ac8610b3e366004615298565b6146cc565b610b56610b513660046151a4565b61476d565b6040516103e195949392919061591b565b610557610b75366004615298565b6148d7565b610429610b883660046151a4565b614989565b6103fd610b9b366004615969565b6149a5565b610429600080516020615de483398151915281565b6105bd610bc3366004615298565b614d41565b610429610bd63660046151a4565b600f60209081526000928352604080842090915290825290205481565b6103fd610c013660046152e7565b614e81565b600a60205281600052604060002060205280600052604060002060009150915050806000015490806001015490806002015490806003018054610c48906159c0565b80601f0160208091040260200160405190810160405280929190818152602001828054610c74906159c0565b8015610cc15780601f10610c9657610100808354040283529160200191610cc1565b820191906000526020600020905b815481529060010190602001808311610ca457829003601f168201915b505050505090806004015490806005015490806006018054610ce2906159c0565b80601f0160208091040260200160405190810160405280929190818152602001828054610d0e906159c0565b8015610d5b5780601f10610d3057610100808354040283529160200191610d5b565b820191906000526020600020905b815481529060010190602001808311610d3e57829003601f168201915b505050506007830154600884015460099094015492936001600160a01b039091169290915060ff168a565b600080516020615e64833981519152610d9f8133612b22565b610dc45760405162461bcd60e51b8152600401610dbb906159f4565b60405180910390fd5b6000828152600e6020526040902060060154600160a01b900460ff16610dfd5760405163766ff4c760e11b815260040160405180910390fd5b6000828152600e6020526040808220600601805460ff60a01b1916905551339184917f325c62e70cfaa61cf0709d9607ea9d8451b235297c4b47c65ff6a6449c9faca49190a35050565b6060600b8054610e56906159c0565b80601f0160208091040260200160405190810160405280929190818152602001828054610e82906159c0565b8015610ecf5780601f10610ea457610100808354040283529160200191610ecf565b820191906000526020600020905b815481529060010190602001808311610eb257829003601f168201915b5050505050905090565b600080516020615e64833981519152610ef28133612b22565b610f0e5760405162461bcd60e51b8152600401610dbb906159f4565b610f26600080516020615e4483398151915283614ece565b5050565b610f3261508d565b600080516020615e44833981519152610f4b8133612b22565b610f675760405162461bcd60e51b8152600401610dbb906159f4565b6000838152600e6020526040902060060154600160a01b900460ff16610fa05760405163766ff4c760e11b815260040160405180910390fd5b600e60008481526020019081526020016000206040518061010001604052908160008201548152602001600182015481526020016002820154815260200160038201548152602001600482018054610ff7906159c0565b80601f0160208091040260200160405190810160405280929190818152602001828054611023906159c0565b80156110705780601f1061104557610100808354040283529160200191611070565b820191906000526020600020905b81548152906001019060200180831161105357829003601f168201915b5050509183525050600582015460208201526006909101546001600160a01b0381166040830152600160a01b900460ff16151560609091015291505b50919050565b600080516020615de48339815191526110cb8133612b22565b6110e75760405162461bcd60e51b8152600401610dbb906159f4565b600084116111075760405162461bcd60e51b8152600401610dbb90615a1b565b60008381526004602081905260409091200154610100900460ff1661113e5760405162461bcd60e51b8152600401610dbb90615a47565b6000838152600460208190526040909120015460ff16156111925760405162461bcd60e51b815260206004820152600e60248201526d115e185b481a5cc81b1bd8dad95960921b6044820152606401610dbb565b6000848152600260205260409020546001600160a01b031633146111f85760405162461bcd60e51b815260206004820152601c60248201527f43616e206f6e6c79207375626d697420666f7220796f757273656c66000000006044820152606401610dbb565b60008251116112435760405162461bcd60e51b8152602060048201526017602482015276436f6e74656e742063616e6e6f7420626520656d70747960481b6044820152606401610dbb565b6000848152600660209081526040808320868452909152902060070154600160a01b900460ff16156112b25760405162461bcd60e51b8152602060048201526018602482015277105b9cddd95c88185b1c9958591e481cdd589b5a5d1d195960421b6044820152606401610dbb565b604080516101408101825285815260208082018681528284018681526000606085018190524260808601523360a086015260c0850181905260e085018190526001610100860181905261012086018290528a8252600685528682208a83529094529490942083518155905191810191909155915190919060028201906113389082615ac2565b50606082015160038201556080820151600482015560a08201516005820180546001600160a01b039283166001600160a01b031990911617905560c0830151600683015560e083015160079283018054610100860151610120909601511515600160a81b0260ff60a81b19961515600160a01b026001600160a81b03199092169390941692909217919091179390931617909155600084815260209182526040808220805460018101825590835292909120909101859055513390849086907f2ac19e2e133bacfdefa15a8498daa07908c5a452d833e60fdbac08f8187ab169906114269087904290615b80565b60405180910390a450505050565b600080516020615e6483398151915261144d8133612b22565b6114695760405162461bcd60e51b8152600401610dbb906159f4565b600083116114ab5760405162461bcd60e51b815260206004820152600f60248201526e125b9d985b1a59081d195cdd081251608a1b6044820152606401610dbb565b600082116114f05760405162461bcd60e51b8152602060048201526012602482015271125b9d985b1a590818dc99585d1bdc88125160721b6044820152606401610dbb565b600083815260166020526040902060030154610100900460ff161561154d5760405162461bcd60e51b81526020600482015260136024820152725465737420616c72656164792065786973747360681b6044820152606401610dbb565b6040805160a0810182528481526020808201858152428385018181526000606086018181526001608088018181528c84526016885289842098518955955188820155925160028801555160039096018054945115156101000261ff00199715159790971661ffff1990951694909417959095179092558684526017835284842080549283018155845292829020018690559151908152839185917f7362a05daff7a219173125fc58b18f322f2e8b7e19dd728e5d5526716858db6191015b60405180910390a3505050565b6060611632600080516020615e6483398151915233612b22565b806116505750611650600080516020615e0483398151915233612b22565b61166c5760405162461bcd60e51b8152600401610dbb906159f4565b600082815260146020908152604080832080548251818502810185019093528083529193909284015b828210156118155760008481526020908190206040805160a081018252600586029092018054835260018101546001600160a01b031693830193909352600283018054929392918401916116e8906159c0565b80601f0160208091040260200160405190810160405280929190818152602001828054611714906159c0565b80156117615780601f1061173657610100808354040283529160200191611761565b820191906000526020600020905b81548152906001019060200180831161174457829003601f168201915b5050505050815260200160038201548152602001600482018054611784906159c0565b80601f01602080910402602001604051908101604052809291908181526020018280546117b0906159c0565b80156117fd5780601f106117d2576101008083540402835291602001916117fd565b820191906000526020600020905b8154815290600101906020018083116117e057829003601f168201915b50505050508152505081526020019060010190611695565b505050509050919050565b6118286150dd565b611840600080516020615e0483398151915233612b22565b8061185e575061185e600080516020615e6483398151915233612b22565b8061189d57506000838152600260205260409020546001600160a01b03163314801561189d575061189d600080516020615de483398151915233612b22565b6118b95760405162461bcd60e51b8152600401610dbb906159f4565b600a6000848152602001908152602001600020600083815260200190815260200160002060405180610140016040529081600082015481526020016001820154815260200160028201548152602001600382018054611917906159c0565b80601f0160208091040260200160405190810160405280929190818152602001828054611943906159c0565b80156119905780601f1061196557610100808354040283529160200191611990565b820191906000526020600020905b81548152906001019060200180831161197357829003601f168201915b5050505050815260200160048201548152602001600582015481526020016006820180546119bd906159c0565b80601f01602080910402602001604051908101604052809291908181526020018280546119e9906159c0565b8015611a365780601f10611a0b57610100808354040283529160200191611a36565b820191906000526020600020905b815481529060010190602001808311611a1957829003601f168201915b505050918352505060078201546001600160a01b031660208201526008820154604082015260099091015460ff16151560609091015290505b92915050565b600080516020615e04833981519152611a8e8133612b22565b611aaa5760405162461bcd60e51b8152600401610dbb906159f4565b6000838152600660209081526040808320858452909152902060070154600160a01b900460ff16611aed5760405162461bcd60e51b8152600401610dbb90615ba2565b6000838152600660209081526040808320858452909152902060070154600160a81b900460ff16611b305760405162461bcd60e51b8152600401610dbb90615bd0565b600083815260086020908152604080832085845290915290205415611b675760405162461bcd60e51b8152600401610dbb90615bff565b60006006600085815260200190815260200160002060008481526020019081526020016000206003015490506040518060e0016040528085815260200184815260200182815260200160066000878152602001908152602001600020600086815260200190815260200160002060070160009054906101000a90046001600160a01b03166001600160a01b031681526020014281526020014281526020016000151581525060086000868152602001908152602001600020600085815260200190815260200160002060008201518160000155602082015181600101556040820151816002015560608201518160030160006101000a8154816001600160a01b0302191690836001600160a01b031602179055506080820151816004015560a0820151816005015560c08201518160060160006101000a81548160ff02191690831515021790555090505060096000848152602001908152602001600020849080600181540180825580915050600190039060005260206000200160009091909190915055336001600160a01b031683857efe563478d2112c66117b5a44add5a901b10f4b748d444a9308e738c3d3e2ca8460405161142691815260200190565b600080516020615e64833981519152611d418133612b22565b611d5d5760405162461bcd60e51b8152600401610dbb906159f4565b610f26600080516020615e4483398151915283614f35565b6000611d818133612b22565b611d9d5760405162461bcd60e51b8152600401610dbb906159f4565b611da78383614ece565b505050565b600080516020615e64833981519152611dc58133612b22565b611de15760405162461bcd60e51b8152600401610dbb906159f4565b610f26600080516020615de483398151915283614f35565b60076020528160005260406000208181548110611e1557600080fd5b90600052602060002001600091509150505481565b600081815260176020908152604091829020805483518184028101840190945280845260609392830182828015611e8057602002820191906000526020600020905b815481526020019060010190808311611e6c575b50505050509050919050565b600080516020615e04833981519152611ea58133612b22565b611ec15760405162461bcd60e51b8152600401610dbb906159f4565b60008381526004602081905260409091200154610100900460ff16611ef85760405162461bcd60e51b8152600401610dbb90615a47565b6064821115611f195760405162461bcd60e51b8152600401610dbb90615c2d565b60008481526008602090815260408083208684529091528120549003611f515760405162461bcd60e51b8152600401610dbb90615c5b565b600084815260086020908152604080832086845290915290206006015460ff1615611fb35760405162461bcd60e51b815260206004820152601260248201527114d8dbdc99481a5cc8199a5b985b1a5e995960721b6044820152606401610dbb565b600084815260086020908152604080832086845282529182902060028101805490869055426005909201919091558251818152918201859052913391869188917fafca19e7338b80a137bdd94e7b2ec35d7d842cc5c4d91a3576d97135e9de063d91015b60405180910390a45050505050565b600080516020615e6483398151915261203f8133612b22565b61205b5760405162461bcd60e51b8152600401610dbb906159f4565b600082815260166020526040902060030154610100900460ff166120915760405162461bcd60e51b8152600401610dbb90615c89565b60008281526016602052604090206003015460ff16156120ea5760405162461bcd60e51b815260206004820152601460248201527315195cdd08185b1c9958591e48189b1bd8dad95960621b6044820152606401610dbb565b600082815260166020526040808220600301805460ff1916600117905551339184917fe63354374974d42e2a4930c5c063d6b47516e4000f1e651731247d2e7053920c9190a35050565b60046020526000908152604090208054819061214f906159c0565b80601f016020809104026020016040519081016040528092919081815260200182805461217b906159c0565b80156121c85780601f1061219d576101008083540402835291602001916121c8565b820191906000526020600020905b8154815290600101906020018083116121ab57829003601f168201915b50505050600183015460028401546003850154600490950154939491936001600160a01b03909116925060ff8082169161010090041686565b600080516020615de483398151915261221a8133612b22565b6122365760405162461bcd60e51b8152600401610dbb906159f4565b33600090815260036020526040902054806122935760405162461bcd60e51b815260206004820181905260248201527f53747564656e74204944206e6f74206c696e6b656420746f20616464726573736044820152606401610dbb565b61229e8185856110b2565b50505050565b6000818152601060205260408120546001600160a01b031680611a6f5760405163277024cd60e11b815260040160405180910390fd5b600e60205260009081526040902080546001820154600283015460038401546004850180549495939492939192612310906159c0565b80601f016020809104026020016040519081016040528092919081815260200182805461233c906159c0565b80156123895780601f1061235e57610100808354040283529160200191612389565b820191906000526020600020905b81548152906001019060200180831161236c57829003601f168201915b5050505060058301546006909301549192916001600160a01b0381169150600160a01b900460ff1688565b600080516020615e648339815191526123cd8133612b22565b6123e95760405162461bcd60e51b8152600401610dbb906159f4565b610f26600080516020615e0483398151915283614ece565b600080516020615e6483398151915261241a8133612b22565b6124365760405162461bcd60e51b8152600401610dbb906159f4565b82600003612457576040516307cd638760e01b815260040160405180910390fd5b6001600160a01b03821661247e57604051632aaa5c9760e01b815260040160405180910390fd5b6000838152600260205260409020546001600160a01b03166124b35760405163269e51d160e11b815260040160405180910390fd5b6001600160a01b038216600090815260036020526040902054156124ea5760405163754d1f4d60e01b815260040160405180910390fd5b600083815260026020908152604080832080546001600160a01b03908116808652600390945282852085905581546001600160a01b0319169087169081179091558084529281902086905551909190829086907f59e33f3654f744a7a32cda9a919fa879941875bb700d1c776ade2f64e23b4649906114269033906156f8565b60066020908152600092835260408084209091529082529020805460018201546002830180549293919261259d906159c0565b80601f01602080910402602001604051908101604052809291908181526020018280546125c9906159c0565b80156126165780601f106125eb57610100808354040283529160200191612616565b820191906000526020600020905b8154815290600101906020018083116125f957829003601f168201915b5050506003840154600485015460058601546006870154600790970154959692959194506001600160a01b03908116935081169060ff600160a01b8204811691600160a81b9004168a565b60006001600160a01b03821661268a57604051632aaa5c9760e01b815260040160405180910390fd5b506001600160a01b031660009081526011602052604090205490565b60056020528160005260406000208181548110611e1557600080fd5b600080516020615e048339815191526126db8133612b22565b6126f75760405162461bcd60e51b8152600401610dbb906159f4565b60008381526004602081905260409091200154610100900460ff1661272e5760405162461bcd60e51b8152600401610dbb90615a47565b606482111561274f5760405162461bcd60e51b8152600401610dbb90615c2d565b6000848152600660209081526040808320868452909152902060070154600160a01b900460ff166127925760405162461bcd60e51b8152600401610dbb90615ba2565b60008481526006602081815260408084208785529091529091206003810180549085905542928201929092556007018054600160a81b600161ff0160a01b03199091163360ff60a81b1916171790558281146128285760408051828152602081018590523391869188917f1f07fbd62b0d4fd1e1c2d6a7cbdf5d3674de5b53a9311961de74e50f53596656910160405180910390a45b604080518481524260208201523391869188917fe87c6d24db2b7edf48158693d0e3add41dcc728823fbf49cbe647b36f68ac53f9101612017565b600080516020615e0483398151915261287c8133612b22565b6128985760405162461bcd60e51b8152600401610dbb906159f4565b60008381526004602081905260409091200154610100900460ff166128cf5760405162461bcd60e51b8152600401610dbb90615a47565b60648211156128f05760405162461bcd60e51b8152600401610dbb90615c2d565b600084116129105760405162461bcd60e51b8152600401610dbb90615a1b565b6000848152600860209081526040808320868452909152902054156129475760405162461bcd60e51b8152600401610dbb90615bff565b6040805160e08101825285815260208082018681528284018681523360608501818152426080870181815260a08801918252600060c089018181528e8252600889528a82208e835289528a822099518a5596516001808b0191909155955160028a015592516003890180546001600160a01b0319166001600160a01b0390921691909117905551600488015551600587015592516006909501805460ff19169515159590951790945560098352848220805491820181558252908290200187905591518481529091859187917efe563478d2112c66117b5a44add5a901b10f4b748d444a9308e738c3d3e2ca9101611426565b6060612a54600080516020615e0483398151915283612b22565b80612a725750612a72600080516020615e6483398151915283612b22565b612aba5760405162461bcd60e51b815260206004820152601960248201527820b2323932b9b99034b9903737ba1030903632b1ba3ab932b960391b6044820152606401610dbb565b6001600160a01b03821660009081526005602090815260409182902080548351818402810184019094528084529091830182828015611e805760200282019190600052602060002090815481526020019060010190808311611e6c5750505050509050919050565b6000918252602082815260408084206001600160a01b0393909316845291905290205460ff1690565b6060600c8054610e56906159c0565b600080516020615de4833981519152612b738133612b22565b612b8f5760405162461bcd60e51b8152600401610dbb906159f4565b3360009081526003602052604090205480612be45760405162461bcd60e51b815260206004820152601560248201527414dd1d59195b9d081251081b9bdd081b1a5b9ad959605a1b6044820152606401610dbb565b61229e818585613b60565b612bf761508d565b600080516020615de4833981519152612c108133612b22565b612c2c5760405162461bcd60e51b8152600401610dbb906159f4565b6000848152600260205260409020546001600160a01b03163314612c635760405163bf441c9560e01b815260040160405180910390fd5b6000848152600f6020908152604080832086845290915281205490819003612c9e5760405163277024cd60e11b815260040160405180910390fd5b600e60008281526020019081526020016000206040518061010001604052908160008201548152602001600182015481526020016002820154815260200160038201548152602001600482018054612cf5906159c0565b80601f0160208091040260200160405190810160405280929190818152602001828054612d21906159c0565b8015612d6e5780601f10612d4357610100808354040283529160200191612d6e565b820191906000526020600020905b815481529060010190602001808311612d5157829003601f168201915b5050509183525050600582015460208201526006909101546001600160a01b0381166040830152600160a01b900460ff16151560609091015295945050505050565b6060612dca600080516020615e6483398151915233612b22565b80612de85750612de8600080516020615e0483398151915233612b22565b612e045760405162461bcd60e51b8152600401610dbb906159f4565b60008281526009602090815260409182902080548351818402810184019094528084529091830182828015611e805760200282019190600052602060002090815481526020019060010190808311611e6c5750505050509050919050565b6060600080600080600080516020615e64833981519152612e838133612b22565b612e9f5760405162461bcd60e51b8152600401610dbb906159f4565b60008711612ee15760405162461bcd60e51b815260206004820152600f60248201526e125b9d985b1a5908195e185b481251608a1b6044820152606401610dbb565b6000885111612f295760405162461bcd60e51b8152602060048201526014602482015273486173682063616e6e6f7420626520656d70747960601b6044820152606401610dbb565b60008781526004602081905260409091200154610100900460ff1615612f875760405162461bcd60e51b81526020600482015260136024820152724578616d20616c72656164792065786973747360681b6044820152606401610dbb565b6040805160c08101825289815260208082018a90523382840152426060830152600060808301819052600160a08401528a815260049091529190912081518190612fd19082615ac2565b506020828101516001808401919091556040808501516002850180546001600160a01b039092166001600160a01b03199092169190911790556060850151600385015560808501516004909401805460a09096015115156101000261ff00199515159590951661ffff19909616959095179390931790935533600090815260058252918220805480850182559083529120018890556130709043615ccc565b40336001600160a01b0316887f8b168dde777687beda31f8ad281fa67ebd897c29df397f83889b3a08b9b53a7e8b42436040516130af93929190615cdf565b60405180910390a4509596949550339442945060019350915050565b60096020528160005260406000208181548110611e1557600080fd5b600080516020615e048339815191526131008133612b22565b61311c5760405162461bcd60e51b8152600401610dbb906159f4565b60008381526004602081905260409091200154610100900460ff166131535760405162461bcd60e51b8152600401610dbb90615a47565b60648211156131745760405162461bcd60e51b8152600401610dbb90615c2d565b6000848152600660209081526040808320868452909152902060070154600160a01b900460ff166131b75760405162461bcd60e51b8152600401610dbb90615ba2565b6000848152600660209081526040808320868452909152902060070154600160a81b900460ff166131fa5760405162461bcd60e51b8152600401610dbb90615bd0565b60008481526006602090815260408083208684529091529020600301548281036132585760405162461bcd60e51b815260206004820152600f60248201526e14d8dbdc99481d5b98da185b99d959608a1b6044820152606401610dbb565b6000858152600660208181526040808420888552825292839020600381018790554292810192909255600790910180546001600160a01b03191633908117909155825184815291820186905291869188917f1f07fbd62b0d4fd1e1c2d6a7cbdf5d3674de5b53a9311961de74e50f535966569101612017565b6132d961513b565b600080516020615de48339815191526132f28133612b22565b61330e5760405162461bcd60e51b8152600401610dbb906159f4565b336000908152600360205260409020548061333b5760405162461bcd60e51b8152600401610dbb90615d04565b6000818152600660209081526040808320878452909152902060070154600160a01b900460ff1661337e5760405162461bcd60e51b8152600401610dbb90615d32565b6006600082815260200190815260200160002060008581526020019081526020016000206040518061014001604052908160008201548152602001600182015481526020016002820180546133d2906159c0565b80601f01602080910402602001604051908101604052809291908181526020018280546133fe906159c0565b801561344b5780601f106134205761010080835404028352916020019161344b565b820191906000526020600020905b81548152906001019060200180831161342e57829003601f168201915b5050509183525050600382015460208201526004820154604082015260058201546001600160a01b0390811660608301526006830154608083015260079092015491821660a082015260ff600160a01b83048116151560c0830152600160a81b909204909116151560e09091015292505050919050565b6000600080516020615e048339815191526134dd8133612b22565b6134f95760405162461bcd60e51b8152600401610dbb906159f4565b60008481526004602081905260409091200154610100900460ff166135315760405163306e000360e01b815260040160405180910390fd5b600085815260086020908152604080832087845290915290206006015460ff1661356e576040516395d3efef60e01b815260040160405180910390fd5b6000858152600f60209081526040808320878452909152902054156135a657604051631be3a3bb60e11b815260040160405180910390fd5b6000858152600260205260409020546001600160a01b03166135db5760405163269e51d160e11b815260040160405180910390fd5b82516000036135fd576040516332c6937f60e21b815260040160405180910390fd5b600d805490600061360d83615d5c565b9091555050600d546000868152600260205260409020546001600160a01b03166136378183614f9a565b604080516101008101825283815260208082018a81528284018a815260008c8152600884528581208c8252845285812060029081015460608701908152608087018d81524260a08901523360c0890152600160e089018190528b8552600e909752979092208651815593519484019490945590519282019290925590516003820155915190919060048201906136cd9082615ac2565b5060a0820151600582015560c08201516006909101805460e0909301511515600160a01b026001600160a81b03199093166001600160a01b03909216919091179190911790556000878152600f6020908152604080832089845290915290819020839055518690889084907f8ac7002efa82d166d2ee18d556aa13a196bcc010f8c9622dd8c08d769ba03f04906137659033906156f8565b60405180910390a45095945050505050565b61378f600080516020615e0483398151915233612b22565b806137ad57506137ad600080516020615e6483398151915233612b22565b6137f95760405162461bcd60e51b815260206004820181905260248201527f43616c6c6572206d7573742062652061646d696e206f72206c656374757265726044820152606401610dbb565b60008181526004602081905260409091200154610100900460ff166138305760405162461bcd60e51b8152600401610dbb90615a47565b6000818152600460205260409020600201546001600160a01b031633148061386b575061386b600080516020615e6483398151915233612b22565b6138c35760405162461bcd60e51b815260206004820152602360248201527f4f6e6c79206578616d2063726561746f72206f722061646d696e2063616e206c6044820152626f636b60e81b6064820152608401610dbb565b6000818152600460208190526040808320909101805460ff1916600117905551339183917f538044b65b113f681756f903257ff1744163f47a51ea8de3f4d081196d4e2d379190a350565b61391661508d565b600080516020615e4483398151915261392f8133612b22565b612c635760405162461bcd60e51b8152600401610dbb906159f4565b600080516020615e648339815191526139648133612b22565b6139805760405162461bcd60e51b8152600401610dbb906159f4565b600082815260166020526040902060030154610100900460ff166139b65760405162461bcd60e51b8152600401610dbb90615c89565b60008281526016602052604090206003015460ff16613a0d5760405162461bcd60e51b815260206004820152601360248201527215195cdd081a5cc81b9bdd08189b1bd8dad959606a1b6044820152606401610dbb565b600082815260166020526040808220600301805460ff1916905551339184917fa2196d3f06a62b0c168a42af7e270a2e40b8715051f911625060d32cdd59a2589190a35050565b6060613a5f82615070565b613a7c5760405163277024cd60e11b815260040160405180910390fd5b6000828152600e602052604090206004018054613a98906159c0565b80601f0160208091040260200160405190810160405280929190818152602001828054613ac4906159c0565b8015611e805780601f10613ae657610100808354040283529160200191611e80565b820191906000526020600020905b815481529060010190602001808311613af45750939695505050505050565b600080516020615e64833981519152613b2c8133612b22565b613b485760405162461bcd60e51b8152600401610dbb906159f4565b610f26600080516020615de483398151915283614ece565b600080516020615de4833981519152613b798133612b22565b613b955760405162461bcd60e51b8152600401610dbb906159f4565b6000848152600260205260409020546001600160a01b03163314613bfb5760405162461bcd60e51b815260206004820152601d60248201527f43616e206f6e6c79207265717565737420666f7220796f757273656c660000006044820152606401610dbb565b60008381526004602081905260409091200154610100900460ff16613c325760405162461bcd60e51b8152600401610dbb90615a47565b60008481526008602090815260408083208684529091528120549003613c8c5760405162461bcd60e51b815260206004820152600f60248201526e14d8dbdc99481b9bdd08199bdd5b99608a1b6044820152606401610dbb565b6000848152600a6020908152604080832086845290915290206009015460ff1615613cec5760405162461bcd60e51b815260206004820152601060248201526f105b1c9958591e481c995d9a595dd95960821b6044820152606401610dbb565b6000825111613d2f5760405162461bcd60e51b815260206004820152600f60248201526e1499585cdbdb881c995c5d5a5c9959608a1b6044820152606401610dbb565b600084815260086020908152604080832086845282528083206002908101548251610140810184528981528085018981524282860190815285518087018752600781526650454e44494e4760c81b81890152606084019081526080840185905260a0840189905260c084018b905260e08401899052610100840189905261012084018990528c8952600a88528689208c8a529097529490962081518155955160018701559251918501919091559151919290916003820190613df19082615ac2565b506080820151600482015560a0820151600582015560c08201516006820190613e1a9082615ac2565b5060e08201516007820180546001600160a01b0319166001600160a01b039092169190911790556101008201516008820155610120909101516009909101805460ff1916911515919091179055604051849086907f39f367466b9c76eb50c2fd96892cafe4148ed40a44dac7d3da0b4141bbc31abd90613e9d9085908890615d75565b60405180910390a35050505050565b600080516020615e04833981519152613ec58133612b22565b613ee15760405162461bcd60e51b8152600401610dbb906159f4565b60008281526004602081905260409091200154610100900460ff16613f185760405162461bcd60e51b8152600401610dbb90615a47565b60008381526008602090815260408083208584529091528120549003613f505760405162461bcd60e51b8152600401610dbb90615c5b565b600083815260086020908152604080832085845290915290206006015460ff1615613fb15760405162461bcd60e51b8152602060048201526011602482015270105b1c9958591e48199a5b985b1a5e9959607a1b6044820152606401610dbb565b6000838152600860209081526040808320858452909152808220600601805460ff19166001179055513391849186917f36e84e8c8ae4287078a0aa64e46e7661513feb5fff8cb2511388aa21e20965ac91a4505050565b61401061513b565b614028600080516020615e0483398151915233612b22565b806140465750614046600080516020615e6483398151915233612b22565b8061408557506000838152600260205260409020546001600160a01b0316331480156140855750614085600080516020615de483398151915233612b22565b6140a15760405162461bcd60e51b8152600401610dbb906159f4565b6000838152600660209081526040808320858452909152902060070154600160a01b900460ff166140e45760405162461bcd60e51b8152600401610dbb90615d32565b600660008481526020019081526020016000206000838152602001908152602001600020604051806101400160405290816000820154815260200160018201548152602001600282018054614138906159c0565b80601f0160208091040260200160405190810160405280929190818152602001828054614164906159c0565b80156141b15780601f10614186576101008083540402835291602001916141b1565b820191906000526020600020905b81548152906001019060200180831161419457829003601f168201915b5050509183525050600382015460208201526004820154604082015260058201546001600160a01b0390811660608301526006830154608083015260079092015491821660a082015260ff600160a01b83048116151560c0830152600160a81b909204909116151560e090910152905092915050565b600080516020615e648339815191526142408133612b22565b61425c5760405162461bcd60e51b8152600401610dbb906159f4565b8260000361427d576040516307cd638760e01b815260040160405180910390fd5b6001600160a01b0382166142a457604051632aaa5c9760e01b815260040160405180910390fd5b6000838152600260205260409020546001600160a01b0316156142da57604051631517f49760e01b815260040160405180910390fd5b6001600160a01b038216600090815260036020526040902054156143115760405163754d1f4d60e01b815260040160405180910390fd5b600083815260026020908152604080832080546001600160a01b0319166001600160a01b038716908117909155808452600390925291829020859055905184907fd9cc4835d96fc4b2afb6db1577a9677a621088cdee0c53da65076951d88be32f9061160b9033906156f8565b6143866150dd565b600080516020615de483398151915261439f8133612b22565b6143bb5760405162461bcd60e51b8152600401610dbb906159f4565b33600090815260036020526040902054806143e85760405162461bcd60e51b8152600401610dbb90615d04565b600a6000828152602001908152602001600020600085815260200190815260200160002060405180610140016040529081600082015481526020016001820154815260200160028201548152602001600382018054614446906159c0565b80601f0160208091040260200160405190810160405280929190818152602001828054614472906159c0565b80156144bf5780601f10614494576101008083540402835291602001916144bf565b820191906000526020600020905b8154815290600101906020018083116144a257829003601f168201915b5050505050815260200160048201548152602001600582015481526020016006820180546144ec906159c0565b80601f0160208091040260200160405190810160405280929190818152602001828054614518906159c0565b80156145655780601f1061453a57610100808354040283529160200191614565565b820191906000526020600020905b81548152906001019060200180831161454857829003601f168201915b505050918352505060078201546001600160a01b031660208201526008820154604082015260099091015460ff161515606090910152949350505050565b60006145af8133612b22565b6145cb5760405162461bcd60e51b8152600401610dbb906159f4565b611da78383614f35565b60006145ef600080516020615e0483398151915233612b22565b8061460d575061460d600080516020615e6483398151915233612b22565b8061464c57506000838152600260205260409020546001600160a01b03163314801561464c575061464c600080516020615de483398151915233612b22565b6146685760405162461bcd60e51b8152600401610dbb906159f4565b6000838152600660209081526040808320858452909152902060070154600160a01b900460ff166146ab5760405162461bcd60e51b8152600401610dbb90615d32565b50600091825260066020908152604080842092845291905290206003015490565b6000818152601660209081526040808320815160a081018352815481526001820154938101939093526002810154918301919091526003015460ff808216151560608401526101009091041615156080820181905282918291829182916147455760405162461bcd60e51b8152600401610dbb90615c89565b8051602082015160408301516060840151608090940151929a91995097509195509350915050565b6014602052816000526040600020818154811061478957600080fd5b60009182526020909120600590910201805460018201546002830180549295506001600160a01b039091169350906147c0906159c0565b80601f01602080910402602001604051908101604052809291908181526020018280546147ec906159c0565b80156148395780601f1061480e57610100808354040283529160200191614839565b820191906000526020600020905b81548152906001019060200180831161481c57829003601f168201915b505050505090806003015490806004018054614854906159c0565b80601f0160208091040260200160405190810160405280929190818152602001828054614880906159c0565b80156148cd5780601f106148a2576101008083540402835291602001916148cd565b820191906000526020600020905b8154815290600101906020018083116148b057829003601f168201915b5050505050905085565b60606148f1600080516020615e0483398151915233612b22565b8061490f575061490f600080516020615e6483398151915233612b22565b61492b5760405162461bcd60e51b8152600401610dbb906159f4565b60008281526007602090815260409182902080548351818402810184019094528084529091830182828015611e805760200282019190600052602060002090815481526020019060010190808311611e6c5750505050509050919050565b60176020528160005260406000208181548110611e1557600080fd5b600080516020615e048339815191526149be8133612b22565b6149da5760405162461bcd60e51b8152600401610dbb906159f4565b60008481526004602081905260409091200154610100900460ff16614a115760405162461bcd60e51b8152600401610dbb90615a47565b6000858152600a602090815260408083208784529091528120549003614a6d5760405162461bcd60e51b815260206004820152601160248201527014995c5d595cdd081b9bdd08199bdd5b99607a1b6044820152606401610dbb565b6000858152600a6020908152604080832087845290915290206009015460ff1615614ace5760405162461bcd60e51b8152602060048201526011602482015270105b1c9958591e481c1c9bd8d95cdcd959607a1b6044820152606401610dbb565b600080516020615e2483398151915283604051602001614aee9190615db4565b604051602081830303815290604052805190602001201480614b5557507f8675c210f65c4e8dd95d2afd30eb5d846906f1b59f9da9d5ff94ec59c6c70c7c83604051602001614b3d9190615db4565b60405160208183030381529060405280519060200120145b614b925760405162461bcd60e51b815260206004820152600e60248201526d496e76616c69642073746174757360901b6044820152606401610dbb565b600080516020615e2483398151915283604051602001614bb29190615db4565b6040516020818303038152906040528051906020012003614bee576064821115614bee5760405162461bcd60e51b8152600401610dbb90615c2d565b6000858152600a602090815260408083208784529091529020600301614c148482615ac2565b506000858152600a60209081526040808320878452825291829020600581018590556007810180546001600160a01b03191633179055426008820155600901805460ff191660011790559051600080516020615e2483398151915291614c7c91869101615db4565b6040516020818303038152906040528051906020012003614d0457600085815260086020908152604080832087845282529182902060028101805490869055426005909201919091558251818152918201859052913391879189917fafca19e7338b80a137bdd94e7b2ec35d7d842cc5c4d91a3576d97135e9de063d910160405180910390a4505b336001600160a01b031684867f3e02e69c3fd077fd8b72c8fa4c53881220607be1385ee3b57a9ed1524402d63c8686604051612017929190615b80565b6060600080600080600080600460008981526020019081526020016000206040518060c0016040529081600082018054614d7a906159c0565b80601f0160208091040260200160405190810160405280929190818152602001828054614da6906159c0565b8015614df35780601f10614dc857610100808354040283529160200191614df3565b820191906000526020600020905b815481529060010190602001808311614dd657829003601f168201915b5050509183525050600182015460208083019190915260028301546001600160a01b0316604080840191909152600384015460608085019190915260049094015460ff808216151560808087019190915261010090920416151560a0948501528551928601519186015194860151908601519590930151919d909c50929a5090985091965090945092505050565b600080516020615e64833981519152614e9a8133612b22565b614eb65760405162461bcd60e51b8152600401610dbb906159f4565b610f26600080516020615e0483398151915283614f35565b614ed88282612b22565b610f26576000828152602081815260408083206001600160a01b0385168085529252808320805460ff1916600117905551339285917f2f8788117e7eff1d82e926ec794901d17c78024a50270940304540a733656f0d9190a45050565b614f3f8282612b22565b15610f26576000828152602081815260408083206001600160a01b0385168085529252808320805460ff1916905551339285917ff6391f5c32d9c69d2a47ea670b442974b53935d1edc7fd64eb21e047a839171b9190a45050565b6001600160a01b038216614fc157604051632aaa5c9760e01b815260040160405180910390fd5b614fca81615070565b15614fe857604051631be3a3bb60e11b815260040160405180910390fd5b600081815260106020908152604080832080546001600160a01b0319166001600160a01b03871690811790915583526011909152812080546001929061502f908490615dd0565b909155505060405181906001600160a01b038416906000907fddf252ad1be2c89b69c2b068fc378daa952ba7f163c4a11628f55a4df523b3ef908290a45050565b6000908152601060205260409020546001600160a01b0316151590565b60405180610100016040528060008152602001600081526020016000815260200160008152602001606081526020016000815260200160006001600160a01b031681526020016000151581525090565b6040518061014001604052806000815260200160008152602001600081526020016060815260200160008152602001600081526020016060815260200160006001600160a01b03168152602001600081526020016000151581525090565b604051806101400160405280600081526020016000815260200160608152602001600081526020016000815260200160006001600160a01b031681526020016000815260200160006001600160a01b031681526020016000151581526020016000151581525090565b600080604083850312156151b757600080fd5b50508035926020909101359150565b60005b838110156151e15781810151838201526020016151c9565b50506000910152565b600081518084526152028160208601602086016151c6565b601f01601f19169290920160200192915050565b6001600160a01b03169052565b8a81528960208201528860408201526101406060820152600061524a61014083018a6151ea565b8860808401528760a084015282810360c084015261526881886151ea565b6001600160a01b039690961660e08401525050610100810192909252151561012090910152979650505050505050565b6000602082840312156152aa57600080fd5b5035919050565b6020815260006152c460208301846151ea565b9392505050565b80356001600160a01b03811681146152e257600080fd5b919050565b6000602082840312156152f957600080fd5b6152c4826152cb565b60208152815160208201526020820151604082015260408201516060820152606082015160808201526000608083015161010060a08401526153486101208401826151ea565b905060a084015160c084015260018060a01b0360c08501511660e084015260e084015115156101008401528091505092915050565b634e487b7160e01b600052604160045260246000fd5b600082601f8301126153a457600080fd5b81356001600160401b038111156153bd576153bd61537d565b604051601f8201601f19908116603f011681016001600160401b03811182821017156153eb576153eb61537d565b60405281815283820160200185101561540357600080fd5b816020850160208301376000918101602001919091529392505050565b60008060006060848603121561543557600080fd5b833592506020840135915060408401356001600160401b0381111561545957600080fd5b61546586828701615393565b9150509250925092565b6000602082016020835280845180835260408501915060408160051b86010192506020860160005b8281101561551557603f1987860301845281518051865260018060a01b036020820151166020870152604081015160a060408801526154d960a08801826151ea565b9050606082015160608801526080820151915086810360808801526154fe81836151ea565b965050506020938401939190910190600101615497565b50929695505050505050565b6020815281516020820152602082015160408201526040820151606082015260006060830151610140608084015261555d6101608401826151ea565b9050608084015160a084015260a084015160c084015260c0840151601f198483030160e085015261558e82826151ea565b91505060e08401516155a4610100850182615216565b506101008401516101208401526101208401516155c661014085018215159052565b509392505050565b600080604083850312156155e157600080fd5b823591506155f1602084016152cb565b90509250929050565b602080825282518282018190526000918401906040840190835b81811015615632578351835260209384019390920191600101615614565b509095945050505050565b60008060006060848603121561565257600080fd5b505081359360208301359350604090920135919050565b60c08152600061567c60c08301896151ea565b6020830197909752506001600160a01b03949094166040850152606084019290925215156080830152151560a090910152919050565b600080604083850312156156c557600080fd5b8235915060208301356001600160401b038111156156e257600080fd5b6156ee85828601615393565b9150509250929050565b6001600160a01b0391909116815260200190565b888152876020820152866040820152856060820152610100608082015260006157396101008301876151ea565b60a0830195909552506001600160a01b039290921660c0830152151560e09091015295945050505050565b8a81528960208201526101406040820152600061578561014083018b6151ea565b60608301999099525060808101969096526001600160a01b0394851660a087015260c0860193909352921660e08401529015156101008301521515610120909101529392505050565b600080604083850312156157e157600080fd5b6157ea836152cb565b946020939093013593505050565b6000806040838503121561580b57600080fd5b82356001600160401b0381111561582157600080fd5b61582d85828601615393565b95602094909401359450505050565b60a08152600061584f60a08301886151ea565b6020830196909652506001600160a01b0393909316604084015260608301919091521515608090910152919050565b6020815281516020820152602082015160408201526000604083015161014060608401526158b06101608401826151ea565b905060608401516080840152608084015160a084015260a08401516158d860c0850182615216565b5060c084015160e084015260e08401516158f6610100850182615216565b50610100840151801515610120850152506101208401518015156101408501526155c6565b8581526001600160a01b038516602082015260a060408201819052600090615945908301866151ea565b846060840152828103608084015261595d81856151ea565b98975050505050505050565b6000806000806080858703121561597f57600080fd5b843593506020850135925060408501356001600160401b038111156159a357600080fd5b6159af87828801615393565b949793965093946060013593505050565b600181811c908216806159d457607f821691505b6020821081036110ac57634e487b7160e01b600052602260045260246000fd5b6020808252600d908201526c1058d8d95cdcc819195b9a5959609a1b604082015260600190565b602080825260129082015271125b9d985b1a59081cdd1d59195b9d08125160721b604082015260600190565b602080825260139082015272115e185b48191bd95cc81b9bdd08195e1a5cdd606a1b604082015260600190565b601f821115611da757806000526020600020601f840160051c81016020851015615a9b5750805b601f840160051c820191505b81811015615abb5760008155600101615aa7565b5050505050565b81516001600160401b03811115615adb57615adb61537d565b615aef81615ae984546159c0565b84615a74565b6020601f821160018114615b235760008315615b0b5750848201515b600019600385901b1c1916600184901b178455615abb565b600084815260208120601f198516915b82811015615b535787850151825560209485019460019092019101615b33565b5084821015615b715786840151600019600387901b60f8161c191681555b50505050600190811b01905550565b604081526000615b9360408301856151ea565b90508260208301529392505050565b602080825260149082015273105b9cddd95c881b9bdd081cdd589b5a5d1d195960621b604082015260600190565b602080825260159082015274105b9cddd95c881b9bdd081cd8dbdc9959081e595d605a1b604082015260600190565b60208082526014908201527353636f726520616c72656164792065786973747360601b604082015260600190565b602080825260149082015273053636f7265206d757374206265203c3d203130360641b604082015260600190565b60208082526014908201527314d8dbdc9948191bd95cc81b9bdd08195e1a5cdd60621b604082015260600190565b60208082526013908201527215195cdd08191bd95cc81b9bdd08195e1a5cdd606a1b604082015260600190565b634e487b7160e01b600052601160045260246000fd5b81810381811115611a6f57611a6f615cb6565b606081526000615cf260608301866151ea565b60208301949094525060400152919050565b60208082526014908201527314dd1d59195b9d081251081b9bdd08199bdd5b9960621b604082015260600190565b60208082526010908201526f105b9cddd95c881b9bdd08199bdd5b9960821b604082015260600190565b600060018201615d6e57615d6e615cb6565b5060010190565b60608152600760608201526650454e44494e4760c81b608082015282602082015260a060408201526000615dac60a08301846151ea565b949350505050565b60008251615dc68184602087016151c6565b9190910192915050565b80820180821115611a6f57611a6f615cb656fe36a5c4aaacb6b388bbd448bf11096b7dafc5652bcc9046084fd0e95b1fb0b2ccd80fe6bc0e33ab4417bd425f297e026e0456472df56b1eaaee7acd2cbc2c696fe321069d1ac41cdfb1421ffa231cd2dc5e3a334703a998a5f84566b6fbf3f7bdfc7c36207174f786648d2e624616a4b40e15fd7f0268b4e36af5057f0c43c835a49807205ce4d355092ef5a8a18f56e8913cf4a201fbe287825b095693c21775a2646970667358221220afd04fac35ddbde6ec7a14165d59a6873f1f664f7cab2ce7324707a5096254f964736f6c634300081e0033a49807205ce4d355092ef5a8a18f56e8913cf4a201fbe287825b095693c21775",
			"opcodes": "PUSH1 0xC0 PUSH1 0x40 MSTORE PUSH1 0x18 PUSH1 0x80 SWAP1 DUP2 MSTORE PUSH32 0x445A426C6F636B436861696E2043657274696669636174650000000000000000 PUSH1 0xA0 MSTORE PUSH1 0xB SWAP1 PUSH2 0x3C SWAP1 DUP3 PUSH2 0x26A JUMP JUMPDEST POP PUSH1 0x40 DUP1 MLOAD DUP1 DUP3 ADD SWAP1 SWAP2 MSTORE PUSH1 0x4 DUP2 MSTORE PUSH4 0x445A4243 PUSH1 0xE0 SHL PUSH1 0x20 DUP3 ADD MSTORE PUSH1 0xC SWAP1 PUSH2 0x65 SWAP1 DUP3 PUSH2 0x26A JUMP JUMPDEST POP CALLVALUE DUP1 ISZERO PUSH2 0x72 JUMPI PUSH1 0x0 DUP1 REVERT JUMPDEST POP PUSH2 0x7C CALLER PUSH2 0x81 JUMP JUMPDEST PUSH2 0x328 JUMP JUMPDEST PUSH2 0x8C PUSH1 0x0 DUP3 PUSH2 0x149 JUMP JUMPDEST PUSH2 0xA4 PUSH1 0x0 DUP1 MLOAD PUSH1 0x20 PUSH2 0x61F0 DUP4 CODECOPY DUP2 MLOAD SWAP2 MSTORE DUP3 PUSH2 0x149 JUMP JUMPDEST POP PUSH1 0x1 PUSH1 0x20 MSTORE PUSH1 0x0 DUP1 MLOAD PUSH1 0x20 PUSH2 0x61F0 DUP4 CODECOPY DUP2 MLOAD SWAP2 MSTORE PUSH32 0x595C59303185D6018B57F7A342D2CBF9F9AC9BD599C2E6F1918108E6144EC438 DUP2 SWAP1 SSTORE PUSH32 0x370A7DF9ACCBB111E01AC14B81700C489619F4774B1E81A53CB39F158EC8436A DUP2 SWAP1 SSTORE PUSH32 0xFC7C36207174F786648D2E624616A4B40E15FD7F0268B4E36AF5057F0C43C835 PUSH1 0x0 MSTORE PUSH32 0x6607AE9CBCC1DBD33A501EC84E0AA7B9EAD733F39DAB8F64D06B6E48F9E71B3F SSTORE JUMP JUMPDEST PUSH1 0x0 DUP3 DUP2 MSTORE PUSH1 0x20 DUP2 DUP2 MSTORE PUSH1 0x40 DUP1 DUP4 KECCAK256 PUSH1 0x1 PUSH1 0x1 PUSH1 0xA0 SHL SUB DUP6 AND DUP5 MSTORE SWAP1 SWAP2 MSTORE SWAP1 KECCAK256 SLOAD PUSH1 0xFF AND PUSH2 0x1C7 JUMPI PUSH1 0x0 DUP3 DUP2 MSTORE PUSH1 0x20 DUP2 DUP2 MSTORE PUSH1 0x40 DUP1 DUP4 KECCAK256 PUSH1 0x1 PUSH1 0x1 PUSH1 0xA0 SHL SUB DUP6 AND DUP1 DUP6 MSTORE SWAP3 MSTORE DUP1 DUP4 KECCAK256 DUP1 SLOAD PUSH1 0xFF NOT AND PUSH1 0x1 OR SWAP1 SSTORE MLOAD CALLER SWAP3 DUP6 SWAP2 PUSH32 0x2F8788117E7EFF1D82E926EC794901D17C78024A50270940304540A733656F0D SWAP2 SWAP1 LOG4 JUMPDEST POP POP JUMP JUMPDEST PUSH4 0x4E487B71 PUSH1 0xE0 SHL PUSH1 0x0 MSTORE PUSH1 0x41 PUSH1 0x4 MSTORE PUSH1 0x24 PUSH1 0x0 REVERT JUMPDEST PUSH1 0x1 DUP2 DUP2 SHR SWAP1 DUP3 AND DUP1 PUSH2 0x1F5 JUMPI PUSH1 0x7F DUP3 AND SWAP2 POP JUMPDEST PUSH1 0x20 DUP3 LT DUP2 SUB PUSH2 0x215 JUMPI PUSH4 0x4E487B71 PUSH1 0xE0 SHL PUSH1 0x0 MSTORE PUSH1 0x22 PUSH1 0x4 MSTORE PUSH1 0x24 PUSH1 0x0 REVERT JUMPDEST POP SWAP2 SWAP1 POP JUMP JUMPDEST PUSH1 0x1F DUP3 GT ISZERO PUSH2 0x265 JUMPI DUP1 PUSH1 0x0 MSTORE PUSH1 0x20 PUSH1 0x0 KECCAK256 PUSH1 0x1F DUP5 ADD PUSH1 0x5 SHR DUP2 ADD PUSH1 0x20 DUP6 LT ISZERO PUSH2 0x242 JUMPI POP DUP1 JUMPDEST PUSH1 0x1F DUP5 ADD PUSH1 0x5 SHR DUP3 ADD SWAP2 POP JUMPDEST DUP2 DUP2 LT ISZERO PUSH2 0x262 JUMPI PUSH1 0x0 DUP2 SSTORE PUSH1 0x1 ADD PUSH2 0x24E JUMP JUMPDEST POP POP JUMPDEST POP POP POP JUMP JUMPDEST DUP2 MLOAD PUSH1 0x1 PUSH1 0x1 PUSH1 0x40 SHL SUB DUP2 GT ISZERO PUSH2 0x283 JUMPI PUSH2 0x283 PUSH2 0x1CB JUMP JUMPDEST PUSH2 0x297 DUP2 PUSH2 0x291 DUP5 SLOAD PUSH2 0x1E1 JUMP JUMPDEST DUP5 PUSH2 0x21B JUMP JUMPDEST PUSH1 0x20 PUSH1 0x1F DUP3 GT PUSH1 0x1 DUP2 EQ PUSH2 0x2CB JUMPI PUSH1 0x0 DUP4 ISZERO PUSH2 0x2B3 JUMPI POP DUP5 DUP3 ADD MLOAD JUMPDEST PUSH1 0x0 NOT PUSH1 0x3 DUP6 SWAP1 SHL SHR NOT AND PUSH1 0x1 DUP5 SWAP1 SHL OR DUP5 SSTORE PUSH2 0x262 JUMP JUMPDEST PUSH1 0x0 DUP5 DUP2 MSTORE PUSH1 0x20 DUP2 KECCAK256 PUSH1 0x1F NOT DUP6 AND SWAP2 JUMPDEST DUP3 DUP2 LT ISZERO PUSH2 0x2FB JUMPI DUP8 DUP6 ADD MLOAD DUP3 SSTORE PUSH1 0x20 SWAP5 DUP6 ADD SWAP5 PUSH1 0x1 SWAP1 SWAP3 ADD SWAP2 ADD PUSH2 0x2DB JUMP JUMPDEST POP DUP5 DUP3 LT ISZERO PUSH2 0x319 JUMPI DUP7 DUP5 ADD MLOAD PUSH1 0x0 NOT PUSH1 0x3 DUP8 SWAP1 SHL PUSH1 0xF8 AND SHR NOT AND DUP2 SSTORE JUMPDEST POP POP POP POP PUSH1 0x1 SWAP1 DUP2 SHL ADD SWAP1 SSTORE POP JUMP JUMPDEST PUSH2 0x5EB9 DUP1 PUSH2 0x337 PUSH1 0x0 CODECOPY PUSH1 0x0 RETURN INVALID PUSH1 0x80 PUSH1 0x40 MSTORE CALLVALUE DUP1 ISZERO PUSH2 0x10 JUMPI PUSH1 0x0 DUP1 REVERT JUMPDEST POP PUSH1 0x4 CALLDATASIZE LT PUSH2 0x3B3 JUMPI PUSH1 0x0 CALLDATALOAD PUSH1 0xE0 SHR DUP1 PUSH4 0x91D14854 GT PUSH2 0x1F6 JUMPI DUP1 PUSH4 0xC9B1E027 GT PUSH2 0x11B JUMPI DUP1 PUSH4 0xE8328683 GT PUSH2 0xB3 JUMPI DUP1 PUSH4 0xE8328683 EQ PUSH2 0xB1D JUMPI DUP1 PUSH4 0xEDEF019D EQ PUSH2 0xB30 JUMPI DUP1 PUSH4 0xEEED2503 EQ PUSH2 0xB43 JUMPI DUP1 PUSH4 0xEEF218BF EQ PUSH2 0xB67 JUMPI DUP1 PUSH4 0xF1B23D7F EQ PUSH2 0xB7A JUMPI DUP1 PUSH4 0xF1C4731C EQ PUSH2 0xB8D JUMPI DUP1 PUSH4 0xF7BE43FB EQ PUSH2 0xBA0 JUMPI DUP1 PUSH4 0xF97563D5 EQ PUSH2 0xBB5 JUMPI DUP1 PUSH4 0xFA8D3CCA EQ PUSH2 0xBC8 JUMPI DUP1 PUSH4 0xFC9B39E6 EQ PUSH2 0xBF3 JUMPI PUSH1 0x0 DUP1 REVERT JUMPDEST DUP1 PUSH4 0xC9B1E027 EQ PUSH2 0x9B2 JUMPI DUP1 PUSH4 0xCD79E42F EQ PUSH2 0x9C5 JUMPI DUP1 PUSH4 0xCE44661B EQ PUSH2 0x9D8 JUMPI DUP1 PUSH4 0xD27FC520 EQ PUSH2 0x9EB JUMPI DUP1 PUSH4 0xD4F45061 EQ PUSH2 0x9FE JUMPI DUP1 PUSH4 0xD547741F EQ PUSH2 0xA11 JUMPI DUP1 PUSH4 0xDD255148 EQ PUSH2 0xA24 JUMPI DUP1 PUSH4 0xDE22C8D4 EQ PUSH2 0xA87 JUMPI DUP1 PUSH4 0xE67651AC EQ PUSH2 0xAF4 JUMPI PUSH1 0x0 DUP1 REVERT JUMPDEST DUP1 PUSH4 0xADC6BA73 GT PUSH2 0x18E JUMPI DUP1 PUSH4 0xADC6BA73 EQ PUSH2 0x823 JUMPI DUP1 PUSH4 0xB5AB682D EQ PUSH2 0x8F7 JUMPI DUP1 PUSH4 0xB63BFDCF EQ PUSH2 0x920 JUMPI DUP1 PUSH4 0xB8535A11 EQ PUSH2 0x940 JUMPI DUP1 PUSH4 0xB8D78466 EQ PUSH2 0x953 JUMPI DUP1 PUSH4 0xBD289217 EQ PUSH2 0x966 JUMPI DUP1 PUSH4 0xC54164D4 EQ PUSH2 0x979 JUMPI DUP1 PUSH4 0xC87B56DD EQ PUSH2 0x98C JUMPI DUP1 PUSH4 0xC94D10AD EQ PUSH2 0x99F JUMPI PUSH1 0x0 DUP1 REVERT JUMPDEST DUP1 PUSH4 0x91D14854 EQ PUSH2 0x77D JUMPI DUP1 PUSH4 0x95D89B41 EQ PUSH2 0x790 JUMPI DUP1 PUSH4 0x97BB03BA EQ PUSH2 0x798 JUMPI DUP1 PUSH4 0x99532F60 EQ PUSH2 0x7AB JUMPI DUP1 PUSH4 0xA217FDDF EQ PUSH2 0x7BE JUMPI DUP1 PUSH4 0xA26EA890 EQ PUSH2 0x7C6 JUMPI DUP1 PUSH4 0xA486AB35 EQ PUSH2 0x7D9 JUMPI DUP1 PUSH4 0xAA1F80A5 EQ PUSH2 0x7FD JUMPI DUP1 PUSH4 0xAC18CC2D EQ PUSH2 0x810 JUMPI PUSH1 0x0 DUP1 REVERT JUMPDEST DUP1 PUSH4 0x3F0A92FB GT PUSH2 0x2DC JUMPI DUP1 PUSH4 0x6CA9E678 GT PUSH2 0x274 JUMPI DUP1 PUSH4 0x6CA9E678 EQ PUSH2 0x697 JUMPI DUP1 PUSH4 0x70A08231 EQ PUSH2 0x6C0 JUMPI DUP1 PUSH4 0x75B238FC EQ PUSH2 0x6D3 JUMPI DUP1 PUSH4 0x767CDBD8 EQ PUSH2 0x6E8 JUMPI DUP1 PUSH4 0x7C69610C EQ PUSH2 0x6FB JUMPI DUP1 PUSH4 0x7C953E6E EQ PUSH2 0x70E JUMPI DUP1 PUSH4 0x7F5AF810 EQ PUSH2 0x721 JUMPI DUP1 PUSH4 0x80AB3DDA EQ PUSH2 0x734 JUMPI DUP1 PUSH4 0x86C34415 EQ PUSH2 0x75D JUMPI PUSH1 0x0 DUP1 REVERT JUMPDEST DUP1 PUSH4 0x3F0A92FB EQ PUSH2 0x584 JUMPI DUP1 PUSH4 0x3F576247 EQ PUSH2 0x597 JUMPI DUP1 PUSH4 0x4198CB3F EQ PUSH2 0x5AA JUMPI DUP1 PUSH4 0x45590D11 EQ PUSH2 0x5CF JUMPI DUP1 PUSH4 0x6352211E EQ PUSH2 0x5E2 JUMPI DUP1 PUSH4 0x663B3E22 EQ PUSH2 0x602 JUMPI DUP1 PUSH4 0x66B2D280 EQ PUSH2 0x629 JUMPI DUP1 PUSH4 0x6A0D2892 EQ PUSH2 0x63C JUMPI DUP1 PUSH4 0x6C9D1900 EQ PUSH2 0x64F JUMPI PUSH1 0x0 DUP1 REVERT JUMPDEST DUP1 PUSH4 0x1FA63AA3 GT PUSH2 0x34F JUMPI DUP1 PUSH4 0x1FA63AA3 EQ PUSH2 0x4B0 JUMPI DUP1 PUSH4 0x2426BB38 EQ PUSH2 0x4D0 JUMPI DUP1 PUSH4 0x25992935 EQ PUSH2 0x4E5 JUMPI DUP1 PUSH4 0x2EA0D829 EQ PUSH2 0x4F8 JUMPI DUP1 PUSH4 0x2F2FF15D EQ PUSH2 0x50B JUMPI DUP1 PUSH4 0x32B3C846 EQ PUSH2 0x51E JUMPI DUP1 PUSH4 0x34018D7B EQ PUSH2 0x531 JUMPI DUP1 PUSH4 0x361EF2BD EQ PUSH2 0x544 JUMPI DUP1 PUSH4 0x3BF82F32 EQ PUSH2 0x564 JUMPI PUSH1 0x0 DUP1 REVERT JUMPDEST DUP1 PUSH4 0x36713BE EQ PUSH2 0x3B8 JUMPI DUP1 PUSH4 0x6F5497E EQ PUSH2 0x3EA JUMPI DUP1 PUSH4 0x6FDDE03 EQ PUSH2 0x3FF JUMPI DUP1 PUSH4 0x713EB02 EQ PUSH2 0x414 JUMPI DUP1 PUSH4 0x16853FEB EQ PUSH2 0x437 JUMPI DUP1 PUSH4 0x1692A942 EQ PUSH2 0x44A JUMPI DUP1 PUSH4 0x1BC7980C EQ PUSH2 0x46A JUMPI DUP1 PUSH4 0x1D3E15FF EQ PUSH2 0x47D JUMPI DUP1 PUSH4 0x1EB2C396 EQ PUSH2 0x490 JUMPI JUMPDEST PUSH1 0x0 DUP1 REVERT JUMPDEST PUSH2 0x3CB PUSH2 0x3C6 CALLDATASIZE PUSH1 0x4 PUSH2 0x51A4 JUMP JUMPDEST PUSH2 0xC06 JUMP JUMPDEST PUSH1 0x40 MLOAD PUSH2 0x3E1 SWAP11 SWAP10 SWAP9 SWAP8 SWAP7 SWAP6 SWAP5 SWAP4 SWAP3 SWAP2 SWAP1 PUSH2 0x5223 JUMP JUMPDEST PUSH1 0x40 MLOAD DUP1 SWAP2 SUB SWAP1 RETURN JUMPDEST PUSH2 0x3FD PUSH2 0x3F8 CALLDATASIZE PUSH1 0x4 PUSH2 0x5298 JUMP JUMPDEST PUSH2 0xD86 JUMP JUMPDEST STOP JUMPDEST PUSH2 0x407 PUSH2 0xE47 JUMP JUMPDEST PUSH1 0x40 MLOAD PUSH2 0x3E1 SWAP2 SWAP1 PUSH2 0x52B1 JUMP JUMPDEST PUSH2 0x429 PUSH1 0x0 DUP1 MLOAD PUSH1 0x20 PUSH2 0x5E04 DUP4 CODECOPY DUP2 MLOAD SWAP2 MSTORE DUP2 JUMP JUMPDEST PUSH1 0x40 MLOAD SWAP1 DUP2 MSTORE PUSH1 0x20 ADD PUSH2 0x3E1 JUMP JUMPDEST PUSH2 0x3FD PUSH2 0x445 CALLDATASIZE PUSH1 0x4 PUSH2 0x52E7 JUMP JUMPDEST PUSH2 0xED9 JUMP JUMPDEST PUSH2 0x45D PUSH2 0x458 CALLDATASIZE PUSH1 0x4 PUSH2 0x5298 JUMP JUMPDEST PUSH2 0xF2A JUMP JUMPDEST PUSH1 0x40 MLOAD PUSH2 0x3E1 SWAP2 SWAP1 PUSH2 0x5302 JUMP JUMPDEST PUSH2 0x3FD PUSH2 0x478 CALLDATASIZE PUSH1 0x4 PUSH2 0x5420 JUMP JUMPDEST PUSH2 0x10B2 JUMP JUMPDEST PUSH2 0x3FD PUSH2 0x48B CALLDATASIZE PUSH1 0x4 PUSH2 0x51A4 JUMP JUMPDEST PUSH2 0x1434 JUMP JUMPDEST PUSH2 0x4A3 PUSH2 0x49E CALLDATASIZE PUSH1 0x4 PUSH2 0x5298 JUMP JUMPDEST PUSH2 0x1618 JUMP JUMPDEST PUSH1 0x40 MLOAD PUSH2 0x3E1 SWAP2 SWAP1 PUSH2 0x546F JUMP JUMPDEST PUSH2 0x4C3 PUSH2 0x4BE CALLDATASIZE PUSH1 0x4 PUSH2 0x51A4 JUMP JUMPDEST PUSH2 0x1820 JUMP JUMPDEST PUSH1 0x40 MLOAD PUSH2 0x3E1 SWAP2 SWAP1 PUSH2 0x5521 JUMP JUMPDEST PUSH2 0x429 PUSH1 0x0 DUP1 MLOAD PUSH1 0x20 PUSH2 0x5E44 DUP4 CODECOPY DUP2 MLOAD SWAP2 MSTORE DUP2 JUMP JUMPDEST PUSH2 0x3FD PUSH2 0x4F3 CALLDATASIZE PUSH1 0x4 PUSH2 0x51A4 JUMP JUMPDEST PUSH2 0x1A75 JUMP JUMPDEST PUSH2 0x3FD PUSH2 0x506 CALLDATASIZE PUSH1 0x4 PUSH2 0x52E7 JUMP JUMPDEST PUSH2 0x1D28 JUMP JUMPDEST PUSH2 0x3FD PUSH2 0x519 CALLDATASIZE PUSH1 0x4 PUSH2 0x55CE JUMP JUMPDEST PUSH2 0x1D75 JUMP JUMPDEST PUSH2 0x3FD PUSH2 0x52C CALLDATASIZE PUSH1 0x4 PUSH2 0x52E7 JUMP JUMPDEST PUSH2 0x1DAC JUMP JUMPDEST PUSH2 0x429 PUSH2 0x53F CALLDATASIZE PUSH1 0x4 PUSH2 0x51A4 JUMP JUMPDEST PUSH2 0x1DF9 JUMP JUMPDEST PUSH2 0x557 PUSH2 0x552 CALLDATASIZE PUSH1 0x4 PUSH2 0x5298 JUMP JUMPDEST PUSH2 0x1E2A JUMP JUMPDEST PUSH1 0x40 MLOAD PUSH2 0x3E1 SWAP2 SWAP1 PUSH2 0x55FA JUMP JUMPDEST PUSH2 0x429 PUSH2 0x572 CALLDATASIZE PUSH1 0x4 PUSH2 0x5298 JUMP JUMPDEST PUSH1 0x0 SWAP1 DUP2 MSTORE PUSH1 0x14 PUSH1 0x20 MSTORE PUSH1 0x40 SWAP1 KECCAK256 SLOAD SWAP1 JUMP JUMPDEST PUSH2 0x3FD PUSH2 0x592 CALLDATASIZE PUSH1 0x4 PUSH2 0x563D JUMP JUMPDEST PUSH2 0x1E8C JUMP JUMPDEST PUSH2 0x3FD PUSH2 0x5A5 CALLDATASIZE PUSH1 0x4 PUSH2 0x5298 JUMP JUMPDEST PUSH2 0x2026 JUMP JUMPDEST PUSH2 0x5BD PUSH2 0x5B8 CALLDATASIZE PUSH1 0x4 PUSH2 0x5298 JUMP JUMPDEST PUSH2 0x2134 JUMP JUMPDEST PUSH1 0x40 MLOAD PUSH2 0x3E1 SWAP7 SWAP6 SWAP5 SWAP4 SWAP3 SWAP2 SWAP1 PUSH2 0x5669 JUMP JUMPDEST PUSH2 0x3FD PUSH2 0x5DD CALLDATASIZE PUSH1 0x4 PUSH2 0x56B2 JUMP JUMPDEST PUSH2 0x2201 JUMP JUMPDEST PUSH2 0x5F5 PUSH2 0x5F0 CALLDATASIZE PUSH1 0x4 PUSH2 0x5298 JUMP JUMPDEST PUSH2 0x22A4 JUMP JUMPDEST PUSH1 0x40 MLOAD PUSH2 0x3E1 SWAP2 SWAP1 PUSH2 0x56F8 JUMP JUMPDEST PUSH2 0x615 PUSH2 0x610 CALLDATASIZE PUSH1 0x4 PUSH2 0x5298 JUMP JUMPDEST PUSH2 0x22DA JUMP JUMPDEST PUSH1 0x40 MLOAD PUSH2 0x3E1 SWAP9 SWAP8 SWAP7 SWAP6 SWAP5 SWAP4 SWAP3 SWAP2 SWAP1 PUSH2 0x570C JUMP JUMPDEST PUSH2 0x3FD PUSH2 0x637 CALLDATASIZE PUSH1 0x4 PUSH2 0x52E7 JUMP JUMPDEST PUSH2 0x23B4 JUMP JUMPDEST PUSH2 0x3FD PUSH2 0x64A CALLDATASIZE PUSH1 0x4 PUSH2 0x55CE JUMP JUMPDEST PUSH2 0x2401 JUMP JUMPDEST PUSH2 0x687 PUSH2 0x65D CALLDATASIZE PUSH1 0x4 PUSH2 0x51A4 JUMP JUMPDEST PUSH1 0x0 SWAP2 DUP3 MSTORE PUSH1 0x6 PUSH1 0x20 SWAP1 DUP2 MSTORE PUSH1 0x40 DUP1 DUP5 KECCAK256 SWAP3 DUP5 MSTORE SWAP2 SWAP1 MSTORE SWAP1 KECCAK256 PUSH1 0x7 ADD SLOAD PUSH1 0x1 PUSH1 0xA0 SHL SWAP1 DIV PUSH1 0xFF AND SWAP1 JUMP JUMPDEST PUSH1 0x40 MLOAD SWAP1 ISZERO ISZERO DUP2 MSTORE PUSH1 0x20 ADD PUSH2 0x3E1 JUMP JUMPDEST PUSH2 0x6AA PUSH2 0x6A5 CALLDATASIZE PUSH1 0x4 PUSH2 0x51A4 JUMP JUMPDEST PUSH2 0x256A JUMP JUMPDEST PUSH1 0x40 MLOAD PUSH2 0x3E1 SWAP11 SWAP10 SWAP9 SWAP8 SWAP7 SWAP6 SWAP5 SWAP4 SWAP3 SWAP2 SWAP1 PUSH2 0x5764 JUMP JUMPDEST PUSH2 0x429 PUSH2 0x6CE CALLDATASIZE PUSH1 0x4 PUSH2 0x52E7 JUMP JUMPDEST PUSH2 0x2661 JUMP JUMPDEST PUSH2 0x429 PUSH1 0x0 DUP1 MLOAD PUSH1 0x20 PUSH2 0x5E64 DUP4 CODECOPY DUP2 MLOAD SWAP2 MSTORE DUP2 JUMP JUMPDEST PUSH2 0x429 PUSH2 0x6F6 CALLDATASIZE PUSH1 0x4 PUSH2 0x57CE JUMP JUMPDEST PUSH2 0x26A6 JUMP JUMPDEST PUSH2 0x3FD PUSH2 0x709 CALLDATASIZE PUSH1 0x4 PUSH2 0x563D JUMP JUMPDEST PUSH2 0x26C2 JUMP JUMPDEST PUSH2 0x3FD PUSH2 0x71C CALLDATASIZE PUSH1 0x4 PUSH2 0x563D JUMP JUMPDEST PUSH2 0x2863 JUMP JUMPDEST PUSH2 0x557 PUSH2 0x72F CALLDATASIZE PUSH1 0x4 PUSH2 0x52E7 JUMP JUMPDEST PUSH2 0x2A3A JUMP JUMPDEST PUSH2 0x429 PUSH2 0x742 CALLDATASIZE PUSH1 0x4 PUSH2 0x52E7 JUMP JUMPDEST PUSH1 0x1 PUSH1 0x1 PUSH1 0xA0 SHL SUB AND PUSH1 0x0 SWAP1 DUP2 MSTORE PUSH1 0x3 PUSH1 0x20 MSTORE PUSH1 0x40 SWAP1 KECCAK256 SLOAD SWAP1 JUMP JUMPDEST PUSH2 0x429 PUSH2 0x76B CALLDATASIZE PUSH1 0x4 PUSH2 0x52E7 JUMP JUMPDEST PUSH1 0x3 PUSH1 0x20 MSTORE PUSH1 0x0 SWAP1 DUP2 MSTORE PUSH1 0x40 SWAP1 KECCAK256 SLOAD DUP2 JUMP JUMPDEST PUSH2 0x687 PUSH2 0x78B CALLDATASIZE PUSH1 0x4 PUSH2 0x55CE JUMP JUMPDEST PUSH2 0x2B22 JUMP JUMPDEST PUSH2 0x407 PUSH2 0x2B4B JUMP JUMPDEST PUSH2 0x3FD PUSH2 0x7A6 CALLDATASIZE PUSH1 0x4 PUSH2 0x56B2 JUMP JUMPDEST PUSH2 0x2B5A JUMP JUMPDEST PUSH2 0x45D PUSH2 0x7B9 CALLDATASIZE PUSH1 0x4 PUSH2 0x51A4 JUMP JUMPDEST PUSH2 0x2BEF JUMP JUMPDEST PUSH2 0x429 PUSH1 0x0 DUP2 JUMP JUMPDEST PUSH2 0x557 PUSH2 0x7D4 CALLDATASIZE PUSH1 0x4 PUSH2 0x5298 JUMP JUMPDEST PUSH2 0x2DB0 JUMP JUMPDEST PUSH2 0x7EC PUSH2 0x7E7 CALLDATASIZE PUSH1 0x4 PUSH2 0x57F8 JUMP JUMPDEST PUSH2 0x2E62 JUMP JUMPDEST PUSH1 0x40 MLOAD PUSH2 0x3E1 SWAP6 SWAP5 SWAP4 SWAP3 SWAP2 SWAP1 PUSH2 0x583C JUMP JUMPDEST PUSH2 0x429 PUSH2 0x80B CALLDATASIZE PUSH1 0x4 PUSH2 0x51A4 JUMP JUMPDEST PUSH2 0x30CB JUMP JUMPDEST PUSH2 0x3FD PUSH2 0x81E CALLDATASIZE PUSH1 0x4 PUSH2 0x563D JUMP JUMPDEST PUSH2 0x30E7 JUMP JUMPDEST PUSH2 0x8B8 PUSH2 0x831 CALLDATASIZE PUSH1 0x4 PUSH2 0x51A4 JUMP JUMPDEST PUSH1 0x0 SWAP2 DUP3 MSTORE PUSH1 0x8 PUSH1 0x20 SWAP1 DUP2 MSTORE PUSH1 0x40 DUP1 DUP5 KECCAK256 SWAP3 DUP5 MSTORE SWAP2 DUP2 MSTORE SWAP2 DUP2 SWAP1 KECCAK256 DUP2 MLOAD PUSH1 0xE0 DUP2 ADD DUP4 MSTORE DUP2 SLOAD DUP1 DUP3 MSTORE PUSH1 0x1 DUP4 ADD SLOAD SWAP5 DUP3 ADD DUP6 SWAP1 MSTORE PUSH1 0x2 DUP4 ADD SLOAD SWAP4 DUP3 ADD DUP5 SWAP1 MSTORE PUSH1 0x3 DUP4 ADD SLOAD PUSH1 0x1 PUSH1 0x1 PUSH1 0xA0 SHL SUB AND PUSH1 0x60 DUP4 ADD DUP2 SWAP1 MSTORE PUSH1 0x4 DUP5 ADD SLOAD PUSH1 0x80 DUP5 ADD DUP2 SWAP1 MSTORE PUSH1 0x5 DUP6 ADD SLOAD PUSH1 0xA0 DUP6 ADD DUP2 SWAP1 MSTORE PUSH1 0x6 SWAP1 SWAP6 ADD SLOAD PUSH1 0xFF AND ISZERO ISZERO PUSH1 0xC0 SWAP1 SWAP5 ADD DUP5 SWAP1 MSTORE SWAP2 SWAP7 SWAP1 SWAP4 SWAP2 SWAP3 SWAP1 JUMP JUMPDEST PUSH1 0x40 DUP1 MLOAD SWAP8 DUP9 MSTORE PUSH1 0x20 DUP9 ADD SWAP7 SWAP1 SWAP7 MSTORE SWAP5 DUP7 ADD SWAP4 SWAP1 SWAP4 MSTORE PUSH1 0x1 PUSH1 0x1 PUSH1 0xA0 SHL SUB SWAP1 SWAP2 AND PUSH1 0x60 DUP6 ADD MSTORE PUSH1 0x80 DUP5 ADD MSTORE PUSH1 0xA0 DUP4 ADD MSTORE ISZERO ISZERO PUSH1 0xC0 DUP3 ADD MSTORE PUSH1 0xE0 ADD PUSH2 0x3E1 JUMP JUMPDEST PUSH2 0x5F5 PUSH2 0x905 CALLDATASIZE PUSH1 0x4 PUSH2 0x5298 JUMP JUMPDEST PUSH1 0x2 PUSH1 0x20 MSTORE PUSH1 0x0 SWAP1 DUP2 MSTORE PUSH1 0x40 SWAP1 KECCAK256 SLOAD PUSH1 0x1 PUSH1 0x1 PUSH1 0xA0 SHL SUB AND DUP2 JUMP JUMPDEST PUSH2 0x933 PUSH2 0x92E CALLDATASIZE PUSH1 0x4 PUSH2 0x5298 JUMP JUMPDEST PUSH2 0x32D1 JUMP JUMPDEST PUSH1 0x40 MLOAD PUSH2 0x3E1 SWAP2 SWAP1 PUSH2 0x587E JUMP JUMPDEST PUSH2 0x429 PUSH2 0x94E CALLDATASIZE PUSH1 0x4 PUSH2 0x5420 JUMP JUMPDEST PUSH2 0x34C2 JUMP JUMPDEST PUSH2 0x3FD PUSH2 0x961 CALLDATASIZE PUSH1 0x4 PUSH2 0x5298 JUMP JUMPDEST PUSH2 0x3777 JUMP JUMPDEST PUSH2 0x45D PUSH2 0x974 CALLDATASIZE PUSH1 0x4 PUSH2 0x51A4 JUMP JUMPDEST PUSH2 0x390E JUMP JUMPDEST PUSH2 0x3FD PUSH2 0x987 CALLDATASIZE PUSH1 0x4 PUSH2 0x5298 JUMP JUMPDEST PUSH2 0x394B JUMP JUMPDEST PUSH2 0x407 PUSH2 0x99A CALLDATASIZE PUSH1 0x4 PUSH2 0x5298 JUMP JUMPDEST PUSH2 0x3A54 JUMP JUMPDEST PUSH2 0x3FD PUSH2 0x9AD CALLDATASIZE PUSH1 0x4 PUSH2 0x52E7 JUMP JUMPDEST PUSH2 0x3B13 JUMP JUMPDEST PUSH2 0x3FD PUSH2 0x9C0 CALLDATASIZE PUSH1 0x4 PUSH2 0x5420 JUMP JUMPDEST PUSH2 0x3B60 JUMP JUMPDEST PUSH2 0x3FD PUSH2 0x9D3 CALLDATASIZE PUSH1 0x4 PUSH2 0x51A4 JUMP JUMPDEST PUSH2 0x3EAC JUMP JUMPDEST PUSH2 0x933 PUSH2 0x9E6 CALLDATASIZE PUSH1 0x4 PUSH2 0x51A4 JUMP JUMPDEST PUSH2 0x4008 JUMP JUMPDEST PUSH2 0x3FD PUSH2 0x9F9 CALLDATASIZE PUSH1 0x4 PUSH2 0x55CE JUMP JUMPDEST PUSH2 0x4227 JUMP JUMPDEST PUSH2 0x4C3 PUSH2 0xA0C CALLDATASIZE PUSH1 0x4 PUSH2 0x5298 JUMP JUMPDEST PUSH2 0x437E JUMP JUMPDEST PUSH2 0x3FD PUSH2 0xA1F CALLDATASIZE PUSH1 0x4 PUSH2 0x55CE JUMP JUMPDEST PUSH2 0x45A3 JUMP JUMPDEST PUSH2 0x8B8 PUSH2 0xA32 CALLDATASIZE PUSH1 0x4 PUSH2 0x51A4 JUMP JUMPDEST PUSH1 0x8 PUSH1 0x20 SWAP1 DUP2 MSTORE PUSH1 0x0 SWAP3 DUP4 MSTORE PUSH1 0x40 DUP1 DUP5 KECCAK256 SWAP1 SWAP2 MSTORE SWAP1 DUP3 MSTORE SWAP1 KECCAK256 DUP1 SLOAD PUSH1 0x1 DUP3 ADD SLOAD PUSH1 0x2 DUP4 ADD SLOAD PUSH1 0x3 DUP5 ADD SLOAD PUSH1 0x4 DUP6 ADD SLOAD PUSH1 0x5 DUP7 ADD SLOAD PUSH1 0x6 SWAP1 SWAP7 ADD SLOAD SWAP5 SWAP6 SWAP4 SWAP5 SWAP3 SWAP4 PUSH1 0x1 PUSH1 0x1 PUSH1 0xA0 SHL SUB SWAP1 SWAP3 AND SWAP3 SWAP1 SWAP2 SWAP1 PUSH1 0xFF AND DUP8 JUMP JUMPDEST PUSH2 0xAC8 PUSH2 0xA95 CALLDATASIZE PUSH1 0x4 PUSH2 0x5298 JUMP JUMPDEST PUSH1 0x16 PUSH1 0x20 MSTORE PUSH1 0x0 SWAP1 DUP2 MSTORE PUSH1 0x40 SWAP1 KECCAK256 DUP1 SLOAD PUSH1 0x1 DUP3 ADD SLOAD PUSH1 0x2 DUP4 ADD SLOAD PUSH1 0x3 SWAP1 SWAP4 ADD SLOAD SWAP2 SWAP3 SWAP1 SWAP2 PUSH1 0xFF DUP1 DUP3 AND SWAP2 PUSH2 0x100 SWAP1 DIV AND DUP6 JUMP JUMPDEST PUSH1 0x40 DUP1 MLOAD SWAP6 DUP7 MSTORE PUSH1 0x20 DUP7 ADD SWAP5 SWAP1 SWAP5 MSTORE SWAP3 DUP5 ADD SWAP2 SWAP1 SWAP2 MSTORE ISZERO ISZERO PUSH1 0x60 DUP4 ADD MSTORE ISZERO ISZERO PUSH1 0x80 DUP3 ADD MSTORE PUSH1 0xA0 ADD PUSH2 0x3E1 JUMP JUMPDEST PUSH2 0x5F5 PUSH2 0xB02 CALLDATASIZE PUSH1 0x4 PUSH2 0x5298 JUMP JUMPDEST PUSH1 0x0 SWAP1 DUP2 MSTORE PUSH1 0x2 PUSH1 0x20 MSTORE PUSH1 0x40 SWAP1 KECCAK256 SLOAD PUSH1 0x1 PUSH1 0x1 PUSH1 0xA0 SHL SUB AND SWAP1 JUMP JUMPDEST PUSH2 0x429 PUSH2 0xB2B CALLDATASIZE PUSH1 0x4 PUSH2 0x51A4 JUMP JUMPDEST PUSH2 0x45D5 JUMP JUMPDEST PUSH2 0xAC8 PUSH2 0xB3E CALLDATASIZE PUSH1 0x4 PUSH2 0x5298 JUMP JUMPDEST PUSH2 0x46CC JUMP JUMPDEST PUSH2 0xB56 PUSH2 0xB51 CALLDATASIZE PUSH1 0x4 PUSH2 0x51A4 JUMP JUMPDEST PUSH2 0x476D JUMP JUMPDEST PUSH1 0x40 MLOAD PUSH2 0x3E1 SWAP6 SWAP5 SWAP4 SWAP3 SWAP2 SWAP1 PUSH2 0x591B JUMP JUMPDEST PUSH2 0x557 PUSH2 0xB75 CALLDATASIZE PUSH1 0x4 PUSH2 0x5298 JUMP JUMPDEST PUSH2 0x48D7 JUMP JUMPDEST PUSH2 0x429 PUSH2 0xB88 CALLDATASIZE PUSH1 0x4 PUSH2 0x51A4 JUMP JUMPDEST PUSH2 0x4989 JUMP JUMPDEST PUSH2 0x3FD PUSH2 0xB9B CALLDATASIZE PUSH1 0x4 PUSH2 0x5969 JUMP JUMPDEST PUSH2 0x49A5 JUMP JUMPDEST PUSH2 0x429 PUSH1 0x0 DUP1 MLOAD PUSH1 0x20 PUSH2 0x5DE4 DUP4 CODECOPY DUP2 MLOAD SWAP2 MSTORE DUP2 JUMP JUMPDEST PUSH2 0x5BD PUSH2 0xBC3 CALLDATASIZE PUSH1 0x4 PUSH2 0x5298 JUMP JUMPDEST PUSH2 0x4D41 JUMP JUMPDEST PUSH2 0x429 PUSH2 0xBD6 CALLDATASIZE PUSH1 0x4 PUSH2 0x51A4 JUMP JUMPDEST PUSH1 0xF PUSH1 0x20 SWAP1 DUP2 MSTORE PUSH1 0x0 SWAP3 DUP4 MSTORE PUSH1 0x40 DUP1 DUP5 KECCAK256 SWAP1 SWAP2 MSTORE SWAP1 DUP3 MSTORE SWAP1 KECCAK256 SLOAD DUP2 JUMP JUMPDEST PUSH2 0x3FD PUSH2 0xC01 CALLDATASIZE PUSH1 0x4 PUSH2 0x52E7 JUMP JUMPDEST PUSH2 0x4E81 JUMP JUMPDEST PUSH1 0xA PUSH1 0x20 MSTORE DUP2 PUSH1 0x0 MSTORE PUSH1 0x40 PUSH1 0x0 KECCAK256 PUSH1 0x20 MSTORE DUP1 PUSH1 0x0 MSTORE PUSH1 0x40 PUSH1 0x0 KECCAK256 PUSH1 0x0 SWAP2 POP SWAP2 POP POP DUP1 PUSH1 0x0 ADD SLOAD SWAP1 DUP1 PUSH1 0x1 ADD SLOAD SWAP1 DUP1 PUSH1 0x2 ADD SLOAD SWAP1 DUP1 PUSH1 0x3 ADD DUP1 SLOAD PUSH2 0xC48 SWAP1 PUSH2 0x59C0 JUMP JUMPDEST DUP1 PUSH1 0x1F ADD PUSH1 0x20 DUP1 SWAP2 DIV MUL PUSH1 0x20 ADD PUSH1 0x40 MLOAD SWAP1 DUP2 ADD PUSH1 0x40 MSTORE DUP1 SWAP3 SWAP2 SWAP1 DUP2 DUP2 MSTORE PUSH1 0x20 ADD DUP3 DUP1 SLOAD PUSH2 0xC74 SWAP1 PUSH2 0x59C0 JUMP JUMPDEST DUP1 ISZERO PUSH2 0xCC1 JUMPI DUP1 PUSH1 0x1F LT PUSH2 0xC96 JUMPI PUSH2 0x100 DUP1 DUP4 SLOAD DIV MUL DUP4 MSTORE SWAP2 PUSH1 0x20 ADD SWAP2 PUSH2 0xCC1 JUMP JUMPDEST DUP3 ADD SWAP2 SWAP1 PUSH1 0x0 MSTORE PUSH1 0x20 PUSH1 0x0 KECCAK256 SWAP1 JUMPDEST DUP2 SLOAD DUP2 MSTORE SWAP1 PUSH1 0x1 ADD SWAP1 PUSH1 0x20 ADD DUP1 DUP4 GT PUSH2 0xCA4 JUMPI DUP3 SWAP1 SUB PUSH1 0x1F AND DUP3 ADD SWAP2 JUMPDEST POP POP POP POP POP SWAP1 DUP1 PUSH1 0x4 ADD SLOAD SWAP1 DUP1 PUSH1 0x5 ADD SLOAD SWAP1 DUP1 PUSH1 0x6 ADD DUP1 SLOAD PUSH2 0xCE2 SWAP1 PUSH2 0x59C0 JUMP JUMPDEST DUP1 PUSH1 0x1F ADD PUSH1 0x20 DUP1 SWAP2 DIV MUL PUSH1 0x20 ADD PUSH1 0x40 MLOAD SWAP1 DUP2 ADD PUSH1 0x40 MSTORE DUP1 SWAP3 SWAP2 SWAP1 DUP2 DUP2 MSTORE PUSH1 0x20 ADD DUP3 DUP1 SLOAD PUSH2 0xD0E SWAP1 PUSH2 0x59C0 JUMP JUMPDEST DUP1 ISZERO PUSH2 0xD5B JUMPI DUP1 PUSH1 0x1F LT PUSH2 0xD30 JUMPI PUSH2 0x100 DUP1 DUP4 SLOAD DIV MUL DUP4 MSTORE SWAP2 PUSH1 0x20 ADD SWAP2 PUSH2 0xD5B JUMP JUMPDEST DUP3 ADD SWAP2 SWAP1 PUSH1 0x0 MSTORE PUSH1 0x20 PUSH1 0x0 KECCAK256 SWAP1 JUMPDEST DUP2 SLOAD DUP2 MSTORE SWAP1 PUSH1 0x1 ADD SWAP1 PUSH1 0x20 ADD DUP1 DUP4 GT PUSH2 0xD3E JUMPI DUP3 SWAP1 SUB PUSH1 0x1F AND DUP3 ADD SWAP2 JUMPDEST POP POP POP POP PUSH1 0x7 DUP4 ADD SLOAD PUSH1 0x8 DUP5 ADD SLOAD PUSH1 0x9 SWAP1 SWAP5 ADD SLOAD SWAP3 SWAP4 PUSH1 0x1 PUSH1 0x1 PUSH1 0xA0 SHL SUB SWAP1 SWAP2 AND SWAP3 SWAP1 SWAP2 POP PUSH1 0xFF AND DUP11 JUMP JUMPDEST PUSH1 0x0 DUP1 MLOAD PUSH1 0x20 PUSH2 0x5E64 DUP4 CODECOPY DUP2 MLOAD SWAP2 MSTORE PUSH2 0xD9F DUP2 CALLER PUSH2 0x2B22 JUMP JUMPDEST PUSH2 0xDC4 JUMPI PUSH1 0x40 MLOAD PUSH3 0x461BCD PUSH1 0xE5 SHL DUP2 MSTORE PUSH1 0x4 ADD PUSH2 0xDBB SWAP1 PUSH2 0x59F4 JUMP JUMPDEST PUSH1 0x40 MLOAD DUP1 SWAP2 SUB SWAP1 REVERT JUMPDEST PUSH1 0x0 DUP3 DUP2 MSTORE PUSH1 0xE PUSH1 0x20 MSTORE PUSH1 0x40 SWAP1 KECCAK256 PUSH1 0x6 ADD SLOAD PUSH1 0x1 PUSH1 0xA0 SHL SWAP1 DIV PUSH1 0xFF AND PUSH2 0xDFD JUMPI PUSH1 0x40 MLOAD PUSH4 0x766FF4C7 PUSH1 0xE1 SHL DUP2 MSTORE PUSH1 0x4 ADD PUSH1 0x40 MLOAD DUP1 SWAP2 SUB SWAP1 REVERT JUMPDEST PUSH1 0x0 DUP3 DUP2 MSTORE PUSH1 0xE PUSH1 0x20 MSTORE PUSH1 0x40 DUP1 DUP3 KECCAK256 PUSH1 0x6 ADD DUP1 SLOAD PUSH1 0xFF PUSH1 0xA0 SHL NOT AND SWAP1 SSTORE MLOAD CALLER SWAP2 DUP5 SWAP2 PUSH32 0x325C62E70CFAA61CF0709D9607EA9D8451B235297C4B47C65FF6A6449C9FACA4 SWAP2 SWAP1 LOG3 POP POP JUMP JUMPDEST PUSH1 0x60 PUSH1 0xB DUP1 SLOAD PUSH2 0xE56 SWAP1 PUSH2 0x59C0 JUMP JUMPDEST DUP1 PUSH1 0x1F ADD PUSH1 0x20 DUP1 SWAP2 DIV MUL PUSH1 0x20 ADD PUSH1 0x40 MLOAD SWAP1 DUP2 ADD PUSH1 0x40 MSTORE DUP1 SWAP3 SWAP2 SWAP1 DUP2 DUP2 MSTORE PUSH1 0x20 ADD DUP3 DUP1 SLOAD PUSH2 0xE82 SWAP1 PUSH2 0x59C0 JUMP JUMPDEST DUP1 ISZERO PUSH2 0xECF JUMPI DUP1 PUSH1 0x1F LT PUSH2 0xEA4 JUMPI PUSH2 0x100 DUP1 DUP4 SLOAD DIV MUL DUP4 MSTORE SWAP2 PUSH1 0x20 ADD SWAP2 PUSH2 0xECF JUMP JUMPDEST DUP3 ADD SWAP2 SWAP1 PUSH1 0x0 MSTORE PUSH1 0x20 PUSH1 0x0 KECCAK256 SWAP1 JUMPDEST DUP2 SLOAD DUP2 MSTORE SWAP1 PUSH1 0x1 ADD SWAP1 PUSH1 0x20 ADD DUP1 DUP4 GT PUSH2 0xEB2 JUMPI DUP3 SWAP1 SUB PUSH1 0x1F AND DUP3 ADD SWAP2 JUMPDEST POP POP POP POP POP SWAP1 POP SWAP1 JUMP JUMPDEST PUSH1 0x0 DUP1 MLOAD PUSH1 0x20 PUSH2 0x5E64 DUP4 CODECOPY DUP2 MLOAD SWAP2 MSTORE PUSH2 0xEF2 DUP2 CALLER PUSH2 0x2B22 JUMP JUMPDEST PUSH2 0xF0E JUMPI PUSH1 0x40 MLOAD PUSH3 0x461BCD PUSH1 0xE5 SHL DUP2 MSTORE PUSH1 0x4 ADD PUSH2 0xDBB SWAP1 PUSH2 0x59F4 JUMP JUMPDEST PUSH2 0xF26 PUSH1 0x0 DUP1 MLOAD PUSH1 0x20 PUSH2 0x5E44 DUP4 CODECOPY DUP2 MLOAD SWAP2 MSTORE DUP4 PUSH2 0x4ECE JUMP JUMPDEST POP POP JUMP JUMPDEST PUSH2 0xF32 PUSH2 0x508D JUMP JUMPDEST PUSH1 0x0 DUP1 MLOAD PUSH1 0x20 PUSH2 0x5E44 DUP4 CODECOPY DUP2 MLOAD SWAP2 MSTORE PUSH2 0xF4B DUP2 CALLER PUSH2 0x2B22 JUMP JUMPDEST PUSH2 0xF67 JUMPI PUSH1 0x40 MLOAD PUSH3 0x461BCD PUSH1 0xE5 SHL DUP2 MSTORE PUSH1 0x4 ADD PUSH2 0xDBB SWAP1 PUSH2 0x59F4 JUMP JUMPDEST PUSH1 0x0 DUP4 DUP2 MSTORE PUSH1 0xE PUSH1 0x20 MSTORE PUSH1 0x40 SWAP1 KECCAK256 PUSH1 0x6 ADD SLOAD PUSH1 0x1 PUSH1 0xA0 SHL SWAP1 DIV PUSH1 0xFF AND PUSH2 0xFA0 JUMPI PUSH1 0x40 MLOAD PUSH4 0x766FF4C7 PUSH1 0xE1 SHL DUP2 MSTORE PUSH1 0x4 ADD PUSH1 0x40 MLOAD DUP1 SWAP2 SUB SWAP1 REVERT JUMPDEST PUSH1 0xE PUSH1 0x0 DUP5 DUP2 MSTORE PUSH1 0x20 ADD SWAP1 DUP2 MSTORE PUSH1 0x20 ADD PUSH1 0x0 KECCAK256 PUSH1 0x40 MLOAD DUP1 PUSH2 0x100 ADD PUSH1 0x40 MSTORE SWAP1 DUP2 PUSH1 0x0 DUP3 ADD SLOAD DUP2 MSTORE PUSH1 0x20 ADD PUSH1 0x1 DUP3 ADD SLOAD DUP2 MSTORE PUSH1 0x20 ADD PUSH1 0x2 DUP3 ADD SLOAD DUP2 MSTORE PUSH1 0x20 ADD PUSH1 0x3 DUP3 ADD SLOAD DUP2 MSTORE PUSH1 0x20 ADD PUSH1 0x4 DUP3 ADD DUP1 SLOAD PUSH2 0xFF7 SWAP1 PUSH2 0x59C0 JUMP JUMPDEST DUP1 PUSH1 0x1F ADD PUSH1 0x20 DUP1 SWAP2 DIV MUL PUSH1 0x20 ADD PUSH1 0x40 MLOAD SWAP1 DUP2 ADD PUSH1 0x40 MSTORE DUP1 SWAP3 SWAP2 SWAP1 DUP2 DUP2 MSTORE PUSH1 0x20 ADD DUP3 DUP1 SLOAD PUSH2 0x1023 SWAP1 PUSH2 0x59C0 JUMP JUMPDEST DUP1 ISZERO PUSH2 0x1070 JUMPI DUP1 PUSH1 0x1F LT PUSH2 0x1045 JUMPI PUSH2 0x100 DUP1 DUP4 SLOAD DIV MUL DUP4 MSTORE SWAP2 PUSH1 0x20 ADD SWAP2 PUSH2 0x1070 JUMP JUMPDEST DUP3 ADD SWAP2 SWAP1 PUSH1 0x0 MSTORE PUSH1 0x20 PUSH1 0x0 KECCAK256 SWAP1 JUMPDEST DUP2 SLOAD DUP2 MSTORE SWAP1 PUSH1 0x1 ADD SWAP1 PUSH1 0x20 ADD DUP1 DUP4 GT PUSH2 0x1053 JUMPI DUP3 SWAP1 SUB PUSH1 0x1F AND DUP3 ADD SWAP2 JUMPDEST POP POP POP SWAP2 DUP4 MSTORE POP POP PUSH1 0x5 DUP3 ADD SLOAD PUSH1 0x20 DUP3 ADD MSTORE PUSH1 0x6 SWAP1 SWAP2 ADD SLOAD PUSH1 0x1 PUSH1 0x1 PUSH1 0xA0 SHL SUB DUP2 AND PUSH1 0x40 DUP4 ADD MSTORE PUSH1 0x1 PUSH1 0xA0 SHL SWAP1 DIV PUSH1 0xFF AND ISZERO ISZERO PUSH1 0x60 SWAP1 SWAP2 ADD MSTORE SWAP2 POP JUMPDEST POP SWAP2 SWAP1 POP JUMP JUMPDEST PUSH1 0x0 DUP1 MLOAD PUSH1 0x20 PUSH2 0x5DE4 DUP4 CODECOPY DUP2 MLOAD SWAP2 MSTORE PUSH2 0x10CB DUP2 CALLER PUSH2 0x2B22 JUMP JUMPDEST PUSH2 0x10E7 JUMPI PUSH1 0x40 MLOAD PUSH3 0x461BCD PUSH1 0xE5 SHL DUP2 MSTORE PUSH1 0x4 ADD PUSH2 0xDBB SWAP1 PUSH2 0x59F4 JUMP JUMPDEST PUSH1 0x0 DUP5 GT PUSH2 0x1107 JUMPI PUSH1 0x40 MLOAD PUSH3 0x461BCD PUSH1 0xE5 SHL DUP2 MSTORE PUSH1 0x4 ADD PUSH2 0xDBB SWAP1 PUSH2 0x5A1B JUMP JUMPDEST PUSH1 0x0 DUP4 DUP2 MSTORE PUSH1 0x4 PUSH1 0x20 DUP2 SWAP1 MSTORE PUSH1 0x40 SWAP1 SWAP2 KECCAK256 ADD SLOAD PUSH2 0x100 SWAP1 DIV PUSH1 0xFF AND PUSH2 0x113E JUMPI PUSH1 0x40 MLOAD PUSH3 0x461BCD PUSH1 0xE5 SHL DUP2 MSTORE PUSH1 0x4 ADD PUSH2 0xDBB SWAP1 PUSH2 0x5A47 JUMP JUMPDEST PUSH1 0x0 DUP4 DUP2 MSTORE PUSH1 0x4 PUSH1 0x20 DUP2 SWAP1 MSTORE PUSH1 0x40 SWAP1 SWAP2 KECCAK256 ADD SLOAD PUSH1 0xFF AND ISZERO PUSH2 0x1192 JUMPI PUSH1 0x40 MLOAD PUSH3 0x461BCD PUSH1 0xE5 SHL DUP2 MSTORE PUSH1 0x20 PUSH1 0x4 DUP3 ADD MSTORE PUSH1 0xE PUSH1 0x24 DUP3 ADD MSTORE PUSH14 0x115E185B481A5CC81B1BD8DAD959 PUSH1 0x92 SHL PUSH1 0x44 DUP3 ADD MSTORE PUSH1 0x64 ADD PUSH2 0xDBB JUMP JUMPDEST PUSH1 0x0 DUP5 DUP2 MSTORE PUSH1 0x2 PUSH1 0x20 MSTORE PUSH1 0x40 SWAP1 KECCAK256 SLOAD PUSH1 0x1 PUSH1 0x1 PUSH1 0xA0 SHL SUB AND CALLER EQ PUSH2 0x11F8 JUMPI PUSH1 0x40 MLOAD PUSH3 0x461BCD PUSH1 0xE5 SHL DUP2 MSTORE PUSH1 0x20 PUSH1 0x4 DUP3 ADD MSTORE PUSH1 0x1C PUSH1 0x24 DUP3 ADD MSTORE PUSH32 0x43616E206F6E6C79207375626D697420666F7220796F757273656C6600000000 PUSH1 0x44 DUP3 ADD MSTORE PUSH1 0x64 ADD PUSH2 0xDBB JUMP JUMPDEST PUSH1 0x0 DUP3 MLOAD GT PUSH2 0x1243 JUMPI PUSH1 0x40 MLOAD PUSH3 0x461BCD PUSH1 0xE5 SHL DUP2 MSTORE PUSH1 0x20 PUSH1 0x4 DUP3 ADD MSTORE PUSH1 0x17 PUSH1 0x24 DUP3 ADD MSTORE PUSH23 0x436F6E74656E742063616E6E6F7420626520656D707479 PUSH1 0x48 SHL PUSH1 0x44 DUP3 ADD MSTORE PUSH1 0x64 ADD PUSH2 0xDBB JUMP JUMPDEST PUSH1 0x0 DUP5 DUP2 MSTORE PUSH1 0x6 PUSH1 0x20 SWAP1 DUP2 MSTORE PUSH1 0x40 DUP1 DUP4 KECCAK256 DUP7 DUP5 MSTORE SWAP1 SWAP2 MSTORE SWAP1 KECCAK256 PUSH1 0x7 ADD SLOAD PUSH1 0x1 PUSH1 0xA0 SHL SWAP1 DIV PUSH1 0xFF AND ISZERO PUSH2 0x12B2 JUMPI PUSH1 0x40 MLOAD PUSH3 0x461BCD PUSH1 0xE5 SHL DUP2 MSTORE PUSH1 0x20 PUSH1 0x4 DUP3 ADD MSTORE PUSH1 0x18 PUSH1 0x24 DUP3 ADD MSTORE PUSH24 0x105B9CDDD95C88185B1C9958591E481CDD589B5A5D1D1959 PUSH1 0x42 SHL PUSH1 0x44 DUP3 ADD MSTORE PUSH1 0x64 ADD PUSH2 0xDBB JUMP JUMPDEST PUSH1 0x40 DUP1 MLOAD PUSH2 0x140 DUP2 ADD DUP3 MSTORE DUP6 DUP2 MSTORE PUSH1 0x20 DUP1 DUP3 ADD DUP7 DUP2 MSTORE DUP3 DUP5 ADD DUP7 DUP2 MSTORE PUSH1 0x0 PUSH1 0x60 DUP6 ADD DUP2 SWAP1 MSTORE TIMESTAMP PUSH1 0x80 DUP7 ADD MSTORE CALLER PUSH1 0xA0 DUP7 ADD MSTORE PUSH1 0xC0 DUP6 ADD DUP2 SWAP1 MSTORE PUSH1 0xE0 DUP6 ADD DUP2 SWAP1 MSTORE PUSH1 0x1 PUSH2 0x100 DUP7 ADD DUP2 SWAP1 MSTORE PUSH2 0x120 DUP7 ADD DUP3 SWAP1 MSTORE DUP11 DUP3 MSTORE PUSH1 0x6 DUP6 MSTORE DUP7 DUP3 KECCAK256 DUP11 DUP4 MSTORE SWAP1 SWAP5 MSTORE SWAP5 SWAP1 SWAP5 KECCAK256 DUP4 MLOAD DUP2 SSTORE SWAP1 MLOAD SWAP2 DUP2 ADD SWAP2 SWAP1 SWAP2 SSTORE SWAP2 MLOAD SWAP1 SWAP2 SWAP1 PUSH1 0x2 DUP3 ADD SWAP1 PUSH2 0x1338 SWAP1 DUP3 PUSH2 0x5AC2 JUMP JUMPDEST POP PUSH1 0x60 DUP3 ADD MLOAD PUSH1 0x3 DUP3 ADD SSTORE PUSH1 0x80 DUP3 ADD MLOAD PUSH1 0x4 DUP3 ADD SSTORE PUSH1 0xA0 DUP3 ADD MLOAD PUSH1 0x5 DUP3 ADD DUP1 SLOAD PUSH1 0x1 PUSH1 0x1 PUSH1 0xA0 SHL SUB SWAP3 DUP4 AND PUSH1 0x1 PUSH1 0x1 PUSH1 0xA0 SHL SUB NOT SWAP1 SWAP2 AND OR SWAP1 SSTORE PUSH1 0xC0 DUP4 ADD MLOAD PUSH1 0x6 DUP4 ADD SSTORE PUSH1 0xE0 DUP4 ADD MLOAD PUSH1 0x7 SWAP3 DUP4 ADD DUP1 SLOAD PUSH2 0x100 DUP7 ADD MLOAD PUSH2 0x120 SWAP1 SWAP7 ADD MLOAD ISZERO ISZERO PUSH1 0x1 PUSH1 0xA8 SHL MUL PUSH1 0xFF PUSH1 0xA8 SHL NOT SWAP7 ISZERO ISZERO PUSH1 0x1 PUSH1 0xA0 SHL MUL PUSH1 0x1 PUSH1 0x1 PUSH1 0xA8 SHL SUB NOT SWAP1 SWAP3 AND SWAP4 SWAP1 SWAP5 AND SWAP3 SWAP1 SWAP3 OR SWAP2 SWAP1 SWAP2 OR SWAP4 SWAP1 SWAP4 AND OR SWAP1 SWAP2 SSTORE PUSH1 0x0 DUP5 DUP2 MSTORE PUSH1 0x20 SWAP2 DUP3 MSTORE PUSH1 0x40 DUP1 DUP3 KECCAK256 DUP1 SLOAD PUSH1 0x1 DUP2 ADD DUP3 SSTORE SWAP1 DUP4 MSTORE SWAP3 SWAP1 SWAP2 KECCAK256 SWAP1 SWAP2 ADD DUP6 SWAP1 SSTORE MLOAD CALLER SWAP1 DUP5 SWAP1 DUP7 SWAP1 PUSH32 0x2AC19E2E133BACFDEFA15A8498DAA07908C5A452D833E60FDBAC08F8187AB169 SWAP1 PUSH2 0x1426 SWAP1 DUP8 SWAP1 TIMESTAMP SWAP1 PUSH2 0x5B80 JUMP JUMPDEST PUSH1 0x40 MLOAD DUP1 SWAP2 SUB SWAP1 LOG4 POP POP POP POP JUMP JUMPDEST PUSH1 0x0 DUP1 MLOAD PUSH1 0x20 PUSH2 0x5E64 DUP4 CODECOPY DUP2 MLOAD SWAP2 MSTORE PUSH2 0x144D DUP2 CALLER PUSH2 0x2B22 JUMP JUMPDEST PUSH2 0x1469 JUMPI PUSH1 0x40 MLOAD PUSH3 0x461BCD PUSH1 0xE5 SHL DUP2 MSTORE PUSH1 0x4 ADD PUSH2 0xDBB SWAP1 PUSH2 0x59F4 JUMP JUMPDEST PUSH1 0x0 DUP4 GT PUSH2 0x14AB JUMPI PUSH1 0x40 MLOAD PUSH3 0x461BCD PUSH1 0xE5 SHL DUP2 MSTORE PUSH1 0x20 PUSH1 0x4 DUP3 ADD MSTORE PUSH1 0xF PUSH1 0x24 DUP3 ADD MSTORE PUSH15 0x125B9D985B1A59081D195CDD081251 PUSH1 0x8A SHL PUSH1 0x44 DUP3 ADD MSTORE PUSH1 0x64 ADD PUSH2 0xDBB JUMP JUMPDEST PUSH1 0x0 DUP3 GT PUSH2 0x14F0 JUMPI PUSH1 0x40 MLOAD PUSH3 0x461BCD PUSH1 0xE5 SHL DUP2 MSTORE PUSH1 0x20 PUSH1 0x4 DUP3 ADD MSTORE PUSH1 0x12 PUSH1 0x24 DUP3 ADD MSTORE PUSH18 0x125B9D985B1A590818DC99585D1BDC881251 PUSH1 0x72 SHL PUSH1 0x44 DUP3 ADD MSTORE PUSH1 0x64 ADD PUSH2 0xDBB JUMP JUMPDEST PUSH1 0x0 DUP4 DUP2 MSTORE PUSH1 0x16 PUSH1 0x20 MSTORE PUSH1 0x40 SWAP1 KECCAK256 PUSH1 0x3 ADD SLOAD PUSH2 0x100 SWAP1 DIV PUSH1 0xFF AND ISZERO PUSH2 0x154D JUMPI PUSH1 0x40 MLOAD PUSH3 0x461BCD PUSH1 0xE5 SHL DUP2 MSTORE PUSH1 0x20 PUSH1 0x4 DUP3 ADD MSTORE PUSH1 0x13 PUSH1 0x24 DUP3 ADD MSTORE PUSH19 0x5465737420616C726561647920657869737473 PUSH1 0x68 SHL PUSH1 0x44 DUP3 ADD MSTORE PUSH1 0x64 ADD PUSH2 0xDBB JUMP JUMPDEST PUSH1 0x40 DUP1 MLOAD PUSH1 0xA0 DUP2 ADD DUP3 MSTORE DUP5 DUP2 MSTORE PUSH1 0x20 DUP1 DUP3 ADD DUP6 DUP2 MSTORE TIMESTAMP DUP4 DUP6 ADD DUP2 DUP2 MSTORE PUSH1 0x0 PUSH1 0x60 DUP7 ADD DUP2 DUP2 MSTORE PUSH1 0x1 PUSH1 0x80 DUP9 ADD DUP2 DUP2 MSTORE DUP13 DUP5 MSTORE PUSH1 0x16 DUP9 MSTORE DUP10 DUP5 KECCAK256 SWAP9 MLOAD DUP10 SSTORE SWAP6 MLOAD DUP9 DUP3 ADD SSTORE SWAP3 MLOAD PUSH1 0x2 DUP9 ADD SSTORE MLOAD PUSH1 0x3 SWAP1 SWAP7 ADD DUP1 SLOAD SWAP5 MLOAD ISZERO ISZERO PUSH2 0x100 MUL PUSH2 0xFF00 NOT SWAP8 ISZERO ISZERO SWAP8 SWAP1 SWAP8 AND PUSH2 0xFFFF NOT SWAP1 SWAP6 AND SWAP5 SWAP1 SWAP5 OR SWAP6 SWAP1 SWAP6 OR SWAP1 SWAP3 SSTORE DUP7 DUP5 MSTORE PUSH1 0x17 DUP4 MSTORE DUP5 DUP5 KECCAK256 DUP1 SLOAD SWAP3 DUP4 ADD DUP2 SSTORE DUP5 MSTORE SWAP3 DUP3 SWAP1 KECCAK256 ADD DUP7 SWAP1 SSTORE SWAP2 MLOAD SWAP1 DUP2 MSTORE DUP4 SWAP2 DUP6 SWAP2 PUSH32 0x7362A05DAFF7A219173125FC58B18F322F2E8B7E19DD728E5D5526716858DB61 SWAP2 ADD JUMPDEST PUSH1 0x40 MLOAD DUP1 SWAP2 SUB SWAP1 LOG3 POP POP POP JUMP JUMPDEST PUSH1 0x60 PUSH2 0x1632 PUSH1 0x0 DUP1 MLOAD PUSH1 0x20 PUSH2 0x5E64 DUP4 CODECOPY DUP2 MLOAD SWAP2 MSTORE CALLER PUSH2 0x2B22 JUMP JUMPDEST DUP1 PUSH2 0x1650 JUMPI POP PUSH2 0x1650 PUSH1 0x0 DUP1 MLOAD PUSH1 0x20 PUSH2 0x5E04 DUP4 CODECOPY DUP2 MLOAD SWAP2 MSTORE CALLER PUSH2 0x2B22 JUMP JUMPDEST PUSH2 0x166C JUMPI PUSH1 0x40 MLOAD PUSH3 0x461BCD PUSH1 0xE5 SHL DUP2 MSTORE PUSH1 0x4 ADD PUSH2 0xDBB SWAP1 PUSH2 0x59F4 JUMP JUMPDEST PUSH1 0x0 DUP3 DUP2 MSTORE PUSH1 0x14 PUSH1 0x20 SWAP1 DUP2 MSTORE PUSH1 0x40 DUP1 DUP4 KECCAK256 DUP1 SLOAD DUP3 MLOAD DUP2 DUP6 MUL DUP2 ADD DUP6 ADD SWAP1 SWAP4 MSTORE DUP1 DUP4 MSTORE SWAP2 SWAP4 SWAP1 SWAP3 DUP5 ADD JUMPDEST DUP3 DUP3 LT ISZERO PUSH2 0x1815 JUMPI PUSH1 0x0 DUP5 DUP2 MSTORE PUSH1 0x20 SWAP1 DUP2 SWAP1 KECCAK256 PUSH1 0x40 DUP1 MLOAD PUSH1 0xA0 DUP2 ADD DUP3 MSTORE PUSH1 0x5 DUP7 MUL SWAP1 SWAP3 ADD DUP1 SLOAD DUP4 MSTORE PUSH1 0x1 DUP2 ADD SLOAD PUSH1 0x1 PUSH1 0x1 PUSH1 0xA0 SHL SUB AND SWAP4 DUP4 ADD SWAP4 SWAP1 SWAP4 MSTORE PUSH1 0x2 DUP4 ADD DUP1 SLOAD SWAP3 SWAP4 SWAP3 SWAP2 DUP5 ADD SWAP2 PUSH2 0x16E8 SWAP1 PUSH2 0x59C0 JUMP JUMPDEST DUP1 PUSH1 0x1F ADD PUSH1 0x20 DUP1 SWAP2 DIV MUL PUSH1 0x20 ADD PUSH1 0x40 MLOAD SWAP1 DUP2 ADD PUSH1 0x40 MSTORE DUP1 SWAP3 SWAP2 SWAP1 DUP2 DUP2 MSTORE PUSH1 0x20 ADD DUP3 DUP1 SLOAD PUSH2 0x1714 SWAP1 PUSH2 0x59C0 JUMP JUMPDEST DUP1 ISZERO PUSH2 0x1761 JUMPI DUP1 PUSH1 0x1F LT PUSH2 0x1736 JUMPI PUSH2 0x100 DUP1 DUP4 SLOAD DIV MUL DUP4 MSTORE SWAP2 PUSH1 0x20 ADD SWAP2 PUSH2 0x1761 JUMP JUMPDEST DUP3 ADD SWAP2 SWAP1 PUSH1 0x0 MSTORE PUSH1 0x20 PUSH1 0x0 KECCAK256 SWAP1 JUMPDEST DUP2 SLOAD DUP2 MSTORE SWAP1 PUSH1 0x1 ADD SWAP1 PUSH1 0x20 ADD DUP1 DUP4 GT PUSH2 0x1744 JUMPI DUP3 SWAP1 SUB PUSH1 0x1F AND DUP3 ADD SWAP2 JUMPDEST POP POP POP POP POP DUP2 MSTORE PUSH1 0x20 ADD PUSH1 0x3 DUP3 ADD SLOAD DUP2 MSTORE PUSH1 0x20 ADD PUSH1 0x4 DUP3 ADD DUP1 SLOAD PUSH2 0x1784 SWAP1 PUSH2 0x59C0 JUMP JUMPDEST DUP1 PUSH1 0x1F ADD PUSH1 0x20 DUP1 SWAP2 DIV MUL PUSH1 0x20 ADD PUSH1 0x40 MLOAD SWAP1 DUP2 ADD PUSH1 0x40 MSTORE DUP1 SWAP3 SWAP2 SWAP1 DUP2 DUP2 MSTORE PUSH1 0x20 ADD DUP3 DUP1 SLOAD PUSH2 0x17B0 SWAP1 PUSH2 0x59C0 JUMP JUMPDEST DUP1 ISZERO PUSH2 0x17FD JUMPI DUP1 PUSH1 0x1F LT PUSH2 0x17D2 JUMPI PUSH2 0x100 DUP1 DUP4 SLOAD DIV MUL DUP4 MSTORE SWAP2 PUSH1 0x20 ADD SWAP2 PUSH2 0x17FD JUMP JUMPDEST DUP3 ADD SWAP2 SWAP1 PUSH1 0x0 MSTORE PUSH1 0x20 PUSH1 0x0 KECCAK256 SWAP1 JUMPDEST DUP2 SLOAD DUP2 MSTORE SWAP1 PUSH1 0x1 ADD SWAP1 PUSH1 0x20 ADD DUP1 DUP4 GT PUSH2 0x17E0 JUMPI DUP3 SWAP1 SUB PUSH1 0x1F AND DUP3 ADD SWAP2 JUMPDEST POP POP POP POP POP DUP2 MSTORE POP POP DUP2 MSTORE PUSH1 0x20 ADD SWAP1 PUSH1 0x1 ADD SWAP1 PUSH2 0x1695 JUMP JUMPDEST POP POP POP POP SWAP1 POP SWAP2 SWAP1 POP JUMP JUMPDEST PUSH2 0x1828 PUSH2 0x50DD JUMP JUMPDEST PUSH2 0x1840 PUSH1 0x0 DUP1 MLOAD PUSH1 0x20 PUSH2 0x5E04 DUP4 CODECOPY DUP2 MLOAD SWAP2 MSTORE CALLER PUSH2 0x2B22 JUMP JUMPDEST DUP1 PUSH2 0x185E JUMPI POP PUSH2 0x185E PUSH1 0x0 DUP1 MLOAD PUSH1 0x20 PUSH2 0x5E64 DUP4 CODECOPY DUP2 MLOAD SWAP2 MSTORE CALLER PUSH2 0x2B22 JUMP JUMPDEST DUP1 PUSH2 0x189D JUMPI POP PUSH1 0x0 DUP4 DUP2 MSTORE PUSH1 0x2 PUSH1 0x20 MSTORE PUSH1 0x40 SWAP1 KECCAK256 SLOAD PUSH1 0x1 PUSH1 0x1 PUSH1 0xA0 SHL SUB AND CALLER EQ DUP1 ISZERO PUSH2 0x189D JUMPI POP PUSH2 0x189D PUSH1 0x0 DUP1 MLOAD PUSH1 0x20 PUSH2 0x5DE4 DUP4 CODECOPY DUP2 MLOAD SWAP2 MSTORE CALLER PUSH2 0x2B22 JUMP JUMPDEST PUSH2 0x18B9 JUMPI PUSH1 0x40 MLOAD PUSH3 0x461BCD PUSH1 0xE5 SHL DUP2 MSTORE PUSH1 0x4 ADD PUSH2 0xDBB SWAP1 PUSH2 0x59F4 JUMP JUMPDEST PUSH1 0xA PUSH1 0x0 DUP5 DUP2 MSTORE PUSH1 0x20 ADD SWAP1 DUP2 MSTORE PUSH1 0x20 ADD PUSH1 0x0 KECCAK256 PUSH1 0x0 DUP4 DUP2 MSTORE PUSH1 0x20 ADD SWAP1 DUP2 MSTORE PUSH1 0x20 ADD PUSH1 0x0 KECCAK256 PUSH1 0x40 MLOAD DUP1 PUSH2 0x140 ADD PUSH1 0x40 MSTORE SWAP1 DUP2 PUSH1 0x0 DUP3 ADD SLOAD DUP2 MSTORE PUSH1 0x20 ADD PUSH1 0x1 DUP3 ADD SLOAD DUP2 MSTORE PUSH1 0x20 ADD PUSH1 0x2 DUP3 ADD SLOAD DUP2 MSTORE PUSH1 0x20 ADD PUSH1 0x3 DUP3 ADD DUP1 SLOAD PUSH2 0x1917 SWAP1 PUSH2 0x59C0 JUMP JUMPDEST DUP1 PUSH1 0x1F ADD PUSH1 0x20 DUP1 SWAP2 DIV MUL PUSH1 0x20 ADD PUSH1 0x40 MLOAD SWAP1 DUP2 ADD PUSH1 0x40 MSTORE DUP1 SWAP3 SWAP2 SWAP1 DUP2 DUP2 MSTORE PUSH1 0x20 ADD DUP3 DUP1 SLOAD PUSH2 0x1943 SWAP1 PUSH2 0x59C0 JUMP JUMPDEST DUP1 ISZERO PUSH2 0x1990 JUMPI DUP1 PUSH1 0x1F LT PUSH2 0x1965 JUMPI PUSH2 0x100 DUP1 DUP4 SLOAD DIV MUL DUP4 MSTORE SWAP2 PUSH1 0x20 ADD SWAP2 PUSH2 0x1990 JUMP JUMPDEST DUP3 ADD SWAP2 SWAP1 PUSH1 0x0 MSTORE PUSH1 0x20 PUSH1 0x0 KECCAK256 SWAP1 JUMPDEST DUP2 SLOAD DUP2 MSTORE SWAP1 PUSH1 0x1 ADD SWAP1 PUSH1 0x20 ADD DUP1 DUP4 GT PUSH2 0x1973 JUMPI DUP3 SWAP1 SUB PUSH1 0x1F AND DUP3 ADD SWAP2 JUMPDEST POP POP POP POP POP DUP2 MSTORE PUSH1 0x20 ADD PUSH1 0x4 DUP3 ADD SLOAD DUP2 MSTORE PUSH1 0x20 ADD PUSH1 0x5 DUP3 ADD SLOAD DUP2 MSTORE PUSH1 0x20 ADD PUSH1 0x6 DUP3 ADD DUP1 SLOAD PUSH2 0x19BD SWAP1 PUSH2 0x59C0 JUMP JUMPDEST DUP1 PUSH1 0x1F ADD PUSH1 0x20 DUP1 SWAP2 DIV MUL PUSH1 0x20 ADD PUSH1 0x40 MLOAD SWAP1 DUP2 ADD PUSH1 0x40 MSTORE DUP1 SWAP3 SWAP2 SWAP1 DUP2 DUP2 MSTORE PUSH1 0x20 ADD DUP3 DUP1 SLOAD PUSH2 0x19E9 SWAP1 PUSH2 0x59C0 JUMP JUMPDEST DUP1 ISZERO PUSH2 0x1A36 JUMPI DUP1 PUSH1 0x1F LT PUSH2 0x1A0B JUMPI PUSH2 0x100 DUP1 DUP4 SLOAD DIV MUL DUP4 MSTORE SWAP2 PUSH1 0x20 ADD SWAP2 PUSH2 0x1A36 JUMP JUMPDEST DUP3 ADD SWAP2 SWAP1 PUSH1 0x0 MSTORE PUSH1 0x20 PUSH1 0x0 KECCAK256 SWAP1 JUMPDEST DUP2 SLOAD DUP2 MSTORE SWAP1 PUSH1 0x1 ADD SWAP1 PUSH1 0x20 ADD DUP1 DUP4 GT PUSH2 0x1A19 JUMPI DUP3 SWAP1 SUB PUSH1 0x1F AND DUP3 ADD SWAP2 JUMPDEST POP POP POP SWAP2 DUP4 MSTORE POP POP PUSH1 0x7 DUP3 ADD SLOAD PUSH1 0x1 PUSH1 0x1 PUSH1 0xA0 SHL SUB AND PUSH1 0x20 DUP3 ADD MSTORE PUSH1 0x8 DUP3 ADD SLOAD PUSH1 0x40 DUP3 ADD MSTORE PUSH1 0x9 SWAP1 SWAP2 ADD SLOAD PUSH1 0xFF AND ISZERO ISZERO PUSH1 0x60 SWAP1 SWAP2 ADD MSTORE SWAP1 POP JUMPDEST SWAP3 SWAP2 POP POP JUMP JUMPDEST PUSH1 0x0 DUP1 MLOAD PUSH1 0x20 PUSH2 0x5E04 DUP4 CODECOPY DUP2 MLOAD SWAP2 MSTORE PUSH2 0x1A8E DUP2 CALLER PUSH2 0x2B22 JUMP JUMPDEST PUSH2 0x1AAA JUMPI PUSH1 0x40 MLOAD PUSH3 0x461BCD PUSH1 0xE5 SHL DUP2 MSTORE PUSH1 0x4 ADD PUSH2 0xDBB SWAP1 PUSH2 0x59F4 JUMP JUMPDEST PUSH1 0x0 DUP4 DUP2 MSTORE PUSH1 0x6 PUSH1 0x20 SWAP1 DUP2 MSTORE PUSH1 0x40 DUP1 DUP4 KECCAK256 DUP6 DUP5 MSTORE SWAP1 SWAP2 MSTORE SWAP1 KECCAK256 PUSH1 0x7 ADD SLOAD PUSH1 0x1 PUSH1 0xA0 SHL SWAP1 DIV PUSH1 0xFF AND PUSH2 0x1AED JUMPI PUSH1 0x40 MLOAD PUSH3 0x461BCD PUSH1 0xE5 SHL DUP2 MSTORE PUSH1 0x4 ADD PUSH2 0xDBB SWAP1 PUSH2 0x5BA2 JUMP JUMPDEST PUSH1 0x0 DUP4 DUP2 MSTORE PUSH1 0x6 PUSH1 0x20 SWAP1 DUP2 MSTORE PUSH1 0x40 DUP1 DUP4 KECCAK256 DUP6 DUP5 MSTORE SWAP1 SWAP2 MSTORE SWAP1 KECCAK256 PUSH1 0x7 ADD SLOAD PUSH1 0x1 PUSH1 0xA8 SHL SWAP1 DIV PUSH1 0xFF AND PUSH2 0x1B30 JUMPI PUSH1 0x40 MLOAD PUSH3 0x461BCD PUSH1 0xE5 SHL DUP2 MSTORE PUSH1 0x4 ADD PUSH2 0xDBB SWAP1 PUSH2 0x5BD0 JUMP JUMPDEST PUSH1 0x0 DUP4 DUP2 MSTORE PUSH1 0x8 PUSH1 0x20 SWAP1 DUP2 MSTORE PUSH1 0x40 DUP1 DUP4 KECCAK256 DUP6 DUP5 MSTORE SWAP1 SWAP2 MSTORE SWAP1 KECCAK256 SLOAD ISZERO PUSH2 0x1B67 JUMPI PUSH1 0x40 MLOAD PUSH3 0x461BCD PUSH1 0xE5 SHL DUP2 MSTORE PUSH1 0x4 ADD PUSH2 0xDBB SWAP1 PUSH2 0x5BFF JUMP JUMPDEST PUSH1 0x0 PUSH1 0x6 PUSH1 0x0 DUP6 DUP2 MSTORE PUSH1 0x20 ADD SWAP1 DUP2 MSTORE PUSH1 0x20 ADD PUSH1 0x0 KECCAK256 PUSH1 0x0 DUP5 DUP2 MSTORE PUSH1 0x20 ADD SWAP1 DUP2 MSTORE PUSH1 0x20 ADD PUSH1 0x0 KECCAK256 PUSH1 0x3 ADD SLOAD SWAP1 POP PUSH1 0x40 MLOAD DUP1 PUSH1 0xE0 ADD PUSH1 0x40 MSTORE DUP1 DUP6 DUP2 MSTORE PUSH1 0x20 ADD DUP5 DUP2 MSTORE PUSH1 0x20 ADD DUP3 DUP2 MSTORE PUSH1 0x20 ADD PUSH1 0x6 PUSH1 0x0 DUP8 DUP2 MSTORE PUSH1 0x20 ADD SWAP1 DUP2 MSTORE PUSH1 0x20 ADD PUSH1 0x0 KECCAK256 PUSH1 0x0 DUP7 DUP2 MSTORE PUSH1 0x20 ADD SWAP1 DUP2 MSTORE PUSH1 0x20 ADD PUSH1 0x0 KECCAK256 PUSH1 0x7 ADD PUSH1 0x0 SWAP1 SLOAD SWAP1 PUSH2 0x100 EXP SWAP1 DIV PUSH1 0x1 PUSH1 0x1 PUSH1 0xA0 SHL SUB AND PUSH1 0x1 PUSH1 0x1 PUSH1 0xA0 SHL SUB AND DUP2 MSTORE PUSH1 0x20 ADD TIMESTAMP DUP2 MSTORE PUSH1 0x20 ADD TIMESTAMP DUP2 MSTORE PUSH1 0x20 ADD PUSH1 0x0 ISZERO ISZERO DUP2 MSTORE POP PUSH1 0x8 PUSH1 0x0 DUP7 DUP2 MSTORE PUSH1 0x20 ADD SWAP1 DUP2 MSTORE PUSH1 0x20 ADD PUSH1 0x0 KECCAK256 PUSH1 0x0 DUP6 DUP2 MSTORE PUSH1 0x20 ADD SWAP1 DUP2 MSTORE PUSH1 0x20 ADD PUSH1 0x0 KECCAK256 PUSH1 0x0 DUP3 ADD MLOAD DUP2 PUSH1 0x0 ADD SSTORE PUSH1 0x20 DUP3 ADD MLOAD DUP2 PUSH1 0x1 ADD SSTORE PUSH1 0x40 DUP3 ADD MLOAD DUP2 PUSH1 0x2 ADD SSTORE PUSH1 0x60 DUP3 ADD MLOAD DUP2 PUSH1 0x3 ADD PUSH1 0x0 PUSH2 0x100 EXP DUP2 SLOAD DUP2 PUSH1 0x1 PUSH1 0x1 PUSH1 0xA0 SHL SUB MUL NOT AND SWAP1 DUP4 PUSH1 0x1 PUSH1 0x1 PUSH1 0xA0 SHL SUB AND MUL OR SWAP1 SSTORE POP PUSH1 0x80 DUP3 ADD MLOAD DUP2 PUSH1 0x4 ADD SSTORE PUSH1 0xA0 DUP3 ADD MLOAD DUP2 PUSH1 0x5 ADD SSTORE PUSH1 0xC0 DUP3 ADD MLOAD DUP2 PUSH1 0x6 ADD PUSH1 0x0 PUSH2 0x100 EXP DUP2 SLOAD DUP2 PUSH1 0xFF MUL NOT AND SWAP1 DUP4 ISZERO ISZERO MUL OR SWAP1 SSTORE POP SWAP1 POP POP PUSH1 0x9 PUSH1 0x0 DUP5 DUP2 MSTORE PUSH1 0x20 ADD SWAP1 DUP2 MSTORE PUSH1 0x20 ADD PUSH1 0x0 KECCAK256 DUP5 SWAP1 DUP1 PUSH1 0x1 DUP2 SLOAD ADD DUP1 DUP3 SSTORE DUP1 SWAP2 POP POP PUSH1 0x1 SWAP1 SUB SWAP1 PUSH1 0x0 MSTORE PUSH1 0x20 PUSH1 0x0 KECCAK256 ADD PUSH1 0x0 SWAP1 SWAP2 SWAP1 SWAP2 SWAP1 SWAP2 POP SSTORE CALLER PUSH1 0x1 PUSH1 0x1 PUSH1 0xA0 SHL SUB AND DUP4 DUP6 PUSH31 0xFE563478D2112C66117B5A44ADD5A901B10F4B748D444A9308E738C3D3E2CA DUP5 PUSH1 0x40 MLOAD PUSH2 0x1426 SWAP2 DUP2 MSTORE PUSH1 0x20 ADD SWAP1 JUMP JUMPDEST PUSH1 0x0 DUP1 MLOAD PUSH1 0x20 PUSH2 0x5E64 DUP4 CODECOPY DUP2 MLOAD SWAP2 MSTORE PUSH2 0x1D41 DUP2 CALLER PUSH2 0x2B22 JUMP JUMPDEST PUSH2 0x1D5D JUMPI PUSH1 0x40 MLOAD PUSH3 0x461BCD PUSH1 0xE5 SHL DUP2 MSTORE PUSH1 0x4 ADD PUSH2 0xDBB SWAP1 PUSH2 0x59F4 JUMP JUMPDEST PUSH2 0xF26 PUSH1 0x0 DUP1 MLOAD PUSH1 0x20 PUSH2 0x5E44 DUP4 CODECOPY DUP2 MLOAD SWAP2 MSTORE DUP4 PUSH2 0x4F35 JUMP JUMPDEST PUSH1 0x0 PUSH2 0x1D81 DUP2 CALLER PUSH2 0x2B22 JUMP JUMPDEST PUSH2 0x1D9D JUMPI PUSH1 0x40 MLOAD PUSH3 0x461BCD PUSH1 0xE5 SHL DUP2 MSTORE PUSH1 0x4 ADD PUSH2 0xDBB SWAP1 PUSH2 0x59F4 JUMP JUMPDEST PUSH2 0x1DA7 DUP4 DUP4 PUSH2 0x4ECE JUMP JUMPDEST POP POP POP JUMP JUMPDEST PUSH1 0x0 DUP1 MLOAD PUSH1 0x20 PUSH2 0x5E64 DUP4 CODECOPY DUP2 MLOAD SWAP2 MSTORE PUSH2 0x1DC5 DUP2 CALLER PUSH2 0x2B22 JUMP JUMPDEST PUSH2 0x1DE1 JUMPI PUSH1 0x40 MLOAD PUSH3 0x461BCD PUSH1 0xE5 SHL DUP2 MSTORE PUSH1 0x4 ADD PUSH2 0xDBB SWAP1 PUSH2 0x59F4 JUMP JUMPDEST PUSH2 0xF26 PUSH1 0x0 DUP1 MLOAD PUSH1 0x20 PUSH2 0x5DE4 DUP4 CODECOPY DUP2 MLOAD SWAP2 MSTORE DUP4 PUSH2 0x4F35 JUMP JUMPDEST PUSH1 0x7 PUSH1 0x20 MSTORE DUP2 PUSH1 0x0 MSTORE PUSH1 0x40 PUSH1 0x0 KECCAK256 DUP2 DUP2 SLOAD DUP2 LT PUSH2 0x1E15 JUMPI PUSH1 0x0 DUP1 REVERT JUMPDEST SWAP1 PUSH1 0x0 MSTORE PUSH1 0x20 PUSH1 0x0 KECCAK256 ADD PUSH1 0x0 SWAP2 POP SWAP2 POP POP SLOAD DUP2 JUMP JUMPDEST PUSH1 0x0 DUP2 DUP2 MSTORE PUSH1 0x17 PUSH1 0x20 SWAP1 DUP2 MSTORE PUSH1 0x40 SWAP2 DUP3 SWAP1 KECCAK256 DUP1 SLOAD DUP4 MLOAD DUP2 DUP5 MUL DUP2 ADD DUP5 ADD SWAP1 SWAP5 MSTORE DUP1 DUP5 MSTORE PUSH1 0x60 SWAP4 SWAP3 DUP4 ADD DUP3 DUP3 DUP1 ISZERO PUSH2 0x1E80 JUMPI PUSH1 0x20 MUL DUP3 ADD SWAP2 SWAP1 PUSH1 0x0 MSTORE PUSH1 0x20 PUSH1 0x0 KECCAK256 SWAP1 JUMPDEST DUP2 SLOAD DUP2 MSTORE PUSH1 0x20 ADD SWAP1 PUSH1 0x1 ADD SWAP1 DUP1 DUP4 GT PUSH2 0x1E6C JUMPI JUMPDEST POP POP POP POP POP SWAP1 POP SWAP2 SWAP1 POP JUMP JUMPDEST PUSH1 0x0 DUP1 MLOAD PUSH1 0x20 PUSH2 0x5E04 DUP4 CODECOPY DUP2 MLOAD SWAP2 MSTORE PUSH2 0x1EA5 DUP2 CALLER PUSH2 0x2B22 JUMP JUMPDEST PUSH2 0x1EC1 JUMPI PUSH1 0x40 MLOAD PUSH3 0x461BCD PUSH1 0xE5 SHL DUP2 MSTORE PUSH1 0x4 ADD PUSH2 0xDBB SWAP1 PUSH2 0x59F4 JUMP JUMPDEST PUSH1 0x0 DUP4 DUP2 MSTORE PUSH1 0x4 PUSH1 0x20 DUP2 SWAP1 MSTORE PUSH1 0x40 SWAP1 SWAP2 KECCAK256 ADD SLOAD PUSH2 0x100 SWAP1 DIV PUSH1 0xFF AND PUSH2 0x1EF8 JUMPI PUSH1 0x40 MLOAD PUSH3 0x461BCD PUSH1 0xE5 SHL DUP2 MSTORE PUSH1 0x4 ADD PUSH2 0xDBB SWAP1 PUSH2 0x5A47 JUMP JUMPDEST PUSH1 0x64 DUP3 GT ISZERO PUSH2 0x1F19 JUMPI PUSH1 0x40 MLOAD PUSH3 0x461BCD PUSH1 0xE5 SHL DUP2 MSTORE PUSH1 0x4 ADD PUSH2 0xDBB SWAP1 PUSH2 0x5C2D JUMP JUMPDEST PUSH1 0x0 DUP5 DUP2 MSTORE PUSH1 0x8 PUSH1 0x20 SWAP1 DUP2 MSTORE PUSH1 0x40 DUP1 DUP4 KECCAK256 DUP7 DUP5 MSTORE SWAP1 SWAP2 MSTORE DUP2 KECCAK256 SLOAD SWAP1 SUB PUSH2 0x1F51 JUMPI PUSH1 0x40 MLOAD PUSH3 0x461BCD PUSH1 0xE5 SHL DUP2 MSTORE PUSH1 0x4 ADD PUSH2 0xDBB SWAP1 PUSH2 0x5C5B JUMP JUMPDEST PUSH1 0x0 DUP5 DUP2 MSTORE PUSH1 0x8 PUSH1 0x20 SWAP1 DUP2 MSTORE PUSH1 0x40 DUP1 DUP4 KECCAK256 DUP7 DUP5 MSTORE SWAP1 SWAP2 MSTORE SWAP1 KECCAK256 PUSH1 0x6 ADD SLOAD PUSH1 0xFF AND ISZERO PUSH2 0x1FB3 JUMPI PUSH1 0x40 MLOAD PUSH3 0x461BCD PUSH1 0xE5 SHL DUP2 MSTORE PUSH1 0x20 PUSH1 0x4 DUP3 ADD MSTORE PUSH1 0x12 PUSH1 0x24 DUP3 ADD MSTORE PUSH18 0x14D8DBDC99481A5CC8199A5B985B1A5E9959 PUSH1 0x72 SHL PUSH1 0x44 DUP3 ADD MSTORE PUSH1 0x64 ADD PUSH2 0xDBB JUMP JUMPDEST PUSH1 0x0 DUP5 DUP2 MSTORE PUSH1 0x8 PUSH1 0x20 SWAP1 DUP2 MSTORE PUSH1 0x40 DUP1 DUP4 KECCAK256 DUP7 DUP5 MSTORE DUP3 MSTORE SWAP2 DUP3 SWAP1 KECCAK256 PUSH1 0x2 DUP2 ADD DUP1 SLOAD SWAP1 DUP7 SWAP1 SSTORE TIMESTAMP PUSH1 0x5 SWAP1 SWAP3 ADD SWAP2 SWAP1 SWAP2 SSTORE DUP3 MLOAD DUP2 DUP2 MSTORE SWAP2 DUP3 ADD DUP6 SWAP1 MSTORE SWAP2 CALLER SWAP2 DUP7 SWAP2 DUP9 SWAP2 PUSH32 0xAFCA19E7338B80A137BDD94E7B2EC35D7D842CC5C4D91A3576D97135E9DE063D SWAP2 ADD JUMPDEST PUSH1 0x40 MLOAD DUP1 SWAP2 SUB SWAP1 LOG4 POP POP POP POP POP JUMP JUMPDEST PUSH1 0x0 DUP1 MLOAD PUSH1 0x20 PUSH2 0x5E64 DUP4 CODECOPY DUP2 MLOAD SWAP2 MSTORE PUSH2 0x203F DUP2 CALLER PUSH2 0x2B22 JUMP JUMPDEST PUSH2 0x205B JUMPI PUSH1 0x40 MLOAD PUSH3 0x461BCD PUSH1 0xE5 SHL DUP2 MSTORE PUSH1 0x4 ADD PUSH2 0xDBB SWAP1 PUSH2 0x59F4 JUMP JUMPDEST PUSH1 0x0 DUP3 DUP2 MSTORE PUSH1 0x16 PUSH1 0x20 MSTORE PUSH1 0x40 SWAP1 KECCAK256 PUSH1 0x3 ADD SLOAD PUSH2 0x100 SWAP1 DIV PUSH1 0xFF AND PUSH2 0x2091 JUMPI PUSH1 0x40 MLOAD PUSH3 0x461BCD PUSH1 0xE5 SHL DUP2 MSTORE PUSH1 0x4 ADD PUSH2 0xDBB SWAP1 PUSH2 0x5C89 JUMP JUMPDEST PUSH1 0x0 DUP3 DUP2 MSTORE PUSH1 0x16 PUSH1 0x20 MSTORE PUSH1 0x40 SWAP1 KECCAK256 PUSH1 0x3 ADD SLOAD PUSH1 0xFF AND ISZERO PUSH2 0x20EA JUMPI PUSH1 0x40 MLOAD PUSH3 0x461BCD PUSH1 0xE5 SHL DUP2 MSTORE PUSH1 0x20 PUSH1 0x4 DUP3 ADD MSTORE PUSH1 0x14 PUSH1 0x24 DUP3 ADD MSTORE PUSH20 0x15195CDD08185B1C9958591E48189B1BD8DAD959 PUSH1 0x62 SHL PUSH1 0x44 DUP3 ADD MSTORE PUSH1 0x64 ADD PUSH2 0xDBB JUMP JUMPDEST PUSH1 0x0 DUP3 DUP2 MSTORE PUSH1 0x16 PUSH1 0x20 MSTORE PUSH1 0x40 DUP1 DUP3 KECCAK256 PUSH1 0x3 ADD DUP1 SLOAD PUSH1 0xFF NOT AND PUSH1 0x1 OR SWAP1 SSTORE MLOAD CALLER SWAP2 DUP5 SWAP2 PUSH32 0xE63354374974D42E2A4930C5C063D6B47516E4000F1E651731247D2E7053920C SWAP2 SWAP1 LOG3 POP POP JUMP JUMPDEST PUSH1 0x4 PUSH1 0x20 MSTORE PUSH1 0x0 SWAP1 DUP2 MSTORE PUSH1 0x40 SWAP1 KECCAK256 DUP1 SLOAD DUP2 SWAP1 PUSH2 0x214F SWAP1 PUSH2 0x59C0 JUMP JUMPDEST DUP1 PUSH1 0x1F ADD PUSH1 0x20 DUP1 SWAP2 DIV MUL PUSH1 0x20 ADD PUSH1 0x40 MLOAD SWAP1 DUP2 ADD PUSH1 0x40 MSTORE DUP1 SWAP3 SWAP2 SWAP1 DUP2 DUP2 MSTORE PUSH1 0x20 ADD DUP3 DUP1 SLOAD PUSH2 0x217B SWAP1 PUSH2 0x59C0 JUMP JUMPDEST DUP1 ISZERO PUSH2 0x21C8 JUMPI DUP1 PUSH1 0x1F LT PUSH2 0x219D JUMPI PUSH2 0x100 DUP1 DUP4 SLOAD DIV MUL DUP4 MSTORE SWAP2 PUSH1 0x20 ADD SWAP2 PUSH2 0x21C8 JUMP JUMPDEST DUP3 ADD SWAP2 SWAP1 PUSH1 0x0 MSTORE PUSH1 0x20 PUSH1 0x0 KECCAK256 SWAP1 JUMPDEST DUP2 SLOAD DUP2 MSTORE SWAP1 PUSH1 0x1 ADD SWAP1 PUSH1 0x20 ADD DUP1 DUP4 GT PUSH2 0x21AB JUMPI DUP3 SWAP1 SUB PUSH1 0x1F AND DUP3 ADD SWAP2 JUMPDEST POP POP POP POP PUSH1 0x1 DUP4 ADD SLOAD PUSH1 0x2 DUP5 ADD SLOAD PUSH1 0x3 DUP6 ADD SLOAD PUSH1 0x4 SWAP1 SWAP6 ADD SLOAD SWAP4 SWAP5 SWAP2 SWAP4 PUSH1 0x1 PUSH1 0x1 PUSH1 0xA0 SHL SUB SWAP1 SWAP2 AND SWAP3 POP PUSH1 0xFF DUP1 DUP3 AND SWAP2 PUSH2 0x100 SWAP1 DIV AND DUP7 JUMP JUMPDEST PUSH1 0x0 DUP1 MLOAD PUSH1 0x20 PUSH2 0x5DE4 DUP4 CODECOPY DUP2 MLOAD SWAP2 MSTORE PUSH2 0x221A DUP2 CALLER PUSH2 0x2B22 JUMP JUMPDEST PUSH2 0x2236 JUMPI PUSH1 0x40 MLOAD PUSH3 0x461BCD PUSH1 0xE5 SHL DUP2 MSTORE PUSH1 0x4 ADD PUSH2 0xDBB SWAP1 PUSH2 0x59F4 JUMP JUMPDEST CALLER PUSH1 0x0 SWAP1 DUP2 MSTORE PUSH1 0x3 PUSH1 0x20 MSTORE PUSH1 0x40 SWAP1 KECCAK256 SLOAD DUP1 PUSH2 0x2293 JUMPI PUSH1 0x40 MLOAD PUSH3 0x461BCD PUSH1 0xE5 SHL DUP2 MSTORE PUSH1 0x20 PUSH1 0x4 DUP3 ADD DUP2 SWAP1 MSTORE PUSH1 0x24 DUP3 ADD MSTORE PUSH32 0x53747564656E74204944206E6F74206C696E6B656420746F2061646472657373 PUSH1 0x44 DUP3 ADD MSTORE PUSH1 0x64 ADD PUSH2 0xDBB JUMP JUMPDEST PUSH2 0x229E DUP2 DUP6 DUP6 PUSH2 0x10B2 JUMP JUMPDEST POP POP POP POP JUMP JUMPDEST PUSH1 0x0 DUP2 DUP2 MSTORE PUSH1 0x10 PUSH1 0x20 MSTORE PUSH1 0x40 DUP2 KECCAK256 SLOAD PUSH1 0x1 PUSH1 0x1 PUSH1 0xA0 SHL SUB AND DUP1 PUSH2 0x1A6F JUMPI PUSH1 0x40 MLOAD PUSH4 0x277024CD PUSH1 0xE1 SHL DUP2 MSTORE PUSH1 0x4 ADD PUSH1 0x40 MLOAD DUP1 SWAP2 SUB SWAP1 REVERT JUMPDEST PUSH1 0xE PUSH1 0x20 MSTORE PUSH1 0x0 SWAP1 DUP2 MSTORE PUSH1 0x40 SWAP1 KECCAK256 DUP1 SLOAD PUSH1 0x1 DUP3 ADD SLOAD PUSH1 0x2 DUP4 ADD SLOAD PUSH1 0x3 DUP5 ADD SLOAD PUSH1 0x4 DUP6 ADD DUP1 SLOAD SWAP5 SWAP6 SWAP4 SWAP5 SWAP3 SWAP4 SWAP2 SWAP3 PUSH2 0x2310 SWAP1 PUSH2 0x59C0 JUMP JUMPDEST DUP1 PUSH1 0x1F ADD PUSH1 0x20 DUP1 SWAP2 DIV MUL PUSH1 0x20 ADD PUSH1 0x40 MLOAD SWAP1 DUP2 ADD PUSH1 0x40 MSTORE DUP1 SWAP3 SWAP2 SWAP1 DUP2 DUP2 MSTORE PUSH1 0x20 ADD DUP3 DUP1 SLOAD PUSH2 0x233C SWAP1 PUSH2 0x59C0 JUMP JUMPDEST DUP1 ISZERO PUSH2 0x2389 JUMPI DUP1 PUSH1 0x1F LT PUSH2 0x235E JUMPI PUSH2 0x100 DUP1 DUP4 SLOAD DIV MUL DUP4 MSTORE SWAP2 PUSH1 0x20 ADD SWAP2 PUSH2 0x2389 JUMP JUMPDEST DUP3 ADD SWAP2 SWAP1 PUSH1 0x0 MSTORE PUSH1 0x20 PUSH1 0x0 KECCAK256 SWAP1 JUMPDEST DUP2 SLOAD DUP2 MSTORE SWAP1 PUSH1 0x1 ADD SWAP1 PUSH1 0x20 ADD DUP1 DUP4 GT PUSH2 0x236C JUMPI DUP3 SWAP1 SUB PUSH1 0x1F AND DUP3 ADD SWAP2 JUMPDEST POP POP POP POP PUSH1 0x5 DUP4 ADD SLOAD PUSH1 0x6 SWAP1 SWAP4 ADD SLOAD SWAP2 SWAP3 SWAP2 PUSH1 0x1 PUSH1 0x1 PUSH1 0xA0 SHL SUB DUP2 AND SWAP2 POP PUSH1 0x1 PUSH1 0xA0 SHL SWAP1 DIV PUSH1 0xFF AND DUP9 JUMP JUMPDEST PUSH1 0x0 DUP1 MLOAD PUSH1 0x20 PUSH2 0x5E64 DUP4 CODECOPY DUP2 MLOAD SWAP2 MSTORE PUSH2 0x23CD DUP2 CALLER PUSH2 0x2B22 JUMP JUMPDEST PUSH2 0x23E9 JUMPI PUSH1 0x40 MLOAD PUSH3 0x461BCD PUSH1 0xE5 SHL DUP2 MSTORE PUSH1 0x4 ADD PUSH2 0xDBB SWAP1 PUSH2 0x59F4 JUMP JUMPDEST PUSH2 0xF26 PUSH1 0x0 DUP1 MLOAD PUSH1 0x20 PUSH2 0x5E04 DUP4 CODECOPY DUP2 MLOAD SWAP2 MSTORE DUP4 PUSH2 0x4ECE JUMP JUMPDEST PUSH1 0x0 DUP1 MLOAD PUSH1 0x20 PUSH2 0x5E64 DUP4 CODECOPY DUP2 MLOAD SWAP2 MSTORE PUSH2 0x241A DUP2 CALLER PUSH2 0x2B22 JUMP JUMPDEST PUSH2 0x2436 JUMPI PUSH1 0x40 MLOAD PUSH3 0x461BCD PUSH1 0xE5 SHL DUP2 MSTORE PUSH1 0x4 ADD PUSH2 0xDBB SWAP1 PUSH2 0x59F4 JUMP JUMPDEST DUP3 PUSH1 0x0 SUB PUSH2 0x2457 JUMPI PUSH1 0x40 MLOAD PUSH4 0x7CD6387 PUSH1 0xE0 SHL DUP2 MSTORE PUSH1 0x4 ADD PUSH1 0x40 MLOAD DUP1 SWAP2 SUB SWAP1 REVERT JUMPDEST PUSH1 0x1 PUSH1 0x1 PUSH1 0xA0 SHL SUB DUP3 AND PUSH2 0x247E JUMPI PUSH1 0x40 MLOAD PUSH4 0x2AAA5C97 PUSH1 0xE0 SHL DUP2 MSTORE PUSH1 0x4 ADD PUSH1 0x40 MLOAD DUP1 SWAP2 SUB SWAP1 REVERT JUMPDEST PUSH1 0x0 DUP4 DUP2 MSTORE PUSH1 0x2 PUSH1 0x20 MSTORE PUSH1 0x40 SWAP1 KECCAK256 SLOAD PUSH1 0x1 PUSH1 0x1 PUSH1 0xA0 SHL SUB AND PUSH2 0x24B3 JUMPI PUSH1 0x40 MLOAD PUSH4 0x269E51D1 PUSH1 0xE1 SHL DUP2 MSTORE PUSH1 0x4 ADD PUSH1 0x40 MLOAD DUP1 SWAP2 SUB SWAP1 REVERT JUMPDEST PUSH1 0x1 PUSH1 0x1 PUSH1 0xA0 SHL SUB DUP3 AND PUSH1 0x0 SWAP1 DUP2 MSTORE PUSH1 0x3 PUSH1 0x20 MSTORE PUSH1 0x40 SWAP1 KECCAK256 SLOAD ISZERO PUSH2 0x24EA JUMPI PUSH1 0x40 MLOAD PUSH4 0x754D1F4D PUSH1 0xE0 SHL DUP2 MSTORE PUSH1 0x4 ADD PUSH1 0x40 MLOAD DUP1 SWAP2 SUB SWAP1 REVERT JUMPDEST PUSH1 0x0 DUP4 DUP2 MSTORE PUSH1 0x2 PUSH1 0x20 SWAP1 DUP2 MSTORE PUSH1 0x40 DUP1 DUP4 KECCAK256 DUP1 SLOAD PUSH1 0x1 PUSH1 0x1 PUSH1 0xA0 SHL SUB SWAP1 DUP2 AND DUP1 DUP7 MSTORE PUSH1 0x3 SWAP1 SWAP5 MSTORE DUP3 DUP6 KECCAK256 DUP6 SWAP1 SSTORE DUP2 SLOAD PUSH1 0x1 PUSH1 0x1 PUSH1 0xA0 SHL SUB NOT AND SWAP1 DUP8 AND SWAP1 DUP2 OR SWAP1 SWAP2 SSTORE DUP1 DUP5 MSTORE SWAP3 DUP2 SWAP1 KECCAK256 DUP7 SWAP1 SSTORE MLOAD SWAP1 SWAP2 SWAP1 DUP3 SWAP1 DUP7 SWAP1 PUSH32 0x59E33F3654F744A7A32CDA9A919FA879941875BB700D1C776ADE2F64E23B4649 SWAP1 PUSH2 0x1426 SWAP1 CALLER SWAP1 PUSH2 0x56F8 JUMP JUMPDEST PUSH1 0x6 PUSH1 0x20 SWAP1 DUP2 MSTORE PUSH1 0x0 SWAP3 DUP4 MSTORE PUSH1 0x40 DUP1 DUP5 KECCAK256 SWAP1 SWAP2 MSTORE SWAP1 DUP3 MSTORE SWAP1 KECCAK256 DUP1 SLOAD PUSH1 0x1 DUP3 ADD SLOAD PUSH1 0x2 DUP4 ADD DUP1 SLOAD SWAP3 SWAP4 SWAP2 SWAP3 PUSH2 0x259D SWAP1 PUSH2 0x59C0 JUMP JUMPDEST DUP1 PUSH1 0x1F ADD PUSH1 0x20 DUP1 SWAP2 DIV MUL PUSH1 0x20 ADD PUSH1 0x40 MLOAD SWAP1 DUP2 ADD PUSH1 0x40 MSTORE DUP1 SWAP3 SWAP2 SWAP1 DUP2 DUP2 MSTORE PUSH1 0x20 ADD DUP3 DUP1 SLOAD PUSH2 0x25C9 SWAP1 PUSH2 0x59C0 JUMP JUMPDEST DUP1 ISZERO PUSH2 0x2616 JUMPI DUP1 PUSH1 0x1F LT PUSH2 0x25EB JUMPI PUSH2 0x100 DUP1 DUP4 SLOAD DIV MUL DUP4 MSTORE SWAP2 PUSH1 0x20 ADD SWAP2 PUSH2 0x2616 JUMP JUMPDEST DUP3 ADD SWAP2 SWAP1 PUSH1 0x0 MSTORE PUSH1 0x20 PUSH1 0x0 KECCAK256 SWAP1 JUMPDEST DUP2 SLOAD DUP2 MSTORE SWAP1 PUSH1 0x1 ADD SWAP1 PUSH1 0x20 ADD DUP1 DUP4 GT PUSH2 0x25F9 JUMPI DUP3 SWAP1 SUB PUSH1 0x1F AND DUP3 ADD SWAP2 JUMPDEST POP POP POP PUSH1 0x3 DUP5 ADD SLOAD PUSH1 0x4 DUP6 ADD SLOAD PUSH1 0x5 DUP7 ADD SLOAD PUSH1 0x6 DUP8 ADD SLOAD PUSH1 0x7 SWAP1 SWAP8 ADD SLOAD SWAP6 SWAP7 SWAP3 SWAP6 SWAP2 SWAP5 POP PUSH1 0x1 PUSH1 0x1 PUSH1 0xA0 SHL SUB SWAP1 DUP2 AND SWAP4 POP DUP2 AND SWAP1 PUSH1 0xFF PUSH1 0x1 PUSH1 0xA0 SHL DUP3 DIV DUP2 AND SWAP2 PUSH1 0x1 PUSH1 0xA8 SHL SWAP1 DIV AND DUP11 JUMP JUMPDEST PUSH1 0x0 PUSH1 0x1 PUSH1 0x1 PUSH1 0xA0 SHL SUB DUP3 AND PUSH2 0x268A JUMPI PUSH1 0x40 MLOAD PUSH4 0x2AAA5C97 PUSH1 0xE0 SHL DUP2 MSTORE PUSH1 0x4 ADD PUSH1 0x40 MLOAD DUP1 SWAP2 SUB SWAP1 REVERT JUMPDEST POP PUSH1 0x1 PUSH1 0x1 PUSH1 0xA0 SHL SUB AND PUSH1 0x0 SWAP1 DUP2 MSTORE PUSH1 0x11 PUSH1 0x20 MSTORE PUSH1 0x40 SWAP1 KECCAK256 SLOAD SWAP1 JUMP JUMPDEST PUSH1 0x5 PUSH1 0x20 MSTORE DUP2 PUSH1 0x0 MSTORE PUSH1 0x40 PUSH1 0x0 KECCAK256 DUP2 DUP2 SLOAD DUP2 LT PUSH2 0x1E15 JUMPI PUSH1 0x0 DUP1 REVERT JUMPDEST PUSH1 0x0 DUP1 MLOAD PUSH1 0x20 PUSH2 0x5E04 DUP4 CODECOPY DUP2 MLOAD SWAP2 MSTORE PUSH2 0x26DB DUP2 CALLER PUSH2 0x2B22 JUMP JUMPDEST PUSH2 0x26F7 JUMPI PUSH1 0x40 MLOAD PUSH3 0x461BCD PUSH1 0xE5 SHL DUP2 MSTORE PUSH1 0x4 ADD PUSH2 0xDBB SWAP1 PUSH2 0x59F4 JUMP JUMPDEST PUSH1 0x0 DUP4 DUP2 MSTORE PUSH1 0x4 PUSH1 0x20 DUP2 SWAP1 MSTORE PUSH1 0x40 SWAP1 SWAP2 KECCAK256 ADD SLOAD PUSH2 0x100 SWAP1 DIV PUSH1 0xFF AND PUSH2 0x272E JUMPI PUSH1 0x40 MLOAD PUSH3 0x461BCD PUSH1 0xE5 SHL DUP2 MSTORE PUSH1 0x4 ADD PUSH2 0xDBB SWAP1 PUSH2 0x5A47 JUMP JUMPDEST PUSH1 0x64 DUP3 GT ISZERO PUSH2 0x274F JUMPI PUSH1 0x40 MLOAD PUSH3 0x461BCD PUSH1 0xE5 SHL DUP2 MSTORE PUSH1 0x4 ADD PUSH2 0xDBB SWAP1 PUSH2 0x5C2D JUMP JUMPDEST PUSH1 0x0 DUP5 DUP2 MSTORE PUSH1 0x6 PUSH1 0x20 SWAP1 DUP2 MSTORE PUSH1 0x40 DUP1 DUP4 KECCAK256 DUP7 DUP5 MSTORE SWAP1 SWAP2 MSTORE SWAP1 KECCAK256 PUSH1 0x7 ADD SLOAD PUSH1 0x1 PUSH1 0xA0 SHL SWAP1 DIV PUSH1 0xFF AND PUSH2 0x2792 JUMPI PUSH1 0x40 MLOAD PUSH3 0x461BCD PUSH1 0xE5 SHL DUP2 MSTORE PUSH1 0x4 ADD PUSH2 0xDBB SWAP1 PUSH2 0x5BA2 JUMP JUMPDEST PUSH1 0x0 DUP5 DUP2 MSTORE PUSH1 0x6 PUSH1 0x20 DUP2 DUP2 MSTORE PUSH1 0x40 DUP1 DUP5 KECCAK256 DUP8 DUP6 MSTORE SWAP1 SWAP2 MSTORE SWAP1 SWAP2 KECCAK256 PUSH1 0x3 DUP2 ADD DUP1 SLOAD SWAP1 DUP6 SWAP1 SSTORE TIMESTAMP SWAP3 DUP3 ADD SWAP3 SWAP1 SWAP3 SSTORE PUSH1 0x7 ADD DUP1 SLOAD PUSH1 0x1 PUSH1 0xA8 SHL PUSH1 0x1 PUSH2 0xFF01 PUSH1 0xA0 SHL SUB NOT SWAP1 SWAP2 AND CALLER PUSH1 0xFF PUSH1 0xA8 SHL NOT AND OR OR SWAP1 SSTORE DUP3 DUP2 EQ PUSH2 0x2828 JUMPI PUSH1 0x40 DUP1 MLOAD DUP3 DUP2 MSTORE PUSH1 0x20 DUP2 ADD DUP6 SWAP1 MSTORE CALLER SWAP2 DUP7 SWAP2 DUP9 SWAP2 PUSH32 0x1F07FBD62B0D4FD1E1C2D6A7CBDF5D3674DE5B53A9311961DE74E50F53596656 SWAP2 ADD PUSH1 0x40 MLOAD DUP1 SWAP2 SUB SWAP1 LOG4 JUMPDEST PUSH1 0x40 DUP1 MLOAD DUP5 DUP2 MSTORE TIMESTAMP PUSH1 0x20 DUP3 ADD MSTORE CALLER SWAP2 DUP7 SWAP2 DUP9 SWAP2 PUSH32 0xE87C6D24DB2B7EDF48158693D0E3ADD41DCC728823FBF49CBE647B36F68AC53F SWAP2 ADD PUSH2 0x2017 JUMP JUMPDEST PUSH1 0x0 DUP1 MLOAD PUSH1 0x20 PUSH2 0x5E04 DUP4 CODECOPY DUP2 MLOAD SWAP2 MSTORE PUSH2 0x287C DUP2 CALLER PUSH2 0x2B22 JUMP JUMPDEST PUSH2 0x2898 JUMPI PUSH1 0x40 MLOAD PUSH3 0x461BCD PUSH1 0xE5 SHL DUP2 MSTORE PUSH1 0x4 ADD PUSH2 0xDBB SWAP1 PUSH2 0x59F4 JUMP JUMPDEST PUSH1 0x0 DUP4 DUP2 MSTORE PUSH1 0x4 PUSH1 0x20 DUP2 SWAP1 MSTORE PUSH1 0x40 SWAP1 SWAP2 KECCAK256 ADD SLOAD PUSH2 0x100 SWAP1 DIV PUSH1 0xFF AND PUSH2 0x28CF JUMPI PUSH1 0x40 MLOAD PUSH3 0x461BCD PUSH1 0xE5 SHL DUP2 MSTORE PUSH1 0x4 ADD PUSH2 0xDBB SWAP1 PUSH2 0x5A47 JUMP JUMPDEST PUSH1 0x64 DUP3 GT ISZERO PUSH2 0x28F0 JUMPI PUSH1 0x40 MLOAD PUSH3 0x461BCD PUSH1 0xE5 SHL DUP2 MSTORE PUSH1 0x4 ADD PUSH2 0xDBB SWAP1 PUSH2 0x5C2D JUMP JUMPDEST PUSH1 0x0 DUP5 GT PUSH2 0x2910 JUMPI PUSH1 0x40 MLOAD PUSH3 0x461BCD PUSH1 0xE5 SHL DUP2 MSTORE PUSH1 0x4 ADD PUSH2 0xDBB SWAP1 PUSH2 0x5A1B JUMP JUMPDEST PUSH1 0x0 DUP5 DUP2 MSTORE PUSH1 0x8 PUSH1 0x20 SWAP1 DUP2 MSTORE PUSH1 0x40 DUP1 DUP4 KECCAK256 DUP7 DUP5 MSTORE SWAP1 SWAP2 MSTORE SWAP1 KECCAK256 SLOAD ISZERO PUSH2 0x2947 JUMPI PUSH1 0x40 MLOAD PUSH3 0x461BCD PUSH1 0xE5 SHL DUP2 MSTORE PUSH1 0x4 ADD PUSH2 0xDBB SWAP1 PUSH2 0x5BFF JUMP JUMPDEST PUSH1 0x40 DUP1 MLOAD PUSH1 0xE0 DUP2 ADD DUP3 MSTORE DUP6 DUP2 MSTORE PUSH1 0x20 DUP1 DUP3 ADD DUP7 DUP2 MSTORE DUP3 DUP5 ADD DUP7 DUP2 MSTORE CALLER PUSH1 0x60 DUP6 ADD DUP2 DUP2 MSTORE TIMESTAMP PUSH1 0x80 DUP8 ADD DUP2 DUP2 MSTORE PUSH1 0xA0 DUP9 ADD SWAP2 DUP3 MSTORE PUSH1 0x0 PUSH1 0xC0 DUP10 ADD DUP2 DUP2 MSTORE DUP15 DUP3 MSTORE PUSH1 0x8 DUP10 MSTORE DUP11 DUP3 KECCAK256 DUP15 DUP4 MSTORE DUP10 MSTORE DUP11 DUP3 KECCAK256 SWAP10 MLOAD DUP11 SSTORE SWAP7 MLOAD PUSH1 0x1 DUP1 DUP12 ADD SWAP2 SWAP1 SWAP2 SSTORE SWAP6 MLOAD PUSH1 0x2 DUP11 ADD SSTORE SWAP3 MLOAD PUSH1 0x3 DUP10 ADD DUP1 SLOAD PUSH1 0x1 PUSH1 0x1 PUSH1 0xA0 SHL SUB NOT AND PUSH1 0x1 PUSH1 0x1 PUSH1 0xA0 SHL SUB SWAP1 SWAP3 AND SWAP2 SWAP1 SWAP2 OR SWAP1 SSTORE MLOAD PUSH1 0x4 DUP9 ADD SSTORE MLOAD PUSH1 0x5 DUP8 ADD SSTORE SWAP3 MLOAD PUSH1 0x6 SWAP1 SWAP6 ADD DUP1 SLOAD PUSH1 0xFF NOT AND SWAP6 ISZERO ISZERO SWAP6 SWAP1 SWAP6 OR SWAP1 SWAP5 SSTORE PUSH1 0x9 DUP4 MSTORE DUP5 DUP3 KECCAK256 DUP1 SLOAD SWAP2 DUP3 ADD DUP2 SSTORE DUP3 MSTORE SWAP1 DUP3 SWAP1 KECCAK256 ADD DUP8 SWAP1 SSTORE SWAP2 MLOAD DUP5 DUP2 MSTORE SWAP1 SWAP2 DUP6 SWAP2 DUP8 SWAP2 PUSH31 0xFE563478D2112C66117B5A44ADD5A901B10F4B748D444A9308E738C3D3E2CA SWAP2 ADD PUSH2 0x1426 JUMP JUMPDEST PUSH1 0x60 PUSH2 0x2A54 PUSH1 0x0 DUP1 MLOAD PUSH1 0x20 PUSH2 0x5E04 DUP4 CODECOPY DUP2 MLOAD SWAP2 MSTORE DUP4 PUSH2 0x2B22 JUMP JUMPDEST DUP1 PUSH2 0x2A72 JUMPI POP PUSH2 0x2A72 PUSH1 0x0 DUP1 MLOAD PUSH1 0x20 PUSH2 0x5E64 DUP4 CODECOPY DUP2 MLOAD SWAP2 MSTORE DUP4 PUSH2 0x2B22 JUMP JUMPDEST PUSH2 0x2ABA JUMPI PUSH1 0x40 MLOAD PUSH3 0x461BCD PUSH1 0xE5 SHL DUP2 MSTORE PUSH1 0x20 PUSH1 0x4 DUP3 ADD MSTORE PUSH1 0x19 PUSH1 0x24 DUP3 ADD MSTORE PUSH25 0x20B2323932B9B99034B9903737BA1030903632B1BA3AB932B9 PUSH1 0x39 SHL PUSH1 0x44 DUP3 ADD MSTORE PUSH1 0x64 ADD PUSH2 0xDBB JUMP JUMPDEST PUSH1 0x1 PUSH1 0x1 PUSH1 0xA0 SHL SUB DUP3 AND PUSH1 0x0 SWAP1 DUP2 MSTORE PUSH1 0x5 PUSH1 0x20 SWAP1 DUP2 MSTORE PUSH1 0x40 SWAP2 DUP3 SWAP1 KECCAK256 DUP1 SLOAD DUP4 MLOAD DUP2 DUP5 MUL DUP2 ADD DUP5 ADD SWAP1 SWAP5 MSTORE DUP1 DUP5 MSTORE SWAP1 SWAP2 DUP4 ADD DUP3 DUP3 DUP1 ISZERO PUSH2 0x1E80 JUMPI PUSH1 0x20 MUL DUP3 ADD SWAP2 SWAP1 PUSH1 0x0 MSTORE PUSH1 0x20 PUSH1 0x0 KECCAK256 SWAP1 DUP2 SLOAD DUP2 MSTORE PUSH1 0x20 ADD SWAP1 PUSH1 0x1 ADD SWAP1 DUP1 DUP4 GT PUSH2 0x1E6C JUMPI POP POP POP POP POP SWAP1 POP SWAP2 SWAP1 POP JUMP JUMPDEST PUSH1 0x0 SWAP2 DUP3 MSTORE PUSH1 0x20 DUP3 DUP2 MSTORE PUSH1 0x40 DUP1 DUP5 KECCAK256 PUSH1 0x1 PUSH1 0x1 PUSH1 0xA0 SHL SUB SWAP4 SWAP1 SWAP4 AND DUP5 MSTORE SWAP2 SWAP1 MSTORE SWAP1 KECCAK256 SLOAD PUSH1 0xFF AND SWAP1 JUMP JUMPDEST PUSH1 0x60 PUSH1 0xC DUP1 SLOAD PUSH2 0xE56 SWAP1 PUSH2 0x59C0 JUMP JUMPDEST PUSH1 0x0 DUP1 MLOAD PUSH1 0x20 PUSH2 0x5DE4 DUP4 CODECOPY DUP2 MLOAD SWAP2 MSTORE PUSH2 0x2B73 DUP2 CALLER PUSH2 0x2B22 JUMP JUMPDEST PUSH2 0x2B8F JUMPI PUSH1 0x40 MLOAD PUSH3 0x461BCD PUSH1 0xE5 SHL DUP2 MSTORE PUSH1 0x4 ADD PUSH2 0xDBB SWAP1 PUSH2 0x59F4 JUMP JUMPDEST CALLER PUSH1 0x0 SWAP1 DUP2 MSTORE PUSH1 0x3 PUSH1 0x20 MSTORE PUSH1 0x40 SWAP1 KECCAK256 SLOAD DUP1 PUSH2 0x2BE4 JUMPI PUSH1 0x40 MLOAD PUSH3 0x461BCD PUSH1 0xE5 SHL DUP2 MSTORE PUSH1 0x20 PUSH1 0x4 DUP3 ADD MSTORE PUSH1 0x15 PUSH1 0x24 DUP3 ADD MSTORE PUSH21 0x14DD1D59195B9D081251081B9BDD081B1A5B9AD959 PUSH1 0x5A SHL PUSH1 0x44 DUP3 ADD MSTORE PUSH1 0x64 ADD PUSH2 0xDBB JUMP JUMPDEST PUSH2 0x229E DUP2 DUP6 DUP6 PUSH2 0x3B60 JUMP JUMPDEST PUSH2 0x2BF7 PUSH2 0x508D JUMP JUMPDEST PUSH1 0x0 DUP1 MLOAD PUSH1 0x20 PUSH2 0x5DE4 DUP4 CODECOPY DUP2 MLOAD SWAP2 MSTORE PUSH2 0x2C10 DUP2 CALLER PUSH2 0x2B22 JUMP JUMPDEST PUSH2 0x2C2C JUMPI PUSH1 0x40 MLOAD PUSH3 0x461BCD PUSH1 0xE5 SHL DUP2 MSTORE PUSH1 0x4 ADD PUSH2 0xDBB SWAP1 PUSH2 0x59F4 JUMP JUMPDEST PUSH1 0x0 DUP5 DUP2 MSTORE PUSH1 0x2 PUSH1 0x20 MSTORE PUSH1 0x40 SWAP1 KECCAK256 SLOAD PUSH1 0x1 PUSH1 0x1 PUSH1 0xA0 SHL SUB AND CALLER EQ PUSH2 0x2C63 JUMPI PUSH1 0x40 MLOAD PUSH4 0xBF441C95 PUSH1 0xE0 SHL DUP2 MSTORE PUSH1 0x4 ADD PUSH1 0x40 MLOAD DUP1 SWAP2 SUB SWAP1 REVERT JUMPDEST PUSH1 0x0 DUP5 DUP2 MSTORE PUSH1 0xF PUSH1 0x20 SWAP1 DUP2 MSTORE PUSH1 0x40 DUP1 DUP4 KECCAK256 DUP7 DUP5 MSTORE SWAP1 SWAP2 MSTORE DUP2 KECCAK256 SLOAD SWAP1 DUP2 SWAP1 SUB PUSH2 0x2C9E JUMPI PUSH1 0x40 MLOAD PUSH4 0x277024CD PUSH1 0xE1 SHL DUP2 MSTORE PUSH1 0x4 ADD PUSH1 0x40 MLOAD DUP1 SWAP2 SUB SWAP1 REVERT JUMPDEST PUSH1 0xE PUSH1 0x0 DUP3 DUP2 MSTORE PUSH1 0x20 ADD SWAP1 DUP2 MSTORE PUSH1 0x20 ADD PUSH1 0x0 KECCAK256 PUSH1 0x40 MLOAD DUP1 PUSH2 0x100 ADD PUSH1 0x40 MSTORE SWAP1 DUP2 PUSH1 0x0 DUP3 ADD SLOAD DUP2 MSTORE PUSH1 0x20 ADD PUSH1 0x1 DUP3 ADD SLOAD DUP2 MSTORE PUSH1 0x20 ADD PUSH1 0x2 DUP3 ADD SLOAD DUP2 MSTORE PUSH1 0x20 ADD PUSH1 0x3 DUP3 ADD SLOAD DUP2 MSTORE PUSH1 0x20 ADD PUSH1 0x4 DUP3 ADD DUP1 SLOAD PUSH2 0x2CF5 SWAP1 PUSH2 0x59C0 JUMP JUMPDEST DUP1 PUSH1 0x1F ADD PUSH1 0x20 DUP1 SWAP2 DIV MUL PUSH1 0x20 ADD PUSH1 0x40 MLOAD SWAP1 DUP2 ADD PUSH1 0x40 MSTORE DUP1 SWAP3 SWAP2 SWAP1 DUP2 DUP2 MSTORE PUSH1 0x20 ADD DUP3 DUP1 SLOAD PUSH2 0x2D21 SWAP1 PUSH2 0x59C0 JUMP JUMPDEST DUP1 ISZERO PUSH2 0x2D6E JUMPI DUP1 PUSH1 0x1F LT PUSH2 0x2D43 JUMPI PUSH2 0x100 DUP1 DUP4 SLOAD DIV MUL DUP4 MSTORE SWAP2 PUSH1 0x20 ADD SWAP2 PUSH2 0x2D6E JUMP JUMPDEST DUP3 ADD SWAP2 SWAP1 PUSH1 0x0 MSTORE PUSH1 0x20 PUSH1 0x0 KECCAK256 SWAP1 JUMPDEST DUP2 SLOAD DUP2 MSTORE SWAP1 PUSH1 0x1 ADD SWAP1 PUSH1 0x20 ADD DUP1 DUP4 GT PUSH2 0x2D51 JUMPI DUP3 SWAP1 SUB PUSH1 0x1F AND DUP3 ADD SWAP2 JUMPDEST POP POP POP SWAP2 DUP4 MSTORE POP POP PUSH1 0x5 DUP3 ADD SLOAD PUSH1 0x20 DUP3 ADD MSTORE PUSH1 0x6 SWAP1 SWAP2 ADD SLOAD PUSH1 0x1 PUSH1 0x1 PUSH1 0xA0 SHL SUB DUP2 AND PUSH1 0x40 DUP4 ADD MSTORE PUSH1 0x1 PUSH1 0xA0 SHL SWAP1 DIV PUSH1 0xFF AND ISZERO ISZERO PUSH1 0x60 SWAP1 SWAP2 ADD MSTORE SWAP6 SWAP5 POP POP POP POP POP JUMP JUMPDEST PUSH1 0x60 PUSH2 0x2DCA PUSH1 0x0 DUP1 MLOAD PUSH1 0x20 PUSH2 0x5E64 DUP4 CODECOPY DUP2 MLOAD SWAP2 MSTORE CALLER PUSH2 0x2B22 JUMP JUMPDEST DUP1 PUSH2 0x2DE8 JUMPI POP PUSH2 0x2DE8 PUSH1 0x0 DUP1 MLOAD PUSH1 0x20 PUSH2 0x5E04 DUP4 CODECOPY DUP2 MLOAD SWAP2 MSTORE CALLER PUSH2 0x2B22 JUMP JUMPDEST PUSH2 0x2E04 JUMPI PUSH1 0x40 MLOAD PUSH3 0x461BCD PUSH1 0xE5 SHL DUP2 MSTORE PUSH1 0x4 ADD PUSH2 0xDBB SWAP1 PUSH2 0x59F4 JUMP JUMPDEST PUSH1 0x0 DUP3 DUP2 MSTORE PUSH1 0x9 PUSH1 0x20 SWAP1 DUP2 MSTORE PUSH1 0x40 SWAP2 DUP3 SWAP1 KECCAK256 DUP1 SLOAD DUP4 MLOAD DUP2 DUP5 MUL DUP2 ADD DUP5 ADD SWAP1 SWAP5 MSTORE DUP1 DUP5 MSTORE SWAP1 SWAP2 DUP4 ADD DUP3 DUP3 DUP1 ISZERO PUSH2 0x1E80 JUMPI PUSH1 0x20 MUL DUP3 ADD SWAP2 SWAP1 PUSH1 0x0 MSTORE PUSH1 0x20 PUSH1 0x0 KECCAK256 SWAP1 DUP2 SLOAD DUP2 MSTORE PUSH1 0x20 ADD SWAP1 PUSH1 0x1 ADD SWAP1 DUP1 DUP4 GT PUSH2 0x1E6C JUMPI POP POP POP POP POP SWAP1 POP SWAP2 SWAP1 POP JUMP JUMPDEST PUSH1 0x60 PUSH1 0x0 DUP1 PUSH1 0x0 DUP1 PUSH1 0x0 DUP1 MLOAD PUSH1 0x20 PUSH2 0x5E64 DUP4 CODECOPY DUP2 MLOAD SWAP2 MSTORE PUSH2 0x2E83 DUP2 CALLER PUSH2 0x2B22 JUMP JUMPDEST PUSH2 0x2E9F JUMPI PUSH1 0x40 MLOAD PUSH3 0x461BCD PUSH1 0xE5 SHL DUP2 MSTORE PUSH1 0x4 ADD PUSH2 0xDBB SWAP1 PUSH2 0x59F4 JUMP JUMPDEST PUSH1 0x0 DUP8 GT PUSH2 0x2EE1 JUMPI PUSH1 0x40 MLOAD PUSH3 0x461BCD PUSH1 0xE5 SHL DUP2 MSTORE PUSH1 0x20 PUSH1 0x4 DUP3 ADD MSTORE PUSH1 0xF PUSH1 0x24 DUP3 ADD MSTORE PUSH15 0x125B9D985B1A5908195E185B481251 PUSH1 0x8A SHL PUSH1 0x44 DUP3 ADD MSTORE PUSH1 0x64 ADD PUSH2 0xDBB JUMP JUMPDEST PUSH1 0x0 DUP9 MLOAD GT PUSH2 0x2F29 JUMPI PUSH1 0x40 MLOAD PUSH3 0x461BCD PUSH1 0xE5 SHL DUP2 MSTORE PUSH1 0x20 PUSH1 0x4 DUP3 ADD MSTORE PUSH1 0x14 PUSH1 0x24 DUP3 ADD MSTORE PUSH20 0x486173682063616E6E6F7420626520656D707479 PUSH1 0x60 SHL PUSH1 0x44 DUP3 ADD MSTORE PUSH1 0x64 ADD PUSH2 0xDBB JUMP JUMPDEST PUSH1 0x0 DUP8 DUP2 MSTORE PUSH1 0x4 PUSH1 0x20 DUP2 SWAP1 MSTORE PUSH1 0x40 SWAP1 SWAP2 KECCAK256 ADD SLOAD PUSH2 0x100 SWAP1 DIV PUSH1 0xFF AND ISZERO PUSH2 0x2F87 JUMPI PUSH1 0x40 MLOAD PUSH3 0x461BCD PUSH1 0xE5 SHL DUP2 MSTORE PUSH1 0x20 PUSH1 0x4 DUP3 ADD MSTORE PUSH1 0x13 PUSH1 0x24 DUP3 ADD MSTORE PUSH19 0x4578616D20616C726561647920657869737473 PUSH1 0x68 SHL PUSH1 0x44 DUP3 ADD MSTORE PUSH1 0x64 ADD PUSH2 0xDBB JUMP JUMPDEST PUSH1 0x40 DUP1 MLOAD PUSH1 0xC0 DUP2 ADD DUP3 MSTORE DUP10 DUP2 MSTORE PUSH1 0x20 DUP1 DUP3 ADD DUP11 SWAP1 MSTORE CALLER DUP3 DUP5 ADD MSTORE TIMESTAMP PUSH1 0x60 DUP4 ADD MSTORE PUSH1 0x0 PUSH1 0x80 DUP4 ADD DUP2 SWAP1 MSTORE PUSH1 0x1 PUSH1 0xA0 DUP5 ADD MSTORE DUP11 DUP2 MSTORE PUSH1 0x4 SWAP1 SWAP2 MSTORE SWAP2 SWAP1 SWAP2 KECCAK256 DUP2 MLOAD DUP2 SWAP1 PUSH2 0x2FD1 SWAP1 DUP3 PUSH2 0x5AC2 JUMP JUMPDEST POP PUSH1 0x20 DUP3 DUP2 ADD MLOAD PUSH1 0x1 DUP1 DUP5 ADD SWAP2 SWAP1 SWAP2 SSTORE PUSH1 0x40 DUP1 DUP6 ADD MLOAD PUSH1 0x2 DUP6 ADD DUP1 SLOAD PUSH1 0x1 PUSH1 0x1 PUSH1 0xA0 SHL SUB SWAP1 SWAP3 AND PUSH1 0x1 PUSH1 0x1 PUSH1 0xA0 SHL SUB NOT SWAP1 SWAP3 AND SWAP2 SWAP1 SWAP2 OR SWAP1 SSTORE PUSH1 0x60 DUP6 ADD MLOAD PUSH1 0x3 DUP6 ADD SSTORE PUSH1 0x80 DUP6 ADD MLOAD PUSH1 0x4 SWAP1 SWAP5 ADD DUP1 SLOAD PUSH1 0xA0 SWAP1 SWAP7 ADD MLOAD ISZERO ISZERO PUSH2 0x100 MUL PUSH2 0xFF00 NOT SWAP6 ISZERO ISZERO SWAP6 SWAP1 SWAP6 AND PUSH2 0xFFFF NOT SWAP1 SWAP7 AND SWAP6 SWAP1 SWAP6 OR SWAP4 SWAP1 SWAP4 OR SWAP1 SWAP4 SSTORE CALLER PUSH1 0x0 SWAP1 DUP2 MSTORE PUSH1 0x5 DUP3 MSTORE SWAP2 DUP3 KECCAK256 DUP1 SLOAD DUP1 DUP6 ADD DUP3 SSTORE SWAP1 DUP4 MSTORE SWAP2 KECCAK256 ADD DUP9 SWAP1 SSTORE PUSH2 0x3070 SWAP1 NUMBER PUSH2 0x5CCC JUMP JUMPDEST BLOCKHASH CALLER PUSH1 0x1 PUSH1 0x1 PUSH1 0xA0 SHL SUB AND DUP9 PUSH32 0x8B168DDE777687BEDA31F8AD281FA67EBD897C29DF397F83889B3A08B9B53A7E DUP12 TIMESTAMP NUMBER PUSH1 0x40 MLOAD PUSH2 0x30AF SWAP4 SWAP3 SWAP2 SWAP1 PUSH2 0x5CDF JUMP JUMPDEST PUSH1 0x40 MLOAD DUP1 SWAP2 SUB SWAP1 LOG4 POP SWAP6 SWAP7 SWAP5 SWAP6 POP CALLER SWAP5 TIMESTAMP SWAP5 POP PUSH1 0x1 SWAP4 POP SWAP2 POP POP JUMP JUMPDEST PUSH1 0x9 PUSH1 0x20 MSTORE DUP2 PUSH1 0x0 MSTORE PUSH1 0x40 PUSH1 0x0 KECCAK256 DUP2 DUP2 SLOAD DUP2 LT PUSH2 0x1E15 JUMPI PUSH1 0x0 DUP1 REVERT JUMPDEST PUSH1 0x0 DUP1 MLOAD PUSH1 0x20 PUSH2 0x5E04 DUP4 CODECOPY DUP2 MLOAD SWAP2 MSTORE PUSH2 0x3100 DUP2 CALLER PUSH2 0x2B22 JUMP JUMPDEST PUSH2 0x311C JUMPI PUSH1 0x40 MLOAD PUSH3 0x461BCD PUSH1 0xE5 SHL DUP2 MSTORE PUSH1 0x4 ADD PUSH2 0xDBB SWAP1 PUSH2 0x59F4 JUMP JUMPDEST PUSH1 0x0 DUP4 DUP2 MSTORE PUSH1 0x4 PUSH1 0x20 DUP2 SWAP1 MSTORE PUSH1 0x40 SWAP1 SWAP2 KECCAK256 ADD SLOAD PUSH2 0x100 SWAP1 DIV PUSH1 0xFF AND PUSH2 0x3153 JUMPI PUSH1 0x40 MLOAD PUSH3 0x461BCD PUSH1 0xE5 SHL DUP2 MSTORE PUSH1 0x4 ADD PUSH2 0xDBB SWAP1 PUSH2 0x5A47 JUMP JUMPDEST PUSH1 0x64 DUP3 GT ISZERO PUSH2 0x3174 JUMPI PUSH1 0x40 MLOAD PUSH3 0x461BCD PUSH1 0xE5 SHL DUP2 MSTORE PUSH1 0x4 ADD PUSH2 0xDBB SWAP1 PUSH2 0x5C2D JUMP JUMPDEST PUSH1 0x0 DUP5 DUP2 MSTORE PUSH1 0x6 PUSH1 0x20 SWAP1 DUP2 MSTORE PUSH1 0x40 DUP1 DUP4 KECCAK256 DUP7 DUP5 MSTORE SWAP1 SWAP2 MSTORE SWAP1 KECCAK256 PUSH1 0x7 ADD SLOAD PUSH1 0x1 PUSH1 0xA0 SHL SWAP1 DIV PUSH1 0xFF AND PUSH2 0x31B7 JUMPI PUSH1 0x40 MLOAD PUSH3 0x461BCD PUSH1 0xE5 SHL DUP2 MSTORE PUSH1 0x4 ADD PUSH2 0xDBB SWAP1 PUSH2 0x5BA2 JUMP JUMPDEST PUSH1 0x0 DUP5 DUP2 MSTORE PUSH1 0x6 PUSH1 0x20 SWAP1 DUP2 MSTORE PUSH1 0x40 DUP1 DUP4 KECCAK256 DUP7 DUP5 MSTORE SWAP1 SWAP2 MSTORE SWAP1 KECCAK256 PUSH1 0x7 ADD SLOAD PUSH1 0x1 PUSH1 0xA8 SHL SWAP1 DIV PUSH1 0xFF AND PUSH2 0x31FA JUMPI PUSH1 0x40 MLOAD PUSH3 0x461BCD PUSH1 0xE5 SHL DUP2 MSTORE PUSH1 0x4 ADD PUSH2 0xDBB SWAP1 PUSH2 0x5BD0 JUMP JUMPDEST PUSH1 0x0 DUP5 DUP2 MSTORE PUSH1 0x6 PUSH1 0x20 SWAP1 DUP2 MSTORE PUSH1 0x40 DUP1 DUP4 KECCAK256 DUP7 DUP5 MSTORE SWAP1 SWAP2 MSTORE SWAP1 KECCAK256 PUSH1 0x3 ADD SLOAD DUP3 DUP2 SUB PUSH2 0x3258 JUMPI PUSH1 0x40 MLOAD PUSH3 0x461BCD PUSH1 0xE5 SHL DUP2 MSTORE PUSH1 0x20 PUSH1 0x4 DUP3 ADD MSTORE PUSH1 0xF PUSH1 0x24 DUP3 ADD MSTORE PUSH15 0x14D8DBDC99481D5B98DA185B99D959 PUSH1 0x8A SHL PUSH1 0x44 DUP3 ADD MSTORE PUSH1 0x64 ADD PUSH2 0xDBB JUMP JUMPDEST PUSH1 0x0 DUP6 DUP2 MSTORE PUSH1 0x6 PUSH1 0x20 DUP2 DUP2 MSTORE PUSH1 0x40 DUP1 DUP5 KECCAK256 DUP9 DUP6 MSTORE DUP3 MSTORE SWAP3 DUP4 SWAP1 KECCAK256 PUSH1 0x3 DUP2 ADD DUP8 SWAP1 SSTORE TIMESTAMP SWAP3 DUP2 ADD SWAP3 SWAP1 SWAP3 SSTORE PUSH1 0x7 SWAP1 SWAP2 ADD DUP1 SLOAD PUSH1 0x1 PUSH1 0x1 PUSH1 0xA0 SHL SUB NOT AND CALLER SWAP1 DUP2 OR SWAP1 SWAP2 SSTORE DUP3 MLOAD DUP5 DUP2 MSTORE SWAP2 DUP3 ADD DUP7 SWAP1 MSTORE SWAP2 DUP7 SWAP2 DUP9 SWAP2 PUSH32 0x1F07FBD62B0D4FD1E1C2D6A7CBDF5D3674DE5B53A9311961DE74E50F53596656 SWAP2 ADD PUSH2 0x2017 JUMP JUMPDEST PUSH2 0x32D9 PUSH2 0x513B JUMP JUMPDEST PUSH1 0x0 DUP1 MLOAD PUSH1 0x20 PUSH2 0x5DE4 DUP4 CODECOPY DUP2 MLOAD SWAP2 MSTORE PUSH2 0x32F2 DUP2 CALLER PUSH2 0x2B22 JUMP JUMPDEST PUSH2 0x330E JUMPI PUSH1 0x40 MLOAD PUSH3 0x461BCD PUSH1 0xE5 SHL DUP2 MSTORE PUSH1 0x4 ADD PUSH2 0xDBB SWAP1 PUSH2 0x59F4 JUMP JUMPDEST CALLER PUSH1 0x0 SWAP1 DUP2 MSTORE PUSH1 0x3 PUSH1 0x20 MSTORE PUSH1 0x40 SWAP1 KECCAK256 SLOAD DUP1 PUSH2 0x333B JUMPI PUSH1 0x40 MLOAD PUSH3 0x461BCD PUSH1 0xE5 SHL DUP2 MSTORE PUSH1 0x4 ADD PUSH2 0xDBB SWAP1 PUSH2 0x5D04 JUMP JUMPDEST PUSH1 0x0 DUP2 DUP2 MSTORE PUSH1 0x6 PUSH1 0x20 SWAP1 DUP2 MSTORE PUSH1 0x40 DUP1 DUP4 KECCAK256 DUP8 DUP5 MSTORE SWAP1 SWAP2 MSTORE SWAP1 KECCAK256 PUSH1 0x7 ADD SLOAD PUSH1 0x1 PUSH1 0xA0 SHL SWAP1 DIV PUSH1 0xFF AND PUSH2 0x337E JUMPI PUSH1 0x40 MLOAD PUSH3 0x461BCD PUSH1 0xE5 SHL DUP2 MSTORE PUSH1 0x4 ADD PUSH2 0xDBB SWAP1 PUSH2 0x5D32 JUMP JUMPDEST PUSH1 0x6 PUSH1 0x0 DUP3 DUP2 MSTORE PUSH1 0x20 ADD SWAP1 DUP2 MSTORE PUSH1 0x20 ADD PUSH1 0x0 KECCAK256 PUSH1 0x0 DUP6 DUP2 MSTORE PUSH1 0x20 ADD SWAP1 DUP2 MSTORE PUSH1 0x20 ADD PUSH1 0x0 KECCAK256 PUSH1 0x40 MLOAD DUP1 PUSH2 0x140 ADD PUSH1 0x40 MSTORE SWAP1 DUP2 PUSH1 0x0 DUP3 ADD SLOAD DUP2 MSTORE PUSH1 0x20 ADD PUSH1 0x1 DUP3 ADD SLOAD DUP2 MSTORE PUSH1 0x20 ADD PUSH1 0x2 DUP3 ADD DUP1 SLOAD PUSH2 0x33D2 SWAP1 PUSH2 0x59C0 JUMP JUMPDEST DUP1 PUSH1 0x1F ADD PUSH1 0x20 DUP1 SWAP2 DIV MUL PUSH1 0x20 ADD PUSH1 0x40 MLOAD SWAP1 DUP2 ADD PUSH1 0x40 MSTORE DUP1 SWAP3 SWAP2 SWAP1 DUP2 DUP2 MSTORE PUSH1 0x20 ADD DUP3 DUP1 SLOAD PUSH2 0x33FE SWAP1 PUSH2 0x59C0 JUMP JUMPDEST DUP1 ISZERO PUSH2 0x344B JUMPI DUP1 PUSH1 0x1F LT PUSH2 0x3420 JUMPI PUSH2 0x100 DUP1 DUP4 SLOAD DIV MUL DUP4 MSTORE SWAP2 PUSH1 0x20 ADD SWAP2 PUSH2 0x344B JUMP JUMPDEST DUP3 ADD SWAP2 SWAP1 PUSH1 0x0 MSTORE PUSH1 0x20 PUSH1 0x0 KECCAK256 SWAP1 JUMPDEST DUP2 SLOAD DUP2 MSTORE SWAP1 PUSH1 0x1 ADD SWAP1 PUSH1 0x20 ADD DUP1 DUP4 GT PUSH2 0x342E JUMPI DUP3 SWAP1 SUB PUSH1 0x1F AND DUP3 ADD SWAP2 JUMPDEST POP POP POP SWAP2 DUP4 MSTORE POP POP PUSH1 0x3 DUP3 ADD SLOAD PUSH1 0x20 DUP3 ADD MSTORE PUSH1 0x4 DUP3 ADD SLOAD PUSH1 0x40 DUP3 ADD MSTORE PUSH1 0x5 DUP3 ADD SLOAD PUSH1 0x1 PUSH1 0x1 PUSH1 0xA0 SHL SUB SWAP1 DUP2 AND PUSH1 0x60 DUP4 ADD MSTORE PUSH1 0x6 DUP4 ADD SLOAD PUSH1 0x80 DUP4 ADD MSTORE PUSH1 0x7 SWAP1 SWAP3 ADD SLOAD SWAP2 DUP3 AND PUSH1 0xA0 DUP3 ADD MSTORE PUSH1 0xFF PUSH1 0x1 PUSH1 0xA0 SHL DUP4 DIV DUP2 AND ISZERO ISZERO PUSH1 0xC0 DUP4 ADD MSTORE PUSH1 0x1 PUSH1 0xA8 SHL SWAP1 SWAP3 DIV SWAP1 SWAP2 AND ISZERO ISZERO PUSH1 0xE0 SWAP1 SWAP2 ADD MSTORE SWAP3 POP POP POP SWAP2 SWAP1 POP JUMP JUMPDEST PUSH1 0x0 PUSH1 0x0 DUP1 MLOAD PUSH1 0x20 PUSH2 0x5E04 DUP4 CODECOPY DUP2 MLOAD SWAP2 MSTORE PUSH2 0x34DD DUP2 CALLER PUSH2 0x2B22 JUMP JUMPDEST PUSH2 0x34F9 JUMPI PUSH1 0x40 MLOAD PUSH3 0x461BCD PUSH1 0xE5 SHL DUP2 MSTORE PUSH1 0x4 ADD PUSH2 0xDBB SWAP1 PUSH2 0x59F4 JUMP JUMPDEST PUSH1 0x0 DUP5 DUP2 MSTORE PUSH1 0x4 PUSH1 0x20 DUP2 SWAP1 MSTORE PUSH1 0x40 SWAP1 SWAP2 KECCAK256 ADD SLOAD PUSH2 0x100 SWAP1 DIV PUSH1 0xFF AND PUSH2 0x3531 JUMPI PUSH1 0x40 MLOAD PUSH4 0x306E0003 PUSH1 0xE0 SHL DUP2 MSTORE PUSH1 0x4 ADD PUSH1 0x40 MLOAD DUP1 SWAP2 SUB SWAP1 REVERT JUMPDEST PUSH1 0x0 DUP6 DUP2 MSTORE PUSH1 0x8 PUSH1 0x20 SWAP1 DUP2 MSTORE PUSH1 0x40 DUP1 DUP4 KECCAK256 DUP8 DUP5 MSTORE SWAP1 SWAP2 MSTORE SWAP1 KECCAK256 PUSH1 0x6 ADD SLOAD PUSH1 0xFF AND PUSH2 0x356E JUMPI PUSH1 0x40 MLOAD PUSH4 0x95D3EFEF PUSH1 0xE0 SHL DUP2 MSTORE PUSH1 0x4 ADD PUSH1 0x40 MLOAD DUP1 SWAP2 SUB SWAP1 REVERT JUMPDEST PUSH1 0x0 DUP6 DUP2 MSTORE PUSH1 0xF PUSH1 0x20 SWAP1 DUP2 MSTORE PUSH1 0x40 DUP1 DUP4 KECCAK256 DUP8 DUP5 MSTORE SWAP1 SWAP2 MSTORE SWAP1 KECCAK256 SLOAD ISZERO PUSH2 0x35A6 JUMPI PUSH1 0x40 MLOAD PUSH4 0x1BE3A3BB PUSH1 0xE1 SHL DUP2 MSTORE PUSH1 0x4 ADD PUSH1 0x40 MLOAD DUP1 SWAP2 SUB SWAP1 REVERT JUMPDEST PUSH1 0x0 DUP6 DUP2 MSTORE PUSH1 0x2 PUSH1 0x20 MSTORE PUSH1 0x40 SWAP1 KECCAK256 SLOAD PUSH1 0x1 PUSH1 0x1 PUSH1 0xA0 SHL SUB AND PUSH2 0x35DB JUMPI PUSH1 0x40 MLOAD PUSH4 0x269E51D1 PUSH1 0xE1 SHL DUP2 MSTORE PUSH1 0x4 ADD PUSH1 0x40 MLOAD DUP1 SWAP2 SUB SWAP1 REVERT JUMPDEST DUP3 MLOAD PUSH1 0x0 SUB PUSH2 0x35FD JUMPI PUSH1 0x40 MLOAD PUSH4 0x32C6937F PUSH1 0xE2 SHL DUP2 MSTORE PUSH1 0x4 ADD PUSH1 0x40 MLOAD DUP1 SWAP2 SUB SWAP1 REVERT JUMPDEST PUSH1 0xD DUP1 SLOAD SWAP1 PUSH1 0x0 PUSH2 0x360D DUP4 PUSH2 0x5D5C JUMP JUMPDEST SWAP1 SWAP2 SSTORE POP POP PUSH1 0xD SLOAD PUSH1 0x0 DUP7 DUP2 MSTORE PUSH1 0x2 PUSH1 0x20 MSTORE PUSH1 0x40 SWAP1 KECCAK256 SLOAD PUSH1 0x1 PUSH1 0x1 PUSH1 0xA0 SHL SUB AND PUSH2 0x3637 DUP2 DUP4 PUSH2 0x4F9A JUMP JUMPDEST PUSH1 0x40 DUP1 MLOAD PUSH2 0x100 DUP2 ADD DUP3 MSTORE DUP4 DUP2 MSTORE PUSH1 0x20 DUP1 DUP3 ADD DUP11 DUP2 MSTORE DUP3 DUP5 ADD DUP11 DUP2 MSTORE PUSH1 0x0 DUP13 DUP2 MSTORE PUSH1 0x8 DUP5 MSTORE DUP6 DUP2 KECCAK256 DUP13 DUP3 MSTORE DUP5 MSTORE DUP6 DUP2 KECCAK256 PUSH1 0x2 SWAP1 DUP2 ADD SLOAD PUSH1 0x60 DUP8 ADD SWAP1 DUP2 MSTORE PUSH1 0x80 DUP8 ADD DUP14 DUP2 MSTORE TIMESTAMP PUSH1 0xA0 DUP10 ADD MSTORE CALLER PUSH1 0xC0 DUP10 ADD MSTORE PUSH1 0x1 PUSH1 0xE0 DUP10 ADD DUP2 SWAP1 MSTORE DUP12 DUP6 MSTORE PUSH1 0xE SWAP1 SWAP8 MSTORE SWAP8 SWAP1 SWAP3 KECCAK256 DUP7 MLOAD DUP2 SSTORE SWAP4 MLOAD SWAP5 DUP5 ADD SWAP5 SWAP1 SWAP5 SSTORE SWAP1 MLOAD SWAP3 DUP3 ADD SWAP3 SWAP1 SWAP3 SSTORE SWAP1 MLOAD PUSH1 0x3 DUP3 ADD SSTORE SWAP2 MLOAD SWAP1 SWAP2 SWAP1 PUSH1 0x4 DUP3 ADD SWAP1 PUSH2 0x36CD SWAP1 DUP3 PUSH2 0x5AC2 JUMP JUMPDEST POP PUSH1 0xA0 DUP3 ADD MLOAD PUSH1 0x5 DUP3 ADD SSTORE PUSH1 0xC0 DUP3 ADD MLOAD PUSH1 0x6 SWAP1 SWAP2 ADD DUP1 SLOAD PUSH1 0xE0 SWAP1 SWAP4 ADD MLOAD ISZERO ISZERO PUSH1 0x1 PUSH1 0xA0 SHL MUL PUSH1 0x1 PUSH1 0x1 PUSH1 0xA8 SHL SUB NOT SWAP1 SWAP4 AND PUSH1 0x1 PUSH1 0x1 PUSH1 0xA0 SHL SUB SWAP1 SWAP3 AND SWAP2 SWAP1 SWAP2 OR SWAP2 SWAP1 SWAP2 OR SWAP1 SSTORE PUSH1 0x0 DUP8 DUP2 MSTORE PUSH1 0xF PUSH1 0x20 SWAP1 DUP2 MSTORE PUSH1 0x40 DUP1 DUP4 KECCAK256 DUP10 DUP5 MSTORE SWAP1 SWAP2 MSTORE SWAP1 DUP2 SWAP1 KECCAK256 DUP4 SWAP1 SSTORE MLOAD DUP7 SWAP1 DUP9 SWAP1 DUP5 SWAP1 PUSH32 0x8AC7002EFA82D166D2EE18D556AA13A196BCC010F8C9622DD8C08D769BA03F04 SWAP1 PUSH2 0x3765 SWAP1 CALLER SWAP1 PUSH2 0x56F8 JUMP JUMPDEST PUSH1 0x40 MLOAD DUP1 SWAP2 SUB SWAP1 LOG4 POP SWAP6 SWAP5 POP POP POP POP POP JUMP JUMPDEST PUSH2 0x378F PUSH1 0x0 DUP1 MLOAD PUSH1 0x20 PUSH2 0x5E04 DUP4 CODECOPY DUP2 MLOAD SWAP2 MSTORE CALLER PUSH2 0x2B22 JUMP JUMPDEST DUP1 PUSH2 0x37AD JUMPI POP PUSH2 0x37AD PUSH1 0x0 DUP1 MLOAD PUSH1 0x20 PUSH2 0x5E64 DUP4 CODECOPY DUP2 MLOAD SWAP2 MSTORE CALLER PUSH2 0x2B22 JUMP JUMPDEST PUSH2 0x37F9 JUMPI PUSH1 0x40 MLOAD PUSH3 0x461BCD PUSH1 0xE5 SHL DUP2 MSTORE PUSH1 0x20 PUSH1 0x4 DUP3 ADD DUP2 SWAP1 MSTORE PUSH1 0x24 DUP3 ADD MSTORE PUSH32 0x43616C6C6572206D7573742062652061646D696E206F72206C65637475726572 PUSH1 0x44 DUP3 ADD MSTORE PUSH1 0x64 ADD PUSH2 0xDBB JUMP JUMPDEST PUSH1 0x0 DUP2 DUP2 MSTORE PUSH1 0x4 PUSH1 0x20 DUP2 SWAP1 MSTORE PUSH1 0x40 SWAP1 SWAP2 KECCAK256 ADD SLOAD PUSH2 0x100 SWAP1 DIV PUSH1 0xFF AND PUSH2 0x3830 JUMPI PUSH1 0x40 MLOAD PUSH3 0x461BCD PUSH1 0xE5 SHL DUP2 MSTORE PUSH1 0x4 ADD PUSH2 0xDBB SWAP1 PUSH2 0x5A47 JUMP JUMPDEST PUSH1 0x0 DUP2 DUP2 MSTORE PUSH1 0x4 PUSH1 0x20 MSTORE PUSH1 0x40 SWAP1 KECCAK256 PUSH1 0x2 ADD SLOAD PUSH1 0x1 PUSH1 0x1 PUSH1 0xA0 SHL SUB AND CALLER EQ DUP1 PUSH2 0x386B JUMPI POP PUSH2 0x386B PUSH1 0x0 DUP1 MLOAD PUSH1 0x20 PUSH2 0x5E64 DUP4 CODECOPY DUP2 MLOAD SWAP2 MSTORE CALLER PUSH2 0x2B22 JUMP JUMPDEST PUSH2 0x38C3 JUMPI PUSH1 0x40 MLOAD PUSH3 0x461BCD PUSH1 0xE5 SHL DUP2 MSTORE PUSH1 0x20 PUSH1 0x4 DUP3 ADD MSTORE PUSH1 0x23 PUSH1 0x24 DUP3 ADD MSTORE PUSH32 0x4F6E6C79206578616D2063726561746F72206F722061646D696E2063616E206C PUSH1 0x44 DUP3 ADD MSTORE PUSH3 0x6F636B PUSH1 0xE8 SHL PUSH1 0x64 DUP3 ADD MSTORE PUSH1 0x84 ADD PUSH2 0xDBB JUMP JUMPDEST PUSH1 0x0 DUP2 DUP2 MSTORE PUSH1 0x4 PUSH1 0x20 DUP2 SWAP1 MSTORE PUSH1 0x40 DUP1 DUP4 KECCAK256 SWAP1 SWAP2 ADD DUP1 SLOAD PUSH1 0xFF NOT AND PUSH1 0x1 OR SWAP1 SSTORE MLOAD CALLER SWAP2 DUP4 SWAP2 PUSH32 0x538044B65B113F681756F903257FF1744163F47A51EA8DE3F4D081196D4E2D37 SWAP2 SWAP1 LOG3 POP JUMP JUMPDEST PUSH2 0x3916 PUSH2 0x508D JUMP JUMPDEST PUSH1 0x0 DUP1 MLOAD PUSH1 0x20 PUSH2 0x5E44 DUP4 CODECOPY DUP2 MLOAD SWAP2 MSTORE PUSH2 0x392F DUP2 CALLER PUSH2 0x2B22 JUMP JUMPDEST PUSH2 0x2C63 JUMPI PUSH1 0x40 MLOAD PUSH3 0x461BCD PUSH1 0xE5 SHL DUP2 MSTORE PUSH1 0x4 ADD PUSH2 0xDBB SWAP1 PUSH2 0x59F4 JUMP JUMPDEST PUSH1 0x0 DUP1 MLOAD PUSH1 0x20 PUSH2 0x5E64 DUP4 CODECOPY DUP2 MLOAD SWAP2 MSTORE PUSH2 0x3964 DUP2 CALLER PUSH2 0x2B22 JUMP JUMPDEST PUSH2 0x3980 JUMPI PUSH1 0x40 MLOAD PUSH3 0x461BCD PUSH1 0xE5 SHL DUP2 MSTORE PUSH1 0x4 ADD PUSH2 0xDBB SWAP1 PUSH2 0x59F4 JUMP JUMPDEST PUSH1 0x0 DUP3 DUP2 MSTORE PUSH1 0x16 PUSH1 0x20 MSTORE PUSH1 0x40 SWAP1 KECCAK256 PUSH1 0x3 ADD SLOAD PUSH2 0x100 SWAP1 DIV PUSH1 0xFF AND PUSH2 0x39B6 JUMPI PUSH1 0x40 MLOAD PUSH3 0x461BCD PUSH1 0xE5 SHL DUP2 MSTORE PUSH1 0x4 ADD PUSH2 0xDBB SWAP1 PUSH2 0x5C89 JUMP JUMPDEST PUSH1 0x0 DUP3 DUP2 MSTORE PUSH1 0x16 PUSH1 0x20 MSTORE PUSH1 0x40 SWAP1 KECCAK256 PUSH1 0x3 ADD SLOAD PUSH1 0xFF AND PUSH2 0x3A0D JUMPI PUSH1 0x40 MLOAD PUSH3 0x461BCD PUSH1 0xE5 SHL DUP2 MSTORE PUSH1 0x20 PUSH1 0x4 DUP3 ADD MSTORE PUSH1 0x13 PUSH1 0x24 DUP3 ADD MSTORE PUSH19 0x15195CDD081A5CC81B9BDD08189B1BD8DAD959 PUSH1 0x6A SHL PUSH1 0x44 DUP3 ADD MSTORE PUSH1 0x64 ADD PUSH2 0xDBB JUMP JUMPDEST PUSH1 0x0 DUP3 DUP2 MSTORE PUSH1 0x16 PUSH1 0x20 MSTORE PUSH1 0x40 DUP1 DUP3 KECCAK256 PUSH1 0x3 ADD DUP1 SLOAD PUSH1 0xFF NOT AND SWAP1 SSTORE MLOAD CALLER SWAP2 DUP5 SWAP2 PUSH32 0xA2196D3F06A62B0C168A42AF7E270A2E40B8715051F911625060D32CDD59A258 SWAP2 SWAP1 LOG3 POP POP JUMP JUMPDEST PUSH1 0x60 PUSH2 0x3A5F DUP3 PUSH2 0x5070 JUMP JUMPDEST PUSH2 0x3A7C JUMPI PUSH1 0x40 MLOAD PUSH4 0x277024CD PUSH1 0xE1 SHL DUP2 MSTORE PUSH1 0x4 ADD PUSH1 0x40 MLOAD DUP1 SWAP2 SUB SWAP1 REVERT JUMPDEST PUSH1 0x0 DUP3 DUP2 MSTORE PUSH1 0xE PUSH1 0x20 MSTORE PUSH1 0x40 SWAP1 KECCAK256 PUSH1 0x4 ADD DUP1 SLOAD PUSH2 0x3A98 SWAP1 PUSH2 0x59C0 JUMP JUMPDEST DUP1 PUSH1 0x1F ADD PUSH1 0x20 DUP1 SWAP2 DIV MUL PUSH1 0x20 ADD PUSH1 0x40 MLOAD SWAP1 DUP2 ADD PUSH1 0x40 MSTORE DUP1 SWAP3 SWAP2 SWAP1 DUP2 DUP2 MSTORE PUSH1 0x20 ADD DUP3 DUP1 SLOAD PUSH2 0x3AC4 SWAP1 PUSH2 0x59C0 JUMP JUMPDEST DUP1 ISZERO PUSH2 0x1E80 JUMPI DUP1 PUSH1 0x1F LT PUSH2 0x3AE6 JUMPI PUSH2 0x100 DUP1 DUP4 SLOAD DIV MUL DUP4 MSTORE SWAP2 PUSH1 0x20 ADD SWAP2 PUSH2 0x1E80 JUMP JUMPDEST DUP3 ADD SWAP2 SWAP1 PUSH1 0x0 MSTORE PUSH1 0x20 PUSH1 0x0 KECCAK256 SWAP1 JUMPDEST DUP2 SLOAD DUP2 MSTORE SWAP1 PUSH1 0x1 ADD SWAP1 PUSH1 0x20 ADD DUP1 DUP4 GT PUSH2 0x3AF4 JUMPI POP SWAP4 SWAP7 SWAP6 POP POP POP POP POP POP JUMP JUMPDEST PUSH1 0x0 DUP1 MLOAD PUSH1 0x20 PUSH2 0x5E64 DUP4 CODECOPY DUP2 MLOAD SWAP2 MSTORE PUSH2 0x3B2C DUP2 CALLER PUSH2 0x2B22 JUMP JUMPDEST PUSH2 0x3B48 JUMPI PUSH1 0x40 MLOAD PUSH3 0x461BCD PUSH1 0xE5 SHL DUP2 MSTORE PUSH1 0x4 ADD PUSH2 0xDBB SWAP1 PUSH2 0x59F4 JUMP JUMPDEST PUSH2 0xF26 PUSH1 0x0 DUP1 MLOAD PUSH1 0x20 PUSH2 0x5DE4 DUP4 CODECOPY DUP2 MLOAD SWAP2 MSTORE DUP4 PUSH2 0x4ECE JUMP JUMPDEST PUSH1 0x0 DUP1 MLOAD PUSH1 0x20 PUSH2 0x5DE4 DUP4 CODECOPY DUP2 MLOAD SWAP2 MSTORE PUSH2 0x3B79 DUP2 CALLER PUSH2 0x2B22 JUMP JUMPDEST PUSH2 0x3B95 JUMPI PUSH1 0x40 MLOAD PUSH3 0x461BCD PUSH1 0xE5 SHL DUP2 MSTORE PUSH1 0x4 ADD PUSH2 0xDBB SWAP1 PUSH2 0x59F4 JUMP JUMPDEST PUSH1 0x0 DUP5 DUP2 MSTORE PUSH1 0x2 PUSH1 0x20 MSTORE PUSH1 0x40 SWAP1 KECCAK256 SLOAD PUSH1 0x1 PUSH1 0x1 PUSH1 0xA0 SHL SUB AND CALLER EQ PUSH2 0x3BFB JUMPI PUSH1 0x40 MLOAD PUSH3 0x461BCD PUSH1 0xE5 SHL DUP2 MSTORE PUSH1 0x20 PUSH1 0x4 DUP3 ADD MSTORE PUSH1 0x1D PUSH1 0x24 DUP3 ADD MSTORE PUSH32 0x43616E206F6E6C79207265717565737420666F7220796F757273656C66000000 PUSH1 0x44 DUP3 ADD MSTORE PUSH1 0x64 ADD PUSH2 0xDBB JUMP JUMPDEST PUSH1 0x0 DUP4 DUP2 MSTORE PUSH1 0x4 PUSH1 0x20 DUP2 SWAP1 MSTORE PUSH1 0x40 SWAP1 SWAP2 KECCAK256 ADD SLOAD PUSH2 0x100 SWAP1 DIV PUSH1 0xFF AND PUSH2 0x3C32 JUMPI PUSH1 0x40 MLOAD PUSH3 0x461BCD PUSH1 0xE5 SHL DUP2 MSTORE PUSH1 0x4 ADD PUSH2 0xDBB SWAP1 PUSH2 0x5A47 JUMP JUMPDEST PUSH1 0x0 DUP5 DUP2 MSTORE PUSH1 0x8 PUSH1 0x20 SWAP1 DUP2 MSTORE PUSH1 0x40 DUP1 DUP4 KECCAK256 DUP7 DUP5 MSTORE SWAP1 SWAP2 MSTORE DUP2 KECCAK256 SLOAD SWAP1 SUB PUSH2 0x3C8C JUMPI PUSH1 0x40 MLOAD PUSH3 0x461BCD PUSH1 0xE5 SHL DUP2 MSTORE PUSH1 0x20 PUSH1 0x4 DUP3 ADD MSTORE PUSH1 0xF PUSH1 0x24 DUP3 ADD MSTORE PUSH15 0x14D8DBDC99481B9BDD08199BDD5B99 PUSH1 0x8A SHL PUSH1 0x44 DUP3 ADD MSTORE PUSH1 0x64 ADD PUSH2 0xDBB JUMP JUMPDEST PUSH1 0x0 DUP5 DUP2 MSTORE PUSH1 0xA PUSH1 0x20 SWAP1 DUP2 MSTORE PUSH1 0x40 DUP1 DUP4 KECCAK256 DUP7 DUP5 MSTORE SWAP1 SWAP2 MSTORE SWAP1 KECCAK256 PUSH1 0x9 ADD SLOAD PUSH1 0xFF AND ISZERO PUSH2 0x3CEC JUMPI PUSH1 0x40 MLOAD PUSH3 0x461BCD PUSH1 0xE5 SHL DUP2 MSTORE PUSH1 0x20 PUSH1 0x4 DUP3 ADD MSTORE PUSH1 0x10 PUSH1 0x24 DUP3 ADD MSTORE PUSH16 0x105B1C9958591E481C995D9A595DD959 PUSH1 0x82 SHL PUSH1 0x44 DUP3 ADD MSTORE PUSH1 0x64 ADD PUSH2 0xDBB JUMP JUMPDEST PUSH1 0x0 DUP3 MLOAD GT PUSH2 0x3D2F JUMPI PUSH1 0x40 MLOAD PUSH3 0x461BCD PUSH1 0xE5 SHL DUP2 MSTORE PUSH1 0x20 PUSH1 0x4 DUP3 ADD MSTORE PUSH1 0xF PUSH1 0x24 DUP3 ADD MSTORE PUSH15 0x1499585CDBDB881C995C5D5A5C9959 PUSH1 0x8A SHL PUSH1 0x44 DUP3 ADD MSTORE PUSH1 0x64 ADD PUSH2 0xDBB JUMP JUMPDEST PUSH1 0x0 DUP5 DUP2 MSTORE PUSH1 0x8 PUSH1 0x20 SWAP1 DUP2 MSTORE PUSH1 0x40 DUP1 DUP4 KECCAK256 DUP7 DUP5 MSTORE DUP3 MSTORE DUP1 DUP4 KECCAK256 PUSH1 0x2 SWAP1 DUP2 ADD SLOAD DUP3 MLOAD PUSH2 0x140 DUP2 ADD DUP5 MSTORE DUP10 DUP2 MSTORE DUP1 DUP6 ADD DUP10 DUP2 MSTORE TIMESTAMP DUP3 DUP7 ADD SWAP1 DUP2 MSTORE DUP6 MLOAD DUP1 DUP8 ADD DUP8 MSTORE PUSH1 0x7 DUP2 MSTORE PUSH7 0x50454E44494E47 PUSH1 0xC8 SHL DUP2 DUP10 ADD MSTORE PUSH1 0x60 DUP5 ADD SWAP1 DUP2 MSTORE PUSH1 0x80 DUP5 ADD DUP6 SWAP1 MSTORE PUSH1 0xA0 DUP5 ADD DUP10 SWAP1 MSTORE PUSH1 0xC0 DUP5 ADD DUP12 SWAP1 MSTORE PUSH1 0xE0 DUP5 ADD DUP10 SWAP1 MSTORE PUSH2 0x100 DUP5 ADD DUP10 SWAP1 MSTORE PUSH2 0x120 DUP5 ADD DUP10 SWAP1 MSTORE DUP13 DUP10 MSTORE PUSH1 0xA DUP9 MSTORE DUP7 DUP10 KECCAK256 DUP13 DUP11 MSTORE SWAP1 SWAP8 MSTORE SWAP5 SWAP1 SWAP7 KECCAK256 DUP2 MLOAD DUP2 SSTORE SWAP6 MLOAD PUSH1 0x1 DUP8 ADD SSTORE SWAP3 MLOAD SWAP2 DUP6 ADD SWAP2 SWAP1 SWAP2 SSTORE SWAP2 MLOAD SWAP2 SWAP3 SWAP1 SWAP2 PUSH1 0x3 DUP3 ADD SWAP1 PUSH2 0x3DF1 SWAP1 DUP3 PUSH2 0x5AC2 JUMP JUMPDEST POP PUSH1 0x80 DUP3 ADD MLOAD PUSH1 0x4 DUP3 ADD SSTORE PUSH1 0xA0 DUP3 ADD MLOAD PUSH1 0x5 DUP3 ADD SSTORE PUSH1 0xC0 DUP3 ADD MLOAD PUSH1 0x6 DUP3 ADD SWAP1 PUSH2 0x3E1A SWAP1 DUP3 PUSH2 0x5AC2 JUMP JUMPDEST POP PUSH1 0xE0 DUP3 ADD MLOAD PUSH1 0x7 DUP3 ADD DUP1 SLOAD PUSH1 0x1 PUSH1 0x1 PUSH1 0xA0 SHL SUB NOT AND PUSH1 0x1 PUSH1 0x1 PUSH1 0xA0 SHL SUB SWAP1 SWAP3 AND SWAP2 SWAP1 SWAP2 OR SWAP1 SSTORE PUSH2 0x100 DUP3 ADD MLOAD PUSH1 0x8 DUP3 ADD SSTORE PUSH2 0x120 SWAP1 SWAP2 ADD MLOAD PUSH1 0x9 SWAP1 SWAP2 ADD DUP1 SLOAD PUSH1 0xFF NOT AND SWAP2 ISZERO ISZERO SWAP2 SWAP1 SWAP2 OR SWAP1 SSTORE PUSH1 0x40 MLOAD DUP5 SWAP1 DUP7 SWAP1 PUSH32 0x39F367466B9C76EB50C2FD96892CAFE4148ED40A44DAC7D3DA0B4141BBC31ABD SWAP1 PUSH2 0x3E9D SWAP1 DUP6 SWAP1 DUP9 SWAP1 PUSH2 0x5D75 JUMP JUMPDEST PUSH1 0x40 MLOAD DUP1 SWAP2 SUB SWAP1 LOG3 POP POP POP POP POP JUMP JUMPDEST PUSH1 0x0 DUP1 MLOAD PUSH1 0x20 PUSH2 0x5E04 DUP4 CODECOPY DUP2 MLOAD SWAP2 MSTORE PUSH2 0x3EC5 DUP2 CALLER PUSH2 0x2B22 JUMP JUMPDEST PUSH2 0x3EE1 JUMPI PUSH1 0x40 MLOAD PUSH3 0x461BCD PUSH1 0xE5 SHL DUP2 MSTORE PUSH1 0x4 ADD PUSH2 0xDBB SWAP1 PUSH2 0x59F4 JUMP JUMPDEST PUSH1 0x0 DUP3 DUP2 MSTORE PUSH1 0x4 PUSH1 0x20 DUP2 SWAP1 MSTORE PUSH1 0x40 SWAP1 SWAP2 KECCAK256 ADD SLOAD PUSH2 0x100 SWAP1 DIV PUSH1 0xFF AND PUSH2 0x3F18 JUMPI PUSH1 0x40 MLOAD PUSH3 0x461BCD PUSH1 0xE5 SHL DUP2 MSTORE PUSH1 0x4 ADD PUSH2 0xDBB SWAP1 PUSH2 0x5A47 JUMP JUMPDEST PUSH1 0x0 DUP4 DUP2 MSTORE PUSH1 0x8 PUSH1 0x20 SWAP1 DUP2 MSTORE PUSH1 0x40 DUP1 DUP4 KECCAK256 DUP6 DUP5 MSTORE SWAP1 SWAP2 MSTORE DUP2 KECCAK256 SLOAD SWAP1 SUB PUSH2 0x3F50 JUMPI PUSH1 0x40 MLOAD PUSH3 0x461BCD PUSH1 0xE5 SHL DUP2 MSTORE PUSH1 0x4 ADD PUSH2 0xDBB SWAP1 PUSH2 0x5C5B JUMP JUMPDEST PUSH1 0x0 DUP4 DUP2 MSTORE PUSH1 0x8 PUSH1 0x20 SWAP1 DUP2 MSTORE PUSH1 0x40 DUP1 DUP4 KECCAK256 DUP6 DUP5 MSTORE SWAP1 SWAP2 MSTORE SWAP1 KECCAK256 PUSH1 0x6 ADD SLOAD PUSH1 0xFF AND ISZERO PUSH2 0x3FB1 JUMPI PUSH1 0x40 MLOAD PUSH3 0x461BCD PUSH1 0xE5 SHL DUP2 MSTORE PUSH1 0x20 PUSH1 0x4 DUP3 ADD MSTORE PUSH1 0x11 PUSH1 0x24 DUP3 ADD MSTORE PUSH17 0x105B1C9958591E48199A5B985B1A5E9959 PUSH1 0x7A SHL PUSH1 0x44 DUP3 ADD MSTORE PUSH1 0x64 ADD PUSH2 0xDBB JUMP JUMPDEST PUSH1 0x0 DUP4 DUP2 MSTORE PUSH1 0x8 PUSH1 0x20 SWAP1 DUP2 MSTORE PUSH1 0x40 DUP1 DUP4 KECCAK256 DUP6 DUP5 MSTORE SWAP1 SWAP2 MSTORE DUP1 DUP3 KECCAK256 PUSH1 0x6 ADD DUP1 SLOAD PUSH1 0xFF NOT AND PUSH1 0x1 OR SWAP1 SSTORE MLOAD CALLER SWAP2 DUP5 SWAP2 DUP7 SWAP2 PUSH32 0x36E84E8C8AE4287078A0AA64E46E7661513FEB5FFF8CB2511388AA21E20965AC SWAP2 LOG4 POP POP POP JUMP JUMPDEST PUSH2 0x4010 PUSH2 0x513B JUMP JUMPDEST PUSH2 0x4028 PUSH1 0x0 DUP1 MLOAD PUSH1 0x20 PUSH2 0x5E04 DUP4 CODECOPY DUP2 MLOAD SWAP2 MSTORE CALLER PUSH2 0x2B22 JUMP JUMPDEST DUP1 PUSH2 0x4046 JUMPI POP PUSH2 0x4046 PUSH1 0x0 DUP1 MLOAD PUSH1 0x20 PUSH2 0x5E64 DUP4 CODECOPY DUP2 MLOAD SWAP2 MSTORE CALLER PUSH2 0x2B22 JUMP JUMPDEST DUP1 PUSH2 0x4085 JUMPI POP PUSH1 0x0 DUP4 DUP2 MSTORE PUSH1 0x2 PUSH1 0x20 MSTORE PUSH1 0x40 SWAP1 KECCAK256 SLOAD PUSH1 0x1 PUSH1 0x1 PUSH1 0xA0 SHL SUB AND CALLER EQ DUP1 ISZERO PUSH2 0x4085 JUMPI POP PUSH2 0x4085 PUSH1 0x0 DUP1 MLOAD PUSH1 0x20 PUSH2 0x5DE4 DUP4 CODECOPY DUP2 MLOAD SWAP2 MSTORE CALLER PUSH2 0x2B22 JUMP JUMPDEST PUSH2 0x40A1 JUMPI PUSH1 0x40 MLOAD PUSH3 0x461BCD PUSH1 0xE5 SHL DUP2 MSTORE PUSH1 0x4 ADD PUSH2 0xDBB SWAP1 PUSH2 0x59F4 JUMP JUMPDEST PUSH1 0x0 DUP4 DUP2 MSTORE PUSH1 0x6 PUSH1 0x20 SWAP1 DUP2 MSTORE PUSH1 0x40 DUP1 DUP4 KECCAK256 DUP6 DUP5 MSTORE SWAP1 SWAP2 MSTORE SWAP1 KECCAK256 PUSH1 0x7 ADD SLOAD PUSH1 0x1 PUSH1 0xA0 SHL SWAP1 DIV PUSH1 0xFF AND PUSH2 0x40E4 JUMPI PUSH1 0x40 MLOAD PUSH3 0x461BCD PUSH1 0xE5 SHL DUP2 MSTORE PUSH1 0x4 ADD PUSH2 0xDBB SWAP1 PUSH2 0x5D32 JUMP JUMPDEST PUSH1 0x6 PUSH1 0x0 DUP5 DUP2 MSTORE PUSH1 0x20 ADD SWAP1 DUP2 MSTORE PUSH1 0x20 ADD PUSH1 0x0 KECCAK256 PUSH1 0x0 DUP4 DUP2 MSTORE PUSH1 0x20 ADD SWAP1 DUP2 MSTORE PUSH1 0x20 ADD PUSH1 0x0 KECCAK256 PUSH1 0x40 MLOAD DUP1 PUSH2 0x140 ADD PUSH1 0x40 MSTORE SWAP1 DUP2 PUSH1 0x0 DUP3 ADD SLOAD DUP2 MSTORE PUSH1 0x20 ADD PUSH1 0x1 DUP3 ADD SLOAD DUP2 MSTORE PUSH1 0x20 ADD PUSH1 0x2 DUP3 ADD DUP1 SLOAD PUSH2 0x4138 SWAP1 PUSH2 0x59C0 JUMP JUMPDEST DUP1 PUSH1 0x1F ADD PUSH1 0x20 DUP1 SWAP2 DIV MUL PUSH1 0x20 ADD PUSH1 0x40 MLOAD SWAP1 DUP2 ADD PUSH1 0x40 MSTORE DUP1 SWAP3 SWAP2 SWAP1 DUP2 DUP2 MSTORE PUSH1 0x20 ADD DUP3 DUP1 SLOAD PUSH2 0x4164 SWAP1 PUSH2 0x59C0 JUMP JUMPDEST DUP1 ISZERO PUSH2 0x41B1 JUMPI DUP1 PUSH1 0x1F LT PUSH2 0x4186 JUMPI PUSH2 0x100 DUP1 DUP4 SLOAD DIV MUL DUP4 MSTORE SWAP2 PUSH1 0x20 ADD SWAP2 PUSH2 0x41B1 JUMP JUMPDEST DUP3 ADD SWAP2 SWAP1 PUSH1 0x0 MSTORE PUSH1 0x20 PUSH1 0x0 KECCAK256 SWAP1 JUMPDEST DUP2 SLOAD DUP2 MSTORE SWAP1 PUSH1 0x1 ADD SWAP1 PUSH1 0x20 ADD DUP1 DUP4 GT PUSH2 0x4194 JUMPI DUP3 SWAP1 SUB PUSH1 0x1F AND DUP3 ADD SWAP2 JUMPDEST POP POP POP SWAP2 DUP4 MSTORE POP POP PUSH1 0x3 DUP3 ADD SLOAD PUSH1 0x20 DUP3 ADD MSTORE PUSH1 0x4 DUP3 ADD SLOAD PUSH1 0x40 DUP3 ADD MSTORE PUSH1 0x5 DUP3 ADD SLOAD PUSH1 0x1 PUSH1 0x1 PUSH1 0xA0 SHL SUB SWAP1 DUP2 AND PUSH1 0x60 DUP4 ADD MSTORE PUSH1 0x6 DUP4 ADD SLOAD PUSH1 0x80 DUP4 ADD MSTORE PUSH1 0x7 SWAP1 SWAP3 ADD SLOAD SWAP2 DUP3 AND PUSH1 0xA0 DUP3 ADD MSTORE PUSH1 0xFF PUSH1 0x1 PUSH1 0xA0 SHL DUP4 DIV DUP2 AND ISZERO ISZERO PUSH1 0xC0 DUP4 ADD MSTORE PUSH1 0x1 PUSH1 0xA8 SHL SWAP1 SWAP3 DIV SWAP1 SWAP2 AND ISZERO ISZERO PUSH1 0xE0 SWAP1 SWAP2 ADD MSTORE SWAP1 POP SWAP3 SWAP2 POP POP JUMP JUMPDEST PUSH1 0x0 DUP1 MLOAD PUSH1 0x20 PUSH2 0x5E64 DUP4 CODECOPY DUP2 MLOAD SWAP2 MSTORE PUSH2 0x4240 DUP2 CALLER PUSH2 0x2B22 JUMP JUMPDEST PUSH2 0x425C JUMPI PUSH1 0x40 MLOAD PUSH3 0x461BCD PUSH1 0xE5 SHL DUP2 MSTORE PUSH1 0x4 ADD PUSH2 0xDBB SWAP1 PUSH2 0x59F4 JUMP JUMPDEST DUP3 PUSH1 0x0 SUB PUSH2 0x427D JUMPI PUSH1 0x40 MLOAD PUSH4 0x7CD6387 PUSH1 0xE0 SHL DUP2 MSTORE PUSH1 0x4 ADD PUSH1 0x40 MLOAD DUP1 SWAP2 SUB SWAP1 REVERT JUMPDEST PUSH1 0x1 PUSH1 0x1 PUSH1 0xA0 SHL SUB DUP3 AND PUSH2 0x42A4 JUMPI PUSH1 0x40 MLOAD PUSH4 0x2AAA5C97 PUSH1 0xE0 SHL DUP2 MSTORE PUSH1 0x4 ADD PUSH1 0x40 MLOAD DUP1 SWAP2 SUB SWAP1 REVERT JUMPDEST PUSH1 0x0 DUP4 DUP2 MSTORE PUSH1 0x2 PUSH1 0x20 MSTORE PUSH1 0x40 SWAP1 KECCAK256 SLOAD PUSH1 0x1 PUSH1 0x1 PUSH1 0xA0 SHL SUB AND ISZERO PUSH2 0x42DA JUMPI PUSH1 0x40 MLOAD PUSH4 0x1517F497 PUSH1 0xE0 SHL DUP2 MSTORE PUSH1 0x4 ADD PUSH1 0x40 MLOAD DUP1 SWAP2 SUB SWAP1 REVERT JUMPDEST PUSH1 0x1 PUSH1 0x1 PUSH1 0xA0 SHL SUB DUP3 AND PUSH1 0x0 SWAP1 DUP2 MSTORE PUSH1 0x3 PUSH1 0x20 MSTORE PUSH1 0x40 SWAP1 KECCAK256 SLOAD ISZERO PUSH2 0x4311 JUMPI PUSH1 0x40 MLOAD PUSH4 0x754D1F4D PUSH1 0xE0 SHL DUP2 MSTORE PUSH1 0x4 ADD PUSH1 0x40 MLOAD DUP1 SWAP2 SUB SWAP1 REVERT JUMPDEST PUSH1 0x0 DUP4 DUP2 MSTORE PUSH1 0x2 PUSH1 0x20 SWAP1 DUP2 MSTORE PUSH1 0x40 DUP1 DUP4 KECCAK256 DUP1 SLOAD PUSH1 0x1 PUSH1 0x1 PUSH1 0xA0 SHL SUB NOT AND PUSH1 0x1 PUSH1 0x1 PUSH1 0xA0 SHL SUB DUP8 AND SWAP1 DUP2 OR SWAP1 SWAP2 SSTORE DUP1 DUP5 MSTORE PUSH1 0x3 SWAP1 SWAP3 MSTORE SWAP2 DUP3 SWAP1 KECCAK256 DUP6 SWAP1 SSTORE SWAP1 MLOAD DUP5 SWAP1 PUSH32 0xD9CC4835D96FC4B2AFB6DB1577A9677A621088CDEE0C53DA65076951D88BE32F SWAP1 PUSH2 0x160B SWAP1 CALLER SWAP1 PUSH2 0x56F8 JUMP JUMPDEST PUSH2 0x4386 PUSH2 0x50DD JUMP JUMPDEST PUSH1 0x0 DUP1 MLOAD PUSH1 0x20 PUSH2 0x5DE4 DUP4 CODECOPY DUP2 MLOAD SWAP2 MSTORE PUSH2 0x439F DUP2 CALLER PUSH2 0x2B22 JUMP JUMPDEST PUSH2 0x43BB JUMPI PUSH1 0x40 MLOAD PUSH3 0x461BCD PUSH1 0xE5 SHL DUP2 MSTORE PUSH1 0x4 ADD PUSH2 0xDBB SWAP1 PUSH2 0x59F4 JUMP JUMPDEST CALLER PUSH1 0x0 SWAP1 DUP2 MSTORE PUSH1 0x3 PUSH1 0x20 MSTORE PUSH1 0x40 SWAP1 KECCAK256 SLOAD DUP1 PUSH2 0x43E8 JUMPI PUSH1 0x40 MLOAD PUSH3 0x461BCD PUSH1 0xE5 SHL DUP2 MSTORE PUSH1 0x4 ADD PUSH2 0xDBB SWAP1 PUSH2 0x5D04 JUMP JUMPDEST PUSH1 0xA PUSH1 0x0 DUP3 DUP2 MSTORE PUSH1 0x20 ADD SWAP1 DUP2 MSTORE PUSH1 0x20 ADD PUSH1 0x0 KECCAK256 PUSH1 0x0 DUP6 DUP2 MSTORE PUSH1 0x20 ADD SWAP1 DUP2 MSTORE PUSH1 0x20 ADD PUSH1 0x0 KECCAK256 PUSH1 0x40 MLOAD DUP1 PUSH2 0x140 ADD PUSH1 0x40 MSTORE SWAP1 DUP2 PUSH1 0x0 DUP3 ADD SLOAD DUP2 MSTORE PUSH1 0x20 ADD PUSH1 0x1 DUP3 ADD SLOAD DUP2 MSTORE PUSH1 0x20 ADD PUSH1 0x2 DUP3 ADD SLOAD DUP2 MSTORE PUSH1 0x20 ADD PUSH1 0x3 DUP3 ADD DUP1 SLOAD PUSH2 0x4446 SWAP1 PUSH2 0x59C0 JUMP JUMPDEST DUP1 PUSH1 0x1F ADD PUSH1 0x20 DUP1 SWAP2 DIV MUL PUSH1 0x20 ADD PUSH1 0x40 MLOAD SWAP1 DUP2 ADD PUSH1 0x40 MSTORE DUP1 SWAP3 SWAP2 SWAP1 DUP2 DUP2 MSTORE PUSH1 0x20 ADD DUP3 DUP1 SLOAD PUSH2 0x4472 SWAP1 PUSH2 0x59C0 JUMP JUMPDEST DUP1 ISZERO PUSH2 0x44BF JUMPI DUP1 PUSH1 0x1F LT PUSH2 0x4494 JUMPI PUSH2 0x100 DUP1 DUP4 SLOAD DIV MUL DUP4 MSTORE SWAP2 PUSH1 0x20 ADD SWAP2 PUSH2 0x44BF JUMP JUMPDEST DUP3 ADD SWAP2 SWAP1 PUSH1 0x0 MSTORE PUSH1 0x20 PUSH1 0x0 KECCAK256 SWAP1 JUMPDEST DUP2 SLOAD DUP2 MSTORE SWAP1 PUSH1 0x1 ADD SWAP1 PUSH1 0x20 ADD DUP1 DUP4 GT PUSH2 0x44A2 JUMPI DUP3 SWAP1 SUB PUSH1 0x1F AND DUP3 ADD SWAP2 JUMPDEST POP POP POP POP POP DUP2 MSTORE PUSH1 0x20 ADD PUSH1 0x4 DUP3 ADD SLOAD DUP2 MSTORE PUSH1 0x20 ADD PUSH1 0x5 DUP3 ADD SLOAD DUP2 MSTORE PUSH1 0x20 ADD PUSH1 0x6 DUP3 ADD DUP1 SLOAD PUSH2 0x44EC SWAP1 PUSH2 0x59C0 JUMP JUMPDEST DUP1 PUSH1 0x1F ADD PUSH1 0x20 DUP1 SWAP2 DIV MUL PUSH1 0x20 ADD PUSH1 0x40 MLOAD SWAP1 DUP2 ADD PUSH1 0x40 MSTORE DUP1 SWAP3 SWAP2 SWAP1 DUP2 DUP2 MSTORE PUSH1 0x20 ADD DUP3 DUP1 SLOAD PUSH2 0x4518 SWAP1 PUSH2 0x59C0 JUMP JUMPDEST DUP1 ISZERO PUSH2 0x4565 JUMPI DUP1 PUSH1 0x1F LT PUSH2 0x453A JUMPI PUSH2 0x100 DUP1 DUP4 SLOAD DIV MUL DUP4 MSTORE SWAP2 PUSH1 0x20 ADD SWAP2 PUSH2 0x4565 JUMP JUMPDEST DUP3 ADD SWAP2 SWAP1 PUSH1 0x0 MSTORE PUSH1 0x20 PUSH1 0x0 KECCAK256 SWAP1 JUMPDEST DUP2 SLOAD DUP2 MSTORE SWAP1 PUSH1 0x1 ADD SWAP1 PUSH1 0x20 ADD DUP1 DUP4 GT PUSH2 0x4548 JUMPI DUP3 SWAP1 SUB PUSH1 0x1F AND DUP3 ADD SWAP2 JUMPDEST POP POP POP SWAP2 DUP4 MSTORE POP POP PUSH1 0x7 DUP3 ADD SLOAD PUSH1 0x1 PUSH1 0x1 PUSH1 0xA0 SHL SUB AND PUSH1 0x20 DUP3 ADD MSTORE PUSH1 0x8 DUP3 ADD SLOAD PUSH1 0x40 DUP3 ADD MSTORE PUSH1 0x9 SWAP1 SWAP2 ADD SLOAD PUSH1 0xFF AND ISZERO ISZERO PUSH1 0x60 SWAP1 SWAP2 ADD MSTORE SWAP5 SWAP4 POP POP POP POP JUMP JUMPDEST PUSH1 0x0 PUSH2 0x45AF DUP2 CALLER PUSH2 0x2B22 JUMP JUMPDEST PUSH2 0x45CB JUMPI PUSH1 0x40 MLOAD PUSH3 0x461BCD PUSH1 0xE5 SHL DUP2 MSTORE PUSH1 0x4 ADD PUSH2 0xDBB SWAP1 PUSH2 0x59F4 JUMP JUMPDEST PUSH2 0x1DA7 DUP4 DUP4 PUSH2 0x4F35 JUMP JUMPDEST PUSH1 0x0 PUSH2 0x45EF PUSH1 0x0 DUP1 MLOAD PUSH1 0x20 PUSH2 0x5E04 DUP4 CODECOPY DUP2 MLOAD SWAP2 MSTORE CALLER PUSH2 0x2B22 JUMP JUMPDEST DUP1 PUSH2 0x460D JUMPI POP PUSH2 0x460D PUSH1 0x0 DUP1 MLOAD PUSH1 0x20 PUSH2 0x5E64 DUP4 CODECOPY DUP2 MLOAD SWAP2 MSTORE CALLER PUSH2 0x2B22 JUMP JUMPDEST DUP1 PUSH2 0x464C JUMPI POP PUSH1 0x0 DUP4 DUP2 MSTORE PUSH1 0x2 PUSH1 0x20 MSTORE PUSH1 0x40 SWAP1 KECCAK256 SLOAD PUSH1 0x1 PUSH1 0x1 PUSH1 0xA0 SHL SUB AND CALLER EQ DUP1 ISZERO PUSH2 0x464C JUMPI POP PUSH2 0x464C PUSH1 0x0 DUP1 MLOAD PUSH1 0x20 PUSH2 0x5DE4 DUP4 CODECOPY DUP2 MLOAD SWAP2 MSTORE CALLER PUSH2 0x2B22 JUMP JUMPDEST PUSH2 0x4668 JUMPI PUSH1 0x40 MLOAD PUSH3 0x461BCD PUSH1 0xE5 SHL DUP2 MSTORE PUSH1 0x4 ADD PUSH2 0xDBB SWAP1 PUSH2 0x59F4 JUMP JUMPDEST PUSH1 0x0 DUP4 DUP2 MSTORE PUSH1 0x6 PUSH1 0x20 SWAP1 DUP2 MSTORE PUSH1 0x40 DUP1 DUP4 KECCAK256 DUP6 DUP5 MSTORE SWAP1 SWAP2 MSTORE SWAP1 KECCAK256 PUSH1 0x7 ADD SLOAD PUSH1 0x1 PUSH1 0xA0 SHL SWAP1 DIV PUSH1 0xFF AND PUSH2 0x46AB JUMPI PUSH1 0x40 MLOAD PUSH3 0x461BCD PUSH1 0xE5 SHL DUP2 MSTORE PUSH1 0x4 ADD PUSH2 0xDBB SWAP1 PUSH2 0x5D32 JUMP JUMPDEST POP PUSH1 0x0 SWAP2 DUP3 MSTORE PUSH1 0x6 PUSH1 0x20 SWAP1 DUP2 MSTORE PUSH1 0x40 DUP1 DUP5 KECCAK256 SWAP3 DUP5 MSTORE SWAP2 SWAP1 MSTORE SWAP1 KECCAK256 PUSH1 0x3 ADD SLOAD SWAP1 JUMP JUMPDEST PUSH1 0x0 DUP2 DUP2 MSTORE PUSH1 0x16 PUSH1 0x20 SWAP1 DUP2 MSTORE PUSH1 0x40 DUP1 DUP4 KECCAK256 DUP2 MLOAD PUSH1 0xA0 DUP2 ADD DUP4 MSTORE DUP2 SLOAD DUP2 MSTORE PUSH1 0x1 DUP3 ADD SLOAD SWAP4 DUP2 ADD SWAP4 SWAP1 SWAP4 MSTORE PUSH1 0x2 DUP2 ADD SLOAD SWAP2 DUP4 ADD SWAP2 SWAP1 SWAP2 MSTORE PUSH1 0x3 ADD SLOAD PUSH1 0xFF DUP1 DUP3 AND ISZERO ISZERO PUSH1 0x60 DUP5 ADD MSTORE PUSH2 0x100 SWAP1 SWAP2 DIV AND ISZERO ISZERO PUSH1 0x80 DUP3 ADD DUP2 SWAP1 MSTORE DUP3 SWAP2 DUP3 SWAP2 DUP3 SWAP2 DUP3 SWAP2 PUSH2 0x4745 JUMPI PUSH1 0x40 MLOAD PUSH3 0x461BCD PUSH1 0xE5 SHL DUP2 MSTORE PUSH1 0x4 ADD PUSH2 0xDBB SWAP1 PUSH2 0x5C89 JUMP JUMPDEST DUP1 MLOAD PUSH1 0x20 DUP3 ADD MLOAD PUSH1 0x40 DUP4 ADD MLOAD PUSH1 0x60 DUP5 ADD MLOAD PUSH1 0x80 SWAP1 SWAP5 ADD MLOAD SWAP3 SWAP11 SWAP2 SWAP10 POP SWAP8 POP SWAP2 SWAP6 POP SWAP4 POP SWAP2 POP POP JUMP JUMPDEST PUSH1 0x14 PUSH1 0x20 MSTORE DUP2 PUSH1 0x0 MSTORE PUSH1 0x40 PUSH1 0x0 KECCAK256 DUP2 DUP2 SLOAD DUP2 LT PUSH2 0x4789 JUMPI PUSH1 0x0 DUP1 REVERT JUMPDEST PUSH1 0x0 SWAP2 DUP3 MSTORE PUSH1 0x20 SWAP1 SWAP2 KECCAK256 PUSH1 0x5 SWAP1 SWAP2 MUL ADD DUP1 SLOAD PUSH1 0x1 DUP3 ADD SLOAD PUSH1 0x2 DUP4 ADD DUP1 SLOAD SWAP3 SWAP6 POP PUSH1 0x1 PUSH1 0x1 PUSH1 0xA0 SHL SUB SWAP1 SWAP2 AND SWAP4 POP SWAP1 PUSH2 0x47C0 SWAP1 PUSH2 0x59C0 JUMP JUMPDEST DUP1 PUSH1 0x1F ADD PUSH1 0x20 DUP1 SWAP2 DIV MUL PUSH1 0x20 ADD PUSH1 0x40 MLOAD SWAP1 DUP2 ADD PUSH1 0x40 MSTORE DUP1 SWAP3 SWAP2 SWAP1 DUP2 DUP2 MSTORE PUSH1 0x20 ADD DUP3 DUP1 SLOAD PUSH2 0x47EC SWAP1 PUSH2 0x59C0 JUMP JUMPDEST DUP1 ISZERO PUSH2 0x4839 JUMPI DUP1 PUSH1 0x1F LT PUSH2 0x480E JUMPI PUSH2 0x100 DUP1 DUP4 SLOAD DIV MUL DUP4 MSTORE SWAP2 PUSH1 0x20 ADD SWAP2 PUSH2 0x4839 JUMP JUMPDEST DUP3 ADD SWAP2 SWAP1 PUSH1 0x0 MSTORE PUSH1 0x20 PUSH1 0x0 KECCAK256 SWAP1 JUMPDEST DUP2 SLOAD DUP2 MSTORE SWAP1 PUSH1 0x1 ADD SWAP1 PUSH1 0x20 ADD DUP1 DUP4 GT PUSH2 0x481C JUMPI DUP3 SWAP1 SUB PUSH1 0x1F AND DUP3 ADD SWAP2 JUMPDEST POP POP POP POP POP SWAP1 DUP1 PUSH1 0x3 ADD SLOAD SWAP1 DUP1 PUSH1 0x4 ADD DUP1 SLOAD PUSH2 0x4854 SWAP1 PUSH2 0x59C0 JUMP JUMPDEST DUP1 PUSH1 0x1F ADD PUSH1 0x20 DUP1 SWAP2 DIV MUL PUSH1 0x20 ADD PUSH1 0x40 MLOAD SWAP1 DUP2 ADD PUSH1 0x40 MSTORE DUP1 SWAP3 SWAP2 SWAP1 DUP2 DUP2 MSTORE PUSH1 0x20 ADD DUP3 DUP1 SLOAD PUSH2 0x4880 SWAP1 PUSH2 0x59C0 JUMP JUMPDEST DUP1 ISZERO PUSH2 0x48CD JUMPI DUP1 PUSH1 0x1F LT PUSH2 0x48A2 JUMPI PUSH2 0x100 DUP1 DUP4 SLOAD DIV MUL DUP4 MSTORE SWAP2 PUSH1 0x20 ADD SWAP2 PUSH2 0x48CD JUMP JUMPDEST DUP3 ADD SWAP2 SWAP1 PUSH1 0x0 MSTORE PUSH1 0x20 PUSH1 0x0 KECCAK256 SWAP1 JUMPDEST DUP2 SLOAD DUP2 MSTORE SWAP1 PUSH1 0x1 ADD SWAP1 PUSH1 0x20 ADD DUP1 DUP4 GT PUSH2 0x48B0 JUMPI DUP3 SWAP1 SUB PUSH1 0x1F AND DUP3 ADD SWAP2 JUMPDEST POP POP POP POP POP SWAP1 POP DUP6 JUMP JUMPDEST PUSH1 0x60 PUSH2 0x48F1 PUSH1 0x0 DUP1 MLOAD PUSH1 0x20 PUSH2 0x5E04 DUP4 CODECOPY DUP2 MLOAD SWAP2 MSTORE CALLER PUSH2 0x2B22 JUMP JUMPDEST DUP1 PUSH2 0x490F JUMPI POP PUSH2 0x490F PUSH1 0x0 DUP1 MLOAD PUSH1 0x20 PUSH2 0x5E64 DUP4 CODECOPY DUP2 MLOAD SWAP2 MSTORE CALLER PUSH2 0x2B22 JUMP JUMPDEST PUSH2 0x492B JUMPI PUSH1 0x40 MLOAD PUSH3 0x461BCD PUSH1 0xE5 SHL DUP2 MSTORE PUSH1 0x4 ADD PUSH2 0xDBB SWAP1 PUSH2 0x59F4 JUMP JUMPDEST PUSH1 0x0 DUP3 DUP2 MSTORE PUSH1 0x7 PUSH1 0x20 SWAP1 DUP2 MSTORE PUSH1 0x40 SWAP2 DUP3 SWAP1 KECCAK256 DUP1 SLOAD DUP4 MLOAD DUP2 DUP5 MUL DUP2 ADD DUP5 ADD SWAP1 SWAP5 MSTORE DUP1 DUP5 MSTORE SWAP1 SWAP2 DUP4 ADD DUP3 DUP3 DUP1 ISZERO PUSH2 0x1E80 JUMPI PUSH1 0x20 MUL DUP3 ADD SWAP2 SWAP1 PUSH1 0x0 MSTORE PUSH1 0x20 PUSH1 0x0 KECCAK256 SWAP1 DUP2 SLOAD DUP2 MSTORE PUSH1 0x20 ADD SWAP1 PUSH1 0x1 ADD SWAP1 DUP1 DUP4 GT PUSH2 0x1E6C JUMPI POP POP POP POP POP SWAP1 POP SWAP2 SWAP1 POP JUMP JUMPDEST PUSH1 0x17 PUSH1 0x20 MSTORE DUP2 PUSH1 0x0 MSTORE PUSH1 0x40 PUSH1 0x0 KECCAK256 DUP2 DUP2 SLOAD DUP2 LT PUSH2 0x1E15 JUMPI PUSH1 0x0 DUP1 REVERT JUMPDEST PUSH1 0x0 DUP1 MLOAD PUSH1 0x20 PUSH2 0x5E04 DUP4 CODECOPY DUP2 MLOAD SWAP2 MSTORE PUSH2 0x49BE DUP2 CALLER PUSH2 0x2B22 JUMP JUMPDEST PUSH2 0x49DA JUMPI PUSH1 0x40 MLOAD PUSH3 0x461BCD PUSH1 0xE5 SHL DUP2 MSTORE PUSH1 0x4 ADD PUSH2 0xDBB SWAP1 PUSH2 0x59F4 JUMP JUMPDEST PUSH1 0x0 DUP5 DUP2 MSTORE PUSH1 0x4 PUSH1 0x20 DUP2 SWAP1 MSTORE PUSH1 0x40 SWAP1 SWAP2 KECCAK256 ADD SLOAD PUSH2 0x100 SWAP1 DIV PUSH1 0xFF AND PUSH2 0x4A11 JUMPI PUSH1 0x40 MLOAD PUSH3 0x461BCD PUSH1 0xE5 SHL DUP2 MSTORE PUSH1 0x4 ADD PUSH2 0xDBB SWAP1 PUSH2 0x5A47 JUMP JUMPDEST PUSH1 0x0 DUP6 DUP2 MSTORE PUSH1 0xA PUSH1 0x20 SWAP1 DUP2 MSTORE PUSH1 0x40 DUP1 DUP4 KECCAK256 DUP8 DUP5 MSTORE SWAP1 SWAP2 MSTORE DUP2 KECCAK256 SLOAD SWAP1 SUB PUSH2 0x4A6D JUMPI PUSH1 0x40 MLOAD PUSH3 0x461BCD PUSH1 0xE5 SHL DUP2 MSTORE PUSH1 0x20 PUSH1 0x4 DUP3 ADD MSTORE PUSH1 0x11 PUSH1 0x24 DUP3 ADD MSTORE PUSH17 0x14995C5D595CDD081B9BDD08199BDD5B99 PUSH1 0x7A SHL PUSH1 0x44 DUP3 ADD MSTORE PUSH1 0x64 ADD PUSH2 0xDBB JUMP JUMPDEST PUSH1 0x0 DUP6 DUP2 MSTORE PUSH1 0xA PUSH1 0x20 SWAP1 DUP2 MSTORE PUSH1 0x40 DUP1 DUP4 KECCAK256 DUP8 DUP5 MSTORE SWAP1 SWAP2 MSTORE SWAP1 KECCAK256 PUSH1 0x9 ADD SLOAD PUSH1 0xFF AND ISZERO PUSH2 0x4ACE JUMPI PUSH1 0x40 MLOAD PUSH3 0x461BCD PUSH1 0xE5 SHL DUP2 MSTORE PUSH1 0x20 PUSH1 0x4 DUP3 ADD MSTORE PUSH1 0x11 PUSH1 0x24 DUP3 ADD MSTORE PUSH17 0x105B1C9958591E481C1C9BD8D95CDCD959 PUSH1 0x7A SHL PUSH1 0x44 DUP3 ADD MSTORE PUSH1 0x64 ADD PUSH2 0xDBB JUMP JUMPDEST PUSH1 0x0 DUP1 MLOAD PUSH1 0x20 PUSH2 0x5E24 DUP4 CODECOPY DUP2 MLOAD SWAP2 MSTORE DUP4 PUSH1 0x40 MLOAD PUSH1 0x20 ADD PUSH2 0x4AEE SWAP2 SWAP1 PUSH2 0x5DB4 JUMP JUMPDEST PUSH1 0x40 MLOAD PUSH1 0x20 DUP2 DUP4 SUB SUB DUP2 MSTORE SWAP1 PUSH1 0x40 MSTORE DUP1 MLOAD SWAP1 PUSH1 0x20 ADD KECCAK256 EQ DUP1 PUSH2 0x4B55 JUMPI POP PUSH32 0x8675C210F65C4E8DD95D2AFD30EB5D846906F1B59F9DA9D5FF94EC59C6C70C7C DUP4 PUSH1 0x40 MLOAD PUSH1 0x20 ADD PUSH2 0x4B3D SWAP2 SWAP1 PUSH2 0x5DB4 JUMP JUMPDEST PUSH1 0x40 MLOAD PUSH1 0x20 DUP2 DUP4 SUB SUB DUP2 MSTORE SWAP1 PUSH1 0x40 MSTORE DUP1 MLOAD SWAP1 PUSH1 0x20 ADD KECCAK256 EQ JUMPDEST PUSH2 0x4B92 JUMPI PUSH1 0x40 MLOAD PUSH3 0x461BCD PUSH1 0xE5 SHL DUP2 MSTORE PUSH1 0x20 PUSH1 0x4 DUP3 ADD MSTORE PUSH1 0xE PUSH1 0x24 DUP3 ADD MSTORE PUSH14 0x496E76616C696420737461747573 PUSH1 0x90 SHL PUSH1 0x44 DUP3 ADD MSTORE PUSH1 0x64 ADD PUSH2 0xDBB JUMP JUMPDEST PUSH1 0x0 DUP1 MLOAD PUSH1 0x20 PUSH2 0x5E24 DUP4 CODECOPY DUP2 MLOAD SWAP2 MSTORE DUP4 PUSH1 0x40 MLOAD PUSH1 0x20 ADD PUSH2 0x4BB2 SWAP2 SWAP1 PUSH2 0x5DB4 JUMP JUMPDEST PUSH1 0x40 MLOAD PUSH1 0x20 DUP2 DUP4 SUB SUB DUP2 MSTORE SWAP1 PUSH1 0x40 MSTORE DUP1 MLOAD SWAP1 PUSH1 0x20 ADD KECCAK256 SUB PUSH2 0x4BEE JUMPI PUSH1 0x64 DUP3 GT ISZERO PUSH2 0x4BEE JUMPI PUSH1 0x40 MLOAD PUSH3 0x461BCD PUSH1 0xE5 SHL DUP2 MSTORE PUSH1 0x4 ADD PUSH2 0xDBB SWAP1 PUSH2 0x5C2D JUMP JUMPDEST PUSH1 0x0 DUP6 DUP2 MSTORE PUSH1 0xA PUSH1 0x20 SWAP1 DUP2 MSTORE PUSH1 0x40 DUP1 DUP4 KECCAK256 DUP8 DUP5 MSTORE SWAP1 SWAP2 MSTORE SWAP1 KECCAK256 PUSH1 0x3 ADD PUSH2 0x4C14 DUP5 DUP3 PUSH2 0x5AC2 JUMP JUMPDEST POP PUSH1 0x0 DUP6 DUP2 MSTORE PUSH1 0xA PUSH1 0x20 SWAP1 DUP2 MSTORE PUSH1 0x40 DUP1 DUP4 KECCAK256 DUP8 DUP5 MSTORE DUP3 MSTORE SWAP2 DUP3 SWAP1 KECCAK256 PUSH1 0x5 DUP2 ADD DUP6 SWAP1 SSTORE PUSH1 0x7 DUP2 ADD DUP1 SLOAD PUSH1 0x1 PUSH1 0x1 PUSH1 0xA0 SHL SUB NOT AND CALLER OR SWAP1 SSTORE TIMESTAMP PUSH1 0x8 DUP3 ADD SSTORE PUSH1 0x9 ADD DUP1 SLOAD PUSH1 0xFF NOT AND PUSH1 0x1 OR SWAP1 SSTORE SWAP1 MLOAD PUSH1 0x0 DUP1 MLOAD PUSH1 0x20 PUSH2 0x5E24 DUP4 CODECOPY DUP2 MLOAD SWAP2 MSTORE SWAP2 PUSH2 0x4C7C SWAP2 DUP7 SWAP2 ADD PUSH2 0x5DB4 JUMP JUMPDEST PUSH1 0x40 MLOAD PUSH1 0x20 DUP2 DUP4 SUB SUB DUP2 MSTORE SWAP1 PUSH1 0x40 MSTORE DUP1 MLOAD SWAP1 PUSH1 0x20 ADD KECCAK256 SUB PUSH2 0x4D04 JUMPI PUSH1 0x0 DUP6 DUP2 MSTORE PUSH1 0x8 PUSH1 0x20 SWAP1 DUP2 MSTORE PUSH1 0x40 DUP1 DUP4 KECCAK256 DUP8 DUP5 MSTORE DUP3 MSTORE SWAP2 DUP3 SWAP1 KECCAK256 PUSH1 0x2 DUP2 ADD DUP1 SLOAD SWAP1 DUP7 SWAP1 SSTORE TIMESTAMP PUSH1 0x5 SWAP1 SWAP3 ADD SWAP2 SWAP1 SWAP2 SSTORE DUP3 MLOAD DUP2 DUP2 MSTORE SWAP2 DUP3 ADD DUP6 SWAP1 MSTORE SWAP2 CALLER SWAP2 DUP8 SWAP2 DUP10 SWAP2 PUSH32 0xAFCA19E7338B80A137BDD94E7B2EC35D7D842CC5C4D91A3576D97135E9DE063D SWAP2 ADD PUSH1 0x40 MLOAD DUP1 SWAP2 SUB SWAP1 LOG4 POP JUMPDEST CALLER PUSH1 0x1 PUSH1 0x1 PUSH1 0xA0 SHL SUB AND DUP5 DUP7 PUSH32 0x3E02E69C3FD077FD8B72C8FA4C53881220607BE1385EE3B57A9ED1524402D63C DUP7 DUP7 PUSH1 0x40 MLOAD PUSH2 0x2017 SWAP3 SWAP2 SWAP1 PUSH2 0x5B80 JUMP JUMPDEST PUSH1 0x60 PUSH1 0x0 DUP1 PUSH1 0x0 DUP1 PUSH1 0x0 DUP1 PUSH1 0x4 PUSH1 0x0 DUP10 DUP2 MSTORE PUSH1 0x20 ADD SWAP1 DUP2 MSTORE PUSH1 0x20 ADD PUSH1 0x0 KECCAK256 PUSH1 0x40 MLOAD DUP1 PUSH1 0xC0 ADD PUSH1 0x40 MSTORE SWAP1 DUP2 PUSH1 0x0 DUP3 ADD DUP1 SLOAD PUSH2 0x4D7A SWAP1 PUSH2 0x59C0 JUMP JUMPDEST DUP1 PUSH1 0x1F ADD PUSH1 0x20 DUP1 SWAP2 DIV MUL PUSH1 0x20 ADD PUSH1 0x40 MLOAD SWAP1 DUP2 ADD PUSH1 0x40 MSTORE DUP1 SWAP3 SWAP2 SWAP1 DUP2 DUP2 MSTORE PUSH1 0x20 ADD DUP3 DUP1 SLOAD PUSH2 0x4DA6 SWAP1 PUSH2 0x59C0 JUMP JUMPDEST DUP1 ISZERO PUSH2 0x4DF3 JUMPI DUP1 PUSH1 0x1F LT PUSH2 0x4DC8 JUMPI PUSH2 0x100 DUP1 DUP4 SLOAD DIV MUL DUP4 MSTORE SWAP2 PUSH1 0x20 ADD SWAP2 PUSH2 0x4DF3 JUMP JUMPDEST DUP3 ADD SWAP2 SWAP1 PUSH1 0x0 MSTORE PUSH1 0x20 PUSH1 0x0 KECCAK256 SWAP1 JUMPDEST DUP2 SLOAD DUP2 MSTORE SWAP1 PUSH1 0x1 ADD SWAP1 PUSH1 0x20 ADD DUP1 DUP4 GT PUSH2 0x4DD6 JUMPI DUP3 SWAP1 SUB PUSH1 0x1F AND DUP3 ADD SWAP2 JUMPDEST POP POP POP SWAP2 DUP4 MSTORE POP POP PUSH1 0x1 DUP3 ADD SLOAD PUSH1 0x20 DUP1 DUP4 ADD SWAP2 SWAP1 SWAP2 MSTORE PUSH1 0x2 DUP4 ADD SLOAD PUSH1 0x1 PUSH1 0x1 PUSH1 0xA0 SHL SUB AND PUSH1 0x40 DUP1 DUP5 ADD SWAP2 SWAP1 SWAP2 MSTORE PUSH1 0x3 DUP5 ADD SLOAD PUSH1 0x60 DUP1 DUP6 ADD SWAP2 SWAP1 SWAP2 MSTORE PUSH1 0x4 SWAP1 SWAP5 ADD SLOAD PUSH1 0xFF DUP1 DUP3 AND ISZERO ISZERO PUSH1 0x80 DUP1 DUP8 ADD SWAP2 SWAP1 SWAP2 MSTORE PUSH2 0x100 SWAP1 SWAP3 DIV AND ISZERO ISZERO PUSH1 0xA0 SWAP5 DUP6 ADD MSTORE DUP6 MLOAD SWAP3 DUP7 ADD MLOAD SWAP2 DUP7 ADD MLOAD SWAP5 DUP7 ADD MLOAD SWAP1 DUP7 ADD MLOAD SWAP6 SWAP1 SWAP4 ADD MLOAD SWAP2 SWAP14 SWAP1 SWAP13 POP SWAP3 SWAP11 POP SWAP1 SWAP9 POP SWAP2 SWAP7 POP SWAP1 SWAP5 POP SWAP3 POP POP POP JUMP JUMPDEST PUSH1 0x0 DUP1 MLOAD PUSH1 0x20 PUSH2 0x5E64 DUP4 CODECOPY DUP2 MLOAD SWAP2 MSTORE PUSH2 0x4E9A DUP2 CALLER PUSH2 0x2B22 JUMP JUMPDEST PUSH2 0x4EB6 JUMPI PUSH1 0x40 MLOAD PUSH3 0x461BCD PUSH1 0xE5 SHL DUP2 MSTORE PUSH1 0x4 ADD PUSH2 0xDBB SWAP1 PUSH2 0x59F4 JUMP JUMPDEST PUSH2 0xF26 PUSH1 0x0 DUP1 MLOAD PUSH1 0x20 PUSH2 0x5E04 DUP4 CODECOPY DUP2 MLOAD SWAP2 MSTORE DUP4 PUSH2 0x4F35 JUMP JUMPDEST PUSH2 0x4ED8 DUP3 DUP3 PUSH2 0x2B22 JUMP JUMPDEST PUSH2 0xF26 JUMPI PUSH1 0x0 DUP3 DUP2 MSTORE PUSH1 0x20 DUP2 DUP2 MSTORE PUSH1 0x40 DUP1 DUP4 KECCAK256 PUSH1 0x1 PUSH1 0x1 PUSH1 0xA0 SHL SUB DUP6 AND DUP1 DUP6 MSTORE SWAP3 MSTORE DUP1 DUP4 KECCAK256 DUP1 SLOAD PUSH1 0xFF NOT AND PUSH1 0x1 OR SWAP1 SSTORE MLOAD CALLER SWAP3 DUP6 SWAP2 PUSH32 0x2F8788117E7EFF1D82E926EC794901D17C78024A50270940304540A733656F0D SWAP2 SWAP1 LOG4 POP POP JUMP JUMPDEST PUSH2 0x4F3F DUP3 DUP3 PUSH2 0x2B22 JUMP JUMPDEST ISZERO PUSH2 0xF26 JUMPI PUSH1 0x0 DUP3 DUP2 MSTORE PUSH1 0x20 DUP2 DUP2 MSTORE PUSH1 0x40 DUP1 DUP4 KECCAK256 PUSH1 0x1 PUSH1 0x1 PUSH1 0xA0 SHL SUB DUP6 AND DUP1 DUP6 MSTORE SWAP3 MSTORE DUP1 DUP4 KECCAK256 DUP1 SLOAD PUSH1 0xFF NOT AND SWAP1 SSTORE MLOAD CALLER SWAP3 DUP6 SWAP2 PUSH32 0xF6391F5C32D9C69D2A47EA670B442974B53935D1EDC7FD64EB21E047A839171B SWAP2 SWAP1 LOG4 POP POP JUMP JUMPDEST PUSH1 0x1 PUSH1 0x1 PUSH1 0xA0 SHL SUB DUP3 AND PUSH2 0x4FC1 JUMPI PUSH1 0x40 MLOAD PUSH4 0x2AAA5C97 PUSH1 0xE0 SHL DUP2 MSTORE PUSH1 0x4 ADD PUSH1 0x40 MLOAD DUP1 SWAP2 SUB SWAP1 REVERT JUMPDEST PUSH2 0x4FCA DUP2 PUSH2 0x5070 JUMP JUMPDEST ISZERO PUSH2 0x4FE8 JUMPI PUSH1 0x40 MLOAD PUSH4 0x1BE3A3BB PUSH1 0xE1 SHL DUP2 MSTORE PUSH1 0x4 ADD PUSH1 0x40 MLOAD DUP1 SWAP2 SUB SWAP1 REVERT JUMPDEST PUSH1 0x0 DUP2 DUP2 MSTORE PUSH1 0x10 PUSH1 0x20 SWAP1 DUP2 MSTORE PUSH1 0x40 DUP1 DUP4 KECCAK256 DUP1 SLOAD PUSH1 0x1 PUSH1 0x1 PUSH1 0xA0 SHL SUB NOT AND PUSH1 0x1 PUSH1 0x1 PUSH1 0xA0 SHL SUB DUP8 AND SWAP1 DUP2 OR SWAP1 SWAP2 SSTORE DUP4 MSTORE PUSH1 0x11 SWAP1 SWAP2 MSTORE DUP2 KECCAK256 DUP1 SLOAD PUSH1 0x1 SWAP3 SWAP1 PUSH2 0x502F SWAP1 DUP5 SWAP1 PUSH2 0x5DD0 JUMP JUMPDEST SWAP1 SWAP2 SSTORE POP POP PUSH1 0x40 MLOAD DUP2 SWAP1 PUSH1 0x1 PUSH1 0x1 PUSH1 0xA0 SHL SUB DUP5 AND SWAP1 PUSH1 0x0 SWAP1 PUSH32 0xDDF252AD1BE2C89B69C2B068FC378DAA952BA7F163C4A11628F55A4DF523B3EF SWAP1 DUP3 SWAP1 LOG4 POP POP JUMP JUMPDEST PUSH1 0x0 SWAP1 DUP2 MSTORE PUSH1 0x10 PUSH1 0x20 MSTORE PUSH1 0x40 SWAP1 KECCAK256 SLOAD PUSH1 0x1 PUSH1 0x1 PUSH1 0xA0 SHL SUB AND ISZERO ISZERO SWAP1 JUMP JUMPDEST PUSH1 0x40 MLOAD DUP1 PUSH2 0x100 ADD PUSH1 0x40 MSTORE DUP1 PUSH1 0x0 DUP2 MSTORE PUSH1 0x20 ADD PUSH1 0x0 DUP2 MSTORE PUSH1 0x20 ADD PUSH1 0x0 DUP2 MSTORE PUSH1 0x20 ADD PUSH1 0x0 DUP2 MSTORE PUSH1 0x20 ADD PUSH1 0x60 DUP2 MSTORE PUSH1 0x20 ADD PUSH1 0x0 DUP2 MSTORE PUSH1 0x20 ADD PUSH1 0x0 PUSH1 0x1 PUSH1 0x1 PUSH1 0xA0 SHL SUB AND DUP2 MSTORE PUSH1 0x20 ADD PUSH1 0x0 ISZERO ISZERO DUP2 MSTORE POP SWAP1 JUMP JUMPDEST PUSH1 0x40 MLOAD DUP1 PUSH2 0x140 ADD PUSH1 0x40 MSTORE DUP1 PUSH1 0x0 DUP2 MSTORE PUSH1 0x20 ADD PUSH1 0x0 DUP2 MSTORE PUSH1 0x20 ADD PUSH1 0x0 DUP2 MSTORE PUSH1 0x20 ADD PUSH1 0x60 DUP2 MSTORE PUSH1 0x20 ADD PUSH1 0x0 DUP2 MSTORE PUSH1 0x20 ADD PUSH1 0x0 DUP2 MSTORE PUSH1 0x20 ADD PUSH1 0x60 DUP2 MSTORE PUSH1 0x20 ADD PUSH1 0x0 PUSH1 0x1 PUSH1 0x1 PUSH1 0xA0 SHL SUB AND DUP2 MSTORE PUSH1 0x20 ADD PUSH1 0x0 DUP2 MSTORE PUSH1 0x20 ADD PUSH1 0x0 ISZERO ISZERO DUP2 MSTORE POP SWAP1 JUMP JUMPDEST PUSH1 0x40 MLOAD DUP1 PUSH2 0x140 ADD PUSH1 0x40 MSTORE DUP1 PUSH1 0x0 DUP2 MSTORE PUSH1 0x20 ADD PUSH1 0x0 DUP2 MSTORE PUSH1 0x20 ADD PUSH1 0x60 DUP2 MSTORE PUSH1 0x20 ADD PUSH1 0x0 DUP2 MSTORE PUSH1 0x20 ADD PUSH1 0x0 DUP2 MSTORE PUSH1 0x20 ADD PUSH1 0x0 PUSH1 0x1 PUSH1 0x1 PUSH1 0xA0 SHL SUB AND DUP2 MSTORE PUSH1 0x20 ADD PUSH1 0x0 DUP2 MSTORE PUSH1 0x20 ADD PUSH1 0x0 PUSH1 0x1 PUSH1 0x1 PUSH1 0xA0 SHL SUB AND DUP2 MSTORE PUSH1 0x20 ADD PUSH1 0x0 ISZERO ISZERO DUP2 MSTORE PUSH1 0x20 ADD PUSH1 0x0 ISZERO ISZERO DUP2 MSTORE POP SWAP1 JUMP JUMPDEST PUSH1 0x0 DUP1 PUSH1 0x40 DUP4 DUP6 SUB SLT ISZERO PUSH2 0x51B7 JUMPI PUSH1 0x0 DUP1 REVERT JUMPDEST POP POP DUP1 CALLDATALOAD SWAP3 PUSH1 0x20 SWAP1 SWAP2 ADD CALLDATALOAD SWAP2 POP JUMP JUMPDEST PUSH1 0x0 JUMPDEST DUP4 DUP2 LT ISZERO PUSH2 0x51E1 JUMPI DUP2 DUP2 ADD MLOAD DUP4 DUP3 ADD MSTORE PUSH1 0x20 ADD PUSH2 0x51C9 JUMP JUMPDEST POP POP PUSH1 0x0 SWAP2 ADD MSTORE JUMP JUMPDEST PUSH1 0x0 DUP2 MLOAD DUP1 DUP5 MSTORE PUSH2 0x5202 DUP2 PUSH1 0x20 DUP7 ADD PUSH1 0x20 DUP7 ADD PUSH2 0x51C6 JUMP JUMPDEST PUSH1 0x1F ADD PUSH1 0x1F NOT AND SWAP3 SWAP1 SWAP3 ADD PUSH1 0x20 ADD SWAP3 SWAP2 POP POP JUMP JUMPDEST PUSH1 0x1 PUSH1 0x1 PUSH1 0xA0 SHL SUB AND SWAP1 MSTORE JUMP JUMPDEST DUP11 DUP2 MSTORE DUP10 PUSH1 0x20 DUP3 ADD MSTORE DUP9 PUSH1 0x40 DUP3 ADD MSTORE PUSH2 0x140 PUSH1 0x60 DUP3 ADD MSTORE PUSH1 0x0 PUSH2 0x524A PUSH2 0x140 DUP4 ADD DUP11 PUSH2 0x51EA JUMP JUMPDEST DUP9 PUSH1 0x80 DUP5 ADD MSTORE DUP8 PUSH1 0xA0 DUP5 ADD MSTORE DUP3 DUP2 SUB PUSH1 0xC0 DUP5 ADD MSTORE PUSH2 0x5268 DUP2 DUP9 PUSH2 0x51EA JUMP JUMPDEST PUSH1 0x1 PUSH1 0x1 PUSH1 0xA0 SHL SUB SWAP7 SWAP1 SWAP7 AND PUSH1 0xE0 DUP5 ADD MSTORE POP POP PUSH2 0x100 DUP2 ADD SWAP3 SWAP1 SWAP3 MSTORE ISZERO ISZERO PUSH2 0x120 SWAP1 SWAP2 ADD MSTORE SWAP8 SWAP7 POP POP POP POP POP POP POP JUMP JUMPDEST PUSH1 0x0 PUSH1 0x20 DUP3 DUP5 SUB SLT ISZERO PUSH2 0x52AA JUMPI PUSH1 0x0 DUP1 REVERT JUMPDEST POP CALLDATALOAD SWAP2 SWAP1 POP JUMP JUMPDEST PUSH1 0x20 DUP2 MSTORE PUSH1 0x0 PUSH2 0x52C4 PUSH1 0x20 DUP4 ADD DUP5 PUSH2 0x51EA JUMP JUMPDEST SWAP4 SWAP3 POP POP POP JUMP JUMPDEST DUP1 CALLDATALOAD PUSH1 0x1 PUSH1 0x1 PUSH1 0xA0 SHL SUB DUP2 AND DUP2 EQ PUSH2 0x52E2 JUMPI PUSH1 0x0 DUP1 REVERT JUMPDEST SWAP2 SWAP1 POP JUMP JUMPDEST PUSH1 0x0 PUSH1 0x20 DUP3 DUP5 SUB SLT ISZERO PUSH2 0x52F9 JUMPI PUSH1 0x0 DUP1 REVERT JUMPDEST PUSH2 0x52C4 DUP3 PUSH2 0x52CB JUMP JUMPDEST PUSH1 0x20 DUP2 MSTORE DUP2 MLOAD PUSH1 0x20 DUP3 ADD MSTORE PUSH1 0x20 DUP3 ADD MLOAD PUSH1 0x40 DUP3 ADD MSTORE PUSH1 0x40 DUP3 ADD MLOAD PUSH1 0x60 DUP3 ADD MSTORE PUSH1 0x60 DUP3 ADD MLOAD PUSH1 0x80 DUP3 ADD MSTORE PUSH1 0x0 PUSH1 0x80 DUP4 ADD MLOAD PUSH2 0x100 PUSH1 0xA0 DUP5 ADD MSTORE PUSH2 0x5348 PUSH2 0x120 DUP5 ADD DUP3 PUSH2 0x51EA JUMP JUMPDEST SWAP1 POP PUSH1 0xA0 DUP5 ADD MLOAD PUSH1 0xC0 DUP5 ADD MSTORE PUSH1 0x1 DUP1 PUSH1 0xA0 SHL SUB PUSH1 0xC0 DUP6 ADD MLOAD AND PUSH1 0xE0 DUP5 ADD MSTORE PUSH1 0xE0 DUP5 ADD MLOAD ISZERO ISZERO PUSH2 0x100 DUP5 ADD MSTORE DUP1 SWAP2 POP POP SWAP3 SWAP2 POP POP JUMP JUMPDEST PUSH4 0x4E487B71 PUSH1 0xE0 SHL PUSH1 0x0 MSTORE PUSH1 0x41 PUSH1 0x4 MSTORE PUSH1 0x24 PUSH1 0x0 REVERT JUMPDEST PUSH1 0x0 DUP3 PUSH1 0x1F DUP4 ADD SLT PUSH2 0x53A4 JUMPI PUSH1 0x0 DUP1 REVERT JUMPDEST DUP2 CALLDATALOAD PUSH1 0x1 PUSH1 0x1 PUSH1 0x40 SHL SUB DUP2 GT ISZERO PUSH2 0x53BD JUMPI PUSH2 0x53BD PUSH2 0x537D JUMP JUMPDEST PUSH1 0x40 MLOAD PUSH1 0x1F DUP3 ADD PUSH1 0x1F NOT SWAP1 DUP2 AND PUSH1 0x3F ADD AND DUP2 ADD PUSH1 0x1 PUSH1 0x1 PUSH1 0x40 SHL SUB DUP2 GT DUP3 DUP3 LT OR ISZERO PUSH2 0x53EB JUMPI PUSH2 0x53EB PUSH2 0x537D JUMP JUMPDEST PUSH1 0x40 MSTORE DUP2 DUP2 MSTORE DUP4 DUP3 ADD PUSH1 0x20 ADD DUP6 LT ISZERO PUSH2 0x5403 JUMPI PUSH1 0x0 DUP1 REVERT JUMPDEST DUP2 PUSH1 0x20 DUP6 ADD PUSH1 0x20 DUP4 ADD CALLDATACOPY PUSH1 0x0 SWAP2 DUP2 ADD PUSH1 0x20 ADD SWAP2 SWAP1 SWAP2 MSTORE SWAP4 SWAP3 POP POP POP JUMP JUMPDEST PUSH1 0x0 DUP1 PUSH1 0x0 PUSH1 0x60 DUP5 DUP7 SUB SLT ISZERO PUSH2 0x5435 JUMPI PUSH1 0x0 DUP1 REVERT JUMPDEST DUP4 CALLDATALOAD SWAP3 POP PUSH1 0x20 DUP5 ADD CALLDATALOAD SWAP2 POP PUSH1 0x40 DUP5 ADD CALLDATALOAD PUSH1 0x1 PUSH1 0x1 PUSH1 0x40 SHL SUB DUP2 GT ISZERO PUSH2 0x5459 JUMPI PUSH1 0x0 DUP1 REVERT JUMPDEST PUSH2 0x5465 DUP7 DUP3 DUP8 ADD PUSH2 0x5393 JUMP JUMPDEST SWAP2 POP POP SWAP3 POP SWAP3 POP SWAP3 JUMP JUMPDEST PUSH1 0x0 PUSH1 0x20 DUP3 ADD PUSH1 0x20 DUP4 MSTORE DUP1 DUP5 MLOAD DUP1 DUP4 MSTORE PUSH1 0x40 DUP6 ADD SWAP2 POP PUSH1 0x40 DUP2 PUSH1 0x5 SHL DUP7 ADD ADD SWAP3 POP PUSH1 0x20 DUP7 ADD PUSH1 0x0 JUMPDEST DUP3 DUP2 LT ISZERO PUSH2 0x5515 JUMPI PUSH1 0x3F NOT DUP8 DUP7 SUB ADD DUP5 MSTORE DUP2 MLOAD DUP1 MLOAD DUP7 MSTORE PUSH1 0x1 DUP1 PUSH1 0xA0 SHL SUB PUSH1 0x20 DUP3 ADD MLOAD AND PUSH1 0x20 DUP8 ADD MSTORE PUSH1 0x40 DUP2 ADD MLOAD PUSH1 0xA0 PUSH1 0x40 DUP9 ADD MSTORE PUSH2 0x54D9 PUSH1 0xA0 DUP9 ADD DUP3 PUSH2 0x51EA JUMP JUMPDEST SWAP1 POP PUSH1 0x60 DUP3 ADD MLOAD PUSH1 0x60 DUP9 ADD MSTORE PUSH1 0x80 DUP3 ADD MLOAD SWAP2 POP DUP7 DUP2 SUB PUSH1 0x80 DUP9 ADD MSTORE PUSH2 0x54FE DUP2 DUP4 PUSH2 0x51EA JUMP JUMPDEST SWAP7 POP POP POP PUSH1 0x20 SWAP4 DUP5 ADD SWAP4 SWAP2 SWAP1 SWAP2 ADD SWAP1 PUSH1 0x1 ADD PUSH2 0x5497 JUMP JUMPDEST POP SWAP3 SWAP7 SWAP6 POP POP POP POP POP POP JUMP JUMPDEST PUSH1 0x20 DUP2 MSTORE DUP2 MLOAD PUSH1 0x20 DUP3 ADD MSTORE PUSH1 0x20 DUP3 ADD MLOAD PUSH1 0x40 DUP3 ADD MSTORE PUSH1 0x40 DUP3 ADD MLOAD PUSH1 0x60 DUP3 ADD MSTORE PUSH1 0x0 PUSH1 0x60 DUP4 ADD MLOAD PUSH2 0x140 PUSH1 0x80 DUP5 ADD MSTORE PUSH2 0x555D PUSH2 0x160 DUP5 ADD DUP3 PUSH2 0x51EA JUMP JUMPDEST SWAP1 POP PUSH1 0x80 DUP5 ADD MLOAD PUSH1 0xA0 DUP5 ADD MSTORE PUSH1 0xA0 DUP5 ADD MLOAD PUSH1 0xC0 DUP5 ADD MSTORE PUSH1 0xC0 DUP5 ADD MLOAD PUSH1 0x1F NOT DUP5 DUP4 SUB ADD PUSH1 0xE0 DUP6 ADD MSTORE PUSH2 0x558E DUP3 DUP3 PUSH2 0x51EA JUMP JUMPDEST SWAP2 POP POP PUSH1 0xE0 DUP5 ADD MLOAD PUSH2 0x55A4 PUSH2 0x100 DUP6 ADD DUP3 PUSH2 0x5216 JUMP JUMPDEST POP PUSH2 0x100 DUP5 ADD MLOAD PUSH2 0x120 DUP5 ADD MSTORE PUSH2 0x120 DUP5 ADD MLOAD PUSH2 0x55C6 PUSH2 0x140 DUP6 ADD DUP3 ISZERO ISZERO SWAP1 MSTORE JUMP JUMPDEST POP SWAP4 SWAP3 POP POP POP JUMP JUMPDEST PUSH1 0x0 DUP1 PUSH1 0x40 DUP4 DUP6 SUB SLT ISZERO PUSH2 0x55E1 JUMPI PUSH1 0x0 DUP1 REVERT JUMPDEST DUP3 CALLDATALOAD SWAP2 POP PUSH2 0x55F1 PUSH1 0x20 DUP5 ADD PUSH2 0x52CB JUMP JUMPDEST SWAP1 POP SWAP3 POP SWAP3 SWAP1 POP JUMP JUMPDEST PUSH1 0x20 DUP1 DUP3 MSTORE DUP3 MLOAD DUP3 DUP3 ADD DUP2 SWAP1 MSTORE PUSH1 0x0 SWAP2 DUP5 ADD SWAP1 PUSH1 0x40 DUP5 ADD SWAP1 DUP4 JUMPDEST DUP2 DUP2 LT ISZERO PUSH2 0x5632 JUMPI DUP4 MLOAD DUP4 MSTORE PUSH1 0x20 SWAP4 DUP5 ADD SWAP4 SWAP1 SWAP3 ADD SWAP2 PUSH1 0x1 ADD PUSH2 0x5614 JUMP JUMPDEST POP SWAP1 SWAP6 SWAP5 POP POP POP POP POP JUMP JUMPDEST PUSH1 0x0 DUP1 PUSH1 0x0 PUSH1 0x60 DUP5 DUP7 SUB SLT ISZERO PUSH2 0x5652 JUMPI PUSH1 0x0 DUP1 REVERT JUMPDEST POP POP DUP2 CALLDATALOAD SWAP4 PUSH1 0x20 DUP4 ADD CALLDATALOAD SWAP4 POP PUSH1 0x40 SWAP1 SWAP3 ADD CALLDATALOAD SWAP2 SWAP1 POP JUMP JUMPDEST PUSH1 0xC0 DUP2 MSTORE PUSH1 0x0 PUSH2 0x567C PUSH1 0xC0 DUP4 ADD DUP10 PUSH2 0x51EA JUMP JUMPDEST PUSH1 0x20 DUP4 ADD SWAP8 SWAP1 SWAP8 MSTORE POP PUSH1 0x1 PUSH1 0x1 PUSH1 0xA0 SHL SUB SWAP5 SWAP1 SWAP5 AND PUSH1 0x40 DUP6 ADD MSTORE PUSH1 0x60 DUP5 ADD SWAP3 SWAP1 SWAP3 MSTORE ISZERO ISZERO PUSH1 0x80 DUP4 ADD MSTORE ISZERO ISZERO PUSH1 0xA0 SWAP1 SWAP2 ADD MSTORE SWAP2 SWAP1 POP JUMP JUMPDEST PUSH1 0x0 DUP1 PUSH1 0x40 DUP4 DUP6 SUB SLT ISZERO PUSH2 0x56C5 JUMPI PUSH1 0x0 DUP1 REVERT JUMPDEST DUP3 CALLDATALOAD SWAP2 POP PUSH1 0x20 DUP4 ADD CALLDATALOAD PUSH1 0x1 PUSH1 0x1 PUSH1 0x40 SHL SUB DUP2 GT ISZERO PUSH2 0x56E2 JUMPI PUSH1 0x0 DUP1 REVERT JUMPDEST PUSH2 0x56EE DUP6 DUP3 DUP7 ADD PUSH2 0x5393 JUMP JUMPDEST SWAP2 POP POP SWAP3 POP SWAP3 SWAP1 POP JUMP JUMPDEST PUSH1 0x1 PUSH1 0x1 PUSH1 0xA0 SHL SUB SWAP2 SWAP1 SWAP2 AND DUP2 MSTORE PUSH1 0x20 ADD SWAP1 JUMP JUMPDEST DUP9 DUP2 MSTORE DUP8 PUSH1 0x20 DUP3 ADD MSTORE DUP7 PUSH1 0x40 DUP3 ADD MSTORE DUP6 PUSH1 0x60 DUP3 ADD MSTORE PUSH2 0x100 PUSH1 0x80 DUP3 ADD MSTORE PUSH1 0x0 PUSH2 0x5739 PUSH2 0x100 DUP4 ADD DUP8 PUSH2 0x51EA JUMP JUMPDEST PUSH1 0xA0 DUP4 ADD SWAP6 SWAP1 SWAP6 MSTORE POP PUSH1 0x1 PUSH1 0x1 PUSH1 0xA0 SHL SUB SWAP3 SWAP1 SWAP3 AND PUSH1 0xC0 DUP4 ADD MSTORE ISZERO ISZERO PUSH1 0xE0 SWAP1 SWAP2 ADD MSTORE SWAP6 SWAP5 POP POP POP POP POP JUMP JUMPDEST DUP11 DUP2 MSTORE DUP10 PUSH1 0x20 DUP3 ADD MSTORE PUSH2 0x140 PUSH1 0x40 DUP3 ADD MSTORE PUSH1 0x0 PUSH2 0x5785 PUSH2 0x140 DUP4 ADD DUP12 PUSH2 0x51EA JUMP JUMPDEST PUSH1 0x60 DUP4 ADD SWAP10 SWAP1 SWAP10 MSTORE POP PUSH1 0x80 DUP2 ADD SWAP7 SWAP1 SWAP7 MSTORE PUSH1 0x1 PUSH1 0x1 PUSH1 0xA0 SHL SUB SWAP5 DUP6 AND PUSH1 0xA0 DUP8 ADD MSTORE PUSH1 0xC0 DUP7 ADD SWAP4 SWAP1 SWAP4 MSTORE SWAP3 AND PUSH1 0xE0 DUP5 ADD MSTORE SWAP1 ISZERO ISZERO PUSH2 0x100 DUP4 ADD MSTORE ISZERO ISZERO PUSH2 0x120 SWAP1 SWAP2 ADD MSTORE SWAP4 SWAP3 POP POP POP JUMP JUMPDEST PUSH1 0x0 DUP1 PUSH1 0x40 DUP4 DUP6 SUB SLT ISZERO PUSH2 0x57E1 JUMPI PUSH1 0x0 DUP1 REVERT JUMPDEST PUSH2 0x57EA DUP4 PUSH2 0x52CB JUMP JUMPDEST SWAP5 PUSH1 0x20 SWAP4 SWAP1 SWAP4 ADD CALLDATALOAD SWAP4 POP POP POP JUMP JUMPDEST PUSH1 0x0 DUP1 PUSH1 0x40 DUP4 DUP6 SUB SLT ISZERO PUSH2 0x580B JUMPI PUSH1 0x0 DUP1 REVERT JUMPDEST DUP3 CALLDATALOAD PUSH1 0x1 PUSH1 0x1 PUSH1 0x40 SHL SUB DUP2 GT ISZERO PUSH2 0x5821 JUMPI PUSH1 0x0 DUP1 REVERT JUMPDEST PUSH2 0x582D DUP6 DUP3 DUP7 ADD PUSH2 0x5393 JUMP JUMPDEST SWAP6 PUSH1 0x20 SWAP5 SWAP1 SWAP5 ADD CALLDATALOAD SWAP5 POP POP POP POP JUMP JUMPDEST PUSH1 0xA0 DUP2 MSTORE PUSH1 0x0 PUSH2 0x584F PUSH1 0xA0 DUP4 ADD DUP9 PUSH2 0x51EA JUMP JUMPDEST PUSH1 0x20 DUP4 ADD SWAP7 SWAP1 SWAP7 MSTORE POP PUSH1 0x1 PUSH1 0x1 PUSH1 0xA0 SHL SUB SWAP4 SWAP1 SWAP4 AND PUSH1 0x40 DUP5 ADD MSTORE PUSH1 0x60 DUP4 ADD SWAP2 SWAP1 SWAP2 MSTORE ISZERO ISZERO PUSH1 0x80 SWAP1 SWAP2 ADD MSTORE SWAP2 SWAP1 POP JUMP JUMPDEST PUSH1 0x20 DUP2 MSTORE DUP2 MLOAD PUSH1 0x20 DUP3 ADD MSTORE PUSH1 0x20 DUP3 ADD MLOAD PUSH1 0x40 DUP3 ADD MSTORE PUSH1 0x0 PUSH1 0x40 DUP4 ADD MLOAD PUSH2 0x140 PUSH1 0x60 DUP5 ADD MSTORE PUSH2 0x58B0 PUSH2 0x160 DUP5 ADD DUP3 PUSH2 0x51EA JUMP JUMPDEST SWAP1 POP PUSH1 0x60 DUP5 ADD MLOAD PUSH1 0x80 DUP5 ADD MSTORE PUSH1 0x80 DUP5 ADD MLOAD PUSH1 0xA0 DUP5 ADD MSTORE PUSH1 0xA0 DUP5 ADD MLOAD PUSH2 0x58D8 PUSH1 0xC0 DUP6 ADD DUP3 PUSH2 0x5216 JUMP JUMPDEST POP PUSH1 0xC0 DUP5 ADD MLOAD PUSH1 0xE0 DUP5 ADD MSTORE PUSH1 0xE0 DUP5 ADD MLOAD PUSH2 0x58F6 PUSH2 0x100 DUP6 ADD DUP3 PUSH2 0x5216 JUMP JUMPDEST POP PUSH2 0x100 DUP5 ADD MLOAD DUP1 ISZERO ISZERO PUSH2 0x120 DUP6 ADD MSTORE POP PUSH2 0x120 DUP5 ADD MLOAD DUP1 ISZERO ISZERO PUSH2 0x140 DUP6 ADD MSTORE PUSH2 0x55C6 JUMP JUMPDEST DUP6 DUP2 MSTORE PUSH1 0x1 PUSH1 0x1 PUSH1 0xA0 SHL SUB DUP6 AND PUSH1 0x20 DUP3 ADD MSTORE PUSH1 0xA0 PUSH1 0x40 DUP3 ADD DUP2 SWAP1 MSTORE PUSH1 0x0 SWAP1 PUSH2 0x5945 SWAP1 DUP4 ADD DUP7 PUSH2 0x51EA JUMP JUMPDEST DUP5 PUSH1 0x60 DUP5 ADD MSTORE DUP3 DUP2 SUB PUSH1 0x80 DUP5 ADD MSTORE PUSH2 0x595D DUP2 DUP6 PUSH2 0x51EA JUMP JUMPDEST SWAP9 SWAP8 POP POP POP POP POP POP POP POP JUMP JUMPDEST PUSH1 0x0 DUP1 PUSH1 0x0 DUP1 PUSH1 0x80 DUP6 DUP8 SUB SLT ISZERO PUSH2 0x597F JUMPI PUSH1 0x0 DUP1 REVERT JUMPDEST DUP5 CALLDATALOAD SWAP4 POP PUSH1 0x20 DUP6 ADD CALLDATALOAD SWAP3 POP PUSH1 0x40 DUP6 ADD CALLDATALOAD PUSH1 0x1 PUSH1 0x1 PUSH1 0x40 SHL SUB DUP2 GT ISZERO PUSH2 0x59A3 JUMPI PUSH1 0x0 DUP1 REVERT JUMPDEST PUSH2 0x59AF DUP8 DUP3 DUP9 ADD PUSH2 0x5393 JUMP JUMPDEST SWAP5 SWAP8 SWAP4 SWAP7 POP SWAP4 SWAP5 PUSH1 0x60 ADD CALLDATALOAD SWAP4 POP POP POP JUMP JUMPDEST PUSH1 0x1 DUP2 DUP2 SHR SWAP1 DUP3 AND DUP1 PUSH2 0x59D4 JUMPI PUSH1 0x7F DUP3 AND SWAP2 POP JUMPDEST PUSH1 0x20 DUP3 LT DUP2 SUB PUSH2 0x10AC JUMPI PUSH4 0x4E487B71 PUSH1 0xE0 SHL PUSH1 0x0 MSTORE PUSH1 0x22 PUSH1 0x4 MSTORE PUSH1 0x24 PUSH1 0x0 REVERT JUMPDEST PUSH1 0x20 DUP1 DUP3 MSTORE PUSH1 0xD SWAP1 DUP3 ADD MSTORE PUSH13 0x1058D8D95CDCC819195B9A5959 PUSH1 0x9A SHL PUSH1 0x40 DUP3 ADD MSTORE PUSH1 0x60 ADD SWAP1 JUMP JUMPDEST PUSH1 0x20 DUP1 DUP3 MSTORE PUSH1 0x12 SWAP1 DUP3 ADD MSTORE PUSH18 0x125B9D985B1A59081CDD1D59195B9D081251 PUSH1 0x72 SHL PUSH1 0x40 DUP3 ADD MSTORE PUSH1 0x60 ADD SWAP1 JUMP JUMPDEST PUSH1 0x20 DUP1 DUP3 MSTORE PUSH1 0x13 SWAP1 DUP3 ADD MSTORE PUSH19 0x115E185B48191BD95CC81B9BDD08195E1A5CDD PUSH1 0x6A SHL PUSH1 0x40 DUP3 ADD MSTORE PUSH1 0x60 ADD SWAP1 JUMP JUMPDEST PUSH1 0x1F DUP3 GT ISZERO PUSH2 0x1DA7 JUMPI DUP1 PUSH1 0x0 MSTORE PUSH1 0x20 PUSH1 0x0 KECCAK256 PUSH1 0x1F DUP5 ADD PUSH1 0x5 SHR DUP2 ADD PUSH1 0x20 DUP6 LT ISZERO PUSH2 0x5A9B JUMPI POP DUP1 JUMPDEST PUSH1 0x1F DUP5 ADD PUSH1 0x5 SHR DUP3 ADD SWAP2 POP JUMPDEST DUP2 DUP2 LT ISZERO PUSH2 0x5ABB JUMPI PUSH1 0x0 DUP2 SSTORE PUSH1 0x1 ADD PUSH2 0x5AA7 JUMP JUMPDEST POP POP POP POP POP JUMP JUMPDEST DUP2 MLOAD PUSH1 0x1 PUSH1 0x1 PUSH1 0x40 SHL SUB DUP2 GT ISZERO PUSH2 0x5ADB JUMPI PUSH2 0x5ADB PUSH2 0x537D JUMP JUMPDEST PUSH2 0x5AEF DUP2 PUSH2 0x5AE9 DUP5 SLOAD PUSH2 0x59C0 JUMP JUMPDEST DUP5 PUSH2 0x5A74 JUMP JUMPDEST PUSH1 0x20 PUSH1 0x1F DUP3 GT PUSH1 0x1 DUP2 EQ PUSH2 0x5B23 JUMPI PUSH1 0x0 DUP4 ISZERO PUSH2 0x5B0B JUMPI POP DUP5 DUP3 ADD MLOAD JUMPDEST PUSH1 0x0 NOT PUSH1 0x3 DUP6 SWAP1 SHL SHR NOT AND PUSH1 0x1 DUP5 SWAP1 SHL OR DUP5 SSTORE PUSH2 0x5ABB JUMP JUMPDEST PUSH1 0x0 DUP5 DUP2 MSTORE PUSH1 0x20 DUP2 KECCAK256 PUSH1 0x1F NOT DUP6 AND SWAP2 JUMPDEST DUP3 DUP2 LT ISZERO PUSH2 0x5B53 JUMPI DUP8 DUP6 ADD MLOAD DUP3 SSTORE PUSH1 0x20 SWAP5 DUP6 ADD SWAP5 PUSH1 0x1 SWAP1 SWAP3 ADD SWAP2 ADD PUSH2 0x5B33 JUMP JUMPDEST POP DUP5 DUP3 LT ISZERO PUSH2 0x5B71 JUMPI DUP7 DUP5 ADD MLOAD PUSH1 0x0 NOT PUSH1 0x3 DUP8 SWAP1 SHL PUSH1 0xF8 AND SHR NOT AND DUP2 SSTORE JUMPDEST POP POP POP POP PUSH1 0x1 SWAP1 DUP2 SHL ADD SWAP1 SSTORE POP JUMP JUMPDEST PUSH1 0x40 DUP2 MSTORE PUSH1 0x0 PUSH2 0x5B93 PUSH1 0x40 DUP4 ADD DUP6 PUSH2 0x51EA JUMP JUMPDEST SWAP1 POP DUP3 PUSH1 0x20 DUP4 ADD MSTORE SWAP4 SWAP3 POP POP POP JUMP JUMPDEST PUSH1 0x20 DUP1 DUP3 MSTORE PUSH1 0x14 SWAP1 DUP3 ADD MSTORE PUSH20 0x105B9CDDD95C881B9BDD081CDD589B5A5D1D1959 PUSH1 0x62 SHL PUSH1 0x40 DUP3 ADD MSTORE PUSH1 0x60 ADD SWAP1 JUMP JUMPDEST PUSH1 0x20 DUP1 DUP3 MSTORE PUSH1 0x15 SWAP1 DUP3 ADD MSTORE PUSH21 0x105B9CDDD95C881B9BDD081CD8DBDC9959081E595D PUSH1 0x5A SHL PUSH1 0x40 DUP3 ADD MSTORE PUSH1 0x60 ADD SWAP1 JUMP JUMPDEST PUSH1 0x20 DUP1 DUP3 MSTORE PUSH1 0x14 SWAP1 DUP3 ADD MSTORE PUSH20 0x53636F726520616C726561647920657869737473 PUSH1 0x60 SHL PUSH1 0x40 DUP3 ADD MSTORE PUSH1 0x60 ADD SWAP1 JUMP JUMPDEST PUSH1 0x20 DUP1 DUP3 MSTORE PUSH1 0x14 SWAP1 DUP3 ADD MSTORE PUSH20 0x53636F7265206D757374206265203C3D2031303 PUSH1 0x64 SHL PUSH1 0x40 DUP3 ADD MSTORE PUSH1 0x60 ADD SWAP1 JUMP JUMPDEST PUSH1 0x20 DUP1 DUP3 MSTORE PUSH1 0x14 SWAP1 DUP3 ADD MSTORE PUSH20 0x14D8DBDC9948191BD95CC81B9BDD08195E1A5CDD PUSH1 0x62 SHL PUSH1 0x40 DUP3 ADD MSTORE PUSH1 0x60 ADD SWAP1 JUMP JUMPDEST PUSH1 0x20 DUP1 DUP3 MSTORE PUSH1 0x13 SWAP1 DUP3 ADD MSTORE PUSH19 0x15195CDD08191BD95CC81B9BDD08195E1A5CDD PUSH1 0x6A SHL PUSH1 0x40 DUP3 ADD MSTORE PUSH1 0x60 ADD SWAP1 JUMP JUMPDEST PUSH4 0x4E487B71 PUSH1 0xE0 SHL PUSH1 0x0 MSTORE PUSH1 0x11 PUSH1 0x4 MSTORE PUSH1 0x24 PUSH1 0x0 REVERT JUMPDEST DUP2 DUP2 SUB DUP2 DUP2 GT ISZERO PUSH2 0x1A6F JUMPI PUSH2 0x1A6F PUSH2 0x5CB6 JUMP JUMPDEST PUSH1 0x60 DUP2 MSTORE PUSH1 0x0 PUSH2 0x5CF2 PUSH1 0x60 DUP4 ADD DUP7 PUSH2 0x51EA JUMP JUMPDEST PUSH1 0x20 DUP4 ADD SWAP5 SWAP1 SWAP5 MSTORE POP PUSH1 0x40 ADD MSTORE SWAP2 SWAP1 POP JUMP JUMPDEST PUSH1 0x20 DUP1 DUP3 MSTORE PUSH1 0x14 SWAP1 DUP3 ADD MSTORE PUSH20 0x14DD1D59195B9D081251081B9BDD08199BDD5B99 PUSH1 0x62 SHL PUSH1 0x40 DUP3 ADD MSTORE PUSH1 0x60 ADD SWAP1 JUMP JUMPDEST PUSH1 0x20 DUP1 DUP3 MSTORE PUSH1 0x10 SWAP1 DUP3 ADD MSTORE PUSH16 0x105B9CDDD95C881B9BDD08199BDD5B99 PUSH1 0x82 SHL PUSH1 0x40 DUP3 ADD MSTORE PUSH1 0x60 ADD SWAP1 JUMP JUMPDEST PUSH1 0x0 PUSH1 0x1 DUP3 ADD PUSH2 0x5D6E JUMPI PUSH2 0x5D6E PUSH2 0x5CB6 JUMP JUMPDEST POP PUSH1 0x1 ADD SWAP1 JUMP JUMPDEST PUSH1 0x60 DUP2 MSTORE PUSH1 0x7 PUSH1 0x60 DUP3 ADD MSTORE PUSH7 0x50454E44494E47 PUSH1 0xC8 SHL PUSH1 0x80 DUP3 ADD MSTORE DUP3 PUSH1 0x20 DUP3 ADD MSTORE PUSH1 0xA0 PUSH1 0x40 DUP3 ADD MSTORE PUSH1 0x0 PUSH2 0x5DAC PUSH1 0xA0 DUP4 ADD DUP5 PUSH2 0x51EA JUMP JUMPDEST SWAP5 SWAP4 POP POP POP POP JUMP JUMPDEST PUSH1 0x0 DUP3 MLOAD PUSH2 0x5DC6 DUP2 DUP5 PUSH1 0x20 DUP8 ADD PUSH2 0x51C6 JUMP JUMPDEST SWAP2 SWAP1 SWAP2 ADD SWAP3 SWAP2 POP POP JUMP JUMPDEST DUP1 DUP3 ADD DUP1 DUP3 GT ISZERO PUSH2 0x1A6F JUMPI PUSH2 0x1A6F PUSH2 0x5CB6 JUMP INVALID CALLDATASIZE 0xA5 0xC4 0xAA 0xAC 0xB6 0xB3 DUP9 0xBB 0xD4 BASEFEE 0xBF GT MULMOD PUSH12 0x7DAFC5652BCC9046084FD0E9 JUMPDEST 0x1F 0xB0 0xB2 0xCC 0xD8 0xF DUPN 0xBC 0xE CALLER 0xAB DIFFICULTY OR 0xBD TIMESTAMP PUSH0 0x29 PUSH31 0x26E0456472DF56B1EAAEE7ACD2CBC2C696FE321069D1AC41CDFB1421FFA23 SHR 0xD2 0xDC MCOPY GASPRICE CALLER SELFBALANCE SUB 0xA9 SWAP9 0xA5 EXTCALL GASLIMIT PUSH7 0xB6FBF3F7BDFC7C CALLDATASIZE KECCAK256 PUSH18 0x74F786648D2E624616A4B40E15FD7F0268B4 CALLF 0x6AF5 SDIV PUSH32 0xC43C835A49807205CE4D355092EF5A8A18F56E8913CF4A201FBE287825B0956 SWAP4 0xC2 OR PUSH22 0xA2646970667358221220AFD04FAC35DDBDE6EC7A1416 TSTORE MSIZE 0xA6 DUP8 EXTCODEHASH 0x1F PUSH7 0x4F7CAB2CE73247 SMOD 0xA5 MULMOD PUSH3 0x54F964 PUSH20 0x6F6C634300081E0033A49807205CE4D355092EF5 0xA8 LOG1 DUP16 JUMP 0xE8 SWAP2 EXTCODECOPY DELEGATECALL LOG2 ADD EXTSTATICCALL 0xE2 DUP8 DUP3 JUMPDEST MULMOD JUMP SWAP4 0xC2 OR PUSH22 0x0 "
		},
		"gasEstimates": {
			"creation": {
				"codeDepositCost": "4849800",
				"executionCost": "infinite",
				"totalCost": "infinite"
			},
			"external": {
				"ADMIN_ROLE()": "infinite",
				"DEFAULT_ADMIN_ROLE()": "329",
				"EMPLOYER_ROLE()": "infinite",
				"LECTURER_ROLE()": "infinite",
				"STUDENT_ROLE()": "infinite",
				"addressToStudentId(address)": "2740",
				"balanceOf(address)": "2656",
				"blockTest(uint256)": "infinite",
				"certificates(uint256)": "infinite",
				"createMyReviewRequest(uint256,string)": "infinite",
				"createScoreFromAnswer(uint256,uint256)": "infinite",
				"createTest(uint256,uint256)": "infinite",
				"examScores(uint256,uint256)": "4865",
				"examSubmissions(uint256,uint256)": "4843",
				"exams(uint256)": "infinite",
				"finalizeScore(uint256,uint256)": "infinite",
				"getAnswerScore(uint256,uint256)": "infinite",
				"getCertificateByStudent(uint256,uint256)": "infinite",
				"getExam(uint256)": "infinite",
				"getExamScores(uint256)": "infinite",
				"getExamSubmissions(uint256)": "infinite",
				"getLecturerExams(address)": "infinite",
				"getMyAnswer(uint256)": "infinite",
				"getMyCertificate(uint256,uint256)": "infinite",
				"getMyReviewRequest(uint256)": "infinite",
				"getReviewRequest(uint256,uint256)": "infinite",
				"getScore(uint256,uint256)": "15595",
				"getStudentAddress(uint256)": "2722",
				"getStudentAnswer(uint256,uint256)": "infinite",
				"getStudentIdByAddress(address)": "2736",
				"getTest(uint256)": "9231",
				"getTraceCount(uint256)": "2660",
				"getTraces(uint256)": "infinite",
				"getUserTests(uint256)": "infinite",
				"grantEmployerRole(address)": "infinite",
				"grantLecturerRole(address)": "infinite",
				"grantRole(bytes32,address)": "infinite",
				"grantStudentRole(address)": "infinite",
				"hasRole(bytes32,address)": "2708",
				"hasSubmittedAnswer(uint256,uint256)": "2790",
				"issueCertificate(uint256,uint256,string)": "infinite",
				"lecturerExams(address,uint256)": "4855",
				"lockExam(uint256)": "infinite",
				"name()": "infinite",
				"ownerOf(uint256)": "2671",
				"processReviewRequest(uint256,uint256,string,uint256)": "infinite",
				"reviewRequests(uint256,uint256)": "infinite",
				"revokeCertificate(uint256)": "infinite",
				"revokeEmployerRole(address)": "infinite",
				"revokeLecturerRole(address)": "infinite",
				"revokeRole(bytes32,address)": "infinite",
				"revokeStudentRole(address)": "infinite",
				"scoreAnswer(uint256,uint256,uint256)": "infinite",
				"scores(uint256,uint256)": "15571",
				"setStudentAddress(uint256,address)": "infinite",
				"storeExam(string,uint256)": "infinite",
				"storeReviewRequest(uint256,uint256,string)": "infinite",
				"storeScore(uint256,uint256,uint256)": "infinite",
				"studentAddresses(uint256)": "2568",
				"studentAnswers(uint256,uint256)": "infinite",
				"studentCertificates(uint256,uint256)": "2753",
				"submitAnswer(uint256,uint256,string)": "infinite",
				"submitMyAnswer(uint256,string)": "infinite",
				"symbol()": "infinite",
				"tests(uint256)": "9104",
				"tokenURI(uint256)": "infinite",
				"traces(uint256,uint256)": "infinite",
				"unblockTest(uint256)": "infinite",
				"updateAnswerScore(uint256,uint256,uint256)": "infinite",
				"updateScore(uint256,uint256,uint256)": "infinite",
				"updateStudentAddress(uint256,address)": "infinite",
				"userTests(uint256,uint256)": "4797",
				"verifyCertificate(uint256)": "infinite"
			}
		},
		"methodIdentifiers": {
			"ADMIN_ROLE()": "75b238fc",
			"DEFAULT_ADMIN_ROLE()": "a217fddf",
			"EMPLOYER_ROLE()": "2426bb38",
			"LECTURER_ROLE()": "0713eb02",
			"STUDENT_ROLE()": "f7be43fb",
			"addressToStudentId(address)": "86c34415",
			"balanceOf(address)": "70a08231",
			"blockTest(uint256)": "3f576247",
			"certificates(uint256)": "663b3e22",
			"createMyReviewRequest(uint256,string)": "97bb03ba",
			"createScoreFromAnswer(uint256,uint256)": "25992935",
			"createTest(uint256,uint256)": "1d3e15ff",
			"examScores(uint256,uint256)": "aa1f80a5",
			"examSubmissions(uint256,uint256)": "34018d7b",
			"exams(uint256)": "4198cb3f",
			"finalizeScore(uint256,uint256)": "cd79e42f",
			"getAnswerScore(uint256,uint256)": "e8328683",
			"getCertificateByStudent(uint256,uint256)": "bd289217",
			"getExam(uint256)": "f97563d5",
			"getExamScores(uint256)": "a26ea890",
			"getExamSubmissions(uint256)": "eef218bf",
			"getLecturerExams(address)": "7f5af810",
			"getMyAnswer(uint256)": "b63bfdcf",
			"getMyCertificate(uint256,uint256)": "99532f60",
			"getMyReviewRequest(uint256)": "d4f45061",
			"getReviewRequest(uint256,uint256)": "1fa63aa3",
			"getScore(uint256,uint256)": "adc6ba73",
			"getStudentAddress(uint256)": "e67651ac",
			"getStudentAnswer(uint256,uint256)": "ce44661b",
			"getStudentIdByAddress(address)": "80ab3dda",
			"getTest(uint256)": "edef019d",
			"getTraceCount(uint256)": "3bf82f32",
			"getTraces(uint256)": "1eb2c396",
			"getUserTests(uint256)": "361ef2bd",
			"grantEmployerRole(address)": "16853feb",
			"grantLecturerRole(address)": "66b2d280",
			"grantRole(bytes32,address)": "2f2ff15d",
			"grantStudentRole(address)": "c94d10ad",
			"hasRole(bytes32,address)": "91d14854",
			"hasSubmittedAnswer(uint256,uint256)": "6c9d1900",
			"issueCertificate(uint256,uint256,string)": "b8535a11",
			"lecturerExams(address,uint256)": "767cdbd8",
			"lockExam(uint256)": "b8d78466",
			"name()": "06fdde03",
			"ownerOf(uint256)": "6352211e",
			"processReviewRequest(uint256,uint256,string,uint256)": "f1c4731c",
			"reviewRequests(uint256,uint256)": "036713be",
			"revokeCertificate(uint256)": "06f5497e",
			"revokeEmployerRole(address)": "2ea0d829",
			"revokeLecturerRole(address)": "fc9b39e6",
			"revokeRole(bytes32,address)": "d547741f",
			"revokeStudentRole(address)": "32b3c846",
			"scoreAnswer(uint256,uint256,uint256)": "7c69610c",
			"scores(uint256,uint256)": "dd255148",
			"setStudentAddress(uint256,address)": "d27fc520",
			"storeExam(string,uint256)": "a486ab35",
			"storeReviewRequest(uint256,uint256,string)": "c9b1e027",
			"storeScore(uint256,uint256,uint256)": "7c953e6e",
			"studentAddresses(uint256)": "b5ab682d",
			"studentAnswers(uint256,uint256)": "6ca9e678",
			"studentCertificates(uint256,uint256)": "fa8d3cca",
			"submitAnswer(uint256,uint256,string)": "1bc7980c",
			"submitMyAnswer(uint256,string)": "45590d11",
			"symbol()": "95d89b41",
			"tests(uint256)": "de22c8d4",
			"tokenURI(uint256)": "c87b56dd",
			"traces(uint256,uint256)": "eeed2503",
			"unblockTest(uint256)": "c54164d4",
			"updateAnswerScore(uint256,uint256,uint256)": "ac18cc2d",
			"updateScore(uint256,uint256,uint256)": "3f0a92fb",
			"updateStudentAddress(uint256,address)": "6a0d2892",
			"userTests(uint256,uint256)": "f1b23d7f",
			"verifyCertificate(uint256)": "1692a942"
		}
	},
	"abi": [
		{
			"inputs": [],
			"stateMutability": "nonpayable",
			"type": "constructor"
		},
		{
			"inputs": [],
			"name": "E002",
			"type": "error"
		},
		{
			"inputs": [],
			"name": "E003",
			"type": "error"
		},
		{
			"inputs": [],
			"name": "E005",
			"type": "error"
		},
		{
			"inputs": [],
			"name": "E101",
			"type": "error"
		},
		{
			"inputs": [],
			"name": "E201",
			"type": "error"
		},
		{
			"inputs": [],
			"name": "E202",
			"type": "error"
		},
		{
			"inputs": [],
			"name": "E203",
			"type": "error"
		},
		{
			"inputs": [],
			"name": "E301",
			"type": "error"
		},
		{
			"inputs": [],
			"name": "E504",
			"type": "error"
		},
		{
			"inputs": [],
			"name": "E801",
			"type": "error"
		},
		{
			"inputs": [],
			"name": "E802",
			"type": "error"
		},
		{
			"inputs": [],
			"name": "E803",
			"type": "error"
		},
		{
			"anonymous": false,
			"inputs": [
				{
					"indexed": true,
					"internalType": "uint256",
					"name": "student_id",
					"type": "uint256"
				},
				{
					"indexed": true,
					"internalType": "uint256",
					"name": "exam_id",
					"type": "uint256"
				},
				{
					"indexed": false,
					"internalType": "uint256",
					"name": "score",
					"type": "uint256"
				},
				{
					"indexed": true,
					"internalType": "address",
					"name": "scored_by",
					"type": "address"
				},
				{
					"indexed": false,
					"internalType": "uint256",
					"name": "scored_at",
					"type": "uint256"
				}
			],
			"name": "AnswerScored",
			"type": "event"
		},
		{
			"anonymous": false,
			"inputs": [
				{
					"indexed": true,
					"internalType": "uint256",
					"name": "student_id",
					"type": "uint256"
				},
				{
					"indexed": true,
					"internalType": "uint256",
					"name": "exam_id",
					"type": "uint256"
				},
				{
					"indexed": false,
					"internalType": "string",
					"name": "content",
					"type": "string"
				},
				{
					"indexed": true,
					"internalType": "address",
					"name": "submitted_by",
					"type": "address"
				},
				{
					"indexed": false,
					"internalType": "uint256",
					"name": "submitted_at",
					"type": "uint256"
				}
			],
			"name": "AnswerSubmitted",
			"type": "event"
		},
		{
			"anonymous": false,
			"inputs": [
				{
					"indexed": true,
					"internalType": "uint256",
					"name": "student_id",
					"type": "uint256"
				},
				{
					"indexed": true,
					"internalType": "uint256",
					"name": "exam_id",
					"type": "uint256"
				},
				{
					"indexed": false,
					"internalType": "uint256",
					"name": "old_score",
					"type": "uint256"
				},
				{
					"indexed": false,
					"internalType": "uint256",
					"name": "new_score",
					"type": "uint256"
				},
				{
					"indexed": true,
					"internalType": "address",
					"name": "updated_by",
					"type": "address"
				}
			],
			"name": "AnswerUpdated",
			"type": "event"
		},
		{
			"anonymous": false,
			"inputs": [
				{
					"indexed": true,
					"internalType": "address",
					"name": "owner",
					"type": "address"
				},
				{
					"indexed": true,
					"internalType": "address",
					"name": "approved",
					"type": "address"
				},
				{
					"indexed": true,
					"internalType": "uint256",
					"name": "tokenId",
					"type": "uint256"
				}
			],
			"name": "Approval",
			"type": "event"
		},
		{
			"anonymous": false,
			"inputs": [
				{
					"indexed": true,
					"internalType": "address",
					"name": "owner",
					"type": "address"
				},
				{
					"indexed": true,
					"internalType": "address",
					"name": "operator",
					"type": "address"
				},
				{
					"indexed": false,
					"internalType": "bool",
					"name": "approved",
					"type": "bool"
				}
			],
			"name": "ApprovalForAll",
			"type": "event"
		},
		{
			"anonymous": false,
			"inputs": [
				{
					"indexed": true,
					"internalType": "uint256",
					"name": "tokenId",
					"type": "uint256"
				},
				{
					"indexed": true,
					"internalType": "uint256",
					"name": "student_id",
					"type": "uint256"
				},
				{
					"indexed": true,
					"internalType": "uint256",
					"name": "exam_id",
					"type": "uint256"
				},
				{
					"indexed": false,
					"internalType": "address",
					"name": "issued_by",
					"type": "address"
				}
			],
			"name": "CertificateIssued",
			"type": "event"
		},
		{
			"anonymous": false,
			"inputs": [
				{
					"indexed": true,
					"internalType": "uint256",
					"name": "tokenId",
					"type": "uint256"
				},
				{
					"indexed": true,
					"internalType": "address",
					"name": "revoked_by",
					"type": "address"
				}
			],
			"name": "CertificateRevoked",
			"type": "event"
		},
		{
			"anonymous": false,
			"inputs": [
				{
					"indexed": true,
					"internalType": "uint256",
					"name": "exam_id",
					"type": "uint256"
				},
				{
					"indexed": true,
					"internalType": "address",
					"name": "locked_by",
					"type": "address"
				}
			],
			"name": "ExamLocked",
			"type": "event"
		},
		{
			"anonymous": false,
			"inputs": [
				{
					"indexed": true,
					"internalType": "uint256",
					"name": "exam_id",
					"type": "uint256"
				},
				{
					"indexed": false,
					"internalType": "string",
					"name": "hash",
					"type": "string"
				},
				{
					"indexed": true,
					"internalType": "address",
					"name": "created_by",
					"type": "address"
				},
				{
					"indexed": false,
					"internalType": "uint256",
					"name": "created_at",
					"type": "uint256"
				},
				{
					"indexed": true,
					"internalType": "bytes32",
					"name": "blockHash",
					"type": "bytes32"
				},
				{
					"indexed": false,
					"internalType": "uint256",
					"name": "blockNumber",
					"type": "uint256"
				}
			],
			"name": "ExamStored",
			"type": "event"
		},
		{
			"anonymous": false,
			"inputs": [
				{
					"indexed": true,
					"internalType": "uint256",
					"name": "student_id",
					"type": "uint256"
				},
				{
					"indexed": true,
					"internalType": "uint256",
					"name": "exam_id",
					"type": "uint256"
				},
				{
					"indexed": false,
					"internalType": "string",
					"name": "status",
					"type": "string"
				},
				{
					"indexed": false,
					"internalType": "uint256",
					"name": "new_score",
					"type": "uint256"
				},
				{
					"indexed": true,
					"internalType": "address",
					"name": "reviewer",
					"type": "address"
				}
			],
			"name": "ReviewProcessed",
			"type": "event"
		},
		{
			"anonymous": false,
			"inputs": [
				{
					"indexed": true,
					"internalType": "uint256",
					"name": "student_id",
					"type": "uint256"
				},
				{
					"indexed": true,
					"internalType": "uint256",
					"name": "exam_id",
					"type": "uint256"
				},
				{
					"indexed": false,
					"internalType": "string",
					"name": "status",
					"type": "string"
				},
				{
					"indexed": false,
					"internalType": "uint256",
					"name": "old_score",
					"type": "uint256"
				},
				{
					"indexed": false,
					"internalType": "string",
					"name": "reason",
					"type": "string"
				}
			],
			"name": "ReviewRequested",
			"type": "event"
		},
		{
			"anonymous": false,
			"inputs": [
				{
					"indexed": true,
					"internalType": "bytes32",
					"name": "role",
					"type": "bytes32"
				},
				{
					"indexed": true,
					"internalType": "address",
					"name": "account",
					"type": "address"
				},
				{
					"indexed": true,
					"internalType": "address",
					"name": "sender",
					"type": "address"
				}
			],
			"name": "RoleGranted",
			"type": "event"
		},
		{
			"anonymous": false,
			"inputs": [
				{
					"indexed": true,
					"internalType": "bytes32",
					"name": "role",
					"type": "bytes32"
				},
				{
					"indexed": true,
					"internalType": "address",
					"name": "account",
					"type": "address"
				},
				{
					"indexed": true,
					"internalType": "address",
					"name": "sender",
					"type": "address"
				}
			],
			"name": "RoleRevoked",
			"type": "event"
		},
		{
			"anonymous": false,
			"inputs": [
				{
					"indexed": true,
					"internalType": "uint256",
					"name": "student_id",
					"type": "uint256"
				},
				{
					"indexed": true,
					"internalType": "uint256",
					"name": "exam_id",
					"type": "uint256"
				},
				{
					"indexed": true,
					"internalType": "address",
					"name": "finalized_by",
					"type": "address"
				}
			],
			"name": "ScoreFinalized",
			"type": "event"
		},
		{
			"anonymous": false,
			"inputs": [
				{
					"indexed": true,
					"internalType": "uint256",
					"name": "student_id",
					"type": "uint256"
				},
				{
					"indexed": true,
					"internalType": "uint256",
					"name": "exam_id",
					"type": "uint256"
				},
				{
					"indexed": false,
					"internalType": "uint256",
					"name": "score",
					"type": "uint256"
				},
				{
					"indexed": true,
					"internalType": "address",
					"name": "graded_by",
					"type": "address"
				}
			],
			"name": "ScoreStored",
			"type": "event"
		},
		{
			"anonymous": false,
			"inputs": [
				{
					"indexed": true,
					"internalType": "uint256",
					"name": "student_id",
					"type": "uint256"
				},
				{
					"indexed": true,
					"internalType": "uint256",
					"name": "exam_id",
					"type": "uint256"
				},
				{
					"indexed": false,
					"internalType": "uint256",
					"name": "old_score",
					"type": "uint256"
				},
				{
					"indexed": false,
					"internalType": "uint256",
					"name": "new_score",
					"type": "uint256"
				},
				{
					"indexed": true,
					"internalType": "address",
					"name": "updated_by",
					"type": "address"
				}
			],
			"name": "ScoreUpdated",
			"type": "event"
		},
		{
			"anonymous": false,
			"inputs": [
				{
					"indexed": true,
					"internalType": "uint256",
					"name": "student_id",
					"type": "uint256"
				},
				{
					"indexed": true,
					"internalType": "address",
					"name": "studentAddress",
					"type": "address"
				},
				{
					"indexed": false,
					"internalType": "address",
					"name": "setBy",
					"type": "address"
				}
			],
			"name": "StudentAddressSet",
			"type": "event"
		},
		{
			"anonymous": false,
			"inputs": [
				{
					"indexed": true,
					"internalType": "uint256",
					"name": "student_id",
					"type": "uint256"
				},
				{
					"indexed": true,
					"internalType": "address",
					"name": "oldAddress",
					"type": "address"
				},
				{
					"indexed": true,
					"internalType": "address",
					"name": "newAddress",
					"type": "address"
				},
				{
					"indexed": false,
					"internalType": "address",
					"name": "updatedBy",
					"type": "address"
				}
			],
			"name": "StudentAddressUpdated",
			"type": "event"
		},
		{
			"anonymous": false,
			"inputs": [
				{
					"indexed": true,
					"internalType": "uint256",
					"name": "test_id",
					"type": "uint256"
				},
				{
					"indexed": true,
					"internalType": "address",
					"name": "blocked_by",
					"type": "address"
				}
			],
			"name": "TestBlocked",
			"type": "event"
		},
		{
			"anonymous": false,
			"inputs": [
				{
					"indexed": true,
					"internalType": "uint256",
					"name": "test_id",
					"type": "uint256"
				},
				{
					"indexed": true,
					"internalType": "uint256",
					"name": "id_created_by",
					"type": "uint256"
				},
				{
					"indexed": false,
					"internalType": "uint256",
					"name": "created_at",
					"type": "uint256"
				}
			],
			"name": "TestCreated",
			"type": "event"
		},
		{
			"anonymous": false,
			"inputs": [
				{
					"indexed": true,
					"internalType": "uint256",
					"name": "test_id",
					"type": "uint256"
				},
				{
					"indexed": true,
					"internalType": "address",
					"name": "unblocked_by",
					"type": "address"
				}
			],
			"name": "TestUnblocked",
			"type": "event"
		},
		{
			"anonymous": false,
			"inputs": [
				{
					"indexed": true,
					"internalType": "uint256",
					"name": "entity_id",
					"type": "uint256"
				},
				{
					"indexed": true,
					"internalType": "address",
					"name": "caller",
					"type": "address"
				},
				{
					"indexed": false,
					"internalType": "string",
					"name": "action",
					"type": "string"
				},
				{
					"indexed": false,
					"internalType": "uint256",
					"name": "target_id",
					"type": "uint256"
				},
				{
					"indexed": false,
					"internalType": "string",
					"name": "details",
					"type": "string"
				},
				{
					"indexed": false,
					"internalType": "uint256",
					"name": "timestamp",
					"type": "uint256"
				}
			],
			"name": "TraceRecorded",
			"type": "event"
		},
		{
			"anonymous": false,
			"inputs": [
				{
					"indexed": true,
					"internalType": "address",
					"name": "from",
					"type": "address"
				},
				{
					"indexed": true,
					"internalType": "address",
					"name": "to",
					"type": "address"
				},
				{
					"indexed": true,
					"internalType": "uint256",
					"name": "tokenId",
					"type": "uint256"
				}
			],
			"name": "Transfer",
			"type": "event"
		},
		{
			"inputs": [],
			"name": "ADMIN_ROLE",
			"outputs": [
				{
					"internalType": "bytes32",
					"name": "",
					"type": "bytes32"
				}
			],
			"stateMutability": "view",
			"type": "function"
		},
		{
			"inputs": [],
			"name": "DEFAULT_ADMIN_ROLE",
			"outputs": [
				{
					"internalType": "bytes32",
					"name": "",
					"type": "bytes32"
				}
			],
			"stateMutability": "view",
			"type": "function"
		},
		{
			"inputs": [],
			"name": "EMPLOYER_ROLE",
			"outputs": [
				{
					"internalType": "bytes32",
					"name": "",
					"type": "bytes32"
				}
			],
			"stateMutability": "view",
			"type": "function"
		},
		{
			"inputs": [],
			"name": "LECTURER_ROLE",
			"outputs": [
				{
					"internalType": "bytes32",
					"name": "",
					"type": "bytes32"
				}
			],
			"stateMutability": "view",
			"type": "function"
		},
		{
			"inputs": [],
			"name": "STUDENT_ROLE",
			"outputs": [
				{
					"internalType": "bytes32",
					"name": "",
					"type": "bytes32"
				}
			],
			"stateMutability": "view",
			"type": "function"
		},
		{
			"inputs": [
				{
					"internalType": "address",
					"name": "",
					"type": "address"
				}
			],
			"name": "addressToStudentId",
			"outputs": [
				{
					"internalType": "uint256",
					"name": "",
					"type": "uint256"
				}
			],
			"stateMutability": "view",
			"type": "function"
		},
		{
			"inputs": [
				{
					"internalType": "address",
					"name": "owner",
					"type": "address"
				}
			],
			"name": "balanceOf",
			"outputs": [
				{
					"internalType": "uint256",
					"name": "",
					"type": "uint256"
				}
			],
			"stateMutability": "view",
			"type": "function"
		},
		{
			"inputs": [
				{
					"internalType": "uint256",
					"name": "_test_id",
					"type": "uint256"
				}
			],
			"name": "blockTest",
			"outputs": [],
			"stateMutability": "nonpayable",
			"type": "function"
		},
		{
			"inputs": [
				{
					"internalType": "uint256",
					"name": "",
					"type": "uint256"
				}
			],
			"name": "certificates",
			"outputs": [
				{
					"internalType": "uint256",
					"name": "tokenId",
					"type": "uint256"
				},
				{
					"internalType": "uint256",
					"name": "student_id",
					"type": "uint256"
				},
				{
					"internalType": "uint256",
					"name": "exam_id",
					"type": "uint256"
				},
				{
					"internalType": "uint256",
					"name": "score",
					"type": "uint256"
				},
				{
					"internalType": "string",
					"name": "metadata_uri",
					"type": "string"
				},
				{
					"internalType": "uint256",
					"name": "issued_at",
					"type": "uint256"
				},
				{
					"internalType": "address",
					"name": "issued_by",
					"type": "address"
				},
				{
					"internalType": "bool",
					"name": "is_valid",
					"type": "bool"
				}
			],
			"stateMutability": "view",
			"type": "function"
		},
		{
			"inputs": [
				{
					"internalType": "uint256",
					"name": "_exam_id",
					"type": "uint256"
				},
				{
					"internalType": "string",
					"name": "_reason",
					"type": "string"
				}
			],
			"name": "createMyReviewRequest",
			"outputs": [],
			"stateMutability": "nonpayable",
			"type": "function"
		},
		{
			"inputs": [
				{
					"internalType": "uint256",
					"name": "_student_id",
					"type": "uint256"
				},
				{
					"internalType": "uint256",
					"name": "_exam_id",
					"type": "uint256"
				}
			],
			"name": "createScoreFromAnswer",
			"outputs": [],
			"stateMutability": "nonpayable",
			"type": "function"
		},
		{
			"inputs": [
				{
					"internalType": "uint256",
					"name": "_test_id",
					"type": "uint256"
				},
				{
					"internalType": "uint256",
					"name": "_id_created_by",
					"type": "uint256"
				}
			],
			"name": "createTest",
			"outputs": [],
			"stateMutability": "nonpayable",
			"type": "function"
		},
		{
			"inputs": [
				{
					"internalType": "uint256",
					"name": "",
					"type": "uint256"
				},
				{
					"internalType": "uint256",
					"name": "",
					"type": "uint256"
				}
			],
			"name": "examScores",
			"outputs": [
				{
					"internalType": "uint256",
					"name": "",
					"type": "uint256"
				}
			],
			"stateMutability": "view",
			"type": "function"
		},
		{
			"inputs": [
				{
					"internalType": "uint256",
					"name": "",
					"type": "uint256"
				},
				{
					"internalType": "uint256",
					"name": "",
					"type": "uint256"
				}
			],
			"name": "examSubmissions",
			"outputs": [
				{
					"internalType": "uint256",
					"name": "",
					"type": "uint256"
				}
			],
			"stateMutability": "view",
			"type": "function"
		},
		{
			"inputs": [
				{
					"internalType": "uint256",
					"name": "",
					"type": "uint256"
				}
			],
			"name": "exams",
			"outputs": [
				{
					"internalType": "string",
					"name": "hash",
					"type": "string"
				},
				{
					"internalType": "uint256",
					"name": "exam_id",
					"type": "uint256"
				},
				{
					"internalType": "address",
					"name": "created_by",
					"type": "address"
				},
				{
					"internalType": "uint256",
					"name": "created_at",
					"type": "uint256"
				},
				{
					"internalType": "bool",
					"name": "is_locked",
					"type": "bool"
				},
				{
					"internalType": "bool",
					"name": "is_active",
					"type": "bool"
				}
			],
			"stateMutability": "view",
			"type": "function"
		},
		{
			"inputs": [
				{
					"internalType": "uint256",
					"name": "_student_id",
					"type": "uint256"
				},
				{
					"internalType": "uint256",
					"name": "_exam_id",
					"type": "uint256"
				}
			],
			"name": "finalizeScore",
			"outputs": [],
			"stateMutability": "nonpayable",
			"type": "function"
		},
		{
			"inputs": [
				{
					"internalType": "uint256",
					"name": "_student_id",
					"type": "uint256"
				},
				{
					"internalType": "uint256",
					"name": "_exam_id",
					"type": "uint256"
				}
			],
			"name": "getAnswerScore",
			"outputs": [
				{
					"internalType": "uint256",
					"name": "",
					"type": "uint256"
				}
			],
			"stateMutability": "view",
			"type": "function"
		},
		{
			"inputs": [
				{
					"internalType": "uint256",
					"name": "_student_id",
					"type": "uint256"
				},
				{
					"internalType": "uint256",
					"name": "_exam_id",
					"type": "uint256"
				}
			],
			"name": "getCertificateByStudent",
			"outputs": [
				{
					"components": [
						{
							"internalType": "uint256",
							"name": "tokenId",
							"type": "uint256"
						},
						{
							"internalType": "uint256",
							"name": "student_id",
							"type": "uint256"
						},
						{
							"internalType": "uint256",
							"name": "exam_id",
							"type": "uint256"
						},
						{
							"internalType": "uint256",
							"name": "score",
							"type": "uint256"
						},
						{
							"internalType": "string",
							"name": "metadata_uri",
							"type": "string"
						},
						{
							"internalType": "uint256",
							"name": "issued_at",
							"type": "uint256"
						},
						{
							"internalType": "address",
							"name": "issued_by",
							"type": "address"
						},
						{
							"internalType": "bool",
							"name": "is_valid",
							"type": "bool"
						}
					],
					"internalType": "struct DZCertificate.Certificate",
					"name": "",
					"type": "tuple"
				}
			],
			"stateMutability": "view",
			"type": "function"
		},
		{
			"inputs": [
				{
					"internalType": "uint256",
					"name": "_exam_id",
					"type": "uint256"
				}
			],
			"name": "getExam",
			"outputs": [
				{
					"internalType": "string",
					"name": "hash",
					"type": "string"
				},
				{
					"internalType": "uint256",
					"name": "exam_id",
					"type": "uint256"
				},
				{
					"internalType": "address",
					"name": "created_by",
					"type": "address"
				},
				{
					"internalType": "uint256",
					"name": "created_at",
					"type": "uint256"
				},
				{
					"internalType": "bool",
					"name": "is_locked",
					"type": "bool"
				},
				{
					"internalType": "bool",
					"name": "is_active",
					"type": "bool"
				}
			],
			"stateMutability": "view",
			"type": "function"
		},
		{
			"inputs": [
				{
					"internalType": "uint256",
					"name": "_exam_id",
					"type": "uint256"
				}
			],
			"name": "getExamScores",
			"outputs": [
				{
					"internalType": "uint256[]",
					"name": "",
					"type": "uint256[]"
				}
			],
			"stateMutability": "view",
			"type": "function"
		},
		{
			"inputs": [
				{
					"internalType": "uint256",
					"name": "_exam_id",
					"type": "uint256"
				}
			],
			"name": "getExamSubmissions",
			"outputs": [
				{
					"internalType": "uint256[]",
					"name": "",
					"type": "uint256[]"
				}
			],
			"stateMutability": "view",
			"type": "function"
		},
		{
			"inputs": [
				{
					"internalType": "address",
					"name": "_lecturer",
					"type": "address"
				}
			],
			"name": "getLecturerExams",
			"outputs": [
				{
					"internalType": "uint256[]",
					"name": "",
					"type": "uint256[]"
				}
			],
			"stateMutability": "view",
			"type": "function"
		},
		{
			"inputs": [
				{
					"internalType": "uint256",
					"name": "_exam_id",
					"type": "uint256"
				}
			],
			"name": "getMyAnswer",
			"outputs": [
				{
					"components": [
						{
							"internalType": "uint256",
							"name": "student_id",
							"type": "uint256"
						},
						{
							"internalType": "uint256",
							"name": "exam_id",
							"type": "uint256"
						},
						{
							"internalType": "string",
							"name": "content",
							"type": "string"
						},
						{
							"internalType": "uint256",
							"name": "score",
							"type": "uint256"
						},
						{
							"internalType": "uint256",
							"name": "submitted_at",
							"type": "uint256"
						},
						{
							"internalType": "address",
							"name": "submitted_by",
							"type": "address"
						},
						{
							"internalType": "uint256",
							"name": "scored_at",
							"type": "uint256"
						},
						{
							"internalType": "address",
							"name": "scored_by",
							"type": "address"
						},
						{
							"internalType": "bool",
							"name": "is_submitted",
							"type": "bool"
						},
						{
							"internalType": "bool",
							"name": "is_scored",
							"type": "bool"
						}
					],
					"internalType": "struct DZStudentAnswer.StudentAnswer",
					"name": "",
					"type": "tuple"
				}
			],
			"stateMutability": "view",
			"type": "function"
		},
		{
			"inputs": [
				{
					"internalType": "uint256",
					"name": "_student_id",
					"type": "uint256"
				},
				{
					"internalType": "uint256",
					"name": "_exam_id",
					"type": "uint256"
				}
			],
			"name": "getMyCertificate",
			"outputs": [
				{
					"components": [
						{
							"internalType": "uint256",
							"name": "tokenId",
							"type": "uint256"
						},
						{
							"internalType": "uint256",
							"name": "student_id",
							"type": "uint256"
						},
						{
							"internalType": "uint256",
							"name": "exam_id",
							"type": "uint256"
						},
						{
							"internalType": "uint256",
							"name": "score",
							"type": "uint256"
						},
						{
							"internalType": "string",
							"name": "metadata_uri",
							"type": "string"
						},
						{
							"internalType": "uint256",
							"name": "issued_at",
							"type": "uint256"
						},
						{
							"internalType": "address",
							"name": "issued_by",
							"type": "address"
						},
						{
							"internalType": "bool",
							"name": "is_valid",
							"type": "bool"
						}
					],
					"internalType": "struct DZCertificate.Certificate",
					"name": "",
					"type": "tuple"
				}
			],
			"stateMutability": "view",
			"type": "function"
		},
		{
			"inputs": [
				{
					"internalType": "uint256",
					"name": "_exam_id",
					"type": "uint256"
				}
			],
			"name": "getMyReviewRequest",
			"outputs": [
				{
					"components": [
						{
							"internalType": "uint256",
							"name": "student_id",
							"type": "uint256"
						},
						{
							"internalType": "uint256",
							"name": "exam_id",
							"type": "uint256"
						},
						{
							"internalType": "uint256",
							"name": "request_date",
							"type": "uint256"
						},
						{
							"internalType": "string",
							"name": "status",
							"type": "string"
						},
						{
							"internalType": "uint256",
							"name": "old_score",
							"type": "uint256"
						},
						{
							"internalType": "uint256",
							"name": "new_score",
							"type": "uint256"
						},
						{
							"internalType": "string",
							"name": "reason",
							"type": "string"
						},
						{
							"internalType": "address",
							"name": "reviewer",
							"type": "address"
						},
						{
							"internalType": "uint256",
							"name": "reviewed_at",
							"type": "uint256"
						},
						{
							"internalType": "bool",
							"name": "is_processed",
							"type": "bool"
						}
					],
					"internalType": "struct DZReviewManager.ReviewRequest",
					"name": "",
					"type": "tuple"
				}
			],
			"stateMutability": "view",
			"type": "function"
		},
		{
			"inputs": [
				{
					"internalType": "uint256",
					"name": "_student_id",
					"type": "uint256"
				},
				{
					"internalType": "uint256",
					"name": "_exam_id",
					"type": "uint256"
				}
			],
			"name": "getReviewRequest",
			"outputs": [
				{
					"components": [
						{
							"internalType": "uint256",
							"name": "student_id",
							"type": "uint256"
						},
						{
							"internalType": "uint256",
							"name": "exam_id",
							"type": "uint256"
						},
						{
							"internalType": "uint256",
							"name": "request_date",
							"type": "uint256"
						},
						{
							"internalType": "string",
							"name": "status",
							"type": "string"
						},
						{
							"internalType": "uint256",
							"name": "old_score",
							"type": "uint256"
						},
						{
							"internalType": "uint256",
							"name": "new_score",
							"type": "uint256"
						},
						{
							"internalType": "string",
							"name": "reason",
							"type": "string"
						},
						{
							"internalType": "address",
							"name": "reviewer",
							"type": "address"
						},
						{
							"internalType": "uint256",
							"name": "reviewed_at",
							"type": "uint256"
						},
						{
							"internalType": "bool",
							"name": "is_processed",
							"type": "bool"
						}
					],
					"internalType": "struct DZReviewManager.ReviewRequest",
					"name": "",
					"type": "tuple"
				}
			],
			"stateMutability": "view",
			"type": "function"
		},
		{
			"inputs": [
				{
					"internalType": "uint256",
					"name": "_student_id",
					"type": "uint256"
				},
				{
					"internalType": "uint256",
					"name": "_exam_id",
					"type": "uint256"
				}
			],
			"name": "getScore",
			"outputs": [
				{
					"internalType": "uint256",
					"name": "student_id",
					"type": "uint256"
				},
				{
					"internalType": "uint256",
					"name": "exam_id",
					"type": "uint256"
				},
				{
					"internalType": "uint256",
					"name": "score",
					"type": "uint256"
				},
				{
					"internalType": "address",
					"name": "graded_by",
					"type": "address"
				},
				{
					"internalType": "uint256",
					"name": "created_at",
					"type": "uint256"
				},
				{
					"internalType": "uint256",
					"name": "updated_at",
					"type": "uint256"
				},
				{
					"internalType": "bool",
					"name": "is_final",
					"type": "bool"
				}
			],
			"stateMutability": "view",
			"type": "function"
		},
		{
			"inputs": [
				{
					"internalType": "uint256",
					"name": "_student_id",
					"type": "uint256"
				}
			],
			"name": "getStudentAddress",
			"outputs": [
				{
					"internalType": "address",
					"name": "",
					"type": "address"
				}
			],
			"stateMutability": "view",
			"type": "function"
		},
		{
			"inputs": [
				{
					"internalType": "uint256",
					"name": "_student_id",
					"type": "uint256"
				},
				{
					"internalType": "uint256",
					"name": "_exam_id",
					"type": "uint256"
				}
			],
			"name": "getStudentAnswer",
			"outputs": [
				{
					"components": [
						{
							"internalType": "uint256",
							"name": "student_id",
							"type": "uint256"
						},
						{
							"internalType": "uint256",
							"name": "exam_id",
							"type": "uint256"
						},
						{
							"internalType": "string",
							"name": "content",
							"type": "string"
						},
						{
							"internalType": "uint256",
							"name": "score",
							"type": "uint256"
						},
						{
							"internalType": "uint256",
							"name": "submitted_at",
							"type": "uint256"
						},
						{
							"internalType": "address",
							"name": "submitted_by",
							"type": "address"
						},
						{
							"internalType": "uint256",
							"name": "scored_at",
							"type": "uint256"
						},
						{
							"internalType": "address",
							"name": "scored_by",
							"type": "address"
						},
						{
							"internalType": "bool",
							"name": "is_submitted",
							"type": "bool"
						},
						{
							"internalType": "bool",
							"name": "is_scored",
							"type": "bool"
						}
					],
					"internalType": "struct DZStudentAnswer.StudentAnswer",
					"name": "",
					"type": "tuple"
				}
			],
			"stateMutability": "view",
			"type": "function"
		},
		{
			"inputs": [
				{
					"internalType": "address",
					"name": "_address",
					"type": "address"
				}
			],
			"name": "getStudentIdByAddress",
			"outputs": [
				{
					"internalType": "uint256",
					"name": "",
					"type": "uint256"
				}
			],
			"stateMutability": "view",
			"type": "function"
		},
		{
			"inputs": [
				{
					"internalType": "uint256",
					"name": "_test_id",
					"type": "uint256"
				}
			],
			"name": "getTest",
			"outputs": [
				{
					"internalType": "uint256",
					"name": "test_id",
					"type": "uint256"
				},
				{
					"internalType": "uint256",
					"name": "id_created_by",
					"type": "uint256"
				},
				{
					"internalType": "uint256",
					"name": "created_at",
					"type": "uint256"
				},
				{
					"internalType": "bool",
					"name": "is_blocked",
					"type": "bool"
				},
				{
					"internalType": "bool",
					"name": "is_active",
					"type": "bool"
				}
			],
			"stateMutability": "view",
			"type": "function"
		},
		{
			"inputs": [
				{
					"internalType": "uint256",
					"name": "_entity_id",
					"type": "uint256"
				}
			],
			"name": "getTraceCount",
			"outputs": [
				{
					"internalType": "uint256",
					"name": "",
					"type": "uint256"
				}
			],
			"stateMutability": "view",
			"type": "function"
		},
		{
			"inputs": [
				{
					"internalType": "uint256",
					"name": "_entity_id",
					"type": "uint256"
				}
			],
			"name": "getTraces",
			"outputs": [
				{
					"components": [
						{
							"internalType": "uint256",
							"name": "timestamp",
							"type": "uint256"
						},
						{
							"internalType": "address",
							"name": "caller",
							"type": "address"
						},
						{
							"internalType": "string",
							"name": "action",
							"type": "string"
						},
						{
							"internalType": "uint256",
							"name": "target_id",
							"type": "uint256"
						},
						{
							"internalType": "string",
							"name": "details",
							"type": "string"
						}
					],
					"internalType": "struct DZTraceLogger.TraceRecord[]",
					"name": "",
					"type": "tuple[]"
				}
			],
			"stateMutability": "view",
			"type": "function"
		},
		{
			"inputs": [
				{
					"internalType": "uint256",
					"name": "_user_id",
					"type": "uint256"
				}
			],
			"name": "getUserTests",
			"outputs": [
				{
					"internalType": "uint256[]",
					"name": "",
					"type": "uint256[]"
				}
			],
			"stateMutability": "view",
			"type": "function"
		},
		{
			"inputs": [
				{
					"internalType": "address",
					"name": "account",
					"type": "address"
				}
			],
			"name": "grantEmployerRole",
			"outputs": [],
			"stateMutability": "nonpayable",
			"type": "function"
		},
		{
			"inputs": [
				{
					"internalType": "address",
					"name": "account",
					"type": "address"
				}
			],
			"name": "grantLecturerRole",
			"outputs": [],
			"stateMutability": "nonpayable",
			"type": "function"
		},
		{
			"inputs": [
				{
					"internalType": "bytes32",
					"name": "role",
					"type": "bytes32"
				},
				{
					"internalType": "address",
					"name": "account",
					"type": "address"
				}
			],
			"name": "grantRole",
			"outputs": [],
			"stateMutability": "nonpayable",
			"type": "function"
		},
		{
			"inputs": [
				{
					"internalType": "address",
					"name": "account",
					"type": "address"
				}
			],
			"name": "grantStudentRole",
			"outputs": [],
			"stateMutability": "nonpayable",
			"type": "function"
		},
		{
			"inputs": [
				{
					"internalType": "bytes32",
					"name": "role",
					"type": "bytes32"
				},
				{
					"internalType": "address",
					"name": "account",
					"type": "address"
				}
			],
			"name": "hasRole",
			"outputs": [
				{
					"internalType": "bool",
					"name": "",
					"type": "bool"
				}
			],
			"stateMutability": "view",
			"type": "function"
		},
		{
			"inputs": [
				{
					"internalType": "uint256",
					"name": "_student_id",
					"type": "uint256"
				},
				{
					"internalType": "uint256",
					"name": "_exam_id",
					"type": "uint256"
				}
			],
			"name": "hasSubmittedAnswer",
			"outputs": [
				{
					"internalType": "bool",
					"name": "",
					"type": "bool"
				}
			],
			"stateMutability": "view",
			"type": "function"
		},
		{
			"inputs": [
				{
					"internalType": "uint256",
					"name": "_student_id",
					"type": "uint256"
				},
				{
					"internalType": "uint256",
					"name": "_exam_id",
					"type": "uint256"
				},
				{
					"internalType": "string",
					"name": "_metadata_uri",
					"type": "string"
				}
			],
			"name": "issueCertificate",
			"outputs": [
				{
					"internalType": "uint256",
					"name": "",
					"type": "uint256"
				}
			],
			"stateMutability": "nonpayable",
			"type": "function"
		},
		{
			"inputs": [
				{
					"internalType": "address",
					"name": "",
					"type": "address"
				},
				{
					"internalType": "uint256",
					"name": "",
					"type": "uint256"
				}
			],
			"name": "lecturerExams",
			"outputs": [
				{
					"internalType": "uint256",
					"name": "",
					"type": "uint256"
				}
			],
			"stateMutability": "view",
			"type": "function"
		},
		{
			"inputs": [
				{
					"internalType": "uint256",
					"name": "_exam_id",
					"type": "uint256"
				}
			],
			"name": "lockExam",
			"outputs": [],
			"stateMutability": "nonpayable",
			"type": "function"
		},
		{
			"inputs": [],
			"name": "name",
			"outputs": [
				{
					"internalType": "string",
					"name": "",
					"type": "string"
				}
			],
			"stateMutability": "view",
			"type": "function"
		},
		{
			"inputs": [
				{
					"internalType": "uint256",
					"name": "tokenId",
					"type": "uint256"
				}
			],
			"name": "ownerOf",
			"outputs": [
				{
					"internalType": "address",
					"name": "",
					"type": "address"
				}
			],
			"stateMutability": "view",
			"type": "function"
		},
		{
			"inputs": [
				{
					"internalType": "uint256",
					"name": "_student_id",
					"type": "uint256"
				},
				{
					"internalType": "uint256",
					"name": "_exam_id",
					"type": "uint256"
				},
				{
					"internalType": "string",
					"name": "_review_status",
					"type": "string"
				},
				{
					"internalType": "uint256",
					"name": "_new_score",
					"type": "uint256"
				}
			],
			"name": "processReviewRequest",
			"outputs": [],
			"stateMutability": "nonpayable",
			"type": "function"
		},
		{
			"inputs": [
				{
					"internalType": "uint256",
					"name": "",
					"type": "uint256"
				},
				{
					"internalType": "uint256",
					"name": "",
					"type": "uint256"
				}
			],
			"name": "reviewRequests",
			"outputs": [
				{
					"internalType": "uint256",
					"name": "student_id",
					"type": "uint256"
				},
				{
					"internalType": "uint256",
					"name": "exam_id",
					"type": "uint256"
				},
				{
					"internalType": "uint256",
					"name": "request_date",
					"type": "uint256"
				},
				{
					"internalType": "string",
					"name": "status",
					"type": "string"
				},
				{
					"internalType": "uint256",
					"name": "old_score",
					"type": "uint256"
				},
				{
					"internalType": "uint256",
					"name": "new_score",
					"type": "uint256"
				},
				{
					"internalType": "string",
					"name": "reason",
					"type": "string"
				},
				{
					"internalType": "address",
					"name": "reviewer",
					"type": "address"
				},
				{
					"internalType": "uint256",
					"name": "reviewed_at",
					"type": "uint256"
				},
				{
					"internalType": "bool",
					"name": "is_processed",
					"type": "bool"
				}
			],
			"stateMutability": "view",
			"type": "function"
		},
		{
			"inputs": [
				{
					"internalType": "uint256",
					"name": "tokenId",
					"type": "uint256"
				}
			],
			"name": "revokeCertificate",
			"outputs": [],
			"stateMutability": "nonpayable",
			"type": "function"
		},
		{
			"inputs": [
				{
					"internalType": "address",
					"name": "account",
					"type": "address"
				}
			],
			"name": "revokeEmployerRole",
			"outputs": [],
			"stateMutability": "nonpayable",
			"type": "function"
		},
		{
			"inputs": [
				{
					"internalType": "address",
					"name": "account",
					"type": "address"
				}
			],
			"name": "revokeLecturerRole",
			"outputs": [],
			"stateMutability": "nonpayable",
			"type": "function"
		},
		{
			"inputs": [
				{
					"internalType": "bytes32",
					"name": "role",
					"type": "bytes32"
				},
				{
					"internalType": "address",
					"name": "account",
					"type": "address"
				}
			],
			"name": "revokeRole",
			"outputs": [],
			"stateMutability": "nonpayable",
			"type": "function"
		},
		{
			"inputs": [
				{
					"internalType": "address",
					"name": "account",
					"type": "address"
				}
			],
			"name": "revokeStudentRole",
			"outputs": [],
			"stateMutability": "nonpayable",
			"type": "function"
		},
		{
			"inputs": [
				{
					"internalType": "uint256",
					"name": "_student_id",
					"type": "uint256"
				},
				{
					"internalType": "uint256",
					"name": "_exam_id",
					"type": "uint256"
				},
				{
					"internalType": "uint256",
					"name": "_score",
					"type": "uint256"
				}
			],
			"name": "scoreAnswer",
			"outputs": [],
			"stateMutability": "nonpayable",
			"type": "function"
		},
		{
			"inputs": [
				{
					"internalType": "uint256",
					"name": "",
					"type": "uint256"
				},
				{
					"internalType": "uint256",
					"name": "",
					"type": "uint256"
				}
			],
			"name": "scores",
			"outputs": [
				{
					"internalType": "uint256",
					"name": "student_id",
					"type": "uint256"
				},
				{
					"internalType": "uint256",
					"name": "exam_id",
					"type": "uint256"
				},
				{
					"internalType": "uint256",
					"name": "score",
					"type": "uint256"
				},
				{
					"internalType": "address",
					"name": "graded_by",
					"type": "address"
				},
				{
					"internalType": "uint256",
					"name": "created_at",
					"type": "uint256"
				},
				{
					"internalType": "uint256",
					"name": "updated_at",
					"type": "uint256"
				},
				{
					"internalType": "bool",
					"name": "is_final",
					"type": "bool"
				}
			],
			"stateMutability": "view",
			"type": "function"
		},
		{
			"inputs": [
				{
					"internalType": "uint256",
					"name": "_student_id",
					"type": "uint256"
				},
				{
					"internalType": "address",
					"name": "_studentAddress",
					"type": "address"
				}
			],
			"name": "setStudentAddress",
			"outputs": [],
			"stateMutability": "nonpayable",
			"type": "function"
		},
		{
			"inputs": [
				{
					"internalType": "string",
					"name": "_hash",
					"type": "string"
				},
				{
					"internalType": "uint256",
					"name": "_exam_id",
					"type": "uint256"
				}
			],
			"name": "storeExam",
			"outputs": [
				{
					"internalType": "string",
					"name": "hash",
					"type": "string"
				},
				{
					"internalType": "uint256",
					"name": "exam_id",
					"type": "uint256"
				},
				{
					"internalType": "address",
					"name": "created_by",
					"type": "address"
				},
				{
					"internalType": "uint256",
					"name": "created_at",
					"type": "uint256"
				},
				{
					"internalType": "bool",
					"name": "is_active",
					"type": "bool"
				}
			],
			"stateMutability": "nonpayable",
			"type": "function"
		},
		{
			"inputs": [
				{
					"internalType": "uint256",
					"name": "_student_id",
					"type": "uint256"
				},
				{
					"internalType": "uint256",
					"name": "_exam_id",
					"type": "uint256"
				},
				{
					"internalType": "string",
					"name": "_reason",
					"type": "string"
				}
			],
			"name": "storeReviewRequest",
			"outputs": [],
			"stateMutability": "nonpayable",
			"type": "function"
		},
		{
			"inputs": [
				{
					"internalType": "uint256",
					"name": "_student_id",
					"type": "uint256"
				},
				{
					"internalType": "uint256",
					"name": "_exam_id",
					"type": "uint256"
				},
				{
					"internalType": "uint256",
					"name": "_score",
					"type": "uint256"
				}
			],
			"name": "storeScore",
			"outputs": [],
			"stateMutability": "nonpayable",
			"type": "function"
		},
		{
			"inputs": [
				{
					"internalType": "uint256",
					"name": "",
					"type": "uint256"
				}
			],
			"name": "studentAddresses",
			"outputs": [
				{
					"internalType": "address",
					"name": "",
					"type": "address"
				}
			],
			"stateMutability": "view",
			"type": "function"
		},
		{
			"inputs": [
				{
					"internalType": "uint256",
					"name": "",
					"type": "uint256"
				},
				{
					"internalType": "uint256",
					"name": "",
					"type": "uint256"
				}
			],
			"name": "studentAnswers",
			"outputs": [
				{
					"internalType": "uint256",
					"name": "student_id",
					"type": "uint256"
				},
				{
					"internalType": "uint256",
					"name": "exam_id",
					"type": "uint256"
				},
				{
					"internalType": "string",
					"name": "content",
					"type": "string"
				},
				{
					"internalType": "uint256",
					"name": "score",
					"type": "uint256"
				},
				{
					"internalType": "uint256",
					"name": "submitted_at",
					"type": "uint256"
				},
				{
					"internalType": "address",
					"name": "submitted_by",
					"type": "address"
				},
				{
					"internalType": "uint256",
					"name": "scored_at",
					"type": "uint256"
				},
				{
					"internalType": "address",
					"name": "scored_by",
					"type": "address"
				},
				{
					"internalType": "bool",
					"name": "is_submitted",
					"type": "bool"
				},
				{
					"internalType": "bool",
					"name": "is_scored",
					"type": "bool"
				}
			],
			"stateMutability": "view",
			"type": "function"
		},
		{
			"inputs": [
				{
					"internalType": "uint256",
					"name": "",
					"type": "uint256"
				},
				{
					"internalType": "uint256",
					"name": "",
					"type": "uint256"
				}
			],
			"name": "studentCertificates",
			"outputs": [
				{
					"internalType": "uint256",
					"name": "",
					"type": "uint256"
				}
			],
			"stateMutability": "view",
			"type": "function"
		},
		{
			"inputs": [
				{
					"internalType": "uint256",
					"name": "_student_id",
					"type": "uint256"
				},
				{
					"internalType": "uint256",
					"name": "_exam_id",
					"type": "uint256"
				},
				{
					"internalType": "string",
					"name": "_content",
					"type": "string"
				}
			],
			"name": "submitAnswer",
			"outputs": [],
			"stateMutability": "nonpayable",
			"type": "function"
		},
		{
			"inputs": [
				{
					"internalType": "uint256",
					"name": "_exam_id",
					"type": "uint256"
				},
				{
					"internalType": "string",
					"name": "_content",
					"type": "string"
				}
			],
			"name": "submitMyAnswer",
			"outputs": [],
			"stateMutability": "nonpayable",
			"type": "function"
		},
		{
			"inputs": [],
			"name": "symbol",
			"outputs": [
				{
					"internalType": "string",
					"name": "",
					"type": "string"
				}
			],
			"stateMutability": "view",
			"type": "function"
		},
		{
			"inputs": [
				{
					"internalType": "uint256",
					"name": "",
					"type": "uint256"
				}
			],
			"name": "tests",
			"outputs": [
				{
					"internalType": "uint256",
					"name": "test_id",
					"type": "uint256"
				},
				{
					"internalType": "uint256",
					"name": "id_created_by",
					"type": "uint256"
				},
				{
					"internalType": "uint256",
					"name": "created_at",
					"type": "uint256"
				},
				{
					"internalType": "bool",
					"name": "is_blocked",
					"type": "bool"
				},
				{
					"internalType": "bool",
					"name": "is_active",
					"type": "bool"
				}
			],
			"stateMutability": "view",
			"type": "function"
		},
		{
			"inputs": [
				{
					"internalType": "uint256",
					"name": "tokenId",
					"type": "uint256"
				}
			],
			"name": "tokenURI",
			"outputs": [
				{
					"internalType": "string",
					"name": "",
					"type": "string"
				}
			],
			"stateMutability": "view",
			"type": "function"
		},
		{
			"inputs": [
				{
					"internalType": "uint256",
					"name": "",
					"type": "uint256"
				},
				{
					"internalType": "uint256",
					"name": "",
					"type": "uint256"
				}
			],
			"name": "traces",
			"outputs": [
				{
					"internalType": "uint256",
					"name": "timestamp",
					"type": "uint256"
				},
				{
					"internalType": "address",
					"name": "caller",
					"type": "address"
				},
				{
					"internalType": "string",
					"name": "action",
					"type": "string"
				},
				{
					"internalType": "uint256",
					"name": "target_id",
					"type": "uint256"
				},
				{
					"internalType": "string",
					"name": "details",
					"type": "string"
				}
			],
			"stateMutability": "view",
			"type": "function"
		},
		{
			"inputs": [
				{
					"internalType": "uint256",
					"name": "_test_id",
					"type": "uint256"
				}
			],
			"name": "unblockTest",
			"outputs": [],
			"stateMutability": "nonpayable",
			"type": "function"
		},
		{
			"inputs": [
				{
					"internalType": "uint256",
					"name": "_student_id",
					"type": "uint256"
				},
				{
					"internalType": "uint256",
					"name": "_exam_id",
					"type": "uint256"
				},
				{
					"internalType": "uint256",
					"name": "_new_score",
					"type": "uint256"
				}
			],
			"name": "updateAnswerScore",
			"outputs": [],
			"stateMutability": "nonpayable",
			"type": "function"
		},
		{
			"inputs": [
				{
					"internalType": "uint256",
					"name": "_student_id",
					"type": "uint256"
				},
				{
					"internalType": "uint256",
					"name": "_exam_id",
					"type": "uint256"
				},
				{
					"internalType": "uint256",
					"name": "_new_score",
					"type": "uint256"
				}
			],
			"name": "updateScore",
			"outputs": [],
			"stateMutability": "nonpayable",
			"type": "function"
		},
		{
			"inputs": [
				{
					"internalType": "uint256",
					"name": "_student_id",
					"type": "uint256"
				},
				{
					"internalType": "address",
					"name": "_newAddress",
					"type": "address"
				}
			],
			"name": "updateStudentAddress",
			"outputs": [],
			"stateMutability": "nonpayable",
			"type": "function"
		},
		{
			"inputs": [
				{
					"internalType": "uint256",
					"name": "",
					"type": "uint256"
				},
				{
					"internalType": "uint256",
					"name": "",
					"type": "uint256"
				}
			],
			"name": "userTests",
			"outputs": [
				{
					"internalType": "uint256",
					"name": "",
					"type": "uint256"
				}
			],
			"stateMutability": "view",
			"type": "function"
		},
		{
			"inputs": [
				{
					"internalType": "uint256",
					"name": "tokenId",
					"type": "uint256"
				}
			],
			"name": "verifyCertificate",
			"outputs": [
				{
					"components": [
						{
							"internalType": "uint256",
							"name": "tokenId",
							"type": "uint256"
						},
						{
							"internalType": "uint256",
							"name": "student_id",
							"type": "uint256"
						},
						{
							"internalType": "uint256",
							"name": "exam_id",
							"type": "uint256"
						},
						{
							"internalType": "uint256",
							"name": "score",
							"type": "uint256"
						},
						{
							"internalType": "string",
							"name": "metadata_uri",
							"type": "string"
						},
						{
							"internalType": "uint256",
							"name": "issued_at",
							"type": "uint256"
						},
						{
							"internalType": "address",
							"name": "issued_by",
							"type": "address"
						},
						{
							"internalType": "bool",
							"name": "is_valid",
							"type": "bool"
						}
					],
					"internalType": "struct DZCertificate.Certificate",
					"name": "",
					"type": "tuple"
				}
			],
			"stateMutability": "view",
			"type": "function"
		}
	]
}