{
	"data": {
		"bytecode": {
			"linkReferences": {},
			"object": "60c0604052601860809081527f445a426c6f636b436861696e204365727469666963617465000000000000000060a05260099061003c908261025c565b50604080518082019091526004815263445a424360e01b6020820152600a90610065908261025c565b50348015610071575f5ffd5b5061007b33610080565b610316565b61008a5f82610144565b6100a15f516020614f275f395f51905f5282610144565b5060016020525f516020614f275f395f51905f527f595c59303185d6018b57f7a342d2cbf9f9ac9bd599c2e6f1918108e6144ec4388190557f370a7df9accbb111e01ac14b81700c489619f4774b1e81a53cb39f158ec8436a8190557ffc7c36207174f786648d2e624616a4b40e15fd7f0268b4e36af5057f0c43c8355f527f6607ae9cbcc1dbd33a501ec84e0aa7b9ead733f39dab8f64d06b6e48f9e71b3f55565b5f828152602081815260408083206001600160a01b038516845290915290205460ff166101c0575f828152602081815260408083206001600160a01b0385168085529252808320805460ff1916600117905551339285917f2f8788117e7eff1d82e926ec794901d17c78024a50270940304540a733656f0d9190a45b5050565b634e487b7160e01b5f52604160045260245ffd5b600181811c908216806101ec57607f821691505b60208210810361020a57634e487b7160e01b5f52602260045260245ffd5b50919050565b601f82111561025757805f5260205f20601f840160051c810160208510156102355750805b601f840160051c820191505b81811015610254575f8155600101610241565b50505b505050565b81516001600160401b03811115610275576102756101c4565b6102898161028384546101d8565b84610210565b6020601f8211600181146102bb575f83156102a45750848201515b5f19600385901b1c1916600184901b178455610254565b5f84815260208120601f198516915b828110156102ea57878501518255602094850194600190920191016102ca565b508482101561030757868401515f19600387901b60f8161c191681555b50505050600190811b01905550565b614c04806103235f395ff3fe608060405234801561000f575f5ffd5b506004361061039e575f3560e01c806395d89b41116101ea578063c9b1e02711610114578063edef019d116100a9578063f7be43fb11610079578063f7be43fb14610a5a578063f97563d514610a6e578063fa8d3cca14610a81578063fc9b39e614610aab575f5ffd5b8063edef019d146109fd578063eeed250314610a10578063f1b23d7f14610a34578063f1c4731c14610a47575f5ffd5b8063d547741f116100e4578063d547741f146108f6578063dd25514814610909578063de22c8d414610969578063e67651ac146109d5575f5ffd5b8063c9b1e027146108aa578063cd79e42f146108bd578063d27fc520146108d0578063d4f45061146108e3575f5ffd5b8063adc6ba731161018a578063bd2892171161015a578063bd2892171461085e578063c54164d414610871578063c87b56dd14610884578063c94d10ad14610897575f5ffd5b8063adc6ba731461073e578063b5ab682d14610810578063b8535a1114610838578063b8d784661461084b575f5ffd5b8063a217fddf116101c5578063a217fddf146106ed578063a26ea890146106f4578063a486ab3514610707578063aa1f80a51461072b575f5ffd5b806395d89b41146106bf57806397bb03ba146106c757806399532f60146106da575f5ffd5b80633f0a92fb116102cb57806370a082311161026b5780637f5af8101161023b5780637f5af8101461064257806380ab3dda1461065557806386c344151461067d57806391d148541461069c575f5ffd5b806370a08231146105f557806375b238fc14610608578063767cdbd81461061c5780637c953e6e1461062f575f5ffd5b80636352211e116102a65780636352211e1461057d578063663b3e22146105a857806366b2d280146105cf5780636a0d2892146105e2575f5ffd5b80633f0a92fb146105325780633f576247146105455780634198cb3f14610558575f5ffd5b80631eb2c396116103415780632f2ff15d116103115780632f2ff15d146104cd57806332b3c846146104e0578063361ef2bd146104f35780633bf82f3214610513575f5ffd5b80631eb2c396146104665780631fa63aa3146104865780632426bb38146104a65780632ea0d829146104ba575f5ffd5b80630713eb021161037c5780630713eb02146103fe57806316853feb146104205780631692a942146104335780631d3e15ff14610453575f5ffd5b8063036713be146103a257806306f5497e146103d457806306fdde03146103e9575b5f5ffd5b6103b56103b036600461412b565b610abe565b6040516103cb9a99989796959493929190614179565b60405180910390f35b6103e76103e23660046141ed565b610c34565b005b6103f1610d13565b6040516103cb9190614204565b6104125f516020614b6f5f395f51905f5281565b6040519081526020016103cb565b6103e761042e366004614238565b610da3565b6104466104413660046141ed565b610df2565b6040516103cb9190614251565b6103e761046136600461412b565b610f98565b6104796104743660046141ed565b611177565b6040516103cb91906142cb565b61049961049436600461412b565b611377565b6040516103cb919061437b565b6104125f516020614b8f5f395f51905f5281565b6103e76104c8366004614238565b6115bf565b6103e76104db36600461442f565b61160a565b6103e76104ee366004614238565b611640565b6105066105013660046141ed565b61168b565b6040516103cb9190614459565b6104126105213660046141ed565b5f9081526012602052604090205490565b6103e761054036600461449b565b6116ea565b6103e76105533660046141ed565b6118a5565b61056b6105663660046141ed565b6119af565b6040516103cb969594939291906144c4565b61059061058b3660046141ed565b611a79565b6040516001600160a01b0390911681526020016103cb565b6105bb6105b63660046141ed565b611ad1565b6040516103cb98979695949392919061450c565b6103e76105dd366004614238565b611ba8565b6103e76105f036600461442f565b611bf3565b610412610603366004614238565b611d8b565b6104125f516020614baf5f395f51905f5281565b61041261062a366004614563565b611dcd565b6103e761063d36600461449b565b611df8565b610506610650366004614238565b611ff3565b610412610663366004614238565b6001600160a01b03165f9081526003602052604090205490565b61041261068b366004614238565b60036020525f908152604090205481565b6106af6106aa36600461442f565b6120da565b60405190151581526020016103cb565b6103f1612102565b6103e76106d536600461462a565b612111565b6104466106e836600461412b565b6121aa565b6104125f81565b6105066107023660046141ed565b6123a4565b61071a61071536600461466e565b612451565b6040516103cb9594939291906146b0565b61041261073936600461412b565b6126b2565b6107d161074c36600461412b565b5f91825260066020818152604080852093855292815292829020825160e08101845281548082526001830154958201869052600283015494820185905260038301546001600160a01b031660608301819052600484015460808401819052600585015460a08501819052949095015460ff16151560c090930183905290969093929190565b604080519788526020880196909652948601939093526001600160a01b039091166060850152608084015260a0830152151560c082015260e0016103cb565b61059061081e3660046141ed565b60026020525f90815260409020546001600160a01b031681565b6104126108463660046146f1565b6126cb565b6103e76108593660046141ed565b612a0a565b61044661086c36600461412b565b612b9b565b6103e761087f3660046141ed565b612c38565b6103f16108923660046141ed565b612d3d565b6103e76108a5366004614238565b612e2e565b6103e76108b83660046146f1565b612e79565b6103e76108cb36600461412b565b6131be565b6103e76108de36600461442f565b61333b565b6104996108f13660046141ed565b6134b5565b6103e761090436600461442f565b6136f6565b6107d161091736600461412b565b600660208181525f9384526040808520909152918352912080546001820154600283015460038401546004850154600586015495909601549395929491936001600160a01b0390911692919060ff1687565b6109a96109773660046141ed565b60146020525f908152604090208054600182015460028301546003909301549192909160ff8082169161010090041685565b60408051958652602086019490945292840191909152151560608301521515608082015260a0016103cb565b6105906109e33660046141ed565b5f908152600260205260409020546001600160a01b031690565b6109a9610a0b3660046141ed565b613727565b610a23610a1e36600461412b565b6137c7565b6040516103cb95949392919061473d565b610412610a4236600461412b565b613929565b6103e7610a5536600461478a565b613942565b6104125f516020614b4f5f395f51905f5281565b61056b610a7c3660046141ed565b613d11565b610412610a8f36600461412b565b600d60209081525f928352604080842090915290825290205481565b6103e7610ab9366004614238565b613e49565b6008602052815f5260405f20602052805f5260405f205f9150915050805f015490806001015490806002015490806003018054610afa906147de565b80601f0160208091040260200160405190810160405280929190818152602001828054610b26906147de565b8015610b715780601f10610b4857610100808354040283529160200191610b71565b820191905f5260205f20905b815481529060010190602001808311610b5457829003601f168201915b505050505090806004015490806005015490806006018054610b92906147de565b80601f0160208091040260200160405190810160405280929190818152602001828054610bbe906147de565b8015610c095780601f10610be057610100808354040283529160200191610c09565b820191905f5260205f20905b815481529060010190602001808311610bec57829003601f168201915b505050506007830154600884015460099094015492936001600160a01b039091169290915060ff168a565b5f516020614baf5f395f51905f52610c4c81336120da565b610c715760405162461bcd60e51b8152600401610c6890614810565b60405180910390fd5b5f828152600c6020526040902060060154600160a01b900460ff16610cca5760405162461bcd60e51b815260206004820152600f60248201526e105b1c9958591e481c995d9bdad959608a1b6044820152606401610c68565b5f828152600c6020526040808220600601805460ff60a01b1916905551339184917f325c62e70cfaa61cf0709d9607ea9d8451b235297c4b47c65ff6a6449c9faca49190a35050565b606060098054610d22906147de565b80601f0160208091040260200160405190810160405280929190818152602001828054610d4e906147de565b8015610d995780601f10610d7057610100808354040283529160200191610d99565b820191905f5260205f20905b815481529060010190602001808311610d7c57829003601f168201915b5050505050905090565b5f516020614baf5f395f51905f52610dbb81336120da565b610dd75760405162461bcd60e51b8152600401610c6890614810565b610dee5f516020614b8f5f395f51905f5283613e94565b5050565b610dfa61408c565b5f516020614b8f5f395f51905f52610e1281336120da565b610e2e5760405162461bcd60e51b8152600401610c6890614810565b5f838152600c6020526040902060060154600160a01b900460ff16610e8b5760405162461bcd60e51b8152602060048201526013602482015272496e76616c696420636572746966696361746560681b6044820152606401610c68565b600c5f8481526020019081526020015f20604051806101000160405290815f8201548152602001600182015481526020016002820154815260200160038201548152602001600482018054610edf906147de565b80601f0160208091040260200160405190810160405280929190818152602001828054610f0b906147de565b8015610f565780601f10610f2d57610100808354040283529160200191610f56565b820191905f5260205f20905b815481529060010190602001808311610f3957829003601f168201915b5050509183525050600582015460208201526006909101546001600160a01b0381166040830152600160a01b900460ff16151560609091015291505b50919050565b5f516020614baf5f395f51905f52610fb081336120da565b610fcc5760405162461bcd60e51b8152600401610c6890614810565b5f831161100d5760405162461bcd60e51b815260206004820152600f60248201526e125b9d985b1a59081d195cdd081251608a1b6044820152606401610c68565b5f82116110515760405162461bcd60e51b8152602060048201526012602482015271125b9d985b1a590818dc99585d1bdc88125160721b6044820152606401610c68565b5f83815260146020526040902060030154610100900460ff16156110ad5760405162461bcd60e51b81526020600482015260136024820152725465737420616c72656164792065786973747360681b6044820152606401610c68565b6040805160a0810182528481526020808201858152428385018181525f606086018181526001608088018181528c84526014885289842098518955955188820155925160028801555160039096018054945115156101000261ff00199715159790971661ffff1990951694909417959095179092558684526015835284842080549283018155845292829020018690559151908152839185917f7362a05daff7a219173125fc58b18f322f2e8b7e19dd728e5d5526716858db6191015b60405180910390a3505050565b60606111905f516020614baf5f395f51905f52336120da565b806111ad57506111ad5f516020614b6f5f395f51905f52336120da565b6111c95760405162461bcd60e51b8152600401610c6890614810565b5f82815260126020908152604080832080548251818502810185019093528083529193909284015b8282101561136c575f8481526020908190206040805160a081018252600586029092018054835260018101546001600160a01b03169383019390935260028301805492939291840191611243906147de565b80601f016020809104026020016040519081016040528092919081815260200182805461126f906147de565b80156112ba5780601f10611291576101008083540402835291602001916112ba565b820191905f5260205f20905b81548152906001019060200180831161129d57829003601f168201915b50505050508152602001600382015481526020016004820180546112dd906147de565b80601f0160208091040260200160405190810160405280929190818152602001828054611309906147de565b80156113545780601f1061132b57610100808354040283529160200191611354565b820191905f5260205f20905b81548152906001019060200180831161133757829003601f168201915b505050505081525050815260200190600101906111f1565b505050509050919050565b61137f6140d5565b6113965f516020614b6f5f395f51905f52336120da565b806113b357506113b35f516020614baf5f395f51905f52336120da565b806113f057505f838152600260205260409020546001600160a01b0316331480156113f057506113f05f516020614b4f5f395f51905f52336120da565b61140c5760405162461bcd60e51b8152600401610c6890614810565b60085f8481526020019081526020015f205f8381526020019081526020015f20604051806101400160405290815f82015481526020016001820154815260200160028201548152602001600382018054611465906147de565b80601f0160208091040260200160405190810160405280929190818152602001828054611491906147de565b80156114dc5780601f106114b3576101008083540402835291602001916114dc565b820191905f5260205f20905b8154815290600101906020018083116114bf57829003601f168201915b505050505081526020016004820154815260200160058201548152602001600682018054611509906147de565b80601f0160208091040260200160405190810160405280929190818152602001828054611535906147de565b80156115805780601f1061155757610100808354040283529160200191611580565b820191905f5260205f20905b81548152906001019060200180831161156357829003601f168201915b505050918352505060078201546001600160a01b031660208201526008820154604082015260099091015460ff16151560609091015290505b92915050565b5f516020614baf5f395f51905f526115d781336120da565b6115f35760405162461bcd60e51b8152600401610c6890614810565b610dee5f516020614b8f5f395f51905f5283613efa565b5f61161581336120da565b6116315760405162461bcd60e51b8152600401610c6890614810565b61163b8383613e94565b505050565b5f516020614baf5f395f51905f5261165881336120da565b6116745760405162461bcd60e51b8152600401610c6890614810565b610dee5f516020614b4f5f395f51905f5283613efa565b5f818152601560209081526040918290208054835181840281018401909452808452606093928301828280156116de57602002820191905f5260205f20905b8154815260200190600101908083116116ca575b50505050509050919050565b5f516020614b6f5f395f51905f5261170281336120da565b61171e5760405162461bcd60e51b8152600401610c6890614810565b5f8381526004602081905260409091200154610100900460ff166117545760405162461bcd60e51b8152600401610c6890614837565b60648211156117755760405162461bcd60e51b8152600401610c6890614864565b5f84815260066020908152604080832086845290915281205490036117d35760405162461bcd60e51b815260206004820152601460248201527314d8dbdc9948191bd95cc81b9bdd08195e1a5cdd60621b6044820152606401610c68565b5f848152600660208181526040808420878552909152909120015460ff16156118335760405162461bcd60e51b815260206004820152601260248201527114d8dbdc99481a5cc8199a5b985b1a5e995960721b6044820152606401610c68565b5f84815260066020908152604080832086845282529182902060028101805490869055426005909201919091558251818152918201859052913391869188917fafca19e7338b80a137bdd94e7b2ec35d7d842cc5c4d91a3576d97135e9de063d91015b60405180910390a45050505050565b5f516020614baf5f395f51905f526118bd81336120da565b6118d95760405162461bcd60e51b8152600401610c6890614810565b5f82815260146020526040902060030154610100900460ff1661190e5760405162461bcd60e51b8152600401610c6890614892565b5f8281526014602052604090206003015460ff16156119665760405162461bcd60e51b815260206004820152601460248201527315195cdd08185b1c9958591e48189b1bd8dad95960621b6044820152606401610c68565b5f82815260146020526040808220600301805460ff1916600117905551339184917fe63354374974d42e2a4930c5c063d6b47516e4000f1e651731247d2e7053920c9190a35050565b60046020525f90815260409020805481906119c9906147de565b80601f01602080910402602001604051908101604052809291908181526020018280546119f5906147de565b8015611a405780601f10611a1757610100808354040283529160200191611a40565b820191905f5260205f20905b815481529060010190602001808311611a2357829003601f168201915b50505050600183015460028401546003850154600490950154939491936001600160a01b03909116925060ff8082169161010090041686565b5f818152600e60205260408120546001600160a01b0316806115b95760405162461bcd60e51b81526020600482015260116024820152702737b732bc34b9ba32b73a103a37b5b2b760791b6044820152606401610c68565b600c6020525f9081526040902080546001820154600283015460038401546004850180549495939492939192611b06906147de565b80601f0160208091040260200160405190810160405280929190818152602001828054611b32906147de565b8015611b7d5780601f10611b5457610100808354040283529160200191611b7d565b820191905f5260205f20905b815481529060010190602001808311611b6057829003601f168201915b5050505060058301546006909301549192916001600160a01b0381169150600160a01b900460ff1688565b5f516020614baf5f395f51905f52611bc081336120da565b611bdc5760405162461bcd60e51b8152600401610c6890614810565b610dee5f516020614b6f5f395f51905f5283613e94565b5f516020614baf5f395f51905f52611c0b81336120da565b611c275760405162461bcd60e51b8152600401610c6890614810565b5f8311611c465760405162461bcd60e51b8152600401610c68906148bf565b6001600160a01b038216611c6c5760405162461bcd60e51b8152600401610c68906148eb565b5f838152600260205260409020546001600160a01b0316611ccf5760405162461bcd60e51b815260206004820152601760248201527f53747564656e742061646472657373206e6f74207365740000000000000000006044820152606401610c68565b6001600160a01b0382165f9081526003602052604090205415611d045760405162461bcd60e51b8152600401610c6890614914565b5f83815260026020908152604080832080546001600160a01b039081168086526003855283862086905582546001600160a01b031916918816918217909255808552938290208790559051338152909291839187917f59e33f3654f744a7a32cda9a919fa879941875bb700d1c776ade2f64e23b464991015b60405180910390a450505050565b5f6001600160a01b038216611db25760405162461bcd60e51b8152600401610c68906148eb565b506001600160a01b03165f908152600f602052604090205490565b6005602052815f5260405f208181548110611de6575f80fd5b905f5260205f20015f91509150505481565b5f516020614b6f5f395f51905f52611e1081336120da565b611e2c5760405162461bcd60e51b8152600401610c6890614810565b5f8381526004602081905260409091200154610100900460ff16611e625760405162461bcd60e51b8152600401610c6890614837565b6064821115611e835760405162461bcd60e51b8152600401610c6890614864565b5f8411611ea25760405162461bcd60e51b8152600401610c68906148bf565b5f84815260066020908152604080832086845290915290205415611eff5760405162461bcd60e51b815260206004820152601460248201527353636f726520616c72656164792065786973747360601b6044820152606401610c68565b6040805160e08101825285815260208082018681528284018681523360608501818152426080870181815260a088019182525f60c089018181528e82526006808a528b83208f84528a528b83209a518b5597516001808c0191909155965160028b0155935160038a0180546001600160a01b0319166001600160a01b039092169190911790559051600489015590516005880155905195909301805460ff19169515159590951790945560078352848220805491820181558252908290200187905591518481529091859187917efe563478d2112c66117b5a44add5a901b10f4b748d444a9308e738c3d3e2ca9101611d7d565b606061200c5f516020614b6f5f395f51905f52836120da565b8061202957506120295f516020614baf5f395f51905f52836120da565b6120755760405162461bcd60e51b815260206004820152601960248201527f41646472657373206973206e6f742061206c65637475726572000000000000006044820152606401610c68565b6001600160a01b0382165f90815260056020908152604091829020805483518184028101840190945280845290918301828280156116de57602002820191905f5260205f20908154815260200190600101908083116116ca5750505050509050919050565b5f918252602082815260408084206001600160a01b0393909316845291905290205460ff1690565b6060600a8054610d22906147de565b5f516020614b4f5f395f51905f5261212981336120da565b6121455760405162461bcd60e51b8152600401610c6890614810565b335f90815260036020526040902054806121995760405162461bcd60e51b815260206004820152601560248201527414dd1d59195b9d081251081b9bdd081b1a5b9ad959605a1b6044820152606401610c68565b6121a4818585612e79565b50505050565b6121b261408c565b5f516020614b4f5f395f51905f526121ca81336120da565b6121e65760405162461bcd60e51b8152600401610c6890614810565b5f848152600260205260409020546001600160a01b031633146122425760405162461bcd60e51b81526020600482015260146024820152734e6f7420796f757220636572746966696361746560601b6044820152606401610c68565b5f848152600d60209081526040808320868452909152812054908190036122975760405162461bcd60e51b8152602060048201526009602482015268139bdd08199bdd5b9960ba1b6044820152606401610c68565b600c5f8281526020019081526020015f20604051806101000160405290815f82015481526020016001820154815260200160028201548152602001600382015481526020016004820180546122eb906147de565b80601f0160208091040260200160405190810160405280929190818152602001828054612317906147de565b80156123625780601f1061233957610100808354040283529160200191612362565b820191905f5260205f20905b81548152906001019060200180831161234557829003601f168201915b5050509183525050600582015460208201526006909101546001600160a01b0381166040830152600160a01b900460ff16151560609091015295945050505050565b60606123bd5f516020614baf5f395f51905f52336120da565b806123da57506123da5f516020614b6f5f395f51905f52336120da565b6123f65760405162461bcd60e51b8152600401610c6890614810565b5f82815260076020908152604091829020805483518184028101840190945280845290918301828280156116de57602002820191905f5260205f20908154815260200190600101908083116116ca5750505050509050919050565b60605f5f5f5f5f516020614b6f5f395f51905f5261246f81336120da565b61248b5760405162461bcd60e51b8152600401610c6890614810565b5f87116124cc5760405162461bcd60e51b815260206004820152600f60248201526e125b9d985b1a5908195e185b481251608a1b6044820152606401610c68565b5f8851116125135760405162461bcd60e51b8152602060048201526014602482015273486173682063616e6e6f7420626520656d70747960601b6044820152606401610c68565b5f8781526004602081905260409091200154610100900460ff16156125705760405162461bcd60e51b81526020600482015260136024820152724578616d20616c72656164792065786973747360681b6044820152606401610c68565b6040805160c08101825289815260208082018a905233828401524260608301525f60808301819052600160a08401528a8152600490915291909120815181906125b990826149a8565b506020828101516001808401919091556040808501516002850180546001600160a01b039092166001600160a01b03199092169190911790556060850151600385015560808501516004909401805460a09096015115156101000261ff00199515159590951661ffff199096169590951793909317909355335f90815260058252918220805480850182559083529120018890556126579043614a77565b40336001600160a01b0316887f8b168dde777687beda31f8ad281fa67ebd897c29df397f83889b3a08b9b53a7e8b424360405161269693929190614a8a565b60405180910390a4509596949550339442945060019350915050565b6007602052815f5260405f208181548110611de6575f80fd5b5f5f516020614b6f5f395f51905f526126e481336120da565b6127005760405162461bcd60e51b8152600401610c6890614810565b5f8481526004602081905260409091200154610100900460ff166127365760405162461bcd60e51b8152600401610c6890614837565b5f858152600660208181526040808420888552909152909120015460ff166127965760405162461bcd60e51b815260206004820152601360248201527214d8dbdc99481b9bdd08199a5b985b1a5e9959606a1b6044820152606401610c68565b5f858152600d60209081526040808320878452909152902054156127fc5760405162461bcd60e51b815260206004820152601a60248201527f436572746966696361746520616c7265616479206578697374730000000000006044820152606401610c68565b5f858152600260205260409020546001600160a01b031661285f5760405162461bcd60e51b815260206004820152601760248201527f53747564656e742061646472657373206d697373696e670000000000000000006044820152606401610c68565b5f83511161289b5760405162461bcd60e51b815260206004820152600960248201526855524920656d70747960b81b6044820152606401610c68565b600b8054905f6128aa83614aae565b9091555050600b545f868152600260205260409020546001600160a01b03166128d38183613f5e565b604080516101008101825283815260208082018a81528284018a81525f8c8152600684528581208c8252845285812060029081015460608701908152608087018d81524260a08901523360c0890152600160e089018190528b8552600c9097529790922086518155935194840194909455905192820192909255905160038201559151909190600482019061296890826149a8565b5060a0820151600582015560c08201516006909101805460e0909301511515600160a01b026001600160a81b03199093166001600160a01b03909216919091179190911790555f878152600d6020908152604080832089845282529182902084905590513381528791899185917f8ac7002efa82d166d2ee18d556aa13a196bcc010f8c9622dd8c08d769ba03f04910160405180910390a45095945050505050565b612a215f516020614b6f5f395f51905f52336120da565b80612a3e5750612a3e5f516020614baf5f395f51905f52336120da565b612a8a5760405162461bcd60e51b815260206004820181905260248201527f43616c6c6572206d7573742062652061646d696e206f72206c656374757265726044820152606401610c68565b5f8181526004602081905260409091200154610100900460ff16612ac05760405162461bcd60e51b8152600401610c6890614837565b5f818152600460205260409020600201546001600160a01b0316331480612af95750612af95f516020614baf5f395f51905f52336120da565b612b515760405162461bcd60e51b815260206004820152602360248201527f4f6e6c79206578616d2063726561746f72206f722061646d696e2063616e206c6044820152626f636b60e81b6064820152608401610c68565b5f818152600460208190526040808320909101805460ff1916600117905551339183917f538044b65b113f681756f903257ff1744163f47a51ea8de3f4d081196d4e2d379190a350565b612ba361408c565b5f516020614b8f5f395f51905f52612bbb81336120da565b612bd75760405162461bcd60e51b8152600401610c6890614810565b5f848152600d60209081526040808320868452909152812054908190036122975760405162461bcd60e51b815260206004820152601560248201527410d95c9d1a599a58d85d19481b9bdd08199bdd5b99605a1b6044820152606401610c68565b5f516020614baf5f395f51905f52612c5081336120da565b612c6c5760405162461bcd60e51b8152600401610c6890614810565b5f82815260146020526040902060030154610100900460ff16612ca15760405162461bcd60e51b8152600401610c6890614892565b5f8281526014602052604090206003015460ff16612cf75760405162461bcd60e51b815260206004820152601360248201527215195cdd081a5cc81b9bdd08189b1bd8dad959606a1b6044820152606401610c68565b5f82815260146020526040808220600301805460ff1916905551339184917fa2196d3f06a62b0c168a42af7e270a2e40b8715051f911625060d32cdd59a2589190a35050565b5f818152600e60205260409020546060906001600160a01b0316612d9a5760405162461bcd60e51b8152602060048201526014602482015273151bdad95b88191bd95cc81b9bdd08195e1a5cdd60621b6044820152606401610c68565b5f828152600c602052604090206004018054612db5906147de565b80601f0160208091040260200160405190810160405280929190818152602001828054612de1906147de565b80156116de5780601f10612e03576101008083540402835291602001916116de565b820191905f5260205f20905b815481529060010190602001808311612e0f5750939695505050505050565b5f516020614baf5f395f51905f52612e4681336120da565b612e625760405162461bcd60e51b8152600401610c6890614810565b610dee5f516020614b4f5f395f51905f5283613e94565b5f516020614b4f5f395f51905f52612e9181336120da565b612ead5760405162461bcd60e51b8152600401610c6890614810565b5f848152600260205260409020546001600160a01b03163314612f125760405162461bcd60e51b815260206004820152601d60248201527f43616e206f6e6c79207265717565737420666f7220796f757273656c660000006044820152606401610c68565b5f8381526004602081905260409091200154610100900460ff16612f485760405162461bcd60e51b8152600401610c6890614837565b5f8481526006602090815260408083208684529091528120549003612fa15760405162461bcd60e51b815260206004820152600f60248201526e14d8dbdc99481b9bdd08199bdd5b99608a1b6044820152606401610c68565b5f84815260086020908152604080832086845290915290206009015460ff16156130005760405162461bcd60e51b815260206004820152601060248201526f105b1c9958591e481c995d9a595dd95960821b6044820152606401610c68565b5f8251116130425760405162461bcd60e51b815260206004820152600f60248201526e1499585cdbdb881c995c5d5a5c9959608a1b6044820152606401610c68565b5f84815260066020908152604080832086845282528083206002908101548251610140810184528981528085018981524282860190815285518087018752600781526650454e44494e4760c81b81890152606084019081526080840185905260a0840189905260c084018b905260e08401899052610100840189905261012084018990528c8952600888528689208c8a52909752949096208151815595516001870155925191850191909155915191929091600382019061310390826149a8565b506080820151600482015560a0820151600582015560c0820151600682019061312c90826149a8565b5060e08201516007820180546001600160a01b0319166001600160a01b039092169190911790556101008201516008820155610120909101516009909101805460ff1916911515919091179055604051849086907f39f367466b9c76eb50c2fd96892cafe4148ed40a44dac7d3da0b4141bbc31abd906131af9085908890614ac6565b60405180910390a35050505050565b5f516020614b6f5f395f51905f526131d681336120da565b6131f25760405162461bcd60e51b8152600401610c6890614810565b5f8281526004602081905260409091200154610100900460ff166132285760405162461bcd60e51b8152600401610c6890614837565b5f83815260066020908152604080832085845290915281205490036132865760405162461bcd60e51b815260206004820152601460248201527314d8dbdc9948191bd95cc81b9bdd08195e1a5cdd60621b6044820152606401610c68565b5f838152600660208181526040808420868552909152909120015460ff16156132e55760405162461bcd60e51b8152602060048201526011602482015270105b1c9958591e48199a5b985b1a5e9959607a1b6044820152606401610c68565b5f838152600660208181526040808420868552909152808320909101805460ff19166001179055513391849186917f36e84e8c8ae4287078a0aa64e46e7661513feb5fff8cb2511388aa21e20965ac91a4505050565b5f516020614baf5f395f51905f5261335381336120da565b61336f5760405162461bcd60e51b8152600401610c6890614810565b5f831161338e5760405162461bcd60e51b8152600401610c68906148bf565b6001600160a01b0382166133b45760405162461bcd60e51b8152600401610c68906148eb565b5f838152600260205260409020546001600160a01b0316156134185760405162461bcd60e51b815260206004820152601b60248201527f53747564656e74206164647265737320616c72656164792073657400000000006044820152606401610c68565b6001600160a01b0382165f908152600360205260409020541561344d5760405162461bcd60e51b8152600401610c6890614914565b5f83815260026020908152604080832080546001600160a01b0319166001600160a01b03871690811790915580845260038352928190208690555133815285917fd9cc4835d96fc4b2afb6db1577a9677a621088cdee0c53da65076951d88be32f910161116a565b6134bd6140d5565b5f516020614b4f5f395f51905f526134d581336120da565b6134f15760405162461bcd60e51b8152600401610c6890614810565b335f90815260036020526040902054806135445760405162461bcd60e51b815260206004820152601460248201527314dd1d59195b9d081251081b9bdd08199bdd5b9960621b6044820152606401610c68565b60085f8281526020019081526020015f205f8581526020019081526020015f20604051806101400160405290815f8201548152602001600182015481526020016002820154815260200160038201805461359d906147de565b80601f01602080910402602001604051908101604052809291908181526020018280546135c9906147de565b80156136145780601f106135eb57610100808354040283529160200191613614565b820191905f5260205f20905b8154815290600101906020018083116135f757829003601f168201915b505050505081526020016004820154815260200160058201548152602001600682018054613641906147de565b80601f016020809104026020016040519081016040528092919081815260200182805461366d906147de565b80156136b85780601f1061368f576101008083540402835291602001916136b8565b820191905f5260205f20905b81548152906001019060200180831161369b57829003601f168201915b505050918352505060078201546001600160a01b031660208201526008820154604082015260099091015460ff161515606090910152949350505050565b5f61370181336120da565b61371d5760405162461bcd60e51b8152600401610c6890614810565b61163b8383613efa565b5f818152601460209081526040808320815160a081018352815481526001820154938101939093526002810154918301919091526003015460ff8082161515606084015261010090910416151560808201819052829182918291829161379f5760405162461bcd60e51b8152600401610c6890614892565b8051602082015160408301516060840151608090940151929a91995097509195509350915050565b6012602052815f5260405f2081815481106137e0575f80fd5b5f9182526020909120600590910201805460018201546002830180549295506001600160a01b03909116935090613816906147de565b80601f0160208091040260200160405190810160405280929190818152602001828054613842906147de565b801561388d5780601f106138645761010080835404028352916020019161388d565b820191905f5260205f20905b81548152906001019060200180831161387057829003601f168201915b5050505050908060030154908060040180546138a8906147de565b80601f01602080910402602001604051908101604052809291908181526020018280546138d4906147de565b801561391f5780601f106138f65761010080835404028352916020019161391f565b820191905f5260205f20905b81548152906001019060200180831161390257829003601f168201915b5050505050905085565b6015602052815f5260405f208181548110611de6575f80fd5b5f516020614b6f5f395f51905f5261395a81336120da565b6139765760405162461bcd60e51b8152600401610c6890614810565b5f8481526004602081905260409091200154610100900460ff166139ac5760405162461bcd60e51b8152600401610c6890614837565b5f8581526008602090815260408083208784529091528120549003613a075760405162461bcd60e51b815260206004820152601160248201527014995c5d595cdd081b9bdd08199bdd5b99607a1b6044820152606401610c68565b5f85815260086020908152604080832087845290915290206009015460ff1615613a675760405162461bcd60e51b8152602060048201526011602482015270105b1c9958591e481c1c9bd8d95cdcd959607a1b6044820152606401610c68565b7fe321069d1ac41cdfb1421ffa231cd2dc5e3a334703a998a5f84566b6fbf3f7bd83604051602001613a999190614b04565b604051602081830303815290604052805190602001201480613b0057507f8675c210f65c4e8dd95d2afd30eb5d846906f1b59f9da9d5ff94ec59c6c70c7c83604051602001613ae89190614b04565b60405160208183030381529060405280519060200120145b613b3d5760405162461bcd60e51b815260206004820152600e60248201526d496e76616c69642073746174757360901b6044820152606401610c68565b7fe321069d1ac41cdfb1421ffa231cd2dc5e3a334703a998a5f84566b6fbf3f7bd83604051602001613b6f9190614b04565b6040516020818303038152906040528051906020012003613bab576064821115613bab5760405162461bcd60e51b8152600401610c6890614864565b5f8581526008602090815260408083208784529091529020600301613bd084826149a8565b505f858152600860208181526040808420888552825292839020600581018690556007810180546001600160a01b0319163317905542928101929092556009909101805460ff1916600117905590517fe321069d1ac41cdfb1421ffa231cd2dc5e3a334703a998a5f84566b6fbf3f7bd91613c4d91869101614b04565b6040516020818303038152906040528051906020012003613cd4575f85815260066020908152604080832087845282529182902060028101805490869055426005909201919091558251818152918201859052913391879189917fafca19e7338b80a137bdd94e7b2ec35d7d842cc5c4d91a3576d97135e9de063d910160405180910390a4505b336001600160a01b031684867f3e02e69c3fd077fd8b72c8fa4c53881220607be1385ee3b57a9ed1524402d63c8686604051611896929190614b1a565b60605f5f5f5f5f5f60045f8981526020019081526020015f206040518060c00160405290815f82018054613d44906147de565b80601f0160208091040260200160405190810160405280929190818152602001828054613d70906147de565b8015613dbb5780601f10613d9257610100808354040283529160200191613dbb565b820191905f5260205f20905b815481529060010190602001808311613d9e57829003601f168201915b5050509183525050600182015460208083019190915260028301546001600160a01b0316604080840191909152600384015460608085019190915260049094015460ff808216151560808087019190915261010090920416151560a0948501528551928601519186015194860151908601519590930151919d909c50929a5090985091965090945092505050565b5f516020614baf5f395f51905f52613e6181336120da565b613e7d5760405162461bcd60e51b8152600401610c6890614810565b610dee5f516020614b6f5f395f51905f5283613efa565b613e9e82826120da565b610dee575f828152602081815260408083206001600160a01b0385168085529252808320805460ff1916600117905551339285917f2f8788117e7eff1d82e926ec794901d17c78024a50270940304540a733656f0d9190a45050565b613f0482826120da565b15610dee575f828152602081815260408083206001600160a01b0385168085529252808320805460ff1916905551339285917ff6391f5c32d9c69d2a47ea670b442974b53935d1edc7fd64eb21e047a839171b9190a45050565b6001600160a01b038216613fab5760405162461bcd60e51b81526020600482015260146024820152734d696e7420746f207a65726f206164647265737360601b6044820152606401610c68565b5f818152600e60205260409020546001600160a01b0316156140065760405162461bcd60e51b8152602060048201526014602482015273151bdad95b88185b1c9958591e481b5a5b9d195960621b6044820152606401610c68565b5f818152600e6020908152604080832080546001600160a01b0319166001600160a01b0387169081179091558352600f909152812080546001929061404c908490614b3b565b909155505060405181906001600160a01b038416905f907fddf252ad1be2c89b69c2b068fc378daa952ba7f163c4a11628f55a4df523b3ef908290a45050565b6040518061010001604052805f81526020015f81526020015f81526020015f8152602001606081526020015f81526020015f6001600160a01b031681526020015f151581525090565b6040518061014001604052805f81526020015f81526020015f8152602001606081526020015f81526020015f8152602001606081526020015f6001600160a01b031681526020015f81526020015f151581525090565b5f5f6040838503121561413c575f5ffd5b50508035926020909101359150565b5f81518084528060208401602086015e5f602082860101526020601f19601f83011685010191505092915050565b8a815289602082015288604082015261014060608201525f61419f61014083018a61414b565b8860808401528760a084015282810360c08401526141bd818861414b565b6001600160a01b039690961660e08401525050610100810192909252151561012090910152979650505050505050565b5f602082840312156141fd575f5ffd5b5035919050565b602081525f614216602083018461414b565b9392505050565b80356001600160a01b0381168114614233575f5ffd5b919050565b5f60208284031215614248575f5ffd5b6142168261421d565b60208152815160208201526020820151604082015260408201516060820152606082015160808201525f608083015161010060a084015261429661012084018261414b565b905060a084015160c084015260018060a01b0360c08501511660e084015260e084015115156101008401528091505092915050565b5f602082016020835280845180835260408501915060408160051b8601019250602086015f5b8281101561436f57603f1987860301845281518051865260018060a01b036020820151166020870152604081015160a0604088015261433360a088018261414b565b905060608201516060880152608082015191508681036080880152614358818361414b565b9650505060209384019391909101906001016142f1565b50929695505050505050565b602081528151602082015260208201516040820152604082015160608201525f606083015161014060808401526143b661016084018261414b565b9050608084015160a084015260a084015160c084015260c0840151601f198483030160e08501526143e7828261414b565b91505060e08401516144056101008501826001600160a01b03169052565b5061010084015161012084015261012084015161442761014085018215159052565b509392505050565b5f5f60408385031215614440575f5ffd5b823591506144506020840161421d565b90509250929050565b602080825282518282018190525f918401906040840190835b81811015614490578351835260209384019390920191600101614472565b509095945050505050565b5f5f5f606084860312156144ad575f5ffd5b505081359360208301359350604090920135919050565b60c081525f6144d660c083018961414b565b6020830197909752506001600160a01b03949094166040850152606084019290925215156080830152151560a090910152919050565b88815287602082015286604082015285606082015261010060808201525f61453861010083018761414b565b60a0830195909552506001600160a01b039290921660c0830152151560e09091015295945050505050565b5f5f60408385031215614574575f5ffd5b61457d8361421d565b946020939093013593505050565b634e487b7160e01b5f52604160045260245ffd5b5f82601f8301126145ae575f5ffd5b813567ffffffffffffffff8111156145c8576145c861458b565b604051601f8201601f19908116603f0116810167ffffffffffffffff811182821017156145f7576145f761458b565b60405281815283820160200185101561460e575f5ffd5b816020850160208301375f918101602001919091529392505050565b5f5f6040838503121561463b575f5ffd5b82359150602083013567ffffffffffffffff811115614658575f5ffd5b6146648582860161459f565b9150509250929050565b5f5f6040838503121561467f575f5ffd5b823567ffffffffffffffff811115614695575f5ffd5b6146a18582860161459f565b95602094909401359450505050565b60a081525f6146c260a083018861414b565b6020830196909652506001600160a01b0393909316604084015260608301919091521515608090910152919050565b5f5f5f60608486031215614703575f5ffd5b8335925060208401359150604084013567ffffffffffffffff811115614727575f5ffd5b6147338682870161459f565b9150509250925092565b8581526001600160a01b038516602082015260a0604082018190525f906147669083018661414b565b846060840152828103608084015261477e818561414b565b98975050505050505050565b5f5f5f5f6080858703121561479d575f5ffd5b8435935060208501359250604085013567ffffffffffffffff8111156147c1575f5ffd5b6147cd8782880161459f565b949793965093946060013593505050565b600181811c908216806147f257607f821691505b602082108103610f9257634e487b7160e01b5f52602260045260245ffd5b6020808252600d908201526c1058d8d95cdcc819195b9a5959609a1b604082015260600190565b602080825260139082015272115e185b48191bd95cc81b9bdd08195e1a5cdd606a1b604082015260600190565b602080825260149082015273053636f7265206d757374206265203c3d203130360641b604082015260600190565b60208082526013908201527215195cdd08191bd95cc81b9bdd08195e1a5cdd606a1b604082015260600190565b602080825260129082015271125b9d985b1a59081cdd1d59195b9d08125160721b604082015260600190565b6020808252600f908201526e496e76616c6964206164647265737360881b604082015260600190565b60208082526029908201527f4164647265737320616c7265616479206c696e6b656420746f20616e6f7468656040820152681c881cdd1d59195b9d60ba1b606082015260800190565b601f82111561163b57805f5260205f20601f840160051c810160208510156149825750805b601f840160051c820191505b818110156149a1575f815560010161498e565b5050505050565b815167ffffffffffffffff8111156149c2576149c261458b565b6149d6816149d084546147de565b8461495d565b6020601f821160018114614a08575f83156149f15750848201515b5f19600385901b1c1916600184901b1784556149a1565b5f84815260208120601f198516915b82811015614a375787850151825560209485019460019092019101614a17565b5084821015614a5457868401515f19600387901b60f8161c191681555b50505050600190811b01905550565b634e487b7160e01b5f52601160045260245ffd5b818103818111156115b9576115b9614a63565b606081525f614a9c606083018661414b565b60208301949094525060400152919050565b5f60018201614abf57614abf614a63565b5060010190565b60608152600760608201526650454e44494e4760c81b608082015282602082015260a060408201525f614afc60a083018461414b565b949350505050565b5f82518060208501845e5f920191825250919050565b604081525f614b2c604083018561414b565b90508260208301529392505050565b808201808211156115b9576115b9614a6356fe36a5c4aaacb6b388bbd448bf11096b7dafc5652bcc9046084fd0e95b1fb0b2ccd80fe6bc0e33ab4417bd425f297e026e0456472df56b1eaaee7acd2cbc2c696ffc7c36207174f786648d2e624616a4b40e15fd7f0268b4e36af5057f0c43c835a49807205ce4d355092ef5a8a18f56e8913cf4a201fbe287825b095693c21775a2646970667358221220c01deb4aebd45be113e57f3b9909b9d6955d79a088fcaa8589f74ba531a4117064736f6c634300081e0033a49807205ce4d355092ef5a8a18f56e8913cf4a201fbe287825b095693c21775",
			"opcodes": "PUSH1 0xC0 PUSH1 0x40 MSTORE PUSH1 0x18 PUSH1 0x80 SWAP1 DUP2 MSTORE PUSH32 0x445A426C6F636B436861696E2043657274696669636174650000000000000000 PUSH1 0xA0 MSTORE PUSH1 0x9 SWAP1 PUSH2 0x3C SWAP1 DUP3 PUSH2 0x25C JUMP JUMPDEST POP PUSH1 0x40 DUP1 MLOAD DUP1 DUP3 ADD SWAP1 SWAP2 MSTORE PUSH1 0x4 DUP2 MSTORE PUSH4 0x445A4243 PUSH1 0xE0 SHL PUSH1 0x20 DUP3 ADD MSTORE PUSH1 0xA SWAP1 PUSH2 0x65 SWAP1 DUP3 PUSH2 0x25C JUMP JUMPDEST POP CALLVALUE DUP1 ISZERO PUSH2 0x71 JUMPI PUSH0 PUSH0 REVERT JUMPDEST POP PUSH2 0x7B CALLER PUSH2 0x80 JUMP JUMPDEST PUSH2 0x316 JUMP JUMPDEST PUSH2 0x8A PUSH0 DUP3 PUSH2 0x144 JUMP JUMPDEST PUSH2 0xA1 PUSH0 MLOAD PUSH1 0x20 PUSH2 0x4F27 PUSH0 CODECOPY PUSH0 MLOAD SWAP1 PUSH0 MSTORE DUP3 PUSH2 0x144 JUMP JUMPDEST POP PUSH1 0x1 PUSH1 0x20 MSTORE PUSH0 MLOAD PUSH1 0x20 PUSH2 0x4F27 PUSH0 CODECOPY PUSH0 MLOAD SWAP1 PUSH0 MSTORE PUSH32 0x595C59303185D6018B57F7A342D2CBF9F9AC9BD599C2E6F1918108E6144EC438 DUP2 SWAP1 SSTORE PUSH32 0x370A7DF9ACCBB111E01AC14B81700C489619F4774B1E81A53CB39F158EC8436A DUP2 SWAP1 SSTORE PUSH32 0xFC7C36207174F786648D2E624616A4B40E15FD7F0268B4E36AF5057F0C43C835 PUSH0 MSTORE PUSH32 0x6607AE9CBCC1DBD33A501EC84E0AA7B9EAD733F39DAB8F64D06B6E48F9E71B3F SSTORE JUMP JUMPDEST PUSH0 DUP3 DUP2 MSTORE PUSH1 0x20 DUP2 DUP2 MSTORE PUSH1 0x40 DUP1 DUP4 KECCAK256 PUSH1 0x1 PUSH1 0x1 PUSH1 0xA0 SHL SUB DUP6 AND DUP5 MSTORE SWAP1 SWAP2 MSTORE SWAP1 KECCAK256 SLOAD PUSH1 0xFF AND PUSH2 0x1C0 JUMPI PUSH0 DUP3 DUP2 MSTORE PUSH1 0x20 DUP2 DUP2 MSTORE PUSH1 0x40 DUP1 DUP4 KECCAK256 PUSH1 0x1 PUSH1 0x1 PUSH1 0xA0 SHL SUB DUP6 AND DUP1 DUP6 MSTORE SWAP3 MSTORE DUP1 DUP4 KECCAK256 DUP1 SLOAD PUSH1 0xFF NOT AND PUSH1 0x1 OR SWAP1 SSTORE MLOAD CALLER SWAP3 DUP6 SWAP2 PUSH32 0x2F8788117E7EFF1D82E926EC794901D17C78024A50270940304540A733656F0D SWAP2 SWAP1 LOG4 JUMPDEST POP POP JUMP JUMPDEST PUSH4 0x4E487B71 PUSH1 0xE0 SHL PUSH0 MSTORE PUSH1 0x41 PUSH1 0x4 MSTORE PUSH1 0x24 PUSH0 REVERT JUMPDEST PUSH1 0x1 DUP2 DUP2 SHR SWAP1 DUP3 AND DUP1 PUSH2 0x1EC JUMPI PUSH1 0x7F DUP3 AND SWAP2 POP JUMPDEST PUSH1 0x20 DUP3 LT DUP2 SUB PUSH2 0x20A JUMPI PUSH4 0x4E487B71 PUSH1 0xE0 SHL PUSH0 MSTORE PUSH1 0x22 PUSH1 0x4 MSTORE PUSH1 0x24 PUSH0 REVERT JUMPDEST POP SWAP2 SWAP1 POP JUMP JUMPDEST PUSH1 0x1F DUP3 GT ISZERO PUSH2 0x257 JUMPI DUP1 PUSH0 MSTORE PUSH1 0x20 PUSH0 KECCAK256 PUSH1 0x1F DUP5 ADD PUSH1 0x5 SHR DUP2 ADD PUSH1 0x20 DUP6 LT ISZERO PUSH2 0x235 JUMPI POP DUP1 JUMPDEST PUSH1 0x1F DUP5 ADD PUSH1 0x5 SHR DUP3 ADD SWAP2 POP JUMPDEST DUP2 DUP2 LT ISZERO PUSH2 0x254 JUMPI PUSH0 DUP2 SSTORE PUSH1 0x1 ADD PUSH2 0x241 JUMP JUMPDEST POP POP JUMPDEST POP POP POP JUMP JUMPDEST DUP2 MLOAD PUSH1 0x1 PUSH1 0x1 PUSH1 0x40 SHL SUB DUP2 GT ISZERO PUSH2 0x275 JUMPI PUSH2 0x275 PUSH2 0x1C4 JUMP JUMPDEST PUSH2 0x289 DUP2 PUSH2 0x283 DUP5 SLOAD PUSH2 0x1D8 JUMP JUMPDEST DUP5 PUSH2 0x210 JUMP JUMPDEST PUSH1 0x20 PUSH1 0x1F DUP3 GT PUSH1 0x1 DUP2 EQ PUSH2 0x2BB JUMPI PUSH0 DUP4 ISZERO PUSH2 0x2A4 JUMPI POP DUP5 DUP3 ADD MLOAD JUMPDEST PUSH0 NOT PUSH1 0x3 DUP6 SWAP1 SHL SHR NOT AND PUSH1 0x1 DUP5 SWAP1 SHL OR DUP5 SSTORE PUSH2 0x254 JUMP JUMPDEST PUSH0 DUP5 DUP2 MSTORE PUSH1 0x20 DUP2 KECCAK256 PUSH1 0x1F NOT DUP6 AND SWAP2 JUMPDEST DUP3 DUP2 LT ISZERO PUSH2 0x2EA JUMPI DUP8 DUP6 ADD MLOAD DUP3 SSTORE PUSH1 0x20 SWAP5 DUP6 ADD SWAP5 PUSH1 0x1 SWAP1 SWAP3 ADD SWAP2 ADD PUSH2 0x2CA JUMP JUMPDEST POP DUP5 DUP3 LT ISZERO PUSH2 0x307 JUMPI DUP7 DUP5 ADD MLOAD PUSH0 NOT PUSH1 0x3 DUP8 SWAP1 SHL PUSH1 0xF8 AND SHR NOT AND DUP2 SSTORE JUMPDEST POP POP POP POP PUSH1 0x1 SWAP1 DUP2 SHL ADD SWAP1 SSTORE POP JUMP JUMPDEST PUSH2 0x4C04 DUP1 PUSH2 0x323 PUSH0 CODECOPY PUSH0 RETURN INVALID PUSH1 0x80 PUSH1 0x40 MSTORE CALLVALUE DUP1 ISZERO PUSH2 0xF JUMPI PUSH0 PUSH0 REVERT JUMPDEST POP PUSH1 0x4 CALLDATASIZE LT PUSH2 0x39E JUMPI PUSH0 CALLDATALOAD PUSH1 0xE0 SHR DUP1 PUSH4 0x95D89B41 GT PUSH2 0x1EA JUMPI DUP1 PUSH4 0xC9B1E027 GT PUSH2 0x114 JUMPI DUP1 PUSH4 0xEDEF019D GT PUSH2 0xA9 JUMPI DUP1 PUSH4 0xF7BE43FB GT PUSH2 0x79 JUMPI DUP1 PUSH4 0xF7BE43FB EQ PUSH2 0xA5A JUMPI DUP1 PUSH4 0xF97563D5 EQ PUSH2 0xA6E JUMPI DUP1 PUSH4 0xFA8D3CCA EQ PUSH2 0xA81 JUMPI DUP1 PUSH4 0xFC9B39E6 EQ PUSH2 0xAAB JUMPI PUSH0 PUSH0 REVERT JUMPDEST DUP1 PUSH4 0xEDEF019D EQ PUSH2 0x9FD JUMPI DUP1 PUSH4 0xEEED2503 EQ PUSH2 0xA10 JUMPI DUP1 PUSH4 0xF1B23D7F EQ PUSH2 0xA34 JUMPI DUP1 PUSH4 0xF1C4731C EQ PUSH2 0xA47 JUMPI PUSH0 PUSH0 REVERT JUMPDEST DUP1 PUSH4 0xD547741F GT PUSH2 0xE4 JUMPI DUP1 PUSH4 0xD547741F EQ PUSH2 0x8F6 JUMPI DUP1 PUSH4 0xDD255148 EQ PUSH2 0x909 JUMPI DUP1 PUSH4 0xDE22C8D4 EQ PUSH2 0x969 JUMPI DUP1 PUSH4 0xE67651AC EQ PUSH2 0x9D5 JUMPI PUSH0 PUSH0 REVERT JUMPDEST DUP1 PUSH4 0xC9B1E027 EQ PUSH2 0x8AA JUMPI DUP1 PUSH4 0xCD79E42F EQ PUSH2 0x8BD JUMPI DUP1 PUSH4 0xD27FC520 EQ PUSH2 0x8D0 JUMPI DUP1 PUSH4 0xD4F45061 EQ PUSH2 0x8E3 JUMPI PUSH0 PUSH0 REVERT JUMPDEST DUP1 PUSH4 0xADC6BA73 GT PUSH2 0x18A JUMPI DUP1 PUSH4 0xBD289217 GT PUSH2 0x15A JUMPI DUP1 PUSH4 0xBD289217 EQ PUSH2 0x85E JUMPI DUP1 PUSH4 0xC54164D4 EQ PUSH2 0x871 JUMPI DUP1 PUSH4 0xC87B56DD EQ PUSH2 0x884 JUMPI DUP1 PUSH4 0xC94D10AD EQ PUSH2 0x897 JUMPI PUSH0 PUSH0 REVERT JUMPDEST DUP1 PUSH4 0xADC6BA73 EQ PUSH2 0x73E JUMPI DUP1 PUSH4 0xB5AB682D EQ PUSH2 0x810 JUMPI DUP1 PUSH4 0xB8535A11 EQ PUSH2 0x838 JUMPI DUP1 PUSH4 0xB8D78466 EQ PUSH2 0x84B JUMPI PUSH0 PUSH0 REVERT JUMPDEST DUP1 PUSH4 0xA217FDDF GT PUSH2 0x1C5 JUMPI DUP1 PUSH4 0xA217FDDF EQ PUSH2 0x6ED JUMPI DUP1 PUSH4 0xA26EA890 EQ PUSH2 0x6F4 JUMPI DUP1 PUSH4 0xA486AB35 EQ PUSH2 0x707 JUMPI DUP1 PUSH4 0xAA1F80A5 EQ PUSH2 0x72B JUMPI PUSH0 PUSH0 REVERT JUMPDEST DUP1 PUSH4 0x95D89B41 EQ PUSH2 0x6BF JUMPI DUP1 PUSH4 0x97BB03BA EQ PUSH2 0x6C7 JUMPI DUP1 PUSH4 0x99532F60 EQ PUSH2 0x6DA JUMPI PUSH0 PUSH0 REVERT JUMPDEST DUP1 PUSH4 0x3F0A92FB GT PUSH2 0x2CB JUMPI DUP1 PUSH4 0x70A08231 GT PUSH2 0x26B JUMPI DUP1 PUSH4 0x7F5AF810 GT PUSH2 0x23B JUMPI DUP1 PUSH4 0x7F5AF810 EQ PUSH2 0x642 JUMPI DUP1 PUSH4 0x80AB3DDA EQ PUSH2 0x655 JUMPI DUP1 PUSH4 0x86C34415 EQ PUSH2 0x67D JUMPI DUP1 PUSH4 0x91D14854 EQ PUSH2 0x69C JUMPI PUSH0 PUSH0 REVERT JUMPDEST DUP1 PUSH4 0x70A08231 EQ PUSH2 0x5F5 JUMPI DUP1 PUSH4 0x75B238FC EQ PUSH2 0x608 JUMPI DUP1 PUSH4 0x767CDBD8 EQ PUSH2 0x61C JUMPI DUP1 PUSH4 0x7C953E6E EQ PUSH2 0x62F JUMPI PUSH0 PUSH0 REVERT JUMPDEST DUP1 PUSH4 0x6352211E GT PUSH2 0x2A6 JUMPI DUP1 PUSH4 0x6352211E EQ PUSH2 0x57D JUMPI DUP1 PUSH4 0x663B3E22 EQ PUSH2 0x5A8 JUMPI DUP1 PUSH4 0x66B2D280 EQ PUSH2 0x5CF JUMPI DUP1 PUSH4 0x6A0D2892 EQ PUSH2 0x5E2 JUMPI PUSH0 PUSH0 REVERT JUMPDEST DUP1 PUSH4 0x3F0A92FB EQ PUSH2 0x532 JUMPI DUP1 PUSH4 0x3F576247 EQ PUSH2 0x545 JUMPI DUP1 PUSH4 0x4198CB3F EQ PUSH2 0x558 JUMPI PUSH0 PUSH0 REVERT JUMPDEST DUP1 PUSH4 0x1EB2C396 GT PUSH2 0x341 JUMPI DUP1 PUSH4 0x2F2FF15D GT PUSH2 0x311 JUMPI DUP1 PUSH4 0x2F2FF15D EQ PUSH2 0x4CD JUMPI DUP1 PUSH4 0x32B3C846 EQ PUSH2 0x4E0 JUMPI DUP1 PUSH4 0x361EF2BD EQ PUSH2 0x4F3 JUMPI DUP1 PUSH4 0x3BF82F32 EQ PUSH2 0x513 JUMPI PUSH0 PUSH0 REVERT JUMPDEST DUP1 PUSH4 0x1EB2C396 EQ PUSH2 0x466 JUMPI DUP1 PUSH4 0x1FA63AA3 EQ PUSH2 0x486 JUMPI DUP1 PUSH4 0x2426BB38 EQ PUSH2 0x4A6 JUMPI DUP1 PUSH4 0x2EA0D829 EQ PUSH2 0x4BA JUMPI PUSH0 PUSH0 REVERT JUMPDEST DUP1 PUSH4 0x713EB02 GT PUSH2 0x37C JUMPI DUP1 PUSH4 0x713EB02 EQ PUSH2 0x3FE JUMPI DUP1 PUSH4 0x16853FEB EQ PUSH2 0x420 JUMPI DUP1 PUSH4 0x1692A942 EQ PUSH2 0x433 JUMPI DUP1 PUSH4 0x1D3E15FF EQ PUSH2 0x453 JUMPI PUSH0 PUSH0 REVERT JUMPDEST DUP1 PUSH4 0x36713BE EQ PUSH2 0x3A2 JUMPI DUP1 PUSH4 0x6F5497E EQ PUSH2 0x3D4 JUMPI DUP1 PUSH4 0x6FDDE03 EQ PUSH2 0x3E9 JUMPI JUMPDEST PUSH0 PUSH0 REVERT JUMPDEST PUSH2 0x3B5 PUSH2 0x3B0 CALLDATASIZE PUSH1 0x4 PUSH2 0x412B JUMP JUMPDEST PUSH2 0xABE JUMP JUMPDEST PUSH1 0x40 MLOAD PUSH2 0x3CB SWAP11 SWAP10 SWAP9 SWAP8 SWAP7 SWAP6 SWAP5 SWAP4 SWAP3 SWAP2 SWAP1 PUSH2 0x4179 JUMP JUMPDEST PUSH1 0x40 MLOAD DUP1 SWAP2 SUB SWAP1 RETURN JUMPDEST PUSH2 0x3E7 PUSH2 0x3E2 CALLDATASIZE PUSH1 0x4 PUSH2 0x41ED JUMP JUMPDEST PUSH2 0xC34 JUMP JUMPDEST STOP JUMPDEST PUSH2 0x3F1 PUSH2 0xD13 JUMP JUMPDEST PUSH1 0x40 MLOAD PUSH2 0x3CB SWAP2 SWAP1 PUSH2 0x4204 JUMP JUMPDEST PUSH2 0x412 PUSH0 MLOAD PUSH1 0x20 PUSH2 0x4B6F PUSH0 CODECOPY PUSH0 MLOAD SWAP1 PUSH0 MSTORE DUP2 JUMP JUMPDEST PUSH1 0x40 MLOAD SWAP1 DUP2 MSTORE PUSH1 0x20 ADD PUSH2 0x3CB JUMP JUMPDEST PUSH2 0x3E7 PUSH2 0x42E CALLDATASIZE PUSH1 0x4 PUSH2 0x4238 JUMP JUMPDEST PUSH2 0xDA3 JUMP JUMPDEST PUSH2 0x446 PUSH2 0x441 CALLDATASIZE PUSH1 0x4 PUSH2 0x41ED JUMP JUMPDEST PUSH2 0xDF2 JUMP JUMPDEST PUSH1 0x40 MLOAD PUSH2 0x3CB SWAP2 SWAP1 PUSH2 0x4251 JUMP JUMPDEST PUSH2 0x3E7 PUSH2 0x461 CALLDATASIZE PUSH1 0x4 PUSH2 0x412B JUMP JUMPDEST PUSH2 0xF98 JUMP JUMPDEST PUSH2 0x479 PUSH2 0x474 CALLDATASIZE PUSH1 0x4 PUSH2 0x41ED JUMP JUMPDEST PUSH2 0x1177 JUMP JUMPDEST PUSH1 0x40 MLOAD PUSH2 0x3CB SWAP2 SWAP1 PUSH2 0x42CB JUMP JUMPDEST PUSH2 0x499 PUSH2 0x494 CALLDATASIZE PUSH1 0x4 PUSH2 0x412B JUMP JUMPDEST PUSH2 0x1377 JUMP JUMPDEST PUSH1 0x40 MLOAD PUSH2 0x3CB SWAP2 SWAP1 PUSH2 0x437B JUMP JUMPDEST PUSH2 0x412 PUSH0 MLOAD PUSH1 0x20 PUSH2 0x4B8F PUSH0 CODECOPY PUSH0 MLOAD SWAP1 PUSH0 MSTORE DUP2 JUMP JUMPDEST PUSH2 0x3E7 PUSH2 0x4C8 CALLDATASIZE PUSH1 0x4 PUSH2 0x4238 JUMP JUMPDEST PUSH2 0x15BF JUMP JUMPDEST PUSH2 0x3E7 PUSH2 0x4DB CALLDATASIZE PUSH1 0x4 PUSH2 0x442F JUMP JUMPDEST PUSH2 0x160A JUMP JUMPDEST PUSH2 0x3E7 PUSH2 0x4EE CALLDATASIZE PUSH1 0x4 PUSH2 0x4238 JUMP JUMPDEST PUSH2 0x1640 JUMP JUMPDEST PUSH2 0x506 PUSH2 0x501 CALLDATASIZE PUSH1 0x4 PUSH2 0x41ED JUMP JUMPDEST PUSH2 0x168B JUMP JUMPDEST PUSH1 0x40 MLOAD PUSH2 0x3CB SWAP2 SWAP1 PUSH2 0x4459 JUMP JUMPDEST PUSH2 0x412 PUSH2 0x521 CALLDATASIZE PUSH1 0x4 PUSH2 0x41ED JUMP JUMPDEST PUSH0 SWAP1 DUP2 MSTORE PUSH1 0x12 PUSH1 0x20 MSTORE PUSH1 0x40 SWAP1 KECCAK256 SLOAD SWAP1 JUMP JUMPDEST PUSH2 0x3E7 PUSH2 0x540 CALLDATASIZE PUSH1 0x4 PUSH2 0x449B JUMP JUMPDEST PUSH2 0x16EA JUMP JUMPDEST PUSH2 0x3E7 PUSH2 0x553 CALLDATASIZE PUSH1 0x4 PUSH2 0x41ED JUMP JUMPDEST PUSH2 0x18A5 JUMP JUMPDEST PUSH2 0x56B PUSH2 0x566 CALLDATASIZE PUSH1 0x4 PUSH2 0x41ED JUMP JUMPDEST PUSH2 0x19AF JUMP JUMPDEST PUSH1 0x40 MLOAD PUSH2 0x3CB SWAP7 SWAP6 SWAP5 SWAP4 SWAP3 SWAP2 SWAP1 PUSH2 0x44C4 JUMP JUMPDEST PUSH2 0x590 PUSH2 0x58B CALLDATASIZE PUSH1 0x4 PUSH2 0x41ED JUMP JUMPDEST PUSH2 0x1A79 JUMP JUMPDEST PUSH1 0x40 MLOAD PUSH1 0x1 PUSH1 0x1 PUSH1 0xA0 SHL SUB SWAP1 SWAP2 AND DUP2 MSTORE PUSH1 0x20 ADD PUSH2 0x3CB JUMP JUMPDEST PUSH2 0x5BB PUSH2 0x5B6 CALLDATASIZE PUSH1 0x4 PUSH2 0x41ED JUMP JUMPDEST PUSH2 0x1AD1 JUMP JUMPDEST PUSH1 0x40 MLOAD PUSH2 0x3CB SWAP9 SWAP8 SWAP7 SWAP6 SWAP5 SWAP4 SWAP3 SWAP2 SWAP1 PUSH2 0x450C JUMP JUMPDEST PUSH2 0x3E7 PUSH2 0x5DD CALLDATASIZE PUSH1 0x4 PUSH2 0x4238 JUMP JUMPDEST PUSH2 0x1BA8 JUMP JUMPDEST PUSH2 0x3E7 PUSH2 0x5F0 CALLDATASIZE PUSH1 0x4 PUSH2 0x442F JUMP JUMPDEST PUSH2 0x1BF3 JUMP JUMPDEST PUSH2 0x412 PUSH2 0x603 CALLDATASIZE PUSH1 0x4 PUSH2 0x4238 JUMP JUMPDEST PUSH2 0x1D8B JUMP JUMPDEST PUSH2 0x412 PUSH0 MLOAD PUSH1 0x20 PUSH2 0x4BAF PUSH0 CODECOPY PUSH0 MLOAD SWAP1 PUSH0 MSTORE DUP2 JUMP JUMPDEST PUSH2 0x412 PUSH2 0x62A CALLDATASIZE PUSH1 0x4 PUSH2 0x4563 JUMP JUMPDEST PUSH2 0x1DCD JUMP JUMPDEST PUSH2 0x3E7 PUSH2 0x63D CALLDATASIZE PUSH1 0x4 PUSH2 0x449B JUMP JUMPDEST PUSH2 0x1DF8 JUMP JUMPDEST PUSH2 0x506 PUSH2 0x650 CALLDATASIZE PUSH1 0x4 PUSH2 0x4238 JUMP JUMPDEST PUSH2 0x1FF3 JUMP JUMPDEST PUSH2 0x412 PUSH2 0x663 CALLDATASIZE PUSH1 0x4 PUSH2 0x4238 JUMP JUMPDEST PUSH1 0x1 PUSH1 0x1 PUSH1 0xA0 SHL SUB AND PUSH0 SWAP1 DUP2 MSTORE PUSH1 0x3 PUSH1 0x20 MSTORE PUSH1 0x40 SWAP1 KECCAK256 SLOAD SWAP1 JUMP JUMPDEST PUSH2 0x412 PUSH2 0x68B CALLDATASIZE PUSH1 0x4 PUSH2 0x4238 JUMP JUMPDEST PUSH1 0x3 PUSH1 0x20 MSTORE PUSH0 SWAP1 DUP2 MSTORE PUSH1 0x40 SWAP1 KECCAK256 SLOAD DUP2 JUMP JUMPDEST PUSH2 0x6AF PUSH2 0x6AA CALLDATASIZE PUSH1 0x4 PUSH2 0x442F JUMP JUMPDEST PUSH2 0x20DA JUMP JUMPDEST PUSH1 0x40 MLOAD SWAP1 ISZERO ISZERO DUP2 MSTORE PUSH1 0x20 ADD PUSH2 0x3CB JUMP JUMPDEST PUSH2 0x3F1 PUSH2 0x2102 JUMP JUMPDEST PUSH2 0x3E7 PUSH2 0x6D5 CALLDATASIZE PUSH1 0x4 PUSH2 0x462A JUMP JUMPDEST PUSH2 0x2111 JUMP JUMPDEST PUSH2 0x446 PUSH2 0x6E8 CALLDATASIZE PUSH1 0x4 PUSH2 0x412B JUMP JUMPDEST PUSH2 0x21AA JUMP JUMPDEST PUSH2 0x412 PUSH0 DUP2 JUMP JUMPDEST PUSH2 0x506 PUSH2 0x702 CALLDATASIZE PUSH1 0x4 PUSH2 0x41ED JUMP JUMPDEST PUSH2 0x23A4 JUMP JUMPDEST PUSH2 0x71A PUSH2 0x715 CALLDATASIZE PUSH1 0x4 PUSH2 0x466E JUMP JUMPDEST PUSH2 0x2451 JUMP JUMPDEST PUSH1 0x40 MLOAD PUSH2 0x3CB SWAP6 SWAP5 SWAP4 SWAP3 SWAP2 SWAP1 PUSH2 0x46B0 JUMP JUMPDEST PUSH2 0x412 PUSH2 0x739 CALLDATASIZE PUSH1 0x4 PUSH2 0x412B JUMP JUMPDEST PUSH2 0x26B2 JUMP JUMPDEST PUSH2 0x7D1 PUSH2 0x74C CALLDATASIZE PUSH1 0x4 PUSH2 0x412B JUMP JUMPDEST PUSH0 SWAP2 DUP3 MSTORE PUSH1 0x6 PUSH1 0x20 DUP2 DUP2 MSTORE PUSH1 0x40 DUP1 DUP6 KECCAK256 SWAP4 DUP6 MSTORE SWAP3 DUP2 MSTORE SWAP3 DUP3 SWAP1 KECCAK256 DUP3 MLOAD PUSH1 0xE0 DUP2 ADD DUP5 MSTORE DUP2 SLOAD DUP1 DUP3 MSTORE PUSH1 0x1 DUP4 ADD SLOAD SWAP6 DUP3 ADD DUP7 SWAP1 MSTORE PUSH1 0x2 DUP4 ADD SLOAD SWAP5 DUP3 ADD DUP6 SWAP1 MSTORE PUSH1 0x3 DUP4 ADD SLOAD PUSH1 0x1 PUSH1 0x1 PUSH1 0xA0 SHL SUB AND PUSH1 0x60 DUP4 ADD DUP2 SWAP1 MSTORE PUSH1 0x4 DUP5 ADD SLOAD PUSH1 0x80 DUP5 ADD DUP2 SWAP1 MSTORE PUSH1 0x5 DUP6 ADD SLOAD PUSH1 0xA0 DUP6 ADD DUP2 SWAP1 MSTORE SWAP5 SWAP1 SWAP6 ADD SLOAD PUSH1 0xFF AND ISZERO ISZERO PUSH1 0xC0 SWAP1 SWAP4 ADD DUP4 SWAP1 MSTORE SWAP1 SWAP7 SWAP1 SWAP4 SWAP3 SWAP2 SWAP1 JUMP JUMPDEST PUSH1 0x40 DUP1 MLOAD SWAP8 DUP9 MSTORE PUSH1 0x20 DUP9 ADD SWAP7 SWAP1 SWAP7 MSTORE SWAP5 DUP7 ADD SWAP4 SWAP1 SWAP4 MSTORE PUSH1 0x1 PUSH1 0x1 PUSH1 0xA0 SHL SUB SWAP1 SWAP2 AND PUSH1 0x60 DUP6 ADD MSTORE PUSH1 0x80 DUP5 ADD MSTORE PUSH1 0xA0 DUP4 ADD MSTORE ISZERO ISZERO PUSH1 0xC0 DUP3 ADD MSTORE PUSH1 0xE0 ADD PUSH2 0x3CB JUMP JUMPDEST PUSH2 0x590 PUSH2 0x81E CALLDATASIZE PUSH1 0x4 PUSH2 0x41ED JUMP JUMPDEST PUSH1 0x2 PUSH1 0x20 MSTORE PUSH0 SWAP1 DUP2 MSTORE PUSH1 0x40 SWAP1 KECCAK256 SLOAD PUSH1 0x1 PUSH1 0x1 PUSH1 0xA0 SHL SUB AND DUP2 JUMP JUMPDEST PUSH2 0x412 PUSH2 0x846 CALLDATASIZE PUSH1 0x4 PUSH2 0x46F1 JUMP JUMPDEST PUSH2 0x26CB JUMP JUMPDEST PUSH2 0x3E7 PUSH2 0x859 CALLDATASIZE PUSH1 0x4 PUSH2 0x41ED JUMP JUMPDEST PUSH2 0x2A0A JUMP JUMPDEST PUSH2 0x446 PUSH2 0x86C CALLDATASIZE PUSH1 0x4 PUSH2 0x412B JUMP JUMPDEST PUSH2 0x2B9B JUMP JUMPDEST PUSH2 0x3E7 PUSH2 0x87F CALLDATASIZE PUSH1 0x4 PUSH2 0x41ED JUMP JUMPDEST PUSH2 0x2C38 JUMP JUMPDEST PUSH2 0x3F1 PUSH2 0x892 CALLDATASIZE PUSH1 0x4 PUSH2 0x41ED JUMP JUMPDEST PUSH2 0x2D3D JUMP JUMPDEST PUSH2 0x3E7 PUSH2 0x8A5 CALLDATASIZE PUSH1 0x4 PUSH2 0x4238 JUMP JUMPDEST PUSH2 0x2E2E JUMP JUMPDEST PUSH2 0x3E7 PUSH2 0x8B8 CALLDATASIZE PUSH1 0x4 PUSH2 0x46F1 JUMP JUMPDEST PUSH2 0x2E79 JUMP JUMPDEST PUSH2 0x3E7 PUSH2 0x8CB CALLDATASIZE PUSH1 0x4 PUSH2 0x412B JUMP JUMPDEST PUSH2 0x31BE JUMP JUMPDEST PUSH2 0x3E7 PUSH2 0x8DE CALLDATASIZE PUSH1 0x4 PUSH2 0x442F JUMP JUMPDEST PUSH2 0x333B JUMP JUMPDEST PUSH2 0x499 PUSH2 0x8F1 CALLDATASIZE PUSH1 0x4 PUSH2 0x41ED JUMP JUMPDEST PUSH2 0x34B5 JUMP JUMPDEST PUSH2 0x3E7 PUSH2 0x904 CALLDATASIZE PUSH1 0x4 PUSH2 0x442F JUMP JUMPDEST PUSH2 0x36F6 JUMP JUMPDEST PUSH2 0x7D1 PUSH2 0x917 CALLDATASIZE PUSH1 0x4 PUSH2 0x412B JUMP JUMPDEST PUSH1 0x6 PUSH1 0x20 DUP2 DUP2 MSTORE PUSH0 SWAP4 DUP5 MSTORE PUSH1 0x40 DUP1 DUP6 KECCAK256 SWAP1 SWAP2 MSTORE SWAP2 DUP4 MSTORE SWAP2 KECCAK256 DUP1 SLOAD PUSH1 0x1 DUP3 ADD SLOAD PUSH1 0x2 DUP4 ADD SLOAD PUSH1 0x3 DUP5 ADD SLOAD PUSH1 0x4 DUP6 ADD SLOAD PUSH1 0x5 DUP7 ADD SLOAD SWAP6 SWAP1 SWAP7 ADD SLOAD SWAP4 SWAP6 SWAP3 SWAP5 SWAP2 SWAP4 PUSH1 0x1 PUSH1 0x1 PUSH1 0xA0 SHL SUB SWAP1 SWAP2 AND SWAP3 SWAP2 SWAP1 PUSH1 0xFF AND DUP8 JUMP JUMPDEST PUSH2 0x9A9 PUSH2 0x977 CALLDATASIZE PUSH1 0x4 PUSH2 0x41ED JUMP JUMPDEST PUSH1 0x14 PUSH1 0x20 MSTORE PUSH0 SWAP1 DUP2 MSTORE PUSH1 0x40 SWAP1 KECCAK256 DUP1 SLOAD PUSH1 0x1 DUP3 ADD SLOAD PUSH1 0x2 DUP4 ADD SLOAD PUSH1 0x3 SWAP1 SWAP4 ADD SLOAD SWAP2 SWAP3 SWAP1 SWAP2 PUSH1 0xFF DUP1 DUP3 AND SWAP2 PUSH2 0x100 SWAP1 DIV AND DUP6 JUMP JUMPDEST PUSH1 0x40 DUP1 MLOAD SWAP6 DUP7 MSTORE PUSH1 0x20 DUP7 ADD SWAP5 SWAP1 SWAP5 MSTORE SWAP3 DUP5 ADD SWAP2 SWAP1 SWAP2 MSTORE ISZERO ISZERO PUSH1 0x60 DUP4 ADD MSTORE ISZERO ISZERO PUSH1 0x80 DUP3 ADD MSTORE PUSH1 0xA0 ADD PUSH2 0x3CB JUMP JUMPDEST PUSH2 0x590 PUSH2 0x9E3 CALLDATASIZE PUSH1 0x4 PUSH2 0x41ED JUMP JUMPDEST PUSH0 SWAP1 DUP2 MSTORE PUSH1 0x2 PUSH1 0x20 MSTORE PUSH1 0x40 SWAP1 KECCAK256 SLOAD PUSH1 0x1 PUSH1 0x1 PUSH1 0xA0 SHL SUB AND SWAP1 JUMP JUMPDEST PUSH2 0x9A9 PUSH2 0xA0B CALLDATASIZE PUSH1 0x4 PUSH2 0x41ED JUMP JUMPDEST PUSH2 0x3727 JUMP JUMPDEST PUSH2 0xA23 PUSH2 0xA1E CALLDATASIZE PUSH1 0x4 PUSH2 0x412B JUMP JUMPDEST PUSH2 0x37C7 JUMP JUMPDEST PUSH1 0x40 MLOAD PUSH2 0x3CB SWAP6 SWAP5 SWAP4 SWAP3 SWAP2 SWAP1 PUSH2 0x473D JUMP JUMPDEST PUSH2 0x412 PUSH2 0xA42 CALLDATASIZE PUSH1 0x4 PUSH2 0x412B JUMP JUMPDEST PUSH2 0x3929 JUMP JUMPDEST PUSH2 0x3E7 PUSH2 0xA55 CALLDATASIZE PUSH1 0x4 PUSH2 0x478A JUMP JUMPDEST PUSH2 0x3942 JUMP JUMPDEST PUSH2 0x412 PUSH0 MLOAD PUSH1 0x20 PUSH2 0x4B4F PUSH0 CODECOPY PUSH0 MLOAD SWAP1 PUSH0 MSTORE DUP2 JUMP JUMPDEST PUSH2 0x56B PUSH2 0xA7C CALLDATASIZE PUSH1 0x4 PUSH2 0x41ED JUMP JUMPDEST PUSH2 0x3D11 JUMP JUMPDEST PUSH2 0x412 PUSH2 0xA8F CALLDATASIZE PUSH1 0x4 PUSH2 0x412B JUMP JUMPDEST PUSH1 0xD PUSH1 0x20 SWAP1 DUP2 MSTORE PUSH0 SWAP3 DUP4 MSTORE PUSH1 0x40 DUP1 DUP5 KECCAK256 SWAP1 SWAP2 MSTORE SWAP1 DUP3 MSTORE SWAP1 KECCAK256 SLOAD DUP2 JUMP JUMPDEST PUSH2 0x3E7 PUSH2 0xAB9 CALLDATASIZE PUSH1 0x4 PUSH2 0x4238 JUMP JUMPDEST PUSH2 0x3E49 JUMP JUMPDEST PUSH1 0x8 PUSH1 0x20 MSTORE DUP2 PUSH0 MSTORE PUSH1 0x40 PUSH0 KECCAK256 PUSH1 0x20 MSTORE DUP1 PUSH0 MSTORE PUSH1 0x40 PUSH0 KECCAK256 PUSH0 SWAP2 POP SWAP2 POP POP DUP1 PUSH0 ADD SLOAD SWAP1 DUP1 PUSH1 0x1 ADD SLOAD SWAP1 DUP1 PUSH1 0x2 ADD SLOAD SWAP1 DUP1 PUSH1 0x3 ADD DUP1 SLOAD PUSH2 0xAFA SWAP1 PUSH2 0x47DE JUMP JUMPDEST DUP1 PUSH1 0x1F ADD PUSH1 0x20 DUP1 SWAP2 DIV MUL PUSH1 0x20 ADD PUSH1 0x40 MLOAD SWAP1 DUP2 ADD PUSH1 0x40 MSTORE DUP1 SWAP3 SWAP2 SWAP1 DUP2 DUP2 MSTORE PUSH1 0x20 ADD DUP3 DUP1 SLOAD PUSH2 0xB26 SWAP1 PUSH2 0x47DE JUMP JUMPDEST DUP1 ISZERO PUSH2 0xB71 JUMPI DUP1 PUSH1 0x1F LT PUSH2 0xB48 JUMPI PUSH2 0x100 DUP1 DUP4 SLOAD DIV MUL DUP4 MSTORE SWAP2 PUSH1 0x20 ADD SWAP2 PUSH2 0xB71 JUMP JUMPDEST DUP3 ADD SWAP2 SWAP1 PUSH0 MSTORE PUSH1 0x20 PUSH0 KECCAK256 SWAP1 JUMPDEST DUP2 SLOAD DUP2 MSTORE SWAP1 PUSH1 0x1 ADD SWAP1 PUSH1 0x20 ADD DUP1 DUP4 GT PUSH2 0xB54 JUMPI DUP3 SWAP1 SUB PUSH1 0x1F AND DUP3 ADD SWAP2 JUMPDEST POP POP POP POP POP SWAP1 DUP1 PUSH1 0x4 ADD SLOAD SWAP1 DUP1 PUSH1 0x5 ADD SLOAD SWAP1 DUP1 PUSH1 0x6 ADD DUP1 SLOAD PUSH2 0xB92 SWAP1 PUSH2 0x47DE JUMP JUMPDEST DUP1 PUSH1 0x1F ADD PUSH1 0x20 DUP1 SWAP2 DIV MUL PUSH1 0x20 ADD PUSH1 0x40 MLOAD SWAP1 DUP2 ADD PUSH1 0x40 MSTORE DUP1 SWAP3 SWAP2 SWAP1 DUP2 DUP2 MSTORE PUSH1 0x20 ADD DUP3 DUP1 SLOAD PUSH2 0xBBE SWAP1 PUSH2 0x47DE JUMP JUMPDEST DUP1 ISZERO PUSH2 0xC09 JUMPI DUP1 PUSH1 0x1F LT PUSH2 0xBE0 JUMPI PUSH2 0x100 DUP1 DUP4 SLOAD DIV MUL DUP4 MSTORE SWAP2 PUSH1 0x20 ADD SWAP2 PUSH2 0xC09 JUMP JUMPDEST DUP3 ADD SWAP2 SWAP1 PUSH0 MSTORE PUSH1 0x20 PUSH0 KECCAK256 SWAP1 JUMPDEST DUP2 SLOAD DUP2 MSTORE SWAP1 PUSH1 0x1 ADD SWAP1 PUSH1 0x20 ADD DUP1 DUP4 GT PUSH2 0xBEC JUMPI DUP3 SWAP1 SUB PUSH1 0x1F AND DUP3 ADD SWAP2 JUMPDEST POP POP POP POP PUSH1 0x7 DUP4 ADD SLOAD PUSH1 0x8 DUP5 ADD SLOAD PUSH1 0x9 SWAP1 SWAP5 ADD SLOAD SWAP3 SWAP4 PUSH1 0x1 PUSH1 0x1 PUSH1 0xA0 SHL SUB SWAP1 SWAP2 AND SWAP3 SWAP1 SWAP2 POP PUSH1 0xFF AND DUP11 JUMP JUMPDEST PUSH0 MLOAD PUSH1 0x20 PUSH2 0x4BAF PUSH0 CODECOPY PUSH0 MLOAD SWAP1 PUSH0 MSTORE PUSH2 0xC4C DUP2 CALLER PUSH2 0x20DA JUMP JUMPDEST PUSH2 0xC71 JUMPI PUSH1 0x40 MLOAD PUSH3 0x461BCD PUSH1 0xE5 SHL DUP2 MSTORE PUSH1 0x4 ADD PUSH2 0xC68 SWAP1 PUSH2 0x4810 JUMP JUMPDEST PUSH1 0x40 MLOAD DUP1 SWAP2 SUB SWAP1 REVERT JUMPDEST PUSH0 DUP3 DUP2 MSTORE PUSH1 0xC PUSH1 0x20 MSTORE PUSH1 0x40 SWAP1 KECCAK256 PUSH1 0x6 ADD SLOAD PUSH1 0x1 PUSH1 0xA0 SHL SWAP1 DIV PUSH1 0xFF AND PUSH2 0xCCA JUMPI PUSH1 0x40 MLOAD PUSH3 0x461BCD PUSH1 0xE5 SHL DUP2 MSTORE PUSH1 0x20 PUSH1 0x4 DUP3 ADD MSTORE PUSH1 0xF PUSH1 0x24 DUP3 ADD MSTORE PUSH15 0x105B1C9958591E481C995D9BDAD959 PUSH1 0x8A SHL PUSH1 0x44 DUP3 ADD MSTORE PUSH1 0x64 ADD PUSH2 0xC68 JUMP JUMPDEST PUSH0 DUP3 DUP2 MSTORE PUSH1 0xC PUSH1 0x20 MSTORE PUSH1 0x40 DUP1 DUP3 KECCAK256 PUSH1 0x6 ADD DUP1 SLOAD PUSH1 0xFF PUSH1 0xA0 SHL NOT AND SWAP1 SSTORE MLOAD CALLER SWAP2 DUP5 SWAP2 PUSH32 0x325C62E70CFAA61CF0709D9607EA9D8451B235297C4B47C65FF6A6449C9FACA4 SWAP2 SWAP1 LOG3 POP POP JUMP JUMPDEST PUSH1 0x60 PUSH1 0x9 DUP1 SLOAD PUSH2 0xD22 SWAP1 PUSH2 0x47DE JUMP JUMPDEST DUP1 PUSH1 0x1F ADD PUSH1 0x20 DUP1 SWAP2 DIV MUL PUSH1 0x20 ADD PUSH1 0x40 MLOAD SWAP1 DUP2 ADD PUSH1 0x40 MSTORE DUP1 SWAP3 SWAP2 SWAP1 DUP2 DUP2 MSTORE PUSH1 0x20 ADD DUP3 DUP1 SLOAD PUSH2 0xD4E SWAP1 PUSH2 0x47DE JUMP JUMPDEST DUP1 ISZERO PUSH2 0xD99 JUMPI DUP1 PUSH1 0x1F LT PUSH2 0xD70 JUMPI PUSH2 0x100 DUP1 DUP4 SLOAD DIV MUL DUP4 MSTORE SWAP2 PUSH1 0x20 ADD SWAP2 PUSH2 0xD99 JUMP JUMPDEST DUP3 ADD SWAP2 SWAP1 PUSH0 MSTORE PUSH1 0x20 PUSH0 KECCAK256 SWAP1 JUMPDEST DUP2 SLOAD DUP2 MSTORE SWAP1 PUSH1 0x1 ADD SWAP1 PUSH1 0x20 ADD DUP1 DUP4 GT PUSH2 0xD7C JUMPI DUP3 SWAP1 SUB PUSH1 0x1F AND DUP3 ADD SWAP2 JUMPDEST POP POP POP POP POP SWAP1 POP SWAP1 JUMP JUMPDEST PUSH0 MLOAD PUSH1 0x20 PUSH2 0x4BAF PUSH0 CODECOPY PUSH0 MLOAD SWAP1 PUSH0 MSTORE PUSH2 0xDBB DUP2 CALLER PUSH2 0x20DA JUMP JUMPDEST PUSH2 0xDD7 JUMPI PUSH1 0x40 MLOAD PUSH3 0x461BCD PUSH1 0xE5 SHL DUP2 MSTORE PUSH1 0x4 ADD PUSH2 0xC68 SWAP1 PUSH2 0x4810 JUMP JUMPDEST PUSH2 0xDEE PUSH0 MLOAD PUSH1 0x20 PUSH2 0x4B8F PUSH0 CODECOPY PUSH0 MLOAD SWAP1 PUSH0 MSTORE DUP4 PUSH2 0x3E94 JUMP JUMPDEST POP POP JUMP JUMPDEST PUSH2 0xDFA PUSH2 0x408C JUMP JUMPDEST PUSH0 MLOAD PUSH1 0x20 PUSH2 0x4B8F PUSH0 CODECOPY PUSH0 MLOAD SWAP1 PUSH0 MSTORE PUSH2 0xE12 DUP2 CALLER PUSH2 0x20DA JUMP JUMPDEST PUSH2 0xE2E JUMPI PUSH1 0x40 MLOAD PUSH3 0x461BCD PUSH1 0xE5 SHL DUP2 MSTORE PUSH1 0x4 ADD PUSH2 0xC68 SWAP1 PUSH2 0x4810 JUMP JUMPDEST PUSH0 DUP4 DUP2 MSTORE PUSH1 0xC PUSH1 0x20 MSTORE PUSH1 0x40 SWAP1 KECCAK256 PUSH1 0x6 ADD SLOAD PUSH1 0x1 PUSH1 0xA0 SHL SWAP1 DIV PUSH1 0xFF AND PUSH2 0xE8B JUMPI PUSH1 0x40 MLOAD PUSH3 0x461BCD PUSH1 0xE5 SHL DUP2 MSTORE PUSH1 0x20 PUSH1 0x4 DUP3 ADD MSTORE PUSH1 0x13 PUSH1 0x24 DUP3 ADD MSTORE PUSH19 0x496E76616C6964206365727469666963617465 PUSH1 0x68 SHL PUSH1 0x44 DUP3 ADD MSTORE PUSH1 0x64 ADD PUSH2 0xC68 JUMP JUMPDEST PUSH1 0xC PUSH0 DUP5 DUP2 MSTORE PUSH1 0x20 ADD SWAP1 DUP2 MSTORE PUSH1 0x20 ADD PUSH0 KECCAK256 PUSH1 0x40 MLOAD DUP1 PUSH2 0x100 ADD PUSH1 0x40 MSTORE SWAP1 DUP2 PUSH0 DUP3 ADD SLOAD DUP2 MSTORE PUSH1 0x20 ADD PUSH1 0x1 DUP3 ADD SLOAD DUP2 MSTORE PUSH1 0x20 ADD PUSH1 0x2 DUP3 ADD SLOAD DUP2 MSTORE PUSH1 0x20 ADD PUSH1 0x3 DUP3 ADD SLOAD DUP2 MSTORE PUSH1 0x20 ADD PUSH1 0x4 DUP3 ADD DUP1 SLOAD PUSH2 0xEDF SWAP1 PUSH2 0x47DE JUMP JUMPDEST DUP1 PUSH1 0x1F ADD PUSH1 0x20 DUP1 SWAP2 DIV MUL PUSH1 0x20 ADD PUSH1 0x40 MLOAD SWAP1 DUP2 ADD PUSH1 0x40 MSTORE DUP1 SWAP3 SWAP2 SWAP1 DUP2 DUP2 MSTORE PUSH1 0x20 ADD DUP3 DUP1 SLOAD PUSH2 0xF0B SWAP1 PUSH2 0x47DE JUMP JUMPDEST DUP1 ISZERO PUSH2 0xF56 JUMPI DUP1 PUSH1 0x1F LT PUSH2 0xF2D JUMPI PUSH2 0x100 DUP1 DUP4 SLOAD DIV MUL DUP4 MSTORE SWAP2 PUSH1 0x20 ADD SWAP2 PUSH2 0xF56 JUMP JUMPDEST DUP3 ADD SWAP2 SWAP1 PUSH0 MSTORE PUSH1 0x20 PUSH0 KECCAK256 SWAP1 JUMPDEST DUP2 SLOAD DUP2 MSTORE SWAP1 PUSH1 0x1 ADD SWAP1 PUSH1 0x20 ADD DUP1 DUP4 GT PUSH2 0xF39 JUMPI DUP3 SWAP1 SUB PUSH1 0x1F AND DUP3 ADD SWAP2 JUMPDEST POP POP POP SWAP2 DUP4 MSTORE POP POP PUSH1 0x5 DUP3 ADD SLOAD PUSH1 0x20 DUP3 ADD MSTORE PUSH1 0x6 SWAP1 SWAP2 ADD SLOAD PUSH1 0x1 PUSH1 0x1 PUSH1 0xA0 SHL SUB DUP2 AND PUSH1 0x40 DUP4 ADD MSTORE PUSH1 0x1 PUSH1 0xA0 SHL SWAP1 DIV PUSH1 0xFF AND ISZERO ISZERO PUSH1 0x60 SWAP1 SWAP2 ADD MSTORE SWAP2 POP JUMPDEST POP SWAP2 SWAP1 POP JUMP JUMPDEST PUSH0 MLOAD PUSH1 0x20 PUSH2 0x4BAF PUSH0 CODECOPY PUSH0 MLOAD SWAP1 PUSH0 MSTORE PUSH2 0xFB0 DUP2 CALLER PUSH2 0x20DA JUMP JUMPDEST PUSH2 0xFCC JUMPI PUSH1 0x40 MLOAD PUSH3 0x461BCD PUSH1 0xE5 SHL DUP2 MSTORE PUSH1 0x4 ADD PUSH2 0xC68 SWAP1 PUSH2 0x4810 JUMP JUMPDEST PUSH0 DUP4 GT PUSH2 0x100D JUMPI PUSH1 0x40 MLOAD PUSH3 0x461BCD PUSH1 0xE5 SHL DUP2 MSTORE PUSH1 0x20 PUSH1 0x4 DUP3 ADD MSTORE PUSH1 0xF PUSH1 0x24 DUP3 ADD MSTORE PUSH15 0x125B9D985B1A59081D195CDD081251 PUSH1 0x8A SHL PUSH1 0x44 DUP3 ADD MSTORE PUSH1 0x64 ADD PUSH2 0xC68 JUMP JUMPDEST PUSH0 DUP3 GT PUSH2 0x1051 JUMPI PUSH1 0x40 MLOAD PUSH3 0x461BCD PUSH1 0xE5 SHL DUP2 MSTORE PUSH1 0x20 PUSH1 0x4 DUP3 ADD MSTORE PUSH1 0x12 PUSH1 0x24 DUP3 ADD MSTORE PUSH18 0x125B9D985B1A590818DC99585D1BDC881251 PUSH1 0x72 SHL PUSH1 0x44 DUP3 ADD MSTORE PUSH1 0x64 ADD PUSH2 0xC68 JUMP JUMPDEST PUSH0 DUP4 DUP2 MSTORE PUSH1 0x14 PUSH1 0x20 MSTORE PUSH1 0x40 SWAP1 KECCAK256 PUSH1 0x3 ADD SLOAD PUSH2 0x100 SWAP1 DIV PUSH1 0xFF AND ISZERO PUSH2 0x10AD JUMPI PUSH1 0x40 MLOAD PUSH3 0x461BCD PUSH1 0xE5 SHL DUP2 MSTORE PUSH1 0x20 PUSH1 0x4 DUP3 ADD MSTORE PUSH1 0x13 PUSH1 0x24 DUP3 ADD MSTORE PUSH19 0x5465737420616C726561647920657869737473 PUSH1 0x68 SHL PUSH1 0x44 DUP3 ADD MSTORE PUSH1 0x64 ADD PUSH2 0xC68 JUMP JUMPDEST PUSH1 0x40 DUP1 MLOAD PUSH1 0xA0 DUP2 ADD DUP3 MSTORE DUP5 DUP2 MSTORE PUSH1 0x20 DUP1 DUP3 ADD DUP6 DUP2 MSTORE TIMESTAMP DUP4 DUP6 ADD DUP2 DUP2 MSTORE PUSH0 PUSH1 0x60 DUP7 ADD DUP2 DUP2 MSTORE PUSH1 0x1 PUSH1 0x80 DUP9 ADD DUP2 DUP2 MSTORE DUP13 DUP5 MSTORE PUSH1 0x14 DUP9 MSTORE DUP10 DUP5 KECCAK256 SWAP9 MLOAD DUP10 SSTORE SWAP6 MLOAD DUP9 DUP3 ADD SSTORE SWAP3 MLOAD PUSH1 0x2 DUP9 ADD SSTORE MLOAD PUSH1 0x3 SWAP1 SWAP7 ADD DUP1 SLOAD SWAP5 MLOAD ISZERO ISZERO PUSH2 0x100 MUL PUSH2 0xFF00 NOT SWAP8 ISZERO ISZERO SWAP8 SWAP1 SWAP8 AND PUSH2 0xFFFF NOT SWAP1 SWAP6 AND SWAP5 SWAP1 SWAP5 OR SWAP6 SWAP1 SWAP6 OR SWAP1 SWAP3 SSTORE DUP7 DUP5 MSTORE PUSH1 0x15 DUP4 MSTORE DUP5 DUP5 KECCAK256 DUP1 SLOAD SWAP3 DUP4 ADD DUP2 SSTORE DUP5 MSTORE SWAP3 DUP3 SWAP1 KECCAK256 ADD DUP7 SWAP1 SSTORE SWAP2 MLOAD SWAP1 DUP2 MSTORE DUP4 SWAP2 DUP6 SWAP2 PUSH32 0x7362A05DAFF7A219173125FC58B18F322F2E8B7E19DD728E5D5526716858DB61 SWAP2 ADD JUMPDEST PUSH1 0x40 MLOAD DUP1 SWAP2 SUB SWAP1 LOG3 POP POP POP JUMP JUMPDEST PUSH1 0x60 PUSH2 0x1190 PUSH0 MLOAD PUSH1 0x20 PUSH2 0x4BAF PUSH0 CODECOPY PUSH0 MLOAD SWAP1 PUSH0 MSTORE CALLER PUSH2 0x20DA JUMP JUMPDEST DUP1 PUSH2 0x11AD JUMPI POP PUSH2 0x11AD PUSH0 MLOAD PUSH1 0x20 PUSH2 0x4B6F PUSH0 CODECOPY PUSH0 MLOAD SWAP1 PUSH0 MSTORE CALLER PUSH2 0x20DA JUMP JUMPDEST PUSH2 0x11C9 JUMPI PUSH1 0x40 MLOAD PUSH3 0x461BCD PUSH1 0xE5 SHL DUP2 MSTORE PUSH1 0x4 ADD PUSH2 0xC68 SWAP1 PUSH2 0x4810 JUMP JUMPDEST PUSH0 DUP3 DUP2 MSTORE PUSH1 0x12 PUSH1 0x20 SWAP1 DUP2 MSTORE PUSH1 0x40 DUP1 DUP4 KECCAK256 DUP1 SLOAD DUP3 MLOAD DUP2 DUP6 MUL DUP2 ADD DUP6 ADD SWAP1 SWAP4 MSTORE DUP1 DUP4 MSTORE SWAP2 SWAP4 SWAP1 SWAP3 DUP5 ADD JUMPDEST DUP3 DUP3 LT ISZERO PUSH2 0x136C JUMPI PUSH0 DUP5 DUP2 MSTORE PUSH1 0x20 SWAP1 DUP2 SWAP1 KECCAK256 PUSH1 0x40 DUP1 MLOAD PUSH1 0xA0 DUP2 ADD DUP3 MSTORE PUSH1 0x5 DUP7 MUL SWAP1 SWAP3 ADD DUP1 SLOAD DUP4 MSTORE PUSH1 0x1 DUP2 ADD SLOAD PUSH1 0x1 PUSH1 0x1 PUSH1 0xA0 SHL SUB AND SWAP4 DUP4 ADD SWAP4 SWAP1 SWAP4 MSTORE PUSH1 0x2 DUP4 ADD DUP1 SLOAD SWAP3 SWAP4 SWAP3 SWAP2 DUP5 ADD SWAP2 PUSH2 0x1243 SWAP1 PUSH2 0x47DE JUMP JUMPDEST DUP1 PUSH1 0x1F ADD PUSH1 0x20 DUP1 SWAP2 DIV MUL PUSH1 0x20 ADD PUSH1 0x40 MLOAD SWAP1 DUP2 ADD PUSH1 0x40 MSTORE DUP1 SWAP3 SWAP2 SWAP1 DUP2 DUP2 MSTORE PUSH1 0x20 ADD DUP3 DUP1 SLOAD PUSH2 0x126F SWAP1 PUSH2 0x47DE JUMP JUMPDEST DUP1 ISZERO PUSH2 0x12BA JUMPI DUP1 PUSH1 0x1F LT PUSH2 0x1291 JUMPI PUSH2 0x100 DUP1 DUP4 SLOAD DIV MUL DUP4 MSTORE SWAP2 PUSH1 0x20 ADD SWAP2 PUSH2 0x12BA JUMP JUMPDEST DUP3 ADD SWAP2 SWAP1 PUSH0 MSTORE PUSH1 0x20 PUSH0 KECCAK256 SWAP1 JUMPDEST DUP2 SLOAD DUP2 MSTORE SWAP1 PUSH1 0x1 ADD SWAP1 PUSH1 0x20 ADD DUP1 DUP4 GT PUSH2 0x129D JUMPI DUP3 SWAP1 SUB PUSH1 0x1F AND DUP3 ADD SWAP2 JUMPDEST POP POP POP POP POP DUP2 MSTORE PUSH1 0x20 ADD PUSH1 0x3 DUP3 ADD SLOAD DUP2 MSTORE PUSH1 0x20 ADD PUSH1 0x4 DUP3 ADD DUP1 SLOAD PUSH2 0x12DD SWAP1 PUSH2 0x47DE JUMP JUMPDEST DUP1 PUSH1 0x1F ADD PUSH1 0x20 DUP1 SWAP2 DIV MUL PUSH1 0x20 ADD PUSH1 0x40 MLOAD SWAP1 DUP2 ADD PUSH1 0x40 MSTORE DUP1 SWAP3 SWAP2 SWAP1 DUP2 DUP2 MSTORE PUSH1 0x20 ADD DUP3 DUP1 SLOAD PUSH2 0x1309 SWAP1 PUSH2 0x47DE JUMP JUMPDEST DUP1 ISZERO PUSH2 0x1354 JUMPI DUP1 PUSH1 0x1F LT PUSH2 0x132B JUMPI PUSH2 0x100 DUP1 DUP4 SLOAD DIV MUL DUP4 MSTORE SWAP2 PUSH1 0x20 ADD SWAP2 PUSH2 0x1354 JUMP JUMPDEST DUP3 ADD SWAP2 SWAP1 PUSH0 MSTORE PUSH1 0x20 PUSH0 KECCAK256 SWAP1 JUMPDEST DUP2 SLOAD DUP2 MSTORE SWAP1 PUSH1 0x1 ADD SWAP1 PUSH1 0x20 ADD DUP1 DUP4 GT PUSH2 0x1337 JUMPI DUP3 SWAP1 SUB PUSH1 0x1F AND DUP3 ADD SWAP2 JUMPDEST POP POP POP POP POP DUP2 MSTORE POP POP DUP2 MSTORE PUSH1 0x20 ADD SWAP1 PUSH1 0x1 ADD SWAP1 PUSH2 0x11F1 JUMP JUMPDEST POP POP POP POP SWAP1 POP SWAP2 SWAP1 POP JUMP JUMPDEST PUSH2 0x137F PUSH2 0x40D5 JUMP JUMPDEST PUSH2 0x1396 PUSH0 MLOAD PUSH1 0x20 PUSH2 0x4B6F PUSH0 CODECOPY PUSH0 MLOAD SWAP1 PUSH0 MSTORE CALLER PUSH2 0x20DA JUMP JUMPDEST DUP1 PUSH2 0x13B3 JUMPI POP PUSH2 0x13B3 PUSH0 MLOAD PUSH1 0x20 PUSH2 0x4BAF PUSH0 CODECOPY PUSH0 MLOAD SWAP1 PUSH0 MSTORE CALLER PUSH2 0x20DA JUMP JUMPDEST DUP1 PUSH2 0x13F0 JUMPI POP PUSH0 DUP4 DUP2 MSTORE PUSH1 0x2 PUSH1 0x20 MSTORE PUSH1 0x40 SWAP1 KECCAK256 SLOAD PUSH1 0x1 PUSH1 0x1 PUSH1 0xA0 SHL SUB AND CALLER EQ DUP1 ISZERO PUSH2 0x13F0 JUMPI POP PUSH2 0x13F0 PUSH0 MLOAD PUSH1 0x20 PUSH2 0x4B4F PUSH0 CODECOPY PUSH0 MLOAD SWAP1 PUSH0 MSTORE CALLER PUSH2 0x20DA JUMP JUMPDEST PUSH2 0x140C JUMPI PUSH1 0x40 MLOAD PUSH3 0x461BCD PUSH1 0xE5 SHL DUP2 MSTORE PUSH1 0x4 ADD PUSH2 0xC68 SWAP1 PUSH2 0x4810 JUMP JUMPDEST PUSH1 0x8 PUSH0 DUP5 DUP2 MSTORE PUSH1 0x20 ADD SWAP1 DUP2 MSTORE PUSH1 0x20 ADD PUSH0 KECCAK256 PUSH0 DUP4 DUP2 MSTORE PUSH1 0x20 ADD SWAP1 DUP2 MSTORE PUSH1 0x20 ADD PUSH0 KECCAK256 PUSH1 0x40 MLOAD DUP1 PUSH2 0x140 ADD PUSH1 0x40 MSTORE SWAP1 DUP2 PUSH0 DUP3 ADD SLOAD DUP2 MSTORE PUSH1 0x20 ADD PUSH1 0x1 DUP3 ADD SLOAD DUP2 MSTORE PUSH1 0x20 ADD PUSH1 0x2 DUP3 ADD SLOAD DUP2 MSTORE PUSH1 0x20 ADD PUSH1 0x3 DUP3 ADD DUP1 SLOAD PUSH2 0x1465 SWAP1 PUSH2 0x47DE JUMP JUMPDEST DUP1 PUSH1 0x1F ADD PUSH1 0x20 DUP1 SWAP2 DIV MUL PUSH1 0x20 ADD PUSH1 0x40 MLOAD SWAP1 DUP2 ADD PUSH1 0x40 MSTORE DUP1 SWAP3 SWAP2 SWAP1 DUP2 DUP2 MSTORE PUSH1 0x20 ADD DUP3 DUP1 SLOAD PUSH2 0x1491 SWAP1 PUSH2 0x47DE JUMP JUMPDEST DUP1 ISZERO PUSH2 0x14DC JUMPI DUP1 PUSH1 0x1F LT PUSH2 0x14B3 JUMPI PUSH2 0x100 DUP1 DUP4 SLOAD DIV MUL DUP4 MSTORE SWAP2 PUSH1 0x20 ADD SWAP2 PUSH2 0x14DC JUMP JUMPDEST DUP3 ADD SWAP2 SWAP1 PUSH0 MSTORE PUSH1 0x20 PUSH0 KECCAK256 SWAP1 JUMPDEST DUP2 SLOAD DUP2 MSTORE SWAP1 PUSH1 0x1 ADD SWAP1 PUSH1 0x20 ADD DUP1 DUP4 GT PUSH2 0x14BF JUMPI DUP3 SWAP1 SUB PUSH1 0x1F AND DUP3 ADD SWAP2 JUMPDEST POP POP POP POP POP DUP2 MSTORE PUSH1 0x20 ADD PUSH1 0x4 DUP3 ADD SLOAD DUP2 MSTORE PUSH1 0x20 ADD PUSH1 0x5 DUP3 ADD SLOAD DUP2 MSTORE PUSH1 0x20 ADD PUSH1 0x6 DUP3 ADD DUP1 SLOAD PUSH2 0x1509 SWAP1 PUSH2 0x47DE JUMP JUMPDEST DUP1 PUSH1 0x1F ADD PUSH1 0x20 DUP1 SWAP2 DIV MUL PUSH1 0x20 ADD PUSH1 0x40 MLOAD SWAP1 DUP2 ADD PUSH1 0x40 MSTORE DUP1 SWAP3 SWAP2 SWAP1 DUP2 DUP2 MSTORE PUSH1 0x20 ADD DUP3 DUP1 SLOAD PUSH2 0x1535 SWAP1 PUSH2 0x47DE JUMP JUMPDEST DUP1 ISZERO PUSH2 0x1580 JUMPI DUP1 PUSH1 0x1F LT PUSH2 0x1557 JUMPI PUSH2 0x100 DUP1 DUP4 SLOAD DIV MUL DUP4 MSTORE SWAP2 PUSH1 0x20 ADD SWAP2 PUSH2 0x1580 JUMP JUMPDEST DUP3 ADD SWAP2 SWAP1 PUSH0 MSTORE PUSH1 0x20 PUSH0 KECCAK256 SWAP1 JUMPDEST DUP2 SLOAD DUP2 MSTORE SWAP1 PUSH1 0x1 ADD SWAP1 PUSH1 0x20 ADD DUP1 DUP4 GT PUSH2 0x1563 JUMPI DUP3 SWAP1 SUB PUSH1 0x1F AND DUP3 ADD SWAP2 JUMPDEST POP POP POP SWAP2 DUP4 MSTORE POP POP PUSH1 0x7 DUP3 ADD SLOAD PUSH1 0x1 PUSH1 0x1 PUSH1 0xA0 SHL SUB AND PUSH1 0x20 DUP3 ADD MSTORE PUSH1 0x8 DUP3 ADD SLOAD PUSH1 0x40 DUP3 ADD MSTORE PUSH1 0x9 SWAP1 SWAP2 ADD SLOAD PUSH1 0xFF AND ISZERO ISZERO PUSH1 0x60 SWAP1 SWAP2 ADD MSTORE SWAP1 POP JUMPDEST SWAP3 SWAP2 POP POP JUMP JUMPDEST PUSH0 MLOAD PUSH1 0x20 PUSH2 0x4BAF PUSH0 CODECOPY PUSH0 MLOAD SWAP1 PUSH0 MSTORE PUSH2 0x15D7 DUP2 CALLER PUSH2 0x20DA JUMP JUMPDEST PUSH2 0x15F3 JUMPI PUSH1 0x40 MLOAD PUSH3 0x461BCD PUSH1 0xE5 SHL DUP2 MSTORE PUSH1 0x4 ADD PUSH2 0xC68 SWAP1 PUSH2 0x4810 JUMP JUMPDEST PUSH2 0xDEE PUSH0 MLOAD PUSH1 0x20 PUSH2 0x4B8F PUSH0 CODECOPY PUSH0 MLOAD SWAP1 PUSH0 MSTORE DUP4 PUSH2 0x3EFA JUMP JUMPDEST PUSH0 PUSH2 0x1615 DUP2 CALLER PUSH2 0x20DA JUMP JUMPDEST PUSH2 0x1631 JUMPI PUSH1 0x40 MLOAD PUSH3 0x461BCD PUSH1 0xE5 SHL DUP2 MSTORE PUSH1 0x4 ADD PUSH2 0xC68 SWAP1 PUSH2 0x4810 JUMP JUMPDEST PUSH2 0x163B DUP4 DUP4 PUSH2 0x3E94 JUMP JUMPDEST POP POP POP JUMP JUMPDEST PUSH0 MLOAD PUSH1 0x20 PUSH2 0x4BAF PUSH0 CODECOPY PUSH0 MLOAD SWAP1 PUSH0 MSTORE PUSH2 0x1658 DUP2 CALLER PUSH2 0x20DA JUMP JUMPDEST PUSH2 0x1674 JUMPI PUSH1 0x40 MLOAD PUSH3 0x461BCD PUSH1 0xE5 SHL DUP2 MSTORE PUSH1 0x4 ADD PUSH2 0xC68 SWAP1 PUSH2 0x4810 JUMP JUMPDEST PUSH2 0xDEE PUSH0 MLOAD PUSH1 0x20 PUSH2 0x4B4F PUSH0 CODECOPY PUSH0 MLOAD SWAP1 PUSH0 MSTORE DUP4 PUSH2 0x3EFA JUMP JUMPDEST PUSH0 DUP2 DUP2 MSTORE PUSH1 0x15 PUSH1 0x20 SWAP1 DUP2 MSTORE PUSH1 0x40 SWAP2 DUP3 SWAP1 KECCAK256 DUP1 SLOAD DUP4 MLOAD DUP2 DUP5 MUL DUP2 ADD DUP5 ADD SWAP1 SWAP5 MSTORE DUP1 DUP5 MSTORE PUSH1 0x60 SWAP4 SWAP3 DUP4 ADD DUP3 DUP3 DUP1 ISZERO PUSH2 0x16DE JUMPI PUSH1 0x20 MUL DUP3 ADD SWAP2 SWAP1 PUSH0 MSTORE PUSH1 0x20 PUSH0 KECCAK256 SWAP1 JUMPDEST DUP2 SLOAD DUP2 MSTORE PUSH1 0x20 ADD SWAP1 PUSH1 0x1 ADD SWAP1 DUP1 DUP4 GT PUSH2 0x16CA JUMPI JUMPDEST POP POP POP POP POP SWAP1 POP SWAP2 SWAP1 POP JUMP JUMPDEST PUSH0 MLOAD PUSH1 0x20 PUSH2 0x4B6F PUSH0 CODECOPY PUSH0 MLOAD SWAP1 PUSH0 MSTORE PUSH2 0x1702 DUP2 CALLER PUSH2 0x20DA JUMP JUMPDEST PUSH2 0x171E JUMPI PUSH1 0x40 MLOAD PUSH3 0x461BCD PUSH1 0xE5 SHL DUP2 MSTORE PUSH1 0x4 ADD PUSH2 0xC68 SWAP1 PUSH2 0x4810 JUMP JUMPDEST PUSH0 DUP4 DUP2 MSTORE PUSH1 0x4 PUSH1 0x20 DUP2 SWAP1 MSTORE PUSH1 0x40 SWAP1 SWAP2 KECCAK256 ADD SLOAD PUSH2 0x100 SWAP1 DIV PUSH1 0xFF AND PUSH2 0x1754 JUMPI PUSH1 0x40 MLOAD PUSH3 0x461BCD PUSH1 0xE5 SHL DUP2 MSTORE PUSH1 0x4 ADD PUSH2 0xC68 SWAP1 PUSH2 0x4837 JUMP JUMPDEST PUSH1 0x64 DUP3 GT ISZERO PUSH2 0x1775 JUMPI PUSH1 0x40 MLOAD PUSH3 0x461BCD PUSH1 0xE5 SHL DUP2 MSTORE PUSH1 0x4 ADD PUSH2 0xC68 SWAP1 PUSH2 0x4864 JUMP JUMPDEST PUSH0 DUP5 DUP2 MSTORE PUSH1 0x6 PUSH1 0x20 SWAP1 DUP2 MSTORE PUSH1 0x40 DUP1 DUP4 KECCAK256 DUP7 DUP5 MSTORE SWAP1 SWAP2 MSTORE DUP2 KECCAK256 SLOAD SWAP1 SUB PUSH2 0x17D3 JUMPI PUSH1 0x40 MLOAD PUSH3 0x461BCD PUSH1 0xE5 SHL DUP2 MSTORE PUSH1 0x20 PUSH1 0x4 DUP3 ADD MSTORE PUSH1 0x14 PUSH1 0x24 DUP3 ADD MSTORE PUSH20 0x14D8DBDC9948191BD95CC81B9BDD08195E1A5CDD PUSH1 0x62 SHL PUSH1 0x44 DUP3 ADD MSTORE PUSH1 0x64 ADD PUSH2 0xC68 JUMP JUMPDEST PUSH0 DUP5 DUP2 MSTORE PUSH1 0x6 PUSH1 0x20 DUP2 DUP2 MSTORE PUSH1 0x40 DUP1 DUP5 KECCAK256 DUP8 DUP6 MSTORE SWAP1 SWAP2 MSTORE SWAP1 SWAP2 KECCAK256 ADD SLOAD PUSH1 0xFF AND ISZERO PUSH2 0x1833 JUMPI PUSH1 0x40 MLOAD PUSH3 0x461BCD PUSH1 0xE5 SHL DUP2 MSTORE PUSH1 0x20 PUSH1 0x4 DUP3 ADD MSTORE PUSH1 0x12 PUSH1 0x24 DUP3 ADD MSTORE PUSH18 0x14D8DBDC99481A5CC8199A5B985B1A5E9959 PUSH1 0x72 SHL PUSH1 0x44 DUP3 ADD MSTORE PUSH1 0x64 ADD PUSH2 0xC68 JUMP JUMPDEST PUSH0 DUP5 DUP2 MSTORE PUSH1 0x6 PUSH1 0x20 SWAP1 DUP2 MSTORE PUSH1 0x40 DUP1 DUP4 KECCAK256 DUP7 DUP5 MSTORE DUP3 MSTORE SWAP2 DUP3 SWAP1 KECCAK256 PUSH1 0x2 DUP2 ADD DUP1 SLOAD SWAP1 DUP7 SWAP1 SSTORE TIMESTAMP PUSH1 0x5 SWAP1 SWAP3 ADD SWAP2 SWAP1 SWAP2 SSTORE DUP3 MLOAD DUP2 DUP2 MSTORE SWAP2 DUP3 ADD DUP6 SWAP1 MSTORE SWAP2 CALLER SWAP2 DUP7 SWAP2 DUP9 SWAP2 PUSH32 0xAFCA19E7338B80A137BDD94E7B2EC35D7D842CC5C4D91A3576D97135E9DE063D SWAP2 ADD JUMPDEST PUSH1 0x40 MLOAD DUP1 SWAP2 SUB SWAP1 LOG4 POP POP POP POP POP JUMP JUMPDEST PUSH0 MLOAD PUSH1 0x20 PUSH2 0x4BAF PUSH0 CODECOPY PUSH0 MLOAD SWAP1 PUSH0 MSTORE PUSH2 0x18BD DUP2 CALLER PUSH2 0x20DA JUMP JUMPDEST PUSH2 0x18D9 JUMPI PUSH1 0x40 MLOAD PUSH3 0x461BCD PUSH1 0xE5 SHL DUP2 MSTORE PUSH1 0x4 ADD PUSH2 0xC68 SWAP1 PUSH2 0x4810 JUMP JUMPDEST PUSH0 DUP3 DUP2 MSTORE PUSH1 0x14 PUSH1 0x20 MSTORE PUSH1 0x40 SWAP1 KECCAK256 PUSH1 0x3 ADD SLOAD PUSH2 0x100 SWAP1 DIV PUSH1 0xFF AND PUSH2 0x190E JUMPI PUSH1 0x40 MLOAD PUSH3 0x461BCD PUSH1 0xE5 SHL DUP2 MSTORE PUSH1 0x4 ADD PUSH2 0xC68 SWAP1 PUSH2 0x4892 JUMP JUMPDEST PUSH0 DUP3 DUP2 MSTORE PUSH1 0x14 PUSH1 0x20 MSTORE PUSH1 0x40 SWAP1 KECCAK256 PUSH1 0x3 ADD SLOAD PUSH1 0xFF AND ISZERO PUSH2 0x1966 JUMPI PUSH1 0x40 MLOAD PUSH3 0x461BCD PUSH1 0xE5 SHL DUP2 MSTORE PUSH1 0x20 PUSH1 0x4 DUP3 ADD MSTORE PUSH1 0x14 PUSH1 0x24 DUP3 ADD MSTORE PUSH20 0x15195CDD08185B1C9958591E48189B1BD8DAD959 PUSH1 0x62 SHL PUSH1 0x44 DUP3 ADD MSTORE PUSH1 0x64 ADD PUSH2 0xC68 JUMP JUMPDEST PUSH0 DUP3 DUP2 MSTORE PUSH1 0x14 PUSH1 0x20 MSTORE PUSH1 0x40 DUP1 DUP3 KECCAK256 PUSH1 0x3 ADD DUP1 SLOAD PUSH1 0xFF NOT AND PUSH1 0x1 OR SWAP1 SSTORE MLOAD CALLER SWAP2 DUP5 SWAP2 PUSH32 0xE63354374974D42E2A4930C5C063D6B47516E4000F1E651731247D2E7053920C SWAP2 SWAP1 LOG3 POP POP JUMP JUMPDEST PUSH1 0x4 PUSH1 0x20 MSTORE PUSH0 SWAP1 DUP2 MSTORE PUSH1 0x40 SWAP1 KECCAK256 DUP1 SLOAD DUP2 SWAP1 PUSH2 0x19C9 SWAP1 PUSH2 0x47DE JUMP JUMPDEST DUP1 PUSH1 0x1F ADD PUSH1 0x20 DUP1 SWAP2 DIV MUL PUSH1 0x20 ADD PUSH1 0x40 MLOAD SWAP1 DUP2 ADD PUSH1 0x40 MSTORE DUP1 SWAP3 SWAP2 SWAP1 DUP2 DUP2 MSTORE PUSH1 0x20 ADD DUP3 DUP1 SLOAD PUSH2 0x19F5 SWAP1 PUSH2 0x47DE JUMP JUMPDEST DUP1 ISZERO PUSH2 0x1A40 JUMPI DUP1 PUSH1 0x1F LT PUSH2 0x1A17 JUMPI PUSH2 0x100 DUP1 DUP4 SLOAD DIV MUL DUP4 MSTORE SWAP2 PUSH1 0x20 ADD SWAP2 PUSH2 0x1A40 JUMP JUMPDEST DUP3 ADD SWAP2 SWAP1 PUSH0 MSTORE PUSH1 0x20 PUSH0 KECCAK256 SWAP1 JUMPDEST DUP2 SLOAD DUP2 MSTORE SWAP1 PUSH1 0x1 ADD SWAP1 PUSH1 0x20 ADD DUP1 DUP4 GT PUSH2 0x1A23 JUMPI DUP3 SWAP1 SUB PUSH1 0x1F AND DUP3 ADD SWAP2 JUMPDEST POP POP POP POP PUSH1 0x1 DUP4 ADD SLOAD PUSH1 0x2 DUP5 ADD SLOAD PUSH1 0x3 DUP6 ADD SLOAD PUSH1 0x4 SWAP1 SWAP6 ADD SLOAD SWAP4 SWAP5 SWAP2 SWAP4 PUSH1 0x1 PUSH1 0x1 PUSH1 0xA0 SHL SUB SWAP1 SWAP2 AND SWAP3 POP PUSH1 0xFF DUP1 DUP3 AND SWAP2 PUSH2 0x100 SWAP1 DIV AND DUP7 JUMP JUMPDEST PUSH0 DUP2 DUP2 MSTORE PUSH1 0xE PUSH1 0x20 MSTORE PUSH1 0x40 DUP2 KECCAK256 SLOAD PUSH1 0x1 PUSH1 0x1 PUSH1 0xA0 SHL SUB AND DUP1 PUSH2 0x15B9 JUMPI PUSH1 0x40 MLOAD PUSH3 0x461BCD PUSH1 0xE5 SHL DUP2 MSTORE PUSH1 0x20 PUSH1 0x4 DUP3 ADD MSTORE PUSH1 0x11 PUSH1 0x24 DUP3 ADD MSTORE PUSH17 0x2737B732BC34B9BA32B73A103A37B5B2B7 PUSH1 0x79 SHL PUSH1 0x44 DUP3 ADD MSTORE PUSH1 0x64 ADD PUSH2 0xC68 JUMP JUMPDEST PUSH1 0xC PUSH1 0x20 MSTORE PUSH0 SWAP1 DUP2 MSTORE PUSH1 0x40 SWAP1 KECCAK256 DUP1 SLOAD PUSH1 0x1 DUP3 ADD SLOAD PUSH1 0x2 DUP4 ADD SLOAD PUSH1 0x3 DUP5 ADD SLOAD PUSH1 0x4 DUP6 ADD DUP1 SLOAD SWAP5 SWAP6 SWAP4 SWAP5 SWAP3 SWAP4 SWAP2 SWAP3 PUSH2 0x1B06 SWAP1 PUSH2 0x47DE JUMP JUMPDEST DUP1 PUSH1 0x1F ADD PUSH1 0x20 DUP1 SWAP2 DIV MUL PUSH1 0x20 ADD PUSH1 0x40 MLOAD SWAP1 DUP2 ADD PUSH1 0x40 MSTORE DUP1 SWAP3 SWAP2 SWAP1 DUP2 DUP2 MSTORE PUSH1 0x20 ADD DUP3 DUP1 SLOAD PUSH2 0x1B32 SWAP1 PUSH2 0x47DE JUMP JUMPDEST DUP1 ISZERO PUSH2 0x1B7D JUMPI DUP1 PUSH1 0x1F LT PUSH2 0x1B54 JUMPI PUSH2 0x100 DUP1 DUP4 SLOAD DIV MUL DUP4 MSTORE SWAP2 PUSH1 0x20 ADD SWAP2 PUSH2 0x1B7D JUMP JUMPDEST DUP3 ADD SWAP2 SWAP1 PUSH0 MSTORE PUSH1 0x20 PUSH0 KECCAK256 SWAP1 JUMPDEST DUP2 SLOAD DUP2 MSTORE SWAP1 PUSH1 0x1 ADD SWAP1 PUSH1 0x20 ADD DUP1 DUP4 GT PUSH2 0x1B60 JUMPI DUP3 SWAP1 SUB PUSH1 0x1F AND DUP3 ADD SWAP2 JUMPDEST POP POP POP POP PUSH1 0x5 DUP4 ADD SLOAD PUSH1 0x6 SWAP1 SWAP4 ADD SLOAD SWAP2 SWAP3 SWAP2 PUSH1 0x1 PUSH1 0x1 PUSH1 0xA0 SHL SUB DUP2 AND SWAP2 POP PUSH1 0x1 PUSH1 0xA0 SHL SWAP1 DIV PUSH1 0xFF AND DUP9 JUMP JUMPDEST PUSH0 MLOAD PUSH1 0x20 PUSH2 0x4BAF PUSH0 CODECOPY PUSH0 MLOAD SWAP1 PUSH0 MSTORE PUSH2 0x1BC0 DUP2 CALLER PUSH2 0x20DA JUMP JUMPDEST PUSH2 0x1BDC JUMPI PUSH1 0x40 MLOAD PUSH3 0x461BCD PUSH1 0xE5 SHL DUP2 MSTORE PUSH1 0x4 ADD PUSH2 0xC68 SWAP1 PUSH2 0x4810 JUMP JUMPDEST PUSH2 0xDEE PUSH0 MLOAD PUSH1 0x20 PUSH2 0x4B6F PUSH0 CODECOPY PUSH0 MLOAD SWAP1 PUSH0 MSTORE DUP4 PUSH2 0x3E94 JUMP JUMPDEST PUSH0 MLOAD PUSH1 0x20 PUSH2 0x4BAF PUSH0 CODECOPY PUSH0 MLOAD SWAP1 PUSH0 MSTORE PUSH2 0x1C0B DUP2 CALLER PUSH2 0x20DA JUMP JUMPDEST PUSH2 0x1C27 JUMPI PUSH1 0x40 MLOAD PUSH3 0x461BCD PUSH1 0xE5 SHL DUP2 MSTORE PUSH1 0x4 ADD PUSH2 0xC68 SWAP1 PUSH2 0x4810 JUMP JUMPDEST PUSH0 DUP4 GT PUSH2 0x1C46 JUMPI PUSH1 0x40 MLOAD PUSH3 0x461BCD PUSH1 0xE5 SHL DUP2 MSTORE PUSH1 0x4 ADD PUSH2 0xC68 SWAP1 PUSH2 0x48BF JUMP JUMPDEST PUSH1 0x1 PUSH1 0x1 PUSH1 0xA0 SHL SUB DUP3 AND PUSH2 0x1C6C JUMPI PUSH1 0x40 MLOAD PUSH3 0x461BCD PUSH1 0xE5 SHL DUP2 MSTORE PUSH1 0x4 ADD PUSH2 0xC68 SWAP1 PUSH2 0x48EB JUMP JUMPDEST PUSH0 DUP4 DUP2 MSTORE PUSH1 0x2 PUSH1 0x20 MSTORE PUSH1 0x40 SWAP1 KECCAK256 SLOAD PUSH1 0x1 PUSH1 0x1 PUSH1 0xA0 SHL SUB AND PUSH2 0x1CCF JUMPI PUSH1 0x40 MLOAD PUSH3 0x461BCD PUSH1 0xE5 SHL DUP2 MSTORE PUSH1 0x20 PUSH1 0x4 DUP3 ADD MSTORE PUSH1 0x17 PUSH1 0x24 DUP3 ADD MSTORE PUSH32 0x53747564656E742061646472657373206E6F7420736574000000000000000000 PUSH1 0x44 DUP3 ADD MSTORE PUSH1 0x64 ADD PUSH2 0xC68 JUMP JUMPDEST PUSH1 0x1 PUSH1 0x1 PUSH1 0xA0 SHL SUB DUP3 AND PUSH0 SWAP1 DUP2 MSTORE PUSH1 0x3 PUSH1 0x20 MSTORE PUSH1 0x40 SWAP1 KECCAK256 SLOAD ISZERO PUSH2 0x1D04 JUMPI PUSH1 0x40 MLOAD PUSH3 0x461BCD PUSH1 0xE5 SHL DUP2 MSTORE PUSH1 0x4 ADD PUSH2 0xC68 SWAP1 PUSH2 0x4914 JUMP JUMPDEST PUSH0 DUP4 DUP2 MSTORE PUSH1 0x2 PUSH1 0x20 SWAP1 DUP2 MSTORE PUSH1 0x40 DUP1 DUP4 KECCAK256 DUP1 SLOAD PUSH1 0x1 PUSH1 0x1 PUSH1 0xA0 SHL SUB SWAP1 DUP2 AND DUP1 DUP7 MSTORE PUSH1 0x3 DUP6 MSTORE DUP4 DUP7 KECCAK256 DUP7 SWAP1 SSTORE DUP3 SLOAD PUSH1 0x1 PUSH1 0x1 PUSH1 0xA0 SHL SUB NOT AND SWAP2 DUP9 AND SWAP2 DUP3 OR SWAP1 SWAP3 SSTORE DUP1 DUP6 MSTORE SWAP4 DUP3 SWAP1 KECCAK256 DUP8 SWAP1 SSTORE SWAP1 MLOAD CALLER DUP2 MSTORE SWAP1 SWAP3 SWAP2 DUP4 SWAP2 DUP8 SWAP2 PUSH32 0x59E33F3654F744A7A32CDA9A919FA879941875BB700D1C776ADE2F64E23B4649 SWAP2 ADD JUMPDEST PUSH1 0x40 MLOAD DUP1 SWAP2 SUB SWAP1 LOG4 POP POP POP POP JUMP JUMPDEST PUSH0 PUSH1 0x1 PUSH1 0x1 PUSH1 0xA0 SHL SUB DUP3 AND PUSH2 0x1DB2 JUMPI PUSH1 0x40 MLOAD PUSH3 0x461BCD PUSH1 0xE5 SHL DUP2 MSTORE PUSH1 0x4 ADD PUSH2 0xC68 SWAP1 PUSH2 0x48EB JUMP JUMPDEST POP PUSH1 0x1 PUSH1 0x1 PUSH1 0xA0 SHL SUB AND PUSH0 SWAP1 DUP2 MSTORE PUSH1 0xF PUSH1 0x20 MSTORE PUSH1 0x40 SWAP1 KECCAK256 SLOAD SWAP1 JUMP JUMPDEST PUSH1 0x5 PUSH1 0x20 MSTORE DUP2 PUSH0 MSTORE PUSH1 0x40 PUSH0 KECCAK256 DUP2 DUP2 SLOAD DUP2 LT PUSH2 0x1DE6 JUMPI PUSH0 DUP1 REVERT JUMPDEST SWAP1 PUSH0 MSTORE PUSH1 0x20 PUSH0 KECCAK256 ADD PUSH0 SWAP2 POP SWAP2 POP POP SLOAD DUP2 JUMP JUMPDEST PUSH0 MLOAD PUSH1 0x20 PUSH2 0x4B6F PUSH0 CODECOPY PUSH0 MLOAD SWAP1 PUSH0 MSTORE PUSH2 0x1E10 DUP2 CALLER PUSH2 0x20DA JUMP JUMPDEST PUSH2 0x1E2C JUMPI PUSH1 0x40 MLOAD PUSH3 0x461BCD PUSH1 0xE5 SHL DUP2 MSTORE PUSH1 0x4 ADD PUSH2 0xC68 SWAP1 PUSH2 0x4810 JUMP JUMPDEST PUSH0 DUP4 DUP2 MSTORE PUSH1 0x4 PUSH1 0x20 DUP2 SWAP1 MSTORE PUSH1 0x40 SWAP1 SWAP2 KECCAK256 ADD SLOAD PUSH2 0x100 SWAP1 DIV PUSH1 0xFF AND PUSH2 0x1E62 JUMPI PUSH1 0x40 MLOAD PUSH3 0x461BCD PUSH1 0xE5 SHL DUP2 MSTORE PUSH1 0x4 ADD PUSH2 0xC68 SWAP1 PUSH2 0x4837 JUMP JUMPDEST PUSH1 0x64 DUP3 GT ISZERO PUSH2 0x1E83 JUMPI PUSH1 0x40 MLOAD PUSH3 0x461BCD PUSH1 0xE5 SHL DUP2 MSTORE PUSH1 0x4 ADD PUSH2 0xC68 SWAP1 PUSH2 0x4864 JUMP JUMPDEST PUSH0 DUP5 GT PUSH2 0x1EA2 JUMPI PUSH1 0x40 MLOAD PUSH3 0x461BCD PUSH1 0xE5 SHL DUP2 MSTORE PUSH1 0x4 ADD PUSH2 0xC68 SWAP1 PUSH2 0x48BF JUMP JUMPDEST PUSH0 DUP5 DUP2 MSTORE PUSH1 0x6 PUSH1 0x20 SWAP1 DUP2 MSTORE PUSH1 0x40 DUP1 DUP4 KECCAK256 DUP7 DUP5 MSTORE SWAP1 SWAP2 MSTORE SWAP1 KECCAK256 SLOAD ISZERO PUSH2 0x1EFF JUMPI PUSH1 0x40 MLOAD PUSH3 0x461BCD PUSH1 0xE5 SHL DUP2 MSTORE PUSH1 0x20 PUSH1 0x4 DUP3 ADD MSTORE PUSH1 0x14 PUSH1 0x24 DUP3 ADD MSTORE PUSH20 0x53636F726520616C726561647920657869737473 PUSH1 0x60 SHL PUSH1 0x44 DUP3 ADD MSTORE PUSH1 0x64 ADD PUSH2 0xC68 JUMP JUMPDEST PUSH1 0x40 DUP1 MLOAD PUSH1 0xE0 DUP2 ADD DUP3 MSTORE DUP6 DUP2 MSTORE PUSH1 0x20 DUP1 DUP3 ADD DUP7 DUP2 MSTORE DUP3 DUP5 ADD DUP7 DUP2 MSTORE CALLER PUSH1 0x60 DUP6 ADD DUP2 DUP2 MSTORE TIMESTAMP PUSH1 0x80 DUP8 ADD DUP2 DUP2 MSTORE PUSH1 0xA0 DUP9 ADD SWAP2 DUP3 MSTORE PUSH0 PUSH1 0xC0 DUP10 ADD DUP2 DUP2 MSTORE DUP15 DUP3 MSTORE PUSH1 0x6 DUP1 DUP11 MSTORE DUP12 DUP4 KECCAK256 DUP16 DUP5 MSTORE DUP11 MSTORE DUP12 DUP4 KECCAK256 SWAP11 MLOAD DUP12 SSTORE SWAP8 MLOAD PUSH1 0x1 DUP1 DUP13 ADD SWAP2 SWAP1 SWAP2 SSTORE SWAP7 MLOAD PUSH1 0x2 DUP12 ADD SSTORE SWAP4 MLOAD PUSH1 0x3 DUP11 ADD DUP1 SLOAD PUSH1 0x1 PUSH1 0x1 PUSH1 0xA0 SHL SUB NOT AND PUSH1 0x1 PUSH1 0x1 PUSH1 0xA0 SHL SUB SWAP1 SWAP3 AND SWAP2 SWAP1 SWAP2 OR SWAP1 SSTORE SWAP1 MLOAD PUSH1 0x4 DUP10 ADD SSTORE SWAP1 MLOAD PUSH1 0x5 DUP9 ADD SSTORE SWAP1 MLOAD SWAP6 SWAP1 SWAP4 ADD DUP1 SLOAD PUSH1 0xFF NOT AND SWAP6 ISZERO ISZERO SWAP6 SWAP1 SWAP6 OR SWAP1 SWAP5 SSTORE PUSH1 0x7 DUP4 MSTORE DUP5 DUP3 KECCAK256 DUP1 SLOAD SWAP2 DUP3 ADD DUP2 SSTORE DUP3 MSTORE SWAP1 DUP3 SWAP1 KECCAK256 ADD DUP8 SWAP1 SSTORE SWAP2 MLOAD DUP5 DUP2 MSTORE SWAP1 SWAP2 DUP6 SWAP2 DUP8 SWAP2 PUSH31 0xFE563478D2112C66117B5A44ADD5A901B10F4B748D444A9308E738C3D3E2CA SWAP2 ADD PUSH2 0x1D7D JUMP JUMPDEST PUSH1 0x60 PUSH2 0x200C PUSH0 MLOAD PUSH1 0x20 PUSH2 0x4B6F PUSH0 CODECOPY PUSH0 MLOAD SWAP1 PUSH0 MSTORE DUP4 PUSH2 0x20DA JUMP JUMPDEST DUP1 PUSH2 0x2029 JUMPI POP PUSH2 0x2029 PUSH0 MLOAD PUSH1 0x20 PUSH2 0x4BAF PUSH0 CODECOPY PUSH0 MLOAD SWAP1 PUSH0 MSTORE DUP4 PUSH2 0x20DA JUMP JUMPDEST PUSH2 0x2075 JUMPI PUSH1 0x40 MLOAD PUSH3 0x461BCD PUSH1 0xE5 SHL DUP2 MSTORE PUSH1 0x20 PUSH1 0x4 DUP3 ADD MSTORE PUSH1 0x19 PUSH1 0x24 DUP3 ADD MSTORE PUSH32 0x41646472657373206973206E6F742061206C6563747572657200000000000000 PUSH1 0x44 DUP3 ADD MSTORE PUSH1 0x64 ADD PUSH2 0xC68 JUMP JUMPDEST PUSH1 0x1 PUSH1 0x1 PUSH1 0xA0 SHL SUB DUP3 AND PUSH0 SWAP1 DUP2 MSTORE PUSH1 0x5 PUSH1 0x20 SWAP1 DUP2 MSTORE PUSH1 0x40 SWAP2 DUP3 SWAP1 KECCAK256 DUP1 SLOAD DUP4 MLOAD DUP2 DUP5 MUL DUP2 ADD DUP5 ADD SWAP1 SWAP5 MSTORE DUP1 DUP5 MSTORE SWAP1 SWAP2 DUP4 ADD DUP3 DUP3 DUP1 ISZERO PUSH2 0x16DE JUMPI PUSH1 0x20 MUL DUP3 ADD SWAP2 SWAP1 PUSH0 MSTORE PUSH1 0x20 PUSH0 KECCAK256 SWAP1 DUP2 SLOAD DUP2 MSTORE PUSH1 0x20 ADD SWAP1 PUSH1 0x1 ADD SWAP1 DUP1 DUP4 GT PUSH2 0x16CA JUMPI POP POP POP POP POP SWAP1 POP SWAP2 SWAP1 POP JUMP JUMPDEST PUSH0 SWAP2 DUP3 MSTORE PUSH1 0x20 DUP3 DUP2 MSTORE PUSH1 0x40 DUP1 DUP5 KECCAK256 PUSH1 0x1 PUSH1 0x1 PUSH1 0xA0 SHL SUB SWAP4 SWAP1 SWAP4 AND DUP5 MSTORE SWAP2 SWAP1 MSTORE SWAP1 KECCAK256 SLOAD PUSH1 0xFF AND SWAP1 JUMP JUMPDEST PUSH1 0x60 PUSH1 0xA DUP1 SLOAD PUSH2 0xD22 SWAP1 PUSH2 0x47DE JUMP JUMPDEST PUSH0 MLOAD PUSH1 0x20 PUSH2 0x4B4F PUSH0 CODECOPY PUSH0 MLOAD SWAP1 PUSH0 MSTORE PUSH2 0x2129 DUP2 CALLER PUSH2 0x20DA JUMP JUMPDEST PUSH2 0x2145 JUMPI PUSH1 0x40 MLOAD PUSH3 0x461BCD PUSH1 0xE5 SHL DUP2 MSTORE PUSH1 0x4 ADD PUSH2 0xC68 SWAP1 PUSH2 0x4810 JUMP JUMPDEST CALLER PUSH0 SWAP1 DUP2 MSTORE PUSH1 0x3 PUSH1 0x20 MSTORE PUSH1 0x40 SWAP1 KECCAK256 SLOAD DUP1 PUSH2 0x2199 JUMPI PUSH1 0x40 MLOAD PUSH3 0x461BCD PUSH1 0xE5 SHL DUP2 MSTORE PUSH1 0x20 PUSH1 0x4 DUP3 ADD MSTORE PUSH1 0x15 PUSH1 0x24 DUP3 ADD MSTORE PUSH21 0x14DD1D59195B9D081251081B9BDD081B1A5B9AD959 PUSH1 0x5A SHL PUSH1 0x44 DUP3 ADD MSTORE PUSH1 0x64 ADD PUSH2 0xC68 JUMP JUMPDEST PUSH2 0x21A4 DUP2 DUP6 DUP6 PUSH2 0x2E79 JUMP JUMPDEST POP POP POP POP JUMP JUMPDEST PUSH2 0x21B2 PUSH2 0x408C JUMP JUMPDEST PUSH0 MLOAD PUSH1 0x20 PUSH2 0x4B4F PUSH0 CODECOPY PUSH0 MLOAD SWAP1 PUSH0 MSTORE PUSH2 0x21CA DUP2 CALLER PUSH2 0x20DA JUMP JUMPDEST PUSH2 0x21E6 JUMPI PUSH1 0x40 MLOAD PUSH3 0x461BCD PUSH1 0xE5 SHL DUP2 MSTORE PUSH1 0x4 ADD PUSH2 0xC68 SWAP1 PUSH2 0x4810 JUMP JUMPDEST PUSH0 DUP5 DUP2 MSTORE PUSH1 0x2 PUSH1 0x20 MSTORE PUSH1 0x40 SWAP1 KECCAK256 SLOAD PUSH1 0x1 PUSH1 0x1 PUSH1 0xA0 SHL SUB AND CALLER EQ PUSH2 0x2242 JUMPI PUSH1 0x40 MLOAD PUSH3 0x461BCD PUSH1 0xE5 SHL DUP2 MSTORE PUSH1 0x20 PUSH1 0x4 DUP3 ADD MSTORE PUSH1 0x14 PUSH1 0x24 DUP3 ADD MSTORE PUSH20 0x4E6F7420796F7572206365727469666963617465 PUSH1 0x60 SHL PUSH1 0x44 DUP3 ADD MSTORE PUSH1 0x64 ADD PUSH2 0xC68 JUMP JUMPDEST PUSH0 DUP5 DUP2 MSTORE PUSH1 0xD PUSH1 0x20 SWAP1 DUP2 MSTORE PUSH1 0x40 DUP1 DUP4 KECCAK256 DUP7 DUP5 MSTORE SWAP1 SWAP2 MSTORE DUP2 KECCAK256 SLOAD SWAP1 DUP2 SWAP1 SUB PUSH2 0x2297 JUMPI PUSH1 0x40 MLOAD PUSH3 0x461BCD PUSH1 0xE5 SHL DUP2 MSTORE PUSH1 0x20 PUSH1 0x4 DUP3 ADD MSTORE PUSH1 0x9 PUSH1 0x24 DUP3 ADD MSTORE PUSH9 0x139BDD08199BDD5B99 PUSH1 0xBA SHL PUSH1 0x44 DUP3 ADD MSTORE PUSH1 0x64 ADD PUSH2 0xC68 JUMP JUMPDEST PUSH1 0xC PUSH0 DUP3 DUP2 MSTORE PUSH1 0x20 ADD SWAP1 DUP2 MSTORE PUSH1 0x20 ADD PUSH0 KECCAK256 PUSH1 0x40 MLOAD DUP1 PUSH2 0x100 ADD PUSH1 0x40 MSTORE SWAP1 DUP2 PUSH0 DUP3 ADD SLOAD DUP2 MSTORE PUSH1 0x20 ADD PUSH1 0x1 DUP3 ADD SLOAD DUP2 MSTORE PUSH1 0x20 ADD PUSH1 0x2 DUP3 ADD SLOAD DUP2 MSTORE PUSH1 0x20 ADD PUSH1 0x3 DUP3 ADD SLOAD DUP2 MSTORE PUSH1 0x20 ADD PUSH1 0x4 DUP3 ADD DUP1 SLOAD PUSH2 0x22EB SWAP1 PUSH2 0x47DE JUMP JUMPDEST DUP1 PUSH1 0x1F ADD PUSH1 0x20 DUP1 SWAP2 DIV MUL PUSH1 0x20 ADD PUSH1 0x40 MLOAD SWAP1 DUP2 ADD PUSH1 0x40 MSTORE DUP1 SWAP3 SWAP2 SWAP1 DUP2 DUP2 MSTORE PUSH1 0x20 ADD DUP3 DUP1 SLOAD PUSH2 0x2317 SWAP1 PUSH2 0x47DE JUMP JUMPDEST DUP1 ISZERO PUSH2 0x2362 JUMPI DUP1 PUSH1 0x1F LT PUSH2 0x2339 JUMPI PUSH2 0x100 DUP1 DUP4 SLOAD DIV MUL DUP4 MSTORE SWAP2 PUSH1 0x20 ADD SWAP2 PUSH2 0x2362 JUMP JUMPDEST DUP3 ADD SWAP2 SWAP1 PUSH0 MSTORE PUSH1 0x20 PUSH0 KECCAK256 SWAP1 JUMPDEST DUP2 SLOAD DUP2 MSTORE SWAP1 PUSH1 0x1 ADD SWAP1 PUSH1 0x20 ADD DUP1 DUP4 GT PUSH2 0x2345 JUMPI DUP3 SWAP1 SUB PUSH1 0x1F AND DUP3 ADD SWAP2 JUMPDEST POP POP POP SWAP2 DUP4 MSTORE POP POP PUSH1 0x5 DUP3 ADD SLOAD PUSH1 0x20 DUP3 ADD MSTORE PUSH1 0x6 SWAP1 SWAP2 ADD SLOAD PUSH1 0x1 PUSH1 0x1 PUSH1 0xA0 SHL SUB DUP2 AND PUSH1 0x40 DUP4 ADD MSTORE PUSH1 0x1 PUSH1 0xA0 SHL SWAP1 DIV PUSH1 0xFF AND ISZERO ISZERO PUSH1 0x60 SWAP1 SWAP2 ADD MSTORE SWAP6 SWAP5 POP POP POP POP POP JUMP JUMPDEST PUSH1 0x60 PUSH2 0x23BD PUSH0 MLOAD PUSH1 0x20 PUSH2 0x4BAF PUSH0 CODECOPY PUSH0 MLOAD SWAP1 PUSH0 MSTORE CALLER PUSH2 0x20DA JUMP JUMPDEST DUP1 PUSH2 0x23DA JUMPI POP PUSH2 0x23DA PUSH0 MLOAD PUSH1 0x20 PUSH2 0x4B6F PUSH0 CODECOPY PUSH0 MLOAD SWAP1 PUSH0 MSTORE CALLER PUSH2 0x20DA JUMP JUMPDEST PUSH2 0x23F6 JUMPI PUSH1 0x40 MLOAD PUSH3 0x461BCD PUSH1 0xE5 SHL DUP2 MSTORE PUSH1 0x4 ADD PUSH2 0xC68 SWAP1 PUSH2 0x4810 JUMP JUMPDEST PUSH0 DUP3 DUP2 MSTORE PUSH1 0x7 PUSH1 0x20 SWAP1 DUP2 MSTORE PUSH1 0x40 SWAP2 DUP3 SWAP1 KECCAK256 DUP1 SLOAD DUP4 MLOAD DUP2 DUP5 MUL DUP2 ADD DUP5 ADD SWAP1 SWAP5 MSTORE DUP1 DUP5 MSTORE SWAP1 SWAP2 DUP4 ADD DUP3 DUP3 DUP1 ISZERO PUSH2 0x16DE JUMPI PUSH1 0x20 MUL DUP3 ADD SWAP2 SWAP1 PUSH0 MSTORE PUSH1 0x20 PUSH0 KECCAK256 SWAP1 DUP2 SLOAD DUP2 MSTORE PUSH1 0x20 ADD SWAP1 PUSH1 0x1 ADD SWAP1 DUP1 DUP4 GT PUSH2 0x16CA JUMPI POP POP POP POP POP SWAP1 POP SWAP2 SWAP1 POP JUMP JUMPDEST PUSH1 0x60 PUSH0 PUSH0 PUSH0 PUSH0 PUSH0 MLOAD PUSH1 0x20 PUSH2 0x4B6F PUSH0 CODECOPY PUSH0 MLOAD SWAP1 PUSH0 MSTORE PUSH2 0x246F DUP2 CALLER PUSH2 0x20DA JUMP JUMPDEST PUSH2 0x248B JUMPI PUSH1 0x40 MLOAD PUSH3 0x461BCD PUSH1 0xE5 SHL DUP2 MSTORE PUSH1 0x4 ADD PUSH2 0xC68 SWAP1 PUSH2 0x4810 JUMP JUMPDEST PUSH0 DUP8 GT PUSH2 0x24CC JUMPI PUSH1 0x40 MLOAD PUSH3 0x461BCD PUSH1 0xE5 SHL DUP2 MSTORE PUSH1 0x20 PUSH1 0x4 DUP3 ADD MSTORE PUSH1 0xF PUSH1 0x24 DUP3 ADD MSTORE PUSH15 0x125B9D985B1A5908195E185B481251 PUSH1 0x8A SHL PUSH1 0x44 DUP3 ADD MSTORE PUSH1 0x64 ADD PUSH2 0xC68 JUMP JUMPDEST PUSH0 DUP9 MLOAD GT PUSH2 0x2513 JUMPI PUSH1 0x40 MLOAD PUSH3 0x461BCD PUSH1 0xE5 SHL DUP2 MSTORE PUSH1 0x20 PUSH1 0x4 DUP3 ADD MSTORE PUSH1 0x14 PUSH1 0x24 DUP3 ADD MSTORE PUSH20 0x486173682063616E6E6F7420626520656D707479 PUSH1 0x60 SHL PUSH1 0x44 DUP3 ADD MSTORE PUSH1 0x64 ADD PUSH2 0xC68 JUMP JUMPDEST PUSH0 DUP8 DUP2 MSTORE PUSH1 0x4 PUSH1 0x20 DUP2 SWAP1 MSTORE PUSH1 0x40 SWAP1 SWAP2 KECCAK256 ADD SLOAD PUSH2 0x100 SWAP1 DIV PUSH1 0xFF AND ISZERO PUSH2 0x2570 JUMPI PUSH1 0x40 MLOAD PUSH3 0x461BCD PUSH1 0xE5 SHL DUP2 MSTORE PUSH1 0x20 PUSH1 0x4 DUP3 ADD MSTORE PUSH1 0x13 PUSH1 0x24 DUP3 ADD MSTORE PUSH19 0x4578616D20616C726561647920657869737473 PUSH1 0x68 SHL PUSH1 0x44 DUP3 ADD MSTORE PUSH1 0x64 ADD PUSH2 0xC68 JUMP JUMPDEST PUSH1 0x40 DUP1 MLOAD PUSH1 0xC0 DUP2 ADD DUP3 MSTORE DUP10 DUP2 MSTORE PUSH1 0x20 DUP1 DUP3 ADD DUP11 SWAP1 MSTORE CALLER DUP3 DUP5 ADD MSTORE TIMESTAMP PUSH1 0x60 DUP4 ADD MSTORE PUSH0 PUSH1 0x80 DUP4 ADD DUP2 SWAP1 MSTORE PUSH1 0x1 PUSH1 0xA0 DUP5 ADD MSTORE DUP11 DUP2 MSTORE PUSH1 0x4 SWAP1 SWAP2 MSTORE SWAP2 SWAP1 SWAP2 KECCAK256 DUP2 MLOAD DUP2 SWAP1 PUSH2 0x25B9 SWAP1 DUP3 PUSH2 0x49A8 JUMP JUMPDEST POP PUSH1 0x20 DUP3 DUP2 ADD MLOAD PUSH1 0x1 DUP1 DUP5 ADD SWAP2 SWAP1 SWAP2 SSTORE PUSH1 0x40 DUP1 DUP6 ADD MLOAD PUSH1 0x2 DUP6 ADD DUP1 SLOAD PUSH1 0x1 PUSH1 0x1 PUSH1 0xA0 SHL SUB SWAP1 SWAP3 AND PUSH1 0x1 PUSH1 0x1 PUSH1 0xA0 SHL SUB NOT SWAP1 SWAP3 AND SWAP2 SWAP1 SWAP2 OR SWAP1 SSTORE PUSH1 0x60 DUP6 ADD MLOAD PUSH1 0x3 DUP6 ADD SSTORE PUSH1 0x80 DUP6 ADD MLOAD PUSH1 0x4 SWAP1 SWAP5 ADD DUP1 SLOAD PUSH1 0xA0 SWAP1 SWAP7 ADD MLOAD ISZERO ISZERO PUSH2 0x100 MUL PUSH2 0xFF00 NOT SWAP6 ISZERO ISZERO SWAP6 SWAP1 SWAP6 AND PUSH2 0xFFFF NOT SWAP1 SWAP7 AND SWAP6 SWAP1 SWAP6 OR SWAP4 SWAP1 SWAP4 OR SWAP1 SWAP4 SSTORE CALLER PUSH0 SWAP1 DUP2 MSTORE PUSH1 0x5 DUP3 MSTORE SWAP2 DUP3 KECCAK256 DUP1 SLOAD DUP1 DUP6 ADD DUP3 SSTORE SWAP1 DUP4 MSTORE SWAP2 KECCAK256 ADD DUP9 SWAP1 SSTORE PUSH2 0x2657 SWAP1 NUMBER PUSH2 0x4A77 JUMP JUMPDEST BLOCKHASH CALLER PUSH1 0x1 PUSH1 0x1 PUSH1 0xA0 SHL SUB AND DUP9 PUSH32 0x8B168DDE777687BEDA31F8AD281FA67EBD897C29DF397F83889B3A08B9B53A7E DUP12 TIMESTAMP NUMBER PUSH1 0x40 MLOAD PUSH2 0x2696 SWAP4 SWAP3 SWAP2 SWAP1 PUSH2 0x4A8A JUMP JUMPDEST PUSH1 0x40 MLOAD DUP1 SWAP2 SUB SWAP1 LOG4 POP SWAP6 SWAP7 SWAP5 SWAP6 POP CALLER SWAP5 TIMESTAMP SWAP5 POP PUSH1 0x1 SWAP4 POP SWAP2 POP POP JUMP JUMPDEST PUSH1 0x7 PUSH1 0x20 MSTORE DUP2 PUSH0 MSTORE PUSH1 0x40 PUSH0 KECCAK256 DUP2 DUP2 SLOAD DUP2 LT PUSH2 0x1DE6 JUMPI PUSH0 DUP1 REVERT JUMPDEST PUSH0 PUSH0 MLOAD PUSH1 0x20 PUSH2 0x4B6F PUSH0 CODECOPY PUSH0 MLOAD SWAP1 PUSH0 MSTORE PUSH2 0x26E4 DUP2 CALLER PUSH2 0x20DA JUMP JUMPDEST PUSH2 0x2700 JUMPI PUSH1 0x40 MLOAD PUSH3 0x461BCD PUSH1 0xE5 SHL DUP2 MSTORE PUSH1 0x4 ADD PUSH2 0xC68 SWAP1 PUSH2 0x4810 JUMP JUMPDEST PUSH0 DUP5 DUP2 MSTORE PUSH1 0x4 PUSH1 0x20 DUP2 SWAP1 MSTORE PUSH1 0x40 SWAP1 SWAP2 KECCAK256 ADD SLOAD PUSH2 0x100 SWAP1 DIV PUSH1 0xFF AND PUSH2 0x2736 JUMPI PUSH1 0x40 MLOAD PUSH3 0x461BCD PUSH1 0xE5 SHL DUP2 MSTORE PUSH1 0x4 ADD PUSH2 0xC68 SWAP1 PUSH2 0x4837 JUMP JUMPDEST PUSH0 DUP6 DUP2 MSTORE PUSH1 0x6 PUSH1 0x20 DUP2 DUP2 MSTORE PUSH1 0x40 DUP1 DUP5 KECCAK256 DUP9 DUP6 MSTORE SWAP1 SWAP2 MSTORE SWAP1 SWAP2 KECCAK256 ADD SLOAD PUSH1 0xFF AND PUSH2 0x2796 JUMPI PUSH1 0x40 MLOAD PUSH3 0x461BCD PUSH1 0xE5 SHL DUP2 MSTORE PUSH1 0x20 PUSH1 0x4 DUP3 ADD MSTORE PUSH1 0x13 PUSH1 0x24 DUP3 ADD MSTORE PUSH19 0x14D8DBDC99481B9BDD08199A5B985B1A5E9959 PUSH1 0x6A SHL PUSH1 0x44 DUP3 ADD MSTORE PUSH1 0x64 ADD PUSH2 0xC68 JUMP JUMPDEST PUSH0 DUP6 DUP2 MSTORE PUSH1 0xD PUSH1 0x20 SWAP1 DUP2 MSTORE PUSH1 0x40 DUP1 DUP4 KECCAK256 DUP8 DUP5 MSTORE SWAP1 SWAP2 MSTORE SWAP1 KECCAK256 SLOAD ISZERO PUSH2 0x27FC JUMPI PUSH1 0x40 MLOAD PUSH3 0x461BCD PUSH1 0xE5 SHL DUP2 MSTORE PUSH1 0x20 PUSH1 0x4 DUP3 ADD MSTORE PUSH1 0x1A PUSH1 0x24 DUP3 ADD MSTORE PUSH32 0x436572746966696361746520616C726561647920657869737473000000000000 PUSH1 0x44 DUP3 ADD MSTORE PUSH1 0x64 ADD PUSH2 0xC68 JUMP JUMPDEST PUSH0 DUP6 DUP2 MSTORE PUSH1 0x2 PUSH1 0x20 MSTORE PUSH1 0x40 SWAP1 KECCAK256 SLOAD PUSH1 0x1 PUSH1 0x1 PUSH1 0xA0 SHL SUB AND PUSH2 0x285F JUMPI PUSH1 0x40 MLOAD PUSH3 0x461BCD PUSH1 0xE5 SHL DUP2 MSTORE PUSH1 0x20 PUSH1 0x4 DUP3 ADD MSTORE PUSH1 0x17 PUSH1 0x24 DUP3 ADD MSTORE PUSH32 0x53747564656E742061646472657373206D697373696E67000000000000000000 PUSH1 0x44 DUP3 ADD MSTORE PUSH1 0x64 ADD PUSH2 0xC68 JUMP JUMPDEST PUSH0 DUP4 MLOAD GT PUSH2 0x289B JUMPI PUSH1 0x40 MLOAD PUSH3 0x461BCD PUSH1 0xE5 SHL DUP2 MSTORE PUSH1 0x20 PUSH1 0x4 DUP3 ADD MSTORE PUSH1 0x9 PUSH1 0x24 DUP3 ADD MSTORE PUSH9 0x55524920656D707479 PUSH1 0xB8 SHL PUSH1 0x44 DUP3 ADD MSTORE PUSH1 0x64 ADD PUSH2 0xC68 JUMP JUMPDEST PUSH1 0xB DUP1 SLOAD SWAP1 PUSH0 PUSH2 0x28AA DUP4 PUSH2 0x4AAE JUMP JUMPDEST SWAP1 SWAP2 SSTORE POP POP PUSH1 0xB SLOAD PUSH0 DUP7 DUP2 MSTORE PUSH1 0x2 PUSH1 0x20 MSTORE PUSH1 0x40 SWAP1 KECCAK256 SLOAD PUSH1 0x1 PUSH1 0x1 PUSH1 0xA0 SHL SUB AND PUSH2 0x28D3 DUP2 DUP4 PUSH2 0x3F5E JUMP JUMPDEST PUSH1 0x40 DUP1 MLOAD PUSH2 0x100 DUP2 ADD DUP3 MSTORE DUP4 DUP2 MSTORE PUSH1 0x20 DUP1 DUP3 ADD DUP11 DUP2 MSTORE DUP3 DUP5 ADD DUP11 DUP2 MSTORE PUSH0 DUP13 DUP2 MSTORE PUSH1 0x6 DUP5 MSTORE DUP6 DUP2 KECCAK256 DUP13 DUP3 MSTORE DUP5 MSTORE DUP6 DUP2 KECCAK256 PUSH1 0x2 SWAP1 DUP2 ADD SLOAD PUSH1 0x60 DUP8 ADD SWAP1 DUP2 MSTORE PUSH1 0x80 DUP8 ADD DUP14 DUP2 MSTORE TIMESTAMP PUSH1 0xA0 DUP10 ADD MSTORE CALLER PUSH1 0xC0 DUP10 ADD MSTORE PUSH1 0x1 PUSH1 0xE0 DUP10 ADD DUP2 SWAP1 MSTORE DUP12 DUP6 MSTORE PUSH1 0xC SWAP1 SWAP8 MSTORE SWAP8 SWAP1 SWAP3 KECCAK256 DUP7 MLOAD DUP2 SSTORE SWAP4 MLOAD SWAP5 DUP5 ADD SWAP5 SWAP1 SWAP5 SSTORE SWAP1 MLOAD SWAP3 DUP3 ADD SWAP3 SWAP1 SWAP3 SSTORE SWAP1 MLOAD PUSH1 0x3 DUP3 ADD SSTORE SWAP2 MLOAD SWAP1 SWAP2 SWAP1 PUSH1 0x4 DUP3 ADD SWAP1 PUSH2 0x2968 SWAP1 DUP3 PUSH2 0x49A8 JUMP JUMPDEST POP PUSH1 0xA0 DUP3 ADD MLOAD PUSH1 0x5 DUP3 ADD SSTORE PUSH1 0xC0 DUP3 ADD MLOAD PUSH1 0x6 SWAP1 SWAP2 ADD DUP1 SLOAD PUSH1 0xE0 SWAP1 SWAP4 ADD MLOAD ISZERO ISZERO PUSH1 0x1 PUSH1 0xA0 SHL MUL PUSH1 0x1 PUSH1 0x1 PUSH1 0xA8 SHL SUB NOT SWAP1 SWAP4 AND PUSH1 0x1 PUSH1 0x1 PUSH1 0xA0 SHL SUB SWAP1 SWAP3 AND SWAP2 SWAP1 SWAP2 OR SWAP2 SWAP1 SWAP2 OR SWAP1 SSTORE PUSH0 DUP8 DUP2 MSTORE PUSH1 0xD PUSH1 0x20 SWAP1 DUP2 MSTORE PUSH1 0x40 DUP1 DUP4 KECCAK256 DUP10 DUP5 MSTORE DUP3 MSTORE SWAP2 DUP3 SWAP1 KECCAK256 DUP5 SWAP1 SSTORE SWAP1 MLOAD CALLER DUP2 MSTORE DUP8 SWAP2 DUP10 SWAP2 DUP6 SWAP2 PUSH32 0x8AC7002EFA82D166D2EE18D556AA13A196BCC010F8C9622DD8C08D769BA03F04 SWAP2 ADD PUSH1 0x40 MLOAD DUP1 SWAP2 SUB SWAP1 LOG4 POP SWAP6 SWAP5 POP POP POP POP POP JUMP JUMPDEST PUSH2 0x2A21 PUSH0 MLOAD PUSH1 0x20 PUSH2 0x4B6F PUSH0 CODECOPY PUSH0 MLOAD SWAP1 PUSH0 MSTORE CALLER PUSH2 0x20DA JUMP JUMPDEST DUP1 PUSH2 0x2A3E JUMPI POP PUSH2 0x2A3E PUSH0 MLOAD PUSH1 0x20 PUSH2 0x4BAF PUSH0 CODECOPY PUSH0 MLOAD SWAP1 PUSH0 MSTORE CALLER PUSH2 0x20DA JUMP JUMPDEST PUSH2 0x2A8A JUMPI PUSH1 0x40 MLOAD PUSH3 0x461BCD PUSH1 0xE5 SHL DUP2 MSTORE PUSH1 0x20 PUSH1 0x4 DUP3 ADD DUP2 SWAP1 MSTORE PUSH1 0x24 DUP3 ADD MSTORE PUSH32 0x43616C6C6572206D7573742062652061646D696E206F72206C65637475726572 PUSH1 0x44 DUP3 ADD MSTORE PUSH1 0x64 ADD PUSH2 0xC68 JUMP JUMPDEST PUSH0 DUP2 DUP2 MSTORE PUSH1 0x4 PUSH1 0x20 DUP2 SWAP1 MSTORE PUSH1 0x40 SWAP1 SWAP2 KECCAK256 ADD SLOAD PUSH2 0x100 SWAP1 DIV PUSH1 0xFF AND PUSH2 0x2AC0 JUMPI PUSH1 0x40 MLOAD PUSH3 0x461BCD PUSH1 0xE5 SHL DUP2 MSTORE PUSH1 0x4 ADD PUSH2 0xC68 SWAP1 PUSH2 0x4837 JUMP JUMPDEST PUSH0 DUP2 DUP2 MSTORE PUSH1 0x4 PUSH1 0x20 MSTORE PUSH1 0x40 SWAP1 KECCAK256 PUSH1 0x2 ADD SLOAD PUSH1 0x1 PUSH1 0x1 PUSH1 0xA0 SHL SUB AND CALLER EQ DUP1 PUSH2 0x2AF9 JUMPI POP PUSH2 0x2AF9 PUSH0 MLOAD PUSH1 0x20 PUSH2 0x4BAF PUSH0 CODECOPY PUSH0 MLOAD SWAP1 PUSH0 MSTORE CALLER PUSH2 0x20DA JUMP JUMPDEST PUSH2 0x2B51 JUMPI PUSH1 0x40 MLOAD PUSH3 0x461BCD PUSH1 0xE5 SHL DUP2 MSTORE PUSH1 0x20 PUSH1 0x4 DUP3 ADD MSTORE PUSH1 0x23 PUSH1 0x24 DUP3 ADD MSTORE PUSH32 0x4F6E6C79206578616D2063726561746F72206F722061646D696E2063616E206C PUSH1 0x44 DUP3 ADD MSTORE PUSH3 0x6F636B PUSH1 0xE8 SHL PUSH1 0x64 DUP3 ADD MSTORE PUSH1 0x84 ADD PUSH2 0xC68 JUMP JUMPDEST PUSH0 DUP2 DUP2 MSTORE PUSH1 0x4 PUSH1 0x20 DUP2 SWAP1 MSTORE PUSH1 0x40 DUP1 DUP4 KECCAK256 SWAP1 SWAP2 ADD DUP1 SLOAD PUSH1 0xFF NOT AND PUSH1 0x1 OR SWAP1 SSTORE MLOAD CALLER SWAP2 DUP4 SWAP2 PUSH32 0x538044B65B113F681756F903257FF1744163F47A51EA8DE3F4D081196D4E2D37 SWAP2 SWAP1 LOG3 POP JUMP JUMPDEST PUSH2 0x2BA3 PUSH2 0x408C JUMP JUMPDEST PUSH0 MLOAD PUSH1 0x20 PUSH2 0x4B8F PUSH0 CODECOPY PUSH0 MLOAD SWAP1 PUSH0 MSTORE PUSH2 0x2BBB DUP2 CALLER PUSH2 0x20DA JUMP JUMPDEST PUSH2 0x2BD7 JUMPI PUSH1 0x40 MLOAD PUSH3 0x461BCD PUSH1 0xE5 SHL DUP2 MSTORE PUSH1 0x4 ADD PUSH2 0xC68 SWAP1 PUSH2 0x4810 JUMP JUMPDEST PUSH0 DUP5 DUP2 MSTORE PUSH1 0xD PUSH1 0x20 SWAP1 DUP2 MSTORE PUSH1 0x40 DUP1 DUP4 KECCAK256 DUP7 DUP5 MSTORE SWAP1 SWAP2 MSTORE DUP2 KECCAK256 SLOAD SWAP1 DUP2 SWAP1 SUB PUSH2 0x2297 JUMPI PUSH1 0x40 MLOAD PUSH3 0x461BCD PUSH1 0xE5 SHL DUP2 MSTORE PUSH1 0x20 PUSH1 0x4 DUP3 ADD MSTORE PUSH1 0x15 PUSH1 0x24 DUP3 ADD MSTORE PUSH21 0x10D95C9D1A599A58D85D19481B9BDD08199BDD5B99 PUSH1 0x5A SHL PUSH1 0x44 DUP3 ADD MSTORE PUSH1 0x64 ADD PUSH2 0xC68 JUMP JUMPDEST PUSH0 MLOAD PUSH1 0x20 PUSH2 0x4BAF PUSH0 CODECOPY PUSH0 MLOAD SWAP1 PUSH0 MSTORE PUSH2 0x2C50 DUP2 CALLER PUSH2 0x20DA JUMP JUMPDEST PUSH2 0x2C6C JUMPI PUSH1 0x40 MLOAD PUSH3 0x461BCD PUSH1 0xE5 SHL DUP2 MSTORE PUSH1 0x4 ADD PUSH2 0xC68 SWAP1 PUSH2 0x4810 JUMP JUMPDEST PUSH0 DUP3 DUP2 MSTORE PUSH1 0x14 PUSH1 0x20 MSTORE PUSH1 0x40 SWAP1 KECCAK256 PUSH1 0x3 ADD SLOAD PUSH2 0x100 SWAP1 DIV PUSH1 0xFF AND PUSH2 0x2CA1 JUMPI PUSH1 0x40 MLOAD PUSH3 0x461BCD PUSH1 0xE5 SHL DUP2 MSTORE PUSH1 0x4 ADD PUSH2 0xC68 SWAP1 PUSH2 0x4892 JUMP JUMPDEST PUSH0 DUP3 DUP2 MSTORE PUSH1 0x14 PUSH1 0x20 MSTORE PUSH1 0x40 SWAP1 KECCAK256 PUSH1 0x3 ADD SLOAD PUSH1 0xFF AND PUSH2 0x2CF7 JUMPI PUSH1 0x40 MLOAD PUSH3 0x461BCD PUSH1 0xE5 SHL DUP2 MSTORE PUSH1 0x20 PUSH1 0x4 DUP3 ADD MSTORE PUSH1 0x13 PUSH1 0x24 DUP3 ADD MSTORE PUSH19 0x15195CDD081A5CC81B9BDD08189B1BD8DAD959 PUSH1 0x6A SHL PUSH1 0x44 DUP3 ADD MSTORE PUSH1 0x64 ADD PUSH2 0xC68 JUMP JUMPDEST PUSH0 DUP3 DUP2 MSTORE PUSH1 0x14 PUSH1 0x20 MSTORE PUSH1 0x40 DUP1 DUP3 KECCAK256 PUSH1 0x3 ADD DUP1 SLOAD PUSH1 0xFF NOT AND SWAP1 SSTORE MLOAD CALLER SWAP2 DUP5 SWAP2 PUSH32 0xA2196D3F06A62B0C168A42AF7E270A2E40B8715051F911625060D32CDD59A258 SWAP2 SWAP1 LOG3 POP POP JUMP JUMPDEST PUSH0 DUP2 DUP2 MSTORE PUSH1 0xE PUSH1 0x20 MSTORE PUSH1 0x40 SWAP1 KECCAK256 SLOAD PUSH1 0x60 SWAP1 PUSH1 0x1 PUSH1 0x1 PUSH1 0xA0 SHL SUB AND PUSH2 0x2D9A JUMPI PUSH1 0x40 MLOAD PUSH3 0x461BCD PUSH1 0xE5 SHL DUP2 MSTORE PUSH1 0x20 PUSH1 0x4 DUP3 ADD MSTORE PUSH1 0x14 PUSH1 0x24 DUP3 ADD MSTORE PUSH20 0x151BDAD95B88191BD95CC81B9BDD08195E1A5CDD PUSH1 0x62 SHL PUSH1 0x44 DUP3 ADD MSTORE PUSH1 0x64 ADD PUSH2 0xC68 JUMP JUMPDEST PUSH0 DUP3 DUP2 MSTORE PUSH1 0xC PUSH1 0x20 MSTORE PUSH1 0x40 SWAP1 KECCAK256 PUSH1 0x4 ADD DUP1 SLOAD PUSH2 0x2DB5 SWAP1 PUSH2 0x47DE JUMP JUMPDEST DUP1 PUSH1 0x1F ADD PUSH1 0x20 DUP1 SWAP2 DIV MUL PUSH1 0x20 ADD PUSH1 0x40 MLOAD SWAP1 DUP2 ADD PUSH1 0x40 MSTORE DUP1 SWAP3 SWAP2 SWAP1 DUP2 DUP2 MSTORE PUSH1 0x20 ADD DUP3 DUP1 SLOAD PUSH2 0x2DE1 SWAP1 PUSH2 0x47DE JUMP JUMPDEST DUP1 ISZERO PUSH2 0x16DE JUMPI DUP1 PUSH1 0x1F LT PUSH2 0x2E03 JUMPI PUSH2 0x100 DUP1 DUP4 SLOAD DIV MUL DUP4 MSTORE SWAP2 PUSH1 0x20 ADD SWAP2 PUSH2 0x16DE JUMP JUMPDEST DUP3 ADD SWAP2 SWAP1 PUSH0 MSTORE PUSH1 0x20 PUSH0 KECCAK256 SWAP1 JUMPDEST DUP2 SLOAD DUP2 MSTORE SWAP1 PUSH1 0x1 ADD SWAP1 PUSH1 0x20 ADD DUP1 DUP4 GT PUSH2 0x2E0F JUMPI POP SWAP4 SWAP7 SWAP6 POP POP POP POP POP POP JUMP JUMPDEST PUSH0 MLOAD PUSH1 0x20 PUSH2 0x4BAF PUSH0 CODECOPY PUSH0 MLOAD SWAP1 PUSH0 MSTORE PUSH2 0x2E46 DUP2 CALLER PUSH2 0x20DA JUMP JUMPDEST PUSH2 0x2E62 JUMPI PUSH1 0x40 MLOAD PUSH3 0x461BCD PUSH1 0xE5 SHL DUP2 MSTORE PUSH1 0x4 ADD PUSH2 0xC68 SWAP1 PUSH2 0x4810 JUMP JUMPDEST PUSH2 0xDEE PUSH0 MLOAD PUSH1 0x20 PUSH2 0x4B4F PUSH0 CODECOPY PUSH0 MLOAD SWAP1 PUSH0 MSTORE DUP4 PUSH2 0x3E94 JUMP JUMPDEST PUSH0 MLOAD PUSH1 0x20 PUSH2 0x4B4F PUSH0 CODECOPY PUSH0 MLOAD SWAP1 PUSH0 MSTORE PUSH2 0x2E91 DUP2 CALLER PUSH2 0x20DA JUMP JUMPDEST PUSH2 0x2EAD JUMPI PUSH1 0x40 MLOAD PUSH3 0x461BCD PUSH1 0xE5 SHL DUP2 MSTORE PUSH1 0x4 ADD PUSH2 0xC68 SWAP1 PUSH2 0x4810 JUMP JUMPDEST PUSH0 DUP5 DUP2 MSTORE PUSH1 0x2 PUSH1 0x20 MSTORE PUSH1 0x40 SWAP1 KECCAK256 SLOAD PUSH1 0x1 PUSH1 0x1 PUSH1 0xA0 SHL SUB AND CALLER EQ PUSH2 0x2F12 JUMPI PUSH1 0x40 MLOAD PUSH3 0x461BCD PUSH1 0xE5 SHL DUP2 MSTORE PUSH1 0x20 PUSH1 0x4 DUP3 ADD MSTORE PUSH1 0x1D PUSH1 0x24 DUP3 ADD MSTORE PUSH32 0x43616E206F6E6C79207265717565737420666F7220796F757273656C66000000 PUSH1 0x44 DUP3 ADD MSTORE PUSH1 0x64 ADD PUSH2 0xC68 JUMP JUMPDEST PUSH0 DUP4 DUP2 MSTORE PUSH1 0x4 PUSH1 0x20 DUP2 SWAP1 MSTORE PUSH1 0x40 SWAP1 SWAP2 KECCAK256 ADD SLOAD PUSH2 0x100 SWAP1 DIV PUSH1 0xFF AND PUSH2 0x2F48 JUMPI PUSH1 0x40 MLOAD PUSH3 0x461BCD PUSH1 0xE5 SHL DUP2 MSTORE PUSH1 0x4 ADD PUSH2 0xC68 SWAP1 PUSH2 0x4837 JUMP JUMPDEST PUSH0 DUP5 DUP2 MSTORE PUSH1 0x6 PUSH1 0x20 SWAP1 DUP2 MSTORE PUSH1 0x40 DUP1 DUP4 KECCAK256 DUP7 DUP5 MSTORE SWAP1 SWAP2 MSTORE DUP2 KECCAK256 SLOAD SWAP1 SUB PUSH2 0x2FA1 JUMPI PUSH1 0x40 MLOAD PUSH3 0x461BCD PUSH1 0xE5 SHL DUP2 MSTORE PUSH1 0x20 PUSH1 0x4 DUP3 ADD MSTORE PUSH1 0xF PUSH1 0x24 DUP3 ADD MSTORE PUSH15 0x14D8DBDC99481B9BDD08199BDD5B99 PUSH1 0x8A SHL PUSH1 0x44 DUP3 ADD MSTORE PUSH1 0x64 ADD PUSH2 0xC68 JUMP JUMPDEST PUSH0 DUP5 DUP2 MSTORE PUSH1 0x8 PUSH1 0x20 SWAP1 DUP2 MSTORE PUSH1 0x40 DUP1 DUP4 KECCAK256 DUP7 DUP5 MSTORE SWAP1 SWAP2 MSTORE SWAP1 KECCAK256 PUSH1 0x9 ADD SLOAD PUSH1 0xFF AND ISZERO PUSH2 0x3000 JUMPI PUSH1 0x40 MLOAD PUSH3 0x461BCD PUSH1 0xE5 SHL DUP2 MSTORE PUSH1 0x20 PUSH1 0x4 DUP3 ADD MSTORE PUSH1 0x10 PUSH1 0x24 DUP3 ADD MSTORE PUSH16 0x105B1C9958591E481C995D9A595DD959 PUSH1 0x82 SHL PUSH1 0x44 DUP3 ADD MSTORE PUSH1 0x64 ADD PUSH2 0xC68 JUMP JUMPDEST PUSH0 DUP3 MLOAD GT PUSH2 0x3042 JUMPI PUSH1 0x40 MLOAD PUSH3 0x461BCD PUSH1 0xE5 SHL DUP2 MSTORE PUSH1 0x20 PUSH1 0x4 DUP3 ADD MSTORE PUSH1 0xF PUSH1 0x24 DUP3 ADD MSTORE PUSH15 0x1499585CDBDB881C995C5D5A5C9959 PUSH1 0x8A SHL PUSH1 0x44 DUP3 ADD MSTORE PUSH1 0x64 ADD PUSH2 0xC68 JUMP JUMPDEST PUSH0 DUP5 DUP2 MSTORE PUSH1 0x6 PUSH1 0x20 SWAP1 DUP2 MSTORE PUSH1 0x40 DUP1 DUP4 KECCAK256 DUP7 DUP5 MSTORE DUP3 MSTORE DUP1 DUP4 KECCAK256 PUSH1 0x2 SWAP1 DUP2 ADD SLOAD DUP3 MLOAD PUSH2 0x140 DUP2 ADD DUP5 MSTORE DUP10 DUP2 MSTORE DUP1 DUP6 ADD DUP10 DUP2 MSTORE TIMESTAMP DUP3 DUP7 ADD SWAP1 DUP2 MSTORE DUP6 MLOAD DUP1 DUP8 ADD DUP8 MSTORE PUSH1 0x7 DUP2 MSTORE PUSH7 0x50454E44494E47 PUSH1 0xC8 SHL DUP2 DUP10 ADD MSTORE PUSH1 0x60 DUP5 ADD SWAP1 DUP2 MSTORE PUSH1 0x80 DUP5 ADD DUP6 SWAP1 MSTORE PUSH1 0xA0 DUP5 ADD DUP10 SWAP1 MSTORE PUSH1 0xC0 DUP5 ADD DUP12 SWAP1 MSTORE PUSH1 0xE0 DUP5 ADD DUP10 SWAP1 MSTORE PUSH2 0x100 DUP5 ADD DUP10 SWAP1 MSTORE PUSH2 0x120 DUP5 ADD DUP10 SWAP1 MSTORE DUP13 DUP10 MSTORE PUSH1 0x8 DUP9 MSTORE DUP7 DUP10 KECCAK256 DUP13 DUP11 MSTORE SWAP1 SWAP8 MSTORE SWAP5 SWAP1 SWAP7 KECCAK256 DUP2 MLOAD DUP2 SSTORE SWAP6 MLOAD PUSH1 0x1 DUP8 ADD SSTORE SWAP3 MLOAD SWAP2 DUP6 ADD SWAP2 SWAP1 SWAP2 SSTORE SWAP2 MLOAD SWAP2 SWAP3 SWAP1 SWAP2 PUSH1 0x3 DUP3 ADD SWAP1 PUSH2 0x3103 SWAP1 DUP3 PUSH2 0x49A8 JUMP JUMPDEST POP PUSH1 0x80 DUP3 ADD MLOAD PUSH1 0x4 DUP3 ADD SSTORE PUSH1 0xA0 DUP3 ADD MLOAD PUSH1 0x5 DUP3 ADD SSTORE PUSH1 0xC0 DUP3 ADD MLOAD PUSH1 0x6 DUP3 ADD SWAP1 PUSH2 0x312C SWAP1 DUP3 PUSH2 0x49A8 JUMP JUMPDEST POP PUSH1 0xE0 DUP3 ADD MLOAD PUSH1 0x7 DUP3 ADD DUP1 SLOAD PUSH1 0x1 PUSH1 0x1 PUSH1 0xA0 SHL SUB NOT AND PUSH1 0x1 PUSH1 0x1 PUSH1 0xA0 SHL SUB SWAP1 SWAP3 AND SWAP2 SWAP1 SWAP2 OR SWAP1 SSTORE PUSH2 0x100 DUP3 ADD MLOAD PUSH1 0x8 DUP3 ADD SSTORE PUSH2 0x120 SWAP1 SWAP2 ADD MLOAD PUSH1 0x9 SWAP1 SWAP2 ADD DUP1 SLOAD PUSH1 0xFF NOT AND SWAP2 ISZERO ISZERO SWAP2 SWAP1 SWAP2 OR SWAP1 SSTORE PUSH1 0x40 MLOAD DUP5 SWAP1 DUP7 SWAP1 PUSH32 0x39F367466B9C76EB50C2FD96892CAFE4148ED40A44DAC7D3DA0B4141BBC31ABD SWAP1 PUSH2 0x31AF SWAP1 DUP6 SWAP1 DUP9 SWAP1 PUSH2 0x4AC6 JUMP JUMPDEST PUSH1 0x40 MLOAD DUP1 SWAP2 SUB SWAP1 LOG3 POP POP POP POP POP JUMP JUMPDEST PUSH0 MLOAD PUSH1 0x20 PUSH2 0x4B6F PUSH0 CODECOPY PUSH0 MLOAD SWAP1 PUSH0 MSTORE PUSH2 0x31D6 DUP2 CALLER PUSH2 0x20DA JUMP JUMPDEST PUSH2 0x31F2 JUMPI PUSH1 0x40 MLOAD PUSH3 0x461BCD PUSH1 0xE5 SHL DUP2 MSTORE PUSH1 0x4 ADD PUSH2 0xC68 SWAP1 PUSH2 0x4810 JUMP JUMPDEST PUSH0 DUP3 DUP2 MSTORE PUSH1 0x4 PUSH1 0x20 DUP2 SWAP1 MSTORE PUSH1 0x40 SWAP1 SWAP2 KECCAK256 ADD SLOAD PUSH2 0x100 SWAP1 DIV PUSH1 0xFF AND PUSH2 0x3228 JUMPI PUSH1 0x40 MLOAD PUSH3 0x461BCD PUSH1 0xE5 SHL DUP2 MSTORE PUSH1 0x4 ADD PUSH2 0xC68 SWAP1 PUSH2 0x4837 JUMP JUMPDEST PUSH0 DUP4 DUP2 MSTORE PUSH1 0x6 PUSH1 0x20 SWAP1 DUP2 MSTORE PUSH1 0x40 DUP1 DUP4 KECCAK256 DUP6 DUP5 MSTORE SWAP1 SWAP2 MSTORE DUP2 KECCAK256 SLOAD SWAP1 SUB PUSH2 0x3286 JUMPI PUSH1 0x40 MLOAD PUSH3 0x461BCD PUSH1 0xE5 SHL DUP2 MSTORE PUSH1 0x20 PUSH1 0x4 DUP3 ADD MSTORE PUSH1 0x14 PUSH1 0x24 DUP3 ADD MSTORE PUSH20 0x14D8DBDC9948191BD95CC81B9BDD08195E1A5CDD PUSH1 0x62 SHL PUSH1 0x44 DUP3 ADD MSTORE PUSH1 0x64 ADD PUSH2 0xC68 JUMP JUMPDEST PUSH0 DUP4 DUP2 MSTORE PUSH1 0x6 PUSH1 0x20 DUP2 DUP2 MSTORE PUSH1 0x40 DUP1 DUP5 KECCAK256 DUP7 DUP6 MSTORE SWAP1 SWAP2 MSTORE SWAP1 SWAP2 KECCAK256 ADD SLOAD PUSH1 0xFF AND ISZERO PUSH2 0x32E5 JUMPI PUSH1 0x40 MLOAD PUSH3 0x461BCD PUSH1 0xE5 SHL DUP2 MSTORE PUSH1 0x20 PUSH1 0x4 DUP3 ADD MSTORE PUSH1 0x11 PUSH1 0x24 DUP3 ADD MSTORE PUSH17 0x105B1C9958591E48199A5B985B1A5E9959 PUSH1 0x7A SHL PUSH1 0x44 DUP3 ADD MSTORE PUSH1 0x64 ADD PUSH2 0xC68 JUMP JUMPDEST PUSH0 DUP4 DUP2 MSTORE PUSH1 0x6 PUSH1 0x20 DUP2 DUP2 MSTORE PUSH1 0x40 DUP1 DUP5 KECCAK256 DUP7 DUP6 MSTORE SWAP1 SWAP2 MSTORE DUP1 DUP4 KECCAK256 SWAP1 SWAP2 ADD DUP1 SLOAD PUSH1 0xFF NOT AND PUSH1 0x1 OR SWAP1 SSTORE MLOAD CALLER SWAP2 DUP5 SWAP2 DUP7 SWAP2 PUSH32 0x36E84E8C8AE4287078A0AA64E46E7661513FEB5FFF8CB2511388AA21E20965AC SWAP2 LOG4 POP POP POP JUMP JUMPDEST PUSH0 MLOAD PUSH1 0x20 PUSH2 0x4BAF PUSH0 CODECOPY PUSH0 MLOAD SWAP1 PUSH0 MSTORE PUSH2 0x3353 DUP2 CALLER PUSH2 0x20DA JUMP JUMPDEST PUSH2 0x336F JUMPI PUSH1 0x40 MLOAD PUSH3 0x461BCD PUSH1 0xE5 SHL DUP2 MSTORE PUSH1 0x4 ADD PUSH2 0xC68 SWAP1 PUSH2 0x4810 JUMP JUMPDEST PUSH0 DUP4 GT PUSH2 0x338E JUMPI PUSH1 0x40 MLOAD PUSH3 0x461BCD PUSH1 0xE5 SHL DUP2 MSTORE PUSH1 0x4 ADD PUSH2 0xC68 SWAP1 PUSH2 0x48BF JUMP JUMPDEST PUSH1 0x1 PUSH1 0x1 PUSH1 0xA0 SHL SUB DUP3 AND PUSH2 0x33B4 JUMPI PUSH1 0x40 MLOAD PUSH3 0x461BCD PUSH1 0xE5 SHL DUP2 MSTORE PUSH1 0x4 ADD PUSH2 0xC68 SWAP1 PUSH2 0x48EB JUMP JUMPDEST PUSH0 DUP4 DUP2 MSTORE PUSH1 0x2 PUSH1 0x20 MSTORE PUSH1 0x40 SWAP1 KECCAK256 SLOAD PUSH1 0x1 PUSH1 0x1 PUSH1 0xA0 SHL SUB AND ISZERO PUSH2 0x3418 JUMPI PUSH1 0x40 MLOAD PUSH3 0x461BCD PUSH1 0xE5 SHL DUP2 MSTORE PUSH1 0x20 PUSH1 0x4 DUP3 ADD MSTORE PUSH1 0x1B PUSH1 0x24 DUP3 ADD MSTORE PUSH32 0x53747564656E74206164647265737320616C7265616479207365740000000000 PUSH1 0x44 DUP3 ADD MSTORE PUSH1 0x64 ADD PUSH2 0xC68 JUMP JUMPDEST PUSH1 0x1 PUSH1 0x1 PUSH1 0xA0 SHL SUB DUP3 AND PUSH0 SWAP1 DUP2 MSTORE PUSH1 0x3 PUSH1 0x20 MSTORE PUSH1 0x40 SWAP1 KECCAK256 SLOAD ISZERO PUSH2 0x344D JUMPI PUSH1 0x40 MLOAD PUSH3 0x461BCD PUSH1 0xE5 SHL DUP2 MSTORE PUSH1 0x4 ADD PUSH2 0xC68 SWAP1 PUSH2 0x4914 JUMP JUMPDEST PUSH0 DUP4 DUP2 MSTORE PUSH1 0x2 PUSH1 0x20 SWAP1 DUP2 MSTORE PUSH1 0x40 DUP1 DUP4 KECCAK256 DUP1 SLOAD PUSH1 0x1 PUSH1 0x1 PUSH1 0xA0 SHL SUB NOT AND PUSH1 0x1 PUSH1 0x1 PUSH1 0xA0 SHL SUB DUP8 AND SWAP1 DUP2 OR SWAP1 SWAP2 SSTORE DUP1 DUP5 MSTORE PUSH1 0x3 DUP4 MSTORE SWAP3 DUP2 SWAP1 KECCAK256 DUP7 SWAP1 SSTORE MLOAD CALLER DUP2 MSTORE DUP6 SWAP2 PUSH32 0xD9CC4835D96FC4B2AFB6DB1577A9677A621088CDEE0C53DA65076951D88BE32F SWAP2 ADD PUSH2 0x116A JUMP JUMPDEST PUSH2 0x34BD PUSH2 0x40D5 JUMP JUMPDEST PUSH0 MLOAD PUSH1 0x20 PUSH2 0x4B4F PUSH0 CODECOPY PUSH0 MLOAD SWAP1 PUSH0 MSTORE PUSH2 0x34D5 DUP2 CALLER PUSH2 0x20DA JUMP JUMPDEST PUSH2 0x34F1 JUMPI PUSH1 0x40 MLOAD PUSH3 0x461BCD PUSH1 0xE5 SHL DUP2 MSTORE PUSH1 0x4 ADD PUSH2 0xC68 SWAP1 PUSH2 0x4810 JUMP JUMPDEST CALLER PUSH0 SWAP1 DUP2 MSTORE PUSH1 0x3 PUSH1 0x20 MSTORE PUSH1 0x40 SWAP1 KECCAK256 SLOAD DUP1 PUSH2 0x3544 JUMPI PUSH1 0x40 MLOAD PUSH3 0x461BCD PUSH1 0xE5 SHL DUP2 MSTORE PUSH1 0x20 PUSH1 0x4 DUP3 ADD MSTORE PUSH1 0x14 PUSH1 0x24 DUP3 ADD MSTORE PUSH20 0x14DD1D59195B9D081251081B9BDD08199BDD5B99 PUSH1 0x62 SHL PUSH1 0x44 DUP3 ADD MSTORE PUSH1 0x64 ADD PUSH2 0xC68 JUMP JUMPDEST PUSH1 0x8 PUSH0 DUP3 DUP2 MSTORE PUSH1 0x20 ADD SWAP1 DUP2 MSTORE PUSH1 0x20 ADD PUSH0 KECCAK256 PUSH0 DUP6 DUP2 MSTORE PUSH1 0x20 ADD SWAP1 DUP2 MSTORE PUSH1 0x20 ADD PUSH0 KECCAK256 PUSH1 0x40 MLOAD DUP1 PUSH2 0x140 ADD PUSH1 0x40 MSTORE SWAP1 DUP2 PUSH0 DUP3 ADD SLOAD DUP2 MSTORE PUSH1 0x20 ADD PUSH1 0x1 DUP3 ADD SLOAD DUP2 MSTORE PUSH1 0x20 ADD PUSH1 0x2 DUP3 ADD SLOAD DUP2 MSTORE PUSH1 0x20 ADD PUSH1 0x3 DUP3 ADD DUP1 SLOAD PUSH2 0x359D SWAP1 PUSH2 0x47DE JUMP JUMPDEST DUP1 PUSH1 0x1F ADD PUSH1 0x20 DUP1 SWAP2 DIV MUL PUSH1 0x20 ADD PUSH1 0x40 MLOAD SWAP1 DUP2 ADD PUSH1 0x40 MSTORE DUP1 SWAP3 SWAP2 SWAP1 DUP2 DUP2 MSTORE PUSH1 0x20 ADD DUP3 DUP1 SLOAD PUSH2 0x35C9 SWAP1 PUSH2 0x47DE JUMP JUMPDEST DUP1 ISZERO PUSH2 0x3614 JUMPI DUP1 PUSH1 0x1F LT PUSH2 0x35EB JUMPI PUSH2 0x100 DUP1 DUP4 SLOAD DIV MUL DUP4 MSTORE SWAP2 PUSH1 0x20 ADD SWAP2 PUSH2 0x3614 JUMP JUMPDEST DUP3 ADD SWAP2 SWAP1 PUSH0 MSTORE PUSH1 0x20 PUSH0 KECCAK256 SWAP1 JUMPDEST DUP2 SLOAD DUP2 MSTORE SWAP1 PUSH1 0x1 ADD SWAP1 PUSH1 0x20 ADD DUP1 DUP4 GT PUSH2 0x35F7 JUMPI DUP3 SWAP1 SUB PUSH1 0x1F AND DUP3 ADD SWAP2 JUMPDEST POP POP POP POP POP DUP2 MSTORE PUSH1 0x20 ADD PUSH1 0x4 DUP3 ADD SLOAD DUP2 MSTORE PUSH1 0x20 ADD PUSH1 0x5 DUP3 ADD SLOAD DUP2 MSTORE PUSH1 0x20 ADD PUSH1 0x6 DUP3 ADD DUP1 SLOAD PUSH2 0x3641 SWAP1 PUSH2 0x47DE JUMP JUMPDEST DUP1 PUSH1 0x1F ADD PUSH1 0x20 DUP1 SWAP2 DIV MUL PUSH1 0x20 ADD PUSH1 0x40 MLOAD SWAP1 DUP2 ADD PUSH1 0x40 MSTORE DUP1 SWAP3 SWAP2 SWAP1 DUP2 DUP2 MSTORE PUSH1 0x20 ADD DUP3 DUP1 SLOAD PUSH2 0x366D SWAP1 PUSH2 0x47DE JUMP JUMPDEST DUP1 ISZERO PUSH2 0x36B8 JUMPI DUP1 PUSH1 0x1F LT PUSH2 0x368F JUMPI PUSH2 0x100 DUP1 DUP4 SLOAD DIV MUL DUP4 MSTORE SWAP2 PUSH1 0x20 ADD SWAP2 PUSH2 0x36B8 JUMP JUMPDEST DUP3 ADD SWAP2 SWAP1 PUSH0 MSTORE PUSH1 0x20 PUSH0 KECCAK256 SWAP1 JUMPDEST DUP2 SLOAD DUP2 MSTORE SWAP1 PUSH1 0x1 ADD SWAP1 PUSH1 0x20 ADD DUP1 DUP4 GT PUSH2 0x369B JUMPI DUP3 SWAP1 SUB PUSH1 0x1F AND DUP3 ADD SWAP2 JUMPDEST POP POP POP SWAP2 DUP4 MSTORE POP POP PUSH1 0x7 DUP3 ADD SLOAD PUSH1 0x1 PUSH1 0x1 PUSH1 0xA0 SHL SUB AND PUSH1 0x20 DUP3 ADD MSTORE PUSH1 0x8 DUP3 ADD SLOAD PUSH1 0x40 DUP3 ADD MSTORE PUSH1 0x9 SWAP1 SWAP2 ADD SLOAD PUSH1 0xFF AND ISZERO ISZERO PUSH1 0x60 SWAP1 SWAP2 ADD MSTORE SWAP5 SWAP4 POP POP POP POP JUMP JUMPDEST PUSH0 PUSH2 0x3701 DUP2 CALLER PUSH2 0x20DA JUMP JUMPDEST PUSH2 0x371D JUMPI PUSH1 0x40 MLOAD PUSH3 0x461BCD PUSH1 0xE5 SHL DUP2 MSTORE PUSH1 0x4 ADD PUSH2 0xC68 SWAP1 PUSH2 0x4810 JUMP JUMPDEST PUSH2 0x163B DUP4 DUP4 PUSH2 0x3EFA JUMP JUMPDEST PUSH0 DUP2 DUP2 MSTORE PUSH1 0x14 PUSH1 0x20 SWAP1 DUP2 MSTORE PUSH1 0x40 DUP1 DUP4 KECCAK256 DUP2 MLOAD PUSH1 0xA0 DUP2 ADD DUP4 MSTORE DUP2 SLOAD DUP2 MSTORE PUSH1 0x1 DUP3 ADD SLOAD SWAP4 DUP2 ADD SWAP4 SWAP1 SWAP4 MSTORE PUSH1 0x2 DUP2 ADD SLOAD SWAP2 DUP4 ADD SWAP2 SWAP1 SWAP2 MSTORE PUSH1 0x3 ADD SLOAD PUSH1 0xFF DUP1 DUP3 AND ISZERO ISZERO PUSH1 0x60 DUP5 ADD MSTORE PUSH2 0x100 SWAP1 SWAP2 DIV AND ISZERO ISZERO PUSH1 0x80 DUP3 ADD DUP2 SWAP1 MSTORE DUP3 SWAP2 DUP3 SWAP2 DUP3 SWAP2 DUP3 SWAP2 PUSH2 0x379F JUMPI PUSH1 0x40 MLOAD PUSH3 0x461BCD PUSH1 0xE5 SHL DUP2 MSTORE PUSH1 0x4 ADD PUSH2 0xC68 SWAP1 PUSH2 0x4892 JUMP JUMPDEST DUP1 MLOAD PUSH1 0x20 DUP3 ADD MLOAD PUSH1 0x40 DUP4 ADD MLOAD PUSH1 0x60 DUP5 ADD MLOAD PUSH1 0x80 SWAP1 SWAP5 ADD MLOAD SWAP3 SWAP11 SWAP2 SWAP10 POP SWAP8 POP SWAP2 SWAP6 POP SWAP4 POP SWAP2 POP POP JUMP JUMPDEST PUSH1 0x12 PUSH1 0x20 MSTORE DUP2 PUSH0 MSTORE PUSH1 0x40 PUSH0 KECCAK256 DUP2 DUP2 SLOAD DUP2 LT PUSH2 0x37E0 JUMPI PUSH0 DUP1 REVERT JUMPDEST PUSH0 SWAP2 DUP3 MSTORE PUSH1 0x20 SWAP1 SWAP2 KECCAK256 PUSH1 0x5 SWAP1 SWAP2 MUL ADD DUP1 SLOAD PUSH1 0x1 DUP3 ADD SLOAD PUSH1 0x2 DUP4 ADD DUP1 SLOAD SWAP3 SWAP6 POP PUSH1 0x1 PUSH1 0x1 PUSH1 0xA0 SHL SUB SWAP1 SWAP2 AND SWAP4 POP SWAP1 PUSH2 0x3816 SWAP1 PUSH2 0x47DE JUMP JUMPDEST DUP1 PUSH1 0x1F ADD PUSH1 0x20 DUP1 SWAP2 DIV MUL PUSH1 0x20 ADD PUSH1 0x40 MLOAD SWAP1 DUP2 ADD PUSH1 0x40 MSTORE DUP1 SWAP3 SWAP2 SWAP1 DUP2 DUP2 MSTORE PUSH1 0x20 ADD DUP3 DUP1 SLOAD PUSH2 0x3842 SWAP1 PUSH2 0x47DE JUMP JUMPDEST DUP1 ISZERO PUSH2 0x388D JUMPI DUP1 PUSH1 0x1F LT PUSH2 0x3864 JUMPI PUSH2 0x100 DUP1 DUP4 SLOAD DIV MUL DUP4 MSTORE SWAP2 PUSH1 0x20 ADD SWAP2 PUSH2 0x388D JUMP JUMPDEST DUP3 ADD SWAP2 SWAP1 PUSH0 MSTORE PUSH1 0x20 PUSH0 KECCAK256 SWAP1 JUMPDEST DUP2 SLOAD DUP2 MSTORE SWAP1 PUSH1 0x1 ADD SWAP1 PUSH1 0x20 ADD DUP1 DUP4 GT PUSH2 0x3870 JUMPI DUP3 SWAP1 SUB PUSH1 0x1F AND DUP3 ADD SWAP2 JUMPDEST POP POP POP POP POP SWAP1 DUP1 PUSH1 0x3 ADD SLOAD SWAP1 DUP1 PUSH1 0x4 ADD DUP1 SLOAD PUSH2 0x38A8 SWAP1 PUSH2 0x47DE JUMP JUMPDEST DUP1 PUSH1 0x1F ADD PUSH1 0x20 DUP1 SWAP2 DIV MUL PUSH1 0x20 ADD PUSH1 0x40 MLOAD SWAP1 DUP2 ADD PUSH1 0x40 MSTORE DUP1 SWAP3 SWAP2 SWAP1 DUP2 DUP2 MSTORE PUSH1 0x20 ADD DUP3 DUP1 SLOAD PUSH2 0x38D4 SWAP1 PUSH2 0x47DE JUMP JUMPDEST DUP1 ISZERO PUSH2 0x391F JUMPI DUP1 PUSH1 0x1F LT PUSH2 0x38F6 JUMPI PUSH2 0x100 DUP1 DUP4 SLOAD DIV MUL DUP4 MSTORE SWAP2 PUSH1 0x20 ADD SWAP2 PUSH2 0x391F JUMP JUMPDEST DUP3 ADD SWAP2 SWAP1 PUSH0 MSTORE PUSH1 0x20 PUSH0 KECCAK256 SWAP1 JUMPDEST DUP2 SLOAD DUP2 MSTORE SWAP1 PUSH1 0x1 ADD SWAP1 PUSH1 0x20 ADD DUP1 DUP4 GT PUSH2 0x3902 JUMPI DUP3 SWAP1 SUB PUSH1 0x1F AND DUP3 ADD SWAP2 JUMPDEST POP POP POP POP POP SWAP1 POP DUP6 JUMP JUMPDEST PUSH1 0x15 PUSH1 0x20 MSTORE DUP2 PUSH0 MSTORE PUSH1 0x40 PUSH0 KECCAK256 DUP2 DUP2 SLOAD DUP2 LT PUSH2 0x1DE6 JUMPI PUSH0 DUP1 REVERT JUMPDEST PUSH0 MLOAD PUSH1 0x20 PUSH2 0x4B6F PUSH0 CODECOPY PUSH0 MLOAD SWAP1 PUSH0 MSTORE PUSH2 0x395A DUP2 CALLER PUSH2 0x20DA JUMP JUMPDEST PUSH2 0x3976 JUMPI PUSH1 0x40 MLOAD PUSH3 0x461BCD PUSH1 0xE5 SHL DUP2 MSTORE PUSH1 0x4 ADD PUSH2 0xC68 SWAP1 PUSH2 0x4810 JUMP JUMPDEST PUSH0 DUP5 DUP2 MSTORE PUSH1 0x4 PUSH1 0x20 DUP2 SWAP1 MSTORE PUSH1 0x40 SWAP1 SWAP2 KECCAK256 ADD SLOAD PUSH2 0x100 SWAP1 DIV PUSH1 0xFF AND PUSH2 0x39AC JUMPI PUSH1 0x40 MLOAD PUSH3 0x461BCD PUSH1 0xE5 SHL DUP2 MSTORE PUSH1 0x4 ADD PUSH2 0xC68 SWAP1 PUSH2 0x4837 JUMP JUMPDEST PUSH0 DUP6 DUP2 MSTORE PUSH1 0x8 PUSH1 0x20 SWAP1 DUP2 MSTORE PUSH1 0x40 DUP1 DUP4 KECCAK256 DUP8 DUP5 MSTORE SWAP1 SWAP2 MSTORE DUP2 KECCAK256 SLOAD SWAP1 SUB PUSH2 0x3A07 JUMPI PUSH1 0x40 MLOAD PUSH3 0x461BCD PUSH1 0xE5 SHL DUP2 MSTORE PUSH1 0x20 PUSH1 0x4 DUP3 ADD MSTORE PUSH1 0x11 PUSH1 0x24 DUP3 ADD MSTORE PUSH17 0x14995C5D595CDD081B9BDD08199BDD5B99 PUSH1 0x7A SHL PUSH1 0x44 DUP3 ADD MSTORE PUSH1 0x64 ADD PUSH2 0xC68 JUMP JUMPDEST PUSH0 DUP6 DUP2 MSTORE PUSH1 0x8 PUSH1 0x20 SWAP1 DUP2 MSTORE PUSH1 0x40 DUP1 DUP4 KECCAK256 DUP8 DUP5 MSTORE SWAP1 SWAP2 MSTORE SWAP1 KECCAK256 PUSH1 0x9 ADD SLOAD PUSH1 0xFF AND ISZERO PUSH2 0x3A67 JUMPI PUSH1 0x40 MLOAD PUSH3 0x461BCD PUSH1 0xE5 SHL DUP2 MSTORE PUSH1 0x20 PUSH1 0x4 DUP3 ADD MSTORE PUSH1 0x11 PUSH1 0x24 DUP3 ADD MSTORE PUSH17 0x105B1C9958591E481C1C9BD8D95CDCD959 PUSH1 0x7A SHL PUSH1 0x44 DUP3 ADD MSTORE PUSH1 0x64 ADD PUSH2 0xC68 JUMP JUMPDEST PUSH32 0xE321069D1AC41CDFB1421FFA231CD2DC5E3A334703A998A5F84566B6FBF3F7BD DUP4 PUSH1 0x40 MLOAD PUSH1 0x20 ADD PUSH2 0x3A99 SWAP2 SWAP1 PUSH2 0x4B04 JUMP JUMPDEST PUSH1 0x40 MLOAD PUSH1 0x20 DUP2 DUP4 SUB SUB DUP2 MSTORE SWAP1 PUSH1 0x40 MSTORE DUP1 MLOAD SWAP1 PUSH1 0x20 ADD KECCAK256 EQ DUP1 PUSH2 0x3B00 JUMPI POP PUSH32 0x8675C210F65C4E8DD95D2AFD30EB5D846906F1B59F9DA9D5FF94EC59C6C70C7C DUP4 PUSH1 0x40 MLOAD PUSH1 0x20 ADD PUSH2 0x3AE8 SWAP2 SWAP1 PUSH2 0x4B04 JUMP JUMPDEST PUSH1 0x40 MLOAD PUSH1 0x20 DUP2 DUP4 SUB SUB DUP2 MSTORE SWAP1 PUSH1 0x40 MSTORE DUP1 MLOAD SWAP1 PUSH1 0x20 ADD KECCAK256 EQ JUMPDEST PUSH2 0x3B3D JUMPI PUSH1 0x40 MLOAD PUSH3 0x461BCD PUSH1 0xE5 SHL DUP2 MSTORE PUSH1 0x20 PUSH1 0x4 DUP3 ADD MSTORE PUSH1 0xE PUSH1 0x24 DUP3 ADD MSTORE PUSH14 0x496E76616C696420737461747573 PUSH1 0x90 SHL PUSH1 0x44 DUP3 ADD MSTORE PUSH1 0x64 ADD PUSH2 0xC68 JUMP JUMPDEST PUSH32 0xE321069D1AC41CDFB1421FFA231CD2DC5E3A334703A998A5F84566B6FBF3F7BD DUP4 PUSH1 0x40 MLOAD PUSH1 0x20 ADD PUSH2 0x3B6F SWAP2 SWAP1 PUSH2 0x4B04 JUMP JUMPDEST PUSH1 0x40 MLOAD PUSH1 0x20 DUP2 DUP4 SUB SUB DUP2 MSTORE SWAP1 PUSH1 0x40 MSTORE DUP1 MLOAD SWAP1 PUSH1 0x20 ADD KECCAK256 SUB PUSH2 0x3BAB JUMPI PUSH1 0x64 DUP3 GT ISZERO PUSH2 0x3BAB JUMPI PUSH1 0x40 MLOAD PUSH3 0x461BCD PUSH1 0xE5 SHL DUP2 MSTORE PUSH1 0x4 ADD PUSH2 0xC68 SWAP1 PUSH2 0x4864 JUMP JUMPDEST PUSH0 DUP6 DUP2 MSTORE PUSH1 0x8 PUSH1 0x20 SWAP1 DUP2 MSTORE PUSH1 0x40 DUP1 DUP4 KECCAK256 DUP8 DUP5 MSTORE SWAP1 SWAP2 MSTORE SWAP1 KECCAK256 PUSH1 0x3 ADD PUSH2 0x3BD0 DUP5 DUP3 PUSH2 0x49A8 JUMP JUMPDEST POP PUSH0 DUP6 DUP2 MSTORE PUSH1 0x8 PUSH1 0x20 DUP2 DUP2 MSTORE PUSH1 0x40 DUP1 DUP5 KECCAK256 DUP9 DUP6 MSTORE DUP3 MSTORE SWAP3 DUP4 SWAP1 KECCAK256 PUSH1 0x5 DUP2 ADD DUP7 SWAP1 SSTORE PUSH1 0x7 DUP2 ADD DUP1 SLOAD PUSH1 0x1 PUSH1 0x1 PUSH1 0xA0 SHL SUB NOT AND CALLER OR SWAP1 SSTORE TIMESTAMP SWAP3 DUP2 ADD SWAP3 SWAP1 SWAP3 SSTORE PUSH1 0x9 SWAP1 SWAP2 ADD DUP1 SLOAD PUSH1 0xFF NOT AND PUSH1 0x1 OR SWAP1 SSTORE SWAP1 MLOAD PUSH32 0xE321069D1AC41CDFB1421FFA231CD2DC5E3A334703A998A5F84566B6FBF3F7BD SWAP2 PUSH2 0x3C4D SWAP2 DUP7 SWAP2 ADD PUSH2 0x4B04 JUMP JUMPDEST PUSH1 0x40 MLOAD PUSH1 0x20 DUP2 DUP4 SUB SUB DUP2 MSTORE SWAP1 PUSH1 0x40 MSTORE DUP1 MLOAD SWAP1 PUSH1 0x20 ADD KECCAK256 SUB PUSH2 0x3CD4 JUMPI PUSH0 DUP6 DUP2 MSTORE PUSH1 0x6 PUSH1 0x20 SWAP1 DUP2 MSTORE PUSH1 0x40 DUP1 DUP4 KECCAK256 DUP8 DUP5 MSTORE DUP3 MSTORE SWAP2 DUP3 SWAP1 KECCAK256 PUSH1 0x2 DUP2 ADD DUP1 SLOAD SWAP1 DUP7 SWAP1 SSTORE TIMESTAMP PUSH1 0x5 SWAP1 SWAP3 ADD SWAP2 SWAP1 SWAP2 SSTORE DUP3 MLOAD DUP2 DUP2 MSTORE SWAP2 DUP3 ADD DUP6 SWAP1 MSTORE SWAP2 CALLER SWAP2 DUP8 SWAP2 DUP10 SWAP2 PUSH32 0xAFCA19E7338B80A137BDD94E7B2EC35D7D842CC5C4D91A3576D97135E9DE063D SWAP2 ADD PUSH1 0x40 MLOAD DUP1 SWAP2 SUB SWAP1 LOG4 POP JUMPDEST CALLER PUSH1 0x1 PUSH1 0x1 PUSH1 0xA0 SHL SUB AND DUP5 DUP7 PUSH32 0x3E02E69C3FD077FD8B72C8FA4C53881220607BE1385EE3B57A9ED1524402D63C DUP7 DUP7 PUSH1 0x40 MLOAD PUSH2 0x1896 SWAP3 SWAP2 SWAP1 PUSH2 0x4B1A JUMP JUMPDEST PUSH1 0x60 PUSH0 PUSH0 PUSH0 PUSH0 PUSH0 PUSH0 PUSH1 0x4 PUSH0 DUP10 DUP2 MSTORE PUSH1 0x20 ADD SWAP1 DUP2 MSTORE PUSH1 0x20 ADD PUSH0 KECCAK256 PUSH1 0x40 MLOAD DUP1 PUSH1 0xC0 ADD PUSH1 0x40 MSTORE SWAP1 DUP2 PUSH0 DUP3 ADD DUP1 SLOAD PUSH2 0x3D44 SWAP1 PUSH2 0x47DE JUMP JUMPDEST DUP1 PUSH1 0x1F ADD PUSH1 0x20 DUP1 SWAP2 DIV MUL PUSH1 0x20 ADD PUSH1 0x40 MLOAD SWAP1 DUP2 ADD PUSH1 0x40 MSTORE DUP1 SWAP3 SWAP2 SWAP1 DUP2 DUP2 MSTORE PUSH1 0x20 ADD DUP3 DUP1 SLOAD PUSH2 0x3D70 SWAP1 PUSH2 0x47DE JUMP JUMPDEST DUP1 ISZERO PUSH2 0x3DBB JUMPI DUP1 PUSH1 0x1F LT PUSH2 0x3D92 JUMPI PUSH2 0x100 DUP1 DUP4 SLOAD DIV MUL DUP4 MSTORE SWAP2 PUSH1 0x20 ADD SWAP2 PUSH2 0x3DBB JUMP JUMPDEST DUP3 ADD SWAP2 SWAP1 PUSH0 MSTORE PUSH1 0x20 PUSH0 KECCAK256 SWAP1 JUMPDEST DUP2 SLOAD DUP2 MSTORE SWAP1 PUSH1 0x1 ADD SWAP1 PUSH1 0x20 ADD DUP1 DUP4 GT PUSH2 0x3D9E JUMPI DUP3 SWAP1 SUB PUSH1 0x1F AND DUP3 ADD SWAP2 JUMPDEST POP POP POP SWAP2 DUP4 MSTORE POP POP PUSH1 0x1 DUP3 ADD SLOAD PUSH1 0x20 DUP1 DUP4 ADD SWAP2 SWAP1 SWAP2 MSTORE PUSH1 0x2 DUP4 ADD SLOAD PUSH1 0x1 PUSH1 0x1 PUSH1 0xA0 SHL SUB AND PUSH1 0x40 DUP1 DUP5 ADD SWAP2 SWAP1 SWAP2 MSTORE PUSH1 0x3 DUP5 ADD SLOAD PUSH1 0x60 DUP1 DUP6 ADD SWAP2 SWAP1 SWAP2 MSTORE PUSH1 0x4 SWAP1 SWAP5 ADD SLOAD PUSH1 0xFF DUP1 DUP3 AND ISZERO ISZERO PUSH1 0x80 DUP1 DUP8 ADD SWAP2 SWAP1 SWAP2 MSTORE PUSH2 0x100 SWAP1 SWAP3 DIV AND ISZERO ISZERO PUSH1 0xA0 SWAP5 DUP6 ADD MSTORE DUP6 MLOAD SWAP3 DUP7 ADD MLOAD SWAP2 DUP7 ADD MLOAD SWAP5 DUP7 ADD MLOAD SWAP1 DUP7 ADD MLOAD SWAP6 SWAP1 SWAP4 ADD MLOAD SWAP2 SWAP14 SWAP1 SWAP13 POP SWAP3 SWAP11 POP SWAP1 SWAP9 POP SWAP2 SWAP7 POP SWAP1 SWAP5 POP SWAP3 POP POP POP JUMP JUMPDEST PUSH0 MLOAD PUSH1 0x20 PUSH2 0x4BAF PUSH0 CODECOPY PUSH0 MLOAD SWAP1 PUSH0 MSTORE PUSH2 0x3E61 DUP2 CALLER PUSH2 0x20DA JUMP JUMPDEST PUSH2 0x3E7D JUMPI PUSH1 0x40 MLOAD PUSH3 0x461BCD PUSH1 0xE5 SHL DUP2 MSTORE PUSH1 0x4 ADD PUSH2 0xC68 SWAP1 PUSH2 0x4810 JUMP JUMPDEST PUSH2 0xDEE PUSH0 MLOAD PUSH1 0x20 PUSH2 0x4B6F PUSH0 CODECOPY PUSH0 MLOAD SWAP1 PUSH0 MSTORE DUP4 PUSH2 0x3EFA JUMP JUMPDEST PUSH2 0x3E9E DUP3 DUP3 PUSH2 0x20DA JUMP JUMPDEST PUSH2 0xDEE JUMPI PUSH0 DUP3 DUP2 MSTORE PUSH1 0x20 DUP2 DUP2 MSTORE PUSH1 0x40 DUP1 DUP4 KECCAK256 PUSH1 0x1 PUSH1 0x1 PUSH1 0xA0 SHL SUB DUP6 AND DUP1 DUP6 MSTORE SWAP3 MSTORE DUP1 DUP4 KECCAK256 DUP1 SLOAD PUSH1 0xFF NOT AND PUSH1 0x1 OR SWAP1 SSTORE MLOAD CALLER SWAP3 DUP6 SWAP2 PUSH32 0x2F8788117E7EFF1D82E926EC794901D17C78024A50270940304540A733656F0D SWAP2 SWAP1 LOG4 POP POP JUMP JUMPDEST PUSH2 0x3F04 DUP3 DUP3 PUSH2 0x20DA JUMP JUMPDEST ISZERO PUSH2 0xDEE JUMPI PUSH0 DUP3 DUP2 MSTORE PUSH1 0x20 DUP2 DUP2 MSTORE PUSH1 0x40 DUP1 DUP4 KECCAK256 PUSH1 0x1 PUSH1 0x1 PUSH1 0xA0 SHL SUB DUP6 AND DUP1 DUP6 MSTORE SWAP3 MSTORE DUP1 DUP4 KECCAK256 DUP1 SLOAD PUSH1 0xFF NOT AND SWAP1 SSTORE MLOAD CALLER SWAP3 DUP6 SWAP2 PUSH32 0xF6391F5C32D9C69D2A47EA670B442974B53935D1EDC7FD64EB21E047A839171B SWAP2 SWAP1 LOG4 POP POP JUMP JUMPDEST PUSH1 0x1 PUSH1 0x1 PUSH1 0xA0 SHL SUB DUP3 AND PUSH2 0x3FAB JUMPI PUSH1 0x40 MLOAD PUSH3 0x461BCD PUSH1 0xE5 SHL DUP2 MSTORE PUSH1 0x20 PUSH1 0x4 DUP3 ADD MSTORE PUSH1 0x14 PUSH1 0x24 DUP3 ADD MSTORE PUSH20 0x4D696E7420746F207A65726F2061646472657373 PUSH1 0x60 SHL PUSH1 0x44 DUP3 ADD MSTORE PUSH1 0x64 ADD PUSH2 0xC68 JUMP JUMPDEST PUSH0 DUP2 DUP2 MSTORE PUSH1 0xE PUSH1 0x20 MSTORE PUSH1 0x40 SWAP1 KECCAK256 SLOAD PUSH1 0x1 PUSH1 0x1 PUSH1 0xA0 SHL SUB AND ISZERO PUSH2 0x4006 JUMPI PUSH1 0x40 MLOAD PUSH3 0x461BCD PUSH1 0xE5 SHL DUP2 MSTORE PUSH1 0x20 PUSH1 0x4 DUP3 ADD MSTORE PUSH1 0x14 PUSH1 0x24 DUP3 ADD MSTORE PUSH20 0x151BDAD95B88185B1C9958591E481B5A5B9D1959 PUSH1 0x62 SHL PUSH1 0x44 DUP3 ADD MSTORE PUSH1 0x64 ADD PUSH2 0xC68 JUMP JUMPDEST PUSH0 DUP2 DUP2 MSTORE PUSH1 0xE PUSH1 0x20 SWAP1 DUP2 MSTORE PUSH1 0x40 DUP1 DUP4 KECCAK256 DUP1 SLOAD PUSH1 0x1 PUSH1 0x1 PUSH1 0xA0 SHL SUB NOT AND PUSH1 0x1 PUSH1 0x1 PUSH1 0xA0 SHL SUB DUP8 AND SWAP1 DUP2 OR SWAP1 SWAP2 SSTORE DUP4 MSTORE PUSH1 0xF SWAP1 SWAP2 MSTORE DUP2 KECCAK256 DUP1 SLOAD PUSH1 0x1 SWAP3 SWAP1 PUSH2 0x404C SWAP1 DUP5 SWAP1 PUSH2 0x4B3B JUMP JUMPDEST SWAP1 SWAP2 SSTORE POP POP PUSH1 0x40 MLOAD DUP2 SWAP1 PUSH1 0x1 PUSH1 0x1 PUSH1 0xA0 SHL SUB DUP5 AND SWAP1 PUSH0 SWAP1 PUSH32 0xDDF252AD1BE2C89B69C2B068FC378DAA952BA7F163C4A11628F55A4DF523B3EF SWAP1 DUP3 SWAP1 LOG4 POP POP JUMP JUMPDEST PUSH1 0x40 MLOAD DUP1 PUSH2 0x100 ADD PUSH1 0x40 MSTORE DUP1 PUSH0 DUP2 MSTORE PUSH1 0x20 ADD PUSH0 DUP2 MSTORE PUSH1 0x20 ADD PUSH0 DUP2 MSTORE PUSH1 0x20 ADD PUSH0 DUP2 MSTORE PUSH1 0x20 ADD PUSH1 0x60 DUP2 MSTORE PUSH1 0x20 ADD PUSH0 DUP2 MSTORE PUSH1 0x20 ADD PUSH0 PUSH1 0x1 PUSH1 0x1 PUSH1 0xA0 SHL SUB AND DUP2 MSTORE PUSH1 0x20 ADD PUSH0 ISZERO ISZERO DUP2 MSTORE POP SWAP1 JUMP JUMPDEST PUSH1 0x40 MLOAD DUP1 PUSH2 0x140 ADD PUSH1 0x40 MSTORE DUP1 PUSH0 DUP2 MSTORE PUSH1 0x20 ADD PUSH0 DUP2 MSTORE PUSH1 0x20 ADD PUSH0 DUP2 MSTORE PUSH1 0x20 ADD PUSH1 0x60 DUP2 MSTORE PUSH1 0x20 ADD PUSH0 DUP2 MSTORE PUSH1 0x20 ADD PUSH0 DUP2 MSTORE PUSH1 0x20 ADD PUSH1 0x60 DUP2 MSTORE PUSH1 0x20 ADD PUSH0 PUSH1 0x1 PUSH1 0x1 PUSH1 0xA0 SHL SUB AND DUP2 MSTORE PUSH1 0x20 ADD PUSH0 DUP2 MSTORE PUSH1 0x20 ADD PUSH0 ISZERO ISZERO DUP2 MSTORE POP SWAP1 JUMP JUMPDEST PUSH0 PUSH0 PUSH1 0x40 DUP4 DUP6 SUB SLT ISZERO PUSH2 0x413C JUMPI PUSH0 PUSH0 REVERT JUMPDEST POP POP DUP1 CALLDATALOAD SWAP3 PUSH1 0x20 SWAP1 SWAP2 ADD CALLDATALOAD SWAP2 POP JUMP JUMPDEST PUSH0 DUP2 MLOAD DUP1 DUP5 MSTORE DUP1 PUSH1 0x20 DUP5 ADD PUSH1 0x20 DUP7 ADD MCOPY PUSH0 PUSH1 0x20 DUP3 DUP7 ADD ADD MSTORE PUSH1 0x20 PUSH1 0x1F NOT PUSH1 0x1F DUP4 ADD AND DUP6 ADD ADD SWAP2 POP POP SWAP3 SWAP2 POP POP JUMP JUMPDEST DUP11 DUP2 MSTORE DUP10 PUSH1 0x20 DUP3 ADD MSTORE DUP9 PUSH1 0x40 DUP3 ADD MSTORE PUSH2 0x140 PUSH1 0x60 DUP3 ADD MSTORE PUSH0 PUSH2 0x419F PUSH2 0x140 DUP4 ADD DUP11 PUSH2 0x414B JUMP JUMPDEST DUP9 PUSH1 0x80 DUP5 ADD MSTORE DUP8 PUSH1 0xA0 DUP5 ADD MSTORE DUP3 DUP2 SUB PUSH1 0xC0 DUP5 ADD MSTORE PUSH2 0x41BD DUP2 DUP9 PUSH2 0x414B JUMP JUMPDEST PUSH1 0x1 PUSH1 0x1 PUSH1 0xA0 SHL SUB SWAP7 SWAP1 SWAP7 AND PUSH1 0xE0 DUP5 ADD MSTORE POP POP PUSH2 0x100 DUP2 ADD SWAP3 SWAP1 SWAP3 MSTORE ISZERO ISZERO PUSH2 0x120 SWAP1 SWAP2 ADD MSTORE SWAP8 SWAP7 POP POP POP POP POP POP POP JUMP JUMPDEST PUSH0 PUSH1 0x20 DUP3 DUP5 SUB SLT ISZERO PUSH2 0x41FD JUMPI PUSH0 PUSH0 REVERT JUMPDEST POP CALLDATALOAD SWAP2 SWAP1 POP JUMP JUMPDEST PUSH1 0x20 DUP2 MSTORE PUSH0 PUSH2 0x4216 PUSH1 0x20 DUP4 ADD DUP5 PUSH2 0x414B JUMP JUMPDEST SWAP4 SWAP3 POP POP POP JUMP JUMPDEST DUP1 CALLDATALOAD PUSH1 0x1 PUSH1 0x1 PUSH1 0xA0 SHL SUB DUP2 AND DUP2 EQ PUSH2 0x4233 JUMPI PUSH0 PUSH0 REVERT JUMPDEST SWAP2 SWAP1 POP JUMP JUMPDEST PUSH0 PUSH1 0x20 DUP3 DUP5 SUB SLT ISZERO PUSH2 0x4248 JUMPI PUSH0 PUSH0 REVERT JUMPDEST PUSH2 0x4216 DUP3 PUSH2 0x421D JUMP JUMPDEST PUSH1 0x20 DUP2 MSTORE DUP2 MLOAD PUSH1 0x20 DUP3 ADD MSTORE PUSH1 0x20 DUP3 ADD MLOAD PUSH1 0x40 DUP3 ADD MSTORE PUSH1 0x40 DUP3 ADD MLOAD PUSH1 0x60 DUP3 ADD MSTORE PUSH1 0x60 DUP3 ADD MLOAD PUSH1 0x80 DUP3 ADD MSTORE PUSH0 PUSH1 0x80 DUP4 ADD MLOAD PUSH2 0x100 PUSH1 0xA0 DUP5 ADD MSTORE PUSH2 0x4296 PUSH2 0x120 DUP5 ADD DUP3 PUSH2 0x414B JUMP JUMPDEST SWAP1 POP PUSH1 0xA0 DUP5 ADD MLOAD PUSH1 0xC0 DUP5 ADD MSTORE PUSH1 0x1 DUP1 PUSH1 0xA0 SHL SUB PUSH1 0xC0 DUP6 ADD MLOAD AND PUSH1 0xE0 DUP5 ADD MSTORE PUSH1 0xE0 DUP5 ADD MLOAD ISZERO ISZERO PUSH2 0x100 DUP5 ADD MSTORE DUP1 SWAP2 POP POP SWAP3 SWAP2 POP POP JUMP JUMPDEST PUSH0 PUSH1 0x20 DUP3 ADD PUSH1 0x20 DUP4 MSTORE DUP1 DUP5 MLOAD DUP1 DUP4 MSTORE PUSH1 0x40 DUP6 ADD SWAP2 POP PUSH1 0x40 DUP2 PUSH1 0x5 SHL DUP7 ADD ADD SWAP3 POP PUSH1 0x20 DUP7 ADD PUSH0 JUMPDEST DUP3 DUP2 LT ISZERO PUSH2 0x436F JUMPI PUSH1 0x3F NOT DUP8 DUP7 SUB ADD DUP5 MSTORE DUP2 MLOAD DUP1 MLOAD DUP7 MSTORE PUSH1 0x1 DUP1 PUSH1 0xA0 SHL SUB PUSH1 0x20 DUP3 ADD MLOAD AND PUSH1 0x20 DUP8 ADD MSTORE PUSH1 0x40 DUP2 ADD MLOAD PUSH1 0xA0 PUSH1 0x40 DUP9 ADD MSTORE PUSH2 0x4333 PUSH1 0xA0 DUP9 ADD DUP3 PUSH2 0x414B JUMP JUMPDEST SWAP1 POP PUSH1 0x60 DUP3 ADD MLOAD PUSH1 0x60 DUP9 ADD MSTORE PUSH1 0x80 DUP3 ADD MLOAD SWAP2 POP DUP7 DUP2 SUB PUSH1 0x80 DUP9 ADD MSTORE PUSH2 0x4358 DUP2 DUP4 PUSH2 0x414B JUMP JUMPDEST SWAP7 POP POP POP PUSH1 0x20 SWAP4 DUP5 ADD SWAP4 SWAP2 SWAP1 SWAP2 ADD SWAP1 PUSH1 0x1 ADD PUSH2 0x42F1 JUMP JUMPDEST POP SWAP3 SWAP7 SWAP6 POP POP POP POP POP POP JUMP JUMPDEST PUSH1 0x20 DUP2 MSTORE DUP2 MLOAD PUSH1 0x20 DUP3 ADD MSTORE PUSH1 0x20 DUP3 ADD MLOAD PUSH1 0x40 DUP3 ADD MSTORE PUSH1 0x40 DUP3 ADD MLOAD PUSH1 0x60 DUP3 ADD MSTORE PUSH0 PUSH1 0x60 DUP4 ADD MLOAD PUSH2 0x140 PUSH1 0x80 DUP5 ADD MSTORE PUSH2 0x43B6 PUSH2 0x160 DUP5 ADD DUP3 PUSH2 0x414B JUMP JUMPDEST SWAP1 POP PUSH1 0x80 DUP5 ADD MLOAD PUSH1 0xA0 DUP5 ADD MSTORE PUSH1 0xA0 DUP5 ADD MLOAD PUSH1 0xC0 DUP5 ADD MSTORE PUSH1 0xC0 DUP5 ADD MLOAD PUSH1 0x1F NOT DUP5 DUP4 SUB ADD PUSH1 0xE0 DUP6 ADD MSTORE PUSH2 0x43E7 DUP3 DUP3 PUSH2 0x414B JUMP JUMPDEST SWAP2 POP POP PUSH1 0xE0 DUP5 ADD MLOAD PUSH2 0x4405 PUSH2 0x100 DUP6 ADD DUP3 PUSH1 0x1 PUSH1 0x1 PUSH1 0xA0 SHL SUB AND SWAP1 MSTORE JUMP JUMPDEST POP PUSH2 0x100 DUP5 ADD MLOAD PUSH2 0x120 DUP5 ADD MSTORE PUSH2 0x120 DUP5 ADD MLOAD PUSH2 0x4427 PUSH2 0x140 DUP6 ADD DUP3 ISZERO ISZERO SWAP1 MSTORE JUMP JUMPDEST POP SWAP4 SWAP3 POP POP POP JUMP JUMPDEST PUSH0 PUSH0 PUSH1 0x40 DUP4 DUP6 SUB SLT ISZERO PUSH2 0x4440 JUMPI PUSH0 PUSH0 REVERT JUMPDEST DUP3 CALLDATALOAD SWAP2 POP PUSH2 0x4450 PUSH1 0x20 DUP5 ADD PUSH2 0x421D JUMP JUMPDEST SWAP1 POP SWAP3 POP SWAP3 SWAP1 POP JUMP JUMPDEST PUSH1 0x20 DUP1 DUP3 MSTORE DUP3 MLOAD DUP3 DUP3 ADD DUP2 SWAP1 MSTORE PUSH0 SWAP2 DUP5 ADD SWAP1 PUSH1 0x40 DUP5 ADD SWAP1 DUP4 JUMPDEST DUP2 DUP2 LT ISZERO PUSH2 0x4490 JUMPI DUP4 MLOAD DUP4 MSTORE PUSH1 0x20 SWAP4 DUP5 ADD SWAP4 SWAP1 SWAP3 ADD SWAP2 PUSH1 0x1 ADD PUSH2 0x4472 JUMP JUMPDEST POP SWAP1 SWAP6 SWAP5 POP POP POP POP POP JUMP JUMPDEST PUSH0 PUSH0 PUSH0 PUSH1 0x60 DUP5 DUP7 SUB SLT ISZERO PUSH2 0x44AD JUMPI PUSH0 PUSH0 REVERT JUMPDEST POP POP DUP2 CALLDATALOAD SWAP4 PUSH1 0x20 DUP4 ADD CALLDATALOAD SWAP4 POP PUSH1 0x40 SWAP1 SWAP3 ADD CALLDATALOAD SWAP2 SWAP1 POP JUMP JUMPDEST PUSH1 0xC0 DUP2 MSTORE PUSH0 PUSH2 0x44D6 PUSH1 0xC0 DUP4 ADD DUP10 PUSH2 0x414B JUMP JUMPDEST PUSH1 0x20 DUP4 ADD SWAP8 SWAP1 SWAP8 MSTORE POP PUSH1 0x1 PUSH1 0x1 PUSH1 0xA0 SHL SUB SWAP5 SWAP1 SWAP5 AND PUSH1 0x40 DUP6 ADD MSTORE PUSH1 0x60 DUP5 ADD SWAP3 SWAP1 SWAP3 MSTORE ISZERO ISZERO PUSH1 0x80 DUP4 ADD MSTORE ISZERO ISZERO PUSH1 0xA0 SWAP1 SWAP2 ADD MSTORE SWAP2 SWAP1 POP JUMP JUMPDEST DUP9 DUP2 MSTORE DUP8 PUSH1 0x20 DUP3 ADD MSTORE DUP7 PUSH1 0x40 DUP3 ADD MSTORE DUP6 PUSH1 0x60 DUP3 ADD MSTORE PUSH2 0x100 PUSH1 0x80 DUP3 ADD MSTORE PUSH0 PUSH2 0x4538 PUSH2 0x100 DUP4 ADD DUP8 PUSH2 0x414B JUMP JUMPDEST PUSH1 0xA0 DUP4 ADD SWAP6 SWAP1 SWAP6 MSTORE POP PUSH1 0x1 PUSH1 0x1 PUSH1 0xA0 SHL SUB SWAP3 SWAP1 SWAP3 AND PUSH1 0xC0 DUP4 ADD MSTORE ISZERO ISZERO PUSH1 0xE0 SWAP1 SWAP2 ADD MSTORE SWAP6 SWAP5 POP POP POP POP POP JUMP JUMPDEST PUSH0 PUSH0 PUSH1 0x40 DUP4 DUP6 SUB SLT ISZERO PUSH2 0x4574 JUMPI PUSH0 PUSH0 REVERT JUMPDEST PUSH2 0x457D DUP4 PUSH2 0x421D JUMP JUMPDEST SWAP5 PUSH1 0x20 SWAP4 SWAP1 SWAP4 ADD CALLDATALOAD SWAP4 POP POP POP JUMP JUMPDEST PUSH4 0x4E487B71 PUSH1 0xE0 SHL PUSH0 MSTORE PUSH1 0x41 PUSH1 0x4 MSTORE PUSH1 0x24 PUSH0 REVERT JUMPDEST PUSH0 DUP3 PUSH1 0x1F DUP4 ADD SLT PUSH2 0x45AE JUMPI PUSH0 PUSH0 REVERT JUMPDEST DUP2 CALLDATALOAD PUSH8 0xFFFFFFFFFFFFFFFF DUP2 GT ISZERO PUSH2 0x45C8 JUMPI PUSH2 0x45C8 PUSH2 0x458B JUMP JUMPDEST PUSH1 0x40 MLOAD PUSH1 0x1F DUP3 ADD PUSH1 0x1F NOT SWAP1 DUP2 AND PUSH1 0x3F ADD AND DUP2 ADD PUSH8 0xFFFFFFFFFFFFFFFF DUP2 GT DUP3 DUP3 LT OR ISZERO PUSH2 0x45F7 JUMPI PUSH2 0x45F7 PUSH2 0x458B JUMP JUMPDEST PUSH1 0x40 MSTORE DUP2 DUP2 MSTORE DUP4 DUP3 ADD PUSH1 0x20 ADD DUP6 LT ISZERO PUSH2 0x460E JUMPI PUSH0 PUSH0 REVERT JUMPDEST DUP2 PUSH1 0x20 DUP6 ADD PUSH1 0x20 DUP4 ADD CALLDATACOPY PUSH0 SWAP2 DUP2 ADD PUSH1 0x20 ADD SWAP2 SWAP1 SWAP2 MSTORE SWAP4 SWAP3 POP POP POP JUMP JUMPDEST PUSH0 PUSH0 PUSH1 0x40 DUP4 DUP6 SUB SLT ISZERO PUSH2 0x463B JUMPI PUSH0 PUSH0 REVERT JUMPDEST DUP3 CALLDATALOAD SWAP2 POP PUSH1 0x20 DUP4 ADD CALLDATALOAD PUSH8 0xFFFFFFFFFFFFFFFF DUP2 GT ISZERO PUSH2 0x4658 JUMPI PUSH0 PUSH0 REVERT JUMPDEST PUSH2 0x4664 DUP6 DUP3 DUP7 ADD PUSH2 0x459F JUMP JUMPDEST SWAP2 POP POP SWAP3 POP SWAP3 SWAP1 POP JUMP JUMPDEST PUSH0 PUSH0 PUSH1 0x40 DUP4 DUP6 SUB SLT ISZERO PUSH2 0x467F JUMPI PUSH0 PUSH0 REVERT JUMPDEST DUP3 CALLDATALOAD PUSH8 0xFFFFFFFFFFFFFFFF DUP2 GT ISZERO PUSH2 0x4695 JUMPI PUSH0 PUSH0 REVERT JUMPDEST PUSH2 0x46A1 DUP6 DUP3 DUP7 ADD PUSH2 0x459F JUMP JUMPDEST SWAP6 PUSH1 0x20 SWAP5 SWAP1 SWAP5 ADD CALLDATALOAD SWAP5 POP POP POP POP JUMP JUMPDEST PUSH1 0xA0 DUP2 MSTORE PUSH0 PUSH2 0x46C2 PUSH1 0xA0 DUP4 ADD DUP9 PUSH2 0x414B JUMP JUMPDEST PUSH1 0x20 DUP4 ADD SWAP7 SWAP1 SWAP7 MSTORE POP PUSH1 0x1 PUSH1 0x1 PUSH1 0xA0 SHL SUB SWAP4 SWAP1 SWAP4 AND PUSH1 0x40 DUP5 ADD MSTORE PUSH1 0x60 DUP4 ADD SWAP2 SWAP1 SWAP2 MSTORE ISZERO ISZERO PUSH1 0x80 SWAP1 SWAP2 ADD MSTORE SWAP2 SWAP1 POP JUMP JUMPDEST PUSH0 PUSH0 PUSH0 PUSH1 0x60 DUP5 DUP7 SUB SLT ISZERO PUSH2 0x4703 JUMPI PUSH0 PUSH0 REVERT JUMPDEST DUP4 CALLDATALOAD SWAP3 POP PUSH1 0x20 DUP5 ADD CALLDATALOAD SWAP2 POP PUSH1 0x40 DUP5 ADD CALLDATALOAD PUSH8 0xFFFFFFFFFFFFFFFF DUP2 GT ISZERO PUSH2 0x4727 JUMPI PUSH0 PUSH0 REVERT JUMPDEST PUSH2 0x4733 DUP7 DUP3 DUP8 ADD PUSH2 0x459F JUMP JUMPDEST SWAP2 POP POP SWAP3 POP SWAP3 POP SWAP3 JUMP JUMPDEST DUP6 DUP2 MSTORE PUSH1 0x1 PUSH1 0x1 PUSH1 0xA0 SHL SUB DUP6 AND PUSH1 0x20 DUP3 ADD MSTORE PUSH1 0xA0 PUSH1 0x40 DUP3 ADD DUP2 SWAP1 MSTORE PUSH0 SWAP1 PUSH2 0x4766 SWAP1 DUP4 ADD DUP7 PUSH2 0x414B JUMP JUMPDEST DUP5 PUSH1 0x60 DUP5 ADD MSTORE DUP3 DUP2 SUB PUSH1 0x80 DUP5 ADD MSTORE PUSH2 0x477E DUP2 DUP6 PUSH2 0x414B JUMP JUMPDEST SWAP9 SWAP8 POP POP POP POP POP POP POP POP JUMP JUMPDEST PUSH0 PUSH0 PUSH0 PUSH0 PUSH1 0x80 DUP6 DUP8 SUB SLT ISZERO PUSH2 0x479D JUMPI PUSH0 PUSH0 REVERT JUMPDEST DUP5 CALLDATALOAD SWAP4 POP PUSH1 0x20 DUP6 ADD CALLDATALOAD SWAP3 POP PUSH1 0x40 DUP6 ADD CALLDATALOAD PUSH8 0xFFFFFFFFFFFFFFFF DUP2 GT ISZERO PUSH2 0x47C1 JUMPI PUSH0 PUSH0 REVERT JUMPDEST PUSH2 0x47CD DUP8 DUP3 DUP9 ADD PUSH2 0x459F JUMP JUMPDEST SWAP5 SWAP8 SWAP4 SWAP7 POP SWAP4 SWAP5 PUSH1 0x60 ADD CALLDATALOAD SWAP4 POP POP POP JUMP JUMPDEST PUSH1 0x1 DUP2 DUP2 SHR SWAP1 DUP3 AND DUP1 PUSH2 0x47F2 JUMPI PUSH1 0x7F DUP3 AND SWAP2 POP JUMPDEST PUSH1 0x20 DUP3 LT DUP2 SUB PUSH2 0xF92 JUMPI PUSH4 0x4E487B71 PUSH1 0xE0 SHL PUSH0 MSTORE PUSH1 0x22 PUSH1 0x4 MSTORE PUSH1 0x24 PUSH0 REVERT JUMPDEST PUSH1 0x20 DUP1 DUP3 MSTORE PUSH1 0xD SWAP1 DUP3 ADD MSTORE PUSH13 0x1058D8D95CDCC819195B9A5959 PUSH1 0x9A SHL PUSH1 0x40 DUP3 ADD MSTORE PUSH1 0x60 ADD SWAP1 JUMP JUMPDEST PUSH1 0x20 DUP1 DUP3 MSTORE PUSH1 0x13 SWAP1 DUP3 ADD MSTORE PUSH19 0x115E185B48191BD95CC81B9BDD08195E1A5CDD PUSH1 0x6A SHL PUSH1 0x40 DUP3 ADD MSTORE PUSH1 0x60 ADD SWAP1 JUMP JUMPDEST PUSH1 0x20 DUP1 DUP3 MSTORE PUSH1 0x14 SWAP1 DUP3 ADD MSTORE PUSH20 0x53636F7265206D757374206265203C3D2031303 PUSH1 0x64 SHL PUSH1 0x40 DUP3 ADD MSTORE PUSH1 0x60 ADD SWAP1 JUMP JUMPDEST PUSH1 0x20 DUP1 DUP3 MSTORE PUSH1 0x13 SWAP1 DUP3 ADD MSTORE PUSH19 0x15195CDD08191BD95CC81B9BDD08195E1A5CDD PUSH1 0x6A SHL PUSH1 0x40 DUP3 ADD MSTORE PUSH1 0x60 ADD SWAP1 JUMP JUMPDEST PUSH1 0x20 DUP1 DUP3 MSTORE PUSH1 0x12 SWAP1 DUP3 ADD MSTORE PUSH18 0x125B9D985B1A59081CDD1D59195B9D081251 PUSH1 0x72 SHL PUSH1 0x40 DUP3 ADD MSTORE PUSH1 0x60 ADD SWAP1 JUMP JUMPDEST PUSH1 0x20 DUP1 DUP3 MSTORE PUSH1 0xF SWAP1 DUP3 ADD MSTORE PUSH15 0x496E76616C69642061646472657373 PUSH1 0x88 SHL PUSH1 0x40 DUP3 ADD MSTORE PUSH1 0x60 ADD SWAP1 JUMP JUMPDEST PUSH1 0x20 DUP1 DUP3 MSTORE PUSH1 0x29 SWAP1 DUP3 ADD MSTORE PUSH32 0x4164647265737320616C7265616479206C696E6B656420746F20616E6F746865 PUSH1 0x40 DUP3 ADD MSTORE PUSH9 0x1C881CDD1D59195B9D PUSH1 0xBA SHL PUSH1 0x60 DUP3 ADD MSTORE PUSH1 0x80 ADD SWAP1 JUMP JUMPDEST PUSH1 0x1F DUP3 GT ISZERO PUSH2 0x163B JUMPI DUP1 PUSH0 MSTORE PUSH1 0x20 PUSH0 KECCAK256 PUSH1 0x1F DUP5 ADD PUSH1 0x5 SHR DUP2 ADD PUSH1 0x20 DUP6 LT ISZERO PUSH2 0x4982 JUMPI POP DUP1 JUMPDEST PUSH1 0x1F DUP5 ADD PUSH1 0x5 SHR DUP3 ADD SWAP2 POP JUMPDEST DUP2 DUP2 LT ISZERO PUSH2 0x49A1 JUMPI PUSH0 DUP2 SSTORE PUSH1 0x1 ADD PUSH2 0x498E JUMP JUMPDEST POP POP POP POP POP JUMP JUMPDEST DUP2 MLOAD PUSH8 0xFFFFFFFFFFFFFFFF DUP2 GT ISZERO PUSH2 0x49C2 JUMPI PUSH2 0x49C2 PUSH2 0x458B JUMP JUMPDEST PUSH2 0x49D6 DUP2 PUSH2 0x49D0 DUP5 SLOAD PUSH2 0x47DE JUMP JUMPDEST DUP5 PUSH2 0x495D JUMP JUMPDEST PUSH1 0x20 PUSH1 0x1F DUP3 GT PUSH1 0x1 DUP2 EQ PUSH2 0x4A08 JUMPI PUSH0 DUP4 ISZERO PUSH2 0x49F1 JUMPI POP DUP5 DUP3 ADD MLOAD JUMPDEST PUSH0 NOT PUSH1 0x3 DUP6 SWAP1 SHL SHR NOT AND PUSH1 0x1 DUP5 SWAP1 SHL OR DUP5 SSTORE PUSH2 0x49A1 JUMP JUMPDEST PUSH0 DUP5 DUP2 MSTORE PUSH1 0x20 DUP2 KECCAK256 PUSH1 0x1F NOT DUP6 AND SWAP2 JUMPDEST DUP3 DUP2 LT ISZERO PUSH2 0x4A37 JUMPI DUP8 DUP6 ADD MLOAD DUP3 SSTORE PUSH1 0x20 SWAP5 DUP6 ADD SWAP5 PUSH1 0x1 SWAP1 SWAP3 ADD SWAP2 ADD PUSH2 0x4A17 JUMP JUMPDEST POP DUP5 DUP3 LT ISZERO PUSH2 0x4A54 JUMPI DUP7 DUP5 ADD MLOAD PUSH0 NOT PUSH1 0x3 DUP8 SWAP1 SHL PUSH1 0xF8 AND SHR NOT AND DUP2 SSTORE JUMPDEST POP POP POP POP PUSH1 0x1 SWAP1 DUP2 SHL ADD SWAP1 SSTORE POP JUMP JUMPDEST PUSH4 0x4E487B71 PUSH1 0xE0 SHL PUSH0 MSTORE PUSH1 0x11 PUSH1 0x4 MSTORE PUSH1 0x24 PUSH0 REVERT JUMPDEST DUP2 DUP2 SUB DUP2 DUP2 GT ISZERO PUSH2 0x15B9 JUMPI PUSH2 0x15B9 PUSH2 0x4A63 JUMP JUMPDEST PUSH1 0x60 DUP2 MSTORE PUSH0 PUSH2 0x4A9C PUSH1 0x60 DUP4 ADD DUP7 PUSH2 0x414B JUMP JUMPDEST PUSH1 0x20 DUP4 ADD SWAP5 SWAP1 SWAP5 MSTORE POP PUSH1 0x40 ADD MSTORE SWAP2 SWAP1 POP JUMP JUMPDEST PUSH0 PUSH1 0x1 DUP3 ADD PUSH2 0x4ABF JUMPI PUSH2 0x4ABF PUSH2 0x4A63 JUMP JUMPDEST POP PUSH1 0x1 ADD SWAP1 JUMP JUMPDEST PUSH1 0x60 DUP2 MSTORE PUSH1 0x7 PUSH1 0x60 DUP3 ADD MSTORE PUSH7 0x50454E44494E47 PUSH1 0xC8 SHL PUSH1 0x80 DUP3 ADD MSTORE DUP3 PUSH1 0x20 DUP3 ADD MSTORE PUSH1 0xA0 PUSH1 0x40 DUP3 ADD MSTORE PUSH0 PUSH2 0x4AFC PUSH1 0xA0 DUP4 ADD DUP5 PUSH2 0x414B JUMP JUMPDEST SWAP5 SWAP4 POP POP POP POP JUMP JUMPDEST PUSH0 DUP3 MLOAD DUP1 PUSH1 0x20 DUP6 ADD DUP5 MCOPY PUSH0 SWAP3 ADD SWAP2 DUP3 MSTORE POP SWAP2 SWAP1 POP JUMP JUMPDEST PUSH1 0x40 DUP2 MSTORE PUSH0 PUSH2 0x4B2C PUSH1 0x40 DUP4 ADD DUP6 PUSH2 0x414B JUMP JUMPDEST SWAP1 POP DUP3 PUSH1 0x20 DUP4 ADD MSTORE SWAP4 SWAP3 POP POP POP JUMP JUMPDEST DUP1 DUP3 ADD DUP1 DUP3 GT ISZERO PUSH2 0x15B9 JUMPI PUSH2 0x15B9 PUSH2 0x4A63 JUMP INVALID CALLDATASIZE 0xA5 0xC4 0xAA 0xAC 0xB6 0xB3 DUP9 0xBB 0xD4 BASEFEE 0xBF GT MULMOD PUSH12 0x7DAFC5652BCC9046084FD0E9 JUMPDEST 0x1F 0xB0 0xB2 0xCC 0xD8 0xF DUPN 0xBC 0xE CALLER 0xAB PREVRANDAO OR 0xBD TIMESTAMP PUSH0 0x29 PUSH31 0x26E0456472DF56B1EAAEE7ACD2CBC2C696FFC7C36207174F786648D2E6246 AND LOG4 0xB4 0xE ISZERO REVERT PUSH32 0x268B4E36AF5057F0C43C835A49807205CE4D355092EF5A8A18F56E8913CF4A2 ADD EXTSTATICCALL 0xE2 DUP8 DUP3 JUMPDEST MULMOD JUMP SWAP4 0xC2 OR PUSH22 0xA2646970667358221220C01DEB4AEBD45BE113E57F3B SWAP10 MULMOD 0xB9 0xD6 SWAP6 TSTORE PUSH26 0xA088FCAA8589F74BA531A4117064736F6C634300081E0033A498 SMOD KECCAK256 TLOAD RETF 0xD3 SSTORE MULMOD 0x2E CREATE2 0xA8 LOG1 DUP16 JUMP 0xE8 SWAP2 EXTCODECOPY DELEGATECALL LOG2 ADD EXTSTATICCALL 0xE2 DUP8 DUP3 JUMPDEST MULMOD JUMP SWAP4 0xC2 OR PUSH22 0x0 "
		},
		"gasEstimates": {
			"creation": {
				"codeDepositCost": "3892000",
				"executionCost": "infinite",
				"totalCost": "infinite"
			},
			"external": {
				"ADMIN_ROLE()": "infinite",
				"DEFAULT_ADMIN_ROLE()": "261",
				"EMPLOYER_ROLE()": "infinite",
				"LECTURER_ROLE()": "infinite",
				"STUDENT_ROLE()": "infinite",
				"addressToStudentId(address)": "2627",
				"balanceOf(address)": "2653",
				"blockTest(uint256)": "infinite",
				"certificates(uint256)": "infinite",
				"createMyReviewRequest(uint256,string)": "infinite",
				"createTest(uint256,uint256)": "infinite",
				"examScores(uint256,uint256)": "4791",
				"exams(uint256)": "infinite",
				"finalizeScore(uint256,uint256)": "infinite",
				"getCertificateByStudent(uint256,uint256)": "infinite",
				"getExam(uint256)": "infinite",
				"getExamScores(uint256)": "infinite",
				"getLecturerExams(address)": "infinite",
				"getMyCertificate(uint256,uint256)": "infinite",
				"getMyReviewRequest(uint256)": "infinite",
				"getReviewRequest(uint256,uint256)": "infinite",
				"getScore(uint256,uint256)": "15614",
				"getStudentAddress(uint256)": "2607",
				"getStudentIdByAddress(address)": "2623",
				"getTest(uint256)": "9229",
				"getTraceCount(uint256)": "2569",
				"getTraces(uint256)": "infinite",
				"getUserTests(uint256)": "infinite",
				"grantEmployerRole(address)": "infinite",
				"grantLecturerRole(address)": "infinite",
				"grantRole(bytes32,address)": "infinite",
				"grantStudentRole(address)": "infinite",
				"hasRole(bytes32,address)": "2791",
				"issueCertificate(uint256,uint256,string)": "infinite",
				"lecturerExams(address,uint256)": "4848",
				"lockExam(uint256)": "infinite",
				"name()": "infinite",
				"ownerOf(uint256)": "2603",
				"processReviewRequest(uint256,uint256,string,uint256)": "infinite",
				"reviewRequests(uint256,uint256)": "infinite",
				"revokeCertificate(uint256)": "infinite",
				"revokeEmployerRole(address)": "infinite",
				"revokeLecturerRole(address)": "infinite",
				"revokeRole(bytes32,address)": "infinite",
				"revokeStudentRole(address)": "infinite",
				"scores(uint256,uint256)": "15476",
				"setStudentAddress(uint256,address)": "infinite",
				"storeExam(string,uint256)": "infinite",
				"storeReviewRequest(uint256,uint256,string)": "infinite",
				"storeScore(uint256,uint256,uint256)": "infinite",
				"studentAddresses(uint256)": "2564",
				"studentCertificates(uint256,uint256)": "2639",
				"symbol()": "infinite",
				"tests(uint256)": "9013",
				"tokenURI(uint256)": "infinite",
				"traces(uint256,uint256)": "infinite",
				"unblockTest(uint256)": "infinite",
				"updateScore(uint256,uint256,uint256)": "infinite",
				"updateStudentAddress(uint256,address)": "infinite",
				"userTests(uint256,uint256)": "4768",
				"verifyCertificate(uint256)": "infinite"
			}
		},
		"methodIdentifiers": {
			"ADMIN_ROLE()": "75b238fc",
			"DEFAULT_ADMIN_ROLE()": "a217fddf",
			"EMPLOYER_ROLE()": "2426bb38",
			"LECTURER_ROLE()": "0713eb02",
			"STUDENT_ROLE()": "f7be43fb",
			"addressToStudentId(address)": "86c34415",
			"balanceOf(address)": "70a08231",
			"blockTest(uint256)": "3f576247",
			"certificates(uint256)": "663b3e22",
			"createMyReviewRequest(uint256,string)": "97bb03ba",
			"createTest(uint256,uint256)": "1d3e15ff",
			"examScores(uint256,uint256)": "aa1f80a5",
			"exams(uint256)": "4198cb3f",
			"finalizeScore(uint256,uint256)": "cd79e42f",
			"getCertificateByStudent(uint256,uint256)": "bd289217",
			"getExam(uint256)": "f97563d5",
			"getExamScores(uint256)": "a26ea890",
			"getLecturerExams(address)": "7f5af810",
			"getMyCertificate(uint256,uint256)": "99532f60",
			"getMyReviewRequest(uint256)": "d4f45061",
			"getReviewRequest(uint256,uint256)": "1fa63aa3",
			"getScore(uint256,uint256)": "adc6ba73",
			"getStudentAddress(uint256)": "e67651ac",
			"getStudentIdByAddress(address)": "80ab3dda",
			"getTest(uint256)": "edef019d",
			"getTraceCount(uint256)": "3bf82f32",
			"getTraces(uint256)": "1eb2c396",
			"getUserTests(uint256)": "361ef2bd",
			"grantEmployerRole(address)": "16853feb",
			"grantLecturerRole(address)": "66b2d280",
			"grantRole(bytes32,address)": "2f2ff15d",
			"grantStudentRole(address)": "c94d10ad",
			"hasRole(bytes32,address)": "91d14854",
			"issueCertificate(uint256,uint256,string)": "b8535a11",
			"lecturerExams(address,uint256)": "767cdbd8",
			"lockExam(uint256)": "b8d78466",
			"name()": "06fdde03",
			"ownerOf(uint256)": "6352211e",
			"processReviewRequest(uint256,uint256,string,uint256)": "f1c4731c",
			"reviewRequests(uint256,uint256)": "036713be",
			"revokeCertificate(uint256)": "06f5497e",
			"revokeEmployerRole(address)": "2ea0d829",
			"revokeLecturerRole(address)": "fc9b39e6",
			"revokeRole(bytes32,address)": "d547741f",
			"revokeStudentRole(address)": "32b3c846",
			"scores(uint256,uint256)": "dd255148",
			"setStudentAddress(uint256,address)": "d27fc520",
			"storeExam(string,uint256)": "a486ab35",
			"storeReviewRequest(uint256,uint256,string)": "c9b1e027",
			"storeScore(uint256,uint256,uint256)": "7c953e6e",
			"studentAddresses(uint256)": "b5ab682d",
			"studentCertificates(uint256,uint256)": "fa8d3cca",
			"symbol()": "95d89b41",
			"tests(uint256)": "de22c8d4",
			"tokenURI(uint256)": "c87b56dd",
			"traces(uint256,uint256)": "eeed2503",
			"unblockTest(uint256)": "c54164d4",
			"updateScore(uint256,uint256,uint256)": "3f0a92fb",
			"updateStudentAddress(uint256,address)": "6a0d2892",
			"userTests(uint256,uint256)": "f1b23d7f",
			"verifyCertificate(uint256)": "1692a942"
		}
	},
	"abi": [
		{
			"inputs": [],
			"stateMutability": "nonpayable",
			"type": "constructor"
		},
		{
			"anonymous": false,
			"inputs": [
				{
					"indexed": true,
					"internalType": "address",
					"name": "owner",
					"type": "address"
				},
				{
					"indexed": true,
					"internalType": "address",
					"name": "approved",
					"type": "address"
				},
				{
					"indexed": true,
					"internalType": "uint256",
					"name": "tokenId",
					"type": "uint256"
				}
			],
			"name": "Approval",
			"type": "event"
		},
		{
			"anonymous": false,
			"inputs": [
				{
					"indexed": true,
					"internalType": "address",
					"name": "owner",
					"type": "address"
				},
				{
					"indexed": true,
					"internalType": "address",
					"name": "operator",
					"type": "address"
				},
				{
					"indexed": false,
					"internalType": "bool",
					"name": "approved",
					"type": "bool"
				}
			],
			"name": "ApprovalForAll",
			"type": "event"
		},
		{
			"anonymous": false,
			"inputs": [
				{
					"indexed": true,
					"internalType": "uint256",
					"name": "tokenId",
					"type": "uint256"
				},
				{
					"indexed": true,
					"internalType": "uint256",
					"name": "student_id",
					"type": "uint256"
				},
				{
					"indexed": true,
					"internalType": "uint256",
					"name": "exam_id",
					"type": "uint256"
				},
				{
					"indexed": false,
					"internalType": "address",
					"name": "issued_by",
					"type": "address"
				}
			],
			"name": "CertificateIssued",
			"type": "event"
		},
		{
			"anonymous": false,
			"inputs": [
				{
					"indexed": true,
					"internalType": "uint256",
					"name": "tokenId",
					"type": "uint256"
				},
				{
					"indexed": true,
					"internalType": "address",
					"name": "revoked_by",
					"type": "address"
				}
			],
			"name": "CertificateRevoked",
			"type": "event"
		},
		{
			"anonymous": false,
			"inputs": [
				{
					"indexed": true,
					"internalType": "uint256",
					"name": "exam_id",
					"type": "uint256"
				},
				{
					"indexed": true,
					"internalType": "address",
					"name": "locked_by",
					"type": "address"
				}
			],
			"name": "ExamLocked",
			"type": "event"
		},
		{
			"anonymous": false,
			"inputs": [
				{
					"indexed": true,
					"internalType": "uint256",
					"name": "exam_id",
					"type": "uint256"
				},
				{
					"indexed": false,
					"internalType": "string",
					"name": "hash",
					"type": "string"
				},
				{
					"indexed": true,
					"internalType": "address",
					"name": "created_by",
					"type": "address"
				},
				{
					"indexed": false,
					"internalType": "uint256",
					"name": "created_at",
					"type": "uint256"
				},
				{
					"indexed": true,
					"internalType": "bytes32",
					"name": "blockHash",
					"type": "bytes32"
				},
				{
					"indexed": false,
					"internalType": "uint256",
					"name": "blockNumber",
					"type": "uint256"
				}
			],
			"name": "ExamStored",
			"type": "event"
		},
		{
			"anonymous": false,
			"inputs": [
				{
					"indexed": true,
					"internalType": "uint256",
					"name": "student_id",
					"type": "uint256"
				},
				{
					"indexed": true,
					"internalType": "uint256",
					"name": "exam_id",
					"type": "uint256"
				},
				{
					"indexed": false,
					"internalType": "string",
					"name": "status",
					"type": "string"
				},
				{
					"indexed": false,
					"internalType": "uint256",
					"name": "new_score",
					"type": "uint256"
				},
				{
					"indexed": true,
					"internalType": "address",
					"name": "reviewer",
					"type": "address"
				}
			],
			"name": "ReviewProcessed",
			"type": "event"
		},
		{
			"anonymous": false,
			"inputs": [
				{
					"indexed": true,
					"internalType": "uint256",
					"name": "student_id",
					"type": "uint256"
				},
				{
					"indexed": true,
					"internalType": "uint256",
					"name": "exam_id",
					"type": "uint256"
				},
				{
					"indexed": false,
					"internalType": "string",
					"name": "status",
					"type": "string"
				},
				{
					"indexed": false,
					"internalType": "uint256",
					"name": "old_score",
					"type": "uint256"
				},
				{
					"indexed": false,
					"internalType": "string",
					"name": "reason",
					"type": "string"
				}
			],
			"name": "ReviewRequested",
			"type": "event"
		},
		{
			"anonymous": false,
			"inputs": [
				{
					"indexed": true,
					"internalType": "bytes32",
					"name": "role",
					"type": "bytes32"
				},
				{
					"indexed": true,
					"internalType": "address",
					"name": "account",
					"type": "address"
				},
				{
					"indexed": true,
					"internalType": "address",
					"name": "sender",
					"type": "address"
				}
			],
			"name": "RoleGranted",
			"type": "event"
		},
		{
			"anonymous": false,
			"inputs": [
				{
					"indexed": true,
					"internalType": "bytes32",
					"name": "role",
					"type": "bytes32"
				},
				{
					"indexed": true,
					"internalType": "address",
					"name": "account",
					"type": "address"
				},
				{
					"indexed": true,
					"internalType": "address",
					"name": "sender",
					"type": "address"
				}
			],
			"name": "RoleRevoked",
			"type": "event"
		},
		{
			"anonymous": false,
			"inputs": [
				{
					"indexed": true,
					"internalType": "uint256",
					"name": "student_id",
					"type": "uint256"
				},
				{
					"indexed": true,
					"internalType": "uint256",
					"name": "exam_id",
					"type": "uint256"
				},
				{
					"indexed": true,
					"internalType": "address",
					"name": "finalized_by",
					"type": "address"
				}
			],
			"name": "ScoreFinalized",
			"type": "event"
		},
		{
			"anonymous": false,
			"inputs": [
				{
					"indexed": true,
					"internalType": "uint256",
					"name": "student_id",
					"type": "uint256"
				},
				{
					"indexed": true,
					"internalType": "uint256",
					"name": "exam_id",
					"type": "uint256"
				},
				{
					"indexed": false,
					"internalType": "uint256",
					"name": "score",
					"type": "uint256"
				},
				{
					"indexed": true,
					"internalType": "address",
					"name": "graded_by",
					"type": "address"
				}
			],
			"name": "ScoreStored",
			"type": "event"
		},
		{
			"anonymous": false,
			"inputs": [
				{
					"indexed": true,
					"internalType": "uint256",
					"name": "student_id",
					"type": "uint256"
				},
				{
					"indexed": true,
					"internalType": "uint256",
					"name": "exam_id",
					"type": "uint256"
				},
				{
					"indexed": false,
					"internalType": "uint256",
					"name": "old_score",
					"type": "uint256"
				},
				{
					"indexed": false,
					"internalType": "uint256",
					"name": "new_score",
					"type": "uint256"
				},
				{
					"indexed": true,
					"internalType": "address",
					"name": "updated_by",
					"type": "address"
				}
			],
			"name": "ScoreUpdated",
			"type": "event"
		},
		{
			"anonymous": false,
			"inputs": [
				{
					"indexed": true,
					"internalType": "uint256",
					"name": "student_id",
					"type": "uint256"
				},
				{
					"indexed": true,
					"internalType": "address",
					"name": "studentAddress",
					"type": "address"
				},
				{
					"indexed": false,
					"internalType": "address",
					"name": "setBy",
					"type": "address"
				}
			],
			"name": "StudentAddressSet",
			"type": "event"
		},
		{
			"anonymous": false,
			"inputs": [
				{
					"indexed": true,
					"internalType": "uint256",
					"name": "student_id",
					"type": "uint256"
				},
				{
					"indexed": true,
					"internalType": "address",
					"name": "oldAddress",
					"type": "address"
				},
				{
					"indexed": true,
					"internalType": "address",
					"name": "newAddress",
					"type": "address"
				},
				{
					"indexed": false,
					"internalType": "address",
					"name": "updatedBy",
					"type": "address"
				}
			],
			"name": "StudentAddressUpdated",
			"type": "event"
		},
		{
			"anonymous": false,
			"inputs": [
				{
					"indexed": true,
					"internalType": "uint256",
					"name": "test_id",
					"type": "uint256"
				},
				{
					"indexed": true,
					"internalType": "address",
					"name": "blocked_by",
					"type": "address"
				}
			],
			"name": "TestBlocked",
			"type": "event"
		},
		{
			"anonymous": false,
			"inputs": [
				{
					"indexed": true,
					"internalType": "uint256",
					"name": "test_id",
					"type": "uint256"
				},
				{
					"indexed": true,
					"internalType": "uint256",
					"name": "id_created_by",
					"type": "uint256"
				},
				{
					"indexed": false,
					"internalType": "uint256",
					"name": "created_at",
					"type": "uint256"
				}
			],
			"name": "TestCreated",
			"type": "event"
		},
		{
			"anonymous": false,
			"inputs": [
				{
					"indexed": true,
					"internalType": "uint256",
					"name": "test_id",
					"type": "uint256"
				},
				{
					"indexed": true,
					"internalType": "address",
					"name": "unblocked_by",
					"type": "address"
				}
			],
			"name": "TestUnblocked",
			"type": "event"
		},
		{
			"anonymous": false,
			"inputs": [
				{
					"indexed": true,
					"internalType": "uint256",
					"name": "entity_id",
					"type": "uint256"
				},
				{
					"indexed": true,
					"internalType": "address",
					"name": "caller",
					"type": "address"
				},
				{
					"indexed": false,
					"internalType": "string",
					"name": "action",
					"type": "string"
				},
				{
					"indexed": false,
					"internalType": "uint256",
					"name": "target_id",
					"type": "uint256"
				},
				{
					"indexed": false,
					"internalType": "string",
					"name": "details",
					"type": "string"
				},
				{
					"indexed": false,
					"internalType": "uint256",
					"name": "timestamp",
					"type": "uint256"
				}
			],
			"name": "TraceRecorded",
			"type": "event"
		},
		{
			"anonymous": false,
			"inputs": [
				{
					"indexed": true,
					"internalType": "address",
					"name": "from",
					"type": "address"
				},
				{
					"indexed": true,
					"internalType": "address",
					"name": "to",
					"type": "address"
				},
				{
					"indexed": true,
					"internalType": "uint256",
					"name": "tokenId",
					"type": "uint256"
				}
			],
			"name": "Transfer",
			"type": "event"
		},
		{
			"inputs": [],
			"name": "ADMIN_ROLE",
			"outputs": [
				{
					"internalType": "bytes32",
					"name": "",
					"type": "bytes32"
				}
			],
			"stateMutability": "view",
			"type": "function"
		},
		{
			"inputs": [],
			"name": "DEFAULT_ADMIN_ROLE",
			"outputs": [
				{
					"internalType": "bytes32",
					"name": "",
					"type": "bytes32"
				}
			],
			"stateMutability": "view",
			"type": "function"
		},
		{
			"inputs": [],
			"name": "EMPLOYER_ROLE",
			"outputs": [
				{
					"internalType": "bytes32",
					"name": "",
					"type": "bytes32"
				}
			],
			"stateMutability": "view",
			"type": "function"
		},
		{
			"inputs": [],
			"name": "LECTURER_ROLE",
			"outputs": [
				{
					"internalType": "bytes32",
					"name": "",
					"type": "bytes32"
				}
			],
			"stateMutability": "view",
			"type": "function"
		},
		{
			"inputs": [],
			"name": "STUDENT_ROLE",
			"outputs": [
				{
					"internalType": "bytes32",
					"name": "",
					"type": "bytes32"
				}
			],
			"stateMutability": "view",
			"type": "function"
		},
		{
			"inputs": [
				{
					"internalType": "address",
					"name": "",
					"type": "address"
				}
			],
			"name": "addressToStudentId",
			"outputs": [
				{
					"internalType": "uint256",
					"name": "",
					"type": "uint256"
				}
			],
			"stateMutability": "view",
			"type": "function"
		},
		{
			"inputs": [
				{
					"internalType": "address",
					"name": "owner",
					"type": "address"
				}
			],
			"name": "balanceOf",
			"outputs": [
				{
					"internalType": "uint256",
					"name": "",
					"type": "uint256"
				}
			],
			"stateMutability": "view",
			"type": "function"
		},
		{
			"inputs": [
				{
					"internalType": "uint256",
					"name": "_test_id",
					"type": "uint256"
				}
			],
			"name": "blockTest",
			"outputs": [],
			"stateMutability": "nonpayable",
			"type": "function"
		},
		{
			"inputs": [
				{
					"internalType": "uint256",
					"name": "",
					"type": "uint256"
				}
			],
			"name": "certificates",
			"outputs": [
				{
					"internalType": "uint256",
					"name": "tokenId",
					"type": "uint256"
				},
				{
					"internalType": "uint256",
					"name": "student_id",
					"type": "uint256"
				},
				{
					"internalType": "uint256",
					"name": "exam_id",
					"type": "uint256"
				},
				{
					"internalType": "uint256",
					"name": "score",
					"type": "uint256"
				},
				{
					"internalType": "string",
					"name": "metadata_uri",
					"type": "string"
				},
				{
					"internalType": "uint256",
					"name": "issued_at",
					"type": "uint256"
				},
				{
					"internalType": "address",
					"name": "issued_by",
					"type": "address"
				},
				{
					"internalType": "bool",
					"name": "is_valid",
					"type": "bool"
				}
			],
			"stateMutability": "view",
			"type": "function"
		},
		{
			"inputs": [
				{
					"internalType": "uint256",
					"name": "_exam_id",
					"type": "uint256"
				},
				{
					"internalType": "string",
					"name": "_reason",
					"type": "string"
				}
			],
			"name": "createMyReviewRequest",
			"outputs": [],
			"stateMutability": "nonpayable",
			"type": "function"
		},
		{
			"inputs": [
				{
					"internalType": "uint256",
					"name": "_test_id",
					"type": "uint256"
				},
				{
					"internalType": "uint256",
					"name": "_id_created_by",
					"type": "uint256"
				}
			],
			"name": "createTest",
			"outputs": [],
			"stateMutability": "nonpayable",
			"type": "function"
		},
		{
			"inputs": [
				{
					"internalType": "uint256",
					"name": "",
					"type": "uint256"
				},
				{
					"internalType": "uint256",
					"name": "",
					"type": "uint256"
				}
			],
			"name": "examScores",
			"outputs": [
				{
					"internalType": "uint256",
					"name": "",
					"type": "uint256"
				}
			],
			"stateMutability": "view",
			"type": "function"
		},
		{
			"inputs": [
				{
					"internalType": "uint256",
					"name": "",
					"type": "uint256"
				}
			],
			"name": "exams",
			"outputs": [
				{
					"internalType": "string",
					"name": "hash",
					"type": "string"
				},
				{
					"internalType": "uint256",
					"name": "exam_id",
					"type": "uint256"
				},
				{
					"internalType": "address",
					"name": "created_by",
					"type": "address"
				},
				{
					"internalType": "uint256",
					"name": "created_at",
					"type": "uint256"
				},
				{
					"internalType": "bool",
					"name": "is_locked",
					"type": "bool"
				},
				{
					"internalType": "bool",
					"name": "is_active",
					"type": "bool"
				}
			],
			"stateMutability": "view",
			"type": "function"
		},
		{
			"inputs": [
				{
					"internalType": "uint256",
					"name": "_student_id",
					"type": "uint256"
				},
				{
					"internalType": "uint256",
					"name": "_exam_id",
					"type": "uint256"
				}
			],
			"name": "finalizeScore",
			"outputs": [],
			"stateMutability": "nonpayable",
			"type": "function"
		},
		{
			"inputs": [
				{
					"internalType": "uint256",
					"name": "_student_id",
					"type": "uint256"
				},
				{
					"internalType": "uint256",
					"name": "_exam_id",
					"type": "uint256"
				}
			],
			"name": "getCertificateByStudent",
			"outputs": [
				{
					"components": [
						{
							"internalType": "uint256",
							"name": "tokenId",
							"type": "uint256"
						},
						{
							"internalType": "uint256",
							"name": "student_id",
							"type": "uint256"
						},
						{
							"internalType": "uint256",
							"name": "exam_id",
							"type": "uint256"
						},
						{
							"internalType": "uint256",
							"name": "score",
							"type": "uint256"
						},
						{
							"internalType": "string",
							"name": "metadata_uri",
							"type": "string"
						},
						{
							"internalType": "uint256",
							"name": "issued_at",
							"type": "uint256"
						},
						{
							"internalType": "address",
							"name": "issued_by",
							"type": "address"
						},
						{
							"internalType": "bool",
							"name": "is_valid",
							"type": "bool"
						}
					],
					"internalType": "struct DZCertificate.Certificate",
					"name": "",
					"type": "tuple"
				}
			],
			"stateMutability": "view",
			"type": "function"
		},
		{
			"inputs": [
				{
					"internalType": "uint256",
					"name": "_exam_id",
					"type": "uint256"
				}
			],
			"name": "getExam",
			"outputs": [
				{
					"internalType": "string",
					"name": "hash",
					"type": "string"
				},
				{
					"internalType": "uint256",
					"name": "exam_id",
					"type": "uint256"
				},
				{
					"internalType": "address",
					"name": "created_by",
					"type": "address"
				},
				{
					"internalType": "uint256",
					"name": "created_at",
					"type": "uint256"
				},
				{
					"internalType": "bool",
					"name": "is_locked",
					"type": "bool"
				},
				{
					"internalType": "bool",
					"name": "is_active",
					"type": "bool"
				}
			],
			"stateMutability": "view",
			"type": "function"
		},
		{
			"inputs": [
				{
					"internalType": "uint256",
					"name": "_exam_id",
					"type": "uint256"
				}
			],
			"name": "getExamScores",
			"outputs": [
				{
					"internalType": "uint256[]",
					"name": "",
					"type": "uint256[]"
				}
			],
			"stateMutability": "view",
			"type": "function"
		},
		{
			"inputs": [
				{
					"internalType": "address",
					"name": "_lecturer",
					"type": "address"
				}
			],
			"name": "getLecturerExams",
			"outputs": [
				{
					"internalType": "uint256[]",
					"name": "",
					"type": "uint256[]"
				}
			],
			"stateMutability": "view",
			"type": "function"
		},
		{
			"inputs": [
				{
					"internalType": "uint256",
					"name": "_student_id",
					"type": "uint256"
				},
				{
					"internalType": "uint256",
					"name": "_exam_id",
					"type": "uint256"
				}
			],
			"name": "getMyCertificate",
			"outputs": [
				{
					"components": [
						{
							"internalType": "uint256",
							"name": "tokenId",
							"type": "uint256"
						},
						{
							"internalType": "uint256",
							"name": "student_id",
							"type": "uint256"
						},
						{
							"internalType": "uint256",
							"name": "exam_id",
							"type": "uint256"
						},
						{
							"internalType": "uint256",
							"name": "score",
							"type": "uint256"
						},
						{
							"internalType": "string",
							"name": "metadata_uri",
							"type": "string"
						},
						{
							"internalType": "uint256",
							"name": "issued_at",
							"type": "uint256"
						},
						{
							"internalType": "address",
							"name": "issued_by",
							"type": "address"
						},
						{
							"internalType": "bool",
							"name": "is_valid",
							"type": "bool"
						}
					],
					"internalType": "struct DZCertificate.Certificate",
					"name": "",
					"type": "tuple"
				}
			],
			"stateMutability": "view",
			"type": "function"
		},
		{
			"inputs": [
				{
					"internalType": "uint256",
					"name": "_exam_id",
					"type": "uint256"
				}
			],
			"name": "getMyReviewRequest",
			"outputs": [
				{
					"components": [
						{
							"internalType": "uint256",
							"name": "student_id",
							"type": "uint256"
						},
						{
							"internalType": "uint256",
							"name": "exam_id",
							"type": "uint256"
						},
						{
							"internalType": "uint256",
							"name": "request_date",
							"type": "uint256"
						},
						{
							"internalType": "string",
							"name": "status",
							"type": "string"
						},
						{
							"internalType": "uint256",
							"name": "old_score",
							"type": "uint256"
						},
						{
							"internalType": "uint256",
							"name": "new_score",
							"type": "uint256"
						},
						{
							"internalType": "string",
							"name": "reason",
							"type": "string"
						},
						{
							"internalType": "address",
							"name": "reviewer",
							"type": "address"
						},
						{
							"internalType": "uint256",
							"name": "reviewed_at",
							"type": "uint256"
						},
						{
							"internalType": "bool",
							"name": "is_processed",
							"type": "bool"
						}
					],
					"internalType": "struct DZReviewManager.ReviewRequest",
					"name": "",
					"type": "tuple"
				}
			],
			"stateMutability": "view",
			"type": "function"
		},
		{
			"inputs": [
				{
					"internalType": "uint256",
					"name": "_student_id",
					"type": "uint256"
				},
				{
					"internalType": "uint256",
					"name": "_exam_id",
					"type": "uint256"
				}
			],
			"name": "getReviewRequest",
			"outputs": [
				{
					"components": [
						{
							"internalType": "uint256",
							"name": "student_id",
							"type": "uint256"
						},
						{
							"internalType": "uint256",
							"name": "exam_id",
							"type": "uint256"
						},
						{
							"internalType": "uint256",
							"name": "request_date",
							"type": "uint256"
						},
						{
							"internalType": "string",
							"name": "status",
							"type": "string"
						},
						{
							"internalType": "uint256",
							"name": "old_score",
							"type": "uint256"
						},
						{
							"internalType": "uint256",
							"name": "new_score",
							"type": "uint256"
						},
						{
							"internalType": "string",
							"name": "reason",
							"type": "string"
						},
						{
							"internalType": "address",
							"name": "reviewer",
							"type": "address"
						},
						{
							"internalType": "uint256",
							"name": "reviewed_at",
							"type": "uint256"
						},
						{
							"internalType": "bool",
							"name": "is_processed",
							"type": "bool"
						}
					],
					"internalType": "struct DZReviewManager.ReviewRequest",
					"name": "",
					"type": "tuple"
				}
			],
			"stateMutability": "view",
			"type": "function"
		},
		{
			"inputs": [
				{
					"internalType": "uint256",
					"name": "_student_id",
					"type": "uint256"
				},
				{
					"internalType": "uint256",
					"name": "_exam_id",
					"type": "uint256"
				}
			],
			"name": "getScore",
			"outputs": [
				{
					"internalType": "uint256",
					"name": "student_id",
					"type": "uint256"
				},
				{
					"internalType": "uint256",
					"name": "exam_id",
					"type": "uint256"
				},
				{
					"internalType": "uint256",
					"name": "score",
					"type": "uint256"
				},
				{
					"internalType": "address",
					"name": "graded_by",
					"type": "address"
				},
				{
					"internalType": "uint256",
					"name": "created_at",
					"type": "uint256"
				},
				{
					"internalType": "uint256",
					"name": "updated_at",
					"type": "uint256"
				},
				{
					"internalType": "bool",
					"name": "is_final",
					"type": "bool"
				}
			],
			"stateMutability": "view",
			"type": "function"
		},
		{
			"inputs": [
				{
					"internalType": "uint256",
					"name": "_student_id",
					"type": "uint256"
				}
			],
			"name": "getStudentAddress",
			"outputs": [
				{
					"internalType": "address",
					"name": "",
					"type": "address"
				}
			],
			"stateMutability": "view",
			"type": "function"
		},
		{
			"inputs": [
				{
					"internalType": "address",
					"name": "_address",
					"type": "address"
				}
			],
			"name": "getStudentIdByAddress",
			"outputs": [
				{
					"internalType": "uint256",
					"name": "",
					"type": "uint256"
				}
			],
			"stateMutability": "view",
			"type": "function"
		},
		{
			"inputs": [
				{
					"internalType": "uint256",
					"name": "_test_id",
					"type": "uint256"
				}
			],
			"name": "getTest",
			"outputs": [
				{
					"internalType": "uint256",
					"name": "test_id",
					"type": "uint256"
				},
				{
					"internalType": "uint256",
					"name": "id_created_by",
					"type": "uint256"
				},
				{
					"internalType": "uint256",
					"name": "created_at",
					"type": "uint256"
				},
				{
					"internalType": "bool",
					"name": "is_blocked",
					"type": "bool"
				},
				{
					"internalType": "bool",
					"name": "is_active",
					"type": "bool"
				}
			],
			"stateMutability": "view",
			"type": "function"
		},
		{
			"inputs": [
				{
					"internalType": "uint256",
					"name": "_entity_id",
					"type": "uint256"
				}
			],
			"name": "getTraceCount",
			"outputs": [
				{
					"internalType": "uint256",
					"name": "",
					"type": "uint256"
				}
			],
			"stateMutability": "view",
			"type": "function"
		},
		{
			"inputs": [
				{
					"internalType": "uint256",
					"name": "_entity_id",
					"type": "uint256"
				}
			],
			"name": "getTraces",
			"outputs": [
				{
					"components": [
						{
							"internalType": "uint256",
							"name": "timestamp",
							"type": "uint256"
						},
						{
							"internalType": "address",
							"name": "caller",
							"type": "address"
						},
						{
							"internalType": "string",
							"name": "action",
							"type": "string"
						},
						{
							"internalType": "uint256",
							"name": "target_id",
							"type": "uint256"
						},
						{
							"internalType": "string",
							"name": "details",
							"type": "string"
						}
					],
					"internalType": "struct DZTraceLogger.TraceRecord[]",
					"name": "",
					"type": "tuple[]"
				}
			],
			"stateMutability": "view",
			"type": "function"
		},
		{
			"inputs": [
				{
					"internalType": "uint256",
					"name": "_user_id",
					"type": "uint256"
				}
			],
			"name": "getUserTests",
			"outputs": [
				{
					"internalType": "uint256[]",
					"name": "",
					"type": "uint256[]"
				}
			],
			"stateMutability": "view",
			"type": "function"
		},
		{
			"inputs": [
				{
					"internalType": "address",
					"name": "account",
					"type": "address"
				}
			],
			"name": "grantEmployerRole",
			"outputs": [],
			"stateMutability": "nonpayable",
			"type": "function"
		},
		{
			"inputs": [
				{
					"internalType": "address",
					"name": "account",
					"type": "address"
				}
			],
			"name": "grantLecturerRole",
			"outputs": [],
			"stateMutability": "nonpayable",
			"type": "function"
		},
		{
			"inputs": [
				{
					"internalType": "bytes32",
					"name": "role",
					"type": "bytes32"
				},
				{
					"internalType": "address",
					"name": "account",
					"type": "address"
				}
			],
			"name": "grantRole",
			"outputs": [],
			"stateMutability": "nonpayable",
			"type": "function"
		},
		{
			"inputs": [
				{
					"internalType": "address",
					"name": "account",
					"type": "address"
				}
			],
			"name": "grantStudentRole",
			"outputs": [],
			"stateMutability": "nonpayable",
			"type": "function"
		},
		{
			"inputs": [
				{
					"internalType": "bytes32",
					"name": "role",
					"type": "bytes32"
				},
				{
					"internalType": "address",
					"name": "account",
					"type": "address"
				}
			],
			"name": "hasRole",
			"outputs": [
				{
					"internalType": "bool",
					"name": "",
					"type": "bool"
				}
			],
			"stateMutability": "view",
			"type": "function"
		},
		{
			"inputs": [
				{
					"internalType": "uint256",
					"name": "_student_id",
					"type": "uint256"
				},
				{
					"internalType": "uint256",
					"name": "_exam_id",
					"type": "uint256"
				},
				{
					"internalType": "string",
					"name": "_metadata_uri",
					"type": "string"
				}
			],
			"name": "issueCertificate",
			"outputs": [
				{
					"internalType": "uint256",
					"name": "",
					"type": "uint256"
				}
			],
			"stateMutability": "nonpayable",
			"type": "function"
		},
		{
			"inputs": [
				{
					"internalType": "address",
					"name": "",
					"type": "address"
				},
				{
					"internalType": "uint256",
					"name": "",
					"type": "uint256"
				}
			],
			"name": "lecturerExams",
			"outputs": [
				{
					"internalType": "uint256",
					"name": "",
					"type": "uint256"
				}
			],
			"stateMutability": "view",
			"type": "function"
		},
		{
			"inputs": [
				{
					"internalType": "uint256",
					"name": "_exam_id",
					"type": "uint256"
				}
			],
			"name": "lockExam",
			"outputs": [],
			"stateMutability": "nonpayable",
			"type": "function"
		},
		{
			"inputs": [],
			"name": "name",
			"outputs": [
				{
					"internalType": "string",
					"name": "",
					"type": "string"
				}
			],
			"stateMutability": "view",
			"type": "function"
		},
		{
			"inputs": [
				{
					"internalType": "uint256",
					"name": "tokenId",
					"type": "uint256"
				}
			],
			"name": "ownerOf",
			"outputs": [
				{
					"internalType": "address",
					"name": "",
					"type": "address"
				}
			],
			"stateMutability": "view",
			"type": "function"
		},
		{
			"inputs": [
				{
					"internalType": "uint256",
					"name": "_student_id",
					"type": "uint256"
				},
				{
					"internalType": "uint256",
					"name": "_exam_id",
					"type": "uint256"
				},
				{
					"internalType": "string",
					"name": "_review_status",
					"type": "string"
				},
				{
					"internalType": "uint256",
					"name": "_new_score",
					"type": "uint256"
				}
			],
			"name": "processReviewRequest",
			"outputs": [],
			"stateMutability": "nonpayable",
			"type": "function"
		},
		{
			"inputs": [
				{
					"internalType": "uint256",
					"name": "",
					"type": "uint256"
				},
				{
					"internalType": "uint256",
					"name": "",
					"type": "uint256"
				}
			],
			"name": "reviewRequests",
			"outputs": [
				{
					"internalType": "uint256",
					"name": "student_id",
					"type": "uint256"
				},
				{
					"internalType": "uint256",
					"name": "exam_id",
					"type": "uint256"
				},
				{
					"internalType": "uint256",
					"name": "request_date",
					"type": "uint256"
				},
				{
					"internalType": "string",
					"name": "status",
					"type": "string"
				},
				{
					"internalType": "uint256",
					"name": "old_score",
					"type": "uint256"
				},
				{
					"internalType": "uint256",
					"name": "new_score",
					"type": "uint256"
				},
				{
					"internalType": "string",
					"name": "reason",
					"type": "string"
				},
				{
					"internalType": "address",
					"name": "reviewer",
					"type": "address"
				},
				{
					"internalType": "uint256",
					"name": "reviewed_at",
					"type": "uint256"
				},
				{
					"internalType": "bool",
					"name": "is_processed",
					"type": "bool"
				}
			],
			"stateMutability": "view",
			"type": "function"
		},
		{
			"inputs": [
				{
					"internalType": "uint256",
					"name": "tokenId",
					"type": "uint256"
				}
			],
			"name": "revokeCertificate",
			"outputs": [],
			"stateMutability": "nonpayable",
			"type": "function"
		},
		{
			"inputs": [
				{
					"internalType": "address",
					"name": "account",
					"type": "address"
				}
			],
			"name": "revokeEmployerRole",
			"outputs": [],
			"stateMutability": "nonpayable",
			"type": "function"
		},
		{
			"inputs": [
				{
					"internalType": "address",
					"name": "account",
					"type": "address"
				}
			],
			"name": "revokeLecturerRole",
			"outputs": [],
			"stateMutability": "nonpayable",
			"type": "function"
		},
		{
			"inputs": [
				{
					"internalType": "bytes32",
					"name": "role",
					"type": "bytes32"
				},
				{
					"internalType": "address",
					"name": "account",
					"type": "address"
				}
			],
			"name": "revokeRole",
			"outputs": [],
			"stateMutability": "nonpayable",
			"type": "function"
		},
		{
			"inputs": [
				{
					"internalType": "address",
					"name": "account",
					"type": "address"
				}
			],
			"name": "revokeStudentRole",
			"outputs": [],
			"stateMutability": "nonpayable",
			"type": "function"
		},
		{
			"inputs": [
				{
					"internalType": "uint256",
					"name": "",
					"type": "uint256"
				},
				{
					"internalType": "uint256",
					"name": "",
					"type": "uint256"
				}
			],
			"name": "scores",
			"outputs": [
				{
					"internalType": "uint256",
					"name": "student_id",
					"type": "uint256"
				},
				{
					"internalType": "uint256",
					"name": "exam_id",
					"type": "uint256"
				},
				{
					"internalType": "uint256",
					"name": "score",
					"type": "uint256"
				},
				{
					"internalType": "address",
					"name": "graded_by",
					"type": "address"
				},
				{
					"internalType": "uint256",
					"name": "created_at",
					"type": "uint256"
				},
				{
					"internalType": "uint256",
					"name": "updated_at",
					"type": "uint256"
				},
				{
					"internalType": "bool",
					"name": "is_final",
					"type": "bool"
				}
			],
			"stateMutability": "view",
			"type": "function"
		},
		{
			"inputs": [
				{
					"internalType": "uint256",
					"name": "_student_id",
					"type": "uint256"
				},
				{
					"internalType": "address",
					"name": "_studentAddress",
					"type": "address"
				}
			],
			"name": "setStudentAddress",
			"outputs": [],
			"stateMutability": "nonpayable",
			"type": "function"
		},
		{
			"inputs": [
				{
					"internalType": "string",
					"name": "_hash",
					"type": "string"
				},
				{
					"internalType": "uint256",
					"name": "_exam_id",
					"type": "uint256"
				}
			],
			"name": "storeExam",
			"outputs": [
				{
					"internalType": "string",
					"name": "hash",
					"type": "string"
				},
				{
					"internalType": "uint256",
					"name": "exam_id",
					"type": "uint256"
				},
				{
					"internalType": "address",
					"name": "created_by",
					"type": "address"
				},
				{
					"internalType": "uint256",
					"name": "created_at",
					"type": "uint256"
				},
				{
					"internalType": "bool",
					"name": "is_active",
					"type": "bool"
				}
			],
			"stateMutability": "nonpayable",
			"type": "function"
		},
		{
			"inputs": [
				{
					"internalType": "uint256",
					"name": "_student_id",
					"type": "uint256"
				},
				{
					"internalType": "uint256",
					"name": "_exam_id",
					"type": "uint256"
				},
				{
					"internalType": "string",
					"name": "_reason",
					"type": "string"
				}
			],
			"name": "storeReviewRequest",
			"outputs": [],
			"stateMutability": "nonpayable",
			"type": "function"
		},
		{
			"inputs": [
				{
					"internalType": "uint256",
					"name": "_student_id",
					"type": "uint256"
				},
				{
					"internalType": "uint256",
					"name": "_exam_id",
					"type": "uint256"
				},
				{
					"internalType": "uint256",
					"name": "_score",
					"type": "uint256"
				}
			],
			"name": "storeScore",
			"outputs": [],
			"stateMutability": "nonpayable",
			"type": "function"
		},
		{
			"inputs": [
				{
					"internalType": "uint256",
					"name": "",
					"type": "uint256"
				}
			],
			"name": "studentAddresses",
			"outputs": [
				{
					"internalType": "address",
					"name": "",
					"type": "address"
				}
			],
			"stateMutability": "view",
			"type": "function"
		},
		{
			"inputs": [
				{
					"internalType": "uint256",
					"name": "",
					"type": "uint256"
				},
				{
					"internalType": "uint256",
					"name": "",
					"type": "uint256"
				}
			],
			"name": "studentCertificates",
			"outputs": [
				{
					"internalType": "uint256",
					"name": "",
					"type": "uint256"
				}
			],
			"stateMutability": "view",
			"type": "function"
		},
		{
			"inputs": [],
			"name": "symbol",
			"outputs": [
				{
					"internalType": "string",
					"name": "",
					"type": "string"
				}
			],
			"stateMutability": "view",
			"type": "function"
		},
		{
			"inputs": [
				{
					"internalType": "uint256",
					"name": "",
					"type": "uint256"
				}
			],
			"name": "tests",
			"outputs": [
				{
					"internalType": "uint256",
					"name": "test_id",
					"type": "uint256"
				},
				{
					"internalType": "uint256",
					"name": "id_created_by",
					"type": "uint256"
				},
				{
					"internalType": "uint256",
					"name": "created_at",
					"type": "uint256"
				},
				{
					"internalType": "bool",
					"name": "is_blocked",
					"type": "bool"
				},
				{
					"internalType": "bool",
					"name": "is_active",
					"type": "bool"
				}
			],
			"stateMutability": "view",
			"type": "function"
		},
		{
			"inputs": [
				{
					"internalType": "uint256",
					"name": "tokenId",
					"type": "uint256"
				}
			],
			"name": "tokenURI",
			"outputs": [
				{
					"internalType": "string",
					"name": "",
					"type": "string"
				}
			],
			"stateMutability": "view",
			"type": "function"
		},
		{
			"inputs": [
				{
					"internalType": "uint256",
					"name": "",
					"type": "uint256"
				},
				{
					"internalType": "uint256",
					"name": "",
					"type": "uint256"
				}
			],
			"name": "traces",
			"outputs": [
				{
					"internalType": "uint256",
					"name": "timestamp",
					"type": "uint256"
				},
				{
					"internalType": "address",
					"name": "caller",
					"type": "address"
				},
				{
					"internalType": "string",
					"name": "action",
					"type": "string"
				},
				{
					"internalType": "uint256",
					"name": "target_id",
					"type": "uint256"
				},
				{
					"internalType": "string",
					"name": "details",
					"type": "string"
				}
			],
			"stateMutability": "view",
			"type": "function"
		},
		{
			"inputs": [
				{
					"internalType": "uint256",
					"name": "_test_id",
					"type": "uint256"
				}
			],
			"name": "unblockTest",
			"outputs": [],
			"stateMutability": "nonpayable",
			"type": "function"
		},
		{
			"inputs": [
				{
					"internalType": "uint256",
					"name": "_student_id",
					"type": "uint256"
				},
				{
					"internalType": "uint256",
					"name": "_exam_id",
					"type": "uint256"
				},
				{
					"internalType": "uint256",
					"name": "_new_score",
					"type": "uint256"
				}
			],
			"name": "updateScore",
			"outputs": [],
			"stateMutability": "nonpayable",
			"type": "function"
		},
		{
			"inputs": [
				{
					"internalType": "uint256",
					"name": "_student_id",
					"type": "uint256"
				},
				{
					"internalType": "address",
					"name": "_newAddress",
					"type": "address"
				}
			],
			"name": "updateStudentAddress",
			"outputs": [],
			"stateMutability": "nonpayable",
			"type": "function"
		},
		{
			"inputs": [
				{
					"internalType": "uint256",
					"name": "",
					"type": "uint256"
				},
				{
					"internalType": "uint256",
					"name": "",
					"type": "uint256"
				}
			],
			"name": "userTests",
			"outputs": [
				{
					"internalType": "uint256",
					"name": "",
					"type": "uint256"
				}
			],
			"stateMutability": "view",
			"type": "function"
		},
		{
			"inputs": [
				{
					"internalType": "uint256",
					"name": "tokenId",
					"type": "uint256"
				}
			],
			"name": "verifyCertificate",
			"outputs": [
				{
					"components": [
						{
							"internalType": "uint256",
							"name": "tokenId",
							"type": "uint256"
						},
						{
							"internalType": "uint256",
							"name": "student_id",
							"type": "uint256"
						},
						{
							"internalType": "uint256",
							"name": "exam_id",
							"type": "uint256"
						},
						{
							"internalType": "uint256",
							"name": "score",
							"type": "uint256"
						},
						{
							"internalType": "string",
							"name": "metadata_uri",
							"type": "string"
						},
						{
							"internalType": "uint256",
							"name": "issued_at",
							"type": "uint256"
						},
						{
							"internalType": "address",
							"name": "issued_by",
							"type": "address"
						},
						{
							"internalType": "bool",
							"name": "is_valid",
							"type": "bool"
						}
					],
					"internalType": "struct DZCertificate.Certificate",
					"name": "",
					"type": "tuple"
				}
			],
			"stateMutability": "view",
			"type": "function"
		}
	]
}