{
	"data": {
		"bytecode": {
			"linkReferences": {},
			"object": "6080604052348015600f57600080fd5b5061135c8061001f6000396000f3fe608060405234801561001057600080fd5b50600436106101735760003560e01c806380ab3dda116100de578063b5ab682d11610097578063d547741f11610071578063d547741f146103ce578063e67651ac146103e1578063f7be43fb1461040a578063fc9b39e61461041f57600080fd5b8063b5ab682d14610367578063c94d10ad146103a8578063d27fc520146103bb57600080fd5b806380ab3dda146102b557806386c34415146102de57806391d14854146102fe578063a217fddf14610311578063a22c1bc914610319578063adc6ba731461033957600080fd5b80632f2ff15d116101305780632f2ff15d1461024157806332b3c846146102545780633f0a92fb1461026757806366b2d2801461027a5780636a0d28921461028d57806375b238fc146102a057600080fd5b80630713eb021461017857806316853feb146101a05780631bc7980c146101b55780632426bb38146101c85780632543b3a7146101ef5780632ea0d8291461022e575b600080fd5b61018d6000805160206112e783398151915281565b6040519081526020015b60405180910390f35b6101b36101ae366004610f09565b610432565b005b6101b36101c3366004610f2b565b61049e565b61018d7ffc7c36207174f786648d2e624616a4b40e15fd7f0268b4e36af5057f0c43c83581565b61021e6101fd366004610fae565b60009182526004602081815260408085209385529290529120015460ff1690565b6040519015158152602001610197565b6101b361023c366004610f09565b610633565b6101b361024f366004610fd0565b610692565b6101b3610262366004610f09565b6106c9565b6101b3610275366004610ffc565b610716565b6101b3610288366004610f09565b610804565b6101b361029b366004610fd0565b610851565b61018d60008051602061130783398151915281565b61018d6102c3366004610f09565b6001600160a01b031660009081526003602052604090205490565b61018d6102ec366004610f09565b60036020526000908152604090205481565b61021e61030c366004610fd0565b610a34565b61018d600081565b61032c610327366004610fae565b610a5d565b6040516101979190611028565b61018d610347366004610fae565b600091825260046020908152604080842092845291905290206003015490565b6103906103753660046110b1565b6002602052600090815260409020546001600160a01b031681565b6040516001600160a01b039091168152602001610197565b6101b36103b6366004610f09565b610b87565b6101b36103c9366004610fd0565b610bd4565b6101b36103dc366004610fd0565b610da2565b6103906103ef3660046110b1565b6000908152600260205260409020546001600160a01b031690565b61018d6000805160206112c783398151915281565b6101b361042d366004610f09565b610dd4565b60008051602061130783398151915261044b8133610a34565b6104705760405162461bcd60e51b8152600401610467906110ca565b60405180910390fd5b61049a7ffc7c36207174f786648d2e624616a4b40e15fd7f0268b4e36af5057f0c43c83583610e21565b5050565b6000805160206112c78339815191526104b78133610a34565b6104d35760405162461bcd60e51b8152600401610467906110ca565b6000858152600460208181526040808420888552909152909120015460ff16156105335760405162461bcd60e51b8152602060048201526011602482015270105b1c9958591e481cdd589b5a5d1d1959607a1b6044820152606401610467565b6040518060a0016040528086815260200185815260200184848080601f0160208091040260200160405190810160405280939291908181526020018383808284376000920182905250938552505050602080830182905260016040938401819052898352600482528383208984528252918390208451815590840151918101919091559082015160028201906105c9908261118f565b50606082015160038201556080909101516004909101805460ff1916911515919091179055604051849086907f7e1dcecea5687fbfa4bee3618e0cb22dfecdd1ce50800c45b577420be05c644290610624908790879061124e565b60405180910390a35050505050565b60008051602061130783398151915261064c8133610a34565b6106685760405162461bcd60e51b8152600401610467906110ca565b61049a7ffc7c36207174f786648d2e624616a4b40e15fd7f0268b4e36af5057f0c43c83583610e88565b600061069e8133610a34565b6106ba5760405162461bcd60e51b8152600401610467906110ca565b6106c48383610e21565b505050565b6000805160206113078339815191526106e28133610a34565b6106fe5760405162461bcd60e51b8152600401610467906110ca565b61049a6000805160206112c783398151915283610e88565b6000805160206112e783398151915261072f8133610a34565b61074b5760405162461bcd60e51b8152600401610467906110ca565b6000848152600460208181526040808420878552909152909120015460ff166107aa5760405162461bcd60e51b8152602060048201526011602482015270139bdd081cdd589b5a5d1d1959081e595d607a1b6044820152606401610467565b60008481526004602090815260408083208684528252918290206003018490559051838152849186917fb2383e82269e758b9ec0fc961ac69cecc166570a12068c11b3f9cf29c8de9e88910160405180910390a350505050565b60008051602061130783398151915261081d8133610a34565b6108395760405162461bcd60e51b8152600401610467906110ca565b61049a6000805160206112e783398151915283610e21565b60008051602061130783398151915261086a8133610a34565b6108865760405162461bcd60e51b8152600401610467906110ca565b600083116108cb5760405162461bcd60e51b8152602060048201526012602482015271125b9d985b1a59081cdd1d59195b9d08125160721b6044820152606401610467565b6001600160a01b0382166109135760405162461bcd60e51b815260206004820152600f60248201526e496e76616c6964206164647265737360881b6044820152606401610467565b6000838152600260205260409020546001600160a01b03166109775760405162461bcd60e51b815260206004820152601760248201527f53747564656e742061646472657373206e6f74207365740000000000000000006044820152606401610467565b6001600160a01b038216600090815260036020526040902054156109ad5760405162461bcd60e51b81526004016104679061127d565b600083815260026020908152604080832080546001600160a01b039081168086526003855283862086905582546001600160a01b031916918816918217909255808552938290208790559051338152909291839187917f59e33f3654f744a7a32cda9a919fa879941875bb700d1c776ade2f64e23b4649910160405180910390a450505050565b6000918252602082815260408084206001600160a01b0393909316845291905290205460ff1690565b610a916040518060a00160405280600081526020016000815260200160608152602001600081526020016000151581525090565b6004600084815260200190815260200160002060008381526020019081526020016000206040518060a00160405290816000820154815260200160018201548152602001600282018054610ae490611107565b80601f0160208091040260200160405190810160405280929190818152602001828054610b1090611107565b8015610b5d5780601f10610b3257610100808354040283529160200191610b5d565b820191906000526020600020905b815481529060010190602001808311610b4057829003601f168201915b50505091835250506003820154602082015260049091015460ff1615156040909101529392505050565b600080516020611307833981519152610ba08133610a34565b610bbc5760405162461bcd60e51b8152600401610467906110ca565b61049a6000805160206112c783398151915283610e21565b600080516020611307833981519152610bed8133610a34565b610c095760405162461bcd60e51b8152600401610467906110ca565b60008311610c4e5760405162461bcd60e51b8152602060048201526012602482015271125b9d985b1a59081cdd1d59195b9d08125160721b6044820152606401610467565b6001600160a01b038216610c965760405162461bcd60e51b815260206004820152600f60248201526e496e76616c6964206164647265737360881b6044820152606401610467565b6000838152600260205260409020546001600160a01b031615610cfb5760405162461bcd60e51b815260206004820152601b60248201527f53747564656e74206164647265737320616c72656164792073657400000000006044820152606401610467565b6001600160a01b03821660009081526003602052604090205415610d315760405162461bcd60e51b81526004016104679061127d565b600083815260026020908152604080832080546001600160a01b0319166001600160a01b03871690811790915580845260038352928190208690555133815285917fd9cc4835d96fc4b2afb6db1577a9677a621088cdee0c53da65076951d88be32f910160405180910390a3505050565b6000610dae8133610a34565b610dca5760405162461bcd60e51b8152600401610467906110ca565b6106c48383610e88565b600080516020611307833981519152610ded8133610a34565b610e095760405162461bcd60e51b8152600401610467906110ca565b61049a6000805160206112e783398151915283610e88565b610e2b8282610a34565b61049a576000828152602081815260408083206001600160a01b0385168085529252808320805460ff1916600117905551339285917f2f8788117e7eff1d82e926ec794901d17c78024a50270940304540a733656f0d9190a45050565b610e928282610a34565b1561049a576000828152602081815260408083206001600160a01b0385168085529252808320805460ff1916905551339285917ff6391f5c32d9c69d2a47ea670b442974b53935d1edc7fd64eb21e047a839171b9190a45050565b80356001600160a01b0381168114610f0457600080fd5b919050565b600060208284031215610f1b57600080fd5b610f2482610eed565b9392505050565b60008060008060608587031215610f4157600080fd5b8435935060208501359250604085013567ffffffffffffffff811115610f6657600080fd5b8501601f81018713610f7757600080fd5b803567ffffffffffffffff811115610f8e57600080fd5b876020828401011115610fa057600080fd5b949793965060200194505050565b60008060408385031215610fc157600080fd5b50508035926020909101359150565b60008060408385031215610fe357600080fd5b82359150610ff360208401610eed565b90509250929050565b60008060006060848603121561101157600080fd5b505081359360208301359350604090920135919050565b6020815281516020820152602082015160408201526000604083015160a0606084015280518060c085015260005b8181101561107357602081840181015160e0878401015201611056565b50600060e08286010152606085015160808501526080850151915061109c60a085018315159052565b601f01601f19169290920160e0019392505050565b6000602082840312156110c357600080fd5b5035919050565b6020808252600d908201526c1058d8d95cdcc819195b9a5959609a1b604082015260600190565b634e487b7160e01b600052604160045260246000fd5b600181811c9082168061111b57607f821691505b60208210810361113b57634e487b7160e01b600052602260045260246000fd5b50919050565b601f8211156106c457806000526020600020601f840160051c810160208510156111685750805b601f840160051c820191505b818110156111885760008155600101611174565b5050505050565b815167ffffffffffffffff8111156111a9576111a96110f1565b6111bd816111b78454611107565b84611141565b6020601f8211600181146111f157600083156111d95750848201515b600019600385901b1c1916600184901b178455611188565b600084815260208120601f198516915b828110156112215787850151825560209485019460019092019101611201565b508482101561123f5786840151600019600387901b60f8161c191681555b50505050600190811b01905550565b60208152816020820152818360408301376000818301604090810191909152601f909201601f19160101919050565b60208082526029908201527f4164647265737320616c7265616479206c696e6b656420746f20616e6f7468656040820152681c881cdd1d59195b9d60ba1b60608201526080019056fe36a5c4aaacb6b388bbd448bf11096b7dafc5652bcc9046084fd0e95b1fb0b2ccd80fe6bc0e33ab4417bd425f297e026e0456472df56b1eaaee7acd2cbc2c696fa49807205ce4d355092ef5a8a18f56e8913cf4a201fbe287825b095693c21775a26469706673582212202459f0a88afe736be65706568825eb48580edef72b92bc7064c7f458ba404e5364736f6c634300081e0033",
			"opcodes": "PUSH1 0x80 PUSH1 0x40 MSTORE CALLVALUE DUP1 ISZERO PUSH1 0xF JUMPI PUSH1 0x0 DUP1 REVERT JUMPDEST POP PUSH2 0x135C DUP1 PUSH2 0x1F PUSH1 0x0 CODECOPY PUSH1 0x0 RETURN INVALID PUSH1 0x80 PUSH1 0x40 MSTORE CALLVALUE DUP1 ISZERO PUSH2 0x10 JUMPI PUSH1 0x0 DUP1 REVERT JUMPDEST POP PUSH1 0x4 CALLDATASIZE LT PUSH2 0x173 JUMPI PUSH1 0x0 CALLDATALOAD PUSH1 0xE0 SHR DUP1 PUSH4 0x80AB3DDA GT PUSH2 0xDE JUMPI DUP1 PUSH4 0xB5AB682D GT PUSH2 0x97 JUMPI DUP1 PUSH4 0xD547741F GT PUSH2 0x71 JUMPI DUP1 PUSH4 0xD547741F EQ PUSH2 0x3CE JUMPI DUP1 PUSH4 0xE67651AC EQ PUSH2 0x3E1 JUMPI DUP1 PUSH4 0xF7BE43FB EQ PUSH2 0x40A JUMPI DUP1 PUSH4 0xFC9B39E6 EQ PUSH2 0x41F JUMPI PUSH1 0x0 DUP1 REVERT JUMPDEST DUP1 PUSH4 0xB5AB682D EQ PUSH2 0x367 JUMPI DUP1 PUSH4 0xC94D10AD EQ PUSH2 0x3A8 JUMPI DUP1 PUSH4 0xD27FC520 EQ PUSH2 0x3BB JUMPI PUSH1 0x0 DUP1 REVERT JUMPDEST DUP1 PUSH4 0x80AB3DDA EQ PUSH2 0x2B5 JUMPI DUP1 PUSH4 0x86C34415 EQ PUSH2 0x2DE JUMPI DUP1 PUSH4 0x91D14854 EQ PUSH2 0x2FE JUMPI DUP1 PUSH4 0xA217FDDF EQ PUSH2 0x311 JUMPI DUP1 PUSH4 0xA22C1BC9 EQ PUSH2 0x319 JUMPI DUP1 PUSH4 0xADC6BA73 EQ PUSH2 0x339 JUMPI PUSH1 0x0 DUP1 REVERT JUMPDEST DUP1 PUSH4 0x2F2FF15D GT PUSH2 0x130 JUMPI DUP1 PUSH4 0x2F2FF15D EQ PUSH2 0x241 JUMPI DUP1 PUSH4 0x32B3C846 EQ PUSH2 0x254 JUMPI DUP1 PUSH4 0x3F0A92FB EQ PUSH2 0x267 JUMPI DUP1 PUSH4 0x66B2D280 EQ PUSH2 0x27A JUMPI DUP1 PUSH4 0x6A0D2892 EQ PUSH2 0x28D JUMPI DUP1 PUSH4 0x75B238FC EQ PUSH2 0x2A0 JUMPI PUSH1 0x0 DUP1 REVERT JUMPDEST DUP1 PUSH4 0x713EB02 EQ PUSH2 0x178 JUMPI DUP1 PUSH4 0x16853FEB EQ PUSH2 0x1A0 JUMPI DUP1 PUSH4 0x1BC7980C EQ PUSH2 0x1B5 JUMPI DUP1 PUSH4 0x2426BB38 EQ PUSH2 0x1C8 JUMPI DUP1 PUSH4 0x2543B3A7 EQ PUSH2 0x1EF JUMPI DUP1 PUSH4 0x2EA0D829 EQ PUSH2 0x22E JUMPI JUMPDEST PUSH1 0x0 DUP1 REVERT JUMPDEST PUSH2 0x18D PUSH1 0x0 DUP1 MLOAD PUSH1 0x20 PUSH2 0x12E7 DUP4 CODECOPY DUP2 MLOAD SWAP2 MSTORE DUP2 JUMP JUMPDEST PUSH1 0x40 MLOAD SWAP1 DUP2 MSTORE PUSH1 0x20 ADD JUMPDEST PUSH1 0x40 MLOAD DUP1 SWAP2 SUB SWAP1 RETURN JUMPDEST PUSH2 0x1B3 PUSH2 0x1AE CALLDATASIZE PUSH1 0x4 PUSH2 0xF09 JUMP JUMPDEST PUSH2 0x432 JUMP JUMPDEST STOP JUMPDEST PUSH2 0x1B3 PUSH2 0x1C3 CALLDATASIZE PUSH1 0x4 PUSH2 0xF2B JUMP JUMPDEST PUSH2 0x49E JUMP JUMPDEST PUSH2 0x18D PUSH32 0xFC7C36207174F786648D2E624616A4B40E15FD7F0268B4E36AF5057F0C43C835 DUP2 JUMP JUMPDEST PUSH2 0x21E PUSH2 0x1FD CALLDATASIZE PUSH1 0x4 PUSH2 0xFAE JUMP JUMPDEST PUSH1 0x0 SWAP2 DUP3 MSTORE PUSH1 0x4 PUSH1 0x20 DUP2 DUP2 MSTORE PUSH1 0x40 DUP1 DUP6 KECCAK256 SWAP4 DUP6 MSTORE SWAP3 SWAP1 MSTORE SWAP2 KECCAK256 ADD SLOAD PUSH1 0xFF AND SWAP1 JUMP JUMPDEST PUSH1 0x40 MLOAD SWAP1 ISZERO ISZERO DUP2 MSTORE PUSH1 0x20 ADD PUSH2 0x197 JUMP JUMPDEST PUSH2 0x1B3 PUSH2 0x23C CALLDATASIZE PUSH1 0x4 PUSH2 0xF09 JUMP JUMPDEST PUSH2 0x633 JUMP JUMPDEST PUSH2 0x1B3 PUSH2 0x24F CALLDATASIZE PUSH1 0x4 PUSH2 0xFD0 JUMP JUMPDEST PUSH2 0x692 JUMP JUMPDEST PUSH2 0x1B3 PUSH2 0x262 CALLDATASIZE PUSH1 0x4 PUSH2 0xF09 JUMP JUMPDEST PUSH2 0x6C9 JUMP JUMPDEST PUSH2 0x1B3 PUSH2 0x275 CALLDATASIZE PUSH1 0x4 PUSH2 0xFFC JUMP JUMPDEST PUSH2 0x716 JUMP JUMPDEST PUSH2 0x1B3 PUSH2 0x288 CALLDATASIZE PUSH1 0x4 PUSH2 0xF09 JUMP JUMPDEST PUSH2 0x804 JUMP JUMPDEST PUSH2 0x1B3 PUSH2 0x29B CALLDATASIZE PUSH1 0x4 PUSH2 0xFD0 JUMP JUMPDEST PUSH2 0x851 JUMP JUMPDEST PUSH2 0x18D PUSH1 0x0 DUP1 MLOAD PUSH1 0x20 PUSH2 0x1307 DUP4 CODECOPY DUP2 MLOAD SWAP2 MSTORE DUP2 JUMP JUMPDEST PUSH2 0x18D PUSH2 0x2C3 CALLDATASIZE PUSH1 0x4 PUSH2 0xF09 JUMP JUMPDEST PUSH1 0x1 PUSH1 0x1 PUSH1 0xA0 SHL SUB AND PUSH1 0x0 SWAP1 DUP2 MSTORE PUSH1 0x3 PUSH1 0x20 MSTORE PUSH1 0x40 SWAP1 KECCAK256 SLOAD SWAP1 JUMP JUMPDEST PUSH2 0x18D PUSH2 0x2EC CALLDATASIZE PUSH1 0x4 PUSH2 0xF09 JUMP JUMPDEST PUSH1 0x3 PUSH1 0x20 MSTORE PUSH1 0x0 SWAP1 DUP2 MSTORE PUSH1 0x40 SWAP1 KECCAK256 SLOAD DUP2 JUMP JUMPDEST PUSH2 0x21E PUSH2 0x30C CALLDATASIZE PUSH1 0x4 PUSH2 0xFD0 JUMP JUMPDEST PUSH2 0xA34 JUMP JUMPDEST PUSH2 0x18D PUSH1 0x0 DUP2 JUMP JUMPDEST PUSH2 0x32C PUSH2 0x327 CALLDATASIZE PUSH1 0x4 PUSH2 0xFAE JUMP JUMPDEST PUSH2 0xA5D JUMP JUMPDEST PUSH1 0x40 MLOAD PUSH2 0x197 SWAP2 SWAP1 PUSH2 0x1028 JUMP JUMPDEST PUSH2 0x18D PUSH2 0x347 CALLDATASIZE PUSH1 0x4 PUSH2 0xFAE JUMP JUMPDEST PUSH1 0x0 SWAP2 DUP3 MSTORE PUSH1 0x4 PUSH1 0x20 SWAP1 DUP2 MSTORE PUSH1 0x40 DUP1 DUP5 KECCAK256 SWAP3 DUP5 MSTORE SWAP2 SWAP1 MSTORE SWAP1 KECCAK256 PUSH1 0x3 ADD SLOAD SWAP1 JUMP JUMPDEST PUSH2 0x390 PUSH2 0x375 CALLDATASIZE PUSH1 0x4 PUSH2 0x10B1 JUMP JUMPDEST PUSH1 0x2 PUSH1 0x20 MSTORE PUSH1 0x0 SWAP1 DUP2 MSTORE PUSH1 0x40 SWAP1 KECCAK256 SLOAD PUSH1 0x1 PUSH1 0x1 PUSH1 0xA0 SHL SUB AND DUP2 JUMP JUMPDEST PUSH1 0x40 MLOAD PUSH1 0x1 PUSH1 0x1 PUSH1 0xA0 SHL SUB SWAP1 SWAP2 AND DUP2 MSTORE PUSH1 0x20 ADD PUSH2 0x197 JUMP JUMPDEST PUSH2 0x1B3 PUSH2 0x3B6 CALLDATASIZE PUSH1 0x4 PUSH2 0xF09 JUMP JUMPDEST PUSH2 0xB87 JUMP JUMPDEST PUSH2 0x1B3 PUSH2 0x3C9 CALLDATASIZE PUSH1 0x4 PUSH2 0xFD0 JUMP JUMPDEST PUSH2 0xBD4 JUMP JUMPDEST PUSH2 0x1B3 PUSH2 0x3DC CALLDATASIZE PUSH1 0x4 PUSH2 0xFD0 JUMP JUMPDEST PUSH2 0xDA2 JUMP JUMPDEST PUSH2 0x390 PUSH2 0x3EF CALLDATASIZE PUSH1 0x4 PUSH2 0x10B1 JUMP JUMPDEST PUSH1 0x0 SWAP1 DUP2 MSTORE PUSH1 0x2 PUSH1 0x20 MSTORE PUSH1 0x40 SWAP1 KECCAK256 SLOAD PUSH1 0x1 PUSH1 0x1 PUSH1 0xA0 SHL SUB AND SWAP1 JUMP JUMPDEST PUSH2 0x18D PUSH1 0x0 DUP1 MLOAD PUSH1 0x20 PUSH2 0x12C7 DUP4 CODECOPY DUP2 MLOAD SWAP2 MSTORE DUP2 JUMP JUMPDEST PUSH2 0x1B3 PUSH2 0x42D CALLDATASIZE PUSH1 0x4 PUSH2 0xF09 JUMP JUMPDEST PUSH2 0xDD4 JUMP JUMPDEST PUSH1 0x0 DUP1 MLOAD PUSH1 0x20 PUSH2 0x1307 DUP4 CODECOPY DUP2 MLOAD SWAP2 MSTORE PUSH2 0x44B DUP2 CALLER PUSH2 0xA34 JUMP JUMPDEST PUSH2 0x470 JUMPI PUSH1 0x40 MLOAD PUSH3 0x461BCD PUSH1 0xE5 SHL DUP2 MSTORE PUSH1 0x4 ADD PUSH2 0x467 SWAP1 PUSH2 0x10CA JUMP JUMPDEST PUSH1 0x40 MLOAD DUP1 SWAP2 SUB SWAP1 REVERT JUMPDEST PUSH2 0x49A PUSH32 0xFC7C36207174F786648D2E624616A4B40E15FD7F0268B4E36AF5057F0C43C835 DUP4 PUSH2 0xE21 JUMP JUMPDEST POP POP JUMP JUMPDEST PUSH1 0x0 DUP1 MLOAD PUSH1 0x20 PUSH2 0x12C7 DUP4 CODECOPY DUP2 MLOAD SWAP2 MSTORE PUSH2 0x4B7 DUP2 CALLER PUSH2 0xA34 JUMP JUMPDEST PUSH2 0x4D3 JUMPI PUSH1 0x40 MLOAD PUSH3 0x461BCD PUSH1 0xE5 SHL DUP2 MSTORE PUSH1 0x4 ADD PUSH2 0x467 SWAP1 PUSH2 0x10CA JUMP JUMPDEST PUSH1 0x0 DUP6 DUP2 MSTORE PUSH1 0x4 PUSH1 0x20 DUP2 DUP2 MSTORE PUSH1 0x40 DUP1 DUP5 KECCAK256 DUP9 DUP6 MSTORE SWAP1 SWAP2 MSTORE SWAP1 SWAP2 KECCAK256 ADD SLOAD PUSH1 0xFF AND ISZERO PUSH2 0x533 JUMPI PUSH1 0x40 MLOAD PUSH3 0x461BCD PUSH1 0xE5 SHL DUP2 MSTORE PUSH1 0x20 PUSH1 0x4 DUP3 ADD MSTORE PUSH1 0x11 PUSH1 0x24 DUP3 ADD MSTORE PUSH17 0x105B1C9958591E481CDD589B5A5D1D1959 PUSH1 0x7A SHL PUSH1 0x44 DUP3 ADD MSTORE PUSH1 0x64 ADD PUSH2 0x467 JUMP JUMPDEST PUSH1 0x40 MLOAD DUP1 PUSH1 0xA0 ADD PUSH1 0x40 MSTORE DUP1 DUP7 DUP2 MSTORE PUSH1 0x20 ADD DUP6 DUP2 MSTORE PUSH1 0x20 ADD DUP5 DUP5 DUP1 DUP1 PUSH1 0x1F ADD PUSH1 0x20 DUP1 SWAP2 DIV MUL PUSH1 0x20 ADD PUSH1 0x40 MLOAD SWAP1 DUP2 ADD PUSH1 0x40 MSTORE DUP1 SWAP4 SWAP3 SWAP2 SWAP1 DUP2 DUP2 MSTORE PUSH1 0x20 ADD DUP4 DUP4 DUP1 DUP3 DUP5 CALLDATACOPY PUSH1 0x0 SWAP3 ADD DUP3 SWAP1 MSTORE POP SWAP4 DUP6 MSTORE POP POP POP PUSH1 0x20 DUP1 DUP4 ADD DUP3 SWAP1 MSTORE PUSH1 0x1 PUSH1 0x40 SWAP4 DUP5 ADD DUP2 SWAP1 MSTORE DUP10 DUP4 MSTORE PUSH1 0x4 DUP3 MSTORE DUP4 DUP4 KECCAK256 DUP10 DUP5 MSTORE DUP3 MSTORE SWAP2 DUP4 SWAP1 KECCAK256 DUP5 MLOAD DUP2 SSTORE SWAP1 DUP5 ADD MLOAD SWAP2 DUP2 ADD SWAP2 SWAP1 SWAP2 SSTORE SWAP1 DUP3 ADD MLOAD PUSH1 0x2 DUP3 ADD SWAP1 PUSH2 0x5C9 SWAP1 DUP3 PUSH2 0x118F JUMP JUMPDEST POP PUSH1 0x60 DUP3 ADD MLOAD PUSH1 0x3 DUP3 ADD SSTORE PUSH1 0x80 SWAP1 SWAP2 ADD MLOAD PUSH1 0x4 SWAP1 SWAP2 ADD DUP1 SLOAD PUSH1 0xFF NOT AND SWAP2 ISZERO ISZERO SWAP2 SWAP1 SWAP2 OR SWAP1 SSTORE PUSH1 0x40 MLOAD DUP5 SWAP1 DUP7 SWAP1 PUSH32 0x7E1DCECEA5687FBFA4BEE3618E0CB22DFECDD1CE50800C45B577420BE05C6442 SWAP1 PUSH2 0x624 SWAP1 DUP8 SWAP1 DUP8 SWAP1 PUSH2 0x124E JUMP JUMPDEST PUSH1 0x40 MLOAD DUP1 SWAP2 SUB SWAP1 LOG3 POP POP POP POP POP JUMP JUMPDEST PUSH1 0x0 DUP1 MLOAD PUSH1 0x20 PUSH2 0x1307 DUP4 CODECOPY DUP2 MLOAD SWAP2 MSTORE PUSH2 0x64C DUP2 CALLER PUSH2 0xA34 JUMP JUMPDEST PUSH2 0x668 JUMPI PUSH1 0x40 MLOAD PUSH3 0x461BCD PUSH1 0xE5 SHL DUP2 MSTORE PUSH1 0x4 ADD PUSH2 0x467 SWAP1 PUSH2 0x10CA JUMP JUMPDEST PUSH2 0x49A PUSH32 0xFC7C36207174F786648D2E624616A4B40E15FD7F0268B4E36AF5057F0C43C835 DUP4 PUSH2 0xE88 JUMP JUMPDEST PUSH1 0x0 PUSH2 0x69E DUP2 CALLER PUSH2 0xA34 JUMP JUMPDEST PUSH2 0x6BA JUMPI PUSH1 0x40 MLOAD PUSH3 0x461BCD PUSH1 0xE5 SHL DUP2 MSTORE PUSH1 0x4 ADD PUSH2 0x467 SWAP1 PUSH2 0x10CA JUMP JUMPDEST PUSH2 0x6C4 DUP4 DUP4 PUSH2 0xE21 JUMP JUMPDEST POP POP POP JUMP JUMPDEST PUSH1 0x0 DUP1 MLOAD PUSH1 0x20 PUSH2 0x1307 DUP4 CODECOPY DUP2 MLOAD SWAP2 MSTORE PUSH2 0x6E2 DUP2 CALLER PUSH2 0xA34 JUMP JUMPDEST PUSH2 0x6FE JUMPI PUSH1 0x40 MLOAD PUSH3 0x461BCD PUSH1 0xE5 SHL DUP2 MSTORE PUSH1 0x4 ADD PUSH2 0x467 SWAP1 PUSH2 0x10CA JUMP JUMPDEST PUSH2 0x49A PUSH1 0x0 DUP1 MLOAD PUSH1 0x20 PUSH2 0x12C7 DUP4 CODECOPY DUP2 MLOAD SWAP2 MSTORE DUP4 PUSH2 0xE88 JUMP JUMPDEST PUSH1 0x0 DUP1 MLOAD PUSH1 0x20 PUSH2 0x12E7 DUP4 CODECOPY DUP2 MLOAD SWAP2 MSTORE PUSH2 0x72F DUP2 CALLER PUSH2 0xA34 JUMP JUMPDEST PUSH2 0x74B JUMPI PUSH1 0x40 MLOAD PUSH3 0x461BCD PUSH1 0xE5 SHL DUP2 MSTORE PUSH1 0x4 ADD PUSH2 0x467 SWAP1 PUSH2 0x10CA JUMP JUMPDEST PUSH1 0x0 DUP5 DUP2 MSTORE PUSH1 0x4 PUSH1 0x20 DUP2 DUP2 MSTORE PUSH1 0x40 DUP1 DUP5 KECCAK256 DUP8 DUP6 MSTORE SWAP1 SWAP2 MSTORE SWAP1 SWAP2 KECCAK256 ADD SLOAD PUSH1 0xFF AND PUSH2 0x7AA JUMPI PUSH1 0x40 MLOAD PUSH3 0x461BCD PUSH1 0xE5 SHL DUP2 MSTORE PUSH1 0x20 PUSH1 0x4 DUP3 ADD MSTORE PUSH1 0x11 PUSH1 0x24 DUP3 ADD MSTORE PUSH17 0x139BDD081CDD589B5A5D1D1959081E595D PUSH1 0x7A SHL PUSH1 0x44 DUP3 ADD MSTORE PUSH1 0x64 ADD PUSH2 0x467 JUMP JUMPDEST PUSH1 0x0 DUP5 DUP2 MSTORE PUSH1 0x4 PUSH1 0x20 SWAP1 DUP2 MSTORE PUSH1 0x40 DUP1 DUP4 KECCAK256 DUP7 DUP5 MSTORE DUP3 MSTORE SWAP2 DUP3 SWAP1 KECCAK256 PUSH1 0x3 ADD DUP5 SWAP1 SSTORE SWAP1 MLOAD DUP4 DUP2 MSTORE DUP5 SWAP2 DUP7 SWAP2 PUSH32 0xB2383E82269E758B9EC0FC961AC69CECC166570A12068C11B3F9CF29C8DE9E88 SWAP2 ADD PUSH1 0x40 MLOAD DUP1 SWAP2 SUB SWAP1 LOG3 POP POP POP POP JUMP JUMPDEST PUSH1 0x0 DUP1 MLOAD PUSH1 0x20 PUSH2 0x1307 DUP4 CODECOPY DUP2 MLOAD SWAP2 MSTORE PUSH2 0x81D DUP2 CALLER PUSH2 0xA34 JUMP JUMPDEST PUSH2 0x839 JUMPI PUSH1 0x40 MLOAD PUSH3 0x461BCD PUSH1 0xE5 SHL DUP2 MSTORE PUSH1 0x4 ADD PUSH2 0x467 SWAP1 PUSH2 0x10CA JUMP JUMPDEST PUSH2 0x49A PUSH1 0x0 DUP1 MLOAD PUSH1 0x20 PUSH2 0x12E7 DUP4 CODECOPY DUP2 MLOAD SWAP2 MSTORE DUP4 PUSH2 0xE21 JUMP JUMPDEST PUSH1 0x0 DUP1 MLOAD PUSH1 0x20 PUSH2 0x1307 DUP4 CODECOPY DUP2 MLOAD SWAP2 MSTORE PUSH2 0x86A DUP2 CALLER PUSH2 0xA34 JUMP JUMPDEST PUSH2 0x886 JUMPI PUSH1 0x40 MLOAD PUSH3 0x461BCD PUSH1 0xE5 SHL DUP2 MSTORE PUSH1 0x4 ADD PUSH2 0x467 SWAP1 PUSH2 0x10CA JUMP JUMPDEST PUSH1 0x0 DUP4 GT PUSH2 0x8CB JUMPI PUSH1 0x40 MLOAD PUSH3 0x461BCD PUSH1 0xE5 SHL DUP2 MSTORE PUSH1 0x20 PUSH1 0x4 DUP3 ADD MSTORE PUSH1 0x12 PUSH1 0x24 DUP3 ADD MSTORE PUSH18 0x125B9D985B1A59081CDD1D59195B9D081251 PUSH1 0x72 SHL PUSH1 0x44 DUP3 ADD MSTORE PUSH1 0x64 ADD PUSH2 0x467 JUMP JUMPDEST PUSH1 0x1 PUSH1 0x1 PUSH1 0xA0 SHL SUB DUP3 AND PUSH2 0x913 JUMPI PUSH1 0x40 MLOAD PUSH3 0x461BCD PUSH1 0xE5 SHL DUP2 MSTORE PUSH1 0x20 PUSH1 0x4 DUP3 ADD MSTORE PUSH1 0xF PUSH1 0x24 DUP3 ADD MSTORE PUSH15 0x496E76616C69642061646472657373 PUSH1 0x88 SHL PUSH1 0x44 DUP3 ADD MSTORE PUSH1 0x64 ADD PUSH2 0x467 JUMP JUMPDEST PUSH1 0x0 DUP4 DUP2 MSTORE PUSH1 0x2 PUSH1 0x20 MSTORE PUSH1 0x40 SWAP1 KECCAK256 SLOAD PUSH1 0x1 PUSH1 0x1 PUSH1 0xA0 SHL SUB AND PUSH2 0x977 JUMPI PUSH1 0x40 MLOAD PUSH3 0x461BCD PUSH1 0xE5 SHL DUP2 MSTORE PUSH1 0x20 PUSH1 0x4 DUP3 ADD MSTORE PUSH1 0x17 PUSH1 0x24 DUP3 ADD MSTORE PUSH32 0x53747564656E742061646472657373206E6F7420736574000000000000000000 PUSH1 0x44 DUP3 ADD MSTORE PUSH1 0x64 ADD PUSH2 0x467 JUMP JUMPDEST PUSH1 0x1 PUSH1 0x1 PUSH1 0xA0 SHL SUB DUP3 AND PUSH1 0x0 SWAP1 DUP2 MSTORE PUSH1 0x3 PUSH1 0x20 MSTORE PUSH1 0x40 SWAP1 KECCAK256 SLOAD ISZERO PUSH2 0x9AD JUMPI PUSH1 0x40 MLOAD PUSH3 0x461BCD PUSH1 0xE5 SHL DUP2 MSTORE PUSH1 0x4 ADD PUSH2 0x467 SWAP1 PUSH2 0x127D JUMP JUMPDEST PUSH1 0x0 DUP4 DUP2 MSTORE PUSH1 0x2 PUSH1 0x20 SWAP1 DUP2 MSTORE PUSH1 0x40 DUP1 DUP4 KECCAK256 DUP1 SLOAD PUSH1 0x1 PUSH1 0x1 PUSH1 0xA0 SHL SUB SWAP1 DUP2 AND DUP1 DUP7 MSTORE PUSH1 0x3 DUP6 MSTORE DUP4 DUP7 KECCAK256 DUP7 SWAP1 SSTORE DUP3 SLOAD PUSH1 0x1 PUSH1 0x1 PUSH1 0xA0 SHL SUB NOT AND SWAP2 DUP9 AND SWAP2 DUP3 OR SWAP1 SWAP3 SSTORE DUP1 DUP6 MSTORE SWAP4 DUP3 SWAP1 KECCAK256 DUP8 SWAP1 SSTORE SWAP1 MLOAD CALLER DUP2 MSTORE SWAP1 SWAP3 SWAP2 DUP4 SWAP2 DUP8 SWAP2 PUSH32 0x59E33F3654F744A7A32CDA9A919FA879941875BB700D1C776ADE2F64E23B4649 SWAP2 ADD PUSH1 0x40 MLOAD DUP1 SWAP2 SUB SWAP1 LOG4 POP POP POP POP JUMP JUMPDEST PUSH1 0x0 SWAP2 DUP3 MSTORE PUSH1 0x20 DUP3 DUP2 MSTORE PUSH1 0x40 DUP1 DUP5 KECCAK256 PUSH1 0x1 PUSH1 0x1 PUSH1 0xA0 SHL SUB SWAP4 SWAP1 SWAP4 AND DUP5 MSTORE SWAP2 SWAP1 MSTORE SWAP1 KECCAK256 SLOAD PUSH1 0xFF AND SWAP1 JUMP JUMPDEST PUSH2 0xA91 PUSH1 0x40 MLOAD DUP1 PUSH1 0xA0 ADD PUSH1 0x40 MSTORE DUP1 PUSH1 0x0 DUP2 MSTORE PUSH1 0x20 ADD PUSH1 0x0 DUP2 MSTORE PUSH1 0x20 ADD PUSH1 0x60 DUP2 MSTORE PUSH1 0x20 ADD PUSH1 0x0 DUP2 MSTORE PUSH1 0x20 ADD PUSH1 0x0 ISZERO ISZERO DUP2 MSTORE POP SWAP1 JUMP JUMPDEST PUSH1 0x4 PUSH1 0x0 DUP5 DUP2 MSTORE PUSH1 0x20 ADD SWAP1 DUP2 MSTORE PUSH1 0x20 ADD PUSH1 0x0 KECCAK256 PUSH1 0x0 DUP4 DUP2 MSTORE PUSH1 0x20 ADD SWAP1 DUP2 MSTORE PUSH1 0x20 ADD PUSH1 0x0 KECCAK256 PUSH1 0x40 MLOAD DUP1 PUSH1 0xA0 ADD PUSH1 0x40 MSTORE SWAP1 DUP2 PUSH1 0x0 DUP3 ADD SLOAD DUP2 MSTORE PUSH1 0x20 ADD PUSH1 0x1 DUP3 ADD SLOAD DUP2 MSTORE PUSH1 0x20 ADD PUSH1 0x2 DUP3 ADD DUP1 SLOAD PUSH2 0xAE4 SWAP1 PUSH2 0x1107 JUMP JUMPDEST DUP1 PUSH1 0x1F ADD PUSH1 0x20 DUP1 SWAP2 DIV MUL PUSH1 0x20 ADD PUSH1 0x40 MLOAD SWAP1 DUP2 ADD PUSH1 0x40 MSTORE DUP1 SWAP3 SWAP2 SWAP1 DUP2 DUP2 MSTORE PUSH1 0x20 ADD DUP3 DUP1 SLOAD PUSH2 0xB10 SWAP1 PUSH2 0x1107 JUMP JUMPDEST DUP1 ISZERO PUSH2 0xB5D JUMPI DUP1 PUSH1 0x1F LT PUSH2 0xB32 JUMPI PUSH2 0x100 DUP1 DUP4 SLOAD DIV MUL DUP4 MSTORE SWAP2 PUSH1 0x20 ADD SWAP2 PUSH2 0xB5D JUMP JUMPDEST DUP3 ADD SWAP2 SWAP1 PUSH1 0x0 MSTORE PUSH1 0x20 PUSH1 0x0 KECCAK256 SWAP1 JUMPDEST DUP2 SLOAD DUP2 MSTORE SWAP1 PUSH1 0x1 ADD SWAP1 PUSH1 0x20 ADD DUP1 DUP4 GT PUSH2 0xB40 JUMPI DUP3 SWAP1 SUB PUSH1 0x1F AND DUP3 ADD SWAP2 JUMPDEST POP POP POP SWAP2 DUP4 MSTORE POP POP PUSH1 0x3 DUP3 ADD SLOAD PUSH1 0x20 DUP3 ADD MSTORE PUSH1 0x4 SWAP1 SWAP2 ADD SLOAD PUSH1 0xFF AND ISZERO ISZERO PUSH1 0x40 SWAP1 SWAP2 ADD MSTORE SWAP4 SWAP3 POP POP POP JUMP JUMPDEST PUSH1 0x0 DUP1 MLOAD PUSH1 0x20 PUSH2 0x1307 DUP4 CODECOPY DUP2 MLOAD SWAP2 MSTORE PUSH2 0xBA0 DUP2 CALLER PUSH2 0xA34 JUMP JUMPDEST PUSH2 0xBBC JUMPI PUSH1 0x40 MLOAD PUSH3 0x461BCD PUSH1 0xE5 SHL DUP2 MSTORE PUSH1 0x4 ADD PUSH2 0x467 SWAP1 PUSH2 0x10CA JUMP JUMPDEST PUSH2 0x49A PUSH1 0x0 DUP1 MLOAD PUSH1 0x20 PUSH2 0x12C7 DUP4 CODECOPY DUP2 MLOAD SWAP2 MSTORE DUP4 PUSH2 0xE21 JUMP JUMPDEST PUSH1 0x0 DUP1 MLOAD PUSH1 0x20 PUSH2 0x1307 DUP4 CODECOPY DUP2 MLOAD SWAP2 MSTORE PUSH2 0xBED DUP2 CALLER PUSH2 0xA34 JUMP JUMPDEST PUSH2 0xC09 JUMPI PUSH1 0x40 MLOAD PUSH3 0x461BCD PUSH1 0xE5 SHL DUP2 MSTORE PUSH1 0x4 ADD PUSH2 0x467 SWAP1 PUSH2 0x10CA JUMP JUMPDEST PUSH1 0x0 DUP4 GT PUSH2 0xC4E JUMPI PUSH1 0x40 MLOAD PUSH3 0x461BCD PUSH1 0xE5 SHL DUP2 MSTORE PUSH1 0x20 PUSH1 0x4 DUP3 ADD MSTORE PUSH1 0x12 PUSH1 0x24 DUP3 ADD MSTORE PUSH18 0x125B9D985B1A59081CDD1D59195B9D081251 PUSH1 0x72 SHL PUSH1 0x44 DUP3 ADD MSTORE PUSH1 0x64 ADD PUSH2 0x467 JUMP JUMPDEST PUSH1 0x1 PUSH1 0x1 PUSH1 0xA0 SHL SUB DUP3 AND PUSH2 0xC96 JUMPI PUSH1 0x40 MLOAD PUSH3 0x461BCD PUSH1 0xE5 SHL DUP2 MSTORE PUSH1 0x20 PUSH1 0x4 DUP3 ADD MSTORE PUSH1 0xF PUSH1 0x24 DUP3 ADD MSTORE PUSH15 0x496E76616C69642061646472657373 PUSH1 0x88 SHL PUSH1 0x44 DUP3 ADD MSTORE PUSH1 0x64 ADD PUSH2 0x467 JUMP JUMPDEST PUSH1 0x0 DUP4 DUP2 MSTORE PUSH1 0x2 PUSH1 0x20 MSTORE PUSH1 0x40 SWAP1 KECCAK256 SLOAD PUSH1 0x1 PUSH1 0x1 PUSH1 0xA0 SHL SUB AND ISZERO PUSH2 0xCFB JUMPI PUSH1 0x40 MLOAD PUSH3 0x461BCD PUSH1 0xE5 SHL DUP2 MSTORE PUSH1 0x20 PUSH1 0x4 DUP3 ADD MSTORE PUSH1 0x1B PUSH1 0x24 DUP3 ADD MSTORE PUSH32 0x53747564656E74206164647265737320616C7265616479207365740000000000 PUSH1 0x44 DUP3 ADD MSTORE PUSH1 0x64 ADD PUSH2 0x467 JUMP JUMPDEST PUSH1 0x1 PUSH1 0x1 PUSH1 0xA0 SHL SUB DUP3 AND PUSH1 0x0 SWAP1 DUP2 MSTORE PUSH1 0x3 PUSH1 0x20 MSTORE PUSH1 0x40 SWAP1 KECCAK256 SLOAD ISZERO PUSH2 0xD31 JUMPI PUSH1 0x40 MLOAD PUSH3 0x461BCD PUSH1 0xE5 SHL DUP2 MSTORE PUSH1 0x4 ADD PUSH2 0x467 SWAP1 PUSH2 0x127D JUMP JUMPDEST PUSH1 0x0 DUP4 DUP2 MSTORE PUSH1 0x2 PUSH1 0x20 SWAP1 DUP2 MSTORE PUSH1 0x40 DUP1 DUP4 KECCAK256 DUP1 SLOAD PUSH1 0x1 PUSH1 0x1 PUSH1 0xA0 SHL SUB NOT AND PUSH1 0x1 PUSH1 0x1 PUSH1 0xA0 SHL SUB DUP8 AND SWAP1 DUP2 OR SWAP1 SWAP2 SSTORE DUP1 DUP5 MSTORE PUSH1 0x3 DUP4 MSTORE SWAP3 DUP2 SWAP1 KECCAK256 DUP7 SWAP1 SSTORE MLOAD CALLER DUP2 MSTORE DUP6 SWAP2 PUSH32 0xD9CC4835D96FC4B2AFB6DB1577A9677A621088CDEE0C53DA65076951D88BE32F SWAP2 ADD PUSH1 0x40 MLOAD DUP1 SWAP2 SUB SWAP1 LOG3 POP POP POP JUMP JUMPDEST PUSH1 0x0 PUSH2 0xDAE DUP2 CALLER PUSH2 0xA34 JUMP JUMPDEST PUSH2 0xDCA JUMPI PUSH1 0x40 MLOAD PUSH3 0x461BCD PUSH1 0xE5 SHL DUP2 MSTORE PUSH1 0x4 ADD PUSH2 0x467 SWAP1 PUSH2 0x10CA JUMP JUMPDEST PUSH2 0x6C4 DUP4 DUP4 PUSH2 0xE88 JUMP JUMPDEST PUSH1 0x0 DUP1 MLOAD PUSH1 0x20 PUSH2 0x1307 DUP4 CODECOPY DUP2 MLOAD SWAP2 MSTORE PUSH2 0xDED DUP2 CALLER PUSH2 0xA34 JUMP JUMPDEST PUSH2 0xE09 JUMPI PUSH1 0x40 MLOAD PUSH3 0x461BCD PUSH1 0xE5 SHL DUP2 MSTORE PUSH1 0x4 ADD PUSH2 0x467 SWAP1 PUSH2 0x10CA JUMP JUMPDEST PUSH2 0x49A PUSH1 0x0 DUP1 MLOAD PUSH1 0x20 PUSH2 0x12E7 DUP4 CODECOPY DUP2 MLOAD SWAP2 MSTORE DUP4 PUSH2 0xE88 JUMP JUMPDEST PUSH2 0xE2B DUP3 DUP3 PUSH2 0xA34 JUMP JUMPDEST PUSH2 0x49A JUMPI PUSH1 0x0 DUP3 DUP2 MSTORE PUSH1 0x20 DUP2 DUP2 MSTORE PUSH1 0x40 DUP1 DUP4 KECCAK256 PUSH1 0x1 PUSH1 0x1 PUSH1 0xA0 SHL SUB DUP6 AND DUP1 DUP6 MSTORE SWAP3 MSTORE DUP1 DUP4 KECCAK256 DUP1 SLOAD PUSH1 0xFF NOT AND PUSH1 0x1 OR SWAP1 SSTORE MLOAD CALLER SWAP3 DUP6 SWAP2 PUSH32 0x2F8788117E7EFF1D82E926EC794901D17C78024A50270940304540A733656F0D SWAP2 SWAP1 LOG4 POP POP JUMP JUMPDEST PUSH2 0xE92 DUP3 DUP3 PUSH2 0xA34 JUMP JUMPDEST ISZERO PUSH2 0x49A JUMPI PUSH1 0x0 DUP3 DUP2 MSTORE PUSH1 0x20 DUP2 DUP2 MSTORE PUSH1 0x40 DUP1 DUP4 KECCAK256 PUSH1 0x1 PUSH1 0x1 PUSH1 0xA0 SHL SUB DUP6 AND DUP1 DUP6 MSTORE SWAP3 MSTORE DUP1 DUP4 KECCAK256 DUP1 SLOAD PUSH1 0xFF NOT AND SWAP1 SSTORE MLOAD CALLER SWAP3 DUP6 SWAP2 PUSH32 0xF6391F5C32D9C69D2A47EA670B442974B53935D1EDC7FD64EB21E047A839171B SWAP2 SWAP1 LOG4 POP POP JUMP JUMPDEST DUP1 CALLDATALOAD PUSH1 0x1 PUSH1 0x1 PUSH1 0xA0 SHL SUB DUP2 AND DUP2 EQ PUSH2 0xF04 JUMPI PUSH1 0x0 DUP1 REVERT JUMPDEST SWAP2 SWAP1 POP JUMP JUMPDEST PUSH1 0x0 PUSH1 0x20 DUP3 DUP5 SUB SLT ISZERO PUSH2 0xF1B JUMPI PUSH1 0x0 DUP1 REVERT JUMPDEST PUSH2 0xF24 DUP3 PUSH2 0xEED JUMP JUMPDEST SWAP4 SWAP3 POP POP POP JUMP JUMPDEST PUSH1 0x0 DUP1 PUSH1 0x0 DUP1 PUSH1 0x60 DUP6 DUP8 SUB SLT ISZERO PUSH2 0xF41 JUMPI PUSH1 0x0 DUP1 REVERT JUMPDEST DUP5 CALLDATALOAD SWAP4 POP PUSH1 0x20 DUP6 ADD CALLDATALOAD SWAP3 POP PUSH1 0x40 DUP6 ADD CALLDATALOAD PUSH8 0xFFFFFFFFFFFFFFFF DUP2 GT ISZERO PUSH2 0xF66 JUMPI PUSH1 0x0 DUP1 REVERT JUMPDEST DUP6 ADD PUSH1 0x1F DUP2 ADD DUP8 SGT PUSH2 0xF77 JUMPI PUSH1 0x0 DUP1 REVERT JUMPDEST DUP1 CALLDATALOAD PUSH8 0xFFFFFFFFFFFFFFFF DUP2 GT ISZERO PUSH2 0xF8E JUMPI PUSH1 0x0 DUP1 REVERT JUMPDEST DUP8 PUSH1 0x20 DUP3 DUP5 ADD ADD GT ISZERO PUSH2 0xFA0 JUMPI PUSH1 0x0 DUP1 REVERT JUMPDEST SWAP5 SWAP8 SWAP4 SWAP7 POP PUSH1 0x20 ADD SWAP5 POP POP POP JUMP JUMPDEST PUSH1 0x0 DUP1 PUSH1 0x40 DUP4 DUP6 SUB SLT ISZERO PUSH2 0xFC1 JUMPI PUSH1 0x0 DUP1 REVERT JUMPDEST POP POP DUP1 CALLDATALOAD SWAP3 PUSH1 0x20 SWAP1 SWAP2 ADD CALLDATALOAD SWAP2 POP JUMP JUMPDEST PUSH1 0x0 DUP1 PUSH1 0x40 DUP4 DUP6 SUB SLT ISZERO PUSH2 0xFE3 JUMPI PUSH1 0x0 DUP1 REVERT JUMPDEST DUP3 CALLDATALOAD SWAP2 POP PUSH2 0xFF3 PUSH1 0x20 DUP5 ADD PUSH2 0xEED JUMP JUMPDEST SWAP1 POP SWAP3 POP SWAP3 SWAP1 POP JUMP JUMPDEST PUSH1 0x0 DUP1 PUSH1 0x0 PUSH1 0x60 DUP5 DUP7 SUB SLT ISZERO PUSH2 0x1011 JUMPI PUSH1 0x0 DUP1 REVERT JUMPDEST POP POP DUP2 CALLDATALOAD SWAP4 PUSH1 0x20 DUP4 ADD CALLDATALOAD SWAP4 POP PUSH1 0x40 SWAP1 SWAP3 ADD CALLDATALOAD SWAP2 SWAP1 POP JUMP JUMPDEST PUSH1 0x20 DUP2 MSTORE DUP2 MLOAD PUSH1 0x20 DUP3 ADD MSTORE PUSH1 0x20 DUP3 ADD MLOAD PUSH1 0x40 DUP3 ADD MSTORE PUSH1 0x0 PUSH1 0x40 DUP4 ADD MLOAD PUSH1 0xA0 PUSH1 0x60 DUP5 ADD MSTORE DUP1 MLOAD DUP1 PUSH1 0xC0 DUP6 ADD MSTORE PUSH1 0x0 JUMPDEST DUP2 DUP2 LT ISZERO PUSH2 0x1073 JUMPI PUSH1 0x20 DUP2 DUP5 ADD DUP2 ADD MLOAD PUSH1 0xE0 DUP8 DUP5 ADD ADD MSTORE ADD PUSH2 0x1056 JUMP JUMPDEST POP PUSH1 0x0 PUSH1 0xE0 DUP3 DUP7 ADD ADD MSTORE PUSH1 0x60 DUP6 ADD MLOAD PUSH1 0x80 DUP6 ADD MSTORE PUSH1 0x80 DUP6 ADD MLOAD SWAP2 POP PUSH2 0x109C PUSH1 0xA0 DUP6 ADD DUP4 ISZERO ISZERO SWAP1 MSTORE JUMP JUMPDEST PUSH1 0x1F ADD PUSH1 0x1F NOT AND SWAP3 SWAP1 SWAP3 ADD PUSH1 0xE0 ADD SWAP4 SWAP3 POP POP POP JUMP JUMPDEST PUSH1 0x0 PUSH1 0x20 DUP3 DUP5 SUB SLT ISZERO PUSH2 0x10C3 JUMPI PUSH1 0x0 DUP1 REVERT JUMPDEST POP CALLDATALOAD SWAP2 SWAP1 POP JUMP JUMPDEST PUSH1 0x20 DUP1 DUP3 MSTORE PUSH1 0xD SWAP1 DUP3 ADD MSTORE PUSH13 0x1058D8D95CDCC819195B9A5959 PUSH1 0x9A SHL PUSH1 0x40 DUP3 ADD MSTORE PUSH1 0x60 ADD SWAP1 JUMP JUMPDEST PUSH4 0x4E487B71 PUSH1 0xE0 SHL PUSH1 0x0 MSTORE PUSH1 0x41 PUSH1 0x4 MSTORE PUSH1 0x24 PUSH1 0x0 REVERT JUMPDEST PUSH1 0x1 DUP2 DUP2 SHR SWAP1 DUP3 AND DUP1 PUSH2 0x111B JUMPI PUSH1 0x7F DUP3 AND SWAP2 POP JUMPDEST PUSH1 0x20 DUP3 LT DUP2 SUB PUSH2 0x113B JUMPI PUSH4 0x4E487B71 PUSH1 0xE0 SHL PUSH1 0x0 MSTORE PUSH1 0x22 PUSH1 0x4 MSTORE PUSH1 0x24 PUSH1 0x0 REVERT JUMPDEST POP SWAP2 SWAP1 POP JUMP JUMPDEST PUSH1 0x1F DUP3 GT ISZERO PUSH2 0x6C4 JUMPI DUP1 PUSH1 0x0 MSTORE PUSH1 0x20 PUSH1 0x0 KECCAK256 PUSH1 0x1F DUP5 ADD PUSH1 0x5 SHR DUP2 ADD PUSH1 0x20 DUP6 LT ISZERO PUSH2 0x1168 JUMPI POP DUP1 JUMPDEST PUSH1 0x1F DUP5 ADD PUSH1 0x5 SHR DUP3 ADD SWAP2 POP JUMPDEST DUP2 DUP2 LT ISZERO PUSH2 0x1188 JUMPI PUSH1 0x0 DUP2 SSTORE PUSH1 0x1 ADD PUSH2 0x1174 JUMP JUMPDEST POP POP POP POP POP JUMP JUMPDEST DUP2 MLOAD PUSH8 0xFFFFFFFFFFFFFFFF DUP2 GT ISZERO PUSH2 0x11A9 JUMPI PUSH2 0x11A9 PUSH2 0x10F1 JUMP JUMPDEST PUSH2 0x11BD DUP2 PUSH2 0x11B7 DUP5 SLOAD PUSH2 0x1107 JUMP JUMPDEST DUP5 PUSH2 0x1141 JUMP JUMPDEST PUSH1 0x20 PUSH1 0x1F DUP3 GT PUSH1 0x1 DUP2 EQ PUSH2 0x11F1 JUMPI PUSH1 0x0 DUP4 ISZERO PUSH2 0x11D9 JUMPI POP DUP5 DUP3 ADD MLOAD JUMPDEST PUSH1 0x0 NOT PUSH1 0x3 DUP6 SWAP1 SHL SHR NOT AND PUSH1 0x1 DUP5 SWAP1 SHL OR DUP5 SSTORE PUSH2 0x1188 JUMP JUMPDEST PUSH1 0x0 DUP5 DUP2 MSTORE PUSH1 0x20 DUP2 KECCAK256 PUSH1 0x1F NOT DUP6 AND SWAP2 JUMPDEST DUP3 DUP2 LT ISZERO PUSH2 0x1221 JUMPI DUP8 DUP6 ADD MLOAD DUP3 SSTORE PUSH1 0x20 SWAP5 DUP6 ADD SWAP5 PUSH1 0x1 SWAP1 SWAP3 ADD SWAP2 ADD PUSH2 0x1201 JUMP JUMPDEST POP DUP5 DUP3 LT ISZERO PUSH2 0x123F JUMPI DUP7 DUP5 ADD MLOAD PUSH1 0x0 NOT PUSH1 0x3 DUP8 SWAP1 SHL PUSH1 0xF8 AND SHR NOT AND DUP2 SSTORE JUMPDEST POP POP POP POP PUSH1 0x1 SWAP1 DUP2 SHL ADD SWAP1 SSTORE POP JUMP JUMPDEST PUSH1 0x20 DUP2 MSTORE DUP2 PUSH1 0x20 DUP3 ADD MSTORE DUP2 DUP4 PUSH1 0x40 DUP4 ADD CALLDATACOPY PUSH1 0x0 DUP2 DUP4 ADD PUSH1 0x40 SWAP1 DUP2 ADD SWAP2 SWAP1 SWAP2 MSTORE PUSH1 0x1F SWAP1 SWAP3 ADD PUSH1 0x1F NOT AND ADD ADD SWAP2 SWAP1 POP JUMP JUMPDEST PUSH1 0x20 DUP1 DUP3 MSTORE PUSH1 0x29 SWAP1 DUP3 ADD MSTORE PUSH32 0x4164647265737320616C7265616479206C696E6B656420746F20616E6F746865 PUSH1 0x40 DUP3 ADD MSTORE PUSH9 0x1C881CDD1D59195B9D PUSH1 0xBA SHL PUSH1 0x60 DUP3 ADD MSTORE PUSH1 0x80 ADD SWAP1 JUMP INVALID CALLDATASIZE 0xA5 0xC4 0xAA 0xAC 0xB6 0xB3 DUP9 0xBB 0xD4 BASEFEE 0xBF GT MULMOD PUSH12 0x7DAFC5652BCC9046084FD0E9 JUMPDEST 0x1F 0xB0 0xB2 0xCC 0xD8 0xF DUPN 0xBC 0xE CALLER 0xAB DIFFICULTY OR 0xBD TIMESTAMP PUSH0 0x29 PUSH31 0x26E0456472DF56B1EAAEE7ACD2CBC2C696FA49807205CE4D355092EF5A8A1 DUP16 JUMP 0xE8 SWAP2 EXTCODECOPY DELEGATECALL LOG2 ADD EXTSTATICCALL 0xE2 DUP8 DUP3 JUMPDEST MULMOD JUMP SWAP4 0xC2 OR PUSH22 0xA26469706673582212202459F0A88AFE736BE6570656 DUP9 0x25 0xEB BASEFEE PC 0xE 0xDE 0xF7 0x2B SWAP3 0xBC PUSH17 0x64C7F458BA404E5364736F6C634300081E STOP CALLER "
		},
		"gasEstimates": {
			"creation": {
				"codeDepositCost": "991200",
				"executionCost": "1027",
				"totalCost": "992227"
			},
			"external": {
				"ADMIN_ROLE()": "infinite",
				"DEFAULT_ADMIN_ROLE()": "273",
				"EMPLOYER_ROLE()": "274",
				"LECTURER_ROLE()": "infinite",
				"STUDENT_ROLE()": "infinite",
				"addressToStudentId(address)": "2553",
				"getAnswer(uint256,uint256)": "infinite",
				"getScore(uint256,uint256)": "2661",
				"getStudentAddress(uint256)": "2543",
				"getStudentIdByAddress(address)": "2549",
				"grantEmployerRole(address)": "infinite",
				"grantLecturerRole(address)": "infinite",
				"grantRole(bytes32,address)": "infinite",
				"grantStudentRole(address)": "infinite",
				"hasRole(bytes32,address)": "2729",
				"hasSubmitted(uint256,uint256)": "2660",
				"revokeEmployerRole(address)": "infinite",
				"revokeLecturerRole(address)": "infinite",
				"revokeRole(bytes32,address)": "infinite",
				"revokeStudentRole(address)": "infinite",
				"setStudentAddress(uint256,address)": "infinite",
				"studentAddresses(uint256)": "2522",
				"submitAnswer(uint256,uint256,string)": "infinite",
				"updateScore(uint256,uint256,uint256)": "infinite",
				"updateStudentAddress(uint256,address)": "infinite"
			}
		},
		"methodIdentifiers": {
			"ADMIN_ROLE()": "75b238fc",
			"DEFAULT_ADMIN_ROLE()": "a217fddf",
			"EMPLOYER_ROLE()": "2426bb38",
			"LECTURER_ROLE()": "0713eb02",
			"STUDENT_ROLE()": "f7be43fb",
			"addressToStudentId(address)": "86c34415",
			"getAnswer(uint256,uint256)": "a22c1bc9",
			"getScore(uint256,uint256)": "adc6ba73",
			"getStudentAddress(uint256)": "e67651ac",
			"getStudentIdByAddress(address)": "80ab3dda",
			"grantEmployerRole(address)": "16853feb",
			"grantLecturerRole(address)": "66b2d280",
			"grantRole(bytes32,address)": "2f2ff15d",
			"grantStudentRole(address)": "c94d10ad",
			"hasRole(bytes32,address)": "91d14854",
			"hasSubmitted(uint256,uint256)": "2543b3a7",
			"revokeEmployerRole(address)": "2ea0d829",
			"revokeLecturerRole(address)": "fc9b39e6",
			"revokeRole(bytes32,address)": "d547741f",
			"revokeStudentRole(address)": "32b3c846",
			"setStudentAddress(uint256,address)": "d27fc520",
			"studentAddresses(uint256)": "b5ab682d",
			"submitAnswer(uint256,uint256,string)": "1bc7980c",
			"updateScore(uint256,uint256,uint256)": "3f0a92fb",
			"updateStudentAddress(uint256,address)": "6a0d2892"
		}
	},
	"abi": [
		{
			"anonymous": false,
			"inputs": [
				{
					"indexed": true,
					"internalType": "uint256",
					"name": "student_id",
					"type": "uint256"
				},
				{
					"indexed": true,
					"internalType": "uint256",
					"name": "exam_id",
					"type": "uint256"
				},
				{
					"indexed": false,
					"internalType": "string",
					"name": "content",
					"type": "string"
				}
			],
			"name": "AnswerSubmitted",
			"type": "event"
		},
		{
			"anonymous": false,
			"inputs": [
				{
					"indexed": true,
					"internalType": "bytes32",
					"name": "role",
					"type": "bytes32"
				},
				{
					"indexed": true,
					"internalType": "address",
					"name": "account",
					"type": "address"
				},
				{
					"indexed": true,
					"internalType": "address",
					"name": "sender",
					"type": "address"
				}
			],
			"name": "RoleGranted",
			"type": "event"
		},
		{
			"anonymous": false,
			"inputs": [
				{
					"indexed": true,
					"internalType": "bytes32",
					"name": "role",
					"type": "bytes32"
				},
				{
					"indexed": true,
					"internalType": "address",
					"name": "account",
					"type": "address"
				},
				{
					"indexed": true,
					"internalType": "address",
					"name": "sender",
					"type": "address"
				}
			],
			"name": "RoleRevoked",
			"type": "event"
		},
		{
			"anonymous": false,
			"inputs": [
				{
					"indexed": true,
					"internalType": "uint256",
					"name": "student_id",
					"type": "uint256"
				},
				{
					"indexed": true,
					"internalType": "uint256",
					"name": "exam_id",
					"type": "uint256"
				},
				{
					"indexed": false,
					"internalType": "uint256",
					"name": "newScore",
					"type": "uint256"
				}
			],
			"name": "ScoreUpdated",
			"type": "event"
		},
		{
			"anonymous": false,
			"inputs": [
				{
					"indexed": true,
					"internalType": "uint256",
					"name": "student_id",
					"type": "uint256"
				},
				{
					"indexed": true,
					"internalType": "address",
					"name": "studentAddress",
					"type": "address"
				},
				{
					"indexed": false,
					"internalType": "address",
					"name": "setBy",
					"type": "address"
				}
			],
			"name": "StudentAddressSet",
			"type": "event"
		},
		{
			"anonymous": false,
			"inputs": [
				{
					"indexed": true,
					"internalType": "uint256",
					"name": "student_id",
					"type": "uint256"
				},
				{
					"indexed": true,
					"internalType": "address",
					"name": "oldAddress",
					"type": "address"
				},
				{
					"indexed": true,
					"internalType": "address",
					"name": "newAddress",
					"type": "address"
				},
				{
					"indexed": false,
					"internalType": "address",
					"name": "updatedBy",
					"type": "address"
				}
			],
			"name": "StudentAddressUpdated",
			"type": "event"
		},
		{
			"inputs": [],
			"name": "ADMIN_ROLE",
			"outputs": [
				{
					"internalType": "bytes32",
					"name": "",
					"type": "bytes32"
				}
			],
			"stateMutability": "view",
			"type": "function"
		},
		{
			"inputs": [],
			"name": "DEFAULT_ADMIN_ROLE",
			"outputs": [
				{
					"internalType": "bytes32",
					"name": "",
					"type": "bytes32"
				}
			],
			"stateMutability": "view",
			"type": "function"
		},
		{
			"inputs": [],
			"name": "EMPLOYER_ROLE",
			"outputs": [
				{
					"internalType": "bytes32",
					"name": "",
					"type": "bytes32"
				}
			],
			"stateMutability": "view",
			"type": "function"
		},
		{
			"inputs": [],
			"name": "LECTURER_ROLE",
			"outputs": [
				{
					"internalType": "bytes32",
					"name": "",
					"type": "bytes32"
				}
			],
			"stateMutability": "view",
			"type": "function"
		},
		{
			"inputs": [],
			"name": "STUDENT_ROLE",
			"outputs": [
				{
					"internalType": "bytes32",
					"name": "",
					"type": "bytes32"
				}
			],
			"stateMutability": "view",
			"type": "function"
		},
		{
			"inputs": [
				{
					"internalType": "address",
					"name": "",
					"type": "address"
				}
			],
			"name": "addressToStudentId",
			"outputs": [
				{
					"internalType": "uint256",
					"name": "",
					"type": "uint256"
				}
			],
			"stateMutability": "view",
			"type": "function"
		},
		{
			"inputs": [
				{
					"internalType": "uint256",
					"name": "student_id",
					"type": "uint256"
				},
				{
					"internalType": "uint256",
					"name": "exam_id",
					"type": "uint256"
				}
			],
			"name": "getAnswer",
			"outputs": [
				{
					"components": [
						{
							"internalType": "uint256",
							"name": "student_id",
							"type": "uint256"
						},
						{
							"internalType": "uint256",
							"name": "exam_id",
							"type": "uint256"
						},
						{
							"internalType": "string",
							"name": "content",
							"type": "string"
						},
						{
							"internalType": "uint256",
							"name": "score",
							"type": "uint256"
						},
						{
							"internalType": "bool",
							"name": "submitted",
							"type": "bool"
						}
					],
					"internalType": "struct StudentAnswer.Answer",
					"name": "",
					"type": "tuple"
				}
			],
			"stateMutability": "view",
			"type": "function"
		},
		{
			"inputs": [
				{
					"internalType": "uint256",
					"name": "student_id",
					"type": "uint256"
				},
				{
					"internalType": "uint256",
					"name": "exam_id",
					"type": "uint256"
				}
			],
			"name": "getScore",
			"outputs": [
				{
					"internalType": "uint256",
					"name": "",
					"type": "uint256"
				}
			],
			"stateMutability": "view",
			"type": "function"
		},
		{
			"inputs": [
				{
					"internalType": "uint256",
					"name": "_student_id",
					"type": "uint256"
				}
			],
			"name": "getStudentAddress",
			"outputs": [
				{
					"internalType": "address",
					"name": "",
					"type": "address"
				}
			],
			"stateMutability": "view",
			"type": "function"
		},
		{
			"inputs": [
				{
					"internalType": "address",
					"name": "_address",
					"type": "address"
				}
			],
			"name": "getStudentIdByAddress",
			"outputs": [
				{
					"internalType": "uint256",
					"name": "",
					"type": "uint256"
				}
			],
			"stateMutability": "view",
			"type": "function"
		},
		{
			"inputs": [
				{
					"internalType": "address",
					"name": "account",
					"type": "address"
				}
			],
			"name": "grantEmployerRole",
			"outputs": [],
			"stateMutability": "nonpayable",
			"type": "function"
		},
		{
			"inputs": [
				{
					"internalType": "address",
					"name": "account",
					"type": "address"
				}
			],
			"name": "grantLecturerRole",
			"outputs": [],
			"stateMutability": "nonpayable",
			"type": "function"
		},
		{
			"inputs": [
				{
					"internalType": "bytes32",
					"name": "role",
					"type": "bytes32"
				},
				{
					"internalType": "address",
					"name": "account",
					"type": "address"
				}
			],
			"name": "grantRole",
			"outputs": [],
			"stateMutability": "nonpayable",
			"type": "function"
		},
		{
			"inputs": [
				{
					"internalType": "address",
					"name": "account",
					"type": "address"
				}
			],
			"name": "grantStudentRole",
			"outputs": [],
			"stateMutability": "nonpayable",
			"type": "function"
		},
		{
			"inputs": [
				{
					"internalType": "bytes32",
					"name": "role",
					"type": "bytes32"
				},
				{
					"internalType": "address",
					"name": "account",
					"type": "address"
				}
			],
			"name": "hasRole",
			"outputs": [
				{
					"internalType": "bool",
					"name": "",
					"type": "bool"
				}
			],
			"stateMutability": "view",
			"type": "function"
		},
		{
			"inputs": [
				{
					"internalType": "uint256",
					"name": "student_id",
					"type": "uint256"
				},
				{
					"internalType": "uint256",
					"name": "exam_id",
					"type": "uint256"
				}
			],
			"name": "hasSubmitted",
			"outputs": [
				{
					"internalType": "bool",
					"name": "",
					"type": "bool"
				}
			],
			"stateMutability": "view",
			"type": "function"
		},
		{
			"inputs": [
				{
					"internalType": "address",
					"name": "account",
					"type": "address"
				}
			],
			"name": "revokeEmployerRole",
			"outputs": [],
			"stateMutability": "nonpayable",
			"type": "function"
		},
		{
			"inputs": [
				{
					"internalType": "address",
					"name": "account",
					"type": "address"
				}
			],
			"name": "revokeLecturerRole",
			"outputs": [],
			"stateMutability": "nonpayable",
			"type": "function"
		},
		{
			"inputs": [
				{
					"internalType": "bytes32",
					"name": "role",
					"type": "bytes32"
				},
				{
					"internalType": "address",
					"name": "account",
					"type": "address"
				}
			],
			"name": "revokeRole",
			"outputs": [],
			"stateMutability": "nonpayable",
			"type": "function"
		},
		{
			"inputs": [
				{
					"internalType": "address",
					"name": "account",
					"type": "address"
				}
			],
			"name": "revokeStudentRole",
			"outputs": [],
			"stateMutability": "nonpayable",
			"type": "function"
		},
		{
			"inputs": [
				{
					"internalType": "uint256",
					"name": "_student_id",
					"type": "uint256"
				},
				{
					"internalType": "address",
					"name": "_studentAddress",
					"type": "address"
				}
			],
			"name": "setStudentAddress",
			"outputs": [],
			"stateMutability": "nonpayable",
			"type": "function"
		},
		{
			"inputs": [
				{
					"internalType": "uint256",
					"name": "",
					"type": "uint256"
				}
			],
			"name": "studentAddresses",
			"outputs": [
				{
					"internalType": "address",
					"name": "",
					"type": "address"
				}
			],
			"stateMutability": "view",
			"type": "function"
		},
		{
			"inputs": [
				{
					"internalType": "uint256",
					"name": "student_id",
					"type": "uint256"
				},
				{
					"internalType": "uint256",
					"name": "exam_id",
					"type": "uint256"
				},
				{
					"internalType": "string",
					"name": "content",
					"type": "string"
				}
			],
			"name": "submitAnswer",
			"outputs": [],
			"stateMutability": "nonpayable",
			"type": "function"
		},
		{
			"inputs": [
				{
					"internalType": "uint256",
					"name": "student_id",
					"type": "uint256"
				},
				{
					"internalType": "uint256",
					"name": "exam_id",
					"type": "uint256"
				},
				{
					"internalType": "uint256",
					"name": "newScore",
					"type": "uint256"
				}
			],
			"name": "updateScore",
			"outputs": [],
			"stateMutability": "nonpayable",
			"type": "function"
		},
		{
			"inputs": [
				{
					"internalType": "uint256",
					"name": "_student_id",
					"type": "uint256"
				},
				{
					"internalType": "address",
					"name": "_newAddress",
					"type": "address"
				}
			],
			"name": "updateStudentAddress",
			"outputs": [],
			"stateMutability": "nonpayable",
			"type": "function"
		}
	]
}